{
  "abi": [
    {
      "inputs": [
        {
          "internalType": "address",
          "name": "nova_",
          "type": "address"
        }
      ],
      "stateMutability": "nonpayable",
      "type": "constructor"
    },
    {
      "inputs": [],
      "name": "AuthorityExpected",
      "type": "error"
    },
    {
      "inputs": [],
      "name": "FunctionInvalidAtThisStage",
      "type": "error"
    },
    {
      "inputs": [],
      "name": "FunctionNotImplemented",
      "type": "error"
    },
    {
      "anonymous": false,
      "inputs": [
        {
          "indexed": false,
          "internalType": "address",
          "name": "nova",
          "type": "address"
        },
        {
          "indexed": false,
          "internalType": "address",
          "name": "repAlgo",
          "type": "address"
        }
      ],
      "name": "LocalRepALogChangedFor",
      "type": "event"
    },
    {
      "anonymous": false,
      "inputs": [
        {
          "indexed": false,
          "internalType": "uint256",
          "name": "taskID",
          "type": "uint256"
        },
        {
          "indexed": false,
          "internalType": "string",
          "name": "uri",
          "type": "string"
        }
      ],
      "name": "TaskCreated",
      "type": "event"
    },
    {
      "anonymous": false,
      "inputs": [
        {
          "indexed": false,
          "internalType": "uint256",
          "name": "taskID",
          "type": "uint256"
        },
        {
          "indexed": false,
          "internalType": "string",
          "name": "uri",
          "type": "string"
        }
      ],
      "name": "TaskEdited",
      "type": "event"
    },
    {
      "anonymous": false,
      "inputs": [
        {
          "indexed": false,
          "internalType": "uint256",
          "name": "taskID",
          "type": "uint256"
        },
        {
          "indexed": false,
          "internalType": "address",
          "name": "taker",
          "type": "address"
        }
      ],
      "name": "TaskFinalized",
      "type": "event"
    },
    {
      "anonymous": false,
      "inputs": [
        {
          "indexed": false,
          "internalType": "uint256",
          "name": "taskID",
          "type": "uint256"
        },
        {
          "indexed": false,
          "internalType": "uint256",
          "name": "submissionId",
          "type": "uint256"
        }
      ],
      "name": "TaskSubmitted",
      "type": "event"
    },
    {
      "anonymous": false,
      "inputs": [
        {
          "indexed": false,
          "internalType": "uint256",
          "name": "taskID",
          "type": "uint256"
        },
        {
          "indexed": false,
          "internalType": "address",
          "name": "taker",
          "type": "address"
        }
      ],
      "name": "TaskTaken",
      "type": "event"
    },
    {
      "inputs": [
        {
          "internalType": "address",
          "name": "NewLocalRepAlgo_",
          "type": "address"
        }
      ],
      "name": "changeInUseLocalRep",
      "outputs": [],
      "stateMutability": "nonpayable",
      "type": "function"
    },
    {
      "inputs": [
        {
          "internalType": "uint256",
          "name": "role",
          "type": "uint256"
        },
        {
          "internalType": "string",
          "name": "uri",
          "type": "string"
        },
        {
          "internalType": "uint256",
          "name": "startDate",
          "type": "uint256"
        },
        {
          "internalType": "uint256",
          "name": "endDate",
          "type": "uint256"
        }
      ],
      "name": "create",
      "outputs": [
        {
          "internalType": "uint256",
          "name": "",
          "type": "uint256"
        }
      ],
      "stateMutability": "nonpayable",
      "type": "function"
    },
    {
      "inputs": [
        {
          "internalType": "address",
          "name": "creator",
          "type": "address"
        },
        {
          "internalType": "uint256",
          "name": "role",
          "type": "uint256"
        },
        {
          "internalType": "string",
          "name": "uri",
          "type": "string"
        },
        {
          "internalType": "uint256",
          "name": "startDate",
          "type": "uint256"
        },
        {
          "internalType": "uint256",
          "name": "endDate",
          "type": "uint256"
        }
      ],
      "name": "createBy",
      "outputs": [
        {
          "internalType": "uint256",
          "name": "",
          "type": "uint256"
        }
      ],
      "stateMutability": "nonpayable",
      "type": "function"
    },
    {
      "inputs": [],
      "name": "currentReputationAddr",
      "outputs": [
        {
          "internalType": "address",
          "name": "",
          "type": "address"
        }
      ],
      "stateMutability": "view",
      "type": "function"
    },
    {
      "inputs": [],
      "name": "daoMembersOnly",
      "outputs": [
        {
          "internalType": "bool",
          "name": "",
          "type": "bool"
        }
      ],
      "stateMutability": "view",
      "type": "function"
    },
    {
      "inputs": [],
      "name": "deployer",
      "outputs": [
        {
          "internalType": "address",
          "name": "",
          "type": "address"
        }
      ],
      "stateMutability": "view",
      "type": "function"
    },
    {
      "inputs": [
        {
          "internalType": "uint256",
          "name": "taskId",
          "type": "uint256"
        },
        {
          "internalType": "uint256",
          "name": "role",
          "type": "uint256"
        },
        {
          "internalType": "string",
          "name": "uri",
          "type": "string"
        },
        {
          "internalType": "uint256",
          "name": "startDate",
          "type": "uint256"
        },
        {
          "internalType": "uint256",
          "name": "endDate",
          "type": "uint256"
        }
      ],
      "name": "editTask",
      "outputs": [],
      "stateMutability": "nonpayable",
      "type": "function"
    },
    {
      "inputs": [
        {
          "internalType": "uint256",
          "name": "taskId",
          "type": "uint256"
        }
      ],
      "name": "finalize",
      "outputs": [],
      "stateMutability": "nonpayable",
      "type": "function"
    },
    {
      "inputs": [
        {
          "internalType": "uint256",
          "name": "taskId",
          "type": "uint256"
        },
        {
          "internalType": "address",
          "name": "submitter",
          "type": "address"
        }
      ],
      "name": "finalizeFor",
      "outputs": [],
      "stateMutability": "nonpayable",
      "type": "function"
    },
    {
      "inputs": [
        {
          "internalType": "uint256",
          "name": "taskId",
          "type": "uint256"
        }
      ],
      "name": "getById",
      "outputs": [
        {
          "components": [
            {
              "internalType": "uint256",
              "name": "createdOn",
              "type": "uint256"
            },
            {
              "internalType": "address",
              "name": "creator",
              "type": "address"
            },
            {
              "internalType": "uint256",
              "name": "role",
              "type": "uint256"
            },
            {
              "internalType": "string",
              "name": "metadata",
              "type": "string"
            },
            {
              "internalType": "uint256",
              "name": "startDate",
              "type": "uint256"
            },
            {
              "internalType": "uint256",
              "name": "endDate",
              "type": "uint256"
            }
          ],
          "internalType": "struct TasksModule.Task",
          "name": "",
          "type": "tuple"
        }
      ],
      "stateMutability": "view",
      "type": "function"
    },
    {
      "inputs": [
        {
          "internalType": "uint256",
          "name": "taskId",
          "type": "uint256"
        },
        {
          "internalType": "address",
          "name": "user",
          "type": "address"
        }
      ],
      "name": "getCompletionTime",
      "outputs": [
        {
          "internalType": "uint256",
          "name": "",
          "type": "uint256"
        }
      ],
      "stateMutability": "view",
      "type": "function"
    },
    {
      "inputs": [
        {
          "internalType": "uint256",
          "name": "taskId",
          "type": "uint256"
        },
        {
          "internalType": "address",
          "name": "submitter",
          "type": "address"
        }
      ],
      "name": "getStatusPerSubmitter",
      "outputs": [
        {
          "internalType": "enum TasksModule.TaskStatus",
          "name": "",
          "type": "uint8"
        }
      ],
      "stateMutability": "view",
      "type": "function"
    },
    {
      "inputs": [
        {
          "internalType": "uint256",
          "name": "taskId",
          "type": "uint256"
        },
        {
          "internalType": "address",
          "name": "submitter",
          "type": "address"
        }
      ],
      "name": "getSubmissionIdPerTaskAndUser",
      "outputs": [
        {
          "internalType": "uint256",
          "name": "",
          "type": "uint256"
        }
      ],
      "stateMutability": "view",
      "type": "function"
    },
    {
      "inputs": [
        {
          "internalType": "uint256",
          "name": "taskId",
          "type": "uint256"
        }
      ],
      "name": "getSubmissionIdsPerTask",
      "outputs": [
        {
          "internalType": "uint256[]",
          "name": "",
          "type": "uint256[]"
        }
      ],
      "stateMutability": "view",
      "type": "function"
    },
    {
      "inputs": [
        {
          "internalType": "address",
          "name": "user",
          "type": "address"
        },
        {
          "internalType": "uint256",
          "name": "taskId",
          "type": "uint256"
        }
      ],
      "name": "hasCompletedTheTask",
      "outputs": [
        {
          "internalType": "bool",
          "name": "",
          "type": "bool"
        }
      ],
      "stateMutability": "view",
      "type": "function"
    },
    {
      "inputs": [],
      "name": "idCounter",
      "outputs": [
        {
          "internalType": "uint256",
          "name": "_value",
          "type": "uint256"
        }
      ],
      "stateMutability": "view",
      "type": "function"
    },
    {
      "inputs": [],
      "name": "isActive",
      "outputs": [
        {
          "internalType": "bool",
          "name": "",
          "type": "bool"
        }
      ],
      "stateMutability": "view",
      "type": "function"
    },
    {
      "inputs": [],
      "name": "lastReputationAddr",
      "outputs": [
        {
          "internalType": "address",
          "name": "",
          "type": "address"
        }
      ],
      "stateMutability": "view",
      "type": "function"
    },
    {
      "inputs": [],
      "name": "moduleId",
      "outputs": [
        {
          "internalType": "uint256",
          "name": "",
          "type": "uint256"
        }
      ],
      "stateMutability": "view",
      "type": "function"
    },
    {
      "inputs": [],
      "name": "novaAddress",
      "outputs": [
        {
          "internalType": "address",
          "name": "",
          "type": "address"
        }
      ],
      "stateMutability": "view",
      "type": "function"
    },
    {
      "inputs": [],
      "name": "owner",
      "outputs": [
        {
          "internalType": "address",
          "name": "",
          "type": "address"
        }
      ],
      "stateMutability": "view",
      "type": "function"
    },
    {
      "inputs": [],
      "name": "pluginId",
      "outputs": [
        {
          "internalType": "uint256",
          "name": "",
          "type": "uint256"
        }
      ],
      "stateMutability": "view",
      "type": "function"
    },
    {
      "inputs": [],
      "name": "pluginRegistry",
      "outputs": [
        {
          "internalType": "address",
          "name": "",
          "type": "address"
        }
      ],
      "stateMutability": "view",
      "type": "function"
    },
    {
      "inputs": [
        {
          "internalType": "uint256",
          "name": "tokenId",
          "type": "uint256"
        }
      ],
      "name": "setPluginId",
      "outputs": [],
      "stateMutability": "nonpayable",
      "type": "function"
    },
    {
      "inputs": [],
      "name": "submissionIds",
      "outputs": [
        {
          "internalType": "uint256",
          "name": "_value",
          "type": "uint256"
        }
      ],
      "stateMutability": "view",
      "type": "function"
    },
    {
      "inputs": [
        {
          "internalType": "uint256",
          "name": "",
          "type": "uint256"
        }
      ],
      "name": "submissions",
      "outputs": [
        {
          "internalType": "address",
          "name": "submitter",
          "type": "address"
        },
        {
          "internalType": "string",
          "name": "submissionMetadata",
          "type": "string"
        },
        {
          "internalType": "uint256",
          "name": "completionTime",
          "type": "uint256"
        },
        {
          "internalType": "enum TasksModule.TaskStatus",
          "name": "status",
          "type": "uint8"
        }
      ],
      "stateMutability": "view",
      "type": "function"
    },
    {
      "inputs": [
        {
          "internalType": "uint256",
          "name": "taskId",
          "type": "uint256"
        },
        {
          "internalType": "string",
          "name": "submitionUrl",
          "type": "string"
        }
      ],
      "name": "submit",
      "outputs": [],
      "stateMutability": "nonpayable",
      "type": "function"
    },
    {
      "inputs": [
        {
          "internalType": "uint256",
          "name": "taskId",
          "type": "uint256"
        }
      ],
      "name": "take",
      "outputs": [],
      "stateMutability": "nonpayable",
      "type": "function"
    },
    {
      "inputs": [
        {
          "internalType": "uint256",
          "name": "",
          "type": "uint256"
        },
        {
          "internalType": "uint256",
          "name": "",
          "type": "uint256"
        }
      ],
      "name": "taskSubmissions",
      "outputs": [
        {
          "internalType": "uint256",
          "name": "",
          "type": "uint256"
        }
      ],
      "stateMutability": "view",
      "type": "function"
    },
    {
      "inputs": [
        {
          "internalType": "uint256",
          "name": "",
          "type": "uint256"
        }
      ],
      "name": "tasks",
      "outputs": [
        {
          "internalType": "uint256",
          "name": "createdOn",
          "type": "uint256"
        },
        {
          "internalType": "address",
          "name": "creator",
          "type": "address"
        },
        {
          "internalType": "uint256",
          "name": "role",
          "type": "uint256"
        },
        {
          "internalType": "string",
          "name": "metadata",
          "type": "string"
        },
        {
          "internalType": "uint256",
          "name": "startDate",
          "type": "uint256"
        },
        {
          "internalType": "uint256",
          "name": "endDate",
          "type": "uint256"
        }
      ],
      "stateMutability": "view",
      "type": "function"
    }
  ],
  "bytecode": {
    "object": "0x60806040523480156200001157600080fd5b5060405162002bc238038062002bc28339810160408190526200003491620005a3565b8081600181600081600160006101000a8154816001600160a01b0302191690836001600160a01b03160217905550816001600160a01b03166341dcea916040518163ffffffff1660e01b8152600401602060405180830381865afa158015620000a1573d6000803e3d6000fd5b505050506040513d601f19601f82011682018060405250810190620000c79190620005a3565b600480546001600160a01b0392831661010002610100600160a81b0319909116179055600080546001600160a01b0319908116331782556003939093556040805160c08101825282815260208082018481528284018581528451928301909452848252606083019182526080830185905260a08301859052600780546001810182559552825160069095027fa66cc928b5edb82af9bd49922954155ab7b0942694bea4ce44661d9a8736c688810195865590517fa66cc928b5edb82af9bd49922954155ab7b0942694bea4ce44661d9a8736c689820180549190971697169690961790945590517fa66cc928b5edb82af9bd49922954155ab7b0942694bea4ce44661d9a8736c68a8501559151919350917fa66cc928b5edb82af9bd49922954155ab7b0942694bea4ce44661d9a8736c68b01906200020790826200067a565b50608082810151600483015560a0909201516005909101556040805191820181526000808352815160208181018452828252840152908201819052600b919060608201528154600180820184556000938452602093849020835160049093020180546001600160a01b0319166001600160a01b039093169290921782559282015191929091908201906200029c90826200067a565b506040820151816002015560608201518160030160006101000a81548160ff02191690836003811115620002d457620002d462000746565b02179055505050620002ed60056200059a60201b60201c565b620002fc600680546001019055565b80600860006101000a81548160ff0219169083151502179055505050806001600160a01b03166341dcea916040518163ffffffff1660e01b81526004016020604051808303816000875af115801562000359573d6000803e3d6000fd5b505050506040513d601f19601f820116820180604052508101906200037f9190620005a3565b6001600160a01b031663f0b7832a6040518163ffffffff1660e01b8152600401602060405180830381865afa158015620003bd573d6000803e3d6000fd5b505050506040513d601f19601f82011682018060405250810190620003e39190620005a3565b600c80546001600160a01b0319166001600160a01b0392831690811790915560405163189acdbd60e31b815291831660048301529063c4d66de890602401600060405180830381600087803b1580156200043c57600080fd5b505af115801562000451573d6000803e3d6000fd5b5050505050806001600160a01b03166341dcea916040518163ffffffff1660e01b81526004016020604051808303816000875af115801562000497573d6000803e3d6000fd5b505050506040513d601f19601f82011682018060405250810190620004bd9190620005a3565b6001600160a01b031663f0b7832a6040518163ffffffff1660e01b8152600401602060405180830381865afa158015620004fb573d6000803e3d6000fd5b505050506040513d601f19601f82011682018060405250810190620005219190620005a3565b600c80546001600160a01b0319166001600160a01b0392831690811790915560405163189acdbd60e31b815291831660048301529063c4d66de890602401600060405180830381600087803b1580156200057a57600080fd5b505af11580156200058f573d6000803e3d6000fd5b50505050506200075c565b80546001019055565b600060208284031215620005b657600080fd5b81516001600160a01b0381168114620005ce57600080fd5b9392505050565b634e487b7160e01b600052604160045260246000fd5b600181811c908216806200060057607f821691505b6020821081036200062157634e487b7160e01b600052602260045260246000fd5b50919050565b601f8211156200067557600081815260208120601f850160051c81016020861015620006505750805b601f850160051c820191505b8181101562000671578281556001016200065c565b5050505b505050565b81516001600160401b03811115620006965762000696620005d5565b620006ae81620006a78454620005eb565b8462000627565b602080601f831160018114620006e65760008415620006cd5750858301515b600019600386901b1c1916600185901b17855562000671565b600085815260208120601f198616915b828110156200071757888601518255948401946001909101908401620006f6565b5085821015620007365787850151600019600388901b60f8161c191681555b5050505050600190811b01905550565b634e487b7160e01b600052602160045260246000fd5b612456806200076c6000396000f3fe608060405234801561001057600080fd5b50600436106101da5760003560e01c80638d97767211610104578063b206b569116100a2578063e13de22b11610071578063e13de22b146103fc578063e31c007f14610432578063eb08ab2814610445578063f4f4d2371461044f57600080fd5b8063b206b569146103a5578063bd45a0a9146103c5578063d5f39488146103d8578063daf91137146103e957600080fd5b8063a1308f27116100de578063a1308f2714610346578063a41e603f1461034f578063ab440d651461036f578063ad73349e1461038257600080fd5b80638d977672146103065780638da5cb5b1461032b578063973cdc781461033357600080fd5b806341dcea911161017c578063599081f91161014b578063599081f9146102c75780635d63f6c6146102d157806386d113c0146102e457806389f12ed9146102f557600080fd5b806341dcea91146102735780634b749e9b146102a35780634fd9efc4146101f457806353eea875146102b457600080fd5b806322f3e2d4116101b857806322f3e2d41461022d5780632b0866481461024a5780632fe7e4411461025d578063409621861461026657600080fd5b806302a4dca0146101df57806305261aea146101f45780630bb75b4514610207575b600080fd5b6101f26101ed366004611c66565b61046f565b005b6101f2610202366004611c66565b6104cf565b61021a610215366004611d4e565b6104e8565b6040519081526020015b60405180910390f35b60045461023a9060ff1681565b6040519015158152602001610224565b6101f2610258366004611db9565b61095c565b61021a60025481565b60085461023a9060ff1681565b60045461028b9061010090046001600160a01b031681565b6040516001600160a01b039091168152602001610224565b600c546001600160a01b031661028b565b61021a6102c2366004611df6565b610bba565b60065461021a9081565b6101f26102df366004611e18565b610beb565b600e546001600160a01b031661028b565b6001546001600160a01b031661028b565b610319610314366004611c66565b610f76565b60405161022496959493929190611eda565b61028b611054565b61023a610341366004611f1c565b6110cf565b61021a60035481565b61036261035d366004611c66565b61113a565b6040516102249190611f48565b6101f261037d366004611f8c565b61119c565b610395610390366004611c66565b611293565b6040516102249493929190611fe8565b6103b86103b336600461202a565b611365565b604051610224919061205a565b61021a6103d3366004612068565b6113bb565b6000546001600160a01b031661028b565b6101f26103f736600461202a565b611618565b61021a61040a36600461202a565b6000918252600a602090815260408084206001600160a01b0393909316845291905290205490565b61021a61044036600461202a565b6117ca565b60055461021a9081565b61046261045d366004611c66565b61181c565b60405161022491906120bf565b60045461010090046001600160a01b031633146104ca5760405162461bcd60e51b81526020600482015260146024820152734f6e6c7920706c7567696e20726567697374727960601b60448201526064015b60405180910390fd5b600255565b60405163ced4f63360e01b815260040160405180910390fd5b60048054600154604051632b948c3960e01b81526001600160a01b03918216938101939093526000928392610100900490911690632b948c3990602401600060405180830381865afa158015610542573d6000803e3d6000fd5b505050506040513d6000823e601f3d908101601f1916820160405261056a9190810190612121565b90506000805b82518110156107625760025483828151811061058e5761058e6121c7565b6020026020010151036105a057600191505b4285116105bf5760405162461bcd60e51b81526004016104c1906121dd565b60008751116105e05760405162461bcd60e51b81526004016104c190612206565b60006105eb60055490565b6040805160c0810182524281526001600160a01b038d8116602083019081529282018d8152606083018d8152608084018d905260a084018c90526007805460018101825560009190915284517fa66cc928b5edb82af9bd49922954155ab7b0942694bea4ce44661d9a8736c688600690920291820190815595517fa66cc928b5edb82af9bd49922954155ab7b0942694bea4ce44661d9a8736c689820180546001600160a01b031916919095161790935590517fa66cc928b5edb82af9bd49922954155ab7b0942694bea4ce44661d9a8736c68a8301555193945090927fa66cc928b5edb82af9bd49922954155ab7b0942694bea4ce44661d9a8736c68b909101906106f790826122af565b506080820151600482015560a090910151600591820155805460010190557fa5ed9e6226c584326505694539c95cb0e3238ae09bcda5a65c00bbfdab1c6662818960405161074692919061236f565b60405180910390a193508061075a81612390565b915050610570565b50806107a25760405162461bcd60e51b815260206004820152600f60248201526e4f6e6c792044414f204d6f64756c6560881b60448201526064016104c1565b4284116107c15760405162461bcd60e51b81526004016104c1906121dd565b60008651116107e25760405162461bcd60e51b81526004016104c190612206565b60006107ed60055490565b6040805160c0810182524281526001600160a01b038c8116602083019081529282018c8152606083018c8152608084018c905260a084018b90526007805460018101825560009190915284517fa66cc928b5edb82af9bd49922954155ab7b0942694bea4ce44661d9a8736c688600690920291820190815595517fa66cc928b5edb82af9bd49922954155ab7b0942694bea4ce44661d9a8736c689820180546001600160a01b031916919095161790935590517fa66cc928b5edb82af9bd49922954155ab7b0942694bea4ce44661d9a8736c68a8301555193945090927fa66cc928b5edb82af9bd49922954155ab7b0942694bea4ce44661d9a8736c68b909101906108f990826122af565b506080820151600482015560a090910151600591820155805460010190557fa5ed9e6226c584326505694539c95cb0e3238ae09bcda5a65c00bbfdab1c6662818860405161094892919061236f565b60405180910390a198975050505050505050565b600154604051630935e01b60e21b81523360048201526001600160a01b03909116906324d7806c90602401602060405180830381865afa1580156109a4573d6000803e3d6000fd5b505050506040513d601f19601f820116820180604052508101906109c891906123b7565b610a025760405162461bcd60e51b815260206004820152600b60248201526a27b7363c9030b236b4b71760a91b60448201526064016104c1565b4260078681548110610a1657610a166121c7565b90600052602060002090600602016004015411610a6c5760405162461bcd60e51b81526020600482015260146024820152731d185cdac8185b1c9958591e481cdd185c9d195960621b60448201526064016104c1565b6000835111610a8d5760405162461bcd60e51b81526004016104c190612206565b6005548510610acd5760405162461bcd60e51b815260206004820152600c60248201526b696e76616c6964207461736b60a01b60448201526064016104c1565b8360078681548110610ae157610ae16121c7565b9060005260206000209060060201600201819055508260078681548110610b0a57610b0a6121c7565b90600052602060002090600602016003019081610b2791906122af565b508160078681548110610b3c57610b3c6121c7565b9060005260206000209060060201600401819055508060078681548110610b6557610b656121c7565b9060005260206000209060060201600501819055507f126a0ea5197c062eb92c789989294eb8d2aef31cf41fd012da26dfab98b29a168584604051610bab92919061236f565b60405180910390a15050505050565b60096020528160005260406000208181548110610bd657600080fd5b90600052602060002001600091509150505481565b60085460ff1615610ca15760015460405163288c314960e21b81523360048201526001600160a01b039091169063a230c52490602401602060405180830381865afa158015610c3e573d6000803e3d6000fd5b505050506040513d601f19601f82011682018060405250810190610c6291906123b7565b610ca15760405162461bcd60e51b815260206004820152601060248201526f4f6e6c792044414f206d656d6265727360801b60448201526064016104c1565b6000838152600a60209081526040808320338085529252822054600b8054879492908110610cd157610cd16121c7565b60009182526020909120600360049092020181015460ff1690811115610cf957610cf9611fb0565b816003811115610d0b57610d0b611fb0565b14610d29576040516328992a5560e21b815260040160405180910390fd5b4260078781548110610d3d57610d3d6121c7565b90600052602060002090600602016004015410610d8e5760405162461bcd60e51b815260206004820152600f60248201526e139bdd081cdd185c9d1959081e595d608a1b60448201526064016104c1565b4260078781548110610da257610da26121c7565b90600052602060002090600602016005015411610df65760405162461bcd60e51b8152602060048201526012602482015271151a19481d185cdac81a185cc8195b99195960721b60448201526064016104c1565b6000610e0160065490565b9050600b6040518060800160405280336001600160a01b0316815260200188888080601f01602080910402602001604051908101604052809392919081815260200183838082843760009201829052509385525050506020820152604001600290528154600180820184556000938452602093849020835160049093020180546001600160a01b0319166001600160a01b03909316929092178255928201519192909190820190610eb290826122af565b506040820151816002015560608201518160030160006101000a81548160ff02191690836003811115610ee757610ee7611fb0565b021790555050506000878152600960209081526040808320805460018101825590845282842001849055898352600a82528083203384529091529020819055610f34600680546001019055565b60408051888152602081018390527f732b29041dfc9fd7a86ce0ca090ecaabdc1a602620a65264047baf43d8ba31be910160405180910390a150505050505050565b60078181548110610f8657600080fd5b600091825260209091206006909102018054600182015460028301546003840180549395506001600160a01b03909216939092909190610fc590612226565b80601f0160208091040260200160405190810160405280929190818152602001828054610ff190612226565b801561103e5780601f106110135761010080835404028352916020019161103e565b820191906000526020600020905b81548152906001019060200180831161102157829003601f168201915b5050505050908060040154908060050154905086565b6004805460405163235883e360e01b815230928101929092526000916101009091046001600160a01b03169063235883e390602401602060405180830381865afa1580156110a6573d6000803e3d6000fd5b505050506040513d601f19601f820116820180604052508101906110ca91906123d9565b905090565b6000818152600a602090815260408083206001600160a01b0386168452909152812054600b8054600392908110611108576111086121c7565b60009182526020909120600360049092020181015460ff169081111561113057611130611fb0565b1490505b92915050565b60008181526009602090815260409182902080548351818402810184019094528084526060939283018282801561119057602002820191906000526020600020905b81548152602001906001019080831161117c575b50505050509050919050565b600d546001600160a01b0316336001600160a01b0316146111d057604051630e8cc36b60e21b815260040160405180910390fd5b600c80546001600160a01b0319166001600160a01b038316179055604080516389f12ed960e01b815290517f3ef34c117b493311a9ea61dff2d101d6bdc33062c190cb30ffbb908b09a2b4949130916389f12ed9916004808201926020929091908290030181865afa15801561124a573d6000803e3d6000fd5b505050506040513d601f19601f8201168201806040525081019061126e91906123d9565b604080516001600160a01b03928316815291841660208301520160405180910390a150565b600b81815481106112a357600080fd5b6000918252602090912060049091020180546001820180546001600160a01b039092169350906112d290612226565b80601f01602080910402602001604051908101604052809291908181526020018280546112fe90612226565b801561134b5780601f106113205761010080835404028352916020019161134b565b820191906000526020600020905b81548152906001019060200180831161132e57829003601f168201915b50505050600283015460039093015491929160ff16905084565b6000828152600a602090815260408083206001600160a01b0385168452909152812054600b8054909190811061139d5761139d6121c7565b600091825260209091206004909102016003015460ff169392505050565b600154604051630935e01b60e21b81523360048201526000916001600160a01b0316906324d7806c90602401602060405180830381865afa158015611404573d6000803e3d6000fd5b505050506040513d601f19601f8201168201806040525081019061142891906123b7565b6114625760405162461bcd60e51b815260206004820152600b60248201526a27b7363c9030b236b4b71760a91b60448201526064016104c1565b4282116114815760405162461bcd60e51b81526004016104c1906121dd565b60008451116114a25760405162461bcd60e51b81526004016104c190612206565b60006114ad60055490565b6040805160c0810182524281523360208201908152918101898152606082018981526080830189905260a083018890526007805460018101825560009190915283517fa66cc928b5edb82af9bd49922954155ab7b0942694bea4ce44661d9a8736c688600690920291820190815594517fa66cc928b5edb82af9bd49922954155ab7b0942694bea4ce44661d9a8736c689820180546001600160a01b0319166001600160a01b0390921691909117905591517fa66cc928b5edb82af9bd49922954155ab7b0942694bea4ce44661d9a8736c68a8301555193945090927fa66cc928b5edb82af9bd49922954155ab7b0942694bea4ce44661d9a8736c68b909101906115b890826122af565b506080820151600482015560a090910151600591820155805460010190557fa5ed9e6226c584326505694539c95cb0e3238ae09bcda5a65c00bbfdab1c6662818660405161160792919061236f565b60405180910390a195945050505050565b6040516001600160e01b03196000351660208201526024810183905260440160408051601f198184030181529181526000848152600a60209081528282206001600160a01b038616835290522054600b8054849286928492600292908110611682576116826121c7565b60009182526020909120600360049092020181015460ff16908111156116aa576116aa611fb0565b8160038111156116bc576116bc611fb0565b146116da576040516328992a5560e21b815260040160405180910390fd5b86336001600160a01b0316600782815481106116f8576116f86121c7565b60009182526020909120600160069092020101546001600160a01b0316146117525760405162461bcd60e51b815260206004820152600d60248201526c27b7363c9031b932b0ba37b91760991b60448201526064016104c1565b61175c888861197a565b5050600c54604051633ad3b04160e01b81526001600160a01b039091169250633ad3b041915061179290859085906004016123f6565b600060405180830381600087803b1580156117ac57600080fd5b505af11580156117c0573d6000803e3d6000fd5b5050505050505050565b6000828152600a602090815260408083206001600160a01b0385168452909152812054600b80549091908110611802576118026121c7565b906000526020600020906004020160020154905092915050565b61185e6040518060c001604052806000815260200160006001600160a01b03168152602001600081526020016060815260200160008152602001600081525090565b60078281548110611871576118716121c7565b90600052602060002090600602016040518060c0016040529081600082015481526020016001820160009054906101000a90046001600160a01b03166001600160a01b03166001600160a01b03168152602001600282015481526020016003820180546118dd90612226565b80601f016020809104026020016040519081016040528092919081815260200182805461190990612226565b80156119565780601f1061192b57610100808354040283529160200191611956565b820191906000526020600020905b81548152906001019060200180831161193957829003601f168201915b50505050508152602001600482015481526020016005820154815250509050919050565b6000828152600a602090815260408083206001600160a01b0385168452909152902054600b80548492849260029290919081106119b9576119b96121c7565b60009182526020909120600360049092020181015460ff16908111156119e1576119e1611fb0565b8160038111156119f3576119f3611fb0565b14611a11576040516328992a5560e21b815260040160405180910390fd5b84336001600160a01b031660078281548110611a2f57611a2f6121c7565b60009182526020909120600160069092020101546001600160a01b031614611a895760405162461bcd60e51b815260206004820152600d60248201526c27b7363c9031b932b0ba37b91760991b60448201526064016104c1565b4260078781548110611a9d57611a9d6121c7565b90600052602060002090600602016004015410611aee5760405162461bcd60e51b815260206004820152600f60248201526e139bdd081cdd185c9d1959081e595d608a1b60448201526064016104c1565b4260078781548110611b0257611b026121c7565b90600052602060002090600602016005015411611b565760405162461bcd60e51b8152602060048201526012602482015271151a19481d185cdac81a185cc8195b99195960721b60448201526064016104c1565b6000868152600a602090815260408083206001600160a01b0389168452909152902054600b8054600392908110611b8f57611b8f6121c7565b906000526020600020906004020160030160006101000a81548160ff02191690836003811115611bc157611bc1611fb0565b02179055506000868152600a602090815260408083206001600160a01b0389168452909152902054600b80544292908110611bfe57611bfe6121c7565b9060005260206000209060040201600201819055507fc923846dc69de8ab93cf9ea85e31a6e1ba93bd70bf0cec92b2c98b8f4b4485da8686604051611c569291909182526001600160a01b0316602082015260400190565b60405180910390a1505050505050565b600060208284031215611c7857600080fd5b5035919050565b6001600160a01b0381168114611c9457600080fd5b50565b634e487b7160e01b600052604160045260246000fd5b604051601f8201601f1916810167ffffffffffffffff81118282101715611cd657611cd6611c97565b604052919050565b600082601f830112611cef57600080fd5b813567ffffffffffffffff811115611d0957611d09611c97565b611d1c601f8201601f1916602001611cad565b818152846020838601011115611d3157600080fd5b816020850160208301376000918101602001919091529392505050565b600080600080600060a08688031215611d6657600080fd5b8535611d7181611c7f565b945060208601359350604086013567ffffffffffffffff811115611d9457600080fd5b611da088828901611cde565b9598949750949560608101359550608001359392505050565b600080600080600060a08688031215611dd157600080fd5b8535945060208601359350604086013567ffffffffffffffff811115611d9457600080fd5b60008060408385031215611e0957600080fd5b50508035926020909101359150565b600080600060408486031215611e2d57600080fd5b83359250602084013567ffffffffffffffff80821115611e4c57600080fd5b818601915086601f830112611e6057600080fd5b813581811115611e6f57600080fd5b876020828501011115611e8157600080fd5b6020830194508093505050509250925092565b6000815180845260005b81811015611eba57602081850181015186830182015201611e9e565b506000602082860101526020601f19601f83011685010191505092915050565b86815260018060a01b038616602082015284604082015260c060608201526000611f0760c0830186611e94565b60808301949094525060a00152949350505050565b60008060408385031215611f2f57600080fd5b8235611f3a81611c7f565b946020939093013593505050565b6020808252825182820181905260009190848201906040850190845b81811015611f8057835183529284019291840191600101611f64565b50909695505050505050565b600060208284031215611f9e57600080fd5b8135611fa981611c7f565b9392505050565b634e487b7160e01b600052602160045260246000fd5b60048110611fe457634e487b7160e01b600052602160045260246000fd5b9052565b6001600160a01b038516815260806020820181905260009061200c90830186611e94565b90508360408301526120216060830184611fc6565b95945050505050565b6000806040838503121561203d57600080fd5b82359150602083013561204f81611c7f565b809150509250929050565b602081016111348284611fc6565b6000806000806080858703121561207e57600080fd5b84359350602085013567ffffffffffffffff81111561209c57600080fd5b6120a887828801611cde565b949794965050505060408301359260600135919050565b602081528151602082015260018060a01b036020830151166040820152604082015160608201526000606083015160c0608084015261210160e0840182611e94565b9050608084015160a084015260a084015160c08401528091505092915050565b6000602080838503121561213457600080fd5b825167ffffffffffffffff8082111561214c57600080fd5b818501915085601f83011261216057600080fd5b81518181111561217257612172611c97565b8060051b9150612183848301611cad565b818152918301840191848101908884111561219d57600080fd5b938501935b838510156121bb578451825293850193908501906121a2565b98975050505050505050565b634e487b7160e01b600052603260045260246000fd5b6020808252600f908201526e496e76616c696420656e644461746560881b604082015260600190565b6020808252600690820152654e6f2055524960d01b604082015260600190565b600181811c9082168061223a57607f821691505b60208210810361225a57634e487b7160e01b600052602260045260246000fd5b50919050565b601f8211156122aa57600081815260208120601f850160051c810160208610156122875750805b601f850160051c820191505b818110156122a657828155600101612293565b5050505b505050565b815167ffffffffffffffff8111156122c9576122c9611c97565b6122dd816122d78454612226565b84612260565b602080601f83116001811461231257600084156122fa5750858301515b600019600386901b1c1916600185901b1785556122a6565b600085815260208120601f198616915b8281101561234157888601518255948401946001909101908401612322565b508582101561235f5787850151600019600388901b60f8161c191681555b5050505050600190811b01905550565b8281526040602082015260006123886040830184611e94565b949350505050565b6000600182016123b057634e487b7160e01b600052601160045260246000fd5b5060010190565b6000602082840312156123c957600080fd5b81518015158114611fa957600080fd5b6000602082840312156123eb57600080fd5b8151611fa981611c7f565b6040815260006124096040830185611e94565b905060018060a01b0383166020830152939250505056fea26469706673582212203402cb021a8e02262e5cc49c6bcfac9f272e4fb3e0e6d2c1306792be5e2712ee64736f6c63430008130033",
    "linkReferences": {}
  },
  "methodIdentifiers": {
    "changeInUseLocalRep(address)": "ab440d65",
    "create(uint256,string,uint256,uint256)": "bd45a0a9",
    "createBy(address,uint256,string,uint256,uint256)": "0bb75b45",
    "currentReputationAddr()": "4b749e9b",
    "daoMembersOnly()": "40962186",
    "deployer()": "d5f39488",
    "editTask(uint256,uint256,string,uint256,uint256)": "2b086648",
    "finalize(uint256)": "05261aea",
    "finalizeFor(uint256,address)": "daf91137",
    "getById(uint256)": "f4f4d237",
    "getCompletionTime(uint256,address)": "e31c007f",
    "getStatusPerSubmitter(uint256,address)": "b206b569",
    "getSubmissionIdPerTaskAndUser(uint256,address)": "e13de22b",
    "getSubmissionIdsPerTask(uint256)": "a41e603f",
    "hasCompletedTheTask(address,uint256)": "973cdc78",
    "idCounter()": "eb08ab28",
    "isActive()": "22f3e2d4",
    "lastReputationAddr()": "86d113c0",
    "moduleId()": "a1308f27",
    "novaAddress()": "89f12ed9",
    "owner()": "8da5cb5b",
    "pluginId()": "2fe7e441",
    "pluginRegistry()": "41dcea91",
    "setPluginId(uint256)": "02a4dca0",
    "submissionIds()": "599081f9",
    "submissions(uint256)": "ad73349e",
    "submit(uint256,string)": "5d63f6c6",
    "take(uint256)": "4fd9efc4",
    "taskSubmissions(uint256,uint256)": "53eea875",
    "tasks(uint256)": "8d977672"
  },
  "id": 85
}