{
  "abi": [
    {
      "inputs": [
        {
          "internalType": "address",
          "name": "nova_",
          "type": "address"
        }
      ],
      "stateMutability": "nonpayable",
      "type": "constructor"
    },
    {
      "inputs": [],
      "name": "AuthorityExpected",
      "type": "error"
    },
    {
      "inputs": [],
      "name": "FunctionInvalidAtThisStage",
      "type": "error"
    },
    {
      "inputs": [],
      "name": "FunctionNotImplemented",
      "type": "error"
    },
    {
      "anonymous": false,
      "inputs": [
        {
          "indexed": false,
          "internalType": "address",
          "name": "nova",
          "type": "address"
        },
        {
          "indexed": false,
          "internalType": "address",
          "name": "repAlgo",
          "type": "address"
        }
      ],
      "name": "LocalRepALogChangedFor",
      "type": "event"
    },
    {
      "anonymous": false,
      "inputs": [
        {
          "indexed": false,
          "internalType": "uint256",
          "name": "taskID",
          "type": "uint256"
        },
        {
          "indexed": false,
          "internalType": "string",
          "name": "uri",
          "type": "string"
        }
      ],
      "name": "TaskCreated",
      "type": "event"
    },
    {
      "anonymous": false,
      "inputs": [
        {
          "indexed": false,
          "internalType": "uint256",
          "name": "taskID",
          "type": "uint256"
        },
        {
          "indexed": false,
          "internalType": "string",
          "name": "uri",
          "type": "string"
        }
      ],
      "name": "TaskEdited",
      "type": "event"
    },
    {
      "anonymous": false,
      "inputs": [
        {
          "indexed": false,
          "internalType": "uint256",
          "name": "taskID",
          "type": "uint256"
        },
        {
          "indexed": false,
          "internalType": "address",
          "name": "taker",
          "type": "address"
        }
      ],
      "name": "TaskFinalized",
      "type": "event"
    },
    {
      "anonymous": false,
      "inputs": [
        {
          "indexed": false,
          "internalType": "uint256",
          "name": "taskID",
          "type": "uint256"
        },
        {
          "indexed": false,
          "internalType": "uint256",
          "name": "submissionId",
          "type": "uint256"
        }
      ],
      "name": "TaskSubmitted",
      "type": "event"
    },
    {
      "anonymous": false,
      "inputs": [
        {
          "indexed": false,
          "internalType": "uint256",
          "name": "taskID",
          "type": "uint256"
        },
        {
          "indexed": false,
          "internalType": "address",
          "name": "taker",
          "type": "address"
        }
      ],
      "name": "TaskTaken",
      "type": "event"
    },
    {
      "inputs": [
        {
          "internalType": "address",
          "name": "NewLocalRepAlgo_",
          "type": "address"
        }
      ],
      "name": "changeInUseLocalRep",
      "outputs": [],
      "stateMutability": "nonpayable",
      "type": "function"
    },
    {
      "inputs": [
        {
          "internalType": "uint256",
          "name": "role",
          "type": "uint256"
        },
        {
          "internalType": "string",
          "name": "uri",
          "type": "string"
        },
        {
          "internalType": "uint256",
          "name": "startDate",
          "type": "uint256"
        },
        {
          "internalType": "uint256",
          "name": "endDate",
          "type": "uint256"
        }
      ],
      "name": "create",
      "outputs": [
        {
          "internalType": "uint256",
          "name": "",
          "type": "uint256"
        }
      ],
      "stateMutability": "nonpayable",
      "type": "function"
    },
    {
      "inputs": [
        {
          "internalType": "address",
          "name": "creator",
          "type": "address"
        },
        {
          "internalType": "uint256",
          "name": "role",
          "type": "uint256"
        },
        {
          "internalType": "string",
          "name": "uri",
          "type": "string"
        },
        {
          "internalType": "uint256",
          "name": "startDate",
          "type": "uint256"
        },
        {
          "internalType": "uint256",
          "name": "endDate",
          "type": "uint256"
        }
      ],
      "name": "createBy",
      "outputs": [
        {
          "internalType": "uint256",
          "name": "",
          "type": "uint256"
        }
      ],
      "stateMutability": "nonpayable",
      "type": "function"
    },
    {
      "inputs": [],
      "name": "currentReputationAddr",
      "outputs": [
        {
          "internalType": "address",
          "name": "",
          "type": "address"
        }
      ],
      "stateMutability": "view",
      "type": "function"
    },
    {
      "inputs": [],
      "name": "daoMembersOnly",
      "outputs": [
        {
          "internalType": "bool",
          "name": "",
          "type": "bool"
        }
      ],
      "stateMutability": "view",
      "type": "function"
    },
    {
      "inputs": [],
      "name": "deployer",
      "outputs": [
        {
          "internalType": "address",
          "name": "",
          "type": "address"
        }
      ],
      "stateMutability": "view",
      "type": "function"
    },
    {
      "inputs": [
        {
          "internalType": "uint256",
          "name": "taskId",
          "type": "uint256"
        },
        {
          "internalType": "uint256",
          "name": "role",
          "type": "uint256"
        },
        {
          "internalType": "string",
          "name": "uri",
          "type": "string"
        },
        {
          "internalType": "uint256",
          "name": "startDate",
          "type": "uint256"
        },
        {
          "internalType": "uint256",
          "name": "endDate",
          "type": "uint256"
        }
      ],
      "name": "editTask",
      "outputs": [],
      "stateMutability": "nonpayable",
      "type": "function"
    },
    {
      "inputs": [
        {
          "internalType": "uint256",
          "name": "taskId",
          "type": "uint256"
        }
      ],
      "name": "finalize",
      "outputs": [],
      "stateMutability": "nonpayable",
      "type": "function"
    },
    {
      "inputs": [
        {
          "internalType": "uint256",
          "name": "taskId",
          "type": "uint256"
        },
        {
          "internalType": "address",
          "name": "submitter",
          "type": "address"
        }
      ],
      "name": "finalizeFor",
      "outputs": [],
      "stateMutability": "nonpayable",
      "type": "function"
    },
    {
      "inputs": [
        {
          "internalType": "uint256",
          "name": "taskId",
          "type": "uint256"
        }
      ],
      "name": "getById",
      "outputs": [
        {
          "components": [
            {
              "internalType": "uint256",
              "name": "createdOn",
              "type": "uint256"
            },
            {
              "internalType": "address",
              "name": "creator",
              "type": "address"
            },
            {
              "internalType": "uint256",
              "name": "role",
              "type": "uint256"
            },
            {
              "internalType": "string",
              "name": "metadata",
              "type": "string"
            },
            {
              "internalType": "uint256",
              "name": "startDate",
              "type": "uint256"
            },
            {
              "internalType": "uint256",
              "name": "endDate",
              "type": "uint256"
            }
          ],
          "internalType": "struct TasksModule.Task",
          "name": "",
          "type": "tuple"
        }
      ],
      "stateMutability": "view",
      "type": "function"
    },
    {
      "inputs": [
        {
          "internalType": "uint256",
          "name": "taskId",
          "type": "uint256"
        },
        {
          "internalType": "address",
          "name": "user",
          "type": "address"
        }
      ],
      "name": "getCompletionTime",
      "outputs": [
        {
          "internalType": "uint256",
          "name": "",
          "type": "uint256"
        }
      ],
      "stateMutability": "view",
      "type": "function"
    },
    {
      "inputs": [
        {
          "internalType": "uint256",
          "name": "taskID",
          "type": "uint256"
        }
      ],
      "name": "getRepPointsOfTask",
      "outputs": [
        {
          "internalType": "uint256",
          "name": "",
          "type": "uint256"
        }
      ],
      "stateMutability": "view",
      "type": "function"
    },
    {
      "inputs": [
        {
          "internalType": "uint256",
          "name": "taskId",
          "type": "uint256"
        },
        {
          "internalType": "address",
          "name": "submitter",
          "type": "address"
        }
      ],
      "name": "getStatusPerSubmitter",
      "outputs": [
        {
          "internalType": "enum TasksModule.TaskStatus",
          "name": "",
          "type": "uint8"
        }
      ],
      "stateMutability": "view",
      "type": "function"
    },
    {
      "inputs": [
        {
          "internalType": "uint256",
          "name": "taskId",
          "type": "uint256"
        },
        {
          "internalType": "address",
          "name": "submitter",
          "type": "address"
        }
      ],
      "name": "getSubmissionIdPerTaskAndUser",
      "outputs": [
        {
          "internalType": "uint256",
          "name": "",
          "type": "uint256"
        }
      ],
      "stateMutability": "view",
      "type": "function"
    },
    {
      "inputs": [
        {
          "internalType": "uint256",
          "name": "taskId",
          "type": "uint256"
        }
      ],
      "name": "getSubmissionIdsPerTask",
      "outputs": [
        {
          "internalType": "uint256[]",
          "name": "",
          "type": "uint256[]"
        }
      ],
      "stateMutability": "view",
      "type": "function"
    },
    {
      "inputs": [
        {
          "internalType": "address",
          "name": "user",
          "type": "address"
        },
        {
          "internalType": "uint256",
          "name": "taskId",
          "type": "uint256"
        }
      ],
      "name": "hasCompletedTheTask",
      "outputs": [
        {
          "internalType": "bool",
          "name": "",
          "type": "bool"
        }
      ],
      "stateMutability": "view",
      "type": "function"
    },
    {
      "inputs": [],
      "name": "idCounter",
      "outputs": [
        {
          "internalType": "uint256",
          "name": "_value",
          "type": "uint256"
        }
      ],
      "stateMutability": "view",
      "type": "function"
    },
    {
      "inputs": [],
      "name": "isActive",
      "outputs": [
        {
          "internalType": "bool",
          "name": "",
          "type": "bool"
        }
      ],
      "stateMutability": "view",
      "type": "function"
    },
    {
      "inputs": [],
      "name": "lastReputationAddr",
      "outputs": [
        {
          "internalType": "address",
          "name": "",
          "type": "address"
        }
      ],
      "stateMutability": "view",
      "type": "function"
    },
    {
      "inputs": [],
      "name": "moduleId",
      "outputs": [
        {
          "internalType": "uint256",
          "name": "",
          "type": "uint256"
        }
      ],
      "stateMutability": "view",
      "type": "function"
    },
    {
      "inputs": [],
      "name": "novaAddress",
      "outputs": [
        {
          "internalType": "address",
          "name": "",
          "type": "address"
        }
      ],
      "stateMutability": "view",
      "type": "function"
    },
    {
      "inputs": [],
      "name": "owner",
      "outputs": [
        {
          "internalType": "address",
          "name": "",
          "type": "address"
        }
      ],
      "stateMutability": "view",
      "type": "function"
    },
    {
      "inputs": [],
      "name": "pluginId",
      "outputs": [
        {
          "internalType": "uint256",
          "name": "",
          "type": "uint256"
        }
      ],
      "stateMutability": "view",
      "type": "function"
    },
    {
      "inputs": [],
      "name": "pluginRegistry",
      "outputs": [
        {
          "internalType": "address",
          "name": "",
          "type": "address"
        }
      ],
      "stateMutability": "view",
      "type": "function"
    },
    {
      "inputs": [
        {
          "internalType": "uint256",
          "name": "tokenId",
          "type": "uint256"
        }
      ],
      "name": "setPluginId",
      "outputs": [],
      "stateMutability": "nonpayable",
      "type": "function"
    },
    {
      "inputs": [
        {
          "internalType": "uint256",
          "name": "taskID",
          "type": "uint256"
        },
        {
          "internalType": "uint16",
          "name": "pointsWeight",
          "type": "uint16"
        }
      ],
      "name": "setWeightForTask",
      "outputs": [],
      "stateMutability": "nonpayable",
      "type": "function"
    },
    {
      "inputs": [],
      "name": "submissionIds",
      "outputs": [
        {
          "internalType": "uint256",
          "name": "_value",
          "type": "uint256"
        }
      ],
      "stateMutability": "view",
      "type": "function"
    },
    {
      "inputs": [
        {
          "internalType": "uint256",
          "name": "",
          "type": "uint256"
        }
      ],
      "name": "submissions",
      "outputs": [
        {
          "internalType": "address",
          "name": "submitter",
          "type": "address"
        },
        {
          "internalType": "string",
          "name": "submissionMetadata",
          "type": "string"
        },
        {
          "internalType": "uint256",
          "name": "completionTime",
          "type": "uint256"
        },
        {
          "internalType": "enum TasksModule.TaskStatus",
          "name": "status",
          "type": "uint8"
        }
      ],
      "stateMutability": "view",
      "type": "function"
    },
    {
      "inputs": [
        {
          "internalType": "uint256",
          "name": "taskId",
          "type": "uint256"
        },
        {
          "internalType": "string",
          "name": "submitionUrl",
          "type": "string"
        }
      ],
      "name": "submit",
      "outputs": [],
      "stateMutability": "nonpayable",
      "type": "function"
    },
    {
      "inputs": [
        {
          "internalType": "uint256",
          "name": "taskId",
          "type": "uint256"
        }
      ],
      "name": "take",
      "outputs": [],
      "stateMutability": "nonpayable",
      "type": "function"
    },
    {
      "inputs": [
        {
          "internalType": "uint256",
          "name": "",
          "type": "uint256"
        },
        {
          "internalType": "uint256",
          "name": "",
          "type": "uint256"
        }
      ],
      "name": "taskSubmissions",
      "outputs": [
        {
          "internalType": "uint256",
          "name": "",
          "type": "uint256"
        }
      ],
      "stateMutability": "view",
      "type": "function"
    },
    {
      "inputs": [
        {
          "internalType": "uint256",
          "name": "",
          "type": "uint256"
        }
      ],
      "name": "tasks",
      "outputs": [
        {
          "internalType": "uint256",
          "name": "createdOn",
          "type": "uint256"
        },
        {
          "internalType": "address",
          "name": "creator",
          "type": "address"
        },
        {
          "internalType": "uint256",
          "name": "role",
          "type": "uint256"
        },
        {
          "internalType": "string",
          "name": "metadata",
          "type": "string"
        },
        {
          "internalType": "uint256",
          "name": "startDate",
          "type": "uint256"
        },
        {
          "internalType": "uint256",
          "name": "endDate",
          "type": "uint256"
        }
      ],
      "stateMutability": "view",
      "type": "function"
    }
  ],
  "bytecode": {
    "object": "0x60806040523480156200001157600080fd5b5060405162002fce38038062002fce8339810160408190526200003491620005a3565b8081600181600081600160006101000a8154816001600160a01b0302191690836001600160a01b03160217905550816001600160a01b03166341dcea916040518163ffffffff1660e01b8152600401602060405180830381865afa158015620000a1573d6000803e3d6000fd5b505050506040513d601f19601f82011682018060405250810190620000c79190620005a3565b600480546001600160a01b0392831661010002610100600160a81b0319909116179055600080546001600160a01b0319908116331782556003939093556040805160c08101825282815260208082018481528284018581528451928301909452848252606083019182526080830185905260a08301859052600780546001810182559552825160069095027fa66cc928b5edb82af9bd49922954155ab7b0942694bea4ce44661d9a8736c688810195865590517fa66cc928b5edb82af9bd49922954155ab7b0942694bea4ce44661d9a8736c689820180549190971697169690961790945590517fa66cc928b5edb82af9bd49922954155ab7b0942694bea4ce44661d9a8736c68a8501559151919350917fa66cc928b5edb82af9bd49922954155ab7b0942694bea4ce44661d9a8736c68b01906200020790826200067a565b50608082810151600483015560a0909201516005909101556040805191820181526000808352815160208181018452828252840152908201819052600b919060608201528154600180820184556000938452602093849020835160049093020180546001600160a01b0319166001600160a01b039093169290921782559282015191929091908201906200029c90826200067a565b506040820151816002015560608201518160030160006101000a81548160ff02191690836003811115620002d457620002d462000746565b02179055505050620002ed60056200059a60201b60201c565b620002fc600680546001019055565b80600860006101000a81548160ff0219169083151502179055505050806001600160a01b03166341dcea916040518163ffffffff1660e01b81526004016020604051808303816000875af115801562000359573d6000803e3d6000fd5b505050506040513d601f19601f820116820180604052508101906200037f9190620005a3565b6001600160a01b031663f0b7832a6040518163ffffffff1660e01b8152600401602060405180830381865afa158015620003bd573d6000803e3d6000fd5b505050506040513d601f19601f82011682018060405250810190620003e39190620005a3565b600c80546001600160a01b0319166001600160a01b0392831690811790915560405163189acdbd60e31b815291831660048301529063c4d66de890602401600060405180830381600087803b1580156200043c57600080fd5b505af115801562000451573d6000803e3d6000fd5b5050505050806001600160a01b03166341dcea916040518163ffffffff1660e01b81526004016020604051808303816000875af115801562000497573d6000803e3d6000fd5b505050506040513d601f19601f82011682018060405250810190620004bd9190620005a3565b6001600160a01b031663f0b7832a6040518163ffffffff1660e01b8152600401602060405180830381865afa158015620004fb573d6000803e3d6000fd5b505050506040513d601f19601f82011682018060405250810190620005219190620005a3565b600c80546001600160a01b0319166001600160a01b0392831690811790915560405163189acdbd60e31b815291831660048301529063c4d66de890602401600060405180830381600087803b1580156200057a57600080fd5b505af11580156200058f573d6000803e3d6000fd5b50505050506200075c565b80546001019055565b600060208284031215620005b657600080fd5b81516001600160a01b0381168114620005ce57600080fd5b9392505050565b634e487b7160e01b600052604160045260246000fd5b600181811c908216806200060057607f821691505b6020821081036200062157634e487b7160e01b600052602260045260246000fd5b50919050565b601f8211156200067557600081815260208120601f850160051c81016020861015620006505750805b601f850160051c820191505b8181101562000671578281556001016200065c565b5050505b505050565b81516001600160401b03811115620006965762000696620005d5565b620006ae81620006a78454620005eb565b8462000627565b602080601f831160018114620006e65760008415620006cd5750858301515b600019600386901b1c1916600185901b17855562000671565b600085815260208120601f198616915b828110156200071757888601518255948401946001909101908401620006f6565b5085821015620007365787850151600019600388901b60f8161c191681555b5050505050600190811b01905550565b634e487b7160e01b600052602160045260246000fd5b612862806200076c6000396000f3fe608060405234801561001057600080fd5b50600436106101f05760003560e01c80638d9776721161010f578063bd45a0a9116100a2578063e31c007f11610071578063e31c007f1461045b578063e38c5e721461046e578063eb08ab2814610481578063f4f4d2371461048b57600080fd5b8063bd45a0a9146103ee578063d5f3948814610401578063daf9113714610412578063e13de22b1461042557600080fd5b8063a41e603f116100de578063a41e603f14610378578063ab440d6514610398578063ad73349e146103ab578063b206b569146103ce57600080fd5b80638d9776721461032f5780638da5cb5b14610354578063973cdc781461035c578063a1308f271461036f57600080fd5b806341dcea9111610187578063599081f911610156578063599081f9146102f05780635d63f6c6146102fa57806386d113c01461030d57806389f12ed91461031e57600080fd5b806341dcea911461029c5780634b749e9b146102cc5780634fd9efc41461020a57806353eea875146102dd57600080fd5b806322f3e2d4116101c357806322f3e2d4146102565780632b086648146102735780632fe7e44114610286578063409621861461028f57600080fd5b806302a4dca0146101f557806305261aea1461020a5780630adc56f01461021d5780630bb75b4514610230575b600080fd5b610208610203366004611f0f565b6104ab565b005b610208610218366004611f0f565b61050b565b61020861022b366004611f3b565b610524565b61024361023e366004612037565b6106b8565b6040519081526020015b60405180910390f35b6004546102639060ff1681565b604051901515815260200161024d565b6102086102813660046120a2565b610b2c565b61024360025481565b6008546102639060ff1681565b6004546102b49061010090046001600160a01b031681565b6040516001600160a01b03909116815260200161024d565b600c546001600160a01b03166102b4565b6102436102eb3660046120df565b610d8a565b6006546102439081565b610208610308366004612101565b610dbb565b600e546001600160a01b03166102b4565b6001546001600160a01b03166102b4565b61034261033d366004611f0f565b611146565b60405161024d969594939291906121c3565b6102b4611224565b61026361036a366004612205565b61129f565b61024360035481565b61038b610386366004611f0f565b61130a565b60405161024d9190612231565b6102086103a6366004612275565b61136c565b6103be6103b9366004611f0f565b611463565b60405161024d94939291906122d1565b6103e16103dc366004612313565b611535565b60405161024d9190612338565b6102436103fc366004612346565b61158b565b6000546001600160a01b03166102b4565b610208610420366004612313565b6117e8565b610243610433366004612313565b6000918252600a602090815260408084206001600160a01b0393909316845291905290205490565b610243610469366004612313565b61197a565b61024361047c366004611f0f565b6119cc565b6005546102439081565b61049e610499366004611f0f565b611ae5565b60405161024d919061239d565b60045461010090046001600160a01b031633146105065760405162461bcd60e51b81526020600482015260146024820152734f6e6c7920706c7567696e20726567697374727960601b60448201526064015b60405180910390fd5b600255565b60405163ced4f63360e01b815260040160405180910390fd5b81336001600160a01b031660078281548110610542576105426123ff565b60009182526020909120600160069092020101546001600160a01b03161461057c5760405162461bcd60e51b81526004016104fd90612415565b6040805160248082018690528251808303909101815260449091018252602080820180516001600160e01b031663daf9113760e01b1790528251600180825281850190945291926000929182015b60608152602001906001900390816105ca57505060408051600180825281830190925291925060009190602080830190803683370190505090508282600081518110610618576106186123ff565b60200260200101819052508481600081518110610637576106376123ff565b61ffff90921660209283029190910190910152600c54604051631b799aa760e11b81526001600160a01b03909116906336f3354e9061067e9030908690869060040161243c565b600060405180830381600087803b15801561069857600080fd5b505af11580156106ac573d6000803e3d6000fd5b50505050505050505050565b60048054600154604051632b948c3960e01b81526001600160a01b03918216938101939093526000928392610100900490911690632b948c3990602401600060405180830381865afa158015610712573d6000803e3d6000fd5b505050506040513d6000823e601f3d908101601f1916820160405261073a91908101906124e9565b90506000805b82518110156109325760025483828151811061075e5761075e6123ff565b60200260200101510361077057600191505b42851161078f5760405162461bcd60e51b81526004016104fd9061258f565b60008751116107b05760405162461bcd60e51b81526004016104fd906125b8565b60006107bb60055490565b6040805160c0810182524281526001600160a01b038d8116602083019081529282018d8152606083018d8152608084018d905260a084018c90526007805460018101825560009190915284517fa66cc928b5edb82af9bd49922954155ab7b0942694bea4ce44661d9a8736c688600690920291820190815595517fa66cc928b5edb82af9bd49922954155ab7b0942694bea4ce44661d9a8736c689820180546001600160a01b031916919095161790935590517fa66cc928b5edb82af9bd49922954155ab7b0942694bea4ce44661d9a8736c68a8301555193945090927fa66cc928b5edb82af9bd49922954155ab7b0942694bea4ce44661d9a8736c68b909101906108c79082612661565b506080820151600482015560a090910151600591820155805460010190557fa5ed9e6226c584326505694539c95cb0e3238ae09bcda5a65c00bbfdab1c66628189604051610916929190612721565b60405180910390a193508061092a81612742565b915050610740565b50806109725760405162461bcd60e51b815260206004820152600f60248201526e4f6e6c792044414f204d6f64756c6560881b60448201526064016104fd565b4284116109915760405162461bcd60e51b81526004016104fd9061258f565b60008651116109b25760405162461bcd60e51b81526004016104fd906125b8565b60006109bd60055490565b6040805160c0810182524281526001600160a01b038c8116602083019081529282018c8152606083018c8152608084018c905260a084018b90526007805460018101825560009190915284517fa66cc928b5edb82af9bd49922954155ab7b0942694bea4ce44661d9a8736c688600690920291820190815595517fa66cc928b5edb82af9bd49922954155ab7b0942694bea4ce44661d9a8736c689820180546001600160a01b031916919095161790935590517fa66cc928b5edb82af9bd49922954155ab7b0942694bea4ce44661d9a8736c68a8301555193945090927fa66cc928b5edb82af9bd49922954155ab7b0942694bea4ce44661d9a8736c68b90910190610ac99082612661565b506080820151600482015560a090910151600591820155805460010190557fa5ed9e6226c584326505694539c95cb0e3238ae09bcda5a65c00bbfdab1c66628188604051610b18929190612721565b60405180910390a198975050505050505050565b600154604051630935e01b60e21b81523360048201526001600160a01b03909116906324d7806c90602401602060405180830381865afa158015610b74573d6000803e3d6000fd5b505050506040513d601f19601f82011682018060405250810190610b989190612769565b610bd25760405162461bcd60e51b815260206004820152600b60248201526a27b7363c9030b236b4b71760a91b60448201526064016104fd565b4260078681548110610be657610be66123ff565b90600052602060002090600602016004015411610c3c5760405162461bcd60e51b81526020600482015260146024820152731d185cdac8185b1c9958591e481cdd185c9d195960621b60448201526064016104fd565b6000835111610c5d5760405162461bcd60e51b81526004016104fd906125b8565b6005548510610c9d5760405162461bcd60e51b815260206004820152600c60248201526b696e76616c6964207461736b60a01b60448201526064016104fd565b8360078681548110610cb157610cb16123ff565b9060005260206000209060060201600201819055508260078681548110610cda57610cda6123ff565b90600052602060002090600602016003019081610cf79190612661565b508160078681548110610d0c57610d0c6123ff565b9060005260206000209060060201600401819055508060078681548110610d3557610d356123ff565b9060005260206000209060060201600501819055507f126a0ea5197c062eb92c789989294eb8d2aef31cf41fd012da26dfab98b29a168584604051610d7b929190612721565b60405180910390a15050505050565b60096020528160005260406000208181548110610da657600080fd5b90600052602060002001600091509150505481565b60085460ff1615610e715760015460405163288c314960e21b81523360048201526001600160a01b039091169063a230c52490602401602060405180830381865afa158015610e0e573d6000803e3d6000fd5b505050506040513d601f19601f82011682018060405250810190610e329190612769565b610e715760405162461bcd60e51b815260206004820152601060248201526f4f6e6c792044414f206d656d6265727360801b60448201526064016104fd565b6000838152600a60209081526040808320338085529252822054600b8054879492908110610ea157610ea16123ff565b60009182526020909120600360049092020181015460ff1690811115610ec957610ec9612299565b816003811115610edb57610edb612299565b14610ef9576040516328992a5560e21b815260040160405180910390fd5b4260078781548110610f0d57610f0d6123ff565b90600052602060002090600602016004015410610f5e5760405162461bcd60e51b815260206004820152600f60248201526e139bdd081cdd185c9d1959081e595d608a1b60448201526064016104fd565b4260078781548110610f7257610f726123ff565b90600052602060002090600602016005015411610fc65760405162461bcd60e51b8152602060048201526012602482015271151a19481d185cdac81a185cc8195b99195960721b60448201526064016104fd565b6000610fd160065490565b9050600b6040518060800160405280336001600160a01b0316815260200188888080601f01602080910402602001604051908101604052809392919081815260200183838082843760009201829052509385525050506020820152604001600290528154600180820184556000938452602093849020835160049093020180546001600160a01b0319166001600160a01b039093169290921782559282015191929091908201906110829082612661565b506040820151816002015560608201518160030160006101000a81548160ff021916908360038111156110b7576110b7612299565b021790555050506000878152600960209081526040808320805460018101825590845282842001849055898352600a82528083203384529091529020819055611104600680546001019055565b60408051888152602081018390527f732b29041dfc9fd7a86ce0ca090ecaabdc1a602620a65264047baf43d8ba31be910160405180910390a150505050505050565b6007818154811061115657600080fd5b600091825260209091206006909102018054600182015460028301546003840180549395506001600160a01b03909216939092909190611195906125d8565b80601f01602080910402602001604051908101604052809291908181526020018280546111c1906125d8565b801561120e5780601f106111e35761010080835404028352916020019161120e565b820191906000526020600020905b8154815290600101906020018083116111f157829003601f168201915b5050505050908060040154908060050154905086565b6004805460405163235883e360e01b815230928101929092526000916101009091046001600160a01b03169063235883e390602401602060405180830381865afa158015611276573d6000803e3d6000fd5b505050506040513d601f19601f8201168201806040525081019061129a919061278b565b905090565b6000818152600a602090815260408083206001600160a01b0386168452909152812054600b80546003929081106112d8576112d86123ff565b60009182526020909120600360049092020181015460ff169081111561130057611300612299565b1490505b92915050565b60008181526009602090815260409182902080548351818402810184019094528084526060939283018282801561136057602002820191906000526020600020905b81548152602001906001019080831161134c575b50505050509050919050565b600d546001600160a01b0316336001600160a01b0316146113a057604051630e8cc36b60e21b815260040160405180910390fd5b600c80546001600160a01b0319166001600160a01b038316179055604080516389f12ed960e01b815290517f3ef34c117b493311a9ea61dff2d101d6bdc33062c190cb30ffbb908b09a2b4949130916389f12ed9916004808201926020929091908290030181865afa15801561141a573d6000803e3d6000fd5b505050506040513d601f19601f8201168201806040525081019061143e919061278b565b604080516001600160a01b03928316815291841660208301520160405180910390a150565b600b818154811061147357600080fd5b6000918252602090912060049091020180546001820180546001600160a01b039092169350906114a2906125d8565b80601f01602080910402602001604051908101604052809291908181526020018280546114ce906125d8565b801561151b5780601f106114f05761010080835404028352916020019161151b565b820191906000526020600020905b8154815290600101906020018083116114fe57829003601f168201915b50505050600283015460039093015491929160ff16905084565b6000828152600a602090815260408083206001600160a01b0385168452909152812054600b8054909190811061156d5761156d6123ff565b600091825260209091206004909102016003015460ff169392505050565b600154604051630935e01b60e21b81523360048201526000916001600160a01b0316906324d7806c90602401602060405180830381865afa1580156115d4573d6000803e3d6000fd5b505050506040513d601f19601f820116820180604052508101906115f89190612769565b6116325760405162461bcd60e51b815260206004820152600b60248201526a27b7363c9030b236b4b71760a91b60448201526064016104fd565b4282116116515760405162461bcd60e51b81526004016104fd9061258f565b60008451116116725760405162461bcd60e51b81526004016104fd906125b8565b600061167d60055490565b6040805160c0810182524281523360208201908152918101898152606082018981526080830189905260a083018890526007805460018101825560009190915283517fa66cc928b5edb82af9bd49922954155ab7b0942694bea4ce44661d9a8736c688600690920291820190815594517fa66cc928b5edb82af9bd49922954155ab7b0942694bea4ce44661d9a8736c689820180546001600160a01b0319166001600160a01b0390921691909117905591517fa66cc928b5edb82af9bd49922954155ab7b0942694bea4ce44661d9a8736c68a8301555193945090927fa66cc928b5edb82af9bd49922954155ab7b0942694bea4ce44661d9a8736c68b909101906117889082612661565b506080820151600482015560a090910151600591820155805460010190557fa5ed9e6226c584326505694539c95cb0e3238ae09bcda5a65c00bbfdab1c666281866040516117d7929190612721565b60405180910390a195945050505050565b6040516001600160e01b03196000351660208201526024810183905260440160408051601f198184030181529181526000848152600a60209081528282206001600160a01b038616835290522054600b8054849286928492600292908110611852576118526123ff565b60009182526020909120600360049092020181015460ff169081111561187a5761187a612299565b81600381111561188c5761188c612299565b146118aa576040516328992a5560e21b815260040160405180910390fd5b86336001600160a01b0316600782815481106118c8576118c86123ff565b60009182526020909120600160069092020101546001600160a01b0316146119025760405162461bcd60e51b81526004016104fd90612415565b61190c8888611c43565b5050600c54604051633ad3b04160e01b81526001600160a01b039091169250633ad3b041915061194290859085906004016127a8565b600060405180830381600087803b15801561195c57600080fd5b505af1158015611970573d6000803e3d6000fd5b5050505050505050565b6000828152600a602090815260408083206001600160a01b0385168452909152812054600b805490919081106119b2576119b26123ff565b906000526020600020906004020160020154905092915050565b600c5460408051602480820185905282518083039091018152604490910182526020810180516001600160e01b031663daf9113760e01b1790529051630958ee3760e41b81526000926001600160a01b031691635a53f24a91839163958ee37091611a3b9130916004016127d2565b602060405180830381865afa158015611a58573d6000803e3d6000fd5b505050506040513d601f19601f82011682018060405250810190611a7c91906127f6565b6040518263ffffffff1660e01b8152600401611a9a91815260200190565b602060405180830381865afa158015611ab7573d6000803e3d6000fd5b505050506040513d601f19601f82011682018060405250810190611adb919061280f565b61ffff1692915050565b611b276040518060c001604052806000815260200160006001600160a01b03168152602001600081526020016060815260200160008152602001600081525090565b60078281548110611b3a57611b3a6123ff565b90600052602060002090600602016040518060c0016040529081600082015481526020016001820160009054906101000a90046001600160a01b03166001600160a01b03166001600160a01b0316815260200160028201548152602001600382018054611ba6906125d8565b80601f0160208091040260200160405190810160405280929190818152602001828054611bd2906125d8565b8015611c1f5780601f10611bf457610100808354040283529160200191611c1f565b820191906000526020600020905b815481529060010190602001808311611c0257829003601f168201915b50505050508152602001600482015481526020016005820154815250509050919050565b6000828152600a602090815260408083206001600160a01b0385168452909152902054600b8054849284926002929091908110611c8257611c826123ff565b60009182526020909120600360049092020181015460ff1690811115611caa57611caa612299565b816003811115611cbc57611cbc612299565b14611cda576040516328992a5560e21b815260040160405180910390fd5b84336001600160a01b031660078281548110611cf857611cf86123ff565b60009182526020909120600160069092020101546001600160a01b031614611d325760405162461bcd60e51b81526004016104fd90612415565b4260078781548110611d4657611d466123ff565b90600052602060002090600602016004015410611d975760405162461bcd60e51b815260206004820152600f60248201526e139bdd081cdd185c9d1959081e595d608a1b60448201526064016104fd565b4260078781548110611dab57611dab6123ff565b90600052602060002090600602016005015411611dff5760405162461bcd60e51b8152602060048201526012602482015271151a19481d185cdac81a185cc8195b99195960721b60448201526064016104fd565b6000868152600a602090815260408083206001600160a01b0389168452909152902054600b8054600392908110611e3857611e386123ff565b906000526020600020906004020160030160006101000a81548160ff02191690836003811115611e6a57611e6a612299565b02179055506000868152600a602090815260408083206001600160a01b0389168452909152902054600b80544292908110611ea757611ea76123ff565b9060005260206000209060040201600201819055507fc923846dc69de8ab93cf9ea85e31a6e1ba93bd70bf0cec92b2c98b8f4b4485da8686604051611eff9291909182526001600160a01b0316602082015260400190565b60405180910390a1505050505050565b600060208284031215611f2157600080fd5b5035919050565b61ffff81168114611f3857600080fd5b50565b60008060408385031215611f4e57600080fd5b823591506020830135611f6081611f28565b809150509250929050565b6001600160a01b0381168114611f3857600080fd5b634e487b7160e01b600052604160045260246000fd5b604051601f8201601f1916810167ffffffffffffffff81118282101715611fbf57611fbf611f80565b604052919050565b600082601f830112611fd857600080fd5b813567ffffffffffffffff811115611ff257611ff2611f80565b612005601f8201601f1916602001611f96565b81815284602083860101111561201a57600080fd5b816020850160208301376000918101602001919091529392505050565b600080600080600060a0868803121561204f57600080fd5b853561205a81611f6b565b945060208601359350604086013567ffffffffffffffff81111561207d57600080fd5b61208988828901611fc7565b9598949750949560608101359550608001359392505050565b600080600080600060a086880312156120ba57600080fd5b8535945060208601359350604086013567ffffffffffffffff81111561207d57600080fd5b600080604083850312156120f257600080fd5b50508035926020909101359150565b60008060006040848603121561211657600080fd5b83359250602084013567ffffffffffffffff8082111561213557600080fd5b818601915086601f83011261214957600080fd5b81358181111561215857600080fd5b87602082850101111561216a57600080fd5b6020830194508093505050509250925092565b6000815180845260005b818110156121a357602081850181015186830182015201612187565b506000602082860101526020601f19601f83011685010191505092915050565b86815260018060a01b038616602082015284604082015260c0606082015260006121f060c083018661217d565b60808301949094525060a00152949350505050565b6000806040838503121561221857600080fd5b823561222381611f6b565b946020939093013593505050565b6020808252825182820181905260009190848201906040850190845b818110156122695783518352928401929184019160010161224d565b50909695505050505050565b60006020828403121561228757600080fd5b813561229281611f6b565b9392505050565b634e487b7160e01b600052602160045260246000fd5b600481106122cd57634e487b7160e01b600052602160045260246000fd5b9052565b6001600160a01b03851681526080602082018190526000906122f59083018661217d565b905083604083015261230a60608301846122af565b95945050505050565b6000806040838503121561232657600080fd5b823591506020830135611f6081611f6b565b6020810161130482846122af565b6000806000806080858703121561235c57600080fd5b84359350602085013567ffffffffffffffff81111561237a57600080fd5b61238687828801611fc7565b949794965050505060408301359260600135919050565b602081528151602082015260018060a01b036020830151166040820152604082015160608201526000606083015160c060808401526123df60e084018261217d565b9050608084015160a084015260a084015160c08401528091505092915050565b634e487b7160e01b600052603260045260246000fd5b6020808252600d908201526c27b7363c9031b932b0ba37b91760991b604082015260600190565b60006060820160018060a01b0386168352602060608185015281865180845260808601915060808160051b870101935082880160005b828110156124a057607f1988870301845261248e86835161217d565b95509284019290840190600101612472565b50505050838203604085015284518083528186019282019060005b818110156124db57845161ffff16835293830193918301916001016124bb565b509098975050505050505050565b600060208083850312156124fc57600080fd5b825167ffffffffffffffff8082111561251457600080fd5b818501915085601f83011261252857600080fd5b81518181111561253a5761253a611f80565b8060051b915061254b848301611f96565b818152918301840191848101908884111561256557600080fd5b938501935b838510156125835784518252938501939085019061256a565b98975050505050505050565b6020808252600f908201526e496e76616c696420656e644461746560881b604082015260600190565b6020808252600690820152654e6f2055524960d01b604082015260600190565b600181811c908216806125ec57607f821691505b60208210810361260c57634e487b7160e01b600052602260045260246000fd5b50919050565b601f82111561265c57600081815260208120601f850160051c810160208610156126395750805b601f850160051c820191505b8181101561265857828155600101612645565b5050505b505050565b815167ffffffffffffffff81111561267b5761267b611f80565b61268f8161268984546125d8565b84612612565b602080601f8311600181146126c457600084156126ac5750858301515b600019600386901b1c1916600185901b178555612658565b600085815260208120601f198616915b828110156126f3578886015182559484019460019091019084016126d4565b50858210156127115787850151600019600388901b60f8161c191681555b5050505050600190811b01905550565b82815260406020820152600061273a604083018461217d565b949350505050565b60006001820161276257634e487b7160e01b600052601160045260246000fd5b5060010190565b60006020828403121561277b57600080fd5b8151801515811461229257600080fd5b60006020828403121561279d57600080fd5b815161229281611f6b565b6040815260006127bb604083018561217d565b905060018060a01b03831660208301529392505050565b6001600160a01b038316815260406020820181905260009061273a9083018461217d565b60006020828403121561280857600080fd5b5051919050565b60006020828403121561282157600080fd5b815161229281611f2856fea2646970667358221220127a529e298fda758b26cf58311d590fc72da17b72ea9555d1af95cdaf36c16c64736f6c63430008130033",
    "linkReferences": {}
  },
  "methodIdentifiers": {
    "changeInUseLocalRep(address)": "ab440d65",
    "create(uint256,string,uint256,uint256)": "bd45a0a9",
    "createBy(address,uint256,string,uint256,uint256)": "0bb75b45",
    "currentReputationAddr()": "4b749e9b",
    "daoMembersOnly()": "40962186",
    "deployer()": "d5f39488",
    "editTask(uint256,uint256,string,uint256,uint256)": "2b086648",
    "finalize(uint256)": "05261aea",
    "finalizeFor(uint256,address)": "daf91137",
    "getById(uint256)": "f4f4d237",
    "getCompletionTime(uint256,address)": "e31c007f",
    "getRepPointsOfTask(uint256)": "e38c5e72",
    "getStatusPerSubmitter(uint256,address)": "b206b569",
    "getSubmissionIdPerTaskAndUser(uint256,address)": "e13de22b",
    "getSubmissionIdsPerTask(uint256)": "a41e603f",
    "hasCompletedTheTask(address,uint256)": "973cdc78",
    "idCounter()": "eb08ab28",
    "isActive()": "22f3e2d4",
    "lastReputationAddr()": "86d113c0",
    "moduleId()": "a1308f27",
    "novaAddress()": "89f12ed9",
    "owner()": "8da5cb5b",
    "pluginId()": "2fe7e441",
    "pluginRegistry()": "41dcea91",
    "setPluginId(uint256)": "02a4dca0",
    "setWeightForTask(uint256,uint16)": "0adc56f0",
    "submissionIds()": "599081f9",
    "submissions(uint256)": "ad73349e",
    "submit(uint256,string)": "5d63f6c6",
    "take(uint256)": "4fd9efc4",
    "taskSubmissions(uint256,uint256)": "53eea875",
    "tasks(uint256)": "8d977672"
  },
  "id": 75
}