{
  "abi": [
    {
      "inputs": [
        {
          "internalType": "address",
          "name": "nova_",
          "type": "address"
        }
      ],
      "stateMutability": "nonpayable",
      "type": "constructor"
    },
    {
      "inputs": [],
      "name": "AuthorityExpected",
      "type": "error"
    },
    {
      "inputs": [],
      "name": "FunctionInvalidAtThisStage",
      "type": "error"
    },
    {
      "inputs": [],
      "name": "FunctionNotImplemented",
      "type": "error"
    },
    {
      "anonymous": false,
      "inputs": [
        {
          "indexed": false,
          "internalType": "address",
          "name": "nova",
          "type": "address"
        },
        {
          "indexed": false,
          "internalType": "address",
          "name": "repAlgo",
          "type": "address"
        }
      ],
      "name": "LocalRepALogChangedFor",
      "type": "event"
    },
    {
      "anonymous": false,
      "inputs": [
        {
          "indexed": false,
          "internalType": "uint256",
          "name": "taskID",
          "type": "uint256"
        },
        {
          "indexed": false,
          "internalType": "string",
          "name": "uri",
          "type": "string"
        }
      ],
      "name": "TaskCreated",
      "type": "event"
    },
    {
      "anonymous": false,
      "inputs": [
        {
          "indexed": false,
          "internalType": "uint256",
          "name": "taskID",
          "type": "uint256"
        },
        {
          "indexed": false,
          "internalType": "string",
          "name": "uri",
          "type": "string"
        }
      ],
      "name": "TaskEdited",
      "type": "event"
    },
    {
      "anonymous": false,
      "inputs": [
        {
          "indexed": false,
          "internalType": "uint256",
          "name": "taskID",
          "type": "uint256"
        },
        {
          "indexed": false,
          "internalType": "address",
          "name": "taker",
          "type": "address"
        }
      ],
      "name": "TaskFinalized",
      "type": "event"
    },
    {
      "anonymous": false,
      "inputs": [
        {
          "indexed": false,
          "internalType": "uint256",
          "name": "taskID",
          "type": "uint256"
        },
        {
          "indexed": false,
          "internalType": "uint256",
          "name": "submissionId",
          "type": "uint256"
        }
      ],
      "name": "TaskSubmitted",
      "type": "event"
    },
    {
      "anonymous": false,
      "inputs": [
        {
          "indexed": false,
          "internalType": "uint256",
          "name": "taskID",
          "type": "uint256"
        },
        {
          "indexed": false,
          "internalType": "address",
          "name": "taker",
          "type": "address"
        }
      ],
      "name": "TaskTaken",
      "type": "event"
    },
    {
      "inputs": [
        {
          "internalType": "address",
          "name": "NewLocalRepAlgo_",
          "type": "address"
        }
      ],
      "name": "changeInUseLocalRep",
      "outputs": [],
      "stateMutability": "nonpayable",
      "type": "function"
    },
    {
      "inputs": [
        {
          "internalType": "uint256",
          "name": "role",
          "type": "uint256"
        },
        {
          "internalType": "string",
          "name": "uri",
          "type": "string"
        },
        {
          "internalType": "uint256",
          "name": "startDate",
          "type": "uint256"
        },
        {
          "internalType": "uint256",
          "name": "endDate",
          "type": "uint256"
        }
      ],
      "name": "create",
      "outputs": [
        {
          "internalType": "uint256",
          "name": "",
          "type": "uint256"
        }
      ],
      "stateMutability": "nonpayable",
      "type": "function"
    },
    {
      "inputs": [
        {
          "internalType": "address",
          "name": "creator",
          "type": "address"
        },
        {
          "internalType": "uint256",
          "name": "role",
          "type": "uint256"
        },
        {
          "internalType": "string",
          "name": "uri",
          "type": "string"
        },
        {
          "internalType": "uint256",
          "name": "startDate",
          "type": "uint256"
        },
        {
          "internalType": "uint256",
          "name": "endDate",
          "type": "uint256"
        }
      ],
      "name": "createBy",
      "outputs": [
        {
          "internalType": "uint256",
          "name": "",
          "type": "uint256"
        }
      ],
      "stateMutability": "nonpayable",
      "type": "function"
    },
    {
      "inputs": [
        {
          "internalType": "uint256",
          "name": "role",
          "type": "uint256"
        },
        {
          "internalType": "string",
          "name": "uri",
          "type": "string"
        },
        {
          "internalType": "uint256",
          "name": "startDate",
          "type": "uint256"
        },
        {
          "internalType": "uint256",
          "name": "endDate",
          "type": "uint256"
        },
        {
          "internalType": "uint16",
          "name": "pointsWeight",
          "type": "uint16"
        }
      ],
      "name": "createOpenTaskWithWeight",
      "outputs": [
        {
          "internalType": "uint256",
          "name": "taskID",
          "type": "uint256"
        }
      ],
      "stateMutability": "nonpayable",
      "type": "function"
    },
    {
      "inputs": [],
      "name": "currentReputationAddr",
      "outputs": [
        {
          "internalType": "address",
          "name": "",
          "type": "address"
        }
      ],
      "stateMutability": "view",
      "type": "function"
    },
    {
      "inputs": [],
      "name": "deployer",
      "outputs": [
        {
          "internalType": "address",
          "name": "",
          "type": "address"
        }
      ],
      "stateMutability": "view",
      "type": "function"
    },
    {
      "inputs": [
        {
          "internalType": "uint256",
          "name": "taskId",
          "type": "uint256"
        },
        {
          "internalType": "uint256",
          "name": "role",
          "type": "uint256"
        },
        {
          "internalType": "string",
          "name": "uri",
          "type": "string"
        },
        {
          "internalType": "uint256",
          "name": "startDate",
          "type": "uint256"
        },
        {
          "internalType": "uint256",
          "name": "endDate",
          "type": "uint256"
        }
      ],
      "name": "editTask",
      "outputs": [],
      "stateMutability": "nonpayable",
      "type": "function"
    },
    {
      "inputs": [
        {
          "internalType": "uint256",
          "name": "taskId",
          "type": "uint256"
        }
      ],
      "name": "finalize",
      "outputs": [],
      "stateMutability": "nonpayable",
      "type": "function"
    },
    {
      "inputs": [
        {
          "internalType": "uint256",
          "name": "taskId",
          "type": "uint256"
        },
        {
          "internalType": "address",
          "name": "submitter",
          "type": "address"
        }
      ],
      "name": "finalizeFor",
      "outputs": [],
      "stateMutability": "nonpayable",
      "type": "function"
    },
    {
      "inputs": [
        {
          "internalType": "uint256",
          "name": "taskId",
          "type": "uint256"
        }
      ],
      "name": "getById",
      "outputs": [
        {
          "components": [
            {
              "internalType": "uint256",
              "name": "createdOn",
              "type": "uint256"
            },
            {
              "internalType": "address",
              "name": "creator",
              "type": "address"
            },
            {
              "internalType": "uint256",
              "name": "role",
              "type": "uint256"
            },
            {
              "internalType": "string",
              "name": "metadata",
              "type": "string"
            },
            {
              "internalType": "uint256",
              "name": "startDate",
              "type": "uint256"
            },
            {
              "internalType": "uint256",
              "name": "endDate",
              "type": "uint256"
            }
          ],
          "internalType": "struct TasksModule.Task",
          "name": "",
          "type": "tuple"
        }
      ],
      "stateMutability": "view",
      "type": "function"
    },
    {
      "inputs": [
        {
          "internalType": "uint256",
          "name": "taskId",
          "type": "uint256"
        },
        {
          "internalType": "address",
          "name": "user",
          "type": "address"
        }
      ],
      "name": "getCompletionTime",
      "outputs": [
        {
          "internalType": "uint256",
          "name": "",
          "type": "uint256"
        }
      ],
      "stateMutability": "view",
      "type": "function"
    },
    {
      "inputs": [
        {
          "internalType": "uint256",
          "name": "taskID",
          "type": "uint256"
        }
      ],
      "name": "getRepPointsOfTask",
      "outputs": [
        {
          "internalType": "uint256",
          "name": "",
          "type": "uint256"
        }
      ],
      "stateMutability": "view",
      "type": "function"
    },
    {
      "inputs": [
        {
          "internalType": "uint256",
          "name": "taskId",
          "type": "uint256"
        },
        {
          "internalType": "address",
          "name": "submitter",
          "type": "address"
        }
      ],
      "name": "getStatusPerSubmitter",
      "outputs": [
        {
          "internalType": "enum TasksModule.TaskStatus",
          "name": "",
          "type": "uint8"
        }
      ],
      "stateMutability": "view",
      "type": "function"
    },
    {
      "inputs": [
        {
          "internalType": "uint256",
          "name": "taskId",
          "type": "uint256"
        },
        {
          "internalType": "address",
          "name": "submitter",
          "type": "address"
        }
      ],
      "name": "getSubmissionIdPerTaskAndUser",
      "outputs": [
        {
          "internalType": "uint256",
          "name": "",
          "type": "uint256"
        }
      ],
      "stateMutability": "view",
      "type": "function"
    },
    {
      "inputs": [
        {
          "internalType": "uint256",
          "name": "taskId",
          "type": "uint256"
        }
      ],
      "name": "getSubmissionIdsPerTask",
      "outputs": [
        {
          "internalType": "uint256[]",
          "name": "",
          "type": "uint256[]"
        }
      ],
      "stateMutability": "view",
      "type": "function"
    },
    {
      "inputs": [
        {
          "internalType": "address",
          "name": "user",
          "type": "address"
        },
        {
          "internalType": "uint256",
          "name": "taskId",
          "type": "uint256"
        }
      ],
      "name": "hasCompletedTheTask",
      "outputs": [
        {
          "internalType": "bool",
          "name": "",
          "type": "bool"
        }
      ],
      "stateMutability": "view",
      "type": "function"
    },
    {
      "inputs": [],
      "name": "idCounter",
      "outputs": [
        {
          "internalType": "uint256",
          "name": "_value",
          "type": "uint256"
        }
      ],
      "stateMutability": "view",
      "type": "function"
    },
    {
      "inputs": [],
      "name": "isActive",
      "outputs": [
        {
          "internalType": "bool",
          "name": "",
          "type": "bool"
        }
      ],
      "stateMutability": "view",
      "type": "function"
    },
    {
      "inputs": [],
      "name": "lastReputationAddr",
      "outputs": [
        {
          "internalType": "address",
          "name": "",
          "type": "address"
        }
      ],
      "stateMutability": "view",
      "type": "function"
    },
    {
      "inputs": [],
      "name": "moduleId",
      "outputs": [
        {
          "internalType": "uint256",
          "name": "",
          "type": "uint256"
        }
      ],
      "stateMutability": "view",
      "type": "function"
    },
    {
      "inputs": [],
      "name": "novaAddress",
      "outputs": [
        {
          "internalType": "address",
          "name": "",
          "type": "address"
        }
      ],
      "stateMutability": "view",
      "type": "function"
    },
    {
      "inputs": [],
      "name": "novaMembersOnly",
      "outputs": [
        {
          "internalType": "bool",
          "name": "",
          "type": "bool"
        }
      ],
      "stateMutability": "view",
      "type": "function"
    },
    {
      "inputs": [],
      "name": "owner",
      "outputs": [
        {
          "internalType": "address",
          "name": "",
          "type": "address"
        }
      ],
      "stateMutability": "view",
      "type": "function"
    },
    {
      "inputs": [],
      "name": "pluginId",
      "outputs": [
        {
          "internalType": "uint256",
          "name": "",
          "type": "uint256"
        }
      ],
      "stateMutability": "view",
      "type": "function"
    },
    {
      "inputs": [],
      "name": "pluginRegistry",
      "outputs": [
        {
          "internalType": "address",
          "name": "",
          "type": "address"
        }
      ],
      "stateMutability": "view",
      "type": "function"
    },
    {
      "inputs": [
        {
          "internalType": "uint256",
          "name": "tokenId",
          "type": "uint256"
        }
      ],
      "name": "setPluginId",
      "outputs": [],
      "stateMutability": "nonpayable",
      "type": "function"
    },
    {
      "inputs": [
        {
          "internalType": "uint256",
          "name": "taskID",
          "type": "uint256"
        },
        {
          "internalType": "uint16",
          "name": "pointsWeight",
          "type": "uint16"
        }
      ],
      "name": "setWeightForTask",
      "outputs": [],
      "stateMutability": "nonpayable",
      "type": "function"
    },
    {
      "inputs": [],
      "name": "submissionIds",
      "outputs": [
        {
          "internalType": "uint256",
          "name": "_value",
          "type": "uint256"
        }
      ],
      "stateMutability": "view",
      "type": "function"
    },
    {
      "inputs": [
        {
          "internalType": "uint256",
          "name": "",
          "type": "uint256"
        }
      ],
      "name": "submissions",
      "outputs": [
        {
          "internalType": "address",
          "name": "submitter",
          "type": "address"
        },
        {
          "internalType": "string",
          "name": "submissionMetadata",
          "type": "string"
        },
        {
          "internalType": "uint256",
          "name": "completionTime",
          "type": "uint256"
        },
        {
          "internalType": "enum TasksModule.TaskStatus",
          "name": "status",
          "type": "uint8"
        }
      ],
      "stateMutability": "view",
      "type": "function"
    },
    {
      "inputs": [
        {
          "internalType": "uint256",
          "name": "taskId",
          "type": "uint256"
        },
        {
          "internalType": "string",
          "name": "submitionUrl",
          "type": "string"
        }
      ],
      "name": "submit",
      "outputs": [],
      "stateMutability": "nonpayable",
      "type": "function"
    },
    {
      "inputs": [
        {
          "internalType": "uint256",
          "name": "taskId",
          "type": "uint256"
        }
      ],
      "name": "take",
      "outputs": [],
      "stateMutability": "nonpayable",
      "type": "function"
    },
    {
      "inputs": [
        {
          "internalType": "uint256",
          "name": "",
          "type": "uint256"
        },
        {
          "internalType": "uint256",
          "name": "",
          "type": "uint256"
        }
      ],
      "name": "taskSubmissions",
      "outputs": [
        {
          "internalType": "uint256",
          "name": "",
          "type": "uint256"
        }
      ],
      "stateMutability": "view",
      "type": "function"
    },
    {
      "inputs": [
        {
          "internalType": "uint256",
          "name": "",
          "type": "uint256"
        }
      ],
      "name": "tasks",
      "outputs": [
        {
          "internalType": "uint256",
          "name": "createdOn",
          "type": "uint256"
        },
        {
          "internalType": "address",
          "name": "creator",
          "type": "address"
        },
        {
          "internalType": "uint256",
          "name": "role",
          "type": "uint256"
        },
        {
          "internalType": "string",
          "name": "metadata",
          "type": "string"
        },
        {
          "internalType": "uint256",
          "name": "startDate",
          "type": "uint256"
        },
        {
          "internalType": "uint256",
          "name": "endDate",
          "type": "uint256"
        }
      ],
      "stateMutability": "view",
      "type": "function"
    }
  ],
  "bytecode": {
    "object": "0x60806040523480156200001157600080fd5b5060405162003076380380620030768339810160408190526200003491620005a3565b8081600181600081600160006101000a8154816001600160a01b0302191690836001600160a01b03160217905550816001600160a01b03166341dcea916040518163ffffffff1660e01b8152600401602060405180830381865afa158015620000a1573d6000803e3d6000fd5b505050506040513d601f19601f82011682018060405250810190620000c79190620005a3565b600480546001600160a01b0392831661010002610100600160a81b0319909116179055600080546001600160a01b0319908116331782556003939093556040805160c08101825282815260208082018481528284018581528451928301909452848252606083019182526080830185905260a08301859052600780546001810182559552825160069095027fa66cc928b5edb82af9bd49922954155ab7b0942694bea4ce44661d9a8736c688810195865590517fa66cc928b5edb82af9bd49922954155ab7b0942694bea4ce44661d9a8736c689820180549190971697169690961790945590517fa66cc928b5edb82af9bd49922954155ab7b0942694bea4ce44661d9a8736c68a8501559151919350917fa66cc928b5edb82af9bd49922954155ab7b0942694bea4ce44661d9a8736c68b01906200020790826200067a565b50608082810151600483015560a0909201516005909101556040805191820181526000808352815160208181018452828252840152908201819052600b919060608201528154600180820184556000938452602093849020835160049093020180546001600160a01b0319166001600160a01b039093169290921782559282015191929091908201906200029c90826200067a565b506040820151816002015560608201518160030160006101000a81548160ff02191690836003811115620002d457620002d462000746565b02179055505050620002ed60056200059a60201b60201c565b620002fc600680546001019055565b80600860006101000a81548160ff0219169083151502179055505050806001600160a01b03166341dcea916040518163ffffffff1660e01b81526004016020604051808303816000875af115801562000359573d6000803e3d6000fd5b505050506040513d601f19601f820116820180604052508101906200037f9190620005a3565b6001600160a01b031663f0b7832a6040518163ffffffff1660e01b8152600401602060405180830381865afa158015620003bd573d6000803e3d6000fd5b505050506040513d601f19601f82011682018060405250810190620003e39190620005a3565b600c80546001600160a01b0319166001600160a01b0392831690811790915560405163189acdbd60e31b815291831660048301529063c4d66de890602401600060405180830381600087803b1580156200043c57600080fd5b505af115801562000451573d6000803e3d6000fd5b5050505050806001600160a01b03166341dcea916040518163ffffffff1660e01b81526004016020604051808303816000875af115801562000497573d6000803e3d6000fd5b505050506040513d601f19601f82011682018060405250810190620004bd9190620005a3565b6001600160a01b031663f0b7832a6040518163ffffffff1660e01b8152600401602060405180830381865afa158015620004fb573d6000803e3d6000fd5b505050506040513d601f19601f82011682018060405250810190620005219190620005a3565b600c80546001600160a01b0319166001600160a01b0392831690811790915560405163189acdbd60e31b815291831660048301529063c4d66de890602401600060405180830381600087803b1580156200057a57600080fd5b505af11580156200058f573d6000803e3d6000fd5b50505050506200075c565b80546001019055565b600060208284031215620005b657600080fd5b81516001600160a01b0381168114620005ce57600080fd5b9392505050565b634e487b7160e01b600052604160045260246000fd5b600181811c908216806200060057607f821691505b6020821081036200062157634e487b7160e01b600052602260045260246000fd5b50919050565b601f8211156200067557600081815260208120601f850160051c81016020861015620006505750805b601f850160051c820191505b8181101562000671578281556001016200065c565b5050505b505050565b81516001600160401b03811115620006965762000696620005d5565b620006ae81620006a78454620005eb565b8462000627565b602080601f831160018114620006e65760008415620006cd5750858301515b600019600386901b1c1916600185901b17855562000671565b600085815260208120601f198616915b828110156200071757888601518255948401946001909101908401620006f6565b5085821015620007365787850151600019600388901b60f8161c191681555b5050505050600190811b01905550565b634e487b7160e01b600052602160045260246000fd5b61290a806200076c6000396000f3fe608060405234801561001057600080fd5b50600436106101fb5760003560e01c806389f12ed91161011a578063b206b569116100ad578063e13de22b1161007c578063e13de22b14610443578063e31c007f14610479578063e38c5e721461048c578063eb08ab281461049f578063f4f4d237146104a957600080fd5b8063b206b569146103ec578063bd45a0a91461040c578063d5f394881461041f578063daf911371461043057600080fd5b8063a1308f27116100e9578063a1308f271461038d578063a41e603f14610396578063ab440d65146103b6578063ad73349e146103c957600080fd5b806389f12ed91461033c5780638d9776721461034d5780638da5cb5b14610372578063973cdc781461037a57600080fd5b806341dcea911161019257806353eea8751161016157806353eea875146102fb578063599081f91461030e5780635d63f6c61461031857806386d113c01461032b57600080fd5b806341dcea91146102a757806345601079146102d75780634b749e9b146102ea5780634fd9efc41461021557600080fd5b806322f3e2d4116101ce57806322f3e2d4146102615780632b0866481461027e5780632cce7143146102915780632fe7e4411461029e57600080fd5b806302a4dca01461020057806305261aea146102155780630adc56f0146102285780630bb75b451461023b575b600080fd5b61021361020e366004611f51565b6104c9565b005b610213610223366004611f51565b610529565b610213610236366004611f7d565b610542565b61024e610249366004612079565b6106d6565b6040519081526020015b60405180910390f35b60045461026e9060ff1681565b6040519015158152602001610258565b61021361028c3660046120e4565b610b4b565b60085461026e9060ff1681565b61024e60025481565b6004546102bf9061010090046001600160a01b031681565b6040516001600160a01b039091168152602001610258565b61024e6102e5366004612121565b610da9565b600c546001600160a01b03166102bf565b61024e610309366004612190565b610dcc565b60065461024e9081565b6102136103263660046121b2565b610dfd565b600e546001600160a01b03166102bf565b6001546001600160a01b03166102bf565b61036061035b366004611f51565b611188565b60405161025896959493929190612274565b6102bf611266565b61026e6103883660046122b6565b6112e1565b61024e60035481565b6103a96103a4366004611f51565b61134c565b60405161025891906122e2565b6102136103c4366004612326565b6113ae565b6103dc6103d7366004611f51565b6114a5565b6040516102589493929190612382565b6103ff6103fa3660046123bb565b611577565b60405161025891906123e0565b61024e61041a3660046123ee565b6115cd565b6000546001600160a01b03166102bf565b61021361043e3660046123bb565b61182a565b61024e6104513660046123bb565b6000918252600a602090815260408084206001600160a01b0393909316845291905290205490565b61024e6104873660046123bb565b6119bc565b61024e61049a366004611f51565b611a0e565b60055461024e9081565b6104bc6104b7366004611f51565b611b27565b6040516102589190612445565b60045461010090046001600160a01b031633146105245760405162461bcd60e51b81526020600482015260146024820152734f6e6c7920706c7567696e20726567697374727960601b60448201526064015b60405180910390fd5b600255565b60405163ced4f63360e01b815260040160405180910390fd5b81336001600160a01b031660078281548110610560576105606124a7565b60009182526020909120600160069092020101546001600160a01b03161461059a5760405162461bcd60e51b815260040161051b906124bd565b6040805160248082018690528251808303909101815260449091018252602080820180516001600160e01b031663daf9113760e01b1790528251600180825281850190945291926000929182015b60608152602001906001900390816105e857505060408051600180825281830190925291925060009190602080830190803683370190505090508282600081518110610636576106366124a7565b60200260200101819052508481600081518110610655576106556124a7565b61ffff90921660209283029190910190910152600c54604051631b799aa760e11b81526001600160a01b03909116906336f3354e9061069c903090869086906004016124e4565b600060405180830381600087803b1580156106b657600080fd5b505af11580156106ca573d6000803e3d6000fd5b50505050505050505050565b600480546001546040516318e96e9d60e11b81526001600160a01b039182169381019390935260009283926101009004909116906331d2dd3a90602401600060405180830381865afa158015610730573d6000803e3d6000fd5b505050506040513d6000823e601f3d908101601f191682016040526107589190810190612591565b90506000805b82518110156109505760025483828151811061077c5761077c6124a7565b60200260200101510361078e57600191505b4285116107ad5760405162461bcd60e51b815260040161051b90612637565b60008751116107ce5760405162461bcd60e51b815260040161051b90612660565b60006107d960055490565b6040805160c0810182524281526001600160a01b038d8116602083019081529282018d8152606083018d8152608084018d905260a084018c90526007805460018101825560009190915284517fa66cc928b5edb82af9bd49922954155ab7b0942694bea4ce44661d9a8736c688600690920291820190815595517fa66cc928b5edb82af9bd49922954155ab7b0942694bea4ce44661d9a8736c689820180546001600160a01b031916919095161790935590517fa66cc928b5edb82af9bd49922954155ab7b0942694bea4ce44661d9a8736c68a8301555193945090927fa66cc928b5edb82af9bd49922954155ab7b0942694bea4ce44661d9a8736c68b909101906108e59082612709565b506080820151600482015560a090910151600591820155805460010190557fa5ed9e6226c584326505694539c95cb0e3238ae09bcda5a65c00bbfdab1c666281896040516109349291906127c9565b60405180910390a1935080610948816127ea565b91505061075e565b50806109915760405162461bcd60e51b815260206004820152601060248201526f4f6e6c79204e6f7661204d6f64756c6560801b604482015260640161051b565b4284116109b05760405162461bcd60e51b815260040161051b90612637565b60008651116109d15760405162461bcd60e51b815260040161051b90612660565b60006109dc60055490565b6040805160c0810182524281526001600160a01b038c8116602083019081529282018c8152606083018c8152608084018c905260a084018b90526007805460018101825560009190915284517fa66cc928b5edb82af9bd49922954155ab7b0942694bea4ce44661d9a8736c688600690920291820190815595517fa66cc928b5edb82af9bd49922954155ab7b0942694bea4ce44661d9a8736c689820180546001600160a01b031916919095161790935590517fa66cc928b5edb82af9bd49922954155ab7b0942694bea4ce44661d9a8736c68a8301555193945090927fa66cc928b5edb82af9bd49922954155ab7b0942694bea4ce44661d9a8736c68b90910190610ae89082612709565b506080820151600482015560a090910151600591820155805460010190557fa5ed9e6226c584326505694539c95cb0e3238ae09bcda5a65c00bbfdab1c66628188604051610b379291906127c9565b60405180910390a198975050505050505050565b600154604051630935e01b60e21b81523360048201526001600160a01b03909116906324d7806c90602401602060405180830381865afa158015610b93573d6000803e3d6000fd5b505050506040513d601f19601f82011682018060405250810190610bb79190612811565b610bf15760405162461bcd60e51b815260206004820152600b60248201526a27b7363c9030b236b4b71760a91b604482015260640161051b565b4260078681548110610c0557610c056124a7565b90600052602060002090600602016004015411610c5b5760405162461bcd60e51b81526020600482015260146024820152731d185cdac8185b1c9958591e481cdd185c9d195960621b604482015260640161051b565b6000835111610c7c5760405162461bcd60e51b815260040161051b90612660565b6005548510610cbc5760405162461bcd60e51b815260206004820152600c60248201526b696e76616c6964207461736b60a01b604482015260640161051b565b8360078681548110610cd057610cd06124a7565b9060005260206000209060060201600201819055508260078681548110610cf957610cf96124a7565b90600052602060002090600602016003019081610d169190612709565b508160078681548110610d2b57610d2b6124a7565b9060005260206000209060060201600401819055508060078681548110610d5457610d546124a7565b9060005260206000209060060201600501819055507f126a0ea5197c062eb92c789989294eb8d2aef31cf41fd012da26dfab98b29a168584604051610d9a9291906127c9565b60405180910390a15050505050565b6000610db7868686866115cd565b9050610dc38183610542565b95945050505050565b60096020528160005260406000208181548110610de857600080fd5b90600052602060002001600091509150505481565b60085460ff1615610eb35760015460405163288c314960e21b81523360048201526001600160a01b039091169063a230c52490602401602060405180830381865afa158015610e50573d6000803e3d6000fd5b505050506040513d601f19601f82011682018060405250810190610e749190612811565b610eb35760405162461bcd60e51b815260206004820152601060248201526f4f6e6c792044414f206d656d6265727360801b604482015260640161051b565b6000838152600a60209081526040808320338085529252822054600b8054879492908110610ee357610ee36124a7565b60009182526020909120600360049092020181015460ff1690811115610f0b57610f0b61234a565b816003811115610f1d57610f1d61234a565b14610f3b576040516328992a5560e21b815260040160405180910390fd5b4260078781548110610f4f57610f4f6124a7565b90600052602060002090600602016004015410610fa05760405162461bcd60e51b815260206004820152600f60248201526e139bdd081cdd185c9d1959081e595d608a1b604482015260640161051b565b4260078781548110610fb457610fb46124a7565b906000526020600020906006020160050154116110085760405162461bcd60e51b8152602060048201526012602482015271151a19481d185cdac81a185cc8195b99195960721b604482015260640161051b565b600061101360065490565b9050600b6040518060800160405280336001600160a01b0316815260200188888080601f01602080910402602001604051908101604052809392919081815260200183838082843760009201829052509385525050506020820152604001600290528154600180820184556000938452602093849020835160049093020180546001600160a01b0319166001600160a01b039093169290921782559282015191929091908201906110c49082612709565b506040820151816002015560608201518160030160006101000a81548160ff021916908360038111156110f9576110f961234a565b021790555050506000878152600960209081526040808320805460018101825590845282842001849055898352600a82528083203384529091529020819055611146600680546001019055565b60408051888152602081018390527f732b29041dfc9fd7a86ce0ca090ecaabdc1a602620a65264047baf43d8ba31be910160405180910390a150505050505050565b6007818154811061119857600080fd5b600091825260209091206006909102018054600182015460028301546003840180549395506001600160a01b039092169390929091906111d790612680565b80601f016020809104026020016040519081016040528092919081815260200182805461120390612680565b80156112505780601f1061122557610100808354040283529160200191611250565b820191906000526020600020905b81548152906001019060200180831161123357829003601f168201915b5050505050908060040154908060050154905086565b6004805460405163235883e360e01b815230928101929092526000916101009091046001600160a01b03169063235883e390602401602060405180830381865afa1580156112b8573d6000803e3d6000fd5b505050506040513d601f19601f820116820180604052508101906112dc9190612833565b905090565b6000818152600a602090815260408083206001600160a01b0386168452909152812054600b805460039290811061131a5761131a6124a7565b60009182526020909120600360049092020181015460ff16908111156113425761134261234a565b1490505b92915050565b6000818152600960209081526040918290208054835181840281018401909452808452606093928301828280156113a257602002820191906000526020600020905b81548152602001906001019080831161138e575b50505050509050919050565b600d546001600160a01b0316336001600160a01b0316146113e257604051630e8cc36b60e21b815260040160405180910390fd5b600c80546001600160a01b0319166001600160a01b038316179055604080516389f12ed960e01b815290517f3ef34c117b493311a9ea61dff2d101d6bdc33062c190cb30ffbb908b09a2b4949130916389f12ed9916004808201926020929091908290030181865afa15801561145c573d6000803e3d6000fd5b505050506040513d601f19601f820116820180604052508101906114809190612833565b604080516001600160a01b03928316815291841660208301520160405180910390a150565b600b81815481106114b557600080fd5b6000918252602090912060049091020180546001820180546001600160a01b039092169350906114e490612680565b80601f016020809104026020016040519081016040528092919081815260200182805461151090612680565b801561155d5780601f106115325761010080835404028352916020019161155d565b820191906000526020600020905b81548152906001019060200180831161154057829003601f168201915b50505050600283015460039093015491929160ff16905084565b6000828152600a602090815260408083206001600160a01b0385168452909152812054600b805490919081106115af576115af6124a7565b600091825260209091206004909102016003015460ff169392505050565b600154604051630935e01b60e21b81523360048201526000916001600160a01b0316906324d7806c90602401602060405180830381865afa158015611616573d6000803e3d6000fd5b505050506040513d601f19601f8201168201806040525081019061163a9190612811565b6116745760405162461bcd60e51b815260206004820152600b60248201526a27b7363c9030b236b4b71760a91b604482015260640161051b565b4282116116935760405162461bcd60e51b815260040161051b90612637565b60008451116116b45760405162461bcd60e51b815260040161051b90612660565b60006116bf60055490565b6040805160c0810182524281523360208201908152918101898152606082018981526080830189905260a083018890526007805460018101825560009190915283517fa66cc928b5edb82af9bd49922954155ab7b0942694bea4ce44661d9a8736c688600690920291820190815594517fa66cc928b5edb82af9bd49922954155ab7b0942694bea4ce44661d9a8736c689820180546001600160a01b0319166001600160a01b0390921691909117905591517fa66cc928b5edb82af9bd49922954155ab7b0942694bea4ce44661d9a8736c68a8301555193945090927fa66cc928b5edb82af9bd49922954155ab7b0942694bea4ce44661d9a8736c68b909101906117ca9082612709565b506080820151600482015560a090910151600591820155805460010190557fa5ed9e6226c584326505694539c95cb0e3238ae09bcda5a65c00bbfdab1c666281866040516118199291906127c9565b60405180910390a195945050505050565b6040516001600160e01b03196000351660208201526024810183905260440160408051601f198184030181529181526000848152600a60209081528282206001600160a01b038616835290522054600b8054849286928492600292908110611894576118946124a7565b60009182526020909120600360049092020181015460ff16908111156118bc576118bc61234a565b8160038111156118ce576118ce61234a565b146118ec576040516328992a5560e21b815260040160405180910390fd5b86336001600160a01b03166007828154811061190a5761190a6124a7565b60009182526020909120600160069092020101546001600160a01b0316146119445760405162461bcd60e51b815260040161051b906124bd565b61194e8888611c85565b5050600c54604051633ad3b04160e01b81526001600160a01b039091169250633ad3b04191506119849085908590600401612850565b600060405180830381600087803b15801561199e57600080fd5b505af11580156119b2573d6000803e3d6000fd5b5050505050505050565b6000828152600a602090815260408083206001600160a01b0385168452909152812054600b805490919081106119f4576119f46124a7565b906000526020600020906004020160020154905092915050565b600c5460408051602480820185905282518083039091018152604490910182526020810180516001600160e01b031663daf9113760e01b1790529051630958ee3760e41b81526000926001600160a01b031691635a53f24a91839163958ee37091611a7d91309160040161287a565b602060405180830381865afa158015611a9a573d6000803e3d6000fd5b505050506040513d601f19601f82011682018060405250810190611abe919061289e565b6040518263ffffffff1660e01b8152600401611adc91815260200190565b602060405180830381865afa158015611af9573d6000803e3d6000fd5b505050506040513d601f19601f82011682018060405250810190611b1d91906128b7565b61ffff1692915050565b611b696040518060c001604052806000815260200160006001600160a01b03168152602001600081526020016060815260200160008152602001600081525090565b60078281548110611b7c57611b7c6124a7565b90600052602060002090600602016040518060c0016040529081600082015481526020016001820160009054906101000a90046001600160a01b03166001600160a01b03166001600160a01b0316815260200160028201548152602001600382018054611be890612680565b80601f0160208091040260200160405190810160405280929190818152602001828054611c1490612680565b8015611c615780601f10611c3657610100808354040283529160200191611c61565b820191906000526020600020905b815481529060010190602001808311611c4457829003601f168201915b50505050508152602001600482015481526020016005820154815250509050919050565b6000828152600a602090815260408083206001600160a01b0385168452909152902054600b8054849284926002929091908110611cc457611cc46124a7565b60009182526020909120600360049092020181015460ff1690811115611cec57611cec61234a565b816003811115611cfe57611cfe61234a565b14611d1c576040516328992a5560e21b815260040160405180910390fd5b84336001600160a01b031660078281548110611d3a57611d3a6124a7565b60009182526020909120600160069092020101546001600160a01b031614611d745760405162461bcd60e51b815260040161051b906124bd565b4260078781548110611d8857611d886124a7565b90600052602060002090600602016004015410611dd95760405162461bcd60e51b815260206004820152600f60248201526e139bdd081cdd185c9d1959081e595d608a1b604482015260640161051b565b4260078781548110611ded57611ded6124a7565b90600052602060002090600602016005015411611e415760405162461bcd60e51b8152602060048201526012602482015271151a19481d185cdac81a185cc8195b99195960721b604482015260640161051b565b6000868152600a602090815260408083206001600160a01b0389168452909152902054600b8054600392908110611e7a57611e7a6124a7565b906000526020600020906004020160030160006101000a81548160ff02191690836003811115611eac57611eac61234a565b02179055506000868152600a602090815260408083206001600160a01b0389168452909152902054600b80544292908110611ee957611ee96124a7565b9060005260206000209060040201600201819055507fc923846dc69de8ab93cf9ea85e31a6e1ba93bd70bf0cec92b2c98b8f4b4485da8686604051611f419291909182526001600160a01b0316602082015260400190565b60405180910390a1505050505050565b600060208284031215611f6357600080fd5b5035919050565b61ffff81168114611f7a57600080fd5b50565b60008060408385031215611f9057600080fd5b823591506020830135611fa281611f6a565b809150509250929050565b6001600160a01b0381168114611f7a57600080fd5b634e487b7160e01b600052604160045260246000fd5b604051601f8201601f1916810167ffffffffffffffff8111828210171561200157612001611fc2565b604052919050565b600082601f83011261201a57600080fd5b813567ffffffffffffffff81111561203457612034611fc2565b612047601f8201601f1916602001611fd8565b81815284602083860101111561205c57600080fd5b816020850160208301376000918101602001919091529392505050565b600080600080600060a0868803121561209157600080fd5b853561209c81611fad565b945060208601359350604086013567ffffffffffffffff8111156120bf57600080fd5b6120cb88828901612009565b9598949750949560608101359550608001359392505050565b600080600080600060a086880312156120fc57600080fd5b8535945060208601359350604086013567ffffffffffffffff8111156120bf57600080fd5b600080600080600060a0868803121561213957600080fd5b85359450602086013567ffffffffffffffff81111561215757600080fd5b61216388828901612009565b9450506040860135925060608601359150608086013561218281611f6a565b809150509295509295909350565b600080604083850312156121a357600080fd5b50508035926020909101359150565b6000806000604084860312156121c757600080fd5b83359250602084013567ffffffffffffffff808211156121e657600080fd5b818601915086601f8301126121fa57600080fd5b81358181111561220957600080fd5b87602082850101111561221b57600080fd5b6020830194508093505050509250925092565b6000815180845260005b8181101561225457602081850181015186830182015201612238565b506000602082860101526020601f19601f83011685010191505092915050565b86815260018060a01b038616602082015284604082015260c0606082015260006122a160c083018661222e565b60808301949094525060a00152949350505050565b600080604083850312156122c957600080fd5b82356122d481611fad565b946020939093013593505050565b6020808252825182820181905260009190848201906040850190845b8181101561231a578351835292840192918401916001016122fe565b50909695505050505050565b60006020828403121561233857600080fd5b813561234381611fad565b9392505050565b634e487b7160e01b600052602160045260246000fd5b6004811061237e57634e487b7160e01b600052602160045260246000fd5b9052565b6001600160a01b03851681526080602082018190526000906123a69083018661222e565b9050836040830152610dc36060830184612360565b600080604083850312156123ce57600080fd5b823591506020830135611fa281611fad565b602081016113468284612360565b6000806000806080858703121561240457600080fd5b84359350602085013567ffffffffffffffff81111561242257600080fd5b61242e87828801612009565b949794965050505060408301359260600135919050565b602081528151602082015260018060a01b036020830151166040820152604082015160608201526000606083015160c0608084015261248760e084018261222e565b9050608084015160a084015260a084015160c08401528091505092915050565b634e487b7160e01b600052603260045260246000fd5b6020808252600d908201526c27b7363c9031b932b0ba37b91760991b604082015260600190565b60006060820160018060a01b0386168352602060608185015281865180845260808601915060808160051b870101935082880160005b8281101561254857607f1988870301845261253686835161222e565b9550928401929084019060010161251a565b50505050838203604085015284518083528186019282019060005b8181101561258357845161ffff1683529383019391830191600101612563565b509098975050505050505050565b600060208083850312156125a457600080fd5b825167ffffffffffffffff808211156125bc57600080fd5b818501915085601f8301126125d057600080fd5b8151818111156125e2576125e2611fc2565b8060051b91506125f3848301611fd8565b818152918301840191848101908884111561260d57600080fd5b938501935b8385101561262b57845182529385019390850190612612565b98975050505050505050565b6020808252600f908201526e496e76616c696420656e644461746560881b604082015260600190565b6020808252600690820152654e6f2055524960d01b604082015260600190565b600181811c9082168061269457607f821691505b6020821081036126b457634e487b7160e01b600052602260045260246000fd5b50919050565b601f82111561270457600081815260208120601f850160051c810160208610156126e15750805b601f850160051c820191505b81811015612700578281556001016126ed565b5050505b505050565b815167ffffffffffffffff81111561272357612723611fc2565b612737816127318454612680565b846126ba565b602080601f83116001811461276c57600084156127545750858301515b600019600386901b1c1916600185901b178555612700565b600085815260208120601f198616915b8281101561279b5788860151825594840194600190910190840161277c565b50858210156127b95787850151600019600388901b60f8161c191681555b5050505050600190811b01905550565b8281526040602082015260006127e2604083018461222e565b949350505050565b60006001820161280a57634e487b7160e01b600052601160045260246000fd5b5060010190565b60006020828403121561282357600080fd5b8151801515811461234357600080fd5b60006020828403121561284557600080fd5b815161234381611fad565b604081526000612863604083018561222e565b905060018060a01b03831660208301529392505050565b6001600160a01b03831681526040602082018190526000906127e29083018461222e565b6000602082840312156128b057600080fd5b5051919050565b6000602082840312156128c957600080fd5b815161234381611f6a56fea26469706673582212207d5aba2c0b71bb6cde3d5978dd66b4c96169520118aae7dc01f773c9ba53606064736f6c63430008130033",
    "linkReferences": {}
  },
  "methodIdentifiers": {
    "changeInUseLocalRep(address)": "ab440d65",
    "create(uint256,string,uint256,uint256)": "bd45a0a9",
    "createBy(address,uint256,string,uint256,uint256)": "0bb75b45",
    "createOpenTaskWithWeight(uint256,string,uint256,uint256,uint16)": "45601079",
    "currentReputationAddr()": "4b749e9b",
    "deployer()": "d5f39488",
    "editTask(uint256,uint256,string,uint256,uint256)": "2b086648",
    "finalize(uint256)": "05261aea",
    "finalizeFor(uint256,address)": "daf91137",
    "getById(uint256)": "f4f4d237",
    "getCompletionTime(uint256,address)": "e31c007f",
    "getRepPointsOfTask(uint256)": "e38c5e72",
    "getStatusPerSubmitter(uint256,address)": "b206b569",
    "getSubmissionIdPerTaskAndUser(uint256,address)": "e13de22b",
    "getSubmissionIdsPerTask(uint256)": "a41e603f",
    "hasCompletedTheTask(address,uint256)": "973cdc78",
    "idCounter()": "eb08ab28",
    "isActive()": "22f3e2d4",
    "lastReputationAddr()": "86d113c0",
    "moduleId()": "a1308f27",
    "novaAddress()": "89f12ed9",
    "novaMembersOnly()": "2cce7143",
    "owner()": "8da5cb5b",
    "pluginId()": "2fe7e441",
    "pluginRegistry()": "41dcea91",
    "setPluginId(uint256)": "02a4dca0",
    "setWeightForTask(uint256,uint16)": "0adc56f0",
    "submissionIds()": "599081f9",
    "submissions(uint256)": "ad73349e",
    "submit(uint256,string)": "5d63f6c6",
    "take(uint256)": "4fd9efc4",
    "taskSubmissions(uint256,uint256)": "53eea875",
    "tasks(uint256)": "8d977672"
  },
  "id": 75
}