{
  "abi": [
    {
      "inputs": [
        {
          "internalType": "address",
          "name": "nova_",
          "type": "address"
        }
      ],
      "stateMutability": "nonpayable",
      "type": "constructor"
    },
    {
      "inputs": [],
      "name": "AuthorityExpected",
      "type": "error"
    },
    {
      "inputs": [],
      "name": "FunctionInvalidAtThisStage",
      "type": "error"
    },
    {
      "inputs": [],
      "name": "FunctionNotImplemented",
      "type": "error"
    },
    {
      "anonymous": false,
      "inputs": [
        {
          "indexed": false,
          "internalType": "address",
          "name": "nova",
          "type": "address"
        },
        {
          "indexed": false,
          "internalType": "address",
          "name": "repAlgo",
          "type": "address"
        }
      ],
      "name": "LocalRepALogChangedFor",
      "type": "event"
    },
    {
      "anonymous": false,
      "inputs": [
        {
          "indexed": false,
          "internalType": "uint256",
          "name": "taskID",
          "type": "uint256"
        },
        {
          "indexed": false,
          "internalType": "string",
          "name": "uri",
          "type": "string"
        }
      ],
      "name": "TaskCreated",
      "type": "event"
    },
    {
      "anonymous": false,
      "inputs": [
        {
          "indexed": false,
          "internalType": "uint256",
          "name": "taskID",
          "type": "uint256"
        },
        {
          "indexed": false,
          "internalType": "string",
          "name": "uri",
          "type": "string"
        }
      ],
      "name": "TaskEdited",
      "type": "event"
    },
    {
      "anonymous": false,
      "inputs": [
        {
          "indexed": false,
          "internalType": "uint256",
          "name": "taskID",
          "type": "uint256"
        },
        {
          "indexed": false,
          "internalType": "address",
          "name": "taker",
          "type": "address"
        }
      ],
      "name": "TaskFinalized",
      "type": "event"
    },
    {
      "anonymous": false,
      "inputs": [
        {
          "indexed": false,
          "internalType": "uint256",
          "name": "taskID",
          "type": "uint256"
        },
        {
          "indexed": false,
          "internalType": "uint256",
          "name": "submissionId",
          "type": "uint256"
        }
      ],
      "name": "TaskSubmitted",
      "type": "event"
    },
    {
      "anonymous": false,
      "inputs": [
        {
          "indexed": false,
          "internalType": "uint256",
          "name": "taskID",
          "type": "uint256"
        },
        {
          "indexed": false,
          "internalType": "address",
          "name": "taker",
          "type": "address"
        }
      ],
      "name": "TaskTaken",
      "type": "event"
    },
    {
      "inputs": [
        {
          "internalType": "address",
          "name": "NewLocalRepAlgo_",
          "type": "address"
        }
      ],
      "name": "changeInUseLocalRep",
      "outputs": [],
      "stateMutability": "nonpayable",
      "type": "function"
    },
    {
      "inputs": [
        {
          "internalType": "uint256",
          "name": "role",
          "type": "uint256"
        },
        {
          "internalType": "string",
          "name": "uri",
          "type": "string"
        },
        {
          "internalType": "uint256",
          "name": "startDate",
          "type": "uint256"
        },
        {
          "internalType": "uint256",
          "name": "endDate",
          "type": "uint256"
        }
      ],
      "name": "create",
      "outputs": [
        {
          "internalType": "uint256",
          "name": "",
          "type": "uint256"
        }
      ],
      "stateMutability": "nonpayable",
      "type": "function"
    },
    {
      "inputs": [
        {
          "internalType": "address",
          "name": "creator",
          "type": "address"
        },
        {
          "internalType": "uint256",
          "name": "role",
          "type": "uint256"
        },
        {
          "internalType": "string",
          "name": "uri",
          "type": "string"
        },
        {
          "internalType": "uint256",
          "name": "startDate",
          "type": "uint256"
        },
        {
          "internalType": "uint256",
          "name": "endDate",
          "type": "uint256"
        }
      ],
      "name": "createBy",
      "outputs": [
        {
          "internalType": "uint256",
          "name": "",
          "type": "uint256"
        }
      ],
      "stateMutability": "nonpayable",
      "type": "function"
    },
    {
      "inputs": [],
      "name": "currentReputationAddr",
      "outputs": [
        {
          "internalType": "address",
          "name": "",
          "type": "address"
        }
      ],
      "stateMutability": "view",
      "type": "function"
    },
    {
      "inputs": [],
      "name": "daoAddress",
      "outputs": [
        {
          "internalType": "address",
          "name": "",
          "type": "address"
        }
      ],
      "stateMutability": "view",
      "type": "function"
    },
    {
      "inputs": [],
      "name": "daoMembersOnly",
      "outputs": [
        {
          "internalType": "bool",
          "name": "",
          "type": "bool"
        }
      ],
      "stateMutability": "view",
      "type": "function"
    },
    {
      "inputs": [],
      "name": "deployer",
      "outputs": [
        {
          "internalType": "address",
          "name": "",
          "type": "address"
        }
      ],
      "stateMutability": "view",
      "type": "function"
    },
    {
      "inputs": [
        {
          "internalType": "uint256",
          "name": "taskId",
          "type": "uint256"
        },
        {
          "internalType": "uint256",
          "name": "role",
          "type": "uint256"
        },
        {
          "internalType": "string",
          "name": "uri",
          "type": "string"
        },
        {
          "internalType": "uint256",
          "name": "startDate",
          "type": "uint256"
        },
        {
          "internalType": "uint256",
          "name": "endDate",
          "type": "uint256"
        }
      ],
      "name": "editTask",
      "outputs": [],
      "stateMutability": "nonpayable",
      "type": "function"
    },
    {
      "inputs": [
        {
          "internalType": "uint256",
          "name": "taskId",
          "type": "uint256"
        }
      ],
      "name": "finalize",
      "outputs": [],
      "stateMutability": "nonpayable",
      "type": "function"
    },
    {
      "inputs": [
        {
          "internalType": "uint256",
          "name": "taskId",
          "type": "uint256"
        },
        {
          "internalType": "address",
          "name": "submitter",
          "type": "address"
        }
      ],
      "name": "finalizeFor",
      "outputs": [],
      "stateMutability": "nonpayable",
      "type": "function"
    },
    {
      "inputs": [
        {
          "internalType": "uint256",
          "name": "taskId",
          "type": "uint256"
        }
      ],
      "name": "getById",
      "outputs": [
        {
          "components": [
            {
              "internalType": "uint256",
              "name": "createdOn",
              "type": "uint256"
            },
            {
              "internalType": "address",
              "name": "creator",
              "type": "address"
            },
            {
              "internalType": "uint256",
              "name": "role",
              "type": "uint256"
            },
            {
              "internalType": "string",
              "name": "metadata",
              "type": "string"
            },
            {
              "internalType": "uint256",
              "name": "startDate",
              "type": "uint256"
            },
            {
              "internalType": "uint256",
              "name": "endDate",
              "type": "uint256"
            }
          ],
          "internalType": "struct TasksModule.Task",
          "name": "",
          "type": "tuple"
        }
      ],
      "stateMutability": "view",
      "type": "function"
    },
    {
      "inputs": [
        {
          "internalType": "uint256",
          "name": "taskId",
          "type": "uint256"
        },
        {
          "internalType": "address",
          "name": "user",
          "type": "address"
        }
      ],
      "name": "getCompletionTime",
      "outputs": [
        {
          "internalType": "uint256",
          "name": "",
          "type": "uint256"
        }
      ],
      "stateMutability": "view",
      "type": "function"
    },
    {
      "inputs": [
        {
          "internalType": "uint256",
          "name": "taskId",
          "type": "uint256"
        },
        {
          "internalType": "address",
          "name": "submitter",
          "type": "address"
        }
      ],
      "name": "getStatusPerSubmitter",
      "outputs": [
        {
          "internalType": "enum TasksModule.TaskStatus",
          "name": "",
          "type": "uint8"
        }
      ],
      "stateMutability": "view",
      "type": "function"
    },
    {
      "inputs": [
        {
          "internalType": "uint256",
          "name": "taskId",
          "type": "uint256"
        },
        {
          "internalType": "address",
          "name": "submitter",
          "type": "address"
        }
      ],
      "name": "getSubmissionIdPerTaskAndUser",
      "outputs": [
        {
          "internalType": "uint256",
          "name": "",
          "type": "uint256"
        }
      ],
      "stateMutability": "view",
      "type": "function"
    },
    {
      "inputs": [
        {
          "internalType": "uint256",
          "name": "taskId",
          "type": "uint256"
        }
      ],
      "name": "getSubmissionIdsPerTask",
      "outputs": [
        {
          "internalType": "uint256[]",
          "name": "",
          "type": "uint256[]"
        }
      ],
      "stateMutability": "view",
      "type": "function"
    },
    {
      "inputs": [
        {
          "internalType": "address",
          "name": "user",
          "type": "address"
        },
        {
          "internalType": "uint256",
          "name": "taskId",
          "type": "uint256"
        }
      ],
      "name": "hasCompletedTheTask",
      "outputs": [
        {
          "internalType": "bool",
          "name": "",
          "type": "bool"
        }
      ],
      "stateMutability": "view",
      "type": "function"
    },
    {
      "inputs": [],
      "name": "idCounter",
      "outputs": [
        {
          "internalType": "uint256",
          "name": "_value",
          "type": "uint256"
        }
      ],
      "stateMutability": "view",
      "type": "function"
    },
    {
      "inputs": [],
      "name": "isActive",
      "outputs": [
        {
          "internalType": "bool",
          "name": "",
          "type": "bool"
        }
      ],
      "stateMutability": "view",
      "type": "function"
    },
    {
      "inputs": [],
      "name": "lastReputationAddr",
      "outputs": [
        {
          "internalType": "address",
          "name": "",
          "type": "address"
        }
      ],
      "stateMutability": "view",
      "type": "function"
    },
    {
      "inputs": [],
      "name": "moduleId",
      "outputs": [
        {
          "internalType": "uint256",
          "name": "",
          "type": "uint256"
        }
      ],
      "stateMutability": "view",
      "type": "function"
    },
    {
      "inputs": [],
      "name": "owner",
      "outputs": [
        {
          "internalType": "address",
          "name": "",
          "type": "address"
        }
      ],
      "stateMutability": "view",
      "type": "function"
    },
    {
      "inputs": [],
      "name": "pluginId",
      "outputs": [
        {
          "internalType": "uint256",
          "name": "",
          "type": "uint256"
        }
      ],
      "stateMutability": "view",
      "type": "function"
    },
    {
      "inputs": [],
      "name": "pluginRegistry",
      "outputs": [
        {
          "internalType": "address",
          "name": "",
          "type": "address"
        }
      ],
      "stateMutability": "view",
      "type": "function"
    },
    {
      "inputs": [
        {
          "internalType": "uint256",
          "name": "tokenId",
          "type": "uint256"
        }
      ],
      "name": "setPluginId",
      "outputs": [],
      "stateMutability": "nonpayable",
      "type": "function"
    },
    {
      "inputs": [],
      "name": "submissionIds",
      "outputs": [
        {
          "internalType": "uint256",
          "name": "_value",
          "type": "uint256"
        }
      ],
      "stateMutability": "view",
      "type": "function"
    },
    {
      "inputs": [
        {
          "internalType": "uint256",
          "name": "",
          "type": "uint256"
        }
      ],
      "name": "submissions",
      "outputs": [
        {
          "internalType": "address",
          "name": "submitter",
          "type": "address"
        },
        {
          "internalType": "string",
          "name": "submissionMetadata",
          "type": "string"
        },
        {
          "internalType": "uint256",
          "name": "completionTime",
          "type": "uint256"
        },
        {
          "internalType": "enum TasksModule.TaskStatus",
          "name": "status",
          "type": "uint8"
        }
      ],
      "stateMutability": "view",
      "type": "function"
    },
    {
      "inputs": [
        {
          "internalType": "uint256",
          "name": "taskId",
          "type": "uint256"
        },
        {
          "internalType": "string",
          "name": "submitionUrl",
          "type": "string"
        }
      ],
      "name": "submit",
      "outputs": [],
      "stateMutability": "nonpayable",
      "type": "function"
    },
    {
      "inputs": [
        {
          "internalType": "uint256",
          "name": "taskId",
          "type": "uint256"
        }
      ],
      "name": "take",
      "outputs": [],
      "stateMutability": "nonpayable",
      "type": "function"
    },
    {
      "inputs": [
        {
          "internalType": "uint256",
          "name": "",
          "type": "uint256"
        },
        {
          "internalType": "uint256",
          "name": "",
          "type": "uint256"
        }
      ],
      "name": "taskSubmissions",
      "outputs": [
        {
          "internalType": "uint256",
          "name": "",
          "type": "uint256"
        }
      ],
      "stateMutability": "view",
      "type": "function"
    },
    {
      "inputs": [
        {
          "internalType": "uint256",
          "name": "",
          "type": "uint256"
        }
      ],
      "name": "tasks",
      "outputs": [
        {
          "internalType": "uint256",
          "name": "createdOn",
          "type": "uint256"
        },
        {
          "internalType": "address",
          "name": "creator",
          "type": "address"
        },
        {
          "internalType": "uint256",
          "name": "role",
          "type": "uint256"
        },
        {
          "internalType": "string",
          "name": "metadata",
          "type": "string"
        },
        {
          "internalType": "uint256",
          "name": "startDate",
          "type": "uint256"
        },
        {
          "internalType": "uint256",
          "name": "endDate",
          "type": "uint256"
        }
      ],
      "stateMutability": "view",
      "type": "function"
    }
  ],
  "bytecode": {
    "object": "0x60806040523480156200001157600080fd5b5060405162002b6538038062002b65833981016040819052620000349162000466565b8081600181600081600160006101000a8154816001600160a01b0302191690836001600160a01b03160217905550816001600160a01b03166341dcea916040518163ffffffff1660e01b8152600401602060405180830381865afa158015620000a1573d6000803e3d6000fd5b505050506040513d601f19601f82011682018060405250810190620000c7919062000466565b600480546001600160a01b0392831661010002610100600160a81b0319909116179055600080546001600160a01b0319908116331782556003939093556040805160c08101825282815260208082018481528284018581528451928301909452848252606083019182526080830185905260a08301859052600780546001810182559552825160069095027fa66cc928b5edb82af9bd49922954155ab7b0942694bea4ce44661d9a8736c688810195865590517fa66cc928b5edb82af9bd49922954155ab7b0942694bea4ce44661d9a8736c689820180549190971697169690961790945590517fa66cc928b5edb82af9bd49922954155ab7b0942694bea4ce44661d9a8736c68a8501559151919350917fa66cc928b5edb82af9bd49922954155ab7b0942694bea4ce44661d9a8736c68b01906200020790826200053d565b50608082810151600483015560a0909201516005909101556040805191820181526000808352815160208181018452828252840152908201819052600b919060608201528154600180820184556000938452602093849020835160049093020180546001600160a01b0319166001600160a01b039093169290921782559282015191929091908201906200029c90826200053d565b506040820151816002015560608201518160030160006101000a81548160ff02191690836003811115620002d457620002d462000609565b02179055505050620002ed60056200045d60201b60201c565b620002fc600680546001019055565b80600860006101000a81548160ff0219169083151502179055505050806001600160a01b03166341dcea916040518163ffffffff1660e01b81526004016020604051808303816000875af115801562000359573d6000803e3d6000fd5b505050506040513d601f19601f820116820180604052508101906200037f919062000466565b6001600160a01b031663f0b7832a6040518163ffffffff1660e01b8152600401602060405180830381865afa158015620003bd573d6000803e3d6000fd5b505050506040513d601f19601f82011682018060405250810190620003e3919062000466565b600c80546001600160a01b0319166001600160a01b0392831690811790915560405163189acdbd60e31b815291831660048301529063c4d66de890602401600060405180830381600087803b1580156200043c57600080fd5b505af115801562000451573d6000803e3d6000fd5b5050505050506200061f565b80546001019055565b6000602082840312156200047957600080fd5b81516001600160a01b03811681146200049157600080fd5b9392505050565b634e487b7160e01b600052604160045260246000fd5b600181811c90821680620004c357607f821691505b602082108103620004e457634e487b7160e01b600052602260045260246000fd5b50919050565b601f8211156200053857600081815260208120601f850160051c81016020861015620005135750805b601f850160051c820191505b8181101562000534578281556001016200051f565b5050505b505050565b81516001600160401b0381111562000559576200055962000498565b62000571816200056a8454620004ae565b84620004ea565b602080601f831160018114620005a95760008415620005905750858301515b600019600386901b1c1916600185901b17855562000534565b600085815260208120601f198616915b82811015620005da57888601518255948401946001909101908401620005b9565b5085821015620005f95787850151600019600388901b60f8161c191681555b5050505050600190811b01905550565b634e487b7160e01b600052602160045260246000fd5b612536806200062f6000396000f3fe608060405234801561001057600080fd5b50600436106101da5760003560e01c80638d97767211610104578063b206b569116100a2578063e13de22b11610071578063e13de22b146103f8578063e31c007f1461042e578063eb08ab2814610441578063f4f4d2371461044b57600080fd5b8063b206b569146103a1578063bd45a0a9146103c1578063d5f39488146103d4578063daf91137146103e557600080fd5b8063a1308f27116100de578063a1308f2714610342578063a41e603f1461034b578063ab440d651461036b578063ad73349e1461037e57600080fd5b80638d977672146103025780638da5cb5b14610327578063973cdc781461032f57600080fd5b8063409621861161017c57806353eea8751161014b57806353eea875146102c1578063599081f9146102d45780635d63f6c6146102de57806386d113c0146102f157600080fd5b8063409621861461028b57806341dcea91146102985780634b749e9b146102b05780634fd9efc4146101f457600080fd5b80632131c68c116101b85780632131c68c1461022d57806322f3e2d4146102525780632b0866481461026f5780632fe7e4411461028257600080fd5b806302a4dca0146101df57806305261aea146101f45780630bb75b4514610207575b600080fd5b6101f26101ed366004611d2f565b61046b565b005b6101f2610202366004611d2f565b6104cb565b61021a610215366004611e17565b6104e4565b6040519081526020015b60405180910390f35b6001546001600160a01b03165b6040516001600160a01b039091168152602001610224565b60045461025f9060ff1681565b6040519015158152602001610224565b6101f261027d366004611e82565b610958565b61021a60025481565b60085461025f9060ff1681565b60045461023a9061010090046001600160a01b031681565b600c546001600160a01b031661023a565b61021a6102cf366004611ebf565b610bb6565b60065461021a9081565b6101f26102ec366004611ee1565b610be7565b600e546001600160a01b031661023a565b610315610310366004611d2f565b610d9f565b60405161022496959493929190611fa3565b61023a610e7d565b61025f61033d366004611fe5565b610ef8565b61021a60035481565b61035e610359366004611d2f565b610f63565b6040516102249190612011565b6101f2610379366004612055565b610fc5565b61039161038c366004611d2f565b6110bc565b60405161022494939291906120b1565b6103b46103af3660046120f3565b61118e565b6040516102249190612123565b61021a6103cf366004612131565b6111e4565b6000546001600160a01b031661023a565b6101f26103f33660046120f3565b611441565b61021a6104063660046120f3565b6000918252600a602090815260408084206001600160a01b0393909316845291905290205490565b61021a61043c3660046120f3565b6117f4565b60055461021a9081565b61045e610459366004611d2f565b611846565b6040516102249190612188565b60045461010090046001600160a01b031633146104c65760405162461bcd60e51b81526020600482015260146024820152734f6e6c7920706c7567696e20726567697374727960601b60448201526064015b60405180910390fd5b600255565b60405163ced4f63360e01b815260040160405180910390fd5b60048054600154604051632b948c3960e01b81526001600160a01b03918216938101939093526000928392610100900490911690632b948c3990602401600060405180830381865afa15801561053e573d6000803e3d6000fd5b505050506040513d6000823e601f3d908101601f1916820160405261056691908101906121ea565b90506000805b825181101561075e5760025483828151811061058a5761058a612290565b60200260200101510361059c57600191505b4285116105bb5760405162461bcd60e51b81526004016104bd906122a6565b60008751116105dc5760405162461bcd60e51b81526004016104bd906122cf565b60006105e760055490565b6040805160c0810182524281526001600160a01b038d8116602083019081529282018d8152606083018d8152608084018d905260a084018c90526007805460018101825560009190915284517fa66cc928b5edb82af9bd49922954155ab7b0942694bea4ce44661d9a8736c688600690920291820190815595517fa66cc928b5edb82af9bd49922954155ab7b0942694bea4ce44661d9a8736c689820180546001600160a01b031916919095161790935590517fa66cc928b5edb82af9bd49922954155ab7b0942694bea4ce44661d9a8736c68a8301555193945090927fa66cc928b5edb82af9bd49922954155ab7b0942694bea4ce44661d9a8736c68b909101906106f39082612378565b506080820151600482015560a090910151600591820155805460010190557fa5ed9e6226c584326505694539c95cb0e3238ae09bcda5a65c00bbfdab1c66628189604051610742929190612438565b60405180910390a193508061075681612459565b91505061056c565b508061079e5760405162461bcd60e51b815260206004820152600f60248201526e4f6e6c792044414f204d6f64756c6560881b60448201526064016104bd565b4284116107bd5760405162461bcd60e51b81526004016104bd906122a6565b60008651116107de5760405162461bcd60e51b81526004016104bd906122cf565b60006107e960055490565b6040805160c0810182524281526001600160a01b038c8116602083019081529282018c8152606083018c8152608084018c905260a084018b90526007805460018101825560009190915284517fa66cc928b5edb82af9bd49922954155ab7b0942694bea4ce44661d9a8736c688600690920291820190815595517fa66cc928b5edb82af9bd49922954155ab7b0942694bea4ce44661d9a8736c689820180546001600160a01b031916919095161790935590517fa66cc928b5edb82af9bd49922954155ab7b0942694bea4ce44661d9a8736c68a8301555193945090927fa66cc928b5edb82af9bd49922954155ab7b0942694bea4ce44661d9a8736c68b909101906108f59082612378565b506080820151600482015560a090910151600591820155805460010190557fa5ed9e6226c584326505694539c95cb0e3238ae09bcda5a65c00bbfdab1c66628188604051610944929190612438565b60405180910390a198975050505050505050565b600154604051630935e01b60e21b81523360048201526001600160a01b03909116906324d7806c90602401602060405180830381865afa1580156109a0573d6000803e3d6000fd5b505050506040513d601f19601f820116820180604052508101906109c49190612480565b6109fe5760405162461bcd60e51b815260206004820152600b60248201526a27b7363c9030b236b4b71760a91b60448201526064016104bd565b4260078681548110610a1257610a12612290565b90600052602060002090600602016004015411610a685760405162461bcd60e51b81526020600482015260146024820152731d185cdac8185b1c9958591e481cdd185c9d195960621b60448201526064016104bd565b6000835111610a895760405162461bcd60e51b81526004016104bd906122cf565b6005548510610ac95760405162461bcd60e51b815260206004820152600c60248201526b696e76616c6964207461736b60a01b60448201526064016104bd565b8360078681548110610add57610add612290565b9060005260206000209060060201600201819055508260078681548110610b0657610b06612290565b90600052602060002090600602016003019081610b239190612378565b508160078681548110610b3857610b38612290565b9060005260206000209060060201600401819055508060078681548110610b6157610b61612290565b9060005260206000209060060201600501819055507f126a0ea5197c062eb92c789989294eb8d2aef31cf41fd012da26dfab98b29a168584604051610ba7929190612438565b60405180910390a15050505050565b60096020528160005260406000208181548110610bd257600080fd5b90600052602060002001600091509150505481565b60085460ff1615610c9d5760015460405163288c314960e21b81523360048201526001600160a01b039091169063a230c52490602401602060405180830381865afa158015610c3a573d6000803e3d6000fd5b505050506040513d601f19601f82011682018060405250810190610c5e9190612480565b610c9d5760405162461bcd60e51b815260206004820152601060248201526f4f6e6c792044414f206d656d6265727360801b60448201526064016104bd565b6000838152600a60209081526040808320338085529252822054600b8054879492908110610ccd57610ccd612290565b60009182526020909120600360049092020181015460ff1690811115610cf557610cf5612079565b816003811115610d0757610d07612079565b14610d25576040516328992a5560e21b815260040160405180910390fd5b610d308686866119a4565b5050600c54604051633ad3b04160e01b81526001600160a01b039091169150633ad3b04190610d6890600090369033906004016124a2565b600060405180830381600087803b158015610d8257600080fd5b505af1158015610d96573d6000803e3d6000fd5b50505050505050565b60078181548110610daf57600080fd5b600091825260209091206006909102018054600182015460028301546003840180549395506001600160a01b03909216939092909190610dee906122ef565b80601f0160208091040260200160405190810160405280929190818152602001828054610e1a906122ef565b8015610e675780601f10610e3c57610100808354040283529160200191610e67565b820191906000526020600020905b815481529060010190602001808311610e4a57829003601f168201915b5050505050908060040154908060050154905086565b6004805460405163235883e360e01b815230928101929092526000916101009091046001600160a01b03169063235883e390602401602060405180830381865afa158015610ecf573d6000803e3d6000fd5b505050506040513d601f19601f82011682018060405250810190610ef391906124e3565b905090565b6000818152600a602090815260408083206001600160a01b0386168452909152812054600b8054600392908110610f3157610f31612290565b60009182526020909120600360049092020181015460ff1690811115610f5957610f59612079565b1490505b92915050565b600081815260096020908152604091829020805483518184028101840190945280845260609392830182828015610fb957602002820191906000526020600020905b815481526020019060010190808311610fa5575b50505050509050919050565b600d546001600160a01b0316336001600160a01b031614610ff957604051630e8cc36b60e21b815260040160405180910390fd5b600c80546001600160a01b0319166001600160a01b0383161790556040805163084c71a360e21b815290517f3ef34c117b493311a9ea61dff2d101d6bdc33062c190cb30ffbb908b09a2b494913091632131c68c916004808201926020929091908290030181865afa158015611073573d6000803e3d6000fd5b505050506040513d601f19601f8201168201806040525081019061109791906124e3565b604080516001600160a01b03928316815291841660208301520160405180910390a150565b600b81815481106110cc57600080fd5b6000918252602090912060049091020180546001820180546001600160a01b039092169350906110fb906122ef565b80601f0160208091040260200160405190810160405280929190818152602001828054611127906122ef565b80156111745780601f1061114957610100808354040283529160200191611174565b820191906000526020600020905b81548152906001019060200180831161115757829003601f168201915b50505050600283015460039093015491929160ff16905084565b6000828152600a602090815260408083206001600160a01b0385168452909152812054600b805490919081106111c6576111c6612290565b600091825260209091206004909102016003015460ff169392505050565b600154604051630935e01b60e21b81523360048201526000916001600160a01b0316906324d7806c90602401602060405180830381865afa15801561122d573d6000803e3d6000fd5b505050506040513d601f19601f820116820180604052508101906112519190612480565b61128b5760405162461bcd60e51b815260206004820152600b60248201526a27b7363c9030b236b4b71760a91b60448201526064016104bd565b4282116112aa5760405162461bcd60e51b81526004016104bd906122a6565b60008451116112cb5760405162461bcd60e51b81526004016104bd906122cf565b60006112d660055490565b6040805160c0810182524281523360208201908152918101898152606082018981526080830189905260a083018890526007805460018101825560009190915283517fa66cc928b5edb82af9bd49922954155ab7b0942694bea4ce44661d9a8736c688600690920291820190815594517fa66cc928b5edb82af9bd49922954155ab7b0942694bea4ce44661d9a8736c689820180546001600160a01b0319166001600160a01b0390921691909117905591517fa66cc928b5edb82af9bd49922954155ab7b0942694bea4ce44661d9a8736c68a8301555193945090927fa66cc928b5edb82af9bd49922954155ab7b0942694bea4ce44661d9a8736c68b909101906113e19082612378565b506080820151600482015560a090910151600591820155805460010190557fa5ed9e6226c584326505694539c95cb0e3238ae09bcda5a65c00bbfdab1c66628186604051611430929190612438565b60405180910390a195945050505050565b6000828152600a602090815260408083206001600160a01b0385168452909152902054600b805484928492600292909190811061148057611480612290565b60009182526020909120600360049092020181015460ff16908111156114a8576114a8612079565b8160038111156114ba576114ba612079565b146114d8576040516328992a5560e21b815260040160405180910390fd5b84336001600160a01b0316600782815481106114f6576114f6612290565b60009182526020909120600160069092020101546001600160a01b0316146115505760405162461bcd60e51b815260206004820152600d60248201526c27b7363c9031b932b0ba37b91760991b60448201526064016104bd565b426007878154811061156457611564612290565b906000526020600020906006020160040154106115b55760405162461bcd60e51b815260206004820152600f60248201526e139bdd081cdd185c9d1959081e595d608a1b60448201526064016104bd565b42600787815481106115c9576115c9612290565b9060005260206000209060060201600501541161161d5760405162461bcd60e51b8152602060048201526012602482015271151a19481d185cdac81a185cc8195b99195960721b60448201526064016104bd565b6000868152600a602090815260408083206001600160a01b0389168452909152902054600b805460039290811061165657611656612290565b906000526020600020906004020160030160006101000a81548160ff0219169083600381111561168857611688612079565b02179055506000868152600a602090815260408083206001600160a01b0389168452909152902054600b805442929081106116c5576116c5612290565b60009182526020909120600260049092020101556001546001600160a01b03166001600160a01b031663483948736040518163ffffffff1660e01b8152600401602060405180830381865afa158015611722573d6000803e3d6000fd5b505050506040513d601f19601f8201168201806040525081019061174691906124e3565b604051635cad6fe760e11b8152600481018890526001600160a01b038781166024830152919091169063b95adfce90604401600060405180830381600087803b15801561179257600080fd5b505af11580156117a6573d6000803e3d6000fd5b5050604080518981526001600160a01b03891660208201527fc923846dc69de8ab93cf9ea85e31a6e1ba93bd70bf0cec92b2c98b8f4b4485da935001905060405180910390a1505050505050565b6000828152600a602090815260408083206001600160a01b0385168452909152812054600b8054909190811061182c5761182c612290565b906000526020600020906004020160020154905092915050565b6118886040518060c001604052806000815260200160006001600160a01b03168152602001600081526020016060815260200160008152602001600081525090565b6007828154811061189b5761189b612290565b90600052602060002090600602016040518060c0016040529081600082015481526020016001820160009054906101000a90046001600160a01b03166001600160a01b03166001600160a01b0316815260200160028201548152602001600382018054611907906122ef565b80601f0160208091040260200160405190810160405280929190818152602001828054611933906122ef565b80156119805780601f1061195557610100808354040283529160200191611980565b820191906000526020600020905b81548152906001019060200180831161196357829003601f168201915b50505050508152602001600482015481526020016005820154815250509050919050565b60085460ff1615611a5a5760015460405163288c314960e21b81523360048201526001600160a01b039091169063a230c52490602401602060405180830381865afa1580156119f7573d6000803e3d6000fd5b505050506040513d601f19601f82011682018060405250810190611a1b9190612480565b611a5a5760405162461bcd60e51b815260206004820152601060248201526f4f6e6c792044414f206d656d6265727360801b60448201526064016104bd565b6000838152600a60209081526040808320338085529252822054600b8054879492908110611a8a57611a8a612290565b60009182526020909120600360049092020181015460ff1690811115611ab257611ab2612079565b816003811115611ac457611ac4612079565b14611ae2576040516328992a5560e21b815260040160405180910390fd5b4260078781548110611af657611af6612290565b90600052602060002090600602016004015410611b475760405162461bcd60e51b815260206004820152600f60248201526e139bdd081cdd185c9d1959081e595d608a1b60448201526064016104bd565b4260078781548110611b5b57611b5b612290565b90600052602060002090600602016005015411611baf5760405162461bcd60e51b8152602060048201526012602482015271151a19481d185cdac81a185cc8195b99195960721b60448201526064016104bd565b6000611bba60065490565b9050600b6040518060800160405280336001600160a01b0316815260200188888080601f01602080910402602001604051908101604052809392919081815260200183838082843760009201829052509385525050506020820152604001600290528154600180820184556000938452602093849020835160049093020180546001600160a01b0319166001600160a01b03909316929092178255928201519192909190820190611c6b9082612378565b506040820151816002015560608201518160030160006101000a81548160ff02191690836003811115611ca057611ca0612079565b021790555050506000878152600960209081526040808320805460018101825590845282842001849055898352600a82528083203384529091529020819055611ced600680546001019055565b60408051888152602081018390527f732b29041dfc9fd7a86ce0ca090ecaabdc1a602620a65264047baf43d8ba31be910160405180910390a150505050505050565b600060208284031215611d4157600080fd5b5035919050565b6001600160a01b0381168114611d5d57600080fd5b50565b634e487b7160e01b600052604160045260246000fd5b604051601f8201601f1916810167ffffffffffffffff81118282101715611d9f57611d9f611d60565b604052919050565b600082601f830112611db857600080fd5b813567ffffffffffffffff811115611dd257611dd2611d60565b611de5601f8201601f1916602001611d76565b818152846020838601011115611dfa57600080fd5b816020850160208301376000918101602001919091529392505050565b600080600080600060a08688031215611e2f57600080fd5b8535611e3a81611d48565b945060208601359350604086013567ffffffffffffffff811115611e5d57600080fd5b611e6988828901611da7565b9598949750949560608101359550608001359392505050565b600080600080600060a08688031215611e9a57600080fd5b8535945060208601359350604086013567ffffffffffffffff811115611e5d57600080fd5b60008060408385031215611ed257600080fd5b50508035926020909101359150565b600080600060408486031215611ef657600080fd5b83359250602084013567ffffffffffffffff80821115611f1557600080fd5b818601915086601f830112611f2957600080fd5b813581811115611f3857600080fd5b876020828501011115611f4a57600080fd5b6020830194508093505050509250925092565b6000815180845260005b81811015611f8357602081850181015186830182015201611f67565b506000602082860101526020601f19601f83011685010191505092915050565b86815260018060a01b038616602082015284604082015260c060608201526000611fd060c0830186611f5d565b60808301949094525060a00152949350505050565b60008060408385031215611ff857600080fd5b823561200381611d48565b946020939093013593505050565b6020808252825182820181905260009190848201906040850190845b818110156120495783518352928401929184019160010161202d565b50909695505050505050565b60006020828403121561206757600080fd5b813561207281611d48565b9392505050565b634e487b7160e01b600052602160045260246000fd5b600481106120ad57634e487b7160e01b600052602160045260246000fd5b9052565b6001600160a01b03851681526080602082018190526000906120d590830186611f5d565b90508360408301526120ea606083018461208f565b95945050505050565b6000806040838503121561210657600080fd5b82359150602083013561211881611d48565b809150509250929050565b60208101610f5d828461208f565b6000806000806080858703121561214757600080fd5b84359350602085013567ffffffffffffffff81111561216557600080fd5b61217187828801611da7565b949794965050505060408301359260600135919050565b602081528151602082015260018060a01b036020830151166040820152604082015160608201526000606083015160c060808401526121ca60e0840182611f5d565b9050608084015160a084015260a084015160c08401528091505092915050565b600060208083850312156121fd57600080fd5b825167ffffffffffffffff8082111561221557600080fd5b818501915085601f83011261222957600080fd5b81518181111561223b5761223b611d60565b8060051b915061224c848301611d76565b818152918301840191848101908884111561226657600080fd5b938501935b838510156122845784518252938501939085019061226b565b98975050505050505050565b634e487b7160e01b600052603260045260246000fd5b6020808252600f908201526e496e76616c696420656e644461746560881b604082015260600190565b6020808252600690820152654e6f2055524960d01b604082015260600190565b600181811c9082168061230357607f821691505b60208210810361232357634e487b7160e01b600052602260045260246000fd5b50919050565b601f82111561237357600081815260208120601f850160051c810160208610156123505750805b601f850160051c820191505b8181101561236f5782815560010161235c565b5050505b505050565b815167ffffffffffffffff81111561239257612392611d60565b6123a6816123a084546122ef565b84612329565b602080601f8311600181146123db57600084156123c35750858301515b600019600386901b1c1916600185901b17855561236f565b600085815260208120601f198616915b8281101561240a578886015182559484019460019091019084016123eb565b50858210156124285787850151600019600388901b60f8161c191681555b5050505050600190811b01905550565b8281526040602082015260006124516040830184611f5d565b949350505050565b60006001820161247957634e487b7160e01b600052601160045260246000fd5b5060010190565b60006020828403121561249257600080fd5b8151801515811461207257600080fd5b6040815282604082015282846060830137600060608483018101919091526001600160a01b03929092166020820152601f909201601f191690910101919050565b6000602082840312156124f557600080fd5b815161207281611d4856fea2646970667358221220117b000609f9e969e789c5d20bb2038ca79fb6e4ed96236b07b4953c1e907b2e64736f6c63430008130033",
    "linkReferences": {}
  },
  "methodIdentifiers": {
    "changeInUseLocalRep(address)": "ab440d65",
    "create(uint256,string,uint256,uint256)": "bd45a0a9",
    "createBy(address,uint256,string,uint256,uint256)": "0bb75b45",
    "currentReputationAddr()": "4b749e9b",
    "daoAddress()": "2131c68c",
    "daoMembersOnly()": "40962186",
    "deployer()": "d5f39488",
    "editTask(uint256,uint256,string,uint256,uint256)": "2b086648",
    "finalize(uint256)": "05261aea",
    "finalizeFor(uint256,address)": "daf91137",
    "getById(uint256)": "f4f4d237",
    "getCompletionTime(uint256,address)": "e31c007f",
    "getStatusPerSubmitter(uint256,address)": "b206b569",
    "getSubmissionIdPerTaskAndUser(uint256,address)": "e13de22b",
    "getSubmissionIdsPerTask(uint256)": "a41e603f",
    "hasCompletedTheTask(address,uint256)": "973cdc78",
    "idCounter()": "eb08ab28",
    "isActive()": "22f3e2d4",
    "lastReputationAddr()": "86d113c0",
    "moduleId()": "a1308f27",
    "owner()": "8da5cb5b",
    "pluginId()": "2fe7e441",
    "pluginRegistry()": "41dcea91",
    "setPluginId(uint256)": "02a4dca0",
    "submissionIds()": "599081f9",
    "submissions(uint256)": "ad73349e",
    "submit(uint256,string)": "5d63f6c6",
    "take(uint256)": "4fd9efc4",
    "taskSubmissions(uint256,uint256)": "53eea875",
    "tasks(uint256)": "8d977672"
  },
  "id": 86
}