{
  "abi": [
    {
      "inputs": [
        {
          "internalType": "address",
          "name": "trustedForwarder",
          "type": "address"
        },
        {
          "internalType": "address",
          "name": "_autIDAddr",
          "type": "address"
        },
        {
          "internalType": "address",
          "name": "_daoTypes",
          "type": "address"
        },
        {
          "internalType": "address",
          "name": "_daoExpanderFactory",
          "type": "address"
        },
        {
          "internalType": "address",
          "name": "_pluginRegistryAddr",
          "type": "address"
        }
      ],
      "stateMutability": "nonpayable",
      "type": "constructor"
    },
    {
      "anonymous": false,
      "inputs": [
        {
          "indexed": false,
          "internalType": "address",
          "name": "newDAOExpander",
          "type": "address"
        }
      ],
      "name": "DAOExpanderDeployed",
      "type": "event"
    },
    {
      "inputs": [],
      "name": "autIDAddr",
      "outputs": [
        {
          "internalType": "address",
          "name": "",
          "type": "address"
        }
      ],
      "stateMutability": "view",
      "type": "function"
    },
    {
      "inputs": [
        {
          "internalType": "uint256",
          "name": "",
          "type": "uint256"
        }
      ],
      "name": "daoExpanders",
      "outputs": [
        {
          "internalType": "address",
          "name": "",
          "type": "address"
        }
      ],
      "stateMutability": "view",
      "type": "function"
    },
    {
      "inputs": [],
      "name": "daoTypes",
      "outputs": [
        {
          "internalType": "contract IDAOTypes",
          "name": "",
          "type": "address"
        }
      ],
      "stateMutability": "view",
      "type": "function"
    },
    {
      "inputs": [
        {
          "internalType": "uint256",
          "name": "daoType",
          "type": "uint256"
        },
        {
          "internalType": "address",
          "name": "daoAddr",
          "type": "address"
        },
        {
          "internalType": "uint256",
          "name": "market",
          "type": "uint256"
        },
        {
          "internalType": "string",
          "name": "metadata",
          "type": "string"
        },
        {
          "internalType": "uint256",
          "name": "commitment",
          "type": "uint256"
        }
      ],
      "name": "deployDAOExpander",
      "outputs": [
        {
          "internalType": "address",
          "name": "_daoExpanderAddress",
          "type": "address"
        }
      ],
      "stateMutability": "nonpayable",
      "type": "function"
    },
    {
      "inputs": [],
      "name": "getDAOExpanders",
      "outputs": [
        {
          "internalType": "address[]",
          "name": "",
          "type": "address[]"
        }
      ],
      "stateMutability": "view",
      "type": "function"
    },
    {
      "inputs": [
        {
          "internalType": "address",
          "name": "deployer",
          "type": "address"
        }
      ],
      "name": "getDAOExpandersByDeployer",
      "outputs": [
        {
          "internalType": "address[]",
          "name": "",
          "type": "address[]"
        }
      ],
      "stateMutability": "view",
      "type": "function"
    },
    {
      "inputs": [],
      "name": "getTrustedForwarder",
      "outputs": [
        {
          "internalType": "address",
          "name": "forwarder",
          "type": "address"
        }
      ],
      "stateMutability": "view",
      "type": "function"
    },
    {
      "inputs": [
        {
          "internalType": "address",
          "name": "forwarder",
          "type": "address"
        }
      ],
      "name": "isTrustedForwarder",
      "outputs": [
        {
          "internalType": "bool",
          "name": "",
          "type": "bool"
        }
      ],
      "stateMutability": "view",
      "type": "function"
    },
    {
      "inputs": [],
      "name": "pluginRegistryAddr",
      "outputs": [
        {
          "internalType": "address",
          "name": "",
          "type": "address"
        }
      ],
      "stateMutability": "view",
      "type": "function"
    }
  ],
  "bytecode": {
    "object": "0x608060405234801561001057600080fd5b50604051610c57380380610c5783398101604081905261002f91610220565b6001600160a01b03841661008a5760405162461bcd60e51b815260206004820152601860248201527f41757449442041646472657373206e6f7420706173736564000000000000000060448201526064015b60405180910390fd5b6001600160a01b0383166100e05760405162461bcd60e51b815260206004820152601b60248201527f44414f54797065732041646472657373206e6f742070617373656400000000006044820152606401610081565b6001600160a01b0382166101445760405162461bcd60e51b815260206004820152602560248201527f44414f457870616e646572466163746f72792061646472657373206e6f742070604482015264185cdcd95960da1b6064820152608401610081565b6001600160a01b0381166101a45760405162461bcd60e51b815260206004820152602160248201527f506c7567696e52656769737472792061646472657373206e6f742070617373656044820152601960fa1b6064820152608401610081565b600380546001600160a01b038681166001600160a01b031992831617909255600480548484169083161790556005805486841690831617905560068054858416908316179055600080549091169187169190911790555050505050610285565b80516001600160a01b038116811461021b57600080fd5b919050565b600080600080600060a0868803121561023857600080fd5b61024186610204565b945061024f60208701610204565b935061025d60408701610204565b925061026b60608701610204565b915061027960808701610204565b90509295509295909350565b6109c3806102946000396000f3fe608060405234801561001057600080fd5b50600436106100935760003560e01c8063b197e31411610066578063b197e3141461012d578063ce1b815f14610140578063d45e10a614610151578063d8a2ecf714610159578063de90ccca1461016c57600080fd5b80630f232b4314610098578063572b6c05146100c85780636ed246c3146100fa5780639b2564271461010d575b600080fd5b6100ab6100a6366004610787565b61017f565b6040516001600160a01b0390911681526020015b60405180910390f35b6100ea6100d63660046107b8565b6000546001600160a01b0391821691161490565b60405190151581526020016100bf565b6100ab6101083660046107dc565b6101a9565b61012061011b3660046107b8565b61067b565b6040516100bf919061087d565b6005546100ab906001600160a01b031681565b6000546001600160a01b03166100ab565b6101206106f1565b6004546100ab906001600160a01b031681565b6003546100ab906001600160a01b031681565b6002818154811061018f57600080fd5b6000918252602090912001546001600160a01b0316905081565b600554604051634bcd303f60e11b81526004810188905260009182916001600160a01b039091169063979a607e90602401602060405180830381865afa1580156101f7573d6000803e3d6000fd5b505050506040513d601f19601f8201168201806040525081019061021b91906108ca565b6001600160a01b03160361026b5760405162461bcd60e51b8152602060048201526012602482015271111053c8151e5c19481a5b98dbdc9c9958dd60721b60448201526064015b60405180910390fd5b6001600160a01b0386166102b75760405162461bcd60e51b81526020600482015260136024820152724d697373696e672044414f204164647265737360681b6044820152606401610262565b6000851180156102c75750600485105b6103045760405162461bcd60e51b815260206004820152600e60248201526d13585c9ad95d081a5b9d985b1a5960921b6044820152606401610262565b826103485760405162461bcd60e51b8152602060048201526014602482015273135a5cdcda5b99c813595d1859185d184815549360621b6044820152606401610262565b6000821180156103585750600b82105b6103995760405162461bcd60e51b8152602060048201526012602482015271125b9d985b1a590818dbdb5b5a5d1b595b9d60721b6044820152606401610262565b600554604051634bcd303f60e11b8152600481018990526001600160a01b039091169063979a607e90602401602060405180830381865afa1580156103e2573d6000803e3d6000fd5b505050506040513d601f19601f8201168201806040525081019061040691906108ca565b6001600160a01b03166339ac7a088761041d610753565b6040516001600160e01b031960e085901b1681526001600160a01b03928316600482015291166024820152604401602060405180830381865afa158015610468573d6000803e3d6000fd5b505050506040513d601f19601f8201168201806040525081019061048c91906108e7565b6104d85760405162461bcd60e51b815260206004820181905260248201527f41757449443a204e6f742061206d656d626572206f6620746869732044414f216044820152606401610262565b6006546000906001600160a01b0316633270bdc26104f4610753565b600360009054906101000a90046001600160a01b0316600560009054906101000a90046001600160a01b03168c8c8c8c8c8c600460009054906101000a90046001600160a01b03166040518b63ffffffff1660e01b81526004016105619a99989796959493929190610909565b6020604051808303816000875af1158015610580573d6000803e3d6000fd5b505050506040513d601f19601f820116820180604052508101906105a491906108ca565b600280546001808201835560009283527f405787fa12a823e0f2b7631cc41b3ba8828b3321ca811111fa75cd3aa3bb5ace90910180546001600160a01b0319166001600160a01b0385161790559192506105fc610753565b6001600160a01b039081168252602080830193909352604091820160009081208054600181018255908252908490200180546001600160a01b031916918516918217905590519081527ffe5e81e1682bfa4f2dcedc373173eeed621c59eaf7615cbde3c827ef18460a43910160405180910390a1979650505050505050565b6001600160a01b0381166000908152600160209081526040918290208054835181840281018401909452808452606093928301828280156106e557602002820191906000526020600020905b81546001600160a01b031681526001909101906020018083116106c7575b50505050509050919050565b6060600280548060200260200160405190810160405280929190818152602001828054801561074957602002820191906000526020600020905b81546001600160a01b0316815260019091019060200180831161072b575b5050505050905090565b60006014361080159061077057506000546001600160a01b031633145b15610782575060131936013560601c90565b503390565b60006020828403121561079957600080fd5b5035919050565b6001600160a01b03811681146107b557600080fd5b50565b6000602082840312156107ca57600080fd5b81356107d5816107a0565b9392505050565b60008060008060008060a087890312156107f557600080fd5b863595506020870135610807816107a0565b945060408701359350606087013567ffffffffffffffff8082111561082b57600080fd5b818901915089601f83011261083f57600080fd5b81358181111561084e57600080fd5b8a602082850101111561086057600080fd5b602083019550809450505050608087013590509295509295509295565b6020808252825182820181905260009190848201906040850190845b818110156108be5783516001600160a01b031683529284019291840191600101610899565b50909695505050505050565b6000602082840312156108dc57600080fd5b81516107d5816107a0565b6000602082840312156108f957600080fd5b815180151581146107d557600080fd5b6001600160a01b038b811682528a81166020830152898116604083015260608201899052878116608083015260a0820187905261012060c08301819052820185905260009061014090868883860137600084880183015260e084019590955292909316610100820152601f909301601f19169092019091019897505050505050505056fea2646970667358221220815272afefe23e9159aa6de8285880f057cae057292bb898f1952471d6199d1a64736f6c63430008130033",
    "linkReferences": {}
  },
  "methodIdentifiers": {
    "autIDAddr()": "de90ccca",
    "daoExpanders(uint256)": "0f232b43",
    "daoTypes()": "b197e314",
    "deployDAOExpander(uint256,address,uint256,string,uint256)": "6ed246c3",
    "getDAOExpanders()": "d45e10a6",
    "getDAOExpandersByDeployer(address)": "9b256427",
    "getTrustedForwarder()": "ce1b815f",
    "isTrustedForwarder(address)": "572b6c05",
    "pluginRegistryAddr()": "d8a2ecf7"
  },
  "id": 39
}