{
  "abi": [
    {
      "inputs": [
        {
          "internalType": "address",
          "name": "dao",
          "type": "address"
        },
        {
          "internalType": "bool",
          "name": "membersOnly",
          "type": "bool"
        }
      ],
      "stateMutability": "nonpayable",
      "type": "constructor"
    },
    {
      "inputs": [],
      "name": "FunctionInvalidAtThisStage",
      "type": "error"
    },
    {
      "inputs": [],
      "name": "FunctionNotImplemented",
      "type": "error"
    },
    {
      "anonymous": false,
      "inputs": [
        {
          "indexed": false,
          "internalType": "uint256",
          "name": "taskID",
          "type": "uint256"
        },
        {
          "indexed": false,
          "internalType": "string",
          "name": "uri",
          "type": "string"
        }
      ],
      "name": "TaskCreated",
      "type": "event"
    },
    {
      "anonymous": false,
      "inputs": [
        {
          "indexed": false,
          "internalType": "uint256",
          "name": "taskID",
          "type": "uint256"
        },
        {
          "indexed": false,
          "internalType": "string",
          "name": "uri",
          "type": "string"
        }
      ],
      "name": "TaskEdited",
      "type": "event"
    },
    {
      "anonymous": false,
      "inputs": [
        {
          "indexed": false,
          "internalType": "uint256",
          "name": "taskID",
          "type": "uint256"
        },
        {
          "indexed": false,
          "internalType": "address",
          "name": "taker",
          "type": "address"
        }
      ],
      "name": "TaskFinalized",
      "type": "event"
    },
    {
      "anonymous": false,
      "inputs": [
        {
          "indexed": false,
          "internalType": "uint256",
          "name": "taskID",
          "type": "uint256"
        },
        {
          "indexed": false,
          "internalType": "uint256",
          "name": "submissionId",
          "type": "uint256"
        }
      ],
      "name": "TaskSubmitted",
      "type": "event"
    },
    {
      "anonymous": false,
      "inputs": [
        {
          "indexed": false,
          "internalType": "uint256",
          "name": "taskID",
          "type": "uint256"
        },
        {
          "indexed": false,
          "internalType": "address",
          "name": "taker",
          "type": "address"
        }
      ],
      "name": "TaskTaken",
      "type": "event"
    },
    {
      "inputs": [
        {
          "internalType": "uint256",
          "name": "role",
          "type": "uint256"
        },
        {
          "internalType": "string",
          "name": "uri",
          "type": "string"
        },
        {
          "internalType": "uint256",
          "name": "startDate",
          "type": "uint256"
        },
        {
          "internalType": "uint256",
          "name": "endDate",
          "type": "uint256"
        }
      ],
      "name": "create",
      "outputs": [
        {
          "internalType": "uint256",
          "name": "",
          "type": "uint256"
        }
      ],
      "stateMutability": "nonpayable",
      "type": "function"
    },
    {
      "inputs": [
        {
          "internalType": "address",
          "name": "creator",
          "type": "address"
        },
        {
          "internalType": "uint256",
          "name": "role",
          "type": "uint256"
        },
        {
          "internalType": "string",
          "name": "uri",
          "type": "string"
        },
        {
          "internalType": "uint256",
          "name": "startDate",
          "type": "uint256"
        },
        {
          "internalType": "uint256",
          "name": "endDate",
          "type": "uint256"
        }
      ],
      "name": "createBy",
      "outputs": [
        {
          "internalType": "uint256",
          "name": "",
          "type": "uint256"
        }
      ],
      "stateMutability": "nonpayable",
      "type": "function"
    },
    {
      "inputs": [],
      "name": "daoMembersOnly",
      "outputs": [
        {
          "internalType": "bool",
          "name": "",
          "type": "bool"
        }
      ],
      "stateMutability": "view",
      "type": "function"
    },
    {
      "inputs": [],
      "name": "deployer",
      "outputs": [
        {
          "internalType": "address",
          "name": "",
          "type": "address"
        }
      ],
      "stateMutability": "view",
      "type": "function"
    },
    {
      "inputs": [
        {
          "internalType": "uint256",
          "name": "taskId",
          "type": "uint256"
        },
        {
          "internalType": "uint256",
          "name": "role",
          "type": "uint256"
        },
        {
          "internalType": "string",
          "name": "uri",
          "type": "string"
        },
        {
          "internalType": "uint256",
          "name": "startDate",
          "type": "uint256"
        },
        {
          "internalType": "uint256",
          "name": "endDate",
          "type": "uint256"
        }
      ],
      "name": "editTask",
      "outputs": [],
      "stateMutability": "nonpayable",
      "type": "function"
    },
    {
      "inputs": [
        {
          "internalType": "uint256",
          "name": "taskId",
          "type": "uint256"
        }
      ],
      "name": "finalize",
      "outputs": [],
      "stateMutability": "nonpayable",
      "type": "function"
    },
    {
      "inputs": [
        {
          "internalType": "uint256",
          "name": "taskId",
          "type": "uint256"
        },
        {
          "internalType": "address",
          "name": "submitter",
          "type": "address"
        }
      ],
      "name": "finalizeFor",
      "outputs": [],
      "stateMutability": "nonpayable",
      "type": "function"
    },
    {
      "inputs": [
        {
          "internalType": "uint256",
          "name": "taskId",
          "type": "uint256"
        }
      ],
      "name": "getById",
      "outputs": [
        {
          "components": [
            {
              "internalType": "uint256",
              "name": "createdOn",
              "type": "uint256"
            },
            {
              "internalType": "address",
              "name": "creator",
              "type": "address"
            },
            {
              "internalType": "uint256",
              "name": "role",
              "type": "uint256"
            },
            {
              "internalType": "string",
              "name": "metadata",
              "type": "string"
            },
            {
              "internalType": "uint256",
              "name": "startDate",
              "type": "uint256"
            },
            {
              "internalType": "uint256",
              "name": "endDate",
              "type": "uint256"
            }
          ],
          "internalType": "struct TasksModule.Task",
          "name": "",
          "type": "tuple"
        }
      ],
      "stateMutability": "view",
      "type": "function"
    },
    {
      "inputs": [
        {
          "internalType": "uint256",
          "name": "taskId",
          "type": "uint256"
        },
        {
          "internalType": "address",
          "name": "user",
          "type": "address"
        }
      ],
      "name": "getCompletionTime",
      "outputs": [
        {
          "internalType": "uint256",
          "name": "",
          "type": "uint256"
        }
      ],
      "stateMutability": "view",
      "type": "function"
    },
    {
      "inputs": [
        {
          "internalType": "uint256",
          "name": "taskId",
          "type": "uint256"
        },
        {
          "internalType": "address",
          "name": "submitter",
          "type": "address"
        }
      ],
      "name": "getStatusPerSubmitter",
      "outputs": [
        {
          "internalType": "enum TasksModule.TaskStatus",
          "name": "",
          "type": "uint8"
        }
      ],
      "stateMutability": "view",
      "type": "function"
    },
    {
      "inputs": [
        {
          "internalType": "uint256",
          "name": "taskId",
          "type": "uint256"
        },
        {
          "internalType": "address",
          "name": "submitter",
          "type": "address"
        }
      ],
      "name": "getSubmissionIdPerTaskAndUser",
      "outputs": [
        {
          "internalType": "uint256",
          "name": "",
          "type": "uint256"
        }
      ],
      "stateMutability": "view",
      "type": "function"
    },
    {
      "inputs": [
        {
          "internalType": "uint256",
          "name": "taskId",
          "type": "uint256"
        }
      ],
      "name": "getSubmissionIdsPerTask",
      "outputs": [
        {
          "internalType": "uint256[]",
          "name": "",
          "type": "uint256[]"
        }
      ],
      "stateMutability": "view",
      "type": "function"
    },
    {
      "inputs": [
        {
          "internalType": "address",
          "name": "user",
          "type": "address"
        },
        {
          "internalType": "uint256",
          "name": "taskId",
          "type": "uint256"
        }
      ],
      "name": "hasCompletedTheTask",
      "outputs": [
        {
          "internalType": "bool",
          "name": "",
          "type": "bool"
        }
      ],
      "stateMutability": "view",
      "type": "function"
    },
    {
      "inputs": [],
      "name": "idCounter",
      "outputs": [
        {
          "internalType": "uint256",
          "name": "_value",
          "type": "uint256"
        }
      ],
      "stateMutability": "view",
      "type": "function"
    },
    {
      "inputs": [],
      "name": "isActive",
      "outputs": [
        {
          "internalType": "bool",
          "name": "",
          "type": "bool"
        }
      ],
      "stateMutability": "view",
      "type": "function"
    },
    {
      "inputs": [],
      "name": "moduleId",
      "outputs": [
        {
          "internalType": "uint256",
          "name": "",
          "type": "uint256"
        }
      ],
      "stateMutability": "view",
      "type": "function"
    },
    {
      "inputs": [],
      "name": "novaAddress",
      "outputs": [
        {
          "internalType": "address",
          "name": "",
          "type": "address"
        }
      ],
      "stateMutability": "view",
      "type": "function"
    },
    {
      "inputs": [],
      "name": "owner",
      "outputs": [
        {
          "internalType": "address",
          "name": "",
          "type": "address"
        }
      ],
      "stateMutability": "view",
      "type": "function"
    },
    {
      "inputs": [],
      "name": "pluginId",
      "outputs": [
        {
          "internalType": "uint256",
          "name": "",
          "type": "uint256"
        }
      ],
      "stateMutability": "view",
      "type": "function"
    },
    {
      "inputs": [],
      "name": "pluginRegistry",
      "outputs": [
        {
          "internalType": "address",
          "name": "",
          "type": "address"
        }
      ],
      "stateMutability": "view",
      "type": "function"
    },
    {
      "inputs": [
        {
          "internalType": "uint256",
          "name": "tokenId",
          "type": "uint256"
        }
      ],
      "name": "setPluginId",
      "outputs": [],
      "stateMutability": "nonpayable",
      "type": "function"
    },
    {
      "inputs": [],
      "name": "submissionIds",
      "outputs": [
        {
          "internalType": "uint256",
          "name": "_value",
          "type": "uint256"
        }
      ],
      "stateMutability": "view",
      "type": "function"
    },
    {
      "inputs": [
        {
          "internalType": "uint256",
          "name": "",
          "type": "uint256"
        }
      ],
      "name": "submissions",
      "outputs": [
        {
          "internalType": "address",
          "name": "submitter",
          "type": "address"
        },
        {
          "internalType": "string",
          "name": "submissionMetadata",
          "type": "string"
        },
        {
          "internalType": "uint256",
          "name": "completionTime",
          "type": "uint256"
        },
        {
          "internalType": "enum TasksModule.TaskStatus",
          "name": "status",
          "type": "uint8"
        }
      ],
      "stateMutability": "view",
      "type": "function"
    },
    {
      "inputs": [
        {
          "internalType": "uint256",
          "name": "taskId",
          "type": "uint256"
        },
        {
          "internalType": "string",
          "name": "submitionUrl",
          "type": "string"
        }
      ],
      "name": "submit",
      "outputs": [],
      "stateMutability": "nonpayable",
      "type": "function"
    },
    {
      "inputs": [
        {
          "internalType": "uint256",
          "name": "taskId",
          "type": "uint256"
        }
      ],
      "name": "take",
      "outputs": [],
      "stateMutability": "nonpayable",
      "type": "function"
    },
    {
      "inputs": [
        {
          "internalType": "uint256",
          "name": "",
          "type": "uint256"
        },
        {
          "internalType": "uint256",
          "name": "",
          "type": "uint256"
        }
      ],
      "name": "taskSubmissions",
      "outputs": [
        {
          "internalType": "uint256",
          "name": "",
          "type": "uint256"
        }
      ],
      "stateMutability": "view",
      "type": "function"
    },
    {
      "inputs": [
        {
          "internalType": "uint256",
          "name": "",
          "type": "uint256"
        }
      ],
      "name": "tasks",
      "outputs": [
        {
          "internalType": "uint256",
          "name": "createdOn",
          "type": "uint256"
        },
        {
          "internalType": "address",
          "name": "creator",
          "type": "address"
        },
        {
          "internalType": "uint256",
          "name": "role",
          "type": "uint256"
        },
        {
          "internalType": "string",
          "name": "metadata",
          "type": "string"
        },
        {
          "internalType": "uint256",
          "name": "startDate",
          "type": "uint256"
        },
        {
          "internalType": "uint256",
          "name": "endDate",
          "type": "uint256"
        }
      ],
      "stateMutability": "view",
      "type": "function"
    }
  ],
  "bytecode": {
    "object": "0x60806040523480156200001157600080fd5b506040516200263238038062002632833981016040819052620000349162000336565b81600081600160006101000a8154816001600160a01b0302191690836001600160a01b03160217905550816001600160a01b03166341dcea916040518163ffffffff1660e01b8152600401602060405180830381865afa1580156200009d573d6000803e3d6000fd5b505050506040513d601f19601f82011682018060405250810190620000c3919062000376565b600480546001600160a01b0392831661010002610100600160a81b0319909116179055600080546001600160a01b0319908116331782556003939093556040805160c08101825282815260208082018481528284018581528451928301909452848252606083019182526080830185905260a08301859052600780546001810182559552825160069095027fa66cc928b5edb82af9bd49922954155ab7b0942694bea4ce44661d9a8736c688810195865590517fa66cc928b5edb82af9bd49922954155ab7b0942694bea4ce44661d9a8736c689820180549190971697169690961790945590517fa66cc928b5edb82af9bd49922954155ab7b0942694bea4ce44661d9a8736c68a8501559151919350917fa66cc928b5edb82af9bd49922954155ab7b0942694bea4ce44661d9a8736c68b019062000203908262000440565b50608082810151600483015560a0909201516005909101556040805191820181526000808352815160208181018452828252840152908201819052600b919060608201528154600180820184556000938452602093849020835160049093020180546001600160a01b0319166001600160a01b0390931692909217825592820151919290919082019062000298908262000440565b506040820151816002015560608201518160030160006101000a81548160ff02191690836003811115620002d057620002d06200050c565b02179055505050620002e960056200031060201b60201c565b620002f8600680546001019055565b6008805460ff19169115159190911790555062000522565b80546001019055565b80516001600160a01b03811681146200033157600080fd5b919050565b600080604083850312156200034a57600080fd5b620003558362000319565b9150602083015180151581146200036b57600080fd5b809150509250929050565b6000602082840312156200038957600080fd5b620003948262000319565b9392505050565b634e487b7160e01b600052604160045260246000fd5b600181811c90821680620003c657607f821691505b602082108103620003e757634e487b7160e01b600052602260045260246000fd5b50919050565b601f8211156200043b57600081815260208120601f850160051c81016020861015620004165750805b601f850160051c820191505b81811015620004375782815560010162000422565b5050505b505050565b81516001600160401b038111156200045c576200045c6200039b565b62000474816200046d8454620003b1565b84620003ed565b602080601f831160018114620004ac5760008415620004935750858301515b600019600386901b1c1916600185901b17855562000437565b600085815260208120601f198616915b82811015620004dd57888601518255948401946001909101908401620004bc565b5085821015620004fc5787850151600019600388901b60f8161c191681555b5050505050600190811b01905550565b634e487b7160e01b600052602160045260246000fd5b61210080620005326000396000f3fe608060405234801561001057600080fd5b50600436106101a95760003560e01c80638d977672116100f9578063bd45a0a911610097578063e13de22b11610071578063e13de22b14610396578063e31c007f146103cc578063eb08ab28146103df578063f4f4d237146103e957600080fd5b8063bd45a0a91461035f578063d5f3948814610372578063daf911371461038357600080fd5b8063a1308f27116100d3578063a1308f27146102f3578063a41e603f146102fc578063ad73349e1461031c578063b206b5691461033f57600080fd5b80638d977672146102b35780638da5cb5b146102d8578063973cdc78146102e057600080fd5b8063409621861161016657806353eea8751161014057806353eea87514610272578063599081f9146102855780635d63f6c61461028f57806389f12ed9146102a257600080fd5b8063409621861461023557806341dcea91146102425780634fd9efc4146101c357600080fd5b806302a4dca0146101ae57806305261aea146101c35780630bb75b45146101d657806322f3e2d4146101fc5780632b086648146102195780632fe7e4411461022c575b600080fd5b6101c16101bc366004611957565b610409565b005b6101c16101d1366004611957565b610469565b6101e96101e4366004611a3f565b610482565b6040519081526020015b60405180910390f35b6004546102099060ff1681565b60405190151581526020016101f3565b6101c1610227366004611aaa565b6108f6565b6101e960025481565b6008546102099060ff1681565b60045461025a9061010090046001600160a01b031681565b6040516001600160a01b0390911681526020016101f3565b6101e9610280366004611ae7565b610b54565b6006546101e99081565b6101c161029d366004611b09565b610b85565b6001546001600160a01b031661025a565b6102c66102c1366004611957565b610f10565b6040516101f396959493929190611bcb565b61025a610fee565b6102096102ee366004611c0d565b611069565b6101e960035481565b61030f61030a366004611957565b6110d4565b6040516101f39190611c39565b61032f61032a366004611957565b611136565b6040516101f39493929190611cb5565b61035261034d366004611cf7565b611208565b6040516101f39190611d27565b6101e961036d366004611d35565b61125e565b6000546001600160a01b031661025a565b6101c1610391366004611cf7565b6114bb565b6101e96103a4366004611cf7565b6000918252600a602090815260408084206001600160a01b0393909316845291905290205490565b6101e96103da366004611cf7565b6117a7565b6005546101e99081565b6103fc6103f7366004611957565b6117f9565b6040516101f39190611d8c565b60045461010090046001600160a01b031633146104645760405162461bcd60e51b81526020600482015260146024820152734f6e6c7920706c7567696e20726567697374727960601b60448201526064015b60405180910390fd5b600255565b60405163ced4f63360e01b815260040160405180910390fd5b60048054600154604051632b948c3960e01b81526001600160a01b03918216938101939093526000928392610100900490911690632b948c3990602401600060405180830381865afa1580156104dc573d6000803e3d6000fd5b505050506040513d6000823e601f3d908101601f191682016040526105049190810190611dee565b90506000805b82518110156106fc5760025483828151811061052857610528611e94565b60200260200101510361053a57600191505b4285116105595760405162461bcd60e51b815260040161045b90611eaa565b600087511161057a5760405162461bcd60e51b815260040161045b90611ed3565b600061058560055490565b6040805160c0810182524281526001600160a01b038d8116602083019081529282018d8152606083018d8152608084018d905260a084018c90526007805460018101825560009190915284517fa66cc928b5edb82af9bd49922954155ab7b0942694bea4ce44661d9a8736c688600690920291820190815595517fa66cc928b5edb82af9bd49922954155ab7b0942694bea4ce44661d9a8736c689820180546001600160a01b031916919095161790935590517fa66cc928b5edb82af9bd49922954155ab7b0942694bea4ce44661d9a8736c68a8301555193945090927fa66cc928b5edb82af9bd49922954155ab7b0942694bea4ce44661d9a8736c68b909101906106919082611f7c565b506080820151600482015560a090910151600591820155805460010190557fa5ed9e6226c584326505694539c95cb0e3238ae09bcda5a65c00bbfdab1c666281896040516106e092919061203c565b60405180910390a19350806106f48161205d565b91505061050a565b508061073c5760405162461bcd60e51b815260206004820152600f60248201526e4f6e6c792044414f204d6f64756c6560881b604482015260640161045b565b42841161075b5760405162461bcd60e51b815260040161045b90611eaa565b600086511161077c5760405162461bcd60e51b815260040161045b90611ed3565b600061078760055490565b6040805160c0810182524281526001600160a01b038c8116602083019081529282018c8152606083018c8152608084018c905260a084018b90526007805460018101825560009190915284517fa66cc928b5edb82af9bd49922954155ab7b0942694bea4ce44661d9a8736c688600690920291820190815595517fa66cc928b5edb82af9bd49922954155ab7b0942694bea4ce44661d9a8736c689820180546001600160a01b031916919095161790935590517fa66cc928b5edb82af9bd49922954155ab7b0942694bea4ce44661d9a8736c68a8301555193945090927fa66cc928b5edb82af9bd49922954155ab7b0942694bea4ce44661d9a8736c68b909101906108939082611f7c565b506080820151600482015560a090910151600591820155805460010190557fa5ed9e6226c584326505694539c95cb0e3238ae09bcda5a65c00bbfdab1c666281886040516108e292919061203c565b60405180910390a198975050505050505050565b600154604051630935e01b60e21b81523360048201526001600160a01b03909116906324d7806c90602401602060405180830381865afa15801561093e573d6000803e3d6000fd5b505050506040513d601f19601f820116820180604052508101906109629190612084565b61099c5760405162461bcd60e51b815260206004820152600b60248201526a27b7363c9030b236b4b71760a91b604482015260640161045b565b42600786815481106109b0576109b0611e94565b90600052602060002090600602016004015411610a065760405162461bcd60e51b81526020600482015260146024820152731d185cdac8185b1c9958591e481cdd185c9d195960621b604482015260640161045b565b6000835111610a275760405162461bcd60e51b815260040161045b90611ed3565b6005548510610a675760405162461bcd60e51b815260206004820152600c60248201526b696e76616c6964207461736b60a01b604482015260640161045b565b8360078681548110610a7b57610a7b611e94565b9060005260206000209060060201600201819055508260078681548110610aa457610aa4611e94565b90600052602060002090600602016003019081610ac19190611f7c565b508160078681548110610ad657610ad6611e94565b9060005260206000209060060201600401819055508060078681548110610aff57610aff611e94565b9060005260206000209060060201600501819055507f126a0ea5197c062eb92c789989294eb8d2aef31cf41fd012da26dfab98b29a168584604051610b4592919061203c565b60405180910390a15050505050565b60096020528160005260406000208181548110610b7057600080fd5b90600052602060002001600091509150505481565b60085460ff1615610c3b5760015460405163288c314960e21b81523360048201526001600160a01b039091169063a230c52490602401602060405180830381865afa158015610bd8573d6000803e3d6000fd5b505050506040513d601f19601f82011682018060405250810190610bfc9190612084565b610c3b5760405162461bcd60e51b815260206004820152601060248201526f4f6e6c792044414f206d656d6265727360801b604482015260640161045b565b6000838152600a60209081526040808320338085529252822054600b8054879492908110610c6b57610c6b611e94565b60009182526020909120600360049092020181015460ff1690811115610c9357610c93611c7d565b816003811115610ca557610ca5611c7d565b14610cc3576040516328992a5560e21b815260040160405180910390fd5b4260078781548110610cd757610cd7611e94565b90600052602060002090600602016004015410610d285760405162461bcd60e51b815260206004820152600f60248201526e139bdd081cdd185c9d1959081e595d608a1b604482015260640161045b565b4260078781548110610d3c57610d3c611e94565b90600052602060002090600602016005015411610d905760405162461bcd60e51b8152602060048201526012602482015271151a19481d185cdac81a185cc8195b99195960721b604482015260640161045b565b6000610d9b60065490565b9050600b6040518060800160405280336001600160a01b0316815260200188888080601f01602080910402602001604051908101604052809392919081815260200183838082843760009201829052509385525050506020820152604001600290528154600180820184556000938452602093849020835160049093020180546001600160a01b0319166001600160a01b03909316929092178255928201519192909190820190610e4c9082611f7c565b506040820151816002015560608201518160030160006101000a81548160ff02191690836003811115610e8157610e81611c7d565b021790555050506000878152600960209081526040808320805460018101825590845282842001849055898352600a82528083203384529091529020819055610ece600680546001019055565b60408051888152602081018390527f732b29041dfc9fd7a86ce0ca090ecaabdc1a602620a65264047baf43d8ba31be910160405180910390a150505050505050565b60078181548110610f2057600080fd5b600091825260209091206006909102018054600182015460028301546003840180549395506001600160a01b03909216939092909190610f5f90611ef3565b80601f0160208091040260200160405190810160405280929190818152602001828054610f8b90611ef3565b8015610fd85780601f10610fad57610100808354040283529160200191610fd8565b820191906000526020600020905b815481529060010190602001808311610fbb57829003601f168201915b5050505050908060040154908060050154905086565b6004805460405163235883e360e01b815230928101929092526000916101009091046001600160a01b03169063235883e390602401602060405180830381865afa158015611040573d6000803e3d6000fd5b505050506040513d601f19601f8201168201806040525081019061106491906120ad565b905090565b6000818152600a602090815260408083206001600160a01b0386168452909152812054600b80546003929081106110a2576110a2611e94565b60009182526020909120600360049092020181015460ff16908111156110ca576110ca611c7d565b1490505b92915050565b60008181526009602090815260409182902080548351818402810184019094528084526060939283018282801561112a57602002820191906000526020600020905b815481526020019060010190808311611116575b50505050509050919050565b600b818154811061114657600080fd5b6000918252602090912060049091020180546001820180546001600160a01b0390921693509061117590611ef3565b80601f01602080910402602001604051908101604052809291908181526020018280546111a190611ef3565b80156111ee5780601f106111c3576101008083540402835291602001916111ee565b820191906000526020600020905b8154815290600101906020018083116111d157829003601f168201915b50505050600283015460039093015491929160ff16905084565b6000828152600a602090815260408083206001600160a01b0385168452909152812054600b8054909190811061124057611240611e94565b600091825260209091206004909102016003015460ff169392505050565b600154604051630935e01b60e21b81523360048201526000916001600160a01b0316906324d7806c90602401602060405180830381865afa1580156112a7573d6000803e3d6000fd5b505050506040513d601f19601f820116820180604052508101906112cb9190612084565b6113055760405162461bcd60e51b815260206004820152600b60248201526a27b7363c9030b236b4b71760a91b604482015260640161045b565b4282116113245760405162461bcd60e51b815260040161045b90611eaa565b60008451116113455760405162461bcd60e51b815260040161045b90611ed3565b600061135060055490565b6040805160c0810182524281523360208201908152918101898152606082018981526080830189905260a083018890526007805460018101825560009190915283517fa66cc928b5edb82af9bd49922954155ab7b0942694bea4ce44661d9a8736c688600690920291820190815594517fa66cc928b5edb82af9bd49922954155ab7b0942694bea4ce44661d9a8736c689820180546001600160a01b0319166001600160a01b0390921691909117905591517fa66cc928b5edb82af9bd49922954155ab7b0942694bea4ce44661d9a8736c68a8301555193945090927fa66cc928b5edb82af9bd49922954155ab7b0942694bea4ce44661d9a8736c68b9091019061145b9082611f7c565b506080820151600482015560a090910151600591820155805460010190557fa5ed9e6226c584326505694539c95cb0e3238ae09bcda5a65c00bbfdab1c666281866040516114aa92919061203c565b60405180910390a195945050505050565b6000828152600a602090815260408083206001600160a01b0385168452909152902054600b80548492849260029290919081106114fa576114fa611e94565b60009182526020909120600360049092020181015460ff169081111561152257611522611c7d565b81600381111561153457611534611c7d565b14611552576040516328992a5560e21b815260040160405180910390fd5b84336001600160a01b03166007828154811061157057611570611e94565b60009182526020909120600160069092020101546001600160a01b0316146115ca5760405162461bcd60e51b815260206004820152600d60248201526c27b7363c9031b932b0ba37b91760991b604482015260640161045b565b42600787815481106115de576115de611e94565b9060005260206000209060060201600401541061162f5760405162461bcd60e51b815260206004820152600f60248201526e139bdd081cdd185c9d1959081e595d608a1b604482015260640161045b565b426007878154811061164357611643611e94565b906000526020600020906006020160050154116116975760405162461bcd60e51b8152602060048201526012602482015271151a19481d185cdac81a185cc8195b99195960721b604482015260640161045b565b6000868152600a602090815260408083206001600160a01b0389168452909152902054600b80546003929081106116d0576116d0611e94565b906000526020600020906004020160030160006101000a81548160ff0219169083600381111561170257611702611c7d565b02179055506000868152600a602090815260408083206001600160a01b0389168452909152902054600b8054429290811061173f5761173f611e94565b9060005260206000209060040201600201819055507fc923846dc69de8ab93cf9ea85e31a6e1ba93bd70bf0cec92b2c98b8f4b4485da86866040516117979291909182526001600160a01b0316602082015260400190565b60405180910390a1505050505050565b6000828152600a602090815260408083206001600160a01b0385168452909152812054600b805490919081106117df576117df611e94565b906000526020600020906004020160020154905092915050565b61183b6040518060c001604052806000815260200160006001600160a01b03168152602001600081526020016060815260200160008152602001600081525090565b6007828154811061184e5761184e611e94565b90600052602060002090600602016040518060c0016040529081600082015481526020016001820160009054906101000a90046001600160a01b03166001600160a01b03166001600160a01b03168152602001600282015481526020016003820180546118ba90611ef3565b80601f01602080910402602001604051908101604052809291908181526020018280546118e690611ef3565b80156119335780601f1061190857610100808354040283529160200191611933565b820191906000526020600020905b81548152906001019060200180831161191657829003601f168201915b50505050508152602001600482015481526020016005820154815250509050919050565b60006020828403121561196957600080fd5b5035919050565b6001600160a01b038116811461198557600080fd5b50565b634e487b7160e01b600052604160045260246000fd5b604051601f8201601f1916810167ffffffffffffffff811182821017156119c7576119c7611988565b604052919050565b600082601f8301126119e057600080fd5b813567ffffffffffffffff8111156119fa576119fa611988565b611a0d601f8201601f191660200161199e565b818152846020838601011115611a2257600080fd5b816020850160208301376000918101602001919091529392505050565b600080600080600060a08688031215611a5757600080fd5b8535611a6281611970565b945060208601359350604086013567ffffffffffffffff811115611a8557600080fd5b611a91888289016119cf565b9598949750949560608101359550608001359392505050565b600080600080600060a08688031215611ac257600080fd5b8535945060208601359350604086013567ffffffffffffffff811115611a8557600080fd5b60008060408385031215611afa57600080fd5b50508035926020909101359150565b600080600060408486031215611b1e57600080fd5b83359250602084013567ffffffffffffffff80821115611b3d57600080fd5b818601915086601f830112611b5157600080fd5b813581811115611b6057600080fd5b876020828501011115611b7257600080fd5b6020830194508093505050509250925092565b6000815180845260005b81811015611bab57602081850181015186830182015201611b8f565b506000602082860101526020601f19601f83011685010191505092915050565b86815260018060a01b038616602082015284604082015260c060608201526000611bf860c0830186611b85565b60808301949094525060a00152949350505050565b60008060408385031215611c2057600080fd5b8235611c2b81611970565b946020939093013593505050565b6020808252825182820181905260009190848201906040850190845b81811015611c7157835183529284019291840191600101611c55565b50909695505050505050565b634e487b7160e01b600052602160045260246000fd5b60048110611cb157634e487b7160e01b600052602160045260246000fd5b9052565b6001600160a01b0385168152608060208201819052600090611cd990830186611b85565b9050836040830152611cee6060830184611c93565b95945050505050565b60008060408385031215611d0a57600080fd5b823591506020830135611d1c81611970565b809150509250929050565b602081016110ce8284611c93565b60008060008060808587031215611d4b57600080fd5b84359350602085013567ffffffffffffffff811115611d6957600080fd5b611d75878288016119cf565b949794965050505060408301359260600135919050565b602081528151602082015260018060a01b036020830151166040820152604082015160608201526000606083015160c06080840152611dce60e0840182611b85565b9050608084015160a084015260a084015160c08401528091505092915050565b60006020808385031215611e0157600080fd5b825167ffffffffffffffff80821115611e1957600080fd5b818501915085601f830112611e2d57600080fd5b815181811115611e3f57611e3f611988565b8060051b9150611e5084830161199e565b8181529183018401918481019088841115611e6a57600080fd5b938501935b83851015611e8857845182529385019390850190611e6f565b98975050505050505050565b634e487b7160e01b600052603260045260246000fd5b6020808252600f908201526e496e76616c696420656e644461746560881b604082015260600190565b6020808252600690820152654e6f2055524960d01b604082015260600190565b600181811c90821680611f0757607f821691505b602082108103611f2757634e487b7160e01b600052602260045260246000fd5b50919050565b601f821115611f7757600081815260208120601f850160051c81016020861015611f545750805b601f850160051c820191505b81811015611f7357828155600101611f60565b5050505b505050565b815167ffffffffffffffff811115611f9657611f96611988565b611faa81611fa48454611ef3565b84611f2d565b602080601f831160018114611fdf5760008415611fc75750858301515b600019600386901b1c1916600185901b178555611f73565b600085815260208120601f198616915b8281101561200e57888601518255948401946001909101908401611fef565b508582101561202c5787850151600019600388901b60f8161c191681555b5050505050600190811b01905550565b8281526040602082015260006120556040830184611b85565b949350505050565b60006001820161207d57634e487b7160e01b600052601160045260246000fd5b5060010190565b60006020828403121561209657600080fd5b815180151581146120a657600080fd5b9392505050565b6000602082840312156120bf57600080fd5b81516120a68161197056fea26469706673582212204c9edbcd9aed60045c51ecb0daf364339abd41821a0123e41487d945120d2e2a64736f6c63430008130033",
    "linkReferences": {}
  },
  "methodIdentifiers": {
    "create(uint256,string,uint256,uint256)": "bd45a0a9",
    "createBy(address,uint256,string,uint256,uint256)": "0bb75b45",
    "daoMembersOnly()": "40962186",
    "deployer()": "d5f39488",
    "editTask(uint256,uint256,string,uint256,uint256)": "2b086648",
    "finalize(uint256)": "05261aea",
    "finalizeFor(uint256,address)": "daf91137",
    "getById(uint256)": "f4f4d237",
    "getCompletionTime(uint256,address)": "e31c007f",
    "getStatusPerSubmitter(uint256,address)": "b206b569",
    "getSubmissionIdPerTaskAndUser(uint256,address)": "e13de22b",
    "getSubmissionIdsPerTask(uint256)": "a41e603f",
    "hasCompletedTheTask(address,uint256)": "973cdc78",
    "idCounter()": "eb08ab28",
    "isActive()": "22f3e2d4",
    "moduleId()": "a1308f27",
    "novaAddress()": "89f12ed9",
    "owner()": "8da5cb5b",
    "pluginId()": "2fe7e441",
    "pluginRegistry()": "41dcea91",
    "setPluginId(uint256)": "02a4dca0",
    "submissionIds()": "599081f9",
    "submissions(uint256)": "ad73349e",
    "submit(uint256,string)": "5d63f6c6",
    "take(uint256)": "4fd9efc4",
    "taskSubmissions(uint256,uint256)": "53eea875",
    "tasks(uint256)": "8d977672"
  },
  "id": 90
}