{
  "abi": [
    {
      "inputs": [],
      "stateMutability": "nonpayable",
      "type": "constructor"
    },
    {
      "anonymous": false,
      "inputs": [
        {
          "indexed": false,
          "internalType": "uint256",
          "name": "id",
          "type": "uint256"
        }
      ],
      "name": "ModuleDefinitionAdded",
      "type": "event"
    },
    {
      "anonymous": false,
      "inputs": [
        {
          "indexed": true,
          "internalType": "address",
          "name": "previousOwner",
          "type": "address"
        },
        {
          "indexed": true,
          "internalType": "address",
          "name": "newOwner",
          "type": "address"
        }
      ],
      "name": "OwnershipTransferred",
      "type": "event"
    },
    {
      "inputs": [
        {
          "internalType": "string",
          "name": "metadataURI",
          "type": "string"
        }
      ],
      "name": "addModuleDefinition",
      "outputs": [
        {
          "internalType": "uint256",
          "name": "",
          "type": "uint256"
        }
      ],
      "stateMutability": "nonpayable",
      "type": "function"
    },
    {
      "inputs": [],
      "name": "getAllModules",
      "outputs": [
        {
          "components": [
            {
              "internalType": "string",
              "name": "metadataURI",
              "type": "string"
            },
            {
              "internalType": "uint256",
              "name": "id",
              "type": "uint256"
            }
          ],
          "internalType": "struct IModuleRegistry.ModuleDefinition[]",
          "name": "",
          "type": "tuple[]"
        }
      ],
      "stateMutability": "view",
      "type": "function"
    },
    {
      "inputs": [
        {
          "internalType": "uint256",
          "name": "moduleId",
          "type": "uint256"
        }
      ],
      "name": "getModuleById",
      "outputs": [
        {
          "components": [
            {
              "internalType": "string",
              "name": "metadataURI",
              "type": "string"
            },
            {
              "internalType": "uint256",
              "name": "id",
              "type": "uint256"
            }
          ],
          "internalType": "struct IModuleRegistry.ModuleDefinition",
          "name": "",
          "type": "tuple"
        }
      ],
      "stateMutability": "view",
      "type": "function"
    },
    {
      "inputs": [
        {
          "internalType": "uint256",
          "name": "",
          "type": "uint256"
        }
      ],
      "name": "modules",
      "outputs": [
        {
          "internalType": "string",
          "name": "metadataURI",
          "type": "string"
        },
        {
          "internalType": "uint256",
          "name": "id",
          "type": "uint256"
        }
      ],
      "stateMutability": "view",
      "type": "function"
    },
    {
      "inputs": [],
      "name": "owner",
      "outputs": [
        {
          "internalType": "address",
          "name": "",
          "type": "address"
        }
      ],
      "stateMutability": "view",
      "type": "function"
    },
    {
      "inputs": [],
      "name": "renounceOwnership",
      "outputs": [],
      "stateMutability": "nonpayable",
      "type": "function"
    },
    {
      "inputs": [
        {
          "internalType": "address",
          "name": "newOwner",
          "type": "address"
        }
      ],
      "name": "transferOwnership",
      "outputs": [],
      "stateMutability": "nonpayable",
      "type": "function"
    },
    {
      "inputs": [
        {
          "internalType": "uint256",
          "name": "moduleId",
          "type": "uint256"
        },
        {
          "internalType": "string",
          "name": "uri",
          "type": "string"
        }
      ],
      "name": "updateMetadataURI",
      "outputs": [],
      "stateMutability": "nonpayable",
      "type": "function"
    }
  ],
  "bytecode": {
    "object": "0x60806040523480156200001157600080fd5b506200001d33620001db565b6200002833620001db565b604080516080810182526004918101918252636e6f6e6560e01b60608201529081526000602082018190526001805480820182559152815160029091027fb10e2d527612073b26eecdfd717e6a320cf44b4afac2b0732d9fcbe2b7fa0cf601908190620000969082620002d0565b506020820151816001015550506001604051806040016040528060405180608001604052806042815260200162000f256042913981526001602091820181905283549081018455600093845292208151919260020201908190620000fb9082620002d0565b506020820151816001015550506001604051806040016040528060405180608001604052806042815260200162000ee3604291398152600260209182018190528354600181018555600094855291909320825192939190910201908190620001649082620002d0565b506020820151816001015550506001604051806040016040528060405180608001604052806042815260200162000ea160429139815260036020918201528254600181018455600093845292208151919260020201908190620001c89082620002d0565b506020820151816001015550506200039c565b600080546001600160a01b038381166001600160a01b0319831681178455604051919092169283917f8be0079c531659141344cd1fd0a4f28419497f9722a3daafe3b4186f6b6457e09190a35050565b634e487b7160e01b600052604160045260246000fd5b600181811c908216806200025657607f821691505b6020821081036200027757634e487b7160e01b600052602260045260246000fd5b50919050565b601f821115620002cb57600081815260208120601f850160051c81016020861015620002a65750805b601f850160051c820191505b81811015620002c757828155600101620002b2565b5050505b505050565b81516001600160401b03811115620002ec57620002ec6200022b565b6200030481620002fd845462000241565b846200027d565b602080601f8311600181146200033c5760008415620003235750858301515b600019600386901b1c1916600185901b178555620002c7565b600085815260208120601f198616915b828110156200036d578886015182559484019460019091019084016200034c565b50858210156200038c5787850151600019600388901b60f8161c191681555b5050505050600190811b01905550565b610af580620003ac6000396000f3fe608060405234801561001057600080fd5b50600436106100885760003560e01c80638da5cb5b1161005b5780638da5cb5b146100fe5780638fe86b3f14610119578063c13981371461012c578063f2fde38b1461014157600080fd5b8063664bff0d1461008d578063715018a6146100b3578063720ed642146100bd57806381b2248a146100dd575b600080fd5b6100a061009b3660046106ac565b610154565b6040519081526020015b60405180910390f35b6100bb610250565b005b6100d06100cb3660046106ee565b610264565b6040516100aa9190610776565b6100f06100eb3660046106ee565b610348565b6040516100aa929190610790565b6000546040516001600160a01b0390911681526020016100aa565b6100bb6101273660046107b2565b610404565b610134610445565b6040516100aa91906107fe565b6100bb61014f366004610860565b610540565b600061015e6105b9565b8161019e5760405162461bcd60e51b815260206004820152600b60248201526a696e76616c69642075726960a81b60448201526064015b60405180910390fd5b600180546040805160606020601f8801819004028201810183529181018681529293929091829190889088908190850183828082843760009201829052509385525050506020918201859052835460018101855593815220815191926002020190819061020b9082610928565b506020918201516001909101556040518281527f74e253944c73b5e634175a60d5ef4a7af301f3b0148e2dd3527edfd0329108f6910160405180910390a19392505050565b6102586105b9565b6102626000610613565b565b6040805180820190915260608152600060208201526001828154811061028c5761028c6109e8565b90600052602060002090600202016040518060400160405290816000820180546102b59061089f565b80601f01602080910402602001604051908101604052809291908181526020018280546102e19061089f565b801561032e5780601f106103035761010080835404028352916020019161032e565b820191906000526020600020905b81548152906001019060200180831161031157829003601f168201915b505050505081526020016001820154815250509050919050565b6001818154811061035857600080fd5b906000526020600020906002020160009150905080600001805461037b9061089f565b80601f01602080910402602001604051908101604052809291908181526020018280546103a79061089f565b80156103f45780601f106103c9576101008083540402835291602001916103f4565b820191906000526020600020905b8154815290600101906020018083116103d757829003601f168201915b5050505050908060010154905082565b61040c6105b9565b818160018581548110610421576104216109e8565b9060005260206000209060020201600001918261043f9291906109fe565b50505050565b60606001805480602002602001604051908101604052809291908181526020016000905b82821015610537578382906000526020600020906002020160405180604001604052908160008201805461049c9061089f565b80601f01602080910402602001604051908101604052809291908181526020018280546104c89061089f565b80156105155780601f106104ea57610100808354040283529160200191610515565b820191906000526020600020905b8154815290600101906020018083116104f857829003601f168201915b5050505050815260200160018201548152505081526020019060010190610469565b50505050905090565b6105486105b9565b6001600160a01b0381166105ad5760405162461bcd60e51b815260206004820152602660248201527f4f776e61626c653a206e6577206f776e657220697320746865207a65726f206160448201526564647265737360d01b6064820152608401610195565b6105b681610613565b50565b6000546001600160a01b031633146102625760405162461bcd60e51b815260206004820181905260248201527f4f776e61626c653a2063616c6c6572206973206e6f7420746865206f776e65726044820152606401610195565b600080546001600160a01b038381166001600160a01b0319831681178455604051919092169283917f8be0079c531659141344cd1fd0a4f28419497f9722a3daafe3b4186f6b6457e09190a35050565b60008083601f84011261067557600080fd5b50813567ffffffffffffffff81111561068d57600080fd5b6020830191508360208285010111156106a557600080fd5b9250929050565b600080602083850312156106bf57600080fd5b823567ffffffffffffffff8111156106d657600080fd5b6106e285828601610663565b90969095509350505050565b60006020828403121561070057600080fd5b5035919050565b6000815180845260005b8181101561072d57602081850181015186830182015201610711565b506000602082860101526020601f19601f83011685010191505092915050565b60008151604084526107626040850182610707565b602093840151949093019390935250919050565b602081526000610789602083018461074d565b9392505050565b6040815260006107a36040830185610707565b90508260208301529392505050565b6000806000604084860312156107c757600080fd5b83359250602084013567ffffffffffffffff8111156107e557600080fd5b6107f186828701610663565b9497909650939450505050565b6000602080830181845280855180835260408601915060408160051b870101925083870160005b8281101561085357603f1988860301845261084185835161074d565b94509285019290850190600101610825565b5092979650505050505050565b60006020828403121561087257600080fd5b81356001600160a01b038116811461078957600080fd5b634e487b7160e01b600052604160045260246000fd5b600181811c908216806108b357607f821691505b6020821081036108d357634e487b7160e01b600052602260045260246000fd5b50919050565b601f82111561092357600081815260208120601f850160051c810160208610156109005750805b601f850160051c820191505b8181101561091f5782815560010161090c565b5050505b505050565b815167ffffffffffffffff81111561094257610942610889565b61095681610950845461089f565b846108d9565b602080601f83116001811461098b57600084156109735750858301515b600019600386901b1c1916600185901b17855561091f565b600085815260208120601f198616915b828110156109ba5788860151825594840194600190910190840161099b565b50858210156109d85787850151600019600388901b60f8161c191681555b5050505050600190811b01905550565b634e487b7160e01b600052603260045260246000fd5b67ffffffffffffffff831115610a1657610a16610889565b610a2a83610a24835461089f565b836108d9565b6000601f841160018114610a5e5760008515610a465750838201355b600019600387901b1c1916600186901b178355610ab8565b600083815260209020601f19861690835b82811015610a8f5786850135825560209485019460019092019101610a6f565b5086821015610aac5760001960f88860031b161c19848701351681555b505060018560011b0183555b505050505056fea2646970667358221220dc8cb388ead23f47f1dc6f61b29bf8dd973bd256d413aa287d309ea94506a4b564736f6c63430008130033697066733a2f2f6261666b726569656737647770687334353534673732366b616c7635657a3232686435356b33626b73657061367272766f6e366766346d75706579697066733a2f2f6261666b7265696878637a366579746d66366c6d356f7971656536376a756a78657075637a6c34326c77326f726c6673773679647335676d343669697066733a2f2f6261666b72656961327369346e68716a6478673534337a377070356b63687678346175776d37676e353477667466613276796b666b6a6334707065",
    "linkReferences": {}
  },
  "methodIdentifiers": {
    "addModuleDefinition(string)": "664bff0d",
    "getAllModules()": "c1398137",
    "getModuleById(uint256)": "720ed642",
    "modules(uint256)": "81b2248a",
    "owner()": "8da5cb5b",
    "renounceOwnership()": "715018a6",
    "transferOwnership(address)": "f2fde38b",
    "updateMetadataURI(uint256,string)": "8fe86b3f"
  },
  "id": 70
}