{
    "contractName": "DAOTypes",
    "abi": [
        {
            "anonymous": false,
            "inputs": [
                {
                    "indexed": false,
                    "internalType": "uint256",
                    "name": "memType",
                    "type": "uint256"
                },
                {
                    "indexed": false,
                    "internalType": "address",
                    "name": "membershipExtContract",
                    "type": "address"
                }
            ],
            "name": "DAOTypeAdded",
            "type": "event"
        },
        {
            "anonymous": false,
            "inputs": [
                {
                    "indexed": true,
                    "internalType": "address",
                    "name": "previousOwner",
                    "type": "address"
                },
                {
                    "indexed": true,
                    "internalType": "address",
                    "name": "newOwner",
                    "type": "address"
                }
            ],
            "name": "OwnershipTransferred",
            "type": "event"
        },
        {
            "inputs": [
                {
                    "internalType": "address",
                    "name": "membershipExtContract",
                    "type": "address"
                }
            ],
            "name": "addNewMembershipExtension",
            "outputs": [],
            "stateMutability": "nonpayable",
            "type": "function"
        },
        {
            "inputs": [
                {
                    "internalType": "uint256",
                    "name": "membershipType",
                    "type": "uint256"
                }
            ],
            "name": "getMembershipExtensionAddress",
            "outputs": [
                {
                    "internalType": "address",
                    "name": "",
                    "type": "address"
                }
            ],
            "stateMutability": "view",
            "type": "function"
        },
        {
            "inputs": [
                {
                    "internalType": "address",
                    "name": "",
                    "type": "address"
                }
            ],
            "name": "isMembershipChecker",
            "outputs": [
                {
                    "internalType": "bool",
                    "name": "",
                    "type": "bool"
                }
            ],
            "stateMutability": "view",
            "type": "function"
        },
        {
            "inputs": [],
            "name": "owner",
            "outputs": [
                {
                    "internalType": "address",
                    "name": "",
                    "type": "address"
                }
            ],
            "stateMutability": "view",
            "type": "function"
        },
        {
            "inputs": [],
            "name": "renounceOwnership",
            "outputs": [],
            "stateMutability": "nonpayable",
            "type": "function"
        },
        {
            "inputs": [
                {
                    "internalType": "address",
                    "name": "newOwner",
                    "type": "address"
                }
            ],
            "name": "transferOwnership",
            "outputs": [],
            "stateMutability": "nonpayable",
            "type": "function"
        },
        {
            "inputs": [
                {
                    "internalType": "uint256",
                    "name": "",
                    "type": "uint256"
                }
            ],
            "name": "typeToMembershipChecker",
            "outputs": [
                {
                    "internalType": "address",
                    "name": "",
                    "type": "address"
                }
            ],
            "stateMutability": "view",
            "type": "function"
        },
        {
            "inputs": [],
            "name": "typesCount",
            "outputs": [
                {
                    "internalType": "uint256",
                    "name": "",
                    "type": "uint256"
                }
            ],
            "stateMutability": "view",
            "type": "function"
        }
    ],
    "bytecode": "608060405234801561001057600080fd5b5061001a3361001f565b61006f565b600080546001600160a01b038381166001600160a01b0319831681178455604051919092169283917f8be0079c531659141344cd1fd0a4f28419497f9722a3daafe3b4186f6b6457e09190a35050565b6104de8061007e6000396000f3fe608060405234801561001057600080fd5b50600436106100885760003560e01c80636251191f1161005b5780636251191f14610131578063715018a61461015a5780638da5cb5b14610162578063f2fde38b1461017357600080fd5b806323875fa21461008d5780634c59c3f4146100a25780634e862492146100e85780634edf6fe01461011b575b600080fd5b6100a061009b36600461045f565b610186565b005b6100cb6100b036600461048f565b6000908152600260205260409020546001600160a01b031690565b6040516001600160a01b0390911681526020015b60405180910390f35b61010b6100f636600461045f565b60036020526000908152604090205460ff1681565b60405190151581526020016100df565b610123610318565b6040519081526020016100df565b6100cb61013f36600461048f565b6002602052600090815260409020546001600160a01b031681565b6100a0610328565b6000546001600160a01b03166100cb565b6100a061018136600461045f565b61033c565b61018e6103b5565b6001600160a01b0381166102055760405162461bcd60e51b815260206004820152603360248201527f4d656d62657273686970436865636b657220636f6e74726163742061646472656044820152721cdcc81b5d5cdd081899481c1c9bdd9a591959606a1b60648201526084015b60405180910390fd5b6001600160a01b03811660009081526003602052604090205460ff161561026e5760405162461bcd60e51b815260206004820152601f60248201527f4d656d62657273686970436865636b657220616c72656164792061646465640060448201526064016101fc565b61027c600180546001019055565b806002600061028a60015490565b81526020808201929092526040908101600090812080546001600160a01b0319166001600160a01b03958616179055928416835260039091529020805460ff19166001908117909155547fdccc0bef10080086bbc26f7f9f19b40614526b4af7554e79f4b67440f6393f1190604080519182526001600160a01b03841660208301520160405180910390a150565b600061032360015490565b905090565b6103306103b5565b61033a600061040f565b565b6103446103b5565b6001600160a01b0381166103a95760405162461bcd60e51b815260206004820152602660248201527f4f776e61626c653a206e6577206f776e657220697320746865207a65726f206160448201526564647265737360d01b60648201526084016101fc565b6103b28161040f565b50565b6000546001600160a01b0316331461033a5760405162461bcd60e51b815260206004820181905260248201527f4f776e61626c653a2063616c6c6572206973206e6f7420746865206f776e657260448201526064016101fc565b600080546001600160a01b038381166001600160a01b0319831681178455604051919092169283917f8be0079c531659141344cd1fd0a4f28419497f9722a3daafe3b4186f6b6457e09190a35050565b60006020828403121561047157600080fd5b81356001600160a01b038116811461048857600080fd5b9392505050565b6000602082840312156104a157600080fd5b503591905056fea2646970667358221220206c4470e149d424e5c9c5157f38972aba133ce1d20af31aa474f6078418b79b64736f6c634300080f0033",
    "sourcePath": "/Users/tagamite/Desktop/dev/aut/contracts/contracts/membershipCheckers/DAOTypes.sol",
    "compiler": {
        "name": "solc",
        "version": "0.8.15+commit.e14f2714"
    },
    "functionHashes": {
        "addNewMembershipExtension(address)": "23875fa2",
        "getMembershipExtensionAddress(uint256)": "4c59c3f4",
        "isMembershipChecker(address)": "4e862492",
        "owner()": "8da5cb5b",
        "renounceOwnership()": "715018a6",
        "transferOwnership(address)": "f2fde38b",
        "typeToMembershipChecker(uint256)": "6251191f",
        "typesCount()": "4edf6fe0"
    },
    "gasEstimates": {
        "creation": {
            "codeDepositCost": "249200",
            "executionCost": "26128",
            "totalCost": "275328"
        },
        "external": {
            "addNewMembershipExtension(address)": "83134",
            "getMembershipExtensionAddress(uint256)": "2489",
            "isMembershipChecker(address)": "2541",
            "owner()": "2364",
            "renounceOwnership()": "infinite",
            "transferOwnership(address)": "28364",
            "typeToMembershipChecker(uint256)": "2466",
            "typesCount()": "2397"
        }
    }
}