{
  "abi": [
    {
      "inputs": [
        {
          "internalType": "address",
          "name": "deployer",
          "type": "address"
        },
        {
          "internalType": "address",
          "name": "autIDAddr",
          "type": "address"
        },
        {
          "internalType": "uint256",
          "name": "market",
          "type": "uint256"
        },
        {
          "internalType": "string",
          "name": "metadata",
          "type": "string"
        },
        {
          "internalType": "uint256",
          "name": "commitment",
          "type": "uint256"
        },
        {
          "internalType": "address",
          "name": "pluginRegistry",
          "type": "address"
        }
      ],
      "name": "deployNova",
      "outputs": [
        {
          "internalType": "address",
          "name": "_nova",
          "type": "address"
        }
      ],
      "stateMutability": "nonpayable",
      "type": "function"
    }
  ],
  "bytecode": {
    "object": "0x608060405234801561001057600080fd5b50612da1806100206000396000f3fe608060405234801561001057600080fd5b506004361061002b5760003560e01c8063b4aa79dc14610030575b600080fd5b61004361003e3660046100d8565b61005f565b6040516001600160a01b03909116815260200160405180910390f35b60008088888888888888604051610075906100af565b6100859796959493929190610190565b604051809103906000f0801580156100a1573d6000803e3d6000fd5b509998505050505050505050565b612b78806101f483390190565b80356001600160a01b03811681146100d357600080fd5b919050565b600080600080600080600060c0888a0312156100f357600080fd5b6100fc886100bc565b965061010a602089016100bc565b955060408801359450606088013567ffffffffffffffff8082111561012e57600080fd5b818a0191508a601f83011261014257600080fd5b81358181111561015157600080fd5b8b602082850101111561016357600080fd5b6020830196508095505050506080880135915061018260a089016100bc565b905092959891949750929550565b600060018060a01b03808a168352808916602084015287604084015260c060608401528560c0840152858760e0850137600060e0878501015260e0601f19601f880116840101915084608084015280841660a0840152509897505050505050505056fe60806040523480156200001157600080fd5b5060405162002b7838038062002b788339810160408190526200003491620003b8565b600d80546001600160a01b0388166001600160a01b031991821681179092556000828152600460205260408120805460ff191660019081179091556003805491820181559091527fc2575a0e9e593c00f959f8c92f12db2869c3395a3b0502d05e2516446f71f85b0180549091169091179055620000b28462000104565b600080546001600160a01b0319166001600160a01b038716179055620000d88262000189565b620000e3836200020e565b620000ed6200028a565b620000f881620002ef565b50505050505062000638565b600081118015620001155750600481105b620001585760405162461bcd60e51b815260206004820152600e60248201526d1a5b9d985b1a59081b585c9ad95d60921b60448201526064015b60405180910390fd5b60098190556040517f4086cd87c923de65497ff5918262360a3284451fdc7ee5597eaa90abaf2345f490600090a150565b6000811180156200019a5750600b81105b620001dd5760405162461bcd60e51b81526020600482015260126024820152711a5b9d985b1a590818dbdb5b5a5d1b595b9d60721b60448201526064016200014f565b600c8190556040517f6e94e6036cb0a3a2ee59e8687248332f61e0e9c059b4946908091e2ff873649f90600090a150565b60008151116200024f5760405162461bcd60e51b815260206004820152600b60248201526a1a5b9d985b1a59081d5c9b60aa1b60448201526064016200014f565b60066200025d82826200056c565b506040517fd7a0756058a289c0ef8ae9d83008cd5710c64575760271d6f2af16f7b4af140190600090a150565b6005546001600160a01b031615620002a157600080fd5b604051620002af9062000369565b604051809103906000f080158015620002cc573d6000803e3d6000fd5b50600580546001600160a01b0319166001600160a01b0392909216919091179055565b6001600160a01b038116620003475760405162461bcd60e51b815260206004820152601660248201527f696e76616c696420706c7567696e52656769737472790000000000000000000060448201526064016200014f565b600a80546001600160a01b0319166001600160a01b0392909216919091179055565b6105cd80620025ab83390190565b6001600160a01b03811681146200038d57600080fd5b50565b80516200039d8162000377565b919050565b634e487b7160e01b600052604160045260246000fd5b60008060008060008060c08789031215620003d257600080fd5b8651620003df8162000377565b80965050602080880151620003f48162000377565b604089015160608a015191975095506001600160401b03808211156200041957600080fd5b818a0191508a601f8301126200042e57600080fd5b815181811115620004435762000443620003a2565b604051601f8201601f19908116603f011681019083821181831017156200046e576200046e620003a2565b816040528281528d868487010111156200048757600080fd5b600093505b82841015620004ab57848401860151818501870152928501926200048c565b600086848301015280985050505050505060808701519150620004d160a0880162000390565b90509295509295509295565b600181811c90821680620004f257607f821691505b6020821081036200051357634e487b7160e01b600052602260045260246000fd5b50919050565b601f8211156200056757600081815260208120601f850160051c81016020861015620005425750805b601f850160051c820191505b8181101562000563578281556001016200054e565b5050505b505050565b81516001600160401b03811115620005885762000588620003a2565b620005a081620005998454620004dd565b8462000519565b602080601f831160018114620005d85760008415620005bf5750858301515b600019600386901b1c1916600185901b17855562000563565b600085815260208120601f198616915b828110156200060957888601518255948401946001909101908401620005e8565b5085821015620006285787850151600019600388901b60f8161c191681555b5050505050600190811b01905550565b611f6380620006486000396000f3fe608060405234801561001057600080fd5b50600436106101da5760003560e01c806369130c8d116101045780639c54df64116100a2578063be9cd05211610071578063be9cd052146103fb578063cd29c71a1461040e578063d103449c14610423578063d5f394881461043657600080fd5b80639c54df641461039f578063a230c524146103b2578063b5a8a3a1146103d5578063be739311146103e857600080fd5b806380f55605116100de57806380f556051461035f578063810e8c04146103685780638307bd241461037b57806388098e3a1461038e57600080fd5b806369130c8d1461033157806370480275146103445780637c0f6b351461035757600080fd5b806324d7806c1161017c57806341dcea911161014b57806341dcea91146102e757806348394873146102fa5780635daf08ca1461030b57806368839d281461031e57600080fd5b806324d7806c146102945780632a79c611146102b757806331ae450b146102bf5780633b4da69f146102d457600080fd5b806311aee380116101b857806311aee3801461022f57806314bfd6d0146102415780631785f53c1461026c578063206110db1461027f57600080fd5b806303ffe330146101df57806310972e90146102075780631130630c1461021a575b600080fd5b6101f26101ed36600461188c565b610449565b60405190151581526020015b60405180910390f35b6101f26102153660046118b8565b61057d565b61022d610228366004611969565b6105d3565b005b6001545b6040519081526020016101fe565b61025461024f3660046118b8565b610617565b6040516001600160a01b0390911681526020016101fe565b61022d61027a3660046119e9565b610641565b610287610763565b6040516101fe9190611a5d565b6101f26102a23660046119e9565b60046020526000908152604090205460ff1681565b600c54610233565b6102c761083c565b6040516101fe9190611abf565b61022d6102e236600461188c565b61089e565b600a54610254906001600160a01b031681565b6005546001600160a01b0316610254565b6102546103193660046118b8565b61099b565b6101f261032c366004611969565b6109ab565b61022d61033f3660046118b8565b610a2a565b61022d6103523660046119e9565b610a62565b6102c7610b7e565b61023360095481565b61022d610376366004611969565b610bde565b600e54610254906001600160a01b031681565b6000546001600160a01b0316610254565b6102c76103ad366004611b0c565b610c16565b6101f26103c03660046119e9565b60026020526000908152604090205460ff1681565b61022d6103e33660046119e9565b610e13565b6102336103f63660046119e9565b610fdd565b61022d6104093660046118b8565b61104c565b610416611084565b6040516101fe9190611bbe565b61022d610431366004611969565b611112565b600d54610254906001600160a01b031681565b600e546000906001600160a01b031661046457506001610577565b600e546001600160a01b0316158015906104f25750600e60009054906101000a90046001600160a01b03166001600160a01b03166322f3e2d46040518163ffffffff1660e01b8152600401602060405180830381865afa1580156104cc573d6000803e3d6000fd5b505050506040513d601f19601f820116820180604052508101906104f09190611bd1565b155b156104ff57506000610577565b600e54604051634f2b51c760e01b81526001600160a01b0385811660048301526024820185905290911690634f2b51c790604401602060405180830381865afa158015610550573d6000803e3d6000fd5b505050506040513d601f19601f820116820180604052508101906105749190611bd1565b90505b92915050565b6000805b600b548110156105ca5782600b828154811061059f5761059f611bf3565b9060005260206000200154036105b85750600192915050565b806105c281611c1f565b915050610581565b50600092915050565b3360009081526004602052604090205460ff1661060b5760405162461bcd60e51b815260040161060290611c38565b60405180910390fd5b6106148161114a565b50565b6003818154811061062757600080fd5b6000918252602090912001546001600160a01b0316905081565b3360009081526004602052604090205460ff166106705760405162461bcd60e51b815260040161060290611c38565b60005b60035481101561070a57816001600160a01b03166003828154811061069a5761069a611bf3565b6000918252602090912001546001600160a01b0316036106f8576000600382815481106106c9576106c9611bf3565b9060005260206000200160006101000a8154816001600160a01b0302191690836001600160a01b031602179055505b8061070281611c1f565b915050610673565b506001600160a01b038116600081815260046020908152604091829020805460ff1916905590519182527ffa8ae95b9a4f666c3b5f27d11b5c2b9fe1045279f674e7a78ca8b087cba3802591015b60405180910390a150565b60606007805480602002602001604051908101604052809291908181526020016000905b828210156108335783829060005260206000200180546107a690611c5f565b80601f01602080910402602001604051908101604052809291908181526020018280546107d290611c5f565b801561081f5780601f106107f45761010080835404028352916020019161081f565b820191906000526020600020905b81548152906001019060200180831161080257829003601f168201915b505050505081526020019060010190610787565b50505050905090565b6060600380548060200260200160405190810160405280929190818152602001828054801561089457602002820191906000526020600020905b81546001600160a01b03168152600190910190602001808311610876575b5050505050905090565b6000546001600160a01b031633146108e55760405162461bcd60e51b815260206004820152600a60248201526913db9b1e48105d5d125160b21b6044820152606401610602565b604051623ffe3360e41b81526001600160a01b03831660048201526024810182905230906303ffe33090604401602060405180830381865afa15801561092f573d6000803e3d6000fd5b505050506040513d601f19601f820116820180604052508101906109539190611bd1565b61098d5760405162461bcd60e51b815260206004820152600b60248201526a1b9bdd08185b1b1bddd95960aa1b6044820152606401610602565b61099782826111c2565b5050565b6001818154811061062757600080fd5b60075460009081036109bf57506000919050565b815160208084019190912060008181526008909252604090912054156109e85750600192915050565b8060076000815481106109fd576109fd611bf3565b90600052602060002001604051610a149190611c99565b6040518091039020036105ca5750600192915050565b3360009081526004602052604090205460ff16610a595760405162461bcd60e51b815260040161060290611c38565b610614816112f4565b3360009081526004602052604090205460ff16610a915760405162461bcd60e51b815260040161060290611c38565b6001600160a01b03811660009081526002602052604090205460ff16610ae85760405162461bcd60e51b815260206004820152600c60248201526b2737ba10309036b2b6b132b960a11b6044820152606401610602565b6001600160a01b0381166000818152600460209081526040808320805460ff191660019081179091556003805491820181559093527fc2575a0e9e593c00f959f8c92f12db2869c3395a3b0502d05e2516446f71f85b90920180546001600160a01b0319168417905590519182527fa06b993f17e63959ef40ec8755fc98020c50e9d2794ce5fc0886a7792a9fbaec9101610758565b60606001805480602002602001604051908101604052809291908181526020018280548015610894576020028201919060005260206000209081546001600160a01b03168152600190910190602001808311610876575050505050905090565b3360009081526004602052604090205460ff16610c0d5760405162461bcd60e51b815260040161060290611c38565b61061481611481565b3360009081526004602052604090205460609060ff16610c485760405162461bcd60e51b815260040161060290611c38565b60005b8251811015610e0c5760026000848381518110610c6a57610c6a611bf3565b6020908102919091018101516001600160a01b031682528101919091526040016000205460ff16610cbc57828181518110610ca757610ca7611bf3565b60006020918202929092010152600101610c4b565b60046000848381518110610cd257610cd2611bf3565b6020908102919091018101516001600160a01b031682528101919091526040016000205460ff16610e04576003838281518110610d1157610d11611bf3565b60209081029190910181015182546001808201855560009485529284200180546001600160a01b0319166001600160a01b0390921691909117905584519091600491869085908110610d6557610d65611bf3565b60200260200101516001600160a01b03166001600160a01b0316815260200190815260200160002060006101000a81548160ff0219169083151502179055507fa06b993f17e63959ef40ec8755fc98020c50e9d2794ce5fc0886a7792a9fbaec838281518110610dd757610dd7611bf3565b6020026020010151604051610dfb91906001600160a01b0391909116815260200190565b60405180910390a15b600101610c4b565b5090919050565b806001600160a01b031663a1308f276040518163ffffffff1660e01b8152600401602060405180830381865afa158015610e51573d6000803e3d6000fd5b505050506040513d601f19601f82011682018060405250810190610e759190611d0f565b600114610ebd5760405162461bcd60e51b815260206004820152601660248201527527b7363c9027b73137b0b93234b7339028363ab3b4b760511b6044820152606401610602565b600e546001600160a01b0316610f2357600a546001600160a01b03163314610f1e5760405162461bcd60e51b81526020600482015260146024820152734f6e6c7920506c7567696e20526567697374727960601b6044820152606401610602565b610fbb565b604051630935e01b60e21b815233600482015230906324d7806c90602401602060405180830381865afa158015610f5e573d6000803e3d6000fd5b505050506040513d601f19601f82011682018060405250810190610f829190611bd1565b610fbb5760405162461bcd60e51b815260206004820152600a60248201526927b7363c9020b236b4b760b11b6044820152606401610602565b600e80546001600160a01b0319166001600160a01b0392909216919091179055565b600554604051636f4885b560e01b81526001600160a01b0383811660048301526000921690636f4885b590602401602060405180830381865afa158015611028573d6000803e3d6000fd5b505050506040513d601f19601f820116820180604052508101906105779190611d0f565b3360009081526004602052604090205460ff1661107b5760405162461bcd60e51b815260040161060290611c38565b61061481611681565b6006805461109190611c5f565b80601f01602080910402602001604051908101604052809291908181526020018280546110bd90611c5f565b801561110a5780601f106110df5761010080835404028352916020019161110a565b820191906000526020600020905b8154815290600101906020018083116110ed57829003601f168201915b505050505081565b3360009081526004602052604090205460ff166111415760405162461bcd60e51b815260040161060290611c38565b61061481611703565b60008151116111895760405162461bcd60e51b815260206004820152600b60248201526a1a5b9d985b1a59081d5c9b60aa1b6044820152606401610602565b60066111958282611d77565b506040517fd7a0756058a289c0ef8ae9d83008cd5710c64575760271d6f2af16f7b4af140190600090a150565b6000546001600160a01b031633146112095760405162461bcd60e51b815260206004820152600a60248201526913db9b1e48105d5d125160b21b6044820152606401610602565b6001600160a01b03821660009081526002602052604090205460ff16156112655760405162461bcd60e51b815260206004820152601060248201526f20b63932b0b23c90309036b2b6b132b960811b6044820152606401610602565b6001600160a01b038216600081815260026020526040808220805460ff19166001908117909155805480820182559083527fb10e2d527612073b26eecdfd717e6a320cf44b4afac2b0732d9fcbe2b7fa0cf60180546001600160a01b03191690931790925590517f94d9b0a056867efca93631b338c7fde3befc3f54db36b90b8456b069385c30be9190a15050565b600a5460408051631055995d60e31b815290516000926001600160a01b0316916382accae89160048083019260209291908290030181865afa15801561133e573d6000803e3d6000fd5b505050506040513d601f19601f820116820180604052508101906113629190611e37565b6040516339076b2160e11b8152600481018490529091506000906001600160a01b0383169063720ed64290602401600060405180830381865afa1580156113ad573d6000803e3d6000fd5b505050506040513d6000823e601f3d908101601f191682016040526113d59190810190611e54565b5151116114155760405162461bcd60e51b815260206004820152600e60248201526d696e76616c6964206d6f64756c6560901b6044820152606401610602565b600b80546001810182556000919091527f0175b7a638427703f0dbe7bb9bbf987a2551717b34e79f33b5b1008d1fa01db9018290556040518281527fc1866ccaad33ac161f17d9db7a528f0c819a376e1cad17ba2d5c9b49a7eba2cd9060200160405180910390a15050565b61148a816109ab565b6114c95760405162461bcd60e51b815260206004820152601060248201526f1d5c9b08191bd95cdb9d08195e1a5cdd60821b6044820152606401610602565b8051602080830191909120600081815260089092526040909120546007546114f390600190611f04565b811461160457600780546000919061150d90600190611f04565b8154811061151d5761151d611bf3565b90600052602060002001805461153290611c5f565b80601f016020809104026020016040519081016040528092919081815260200182805461155e90611c5f565b80156115ab5780601f10611580576101008083540402835291602001916115ab565b820191906000526020600020905b81548152906001019060200180831161158e57829003601f168201915b5050505050905060008180519060200120905082600860008381526020019081526020016000208190555081600784815481106115ea576115ea611bf3565b9060005260206000200190816116009190611d77565b5050505b600780548061161557611615611f17565b6001900381819060005260206000200160006116319190611829565b905560008281526008602052604080822091909155517f906b87aebf1e5cc40a1cebd6811c88addf04309f8c8ce71c7d6449d343e4ad0990611674908590611bbe565b60405180910390a1505050565b6000811180156116915750600b81105b6116d25760405162461bcd60e51b81526020600482015260126024820152711a5b9d985b1a590818dbdb5b5a5d1b595b9d60721b6044820152606401610602565b600c8190556040517f6e94e6036cb0a3a2ee59e8687248332f61e0e9c059b4946908091e2ff873649f90600090a150565b805160208201206007546000901561176b57600082815260086020526040902054151580611762575081600760008154811061174157611741611bf3565b906000526020600020016040516117589190611c99565b6040518091039020145b1561176b575060015b80156117ae5760405162461bcd60e51b815260206004820152601260248201527175726c20616c72656164792065786973747360701b6044820152606401610602565b600780546000848152600860205260408120829055600182018355919091527fa66cc928b5edb82af9bd49922954155ab7b0942694bea4ce44661d9a8736c688016117f98482611d77565b507f21d5cca3f840791ade736f51501810c14b8b01791ac4357713ed763ccbbaf3a9836040516116749190611bbe565b50805461183590611c5f565b6000825580601f10611845575050565b601f01602090049060005260206000209081019061061491905b80821115611873576000815560010161185f565b5090565b6001600160a01b038116811461061457600080fd5b6000806040838503121561189f57600080fd5b82356118aa81611877565b946020939093013593505050565b6000602082840312156118ca57600080fd5b5035919050565b634e487b7160e01b600052604160045260246000fd5b6040805190810167ffffffffffffffff8111828210171561190a5761190a6118d1565b60405290565b604051601f8201601f1916810167ffffffffffffffff81118282101715611939576119396118d1565b604052919050565b600067ffffffffffffffff82111561195b5761195b6118d1565b50601f01601f191660200190565b60006020828403121561197b57600080fd5b813567ffffffffffffffff81111561199257600080fd5b8201601f810184136119a357600080fd5b80356119b66119b182611941565b611910565b8181528560208385010111156119cb57600080fd5b81602084016020830137600091810160200191909152949350505050565b6000602082840312156119fb57600080fd5b8135611a0681611877565b9392505050565b60005b83811015611a28578181015183820152602001611a10565b50506000910152565b60008151808452611a49816020860160208601611a0d565b601f01601f19169290920160200192915050565b6000602080830181845280855180835260408601915060408160051b870101925083870160005b82811015611ab257603f19888603018452611aa0858351611a31565b94509285019290850190600101611a84565b5092979650505050505050565b6020808252825182820181905260009190848201906040850190845b81811015611b005783516001600160a01b031683529284019291840191600101611adb565b50909695505050505050565b60006020808385031215611b1f57600080fd5b823567ffffffffffffffff80821115611b3757600080fd5b818501915085601f830112611b4b57600080fd5b813581811115611b5d57611b5d6118d1565b8060051b9150611b6e848301611910565b8181529183018401918481019088841115611b8857600080fd5b938501935b83851015611bb25784359250611ba283611877565b8282529385019390850190611b8d565b98975050505050505050565b602081526000611a066020830184611a31565b600060208284031215611be357600080fd5b81518015158114611a0657600080fd5b634e487b7160e01b600052603260045260246000fd5b634e487b7160e01b600052601160045260246000fd5b600060018201611c3157611c31611c09565b5060010190565b6020808252600d908201526c4e6f7420616e2061646d696e2160981b604082015260600190565b600181811c90821680611c7357607f821691505b602082108103611c9357634e487b7160e01b600052602260045260246000fd5b50919050565b6000808354611ca781611c5f565b60018281168015611cbf5760018114611cd457611d03565b60ff1984168752821515830287019450611d03565b8760005260208060002060005b85811015611cfa5781548a820152908401908201611ce1565b50505082870194505b50929695505050505050565b600060208284031215611d2157600080fd5b5051919050565b601f821115611d7257600081815260208120601f850160051c81016020861015611d4f5750805b601f850160051c820191505b81811015611d6e57828155600101611d5b565b5050505b505050565b815167ffffffffffffffff811115611d9157611d916118d1565b611da581611d9f8454611c5f565b84611d28565b602080601f831160018114611dda5760008415611dc25750858301515b600019600386901b1c1916600185901b178555611d6e565b600085815260208120601f198616915b82811015611e0957888601518255948401946001909101908401611dea565b5085821015611e275787850151600019600388901b60f8161c191681555b5050505050600190811b01905550565b600060208284031215611e4957600080fd5b8151611a0681611877565b60006020808385031215611e6757600080fd5b825167ffffffffffffffff80821115611e7f57600080fd5b9084019060408287031215611e9357600080fd5b611e9b6118e7565b825182811115611eaa57600080fd5b83019150601f82018713611ebd57600080fd5b8151611ecb6119b182611941565b8181528886838601011115611edf57600080fd5b611eee82878301888701611a0d565b8252509183015192820192909252949350505050565b8181038181111561057757610577611c09565b634e487b7160e01b600052603160045260246000fdfea2646970667358221220cfec82a356beacf46a8c597e052417e53487e6f82903f2e9f91d6ba4eed36ff964736f6c63430008130033608060405234801561001057600080fd5b50600480546001600160a01b0319163317905561059b806100326000396000f3fe608060405234801561001057600080fd5b50600436106100575760003560e01c80634162169f1461005c5780636f4885b51461008c578063a2501fe8146100c3578063b95adfce14610159578063c4a85bc11461016e575b600080fd5b60045461006f906001600160a01b031681565b6040516001600160a01b0390911681526020015b60405180910390f35b6100b561009a366004610492565b6001600160a01b031660009081526003602052604090205490565b604051908152602001610083565b6101296100d13660046104b6565b6040805160608082018352600080835260208084018290529284018190529384526002808352938390208351918201845280546001600160a01b03908116835260018201549383019390935290930154169082015290565b6040805182516001600160a01b039081168252602080850151908301529282015190921690820152606001610083565b61016c6101673660046104cf565b610181565b005b61016c61017c366004610492565b6102f9565b3360009081526001602052604090205460ff166101f15760405162461bcd60e51b8152602060048201526024808201527f4e6f7420616c6c6f77656420746f207472616e7366657220696e746572616374604482015263696f6e7360e01b60648201526084015b60405180910390fd5b604080516060810182526001600160a01b0383168152602081018490523391810191909152610224600080546001019055565b806002600061023260005490565b815260208082019290925260409081016000908120845181546001600160a01b03199081166001600160a01b0392831617835586860151600184015595840151600290920180549096169181169190911790945592851683526003909152812080549161029e836104ff565b90915550506001600160a01b038216600081815260036020908152604091829020548251938452908301527fc887608704f6b658625e6cdc3f620cd8d0729c8c4c9abd0171098159637bdf77910160405180910390a1505050565b60048054604051630935e01b60e21b815233928101929092526001600160a01b0316906324d7806c90602401602060405180830381865afa158015610342573d6000803e3d6000fd5b505050506040513d601f19601f820116820180604052508101906103669190610526565b806103e5575060048054604080516341dcea9160e01b8152905133936001600160a01b03909316926341dcea91928082019260209290918290030181865afa1580156103b6573d6000803e3d6000fd5b505050506040513d601f19601f820116820180604052508101906103da9190610548565b6001600160a01b0316145b61041f5760405162461bcd60e51b815260206004820152600b60248201526a139bdd08185b1b1bddd95960aa1b60448201526064016101e8565b6001600160a01b038116600081815260016020818152604092839020805460ff191690921790915590519182527f5d20d7597e8195aa92d4ad63482761cfbbe7c4afdef190f27182702924c9af77910160405180910390a150565b6001600160a01b038116811461048f57600080fd5b50565b6000602082840312156104a457600080fd5b81356104af8161047a565b9392505050565b6000602082840312156104c857600080fd5b5035919050565b600080604083850312156104e257600080fd5b8235915060208301356104f48161047a565b809150509250929050565b60006001820161051f57634e487b7160e01b600052601160045260246000fd5b5060010190565b60006020828403121561053857600080fd5b815180151581146104af57600080fd5b60006020828403121561055a57600080fd5b81516104af8161047a56fea26469706673582212200430b1faa79e72b87ff9274cfdc98631d659a6fca524a193e6e943aa4fc7442d64736f6c63430008130033a2646970667358221220d4860ca7c7bfcbd18ead2da6461bea27c40b8803ffba4c58792b832b970c3a6f64736f6c63430008130033",
    "linkReferences": {}
  },
  "methodIdentifiers": {
    "deployNova(address,address,uint256,string,uint256,address)": "b4aa79dc"
  },
  "id": 73
}