{
  "abi": [
    {
      "inputs": [
        {
          "internalType": "address",
          "name": "_deployer",
          "type": "address"
        },
        {
          "internalType": "address",
          "name": "_autAddr",
          "type": "address"
        },
        {
          "internalType": "address",
          "name": "_daoTypes",
          "type": "address"
        },
        {
          "internalType": "uint256",
          "name": "_daoType",
          "type": "uint256"
        },
        {
          "internalType": "address",
          "name": "_daoAddr",
          "type": "address"
        },
        {
          "internalType": "uint256",
          "name": "_market",
          "type": "uint256"
        },
        {
          "internalType": "string",
          "name": "_metadata",
          "type": "string"
        },
        {
          "internalType": "uint256",
          "name": "_commitment",
          "type": "uint256"
        },
        {
          "internalType": "address",
          "name": "_pluginRegistry",
          "type": "address"
        }
      ],
      "stateMutability": "nonpayable",
      "type": "constructor"
    },
    {
      "anonymous": false,
      "inputs": [
        {
          "indexed": false,
          "internalType": "address",
          "name": "member",
          "type": "address"
        }
      ],
      "name": "AdminMemberAdded",
      "type": "event"
    },
    {
      "anonymous": false,
      "inputs": [
        {
          "indexed": false,
          "internalType": "address",
          "name": "member",
          "type": "address"
        }
      ],
      "name": "AdminMemberRemoved",
      "type": "event"
    },
    {
      "anonymous": false,
      "inputs": [],
      "name": "CommitmentSet",
      "type": "event"
    },
    {
      "anonymous": false,
      "inputs": [],
      "name": "DiscordServerSet",
      "type": "event"
    },
    {
      "anonymous": false,
      "inputs": [],
      "name": "MarketSet",
      "type": "event"
    },
    {
      "anonymous": false,
      "inputs": [],
      "name": "MemberAdded",
      "type": "event"
    },
    {
      "anonymous": false,
      "inputs": [],
      "name": "MetadataUriUpdated",
      "type": "event"
    },
    {
      "anonymous": false,
      "inputs": [
        {
          "indexed": false,
          "internalType": "uint256",
          "name": "moduleId",
          "type": "uint256"
        }
      ],
      "name": "ModuleActivated",
      "type": "event"
    },
    {
      "anonymous": false,
      "inputs": [
        {
          "indexed": false,
          "internalType": "string",
          "name": "url",
          "type": "string"
        }
      ],
      "name": "UrlAdded",
      "type": "event"
    },
    {
      "anonymous": false,
      "inputs": [
        {
          "indexed": false,
          "internalType": "string",
          "name": "url",
          "type": "string"
        }
      ],
      "name": "UrlRemoved",
      "type": "event"
    },
    {
      "inputs": [
        {
          "internalType": "uint256",
          "name": "moduleId",
          "type": "uint256"
        }
      ],
      "name": "activateModule",
      "outputs": [],
      "stateMutability": "nonpayable",
      "type": "function"
    },
    {
      "inputs": [
        {
          "internalType": "address",
          "name": "member",
          "type": "address"
        }
      ],
      "name": "addAdmin",
      "outputs": [],
      "stateMutability": "nonpayable",
      "type": "function"
    },
    {
      "inputs": [
        {
          "internalType": "address[]",
          "name": "adminAddr",
          "type": "address[]"
        }
      ],
      "name": "addAdmins",
      "outputs": [
        {
          "internalType": "address[]",
          "name": "",
          "type": "address[]"
        }
      ],
      "stateMutability": "nonpayable",
      "type": "function"
    },
    {
      "inputs": [
        {
          "internalType": "string",
          "name": "url",
          "type": "string"
        }
      ],
      "name": "addURL",
      "outputs": [],
      "stateMutability": "nonpayable",
      "type": "function"
    },
    {
      "inputs": [
        {
          "internalType": "uint256",
          "name": "",
          "type": "uint256"
        }
      ],
      "name": "admins",
      "outputs": [
        {
          "internalType": "address",
          "name": "",
          "type": "address"
        }
      ],
      "stateMutability": "view",
      "type": "function"
    },
    {
      "inputs": [
        {
          "internalType": "address",
          "name": "member",
          "type": "address"
        },
        {
          "internalType": "uint256",
          "name": "role",
          "type": "uint256"
        }
      ],
      "name": "canJoin",
      "outputs": [
        {
          "internalType": "bool",
          "name": "",
          "type": "bool"
        }
      ],
      "stateMutability": "view",
      "type": "function"
    },
    {
      "inputs": [],
      "name": "getAdmins",
      "outputs": [
        {
          "internalType": "address[]",
          "name": "",
          "type": "address[]"
        }
      ],
      "stateMutability": "view",
      "type": "function"
    },
    {
      "inputs": [],
      "name": "getAllMembers",
      "outputs": [
        {
          "internalType": "address[]",
          "name": "",
          "type": "address[]"
        }
      ],
      "stateMutability": "view",
      "type": "function"
    },
    {
      "inputs": [],
      "name": "getAutIDAddress",
      "outputs": [
        {
          "internalType": "address",
          "name": "",
          "type": "address"
        }
      ],
      "stateMutability": "view",
      "type": "function"
    },
    {
      "inputs": [],
      "name": "getCommitment",
      "outputs": [
        {
          "internalType": "uint256",
          "name": "",
          "type": "uint256"
        }
      ],
      "stateMutability": "view",
      "type": "function"
    },
    {
      "inputs": [],
      "name": "getDAOData",
      "outputs": [
        {
          "components": [
            {
              "internalType": "uint256",
              "name": "contractType",
              "type": "uint256"
            },
            {
              "internalType": "address",
              "name": "daoAddress",
              "type": "address"
            }
          ],
          "internalType": "struct IDAOExpanderData.DAOExpanssionData",
          "name": "data",
          "type": "tuple"
        }
      ],
      "stateMutability": "view",
      "type": "function"
    },
    {
      "inputs": [],
      "name": "getInteractionsAddr",
      "outputs": [
        {
          "internalType": "address",
          "name": "",
          "type": "address"
        }
      ],
      "stateMutability": "view",
      "type": "function"
    },
    {
      "inputs": [
        {
          "internalType": "address",
          "name": "member",
          "type": "address"
        }
      ],
      "name": "getInteractionsPerUser",
      "outputs": [
        {
          "internalType": "uint256",
          "name": "",
          "type": "uint256"
        }
      ],
      "stateMutability": "view",
      "type": "function"
    },
    {
      "inputs": [],
      "name": "getURLs",
      "outputs": [
        {
          "internalType": "string[]",
          "name": "",
          "type": "string[]"
        }
      ],
      "stateMutability": "view",
      "type": "function"
    },
    {
      "inputs": [
        {
          "internalType": "address",
          "name": "",
          "type": "address"
        }
      ],
      "name": "isAdmin",
      "outputs": [
        {
          "internalType": "bool",
          "name": "",
          "type": "bool"
        }
      ],
      "stateMutability": "view",
      "type": "function"
    },
    {
      "inputs": [
        {
          "internalType": "address",
          "name": "",
          "type": "address"
        }
      ],
      "name": "isMember",
      "outputs": [
        {
          "internalType": "bool",
          "name": "",
          "type": "bool"
        }
      ],
      "stateMutability": "view",
      "type": "function"
    },
    {
      "inputs": [
        {
          "internalType": "address",
          "name": "member",
          "type": "address"
        }
      ],
      "name": "isMemberOfOriginalDAO",
      "outputs": [
        {
          "internalType": "bool",
          "name": "",
          "type": "bool"
        }
      ],
      "stateMutability": "view",
      "type": "function"
    },
    {
      "inputs": [
        {
          "internalType": "uint256",
          "name": "moduleId",
          "type": "uint256"
        }
      ],
      "name": "isModuleActivated",
      "outputs": [
        {
          "internalType": "bool",
          "name": "",
          "type": "bool"
        }
      ],
      "stateMutability": "view",
      "type": "function"
    },
    {
      "inputs": [
        {
          "internalType": "string",
          "name": "_url",
          "type": "string"
        }
      ],
      "name": "isURLListed",
      "outputs": [
        {
          "internalType": "bool",
          "name": "",
          "type": "bool"
        }
      ],
      "stateMutability": "view",
      "type": "function"
    },
    {
      "inputs": [
        {
          "internalType": "address",
          "name": "newMember",
          "type": "address"
        },
        {
          "internalType": "uint256",
          "name": "role",
          "type": "uint256"
        }
      ],
      "name": "join",
      "outputs": [],
      "stateMutability": "nonpayable",
      "type": "function"
    },
    {
      "inputs": [],
      "name": "market",
      "outputs": [
        {
          "internalType": "uint256",
          "name": "",
          "type": "uint256"
        }
      ],
      "stateMutability": "view",
      "type": "function"
    },
    {
      "inputs": [],
      "name": "memberCount",
      "outputs": [
        {
          "internalType": "uint256",
          "name": "",
          "type": "uint256"
        }
      ],
      "stateMutability": "view",
      "type": "function"
    },
    {
      "inputs": [
        {
          "internalType": "uint256",
          "name": "",
          "type": "uint256"
        }
      ],
      "name": "members",
      "outputs": [
        {
          "internalType": "address",
          "name": "",
          "type": "address"
        }
      ],
      "stateMutability": "view",
      "type": "function"
    },
    {
      "inputs": [],
      "name": "metadataUrl",
      "outputs": [
        {
          "internalType": "string",
          "name": "",
          "type": "string"
        }
      ],
      "stateMutability": "view",
      "type": "function"
    },
    {
      "inputs": [],
      "name": "pluginRegistry",
      "outputs": [
        {
          "internalType": "address",
          "name": "",
          "type": "address"
        }
      ],
      "stateMutability": "view",
      "type": "function"
    },
    {
      "inputs": [
        {
          "internalType": "address",
          "name": "member",
          "type": "address"
        }
      ],
      "name": "removeAdmin",
      "outputs": [],
      "stateMutability": "nonpayable",
      "type": "function"
    },
    {
      "inputs": [
        {
          "internalType": "string",
          "name": "url",
          "type": "string"
        }
      ],
      "name": "removeURL",
      "outputs": [],
      "stateMutability": "nonpayable",
      "type": "function"
    },
    {
      "inputs": [
        {
          "internalType": "uint256",
          "name": "commitment",
          "type": "uint256"
        }
      ],
      "name": "setCommitment",
      "outputs": [],
      "stateMutability": "nonpayable",
      "type": "function"
    },
    {
      "inputs": [
        {
          "internalType": "string",
          "name": "metadata",
          "type": "string"
        }
      ],
      "name": "setMetadataUri",
      "outputs": [],
      "stateMutability": "nonpayable",
      "type": "function"
    },
    {
      "inputs": [
        {
          "internalType": "address",
          "name": "onboardingPlugin",
          "type": "address"
        }
      ],
      "name": "setOnboardingStrategy",
      "outputs": [],
      "stateMutability": "nonpayable",
      "type": "function"
    }
  ],
  "bytecode": {
    "object": "0x60806040523480156200001157600080fd5b5060405162002edd38038062002edd833981016040819052620000349162000683565b6001600160a01b038516620000905760405162461bcd60e51b815260206004820152601360248201527f4d697373696e672044414f20416464726573730000000000000000000000000060448201526064015b60405180910390fd5b6001600160a01b038716620000e85760405162461bcd60e51b815260206004820152601960248201527f4d697373696e672044414f205479706573206164647265737300000000000000604482015260640162000087565b604051634bcd303f60e11b8152600481018790526000906001600160a01b0389169063979a607e90602401602060405180830381865afa15801562000131573d6000803e3d6000fd5b505050506040513d601f19601f82011682018060405250810190620001579190620007d7565b6001600160a01b031603620001af5760405162461bcd60e51b815260206004820152601760248201527f496e76616c6964206d656d626572736869702074797065000000000000000000604482015260640162000087565b604051634bcd303f60e11b8152600481018790526001600160a01b0388169063979a607e90602401602060405180830381865afa158015620001f5573d6000803e3d6000fd5b505050506040513d601f19601f820116820180604052508101906200021b9190620007d7565b6040516307358f4160e31b81526001600160a01b0387811660048301528b8116602483015291909116906339ac7a0890604401602060405180830381865afa1580156200026c573d6000803e3d6000fd5b505050506040513d601f19601f82011682018060405250810190620002929190620007fc565b620002e05760405162461bcd60e51b815260206004820181905260248201527f41757449443a204e6f742061206d656d626572206f6620746869732044414f21604482015260640162000087565b6040805180820182528781526001600160a01b038781166020928301819052600d8a9055600e80546001600160a01b031990811690921790558c821660008181526004909452938320805460ff191660019081179091556003805491820181559093527fc2575a0e9e593c00f959f8c92f12db2869c3395a3b0502d05e2516446f71f85b90920180548316909317909255600f80549091169189169190911790556200038c84620003e1565b600080546001600160a01b0319166001600160a01b038a16179055620003b28262000462565b620003bd83620004e7565b620003c762000563565b620003d281620005c8565b5050505050505050506200097b565b600081118015620003f25750600481105b620004315760405162461bcd60e51b815260206004820152600e60248201526d1a5b9d985b1a59081b585c9ad95d60921b604482015260640162000087565b600a8190556040517f4086cd87c923de65497ff5918262360a3284451fdc7ee5597eaa90abaf2345f490600090a150565b600081118015620004735750600b81105b620004b65760405162461bcd60e51b81526020600482015260126024820152711a5b9d985b1a590818dbdb5b5a5d1b595b9d60721b604482015260640162000087565b60098190556040517f6e94e6036cb0a3a2ee59e8687248332f61e0e9c059b4946908091e2ff873649f90600090a150565b6000815111620005285760405162461bcd60e51b815260206004820152600b60248201526a1a5b9d985b1a59081d5c9b60aa1b604482015260640162000087565b6007620005368282620008af565b506040517fd7a0756058a289c0ef8ae9d83008cd5710c64575760271d6f2af16f7b4af140190600090a150565b6008546001600160a01b0316156200057a57600080fd5b604051620005889062000642565b604051809103906000f080158015620005a5573d6000803e3d6000fd5b50600880546001600160a01b0319166001600160a01b0392909216919091179055565b6001600160a01b038116620006205760405162461bcd60e51b815260206004820152601660248201527f696e76616c696420706c7567696e526567697374727900000000000000000000604482015260640162000087565b600b80546001600160a01b0319166001600160a01b0392909216919091179055565b6105cd806200291083390190565b80516001600160a01b03811681146200066857600080fd5b919050565b634e487b7160e01b600052604160045260246000fd5b60008060008060008060008060006101208a8c031215620006a357600080fd5b620006ae8a62000650565b9850620006be60208b0162000650565b9750620006ce60408b0162000650565b965060608a01519550620006e560808b0162000650565b60a08b015160c08c015191965094506001600160401b03808211156200070a57600080fd5b818c0191508c601f8301126200071f57600080fd5b8151818111156200073457620007346200066d565b604051601f8201601f19908116603f011681019083821181831017156200075f576200075f6200066d565b816040528281528f60208487010111156200077957600080fd5b600093505b82841015620007a15760208486010151602085830101526020840193506200077e565b600060208483010152809750505050505060e08a01519150620007c86101008b0162000650565b90509295985092959850929598565b600060208284031215620007ea57600080fd5b620007f58262000650565b9392505050565b6000602082840312156200080f57600080fd5b81518015158114620007f557600080fd5b600181811c908216806200083557607f821691505b6020821081036200085657634e487b7160e01b600052602260045260246000fd5b50919050565b601f821115620008aa57600081815260208120601f850160051c81016020861015620008855750805b601f850160051c820191505b81811015620008a65782815560010162000891565b5050505b505050565b81516001600160401b03811115620008cb57620008cb6200066d565b620008e381620008dc845462000820565b846200085c565b602080601f8311600181146200091b5760008415620009025750858301515b600019600386901b1c1916600185901b178555620008a6565b600085815260208120601f198616915b828110156200094c578886015182559484019460019091019084016200092b565b50858210156200096b5787850151600019600388901b60f8161c191681555b5050505050600190811b01905550565b611f85806200098b6000396000f3fe608060405234801561001057600080fd5b50600436106101da5760003560e01c806369130c8d116101045780639c54df64116100a2578063be9cd05211610071578063be9cd052146103fb578063cd29c71a1461040e578063d103449c14610423578063db83814e1461043657600080fd5b80639c54df641461039f578063a230c524146103b2578063b5a8a3a1146103d5578063be739311146103e857600080fd5b806380f55605116100de57806380f556051461035f578063810e8c041461036857806388098e3a1461037b5780638e99076a1461038c57600080fd5b806369130c8d1461033157806370480275146103445780637c0f6b351461035757600080fd5b806324d7806c1161017c57806341dcea911161014b57806341dcea91146102e757806348394873146102fa5780635daf08ca1461030b57806368839d281461031e57600080fd5b806324d7806c146102945780632a79c611146102b757806331ae450b146102bf5780633b4da69f146102d457600080fd5b806311aee380116101b857806311aee3801461022f57806314bfd6d0146102415780631785f53c1461026c578063206110db1461027f57600080fd5b806303ffe330146101df57806310972e90146102075780631130630c1461021a575b600080fd5b6101f26101ed3660046118ae565b61048b565b60405190151581526020015b60405180910390f35b6101f26102153660046118da565b610695565b61022d61022836600461198b565b6106eb565b005b6001545b6040519081526020016101fe565b61025461024f3660046118da565b61072f565b6040516001600160a01b0390911681526020016101fe565b61022d61027a366004611a0b565b610759565b61028761087b565b6040516101fe9190611a7f565b6101f26102a2366004611a0b565b60046020526000908152604090205460ff1681565b600954610233565b6102c7610954565b6040516101fe9190611ae1565b61022d6102e23660046118ae565b6109b6565b600b54610254906001600160a01b031681565b6008546001600160a01b0316610254565b6102546103193660046118da565b610a4f565b6101f261032c36600461198b565b610a5f565b61022d61033f3660046118da565b610ade565b61022d610352366004611a0b565b610b16565b6102c7610c32565b610233600a5481565b61022d61037636600461198b565b610c92565b6000546001600160a01b0316610254565b6101f261039a366004611a0b565b610cca565b6102c76103ad366004611b2e565b610db1565b6101f26103c0366004611a0b565b60026020526000908152604090205460ff1681565b61022d6103e3366004611a0b565b610fae565b6102336103f6366004611a0b565b610fff565b61022d6104093660046118da565b61106e565b6104166110a6565b6040516101fe9190611be0565b61022d61043136600461198b565b611134565b60408051808201825260008082526020918201528151808301909252600d548252600e546001600160a01b03169082015260408051825181526020928301516001600160a01b031692810192909252016101fe565b6010546000906001600160a01b03166105bd576104a783610cca565b806105b657506010546001600160a01b0316158015906105395750601060009054906101000a90046001600160a01b03166001600160a01b03166322f3e2d46040518163ffffffff1660e01b8152600401602060405180830381865afa158015610515573d6000803e3d6000fd5b505050506040513d601f19601f820116820180604052508101906105399190611bf3565b80156105b65750601054604051634f2b51c760e01b81526001600160a01b0385811660048301526024820185905290911690634f2b51c7906044015b602060405180830381865afa158015610592573d6000803e3d6000fd5b505050506040513d601f19601f820116820180604052508101906105b69190611bf3565b905061068f565b6010546001600160a01b0316158015906106495750601060009054906101000a90046001600160a01b03166001600160a01b03166322f3e2d46040518163ffffffff1660e01b8152600401602060405180830381865afa158015610625573d6000803e3d6000fd5b505050506040513d601f19601f820116820180604052508101906106499190611bf3565b156106565750600061068f565b601054604051634f2b51c760e01b81526001600160a01b0385811660048301526024820185905290911690634f2b51c790604401610575565b92915050565b6000805b600c548110156106e25782600c82815481106106b7576106b7611c15565b9060005260206000200154036106d05750600192915050565b806106da81611c41565b915050610699565b50600092915050565b3360009081526004602052604090205460ff166107235760405162461bcd60e51b815260040161071a90611c5a565b60405180910390fd5b61072c8161116c565b50565b6003818154811061073f57600080fd5b6000918252602090912001546001600160a01b0316905081565b3360009081526004602052604090205460ff166107885760405162461bcd60e51b815260040161071a90611c5a565b60005b60035481101561082257816001600160a01b0316600382815481106107b2576107b2611c15565b6000918252602090912001546001600160a01b031603610810576000600382815481106107e1576107e1611c15565b9060005260206000200160006101000a8154816001600160a01b0302191690836001600160a01b031602179055505b8061081a81611c41565b91505061078b565b506001600160a01b038116600081815260046020908152604091829020805460ff1916905590519182527ffa8ae95b9a4f666c3b5f27d11b5c2b9fe1045279f674e7a78ca8b087cba3802591015b60405180910390a150565b60606005805480602002602001604051908101604052809291908181526020016000905b8282101561094b5783829060005260206000200180546108be90611c81565b80601f01602080910402602001604051908101604052809291908181526020018280546108ea90611c81565b80156109375780601f1061090c57610100808354040283529160200191610937565b820191906000526020600020905b81548152906001019060200180831161091a57829003601f168201915b50505050508152602001906001019061089f565b50505050905090565b606060038054806020026020016040519081016040528092919081815260200182805480156109ac57602002820191906000526020600020905b81546001600160a01b0316815260019091019060200180831161098e575b5050505050905090565b6000546001600160a01b031633146109fd5760405162461bcd60e51b815260206004820152600a60248201526913db9b1e48105d5d125160b21b604482015260640161071a565b610a07828261048b565b610a415760405162461bcd60e51b815260206004820152600b60248201526a1b9bdd08185b1b1bddd95960aa1b604482015260640161071a565b610a4b82826111e4565b5050565b6001818154811061073f57600080fd5b6005546000908103610a7357506000919050565b81516020808401919091206000818152600690925260409091205415610a9c5750600192915050565b806005600081548110610ab157610ab1611c15565b90600052602060002001604051610ac89190611cbb565b6040518091039020036106e25750600192915050565b3360009081526004602052604090205460ff16610b0d5760405162461bcd60e51b815260040161071a90611c5a565b61072c81611316565b3360009081526004602052604090205460ff16610b455760405162461bcd60e51b815260040161071a90611c5a565b6001600160a01b03811660009081526002602052604090205460ff16610b9c5760405162461bcd60e51b815260206004820152600c60248201526b2737ba10309036b2b6b132b960a11b604482015260640161071a565b6001600160a01b0381166000818152600460209081526040808320805460ff191660019081179091556003805491820181559093527fc2575a0e9e593c00f959f8c92f12db2869c3395a3b0502d05e2516446f71f85b90920180546001600160a01b0319168417905590519182527fa06b993f17e63959ef40ec8755fc98020c50e9d2794ce5fc0886a7792a9fbaec9101610870565b606060018054806020026020016040519081016040528092919081815260200182805480156109ac576020028201919060005260206000209081546001600160a01b0316815260019091019060200180831161098e575050505050905090565b3360009081526004602052604090205460ff16610cc15760405162461bcd60e51b815260040161071a90611c5a565b61072c816114a3565b600f54600d54604051634bcd303f60e11b815260048101919091526000916001600160a01b03169063979a607e90602401602060405180830381865afa158015610d18573d6000803e3d6000fd5b505050506040513d601f19601f82011682018060405250810190610d3c9190611d31565b600e546040516307358f4160e31b81526001600160a01b03918216600482015284821660248201529116906339ac7a0890604401602060405180830381865afa158015610d8d573d6000803e3d6000fd5b505050506040513d601f19601f8201168201806040525081019061068f9190611bf3565b3360009081526004602052604090205460609060ff16610de35760405162461bcd60e51b815260040161071a90611c5a565b60005b8251811015610fa75760026000848381518110610e0557610e05611c15565b6020908102919091018101516001600160a01b031682528101919091526040016000205460ff16610e5757828181518110610e4257610e42611c15565b60006020918202929092010152600101610de6565b60046000848381518110610e6d57610e6d611c15565b6020908102919091018101516001600160a01b031682528101919091526040016000205460ff16610f9f576003838281518110610eac57610eac611c15565b60209081029190910181015182546001808201855560009485529284200180546001600160a01b0319166001600160a01b0390921691909117905584519091600491869085908110610f0057610f00611c15565b60200260200101516001600160a01b03166001600160a01b0316815260200190815260200160002060006101000a81548160ff0219169083151502179055507fa06b993f17e63959ef40ec8755fc98020c50e9d2794ce5fc0886a7792a9fbaec838281518110610f7257610f72611c15565b6020026020010151604051610f9691906001600160a01b0391909116815260200190565b60405180910390a15b600101610de6565b5090919050565b3360009081526004602052604090205460ff16610fdd5760405162461bcd60e51b815260040161071a90611c5a565b601080546001600160a01b0319166001600160a01b0392909216919091179055565b600854604051636f4885b560e01b81526001600160a01b0383811660048301526000921690636f4885b590602401602060405180830381865afa15801561104a573d6000803e3d6000fd5b505050506040513d601f19601f8201168201806040525081019061068f9190611d4e565b3360009081526004602052604090205460ff1661109d5760405162461bcd60e51b815260040161071a90611c5a565b61072c816116a3565b600780546110b390611c81565b80601f01602080910402602001604051908101604052809291908181526020018280546110df90611c81565b801561112c5780601f106111015761010080835404028352916020019161112c565b820191906000526020600020905b81548152906001019060200180831161110f57829003601f168201915b505050505081565b3360009081526004602052604090205460ff166111635760405162461bcd60e51b815260040161071a90611c5a565b61072c81611725565b60008151116111ab5760405162461bcd60e51b815260206004820152600b60248201526a1a5b9d985b1a59081d5c9b60aa1b604482015260640161071a565b60076111b78282611db6565b506040517fd7a0756058a289c0ef8ae9d83008cd5710c64575760271d6f2af16f7b4af140190600090a150565b6000546001600160a01b0316331461122b5760405162461bcd60e51b815260206004820152600a60248201526913db9b1e48105d5d125160b21b604482015260640161071a565b6001600160a01b03821660009081526002602052604090205460ff16156112875760405162461bcd60e51b815260206004820152601060248201526f20b63932b0b23c90309036b2b6b132b960811b604482015260640161071a565b6001600160a01b038216600081815260026020526040808220805460ff19166001908117909155805480820182559083527fb10e2d527612073b26eecdfd717e6a320cf44b4afac2b0732d9fcbe2b7fa0cf60180546001600160a01b03191690931790925590517f94d9b0a056867efca93631b338c7fde3befc3f54db36b90b8456b069385c30be9190a15050565b600b5460408051631055995d60e31b815290516000926001600160a01b0316916382accae89160048083019260209291908290030181865afa158015611360573d6000803e3d6000fd5b505050506040513d601f19601f820116820180604052508101906113849190611d31565b6040516339076b2160e11b8152600481018490529091506000906001600160a01b0383169063720ed64290602401600060405180830381865afa1580156113cf573d6000803e3d6000fd5b505050506040513d6000823e601f3d908101601f191682016040526113f79190810190611e76565b5151116114375760405162461bcd60e51b815260206004820152600e60248201526d696e76616c6964206d6f64756c6560901b604482015260640161071a565b600c80546001810182556000919091527fdf6966c971051c3d54ec59162606531493a51404a002842f56009d7e5cf4a8c7018290556040518281527fc1866ccaad33ac161f17d9db7a528f0c819a376e1cad17ba2d5c9b49a7eba2cd9060200160405180910390a15050565b6114ac81610a5f565b6114eb5760405162461bcd60e51b815260206004820152601060248201526f1d5c9b08191bd95cdb9d08195e1a5cdd60821b604482015260640161071a565b80516020808301919091206000818152600690925260409091205460055461151590600190611f26565b811461162657600580546000919061152f90600190611f26565b8154811061153f5761153f611c15565b90600052602060002001805461155490611c81565b80601f016020809104026020016040519081016040528092919081815260200182805461158090611c81565b80156115cd5780601f106115a2576101008083540402835291602001916115cd565b820191906000526020600020905b8154815290600101906020018083116115b057829003601f168201915b50505050509050600081805190602001209050826006600083815260200190815260200160002081905550816005848154811061160c5761160c611c15565b9060005260206000200190816116229190611db6565b5050505b600580548061163757611637611f39565b600190038181906000526020600020016000611653919061184b565b905560008281526006602052604080822091909155517f906b87aebf1e5cc40a1cebd6811c88addf04309f8c8ce71c7d6449d343e4ad0990611696908590611be0565b60405180910390a1505050565b6000811180156116b35750600b81105b6116f45760405162461bcd60e51b81526020600482015260126024820152711a5b9d985b1a590818dbdb5b5a5d1b595b9d60721b604482015260640161071a565b60098190556040517f6e94e6036cb0a3a2ee59e8687248332f61e0e9c059b4946908091e2ff873649f90600090a150565b805160208201206005546000901561178d57600082815260066020526040902054151580611784575081600560008154811061176357611763611c15565b9060005260206000200160405161177a9190611cbb565b6040518091039020145b1561178d575060015b80156117d05760405162461bcd60e51b815260206004820152601260248201527175726c20616c72656164792065786973747360701b604482015260640161071a565b600580546000848152600660205260408120829055600182018355919091527f036b6384b5eca791c62761152d0c79bb0604c104a5fb6f4eb0703f3154bb3db00161181b8482611db6565b507f21d5cca3f840791ade736f51501810c14b8b01791ac4357713ed763ccbbaf3a9836040516116969190611be0565b50805461185790611c81565b6000825580601f10611867575050565b601f01602090049060005260206000209081019061072c91905b808211156118955760008155600101611881565b5090565b6001600160a01b038116811461072c57600080fd5b600080604083850312156118c157600080fd5b82356118cc81611899565b946020939093013593505050565b6000602082840312156118ec57600080fd5b5035919050565b634e487b7160e01b600052604160045260246000fd5b6040805190810167ffffffffffffffff8111828210171561192c5761192c6118f3565b60405290565b604051601f8201601f1916810167ffffffffffffffff8111828210171561195b5761195b6118f3565b604052919050565b600067ffffffffffffffff82111561197d5761197d6118f3565b50601f01601f191660200190565b60006020828403121561199d57600080fd5b813567ffffffffffffffff8111156119b457600080fd5b8201601f810184136119c557600080fd5b80356119d86119d382611963565b611932565b8181528560208385010111156119ed57600080fd5b81602084016020830137600091810160200191909152949350505050565b600060208284031215611a1d57600080fd5b8135611a2881611899565b9392505050565b60005b83811015611a4a578181015183820152602001611a32565b50506000910152565b60008151808452611a6b816020860160208601611a2f565b601f01601f19169290920160200192915050565b6000602080830181845280855180835260408601915060408160051b870101925083870160005b82811015611ad457603f19888603018452611ac2858351611a53565b94509285019290850190600101611aa6565b5092979650505050505050565b6020808252825182820181905260009190848201906040850190845b81811015611b225783516001600160a01b031683529284019291840191600101611afd565b50909695505050505050565b60006020808385031215611b4157600080fd5b823567ffffffffffffffff80821115611b5957600080fd5b818501915085601f830112611b6d57600080fd5b813581811115611b7f57611b7f6118f3565b8060051b9150611b90848301611932565b8181529183018401918481019088841115611baa57600080fd5b938501935b83851015611bd45784359250611bc483611899565b8282529385019390850190611baf565b98975050505050505050565b602081526000611a286020830184611a53565b600060208284031215611c0557600080fd5b81518015158114611a2857600080fd5b634e487b7160e01b600052603260045260246000fd5b634e487b7160e01b600052601160045260246000fd5b600060018201611c5357611c53611c2b565b5060010190565b6020808252600d908201526c4e6f7420616e2061646d696e2160981b604082015260600190565b600181811c90821680611c9557607f821691505b602082108103611cb557634e487b7160e01b600052602260045260246000fd5b50919050565b6000808354611cc981611c81565b60018281168015611ce15760018114611cf657611d25565b60ff1984168752821515830287019450611d25565b8760005260208060002060005b85811015611d1c5781548a820152908401908201611d03565b50505082870194505b50929695505050505050565b600060208284031215611d4357600080fd5b8151611a2881611899565b600060208284031215611d6057600080fd5b5051919050565b601f821115611db157600081815260208120601f850160051c81016020861015611d8e5750805b601f850160051c820191505b81811015611dad57828155600101611d9a565b5050505b505050565b815167ffffffffffffffff811115611dd057611dd06118f3565b611de481611dde8454611c81565b84611d67565b602080601f831160018114611e195760008415611e015750858301515b600019600386901b1c1916600185901b178555611dad565b600085815260208120601f198616915b82811015611e4857888601518255948401946001909101908401611e29565b5085821015611e665787850151600019600388901b60f8161c191681555b5050505050600190811b01905550565b60006020808385031215611e8957600080fd5b825167ffffffffffffffff80821115611ea157600080fd5b9084019060408287031215611eb557600080fd5b611ebd611909565b825182811115611ecc57600080fd5b83019150601f82018713611edf57600080fd5b8151611eed6119d382611963565b8181528886838601011115611f0157600080fd5b611f1082878301888701611a2f565b8252509183015192820192909252949350505050565b8181038181111561068f5761068f611c2b565b634e487b7160e01b600052603160045260246000fdfea264697066735822122061e61dec37b675c4ce32ba2955c1a769fbdcb329c342c89e3b3301f28c77dc3e64736f6c63430008130033608060405234801561001057600080fd5b50600480546001600160a01b0319163317905561059b806100326000396000f3fe608060405234801561001057600080fd5b50600436106100575760003560e01c80634162169f1461005c5780636f4885b51461008c578063a2501fe8146100c3578063b95adfce14610159578063c4a85bc11461016e575b600080fd5b60045461006f906001600160a01b031681565b6040516001600160a01b0390911681526020015b60405180910390f35b6100b561009a366004610492565b6001600160a01b031660009081526003602052604090205490565b604051908152602001610083565b6101296100d13660046104b6565b6040805160608082018352600080835260208084018290529284018190529384526002808352938390208351918201845280546001600160a01b03908116835260018201549383019390935290930154169082015290565b6040805182516001600160a01b039081168252602080850151908301529282015190921690820152606001610083565b61016c6101673660046104cf565b610181565b005b61016c61017c366004610492565b6102f9565b3360009081526001602052604090205460ff166101f15760405162461bcd60e51b8152602060048201526024808201527f4e6f7420616c6c6f77656420746f207472616e7366657220696e746572616374604482015263696f6e7360e01b60648201526084015b60405180910390fd5b604080516060810182526001600160a01b0383168152602081018490523391810191909152610224600080546001019055565b806002600061023260005490565b815260208082019290925260409081016000908120845181546001600160a01b03199081166001600160a01b0392831617835586860151600184015595840151600290920180549096169181169190911790945592851683526003909152812080549161029e836104ff565b90915550506001600160a01b038216600081815260036020908152604091829020548251938452908301527fc887608704f6b658625e6cdc3f620cd8d0729c8c4c9abd0171098159637bdf77910160405180910390a1505050565b60048054604051630935e01b60e21b815233928101929092526001600160a01b0316906324d7806c90602401602060405180830381865afa158015610342573d6000803e3d6000fd5b505050506040513d601f19601f820116820180604052508101906103669190610526565b806103e5575060048054604080516341dcea9160e01b8152905133936001600160a01b03909316926341dcea91928082019260209290918290030181865afa1580156103b6573d6000803e3d6000fd5b505050506040513d601f19601f820116820180604052508101906103da9190610548565b6001600160a01b0316145b61041f5760405162461bcd60e51b815260206004820152600b60248201526a139bdd08185b1b1bddd95960aa1b60448201526064016101e8565b6001600160a01b038116600081815260016020818152604092839020805460ff191690921790915590519182527f5d20d7597e8195aa92d4ad63482761cfbbe7c4afdef190f27182702924c9af77910160405180910390a150565b6001600160a01b038116811461048f57600080fd5b50565b6000602082840312156104a457600080fd5b81356104af8161047a565b9392505050565b6000602082840312156104c857600080fd5b5035919050565b600080604083850312156104e257600080fd5b8235915060208301356104f48161047a565b809150509250929050565b60006001820161051f57634e487b7160e01b600052601160045260246000fd5b5060010190565b60006020828403121561053857600080fd5b815180151581146104af57600080fd5b60006020828403121561055a57600080fd5b81516104af8161047a56fea26469706673582212200430b1faa79e72b87ff9274cfdc98631d659a6fca524a193e6e943aa4fc7442d64736f6c63430008130033",
    "linkReferences": {}
  },
  "methodIdentifiers": {
    "activateModule(uint256)": "69130c8d",
    "addAdmin(address)": "70480275",
    "addAdmins(address[])": "9c54df64",
    "addURL(string)": "d103449c",
    "admins(uint256)": "14bfd6d0",
    "canJoin(address,uint256)": "03ffe330",
    "getAdmins()": "31ae450b",
    "getAllMembers()": "7c0f6b35",
    "getAutIDAddress()": "88098e3a",
    "getCommitment()": "2a79c611",
    "getDAOData()": "db83814e",
    "getInteractionsAddr()": "48394873",
    "getInteractionsPerUser(address)": "be739311",
    "getURLs()": "206110db",
    "isAdmin(address)": "24d7806c",
    "isMember(address)": "a230c524",
    "isMemberOfOriginalDAO(address)": "8e99076a",
    "isModuleActivated(uint256)": "10972e90",
    "isURLListed(string)": "68839d28",
    "join(address,uint256)": "3b4da69f",
    "market()": "80f55605",
    "memberCount()": "11aee380",
    "members(uint256)": "5daf08ca",
    "metadataUrl()": "cd29c71a",
    "pluginRegistry()": "41dcea91",
    "removeAdmin(address)": "1785f53c",
    "removeURL(string)": "810e8c04",
    "setCommitment(uint256)": "be9cd052",
    "setMetadataUri(string)": "1130630c",
    "setOnboardingStrategy(address)": "b5a8a3a1"
  },
  "id": 39
}