{
  "abi": [
    {
      "inputs": [
        {
          "internalType": "address",
          "name": "dao",
          "type": "address"
        },
        {
          "internalType": "address",
          "name": "offchainVerifierAddress",
          "type": "address"
        }
      ],
      "stateMutability": "nonpayable",
      "type": "constructor"
    },
    {
      "inputs": [],
      "name": "FunctionInvalidAtThisStage",
      "type": "error"
    },
    {
      "inputs": [],
      "name": "FunctionNotImplemented",
      "type": "error"
    },
    {
      "anonymous": false,
      "inputs": [
        {
          "indexed": false,
          "internalType": "uint256",
          "name": "taskID",
          "type": "uint256"
        },
        {
          "indexed": false,
          "internalType": "string",
          "name": "uri",
          "type": "string"
        }
      ],
      "name": "TaskCreated",
      "type": "event"
    },
    {
      "anonymous": false,
      "inputs": [
        {
          "indexed": false,
          "internalType": "uint256",
          "name": "taskID",
          "type": "uint256"
        },
        {
          "indexed": false,
          "internalType": "string",
          "name": "uri",
          "type": "string"
        }
      ],
      "name": "TaskEdited",
      "type": "event"
    },
    {
      "anonymous": false,
      "inputs": [
        {
          "indexed": false,
          "internalType": "uint256",
          "name": "taskID",
          "type": "uint256"
        },
        {
          "indexed": false,
          "internalType": "address",
          "name": "taker",
          "type": "address"
        }
      ],
      "name": "TaskFinalized",
      "type": "event"
    },
    {
      "anonymous": false,
      "inputs": [
        {
          "indexed": false,
          "internalType": "uint256",
          "name": "taskID",
          "type": "uint256"
        },
        {
          "indexed": false,
          "internalType": "uint256",
          "name": "submissionId",
          "type": "uint256"
        }
      ],
      "name": "TaskSubmitted",
      "type": "event"
    },
    {
      "anonymous": false,
      "inputs": [
        {
          "indexed": false,
          "internalType": "uint256",
          "name": "taskID",
          "type": "uint256"
        },
        {
          "indexed": false,
          "internalType": "address",
          "name": "taker",
          "type": "address"
        }
      ],
      "name": "TaskTaken",
      "type": "event"
    },
    {
      "inputs": [],
      "name": "_offchainVerifierAddress",
      "outputs": [
        {
          "internalType": "address",
          "name": "",
          "type": "address"
        }
      ],
      "stateMutability": "view",
      "type": "function"
    },
    {
      "inputs": [
        {
          "internalType": "uint256",
          "name": "role",
          "type": "uint256"
        },
        {
          "internalType": "string",
          "name": "uri",
          "type": "string"
        },
        {
          "internalType": "uint256",
          "name": "startDate",
          "type": "uint256"
        },
        {
          "internalType": "uint256",
          "name": "endDate",
          "type": "uint256"
        }
      ],
      "name": "create",
      "outputs": [
        {
          "internalType": "uint256",
          "name": "",
          "type": "uint256"
        }
      ],
      "stateMutability": "nonpayable",
      "type": "function"
    },
    {
      "inputs": [
        {
          "internalType": "address",
          "name": "creator",
          "type": "address"
        },
        {
          "internalType": "uint256",
          "name": "role",
          "type": "uint256"
        },
        {
          "internalType": "string",
          "name": "uri",
          "type": "string"
        },
        {
          "internalType": "uint256",
          "name": "startDate",
          "type": "uint256"
        },
        {
          "internalType": "uint256",
          "name": "endDate",
          "type": "uint256"
        }
      ],
      "name": "createBy",
      "outputs": [
        {
          "internalType": "uint256",
          "name": "",
          "type": "uint256"
        }
      ],
      "stateMutability": "nonpayable",
      "type": "function"
    },
    {
      "inputs": [],
      "name": "daoAddress",
      "outputs": [
        {
          "internalType": "address",
          "name": "",
          "type": "address"
        }
      ],
      "stateMutability": "view",
      "type": "function"
    },
    {
      "inputs": [],
      "name": "deployer",
      "outputs": [
        {
          "internalType": "address",
          "name": "",
          "type": "address"
        }
      ],
      "stateMutability": "view",
      "type": "function"
    },
    {
      "inputs": [
        {
          "internalType": "uint256",
          "name": "taskId",
          "type": "uint256"
        },
        {
          "internalType": "uint256",
          "name": "role",
          "type": "uint256"
        },
        {
          "internalType": "string",
          "name": "uri",
          "type": "string"
        },
        {
          "internalType": "uint256",
          "name": "startDate",
          "type": "uint256"
        },
        {
          "internalType": "uint256",
          "name": "endDate",
          "type": "uint256"
        }
      ],
      "name": "editTask",
      "outputs": [],
      "stateMutability": "nonpayable",
      "type": "function"
    },
    {
      "inputs": [
        {
          "internalType": "uint256",
          "name": "taskId",
          "type": "uint256"
        }
      ],
      "name": "finalize",
      "outputs": [],
      "stateMutability": "nonpayable",
      "type": "function"
    },
    {
      "inputs": [
        {
          "internalType": "uint256",
          "name": "taskId",
          "type": "uint256"
        },
        {
          "internalType": "address",
          "name": "submitter",
          "type": "address"
        }
      ],
      "name": "finalizeFor",
      "outputs": [],
      "stateMutability": "nonpayable",
      "type": "function"
    },
    {
      "inputs": [
        {
          "internalType": "uint256",
          "name": "taskId",
          "type": "uint256"
        }
      ],
      "name": "getById",
      "outputs": [
        {
          "components": [
            {
              "internalType": "uint256",
              "name": "createdOn",
              "type": "uint256"
            },
            {
              "internalType": "address",
              "name": "creator",
              "type": "address"
            },
            {
              "internalType": "uint256",
              "name": "role",
              "type": "uint256"
            },
            {
              "internalType": "string",
              "name": "metadata",
              "type": "string"
            },
            {
              "internalType": "uint256",
              "name": "startDate",
              "type": "uint256"
            },
            {
              "internalType": "uint256",
              "name": "endDate",
              "type": "uint256"
            }
          ],
          "internalType": "struct TasksModule.Task",
          "name": "",
          "type": "tuple"
        }
      ],
      "stateMutability": "view",
      "type": "function"
    },
    {
      "inputs": [
        {
          "internalType": "uint256",
          "name": "taskId",
          "type": "uint256"
        },
        {
          "internalType": "address",
          "name": "user",
          "type": "address"
        }
      ],
      "name": "getCompletionTime",
      "outputs": [
        {
          "internalType": "uint256",
          "name": "",
          "type": "uint256"
        }
      ],
      "stateMutability": "view",
      "type": "function"
    },
    {
      "inputs": [
        {
          "internalType": "uint256",
          "name": "taskId",
          "type": "uint256"
        },
        {
          "internalType": "address",
          "name": "submitter",
          "type": "address"
        }
      ],
      "name": "getStatusPerSubmitter",
      "outputs": [
        {
          "internalType": "enum TasksModule.TaskStatus",
          "name": "",
          "type": "uint8"
        }
      ],
      "stateMutability": "view",
      "type": "function"
    },
    {
      "inputs": [
        {
          "internalType": "address",
          "name": "user",
          "type": "address"
        },
        {
          "internalType": "uint256",
          "name": "taskId",
          "type": "uint256"
        }
      ],
      "name": "hasCompletedTheTask",
      "outputs": [
        {
          "internalType": "bool",
          "name": "",
          "type": "bool"
        }
      ],
      "stateMutability": "view",
      "type": "function"
    },
    {
      "inputs": [],
      "name": "idCounter",
      "outputs": [
        {
          "internalType": "uint256",
          "name": "_value",
          "type": "uint256"
        }
      ],
      "stateMutability": "view",
      "type": "function"
    },
    {
      "inputs": [],
      "name": "isActive",
      "outputs": [
        {
          "internalType": "bool",
          "name": "",
          "type": "bool"
        }
      ],
      "stateMutability": "view",
      "type": "function"
    },
    {
      "inputs": [],
      "name": "moduleId",
      "outputs": [
        {
          "internalType": "uint256",
          "name": "",
          "type": "uint256"
        }
      ],
      "stateMutability": "view",
      "type": "function"
    },
    {
      "inputs": [],
      "name": "owner",
      "outputs": [
        {
          "internalType": "address",
          "name": "",
          "type": "address"
        }
      ],
      "stateMutability": "view",
      "type": "function"
    },
    {
      "inputs": [],
      "name": "pluginId",
      "outputs": [
        {
          "internalType": "uint256",
          "name": "",
          "type": "uint256"
        }
      ],
      "stateMutability": "view",
      "type": "function"
    },
    {
      "inputs": [],
      "name": "pluginRegistry",
      "outputs": [
        {
          "internalType": "address",
          "name": "",
          "type": "address"
        }
      ],
      "stateMutability": "view",
      "type": "function"
    },
    {
      "inputs": [
        {
          "internalType": "address",
          "name": "offchainVerifierAddress",
          "type": "address"
        }
      ],
      "name": "setOffchainVerifierAddress",
      "outputs": [],
      "stateMutability": "nonpayable",
      "type": "function"
    },
    {
      "inputs": [
        {
          "internalType": "uint256",
          "name": "tokenId",
          "type": "uint256"
        }
      ],
      "name": "setPluginId",
      "outputs": [],
      "stateMutability": "nonpayable",
      "type": "function"
    },
    {
      "inputs": [
        {
          "internalType": "uint256",
          "name": "taskId",
          "type": "uint256"
        },
        {
          "internalType": "string",
          "name": "submitionUrl",
          "type": "string"
        }
      ],
      "name": "submit",
      "outputs": [],
      "stateMutability": "nonpayable",
      "type": "function"
    },
    {
      "inputs": [
        {
          "internalType": "uint256",
          "name": "taskId",
          "type": "uint256"
        }
      ],
      "name": "take",
      "outputs": [],
      "stateMutability": "nonpayable",
      "type": "function"
    },
    {
      "inputs": [
        {
          "internalType": "uint256",
          "name": "",
          "type": "uint256"
        }
      ],
      "name": "tasks",
      "outputs": [
        {
          "internalType": "uint256",
          "name": "createdOn",
          "type": "uint256"
        },
        {
          "internalType": "address",
          "name": "creator",
          "type": "address"
        },
        {
          "internalType": "uint256",
          "name": "role",
          "type": "uint256"
        },
        {
          "internalType": "string",
          "name": "metadata",
          "type": "string"
        },
        {
          "internalType": "uint256",
          "name": "startDate",
          "type": "uint256"
        },
        {
          "internalType": "uint256",
          "name": "endDate",
          "type": "uint256"
        }
      ],
      "stateMutability": "view",
      "type": "function"
    }
  ],
  "bytecode": {
    "object": "0x60806040523480156200001157600080fd5b5060405162001ad638038062001ad6833981016040819052620000349162000252565b81600081600160006101000a8154816001600160a01b0302191690836001600160a01b03160217905550816001600160a01b03166341dcea916040518163ffffffff1660e01b8152600401602060405180830381865afa1580156200009d573d6000803e3d6000fd5b505050506040513d601f19601f82011682018060405250810190620000c391906200028a565b600480546001600160a01b0392831661010002610100600160a81b0319909116179055600080546001600160a01b031990811633178255600393909355600780548684169085161790556040805160c08101825282815260208082018481528284018581528451928301909452848252606083019182526080830185905260a083018590526006805460018101825595819052835195027ff652222313e28459528d920b65115c16c04f3efc82aaedc97be59f3f377c0d3f810195865590517ff652222313e28459528d920b65115c16c04f3efc82aaedc97be59f3f377c0d40820180549190971697169690961790945590517ff652222313e28459528d920b65115c16c04f3efc82aaedc97be59f3f377c0d418501559151919350917ff652222313e28459528d920b65115c16c04f3efc82aaedc97be59f3f377c0d4201906200020f908262000354565b506080820151600482015560a09091015160059182015580546001019055505062000420565b80516001600160a01b03811681146200024d57600080fd5b919050565b600080604083850312156200026657600080fd5b620002718362000235565b9150620002816020840162000235565b90509250929050565b6000602082840312156200029d57600080fd5b620002a88262000235565b9392505050565b634e487b7160e01b600052604160045260246000fd5b600181811c90821680620002da57607f821691505b602082108103620002fb57634e487b7160e01b600052602260045260246000fd5b50919050565b601f8211156200034f57600081815260208120601f850160051c810160208610156200032a5750805b601f850160051c820191505b818110156200034b5782815560010162000336565b5050505b505050565b81516001600160401b03811115620003705762000370620002af565b6200038881620003818454620002c5565b8462000301565b602080601f831160018114620003c05760008415620003a75750858301515b600019600386901b1c1916600185901b1785556200034b565b600085815260208120601f198616915b82811015620003f157888601518255948401946001909101908401620003d0565b5085821015620004105787850151600019600388901b60f8161c191681555b5050505050600190811b01905550565b6116a680620004306000396000f3fe608060405234801561001057600080fd5b506004361061014d5760003560e01c80638da5cb5b116100c3578063bd45a0a91161007c578063bd45a0a9146102dc578063d5f39488146102ef578063daf9113714610300578063e31c007f14610313578063eb08ab2814610349578063f4f4d2371461035357600080fd5b80638da5cb5b14610249578063969bb3a814610251578063973cdc7814610264578063a1308f2714610277578063afb9992814610280578063b206b5691461029357600080fd5b80632b086648116101155780632b086648146101e25780632fe7e441146101f557806341dcea91146101fe5780634fd9efc4146101675780635d63f6c6146102165780638d9776721461022457600080fd5b806302a4dca01461015257806305261aea146101675780630bb75b451461017a5780632131c68c146101a057806322f3e2d4146101c5575b600080fd5b610165610160366004611075565b610373565b005b610165610175366004611075565b6103d3565b61018d610188366004611149565b6103ec565b6040519081526020015b60405180910390f35b6001546001600160a01b03165b6040516001600160a01b039091168152602001610197565b6004546101d29060ff1681565b6040519015158152602001610197565b6101656101f03660046111b4565b6105c5565b61018d60025481565b6004546101ad9061010090046001600160a01b031681565b6101656101753660046111f1565b610237610232366004611075565b610805565b604051610197969594939291906112b3565b6101ad6108e3565b6007546101ad906001600160a01b031681565b6101d26102723660046112f5565b61095e565b61018d60035481565b61016561028e366004611321565b6109a4565b6102cf6102a1366004611345565b60009182526008602090815260408084206001600160a01b0393909316845291905290206001015460ff1690565b604051610197919061138b565b61018d6102ea3660046113b3565b610a4e565b6000546001600160a01b03166101ad565b61016561030e366004611345565b610cad565b61018d610321366004611345565b60009182526008602090815260408084206001600160a01b0393909316845291905290205490565b60055461018d9081565b610366610361366004611075565b610f17565b604051610197919061140a565b60045461010090046001600160a01b031633146103ce5760405162461bcd60e51b81526020600482015260146024820152734f6e6c7920706c7567696e20726567697374727960601b60448201526064015b60405180910390fd5b600255565b60405163ced4f63360e01b815260040160405180910390fd5b600042821161042f5760405162461bcd60e51b815260206004820152600f60248201526e496e76616c696420656e644461746560881b60448201526064016103c5565b60008451116104505760405162461bcd60e51b81526004016103c59061146c565b600061045b60055490565b6040805160c0810182524281526001600160a01b03808b16602083019081529282018a8152606083018a8152608084018a905260a08401899052600680546001810182556000829052855191027ff652222313e28459528d920b65115c16c04f3efc82aaedc97be59f3f377c0d3f810191825595517ff652222313e28459528d920b65115c16c04f3efc82aaedc97be59f3f377c0d4087018054919095166001600160a01b03199091161790935590517ff652222313e28459528d920b65115c16c04f3efc82aaedc97be59f3f377c0d4185015551939450909290917ff652222313e28459528d920b65115c16c04f3efc82aaedc97be59f3f377c0d4201906105649082611515565b506080820151600482015560a090910151600591820155805460010190557fa5ed9e6226c584326505694539c95cb0e3238ae09bcda5a65c00bbfdab1c666281866040516105b39291906115d5565b60405180910390a19695505050505050565b600154604051630935e01b60e21b81523360048201526001600160a01b03909116906324d7806c90602401602060405180830381865afa15801561060d573d6000803e3d6000fd5b505050506040513d601f19601f8201168201806040525081019061063191906115f6565b61064d5760405162461bcd60e51b81526004016103c590611618565b42600686815481106106615761066161163d565b906000526020600020906006020160040154116106b75760405162461bcd60e51b81526020600482015260146024820152731d185cdac8185b1c9958591e481cdd185c9d195960621b60448201526064016103c5565b60008351116106d85760405162461bcd60e51b81526004016103c59061146c565b60055485106107185760405162461bcd60e51b815260206004820152600c60248201526b696e76616c6964207461736b60a01b60448201526064016103c5565b836006868154811061072c5761072c61163d565b90600052602060002090600602016002018190555082600686815481106107555761075561163d565b906000526020600020906006020160030190816107729190611515565b5081600686815481106107875761078761163d565b90600052602060002090600602016004018190555080600686815481106107b0576107b061163d565b9060005260206000209060060201600501819055507f126a0ea5197c062eb92c789989294eb8d2aef31cf41fd012da26dfab98b29a1685846040516107f69291906115d5565b60405180910390a15050505050565b6006818154811061081557600080fd5b600091825260209091206006909102018054600182015460028301546003840180549395506001600160a01b039092169390929091906108549061148c565b80601f01602080910402602001604051908101604052809291908181526020018280546108809061148c565b80156108cd5780601f106108a2576101008083540402835291602001916108cd565b820191906000526020600020905b8154815290600101906020018083116108b057829003601f168201915b5050505050908060040154908060050154905086565b6004805460405163235883e360e01b815230928101929092526000916101009091046001600160a01b03169063235883e390602401602060405180830381865afa158015610935573d6000803e3d6000fd5b505050506040513d601f19601f820116820180604052508101906109599190611653565b905090565b6000600360008381526008602090815260408083206001600160a01b038816845290915290206001015460ff16600381111561099c5761099c611375565b149392505050565b600154604051630935e01b60e21b81523360048201526001600160a01b03909116906324d7806c90602401602060405180830381865afa1580156109ec573d6000803e3d6000fd5b505050506040513d601f19601f82011682018060405250810190610a1091906115f6565b610a2c5760405162461bcd60e51b81526004016103c590611618565b600780546001600160a01b0319166001600160a01b0392909216919091179055565b600154604051630935e01b60e21b81523360048201526000916001600160a01b0316906324d7806c90602401602060405180830381865afa158015610a97573d6000803e3d6000fd5b505050506040513d601f19601f82011682018060405250810190610abb91906115f6565b610ad75760405162461bcd60e51b81526004016103c590611618565b428211610b185760405162461bcd60e51b815260206004820152600f60248201526e496e76616c696420656e644461746560881b60448201526064016103c5565b6000845111610b395760405162461bcd60e51b81526004016103c59061146c565b6000610b4460055490565b6040805160c0810182524281523360208201908152918101898152606082018981526080830189905260a08301889052600680546001810182556000829052845191027ff652222313e28459528d920b65115c16c04f3efc82aaedc97be59f3f377c0d3f810191825594517ff652222313e28459528d920b65115c16c04f3efc82aaedc97be59f3f377c0d40860180546001600160a01b03929092166001600160a01b031990921691909117905591517ff652222313e28459528d920b65115c16c04f3efc82aaedc97be59f3f377c0d4185015551939450909290917ff652222313e28459528d920b65115c16c04f3efc82aaedc97be59f3f377c0d420190610c4d9082611515565b506080820151600482015560a090910151600591820155805460010190557fa5ed9e6226c584326505694539c95cb0e3238ae09bcda5a65c00bbfdab1c66628186604051610c9c9291906115d5565b60405180910390a195945050505050565b6007546001600160a01b03163314610d075760405162461bcd60e51b815260206004820152601760248201527f4f6e6c79206f6666636861696e2076657269666965722e00000000000000000060448201526064016103c5565b4260068381548110610d1b57610d1b61163d565b9060005260206000209060060201600401541115610d6d5760405162461bcd60e51b815260206004820152600f60248201526e139bdd081cdd185c9d1959081e595d608a1b60448201526064016103c5565b4260068381548110610d8157610d8161163d565b9060005260206000209060060201600501541015610dd65760405162461bcd60e51b8152602060048201526012602482015271151a19481d185cdac81a185cc8195b99195960721b60448201526064016103c5565b60008281526008602090815260408083206001600160a01b038581168552908352928190206001808201805460ff1916600317905542909155548151634839487360e01b815291519316926348394873926004808401939192918290030181865afa158015610e49573d6000803e3d6000fd5b505050506040513d601f19601f82011682018060405250810190610e6d9190611653565b604051635cad6fe760e11b8152600481018490526001600160a01b038381166024830152919091169063b95adfce90604401600060405180830381600087803b158015610eb957600080fd5b505af1158015610ecd573d6000803e3d6000fd5b5050604080518581526001600160a01b03851660208201527fc923846dc69de8ab93cf9ea85e31a6e1ba93bd70bf0cec92b2c98b8f4b4485da935001905060405180910390a15050565b610f596040518060c001604052806000815260200160006001600160a01b03168152602001600081526020016060815260200160008152602001600081525090565b60068281548110610f6c57610f6c61163d565b90600052602060002090600602016040518060c0016040529081600082015481526020016001820160009054906101000a90046001600160a01b03166001600160a01b03166001600160a01b0316815260200160028201548152602001600382018054610fd89061148c565b80601f01602080910402602001604051908101604052809291908181526020018280546110049061148c565b80156110515780601f1061102657610100808354040283529160200191611051565b820191906000526020600020905b81548152906001019060200180831161103457829003601f168201915b50505050508152602001600482015481526020016005820154815250509050919050565b60006020828403121561108757600080fd5b5035919050565b6001600160a01b03811681146110a357600080fd5b50565b634e487b7160e01b600052604160045260246000fd5b600082601f8301126110cd57600080fd5b813567ffffffffffffffff808211156110e8576110e86110a6565b604051601f8301601f19908116603f01168101908282118183101715611110576111106110a6565b8160405283815286602085880101111561112957600080fd5b836020870160208301376000602085830101528094505050505092915050565b600080600080600060a0868803121561116157600080fd5b853561116c8161108e565b945060208601359350604086013567ffffffffffffffff81111561118f57600080fd5b61119b888289016110bc565b9598949750949560608101359550608001359392505050565b600080600080600060a086880312156111cc57600080fd5b8535945060208601359350604086013567ffffffffffffffff81111561118f57600080fd5b60008060006040848603121561120657600080fd5b83359250602084013567ffffffffffffffff8082111561122557600080fd5b818601915086601f83011261123957600080fd5b81358181111561124857600080fd5b87602082850101111561125a57600080fd5b6020830194508093505050509250925092565b6000815180845260005b8181101561129357602081850181015186830182015201611277565b506000602082860101526020601f19601f83011685010191505092915050565b86815260018060a01b038616602082015284604082015260c0606082015260006112e060c083018661126d565b60808301949094525060a00152949350505050565b6000806040838503121561130857600080fd5b82356113138161108e565b946020939093013593505050565b60006020828403121561133357600080fd5b813561133e8161108e565b9392505050565b6000806040838503121561135857600080fd5b82359150602083013561136a8161108e565b809150509250929050565b634e487b7160e01b600052602160045260246000fd5b60208101600483106113ad57634e487b7160e01b600052602160045260246000fd5b91905290565b600080600080608085870312156113c957600080fd5b84359350602085013567ffffffffffffffff8111156113e757600080fd5b6113f3878288016110bc565b949794965050505060408301359260600135919050565b602081528151602082015260018060a01b036020830151166040820152604082015160608201526000606083015160c0608084015261144c60e084018261126d565b9050608084015160a084015260a084015160c08401528091505092915050565b6020808252600690820152654e6f2055524960d01b604082015260600190565b600181811c908216806114a057607f821691505b6020821081036114c057634e487b7160e01b600052602260045260246000fd5b50919050565b601f82111561151057600081815260208120601f850160051c810160208610156114ed5750805b601f850160051c820191505b8181101561150c578281556001016114f9565b5050505b505050565b815167ffffffffffffffff81111561152f5761152f6110a6565b6115438161153d845461148c565b846114c6565b602080601f83116001811461157857600084156115605750858301515b600019600386901b1c1916600185901b17855561150c565b600085815260208120601f198616915b828110156115a757888601518255948401946001909101908401611588565b50858210156115c55787850151600019600388901b60f8161c191681555b5050505050600190811b01905550565b8281526040602082015260006115ee604083018461126d565b949350505050565b60006020828403121561160857600080fd5b8151801515811461133e57600080fd5b6020808252600b908201526a27b7363c9030b236b4b71760a91b604082015260600190565b634e487b7160e01b600052603260045260246000fd5b60006020828403121561166557600080fd5b815161133e8161108e56fea2646970667358221220a8bc253d19afc630980a78976062b8b2a9235da34b95a6df5cd2b1d8f2ec656c64736f6c63430008130033",
    "linkReferences": {}
  },
  "methodIdentifiers": {
    "_offchainVerifierAddress()": "969bb3a8",
    "create(uint256,string,uint256,uint256)": "bd45a0a9",
    "createBy(address,uint256,string,uint256,uint256)": "0bb75b45",
    "daoAddress()": "2131c68c",
    "deployer()": "d5f39488",
    "editTask(uint256,uint256,string,uint256,uint256)": "2b086648",
    "finalize(uint256)": "05261aea",
    "finalizeFor(uint256,address)": "daf91137",
    "getById(uint256)": "f4f4d237",
    "getCompletionTime(uint256,address)": "e31c007f",
    "getStatusPerSubmitter(uint256,address)": "b206b569",
    "hasCompletedTheTask(address,uint256)": "973cdc78",
    "idCounter()": "eb08ab28",
    "isActive()": "22f3e2d4",
    "moduleId()": "a1308f27",
    "owner()": "8da5cb5b",
    "pluginId()": "2fe7e441",
    "pluginRegistry()": "41dcea91",
    "setOffchainVerifierAddress(address)": "afb99928",
    "setPluginId(uint256)": "02a4dca0",
    "submit(uint256,string)": "5d63f6c6",
    "take(uint256)": "4fd9efc4",
    "tasks(uint256)": "8d977672"
  },
  "id": 91
}