{
  "abi": [
    {
      "inputs": [
        {
          "internalType": "contract IERC20",
          "name": "_nativeToken",
          "type": "address"
        },
        {
          "internalType": "contract IERC20",
          "name": "_nativeReputation",
          "type": "address"
        }
      ],
      "stateMutability": "nonpayable",
      "type": "constructor"
    },
    {
      "inputs": [],
      "name": "nativeReputation",
      "outputs": [
        {
          "internalType": "contract IERC20",
          "name": "",
          "type": "address"
        }
      ],
      "stateMutability": "view",
      "type": "function"
    },
    {
      "inputs": [],
      "name": "nativeToken",
      "outputs": [
        {
          "internalType": "contract IERC20",
          "name": "",
          "type": "address"
        }
      ],
      "stateMutability": "view",
      "type": "function"
    }
  ],
  "bytecode": {
    "object": "0x608060405234801561001057600080fd5b5060405161016a38038061016a83398101604081905261002f9161007c565b600080546001600160a01b039384166001600160a01b031991821617909155600180549290931691161790556100af565b80516001600160a01b038116811461007757600080fd5b919050565b6000806040838503121561008f57600080fd5b61009883610060565b91506100a660208401610060565b90509250929050565b60ad806100bd6000396000f3fe6080604052348015600f57600080fd5b506004361060325760003560e01c806389ae1c90146037578063e1758bd8146065575b600080fd5b6001546049906001600160a01b031681565b6040516001600160a01b03909116815260200160405180910390f35b6000546049906001600160a01b03168156fea2646970667358221220ab2ff9e186ab93b55402347c9762c1551ef4f1135593067f9a192217bdf96f3f64736f6c63430008130033",
    "linkReferences": {}
  },
  "methodIdentifiers": {
    "nativeReputation()": "89ae1c90",
    "nativeToken()": "e1758bd8"
  },
  "id": 51
}