{
  "abi": [
    {
      "anonymous": false,
      "inputs": [
        {
          "indexed": true,
          "internalType": "address",
          "name": "owner",
          "type": "address"
        },
        {
          "indexed": true,
          "internalType": "address",
          "name": "approved",
          "type": "address"
        },
        {
          "indexed": true,
          "internalType": "uint256",
          "name": "tokenId",
          "type": "uint256"
        }
      ],
      "name": "Approval",
      "type": "event"
    },
    {
      "anonymous": false,
      "inputs": [
        {
          "indexed": true,
          "internalType": "address",
          "name": "owner",
          "type": "address"
        },
        {
          "indexed": true,
          "internalType": "address",
          "name": "operator",
          "type": "address"
        },
        {
          "indexed": false,
          "internalType": "bool",
          "name": "approved",
          "type": "bool"
        }
      ],
      "name": "ApprovalForAll",
      "type": "event"
    },
    {
      "anonymous": false,
      "inputs": [
        {
          "indexed": false,
          "internalType": "address",
          "name": "owner",
          "type": "address"
        },
        {
          "indexed": false,
          "internalType": "uint256",
          "name": "tokenID",
          "type": "uint256"
        }
      ],
      "name": "AutIDCreated",
      "type": "event"
    },
    {
      "anonymous": false,
      "inputs": [
        {
          "indexed": false,
          "internalType": "address",
          "name": "NovaExpanderAddress",
          "type": "address"
        },
        {
          "indexed": false,
          "internalType": "address",
          "name": "member",
          "type": "address"
        },
        {
          "indexed": false,
          "internalType": "uint256",
          "name": "newCommitment",
          "type": "uint256"
        }
      ],
      "name": "CommitmentUpdated",
      "type": "event"
    },
    {
      "anonymous": false,
      "inputs": [],
      "name": "DiscordIDConnectedToAutID",
      "type": "event"
    },
    {
      "anonymous": false,
      "inputs": [
        {
          "indexed": false,
          "internalType": "uint8",
          "name": "version",
          "type": "uint8"
        }
      ],
      "name": "Initialized",
      "type": "event"
    },
    {
      "anonymous": false,
      "inputs": [
        {
          "indexed": false,
          "internalType": "uint256",
          "name": "tokenId",
          "type": "uint256"
        },
        {
          "indexed": false,
          "internalType": "string",
          "name": "metadataUri",
          "type": "string"
        }
      ],
      "name": "MetadataUriSet",
      "type": "event"
    },
    {
      "anonymous": false,
      "inputs": [
        {
          "indexed": false,
          "internalType": "address",
          "name": "NovaExpanderAddress",
          "type": "address"
        },
        {
          "indexed": false,
          "internalType": "address",
          "name": "member",
          "type": "address"
        }
      ],
      "name": "NovaJoined",
      "type": "event"
    },
    {
      "anonymous": false,
      "inputs": [
        {
          "indexed": false,
          "internalType": "address",
          "name": "NovaExpanderAddress",
          "type": "address"
        },
        {
          "indexed": false,
          "internalType": "address",
          "name": "member",
          "type": "address"
        }
      ],
      "name": "NovaWithdrawn",
      "type": "event"
    },
    {
      "anonymous": false,
      "inputs": [
        {
          "indexed": true,
          "internalType": "address",
          "name": "from",
          "type": "address"
        },
        {
          "indexed": true,
          "internalType": "address",
          "name": "to",
          "type": "address"
        },
        {
          "indexed": true,
          "internalType": "uint256",
          "name": "tokenId",
          "type": "uint256"
        }
      ],
      "name": "Transfer",
      "type": "event"
    },
    {
      "inputs": [
        {
          "internalType": "string",
          "name": "discordID",
          "type": "string"
        }
      ],
      "name": "addDiscordIDToAutID",
      "outputs": [],
      "stateMutability": "nonpayable",
      "type": "function"
    },
    {
      "inputs": [
        {
          "internalType": "address",
          "name": "to",
          "type": "address"
        },
        {
          "internalType": "uint256",
          "name": "tokenId",
          "type": "uint256"
        }
      ],
      "name": "approve",
      "outputs": [],
      "stateMutability": "nonpayable",
      "type": "function"
    },
    {
      "inputs": [
        {
          "internalType": "uint256",
          "name": "",
          "type": "uint256"
        }
      ],
      "name": "autIDToDiscordID",
      "outputs": [
        {
          "internalType": "string",
          "name": "",
          "type": "string"
        }
      ],
      "stateMutability": "view",
      "type": "function"
    },
    {
      "inputs": [
        {
          "internalType": "string",
          "name": "",
          "type": "string"
        }
      ],
      "name": "autIDUsername",
      "outputs": [
        {
          "internalType": "address",
          "name": "",
          "type": "address"
        }
      ],
      "stateMutability": "view",
      "type": "function"
    },
    {
      "inputs": [
        {
          "internalType": "address",
          "name": "owner",
          "type": "address"
        }
      ],
      "name": "balanceOf",
      "outputs": [
        {
          "internalType": "uint256",
          "name": "",
          "type": "uint256"
        }
      ],
      "stateMutability": "view",
      "type": "function"
    },
    {
      "inputs": [
        {
          "internalType": "string",
          "name": "",
          "type": "string"
        }
      ],
      "name": "discordIDToAddress",
      "outputs": [
        {
          "internalType": "address",
          "name": "",
          "type": "address"
        }
      ],
      "stateMutability": "view",
      "type": "function"
    },
    {
      "inputs": [
        {
          "internalType": "address",
          "name": "Address",
          "type": "address"
        },
        {
          "internalType": "uint256",
          "name": "newCommitment",
          "type": "uint256"
        }
      ],
      "name": "editCommitment",
      "outputs": [],
      "stateMutability": "nonpayable",
      "type": "function"
    },
    {
      "inputs": [
        {
          "internalType": "address",
          "name": "nova_",
          "type": "address"
        }
      ],
      "name": "getAllActiveMembers",
      "outputs": [
        {
          "internalType": "address[]",
          "name": "members",
          "type": "address[]"
        }
      ],
      "stateMutability": "view",
      "type": "function"
    },
    {
      "inputs": [
        {
          "internalType": "uint256",
          "name": "tokenId",
          "type": "uint256"
        }
      ],
      "name": "getApproved",
      "outputs": [
        {
          "internalType": "address",
          "name": "",
          "type": "address"
        }
      ],
      "stateMutability": "view",
      "type": "function"
    },
    {
      "inputs": [
        {
          "internalType": "address",
          "name": "autIDOwner",
          "type": "address"
        }
      ],
      "name": "getAutIDByOwner",
      "outputs": [
        {
          "internalType": "uint256",
          "name": "",
          "type": "uint256"
        }
      ],
      "stateMutability": "view",
      "type": "function"
    },
    {
      "inputs": [
        {
          "internalType": "string",
          "name": "username",
          "type": "string"
        }
      ],
      "name": "getAutIDHolderByUsername",
      "outputs": [
        {
          "internalType": "address",
          "name": "",
          "type": "address"
        }
      ],
      "stateMutability": "view",
      "type": "function"
    },
    {
      "inputs": [
        {
          "internalType": "address[]",
          "name": "agents",
          "type": "address[]"
        },
        {
          "internalType": "address",
          "name": "_nova",
          "type": "address"
        }
      ],
      "name": "getCommitmentsOfFor",
      "outputs": [
        {
          "internalType": "uint256[]",
          "name": "commitments",
          "type": "uint256[]"
        }
      ],
      "stateMutability": "view",
      "type": "function"
    },
    {
      "inputs": [
        {
          "internalType": "address",
          "name": "autIDHolder",
          "type": "address"
        }
      ],
      "name": "getHolderNovae",
      "outputs": [
        {
          "internalType": "address[]",
          "name": "s",
          "type": "address[]"
        }
      ],
      "stateMutability": "view",
      "type": "function"
    },
    {
      "inputs": [
        {
          "internalType": "address",
          "name": "autIDHolder",
          "type": "address"
        },
        {
          "internalType": "address",
          "name": "Address",
          "type": "address"
        }
      ],
      "name": "getMembershipData",
      "outputs": [
        {
          "components": [
            {
              "internalType": "address",
              "name": "NovaExpanderAddress",
              "type": "address"
            },
            {
              "internalType": "uint256",
              "name": "role",
              "type": "uint256"
            },
            {
              "internalType": "uint256",
              "name": "commitment",
              "type": "uint256"
            },
            {
              "internalType": "bool",
              "name": "isActive",
              "type": "bool"
            }
          ],
          "internalType": "struct IAutID.NovaMember",
          "name": "",
          "type": "tuple"
        }
      ],
      "stateMutability": "view",
      "type": "function"
    },
    {
      "inputs": [],
      "name": "getNextTokenID",
      "outputs": [
        {
          "internalType": "uint256",
          "name": "",
          "type": "uint256"
        }
      ],
      "stateMutability": "view",
      "type": "function"
    },
    {
      "inputs": [
        {
          "internalType": "address",
          "name": "autIDHolder",
          "type": "address"
        }
      ],
      "name": "getTotalCommitment",
      "outputs": [
        {
          "internalType": "uint256",
          "name": "",
          "type": "uint256"
        }
      ],
      "stateMutability": "view",
      "type": "function"
    },
    {
      "inputs": [],
      "name": "getTrustedForwarder",
      "outputs": [
        {
          "internalType": "address",
          "name": "forwarder",
          "type": "address"
        }
      ],
      "stateMutability": "view",
      "type": "function"
    },
    {
      "inputs": [
        {
          "internalType": "address",
          "name": "trustedForwarder",
          "type": "address"
        }
      ],
      "name": "initialize",
      "outputs": [],
      "stateMutability": "nonpayable",
      "type": "function"
    },
    {
      "inputs": [
        {
          "internalType": "address",
          "name": "owner",
          "type": "address"
        },
        {
          "internalType": "address",
          "name": "operator",
          "type": "address"
        }
      ],
      "name": "isApprovedForAll",
      "outputs": [
        {
          "internalType": "bool",
          "name": "",
          "type": "bool"
        }
      ],
      "stateMutability": "view",
      "type": "function"
    },
    {
      "inputs": [
        {
          "internalType": "address",
          "name": "forwarder",
          "type": "address"
        }
      ],
      "name": "isTrustedForwarder",
      "outputs": [
        {
          "internalType": "bool",
          "name": "",
          "type": "bool"
        }
      ],
      "stateMutability": "view",
      "type": "function"
    },
    {
      "inputs": [
        {
          "internalType": "uint256",
          "name": "role",
          "type": "uint256"
        },
        {
          "internalType": "uint256",
          "name": "commitment",
          "type": "uint256"
        },
        {
          "internalType": "address",
          "name": "Address",
          "type": "address"
        }
      ],
      "name": "joinNova",
      "outputs": [],
      "stateMutability": "nonpayable",
      "type": "function"
    },
    {
      "inputs": [
        {
          "internalType": "string",
          "name": "username",
          "type": "string"
        },
        {
          "internalType": "string",
          "name": "url",
          "type": "string"
        },
        {
          "internalType": "uint256",
          "name": "role",
          "type": "uint256"
        },
        {
          "internalType": "uint256",
          "name": "commitment",
          "type": "uint256"
        },
        {
          "internalType": "address",
          "name": "Address",
          "type": "address"
        }
      ],
      "name": "mint",
      "outputs": [],
      "stateMutability": "nonpayable",
      "type": "function"
    },
    {
      "inputs": [],
      "name": "name",
      "outputs": [
        {
          "internalType": "string",
          "name": "",
          "type": "string"
        }
      ],
      "stateMutability": "view",
      "type": "function"
    },
    {
      "inputs": [
        {
          "internalType": "uint256",
          "name": "tokenId",
          "type": "uint256"
        }
      ],
      "name": "ownerOf",
      "outputs": [
        {
          "internalType": "address",
          "name": "",
          "type": "address"
        }
      ],
      "stateMutability": "view",
      "type": "function"
    },
    {
      "inputs": [
        {
          "internalType": "address",
          "name": "from",
          "type": "address"
        },
        {
          "internalType": "address",
          "name": "to",
          "type": "address"
        },
        {
          "internalType": "uint256",
          "name": "tokenId",
          "type": "uint256"
        }
      ],
      "name": "safeTransferFrom",
      "outputs": [],
      "stateMutability": "nonpayable",
      "type": "function"
    },
    {
      "inputs": [
        {
          "internalType": "address",
          "name": "from",
          "type": "address"
        },
        {
          "internalType": "address",
          "name": "to",
          "type": "address"
        },
        {
          "internalType": "uint256",
          "name": "tokenId",
          "type": "uint256"
        },
        {
          "internalType": "bytes",
          "name": "data",
          "type": "bytes"
        }
      ],
      "name": "safeTransferFrom",
      "outputs": [],
      "stateMutability": "nonpayable",
      "type": "function"
    },
    {
      "inputs": [
        {
          "internalType": "address",
          "name": "operator",
          "type": "address"
        },
        {
          "internalType": "bool",
          "name": "approved",
          "type": "bool"
        }
      ],
      "name": "setApprovalForAll",
      "outputs": [],
      "stateMutability": "nonpayable",
      "type": "function"
    },
    {
      "inputs": [
        {
          "internalType": "string",
          "name": "metadataUri",
          "type": "string"
        }
      ],
      "name": "setMetadataUri",
      "outputs": [],
      "stateMutability": "nonpayable",
      "type": "function"
    },
    {
      "inputs": [
        {
          "internalType": "bytes4",
          "name": "interfaceId",
          "type": "bytes4"
        }
      ],
      "name": "supportsInterface",
      "outputs": [
        {
          "internalType": "bool",
          "name": "",
          "type": "bool"
        }
      ],
      "stateMutability": "view",
      "type": "function"
    },
    {
      "inputs": [],
      "name": "symbol",
      "outputs": [
        {
          "internalType": "string",
          "name": "",
          "type": "string"
        }
      ],
      "stateMutability": "view",
      "type": "function"
    },
    {
      "inputs": [
        {
          "internalType": "uint256",
          "name": "tokenId",
          "type": "uint256"
        }
      ],
      "name": "tokenURI",
      "outputs": [
        {
          "internalType": "string",
          "name": "",
          "type": "string"
        }
      ],
      "stateMutability": "view",
      "type": "function"
    },
    {
      "inputs": [
        {
          "internalType": "address",
          "name": "from",
          "type": "address"
        },
        {
          "internalType": "address",
          "name": "to",
          "type": "address"
        },
        {
          "internalType": "uint256",
          "name": "tokenId",
          "type": "uint256"
        }
      ],
      "name": "transferFrom",
      "outputs": [],
      "stateMutability": "nonpayable",
      "type": "function"
    },
    {
      "inputs": [
        {
          "internalType": "address",
          "name": "Address",
          "type": "address"
        }
      ],
      "name": "withdraw",
      "outputs": [],
      "stateMutability": "nonpayable",
      "type": "function"
    }
  ],
  "bytecode": {
    "object": "0x608060405234801561001057600080fd5b506136fa806100206000396000f3fe608060405234801561001057600080fd5b50600436106101fb5760003560e01c806372e4c1491161011a578063c87b56dd116100ad578063e985e9c51161007c578063e985e9c514610547578063f359d86314610583578063f547773c14610596578063fa320285146105ca578063ff69a391146105dd57600080fd5b8063c87b56dd146104fd578063ce1b815f14610510578063da24e8b814610521578063daedfed21461053457600080fd5b806396259c66116100e957806396259c66146103f8578063a22cb465146104c4578063b88d4fde146104d7578063c4d66de8146104ea57600080fd5b806372e4c149146103a157806379389510146103b457806389cbf104146103dd57806395d89b41146103f057600080fd5b80634a198119116101925780635bc4ffdf116101615780635bc4ffdf146103345780636352211e146103475780636dc5cc061461035a57806370a082311461038e57600080fd5b80634a198119146102d65780634e51ea39146102ec57806351cff8d9146102ff578063572b6c051461031257600080fd5b80631130630c116101ce5780631130630c1461027d57806323b872dd146102905780632ca62cd5146102a357806342842e0e146102c357600080fd5b806301ffc9a71461020057806306fdde0314610228578063081812fc1461023d578063095ea7b314610268575b600080fd5b61021361020e366004612ab1565b6105fd565b60405190151581526020015b60405180910390f35b61023061064f565b60405161021f9190612b1e565b61025061024b366004612b31565b6106e1565b6040516001600160a01b03909116815260200161021f565b61027b610276366004612b6f565b610708565b005b61027b61028b366004612b9b565b610834565b61027b61029e366004612c0c565b61090f565b6102b66102b1366004612c4d565b610947565b60405161021f9190612c6a565b61027b6102d1366004612c0c565b610bbe565b6102de610bd9565b60405190815260200161021f565b6102506102fa366004612d74565b610be9565b61027b61030d366004612c4d565b610c22565b610213610320366004612c4d565b6000546001600160a01b0391821691161490565b61027b610342366004612da8565b610d72565b610250610355366004612b31565b61132b565b610250610368366004612d74565b805160208183018101805160cf825292820191909301209152546001600160a01b031681565b6102de61039c366004612c4d565b61138b565b61027b6103af366004612b9b565b611411565b6102de6103c2366004612c4d565b6001600160a01b0316600090815260cc602052604090205490565b6102b66103eb366004612c4d565b6114cb565b610230611569565b610486610406366004612e33565b60408051608080820183526000808352602080840182905283850182905260609384018290526001600160a01b03968716825260ca81528482209587168252948552839020835191820184528054909516815260018501549381019390935260028401549183019190915260039092015460ff1615159181019190915290565b60405161021f919081516001600160a01b03168152602080830151908201526040808301519082015260609182015115159181019190915260800190565b61027b6104d2366004612e7a565b611578565b61027b6104e5366004612ea8565b61158e565b61027b6104f8366004612c4d565b6115cd565b61023061050b366004612b31565b61174f565b6000546001600160a01b0316610250565b6102de61052f366004612c4d565b61185f565b61027b610542366004612f27565b61195c565b610213610555366004612e33565b6001600160a01b039182166000908152606a6020908152604080832093909416825291909152205460ff1690565b61027b610591366004612b6f565b611e7e565b6102506105a4366004612d74565b805160208183018101805160cd825292820191909301209152546001600160a01b031681565b6102306105d8366004612b31565b612034565b6105f06105eb366004612f83565b6120ce565b60405161021f9190613033565b60006001600160e01b031982166380ac58cd60e01b148061062e57506001600160e01b03198216635b5e139f60e01b145b8061064957506301ffc9a760e01b6001600160e01b03198316145b92915050565b60606065805461065e9061306b565b80601f016020809104026020016040519081016040528092919081815260200182805461068a9061306b565b80156106d75780601f106106ac576101008083540402835291602001916106d7565b820191906000526020600020905b8154815290600101906020018083116106ba57829003601f168201915b5050505050905090565b60006106ec82612224565b506000908152606960205260409020546001600160a01b031690565b60006107138261132b565b9050806001600160a01b0316836001600160a01b0316036107855760405162461bcd60e51b815260206004820152602160248201527f4552433732313a20617070726f76616c20746f2063757272656e74206f776e656044820152603960f91b60648201526084015b60405180910390fd5b806001600160a01b0316610797612286565b6001600160a01b031614806107b357506107b381610555612286565b6108255760405162461bcd60e51b815260206004820152603e60248201527f4552433732313a20617070726f76652063616c6c6572206973206e6f7420746f60448201527f6b656e206f776e6572206e6f7220617070726f76656420666f7220616c6c0000606482015260840161077c565b61082f8383612290565b505050565b61083f61039c612286565b60011461085e5760405162461bcd60e51b815260040161077c906130a5565b600060cc600061086c612286565b6001600160a01b03166001600160a01b031681526020019081526020016000205490506108cf8184848080601f0160208091040260200160405190810160405280939291908181526020018383808284376000920191909152506122fe92505050565b7f8b20b7ba7012e3c6dd7eebc0edcd0b48b7b1baaefa3edd31c7c9fe4600378401818484604051610902939291906130fa565b60405180910390a1505050565b61092061091a612286565b82612391565b61093c5760405162461bcd60e51b815260040161077c90613130565b61082f83838361240f565b6060600080836001600160a01b0316637c0f6b356040518163ffffffff1660e01b8152600401600060405180830381865afa15801561098a573d6000803e3d6000fd5b505050506040513d6000823e601f3d908101601f191682016040526109b2919081019061317e565b9250600083516001600160401b038111156109cf576109cf612cb7565b6040519080825280602002602001820160405280156109f8578160200160208202803683370190505b5090505b8351831015610ac35760ca6000858581518110610a1b57610a1b613217565b6020908102919091018101516001600160a01b0390811683528282019390935260409182016000908120938916815292905290206003015460ff1615610aac57838381518110610a6d57610a6d613217565b6020026020010151818481518110610a8757610a87613217565b60200260200101906001600160a01b031690816001600160a01b031681525050610ab8565b610ab582613243565b91505b8260010192506109fc565b60009250818451610ad4919061325c565b6001600160401b03811115610aeb57610aeb612cb7565b604051908082528060200260200182016040528015610b14578160200160208202803683370190505b509350600091505b8051831015610bb65760006001600160a01b0316818481518110610b4257610b42613217565b60200260200101516001600160a01b031614610bab57808381518110610b6a57610b6a613217565b6020026020010151848381518110610b8457610b84613217565b60200260200101906001600160a01b031690816001600160a01b0316815250508160010191505b826001019250610b1c565b505050919050565b61082f8383836040518060200160405280600081525061158e565b6000610be460c95490565b905090565b600060cd610bf683612457565b604051610c03919061326f565b908152604051908190036020019020546001600160a01b031692915050565b60ca6000610c2e612286565b6001600160a01b039081168252602080830193909352604091820160009081209185168152925290206003015460ff16610ca05760405162461bcd60e51b815260206004820152601360248201527220baba24a21d102737ba10309036b2b6b132b960691b604482015260640161077c565b600060ca6000610cae612286565b6001600160a01b03908116825260208083019390935260409182016000908120918616815292528120600301805460ff19169215159290921790915560ca81610cf5612286565b6001600160a01b03908116825260208083019390935260409182016000908120918616815292529020600201557f746dfa771d4c23edf7e2589349c78f19155011a7154d365b9e49a691ab0458cf81610d4c612286565b604080516001600160a01b0393841681529290911660208301520160405180910390a150565b6011855110610dce5760405162461bcd60e51b815260206004820152602260248201527f557365726e616d65206d757374206265206d6178203136206368617261637465604482015261727360f01b606482015260840161077c565b600083118015610dde5750600483105b610e2a5760405162461bcd60e51b815260206004820152601c60248201527f526f6c65206d757374206265206265747765656e203120616e64203300000000604482015260640161077c565b600082118015610e3a5750600b82105b610e565760405162461bcd60e51b815260040161077c9061328b565b6001600160a01b038116610e9e5760405162461bcd60e51b815260206004820152600f60248201526e020baba24a21d1026b4b9b9b4b7339608d1b604482015260640161077c565b610ea961039c612286565b15610f1c5760405162461bcd60e51b815260206004820152603a60248201527f41757449443a20546865726520697320417574494420616c726561647920726560448201527f676973746572656420666f72207468697320616464726573732e000000000000606482015260840161077c565b60006001600160a01b031660cd86604051610f37919061326f565b908152604051908190036020019020546001600160a01b031614610f9d5760405162461bcd60e51b815260206004820152601e60248201527f41757449443a20557365726e616d6520616c72656164792074616b656e210000604482015260640161077c565b806001600160a01b03166303ffe330610fb4612286565b6040516001600160e01b031960e084901b1681526001600160a01b03909116600482015260248101869052604401602060405180830381865afa158015610fff573d6000803e3d6000fd5b505050506040513d601f19601f8201168201806040525081019061102391906132d7565b61106f5760405162461bcd60e51b815260206004820152601d60248201527f41757449443a204e6f742061206d656d626572206f6620746869732021000000604482015260640161077c565b600061107a86612457565b9050600061108760c95490565b905061109a611094612286565b826124ca565b6110a481876122fe565b604080516080810182526001600160a01b0385168152602081018790529081018590526001606082015260ca60006110da612286565b6001600160a01b0390811682526020808301939093526040918201600090812088831682528452828120855181546001600160a01b03191693169290921782559284015160018201559083015160028201556060909201516003909201805460ff19169215159290921790915560cb90611152612286565b6001600160a01b03908116825260208083019390935260409091016000908120805460018101825590825292812090920180546001600160a01b031916918616919091179055819060cc906111a5612286565b6001600160a01b031681526020810191909152604001600020556111c7612286565b60cd836040516111d7919061326f565b90815260405190819003602001902080546001600160a01b03929092166001600160a01b031990921691909117905561121460c980546001019055565b826001600160a01b0316633b4da69f61122b612286565b6040516001600160e01b031960e084901b1681526001600160a01b03909116600482015260248101889052604401600060405180830381600087803b15801561127357600080fd5b505af1158015611287573d6000803e3d6000fd5b505050507fd18d4718c9d3e995ccc3faf448a66e5aae275643957aecfff839ae445574e5d36112b4612286565b604080516001600160a01b039092168252602082018490520160405180910390a17f11f49dc9a23622fcefb8ce53014a211d0b8b75c15e386e4970915b72927cd57d836112ff612286565b604080516001600160a01b0393841681529290911660208301520160405180910390a150505050505050565b6000818152606760205260408120546001600160a01b0316806106495760405162461bcd60e51b8152602060048201526018602482015277115490cdcc8c4e881a5b9d985b1a59081d1bdad95b88125160421b604482015260640161077c565b60006001600160a01b0382166113f55760405162461bcd60e51b815260206004820152602960248201527f4552433732313a2061646472657373207a65726f206973206e6f7420612076616044820152683634b21037bbb732b960b91b606482015260840161077c565b506001600160a01b031660009081526068602052604090205490565b600060cc600061141f612286565b6001600160a01b03168152602080820192909252604090810160009081205480825260ce90935220909150611455838583613342565b5061145e612286565b60cf8484604051611470929190613402565b90815260405190819003602001812080546001600160a01b03939093166001600160a01b0319909316929092179091557fd751b525f83cb4458bf789d0f717631f3a26d5c70a81ea922690f3cf09f3e6df90600090a1505050565b60606114d68261138b565b6001146114f55760405162461bcd60e51b815260040161077c906130a5565b6001600160a01b038216600090815260cb60209081526040918290208054835181840281018401909452808452909183018282801561155d57602002820191906000526020600020905b81546001600160a01b0316815260019091019060200180831161153f575b50505050509050919050565b60606066805461065e9061306b565b61158a611583612286565b83836124e4565b5050565b61159f611599612286565b83612391565b6115bb5760405162461bcd60e51b815260040161077c90613130565b6115c78484848461240f565b50505050565b600054600160a81b900460ff16158080156115f557506000546001600160a01b90910460ff16105b806116165750303b1580156116165750600054600160a01b900460ff166001145b6116795760405162461bcd60e51b815260206004820152602e60248201527f496e697469616c697a61626c653a20636f6e747261637420697320616c72656160448201526d191e481a5b9a5d1a585b1a5e995960921b606482015260840161077c565b6000805460ff60a01b1916600160a01b17905580156116a6576000805460ff60a81b1916600160a81b1790555b6116e860405180604001604052806005815260200164105d5d125160da1b8152506040518060400160405280600381526020016210555560ea1b8152506125b2565b600080546001600160a01b0319166001600160a01b038416179055801561158a576000805460ff60a81b19169055604051600181527f7f26b83ff96e1f2b6a682f133852f6798a09c465da95921460cefb3847402498906020015b60405180910390a15050565b606061175a82612224565b600082815260976020526040812080546117739061306b565b80601f016020809104026020016040519081016040528092919081815260200182805461179f9061306b565b80156117ec5780601f106117c1576101008083540402835291602001916117ec565b820191906000526020600020905b8154815290600101906020018083116117cf57829003601f168201915b50505050509050600061180a60408051602081019091526000815290565b9050805160000361181c575092915050565b81511561184e578082604051602001611836929190613412565b60405160208183030381529060405292505050919050565b611857846125e5565b949350505050565b6001600160a01b038116600090815260cb60209081526040808320805482518185028101850190935280835284938301828280156118c657602002820191906000526020600020905b81546001600160a01b031681526001909101906020018083116118a8575b505050505090506000805b8251811015611954576001600160a01b038516600090815260ca60205260408120845190919085908490811061190957611909613217565b60200260200101516001600160a01b03166001600160a01b0316815260200190815260200160002060020154826119409190613441565b91508061194c81613243565b9150506118d1565b509392505050565b60008311801561196c5750600483105b6119b85760405162461bcd60e51b815260206004820152601c60248201527f526f6c65206d757374206265206265747765656e203120616e64203300000000604482015260640161077c565b6000821180156119c85750600b82105b6119e45760405162461bcd60e51b815260040161077c9061328b565b6001600160a01b038116611a2c5760405162461bcd60e51b815260206004820152600f60248201526e020baba24a21d1026b4b9b9b4b7339608d1b604482015260640161077c565b611a3761039c612286565b600114611a565760405162461bcd60e51b815260040161077c906130a5565b600060cb6000611a64612286565b6001600160a01b03166001600160a01b03168152602001908152602001600020805480602002602001604051908101604052809291908181526020018280548015611ad857602002820191906000526020600020905b81546001600160a01b03168152600190910190602001808311611aba575b5050505050905060005b8151811015611b7757826001600160a01b0316828281518110611b0757611b07613217565b60200260200101516001600160a01b031603611b655760405162461bcd60e51b815260206004820152601760248201527f41757449443a20416c72656164792061206d656d626572000000000000000000604482015260640161077c565b80611b6f81613243565b915050611ae2565b50816001600160a01b0316632a79c6116040518163ffffffff1660e01b8152600401602060405180830381865afa158015611bb6573d6000803e3d6000fd5b505050506040513d601f19601f82011682018060405250810190611bda9190613454565b831015611bf95760405162461bcd60e51b815260040161077c9061346d565b816001600160a01b03166303ffe330611c10612286565b6040516001600160e01b031960e084901b1681526001600160a01b03909116600482015260248101879052604401602060405180830381865afa158015611c5b573d6000803e3d6000fd5b505050506040513d601f19601f82011682018060405250810190611c7f91906132d7565b611ccb5760405162461bcd60e51b815260206004820152601d60248201527f41757449443a204e6f742061206d656d626572206f6620746869732021000000604482015260640161077c565b604080516080810182526001600160a01b0384168152602081018690529081018490526001606082015260ca6000611d01612286565b6001600160a01b0390811682526020808301939093526040918201600090812087831682528452828120855181546001600160a01b03191693169290921782559284015160018201559083015160028201556060909201516003909201805460ff19169215159290921790915560cb90611d79612286565b6001600160a01b03908116825260208083019390935260409091016000908120805460018101825590825292902090910180546001600160a01b0319169184169182179055633b4da69f611dcb612286565b6040516001600160e01b031960e084901b1681526001600160a01b03909116600482015260248101879052604401600060405180830381600087803b158015611e1357600080fd5b505af1158015611e27573d6000803e3d6000fd5b505050507f11f49dc9a23622fcefb8ce53014a211d0b8b75c15e386e4970915b72927cd57d82611e55612286565b604080516001600160a01b0393841681529290911660208301520160405180910390a150505050565b60ca6000611e8a612286565b6001600160a01b039081168252602080830193909352604091820160009081209186168152925290206003015460ff16611efc5760405162461bcd60e51b815260206004820152601360248201527220baba24a21d102737ba10309036b2b6b132b960691b604482015260640161077c565b600081118015611f0c5750600b81105b611f285760405162461bcd60e51b815260040161077c9061328b565b816001600160a01b0316632a79c6116040518163ffffffff1660e01b8152600401602060405180830381865afa158015611f66573d6000803e3d6000fd5b505050506040513d601f19601f82011682018060405250810190611f8a9190613454565b811015611fa95760405162461bcd60e51b815260040161077c9061346d565b8060ca6000611fb6612286565b6001600160a01b03908116825260208083019390935260409182016000908120918716815292529020600201557fd79a2f47c1c734f8660476261fe14c54bb4b004e21643d70f34e76f590df70ba8261200d612286565b604080516001600160a01b0393841681529290911660208301528101839052606001611743565b60ce602052600090815260409020805461204d9061306b565b80601f01602080910402602001604051908101604052809291908181526020018280546120799061306b565b80156120c65780601f1061209b576101008083540402835291602001916120c6565b820191906000526020600020905b8154815290600101906020018083116120a957829003601f168201915b505050505081565b60606000835160000361214457826001600160a01b0316637c0f6b356040518163ffffffff1660e01b8152600401600060405180830381865afa158015612119573d6000803e3d6000fd5b505050506040513d6000823e601f3d908101601f19168201604052612141919081019061317e565b93505b83516001600160401b0381111561215d5761215d612cb7565b604051908082528060200260200182016040528015612186578160200160208202803683370190505b5091505b835181101561221d5760ca60008583815181106121a9576121a9613217565b60200260200101516001600160a01b03166001600160a01b031681526020019081526020016000206000846001600160a01b03166001600160a01b031681526020019081526020016000206002015482828151811061220a5761220a613217565b602090810291909101015260010161218a565b5092915050565b6000818152606760205260409020546001600160a01b03166122835760405162461bcd60e51b8152602060048201526018602482015277115490cdcc8c4e881a5b9d985b1a59081d1bdad95b88125160421b604482015260640161077c565b50565b6000610be4612659565b600081815260696020526040902080546001600160a01b0319166001600160a01b03841690811790915581906122c58261132b565b6001600160a01b03167f8c5be1e5ebec7d5bd14f71427d1e84f3dd0314c0f7b2291e5b200ac8c7c3b92560405160405180910390a45050565b6000828152606760205260409020546001600160a01b03166123795760405162461bcd60e51b815260206004820152602e60248201527f45524337323155524953746f726167653a2055524920736574206f66206e6f6e60448201526d32bc34b9ba32b73a103a37b5b2b760911b606482015260840161077c565b600082815260976020526040902061082f82826134b7565b60008061239d8361132b565b9050806001600160a01b0316846001600160a01b031614806123e457506001600160a01b038082166000908152606a602090815260408083209388168352929052205460ff165b806118575750836001600160a01b03166123fd846106e1565b6001600160a01b031614949350505050565b60405162461bcd60e51b815260206004820152601e60248201527f41757449443a204175744944207472616e736665722064697361626c65640000604482015260640161077c565b60608160005b815181101561221d5761248f82828151811061247b5761247b613217565b01602001516001600160f81b03191661268d565b8282815181106124a1576124a1613217565b60200101906001600160f81b031916908160001a905350806124c281613243565b91505061245d565b61158a8282604051806020016040528060008152506126dc565b816001600160a01b0316836001600160a01b0316036125455760405162461bcd60e51b815260206004820152601960248201527f4552433732313a20617070726f766520746f2063616c6c657200000000000000604482015260640161077c565b6001600160a01b038381166000818152606a6020908152604080832094871680845294825291829020805460ff191686151590811790915591519182527f17307eab39ab6107e8899845ad3d59bd9653f200f220920489ca2b5937696c31910160405180910390a3505050565b600054600160a81b900460ff166125db5760405162461bcd60e51b815260040161077c90613576565b61158a828261270f565b60606125f082612224565b600061260760408051602081019091526000815290565b905060008151116126275760405180602001604052806000815250612652565b8061263184612751565b604051602001612642929190613412565b6040516020818303038152906040525b9392505050565b60006014361080159061267657506000546001600160a01b031633145b15612688575060131936013560601c90565b503390565b6000604160f81b6001600160f81b03198316108015906126bb5750602d60f91b6001600160f81b0319831611155b156126d8576126cf60f883901c60206135c1565b60f81b92915050565b5090565b6126e68383612851565b6126f36000848484612993565b61082f5760405162461bcd60e51b815260040161077c906135da565b600054600160a81b900460ff166127385760405162461bcd60e51b815260040161077c90613576565b606561274483826134b7565b50606661082f82826134b7565b6060816000036127785750506040805180820190915260018152600360fc1b602082015290565b8160005b81156127a2578061278c81613243565b915061279b9050600a83613642565b915061277c565b6000816001600160401b038111156127bc576127bc612cb7565b6040519080825280601f01601f1916602001820160405280156127e6576020820181803683370190505b5090505b8415611857576127fb60018361325c565b9150612808600a86613656565b612813906030613441565b60f81b81838151811061282857612828613217565b60200101906001600160f81b031916908160001a90535061284a600a86613642565b94506127ea565b6001600160a01b0382166128a75760405162461bcd60e51b815260206004820181905260248201527f4552433732313a206d696e7420746f20746865207a65726f2061646472657373604482015260640161077c565b6000818152606760205260409020546001600160a01b03161561290c5760405162461bcd60e51b815260206004820152601c60248201527f4552433732313a20746f6b656e20616c7265616479206d696e74656400000000604482015260640161077c565b6001600160a01b0382166000908152606860205260408120805460019290612935908490613441565b909155505060008181526067602052604080822080546001600160a01b0319166001600160a01b03861690811790915590518392907fddf252ad1be2c89b69c2b068fc378daa952ba7f163c4a11628f55a4df523b3ef908290a45050565b60006001600160a01b0384163b15612a9057836001600160a01b031663150b7a026129bc612286565b8786866040518563ffffffff1660e01b81526004016129de949392919061366a565b6020604051808303816000875af1925050508015612a19575060408051601f3d908101601f19168201909252612a16918101906136a7565b60015b612a76573d808015612a47576040519150601f19603f3d011682016040523d82523d6000602084013e612a4c565b606091505b508051600003612a6e5760405162461bcd60e51b815260040161077c906135da565b805181602001fd5b6001600160e01b031916630a85bd0160e11b149050611857565b506001949350505050565b6001600160e01b03198116811461228357600080fd5b600060208284031215612ac357600080fd5b813561265281612a9b565b60005b83811015612ae9578181015183820152602001612ad1565b50506000910152565b60008151808452612b0a816020860160208601612ace565b601f01601f19169290920160200192915050565b6020815260006126526020830184612af2565b600060208284031215612b4357600080fd5b5035919050565b6001600160a01b038116811461228357600080fd5b8035612b6a81612b4a565b919050565b60008060408385031215612b8257600080fd5b8235612b8d81612b4a565b946020939093013593505050565b60008060208385031215612bae57600080fd5b82356001600160401b0380821115612bc557600080fd5b818501915085601f830112612bd957600080fd5b813581811115612be857600080fd5b866020828501011115612bfa57600080fd5b60209290920196919550909350505050565b600080600060608486031215612c2157600080fd5b8335612c2c81612b4a565b92506020840135612c3c81612b4a565b929592945050506040919091013590565b600060208284031215612c5f57600080fd5b813561265281612b4a565b6020808252825182820181905260009190848201906040850190845b81811015612cab5783516001600160a01b031683529284019291840191600101612c86565b50909695505050505050565b634e487b7160e01b600052604160045260246000fd5b604051601f8201601f191681016001600160401b0381118282101715612cf557612cf5612cb7565b604052919050565b60006001600160401b03831115612d1657612d16612cb7565b612d29601f8401601f1916602001612ccd565b9050828152838383011115612d3d57600080fd5b828260208301376000602084830101529392505050565b600082601f830112612d6557600080fd5b61265283833560208501612cfd565b600060208284031215612d8657600080fd5b81356001600160401b03811115612d9c57600080fd5b61185784828501612d54565b600080600080600060a08688031215612dc057600080fd5b85356001600160401b0380821115612dd757600080fd5b612de389838a01612d54565b96506020880135915080821115612df957600080fd5b50612e0688828901612d54565b94505060408601359250606086013591506080860135612e2581612b4a565b809150509295509295909350565b60008060408385031215612e4657600080fd5b8235612e5181612b4a565b91506020830135612e6181612b4a565b809150509250929050565b801515811461228357600080fd5b60008060408385031215612e8d57600080fd5b8235612e9881612b4a565b91506020830135612e6181612e6c565b60008060008060808587031215612ebe57600080fd5b8435612ec981612b4a565b93506020850135612ed981612b4a565b92506040850135915060608501356001600160401b03811115612efb57600080fd5b8501601f81018713612f0c57600080fd5b612f1b87823560208401612cfd565b91505092959194509250565b600080600060608486031215612f3c57600080fd5b83359250602084013591506040840135612f5581612b4a565b809150509250925092565b60006001600160401b03821115612f7957612f79612cb7565b5060051b60200190565b60008060408385031215612f9657600080fd5b82356001600160401b03811115612fac57600080fd5b8301601f81018513612fbd57600080fd5b80356020612fd2612fcd83612f60565b612ccd565b82815260059290921b83018101918181019088841115612ff157600080fd5b938201935b8385101561301857843561300981612b4a565b82529382019390820190612ff6565b95506130279050868201612b5f565b93505050509250929050565b6020808252825182820181905260009190848201906040850190845b81811015612cab5783518352928401929184019160010161304f565b600181811c9082168061307f57607f821691505b60208210810361309f57634e487b7160e01b600052602260045260246000fd5b50919050565b60208082526035908201527f41757449443a205468657265206973206e6f20417574494420726567697374656040820152743932b2103337b9103a3434b99030b2323932b9b99760591b606082015260800190565b83815260406020820152816040820152818360608301376000818301606090810191909152601f909201601f1916010192915050565b6020808252602e908201527f4552433732313a2063616c6c6572206973206e6f7420746f6b656e206f776e6560408201526d1c881b9bdc88185c1c1c9bdd995960921b606082015260800190565b6000602080838503121561319157600080fd5b82516001600160401b038111156131a757600080fd5b8301601f810185136131b857600080fd5b80516131c6612fcd82612f60565b81815260059190911b820183019083810190878311156131e557600080fd5b928401925b8284101561320c5783516131fd81612b4a565b825292840192908401906131ea565b979650505050505050565b634e487b7160e01b600052603260045260246000fd5b634e487b7160e01b600052601160045260246000fd5b6000600182016132555761325561322d565b5060010190565b818103818111156106495761064961322d565b60008251613281818460208701612ace565b9190910192915050565b6020808252602c908201527f41757449443a20436f6d6d69746d656e742073686f756c64206265206265747760408201526b065656e203120616e642031360a41b606082015260800190565b6000602082840312156132e957600080fd5b815161265281612e6c565b601f82111561082f57600081815260208120601f850160051c8101602086101561331b5750805b601f850160051c820191505b8181101561333a57828155600101613327565b505050505050565b6001600160401b0383111561335957613359612cb7565b61336d83613367835461306b565b836132f4565b6000601f8411600181146133a157600085156133895750838201355b600019600387901b1c1916600186901b1783556133fb565b600083815260209020601f19861690835b828110156133d257868501358255602094850194600190920191016133b2565b50868210156133ef5760001960f88860031b161c19848701351681555b505060018560011b0183555b5050505050565b8183823760009101908152919050565b60008351613424818460208801612ace565b835190830190613438818360208801612ace565b01949350505050565b808201808211156106495761064961322d565b60006020828403121561346657600080fd5b5051919050565b6020808252602a908201527f436f6d6d69746d656e74206c6f776572207468616e207468652073206d696e2060408201526918dbdb5b5a5d1b595b9d60b21b606082015260800190565b81516001600160401b038111156134d0576134d0612cb7565b6134e4816134de845461306b565b846132f4565b602080601f83116001811461351957600084156135015750858301515b600019600386901b1c1916600185901b17855561333a565b600085815260208120601f198616915b8281101561354857888601518255948401946001909101908401613529565b50858210156135665787850151600019600388901b60f8161c191681555b5050505050600190811b01905550565b6020808252602b908201527f496e697469616c697a61626c653a20636f6e7472616374206973206e6f74206960408201526a6e697469616c697a696e6760a81b606082015260800190565b60ff81811683821601908111156106495761064961322d565b60208082526032908201527f4552433732313a207472616e7366657220746f206e6f6e20455243373231526560408201527131b2b4bb32b91034b6b83632b6b2b73a32b960711b606082015260800190565b634e487b7160e01b600052601260045260246000fd5b6000826136515761365161362c565b500490565b6000826136655761366561362c565b500690565b6001600160a01b038581168252841660208201526040810183905260806060820181905260009061369d90830184612af2565b9695505050505050565b6000602082840312156136b957600080fd5b815161265281612a9b56fea2646970667358221220937474838d9acec787bf9290857eb385c8a4b25fbaf0cb5c1a397d484c534e7464736f6c63430008130033",
    "linkReferences": {}
  },
  "methodIdentifiers": {
    "addDiscordIDToAutID(string)": "72e4c149",
    "approve(address,uint256)": "095ea7b3",
    "autIDToDiscordID(uint256)": "fa320285",
    "autIDUsername(string)": "f547773c",
    "balanceOf(address)": "70a08231",
    "discordIDToAddress(string)": "6dc5cc06",
    "editCommitment(address,uint256)": "f359d863",
    "getAllActiveMembers(address)": "2ca62cd5",
    "getApproved(uint256)": "081812fc",
    "getAutIDByOwner(address)": "79389510",
    "getAutIDHolderByUsername(string)": "4e51ea39",
    "getCommitmentsOfFor(address[],address)": "ff69a391",
    "getHolderNovae(address)": "89cbf104",
    "getMembershipData(address,address)": "96259c66",
    "getNextTokenID()": "4a198119",
    "getTotalCommitment(address)": "da24e8b8",
    "getTrustedForwarder()": "ce1b815f",
    "initialize(address)": "c4d66de8",
    "isApprovedForAll(address,address)": "e985e9c5",
    "isTrustedForwarder(address)": "572b6c05",
    "joinNova(uint256,uint256,address)": "daedfed2",
    "mint(string,string,uint256,uint256,address)": "5bc4ffdf",
    "name()": "06fdde03",
    "ownerOf(uint256)": "6352211e",
    "safeTransferFrom(address,address,uint256)": "42842e0e",
    "safeTransferFrom(address,address,uint256,bytes)": "b88d4fde",
    "setApprovalForAll(address,bool)": "a22cb465",
    "setMetadataUri(string)": "1130630c",
    "supportsInterface(bytes4)": "01ffc9a7",
    "symbol()": "95d89b41",
    "tokenURI(uint256)": "c87b56dd",
    "transferFrom(address,address,uint256)": "23b872dd",
    "withdraw(address)": "51cff8d9"
  },
  "id": 0
}