{
  "abi": [
    {
      "anonymous": false,
      "inputs": [
        {
          "indexed": true,
          "internalType": "address",
          "name": "owner",
          "type": "address"
        },
        {
          "indexed": true,
          "internalType": "address",
          "name": "approved",
          "type": "address"
        },
        {
          "indexed": true,
          "internalType": "uint256",
          "name": "tokenId",
          "type": "uint256"
        }
      ],
      "name": "Approval",
      "type": "event"
    },
    {
      "anonymous": false,
      "inputs": [
        {
          "indexed": true,
          "internalType": "address",
          "name": "owner",
          "type": "address"
        },
        {
          "indexed": true,
          "internalType": "address",
          "name": "operator",
          "type": "address"
        },
        {
          "indexed": false,
          "internalType": "bool",
          "name": "approved",
          "type": "bool"
        }
      ],
      "name": "ApprovalForAll",
      "type": "event"
    },
    {
      "anonymous": false,
      "inputs": [
        {
          "indexed": false,
          "internalType": "address",
          "name": "owner",
          "type": "address"
        },
        {
          "indexed": false,
          "internalType": "uint256",
          "name": "tokenID",
          "type": "uint256"
        }
      ],
      "name": "AutIDCreated",
      "type": "event"
    },
    {
      "anonymous": false,
      "inputs": [
        {
          "indexed": false,
          "internalType": "address",
          "name": "daoExpanderAddress",
          "type": "address"
        },
        {
          "indexed": false,
          "internalType": "address",
          "name": "member",
          "type": "address"
        },
        {
          "indexed": false,
          "internalType": "uint256",
          "name": "newCommitment",
          "type": "uint256"
        }
      ],
      "name": "CommitmentUpdated",
      "type": "event"
    },
    {
      "anonymous": false,
      "inputs": [
        {
          "indexed": false,
          "internalType": "address",
          "name": "daoExpanderAddress",
          "type": "address"
        },
        {
          "indexed": false,
          "internalType": "address",
          "name": "member",
          "type": "address"
        }
      ],
      "name": "DAOJoined",
      "type": "event"
    },
    {
      "anonymous": false,
      "inputs": [
        {
          "indexed": false,
          "internalType": "address",
          "name": "daoExpanderAddress",
          "type": "address"
        },
        {
          "indexed": false,
          "internalType": "address",
          "name": "member",
          "type": "address"
        }
      ],
      "name": "DAOWithdrown",
      "type": "event"
    },
    {
      "anonymous": false,
      "inputs": [],
      "name": "DiscordIDConnectedToAutID",
      "type": "event"
    },
    {
      "anonymous": false,
      "inputs": [
        {
          "indexed": false,
          "internalType": "uint8",
          "name": "version",
          "type": "uint8"
        }
      ],
      "name": "Initialized",
      "type": "event"
    },
    {
      "anonymous": false,
      "inputs": [
        {
          "indexed": false,
          "internalType": "uint256",
          "name": "tokenId",
          "type": "uint256"
        },
        {
          "indexed": false,
          "internalType": "string",
          "name": "metadataUri",
          "type": "string"
        }
      ],
      "name": "MetadataUriSet",
      "type": "event"
    },
    {
      "anonymous": false,
      "inputs": [
        {
          "indexed": true,
          "internalType": "address",
          "name": "from",
          "type": "address"
        },
        {
          "indexed": true,
          "internalType": "address",
          "name": "to",
          "type": "address"
        },
        {
          "indexed": true,
          "internalType": "uint256",
          "name": "tokenId",
          "type": "uint256"
        }
      ],
      "name": "Transfer",
      "type": "event"
    },
    {
      "inputs": [
        {
          "internalType": "string",
          "name": "discordID",
          "type": "string"
        }
      ],
      "name": "addDiscordIDToAutID",
      "outputs": [],
      "stateMutability": "nonpayable",
      "type": "function"
    },
    {
      "inputs": [
        {
          "internalType": "address",
          "name": "to",
          "type": "address"
        },
        {
          "internalType": "uint256",
          "name": "tokenId",
          "type": "uint256"
        }
      ],
      "name": "approve",
      "outputs": [],
      "stateMutability": "nonpayable",
      "type": "function"
    },
    {
      "inputs": [
        {
          "internalType": "uint256",
          "name": "",
          "type": "uint256"
        }
      ],
      "name": "autIDToDiscordID",
      "outputs": [
        {
          "internalType": "string",
          "name": "",
          "type": "string"
        }
      ],
      "stateMutability": "view",
      "type": "function"
    },
    {
      "inputs": [
        {
          "internalType": "string",
          "name": "",
          "type": "string"
        }
      ],
      "name": "autIDUsername",
      "outputs": [
        {
          "internalType": "address",
          "name": "",
          "type": "address"
        }
      ],
      "stateMutability": "view",
      "type": "function"
    },
    {
      "inputs": [
        {
          "internalType": "address",
          "name": "owner",
          "type": "address"
        }
      ],
      "name": "balanceOf",
      "outputs": [
        {
          "internalType": "uint256",
          "name": "",
          "type": "uint256"
        }
      ],
      "stateMutability": "view",
      "type": "function"
    },
    {
      "inputs": [
        {
          "internalType": "string",
          "name": "",
          "type": "string"
        }
      ],
      "name": "discordIDToAddress",
      "outputs": [
        {
          "internalType": "address",
          "name": "",
          "type": "address"
        }
      ],
      "stateMutability": "view",
      "type": "function"
    },
    {
      "inputs": [
        {
          "internalType": "address",
          "name": "daoAddress",
          "type": "address"
        },
        {
          "internalType": "uint256",
          "name": "newCommitment",
          "type": "uint256"
        }
      ],
      "name": "editCommitment",
      "outputs": [],
      "stateMutability": "nonpayable",
      "type": "function"
    },
    {
      "inputs": [
        {
          "internalType": "address",
          "name": "nova_",
          "type": "address"
        }
      ],
      "name": "getAllActiveMembers",
      "outputs": [
        {
          "internalType": "address[]",
          "name": "members",
          "type": "address[]"
        }
      ],
      "stateMutability": "view",
      "type": "function"
    },
    {
      "inputs": [
        {
          "internalType": "uint256",
          "name": "tokenId",
          "type": "uint256"
        }
      ],
      "name": "getApproved",
      "outputs": [
        {
          "internalType": "address",
          "name": "",
          "type": "address"
        }
      ],
      "stateMutability": "view",
      "type": "function"
    },
    {
      "inputs": [
        {
          "internalType": "address",
          "name": "autIDOwner",
          "type": "address"
        }
      ],
      "name": "getAutIDByOwner",
      "outputs": [
        {
          "internalType": "uint256",
          "name": "",
          "type": "uint256"
        }
      ],
      "stateMutability": "view",
      "type": "function"
    },
    {
      "inputs": [
        {
          "internalType": "string",
          "name": "username",
          "type": "string"
        }
      ],
      "name": "getAutIDHolderByUsername",
      "outputs": [
        {
          "internalType": "address",
          "name": "",
          "type": "address"
        }
      ],
      "stateMutability": "view",
      "type": "function"
    },
    {
      "inputs": [
        {
          "internalType": "address[]",
          "name": "agents",
          "type": "address[]"
        },
        {
          "internalType": "address",
          "name": "dao_",
          "type": "address"
        }
      ],
      "name": "getCommitmentsOfFor",
      "outputs": [
        {
          "internalType": "uint256[]",
          "name": "commitments",
          "type": "uint256[]"
        }
      ],
      "stateMutability": "view",
      "type": "function"
    },
    {
      "inputs": [
        {
          "internalType": "address",
          "name": "autIDHolder",
          "type": "address"
        }
      ],
      "name": "getHolderDAOs",
      "outputs": [
        {
          "internalType": "address[]",
          "name": "daos",
          "type": "address[]"
        }
      ],
      "stateMutability": "view",
      "type": "function"
    },
    {
      "inputs": [
        {
          "internalType": "address",
          "name": "autIDHolder",
          "type": "address"
        },
        {
          "internalType": "address",
          "name": "daoAddress",
          "type": "address"
        }
      ],
      "name": "getMembershipData",
      "outputs": [
        {
          "components": [
            {
              "internalType": "address",
              "name": "daoExpanderAddress",
              "type": "address"
            },
            {
              "internalType": "uint256",
              "name": "role",
              "type": "uint256"
            },
            {
              "internalType": "uint256",
              "name": "commitment",
              "type": "uint256"
            },
            {
              "internalType": "bool",
              "name": "isActive",
              "type": "bool"
            }
          ],
          "internalType": "struct IAutID.DAOMember",
          "name": "",
          "type": "tuple"
        }
      ],
      "stateMutability": "view",
      "type": "function"
    },
    {
      "inputs": [],
      "name": "getNextTokenID",
      "outputs": [
        {
          "internalType": "uint256",
          "name": "",
          "type": "uint256"
        }
      ],
      "stateMutability": "view",
      "type": "function"
    },
    {
      "inputs": [
        {
          "internalType": "address",
          "name": "autIDHolder",
          "type": "address"
        }
      ],
      "name": "getTotalCommitment",
      "outputs": [
        {
          "internalType": "uint256",
          "name": "",
          "type": "uint256"
        }
      ],
      "stateMutability": "view",
      "type": "function"
    },
    {
      "inputs": [],
      "name": "getTrustedForwarder",
      "outputs": [
        {
          "internalType": "address",
          "name": "forwarder",
          "type": "address"
        }
      ],
      "stateMutability": "view",
      "type": "function"
    },
    {
      "inputs": [
        {
          "internalType": "address",
          "name": "trustedForwarder",
          "type": "address"
        }
      ],
      "name": "initialize",
      "outputs": [],
      "stateMutability": "nonpayable",
      "type": "function"
    },
    {
      "inputs": [
        {
          "internalType": "address",
          "name": "owner",
          "type": "address"
        },
        {
          "internalType": "address",
          "name": "operator",
          "type": "address"
        }
      ],
      "name": "isApprovedForAll",
      "outputs": [
        {
          "internalType": "bool",
          "name": "",
          "type": "bool"
        }
      ],
      "stateMutability": "view",
      "type": "function"
    },
    {
      "inputs": [
        {
          "internalType": "address",
          "name": "forwarder",
          "type": "address"
        }
      ],
      "name": "isTrustedForwarder",
      "outputs": [
        {
          "internalType": "bool",
          "name": "",
          "type": "bool"
        }
      ],
      "stateMutability": "view",
      "type": "function"
    },
    {
      "inputs": [
        {
          "internalType": "uint256",
          "name": "role",
          "type": "uint256"
        },
        {
          "internalType": "uint256",
          "name": "commitment",
          "type": "uint256"
        },
        {
          "internalType": "address",
          "name": "daoAddress",
          "type": "address"
        }
      ],
      "name": "joinDAO",
      "outputs": [],
      "stateMutability": "nonpayable",
      "type": "function"
    },
    {
      "inputs": [
        {
          "internalType": "string",
          "name": "username",
          "type": "string"
        },
        {
          "internalType": "string",
          "name": "url",
          "type": "string"
        },
        {
          "internalType": "uint256",
          "name": "role",
          "type": "uint256"
        },
        {
          "internalType": "uint256",
          "name": "commitment",
          "type": "uint256"
        },
        {
          "internalType": "address",
          "name": "daoAddress",
          "type": "address"
        }
      ],
      "name": "mint",
      "outputs": [],
      "stateMutability": "nonpayable",
      "type": "function"
    },
    {
      "inputs": [],
      "name": "name",
      "outputs": [
        {
          "internalType": "string",
          "name": "",
          "type": "string"
        }
      ],
      "stateMutability": "view",
      "type": "function"
    },
    {
      "inputs": [
        {
          "internalType": "uint256",
          "name": "tokenId",
          "type": "uint256"
        }
      ],
      "name": "ownerOf",
      "outputs": [
        {
          "internalType": "address",
          "name": "",
          "type": "address"
        }
      ],
      "stateMutability": "view",
      "type": "function"
    },
    {
      "inputs": [
        {
          "internalType": "address",
          "name": "from",
          "type": "address"
        },
        {
          "internalType": "address",
          "name": "to",
          "type": "address"
        },
        {
          "internalType": "uint256",
          "name": "tokenId",
          "type": "uint256"
        }
      ],
      "name": "safeTransferFrom",
      "outputs": [],
      "stateMutability": "nonpayable",
      "type": "function"
    },
    {
      "inputs": [
        {
          "internalType": "address",
          "name": "from",
          "type": "address"
        },
        {
          "internalType": "address",
          "name": "to",
          "type": "address"
        },
        {
          "internalType": "uint256",
          "name": "tokenId",
          "type": "uint256"
        },
        {
          "internalType": "bytes",
          "name": "data",
          "type": "bytes"
        }
      ],
      "name": "safeTransferFrom",
      "outputs": [],
      "stateMutability": "nonpayable",
      "type": "function"
    },
    {
      "inputs": [
        {
          "internalType": "address",
          "name": "operator",
          "type": "address"
        },
        {
          "internalType": "bool",
          "name": "approved",
          "type": "bool"
        }
      ],
      "name": "setApprovalForAll",
      "outputs": [],
      "stateMutability": "nonpayable",
      "type": "function"
    },
    {
      "inputs": [
        {
          "internalType": "string",
          "name": "metadataUri",
          "type": "string"
        }
      ],
      "name": "setMetadataUri",
      "outputs": [],
      "stateMutability": "nonpayable",
      "type": "function"
    },
    {
      "inputs": [
        {
          "internalType": "bytes4",
          "name": "interfaceId",
          "type": "bytes4"
        }
      ],
      "name": "supportsInterface",
      "outputs": [
        {
          "internalType": "bool",
          "name": "",
          "type": "bool"
        }
      ],
      "stateMutability": "view",
      "type": "function"
    },
    {
      "inputs": [],
      "name": "symbol",
      "outputs": [
        {
          "internalType": "string",
          "name": "",
          "type": "string"
        }
      ],
      "stateMutability": "view",
      "type": "function"
    },
    {
      "inputs": [
        {
          "internalType": "uint256",
          "name": "tokenId",
          "type": "uint256"
        }
      ],
      "name": "tokenURI",
      "outputs": [
        {
          "internalType": "string",
          "name": "",
          "type": "string"
        }
      ],
      "stateMutability": "view",
      "type": "function"
    },
    {
      "inputs": [
        {
          "internalType": "address",
          "name": "from",
          "type": "address"
        },
        {
          "internalType": "address",
          "name": "to",
          "type": "address"
        },
        {
          "internalType": "uint256",
          "name": "tokenId",
          "type": "uint256"
        }
      ],
      "name": "transferFrom",
      "outputs": [],
      "stateMutability": "nonpayable",
      "type": "function"
    },
    {
      "inputs": [
        {
          "internalType": "address",
          "name": "daoAddress",
          "type": "address"
        }
      ],
      "name": "withdraw",
      "outputs": [],
      "stateMutability": "nonpayable",
      "type": "function"
    }
  ],
  "bytecode": {
    "object": "0x608060405234801561001057600080fd5b50613703806100206000396000f3fe608060405234801561001057600080fd5b50600436106101fb5760003560e01c806370a082311161011a578063c4d66de8116100ad578063e985e9c51161007c578063e985e9c514610547578063f359d86314610583578063f547773c14610596578063fa320285146105ca578063ff69a391146105dd57600080fd5b8063c4d66de8146104fd578063c87b56dd14610510578063ce1b815f14610523578063da24e8b81461053457600080fd5b806396259c66116100e957806396259c66146103f8578063a22cb465146104c4578063a5b58784146104d7578063b88d4fde146104ea57600080fd5b806370a08231146103a157806372e4c149146103b457806379389510146103c757806395d89b41146103f057600080fd5b806342842e0e11610192578063572b6c0511610161578063572b6c05146103255780635bc4ffdf146103475780636352211e1461035a5780636dc5cc061461036d57600080fd5b806342842e0e146102d65780634a198119146102e95780634e51ea39146102ff57806351cff8d91461031257600080fd5b80631130630c116101ce5780631130630c1461027d57806323b872dd14610290578063241cc208146102a35780632ca62cd5146102c357600080fd5b806301ffc9a71461020057806306fdde0314610228578063081812fc1461023d578063095ea7b314610268575b600080fd5b61021361020e366004612ab7565b6105fd565b60405190151581526020015b60405180910390f35b61023061064f565b60405161021f9190612b24565b61025061024b366004612b37565b6106e1565b6040516001600160a01b03909116815260200161021f565b61027b610276366004612b75565b610708565b005b61027b61028b366004612ba1565b610834565b61027b61029e366004612c12565b61090f565b6102b66102b1366004612c53565b610947565b60405161021f9190612c70565b6102b66102d1366004612c53565b6109e5565b61027b6102e4366004612c12565b610c5c565b6102f1610c77565b60405190815260200161021f565b61025061030d366004612d7a565b610c87565b61027b610320366004612c53565b610cc0565b610213610333366004612c53565b6000546001600160a01b0391821691161490565b61027b610355366004612dae565b610e10565b610250610368366004612b37565b6113cc565b61025061037b366004612d7a565b805160208183018101805160cf825292820191909301209152546001600160a01b031681565b6102f16103af366004612c53565b61142c565b61027b6103c2366004612ba1565b6114b2565b6102f16103d5366004612c53565b6001600160a01b0316600090815260cc602052604090205490565b61023061156c565b610486610406366004612e39565b60408051608080820183526000808352602080840182905283850182905260609384018290526001600160a01b03968716825260ca81528482209587168252948552839020835191820184528054909516815260018501549381019390935260028401549183019190915260039092015460ff1615159181019190915290565b60405161021f919081516001600160a01b03168152602080830151908201526040808301519082015260609182015115159181019190915260800190565b61027b6104d2366004612e80565b61157b565b61027b6104e5366004612eae565b611591565b61027b6104f8366004612ee7565b611ab6565b61027b61050b366004612c53565b611af5565b61023061051e366004612b37565b611c77565b6000546001600160a01b0316610250565b6102f1610542366004612c53565b611d87565b610213610555366004612e39565b6001600160a01b039182166000908152606a6020908152604080832093909416825291909152205460ff1690565b61027b610591366004612b75565b611e84565b6102506105a4366004612d7a565b805160208183018101805160cd825292820191909301209152546001600160a01b031681565b6102306105d8366004612b37565b61203a565b6105f06105eb366004612f89565b6120d4565b60405161021f9190613039565b60006001600160e01b031982166380ac58cd60e01b148061062e57506001600160e01b03198216635b5e139f60e01b145b8061064957506301ffc9a760e01b6001600160e01b03198316145b92915050565b60606065805461065e90613071565b80601f016020809104026020016040519081016040528092919081815260200182805461068a90613071565b80156106d75780601f106106ac576101008083540402835291602001916106d7565b820191906000526020600020905b8154815290600101906020018083116106ba57829003601f168201915b5050505050905090565b60006106ec8261222a565b506000908152606960205260409020546001600160a01b031690565b6000610713826113cc565b9050806001600160a01b0316836001600160a01b0316036107855760405162461bcd60e51b815260206004820152602160248201527f4552433732313a20617070726f76616c20746f2063757272656e74206f776e656044820152603960f91b60648201526084015b60405180910390fd5b806001600160a01b031661079761228c565b6001600160a01b031614806107b357506107b38161055561228c565b6108255760405162461bcd60e51b815260206004820152603e60248201527f4552433732313a20617070726f76652063616c6c6572206973206e6f7420746f60448201527f6b656e206f776e6572206e6f7220617070726f76656420666f7220616c6c0000606482015260840161077c565b61082f8383612296565b505050565b61083f6103af61228c565b60011461085e5760405162461bcd60e51b815260040161077c906130ab565b600060cc600061086c61228c565b6001600160a01b03166001600160a01b031681526020019081526020016000205490506108cf8184848080601f01602080910402602001604051908101604052809392919081815260200183838082843760009201919091525061230492505050565b7f8b20b7ba7012e3c6dd7eebc0edcd0b48b7b1baaefa3edd31c7c9fe460037840181848460405161090293929190613100565b60405180910390a1505050565b61092061091a61228c565b82612397565b61093c5760405162461bcd60e51b815260040161077c90613136565b61082f838383612415565b60606109528261142c565b6001146109715760405162461bcd60e51b815260040161077c906130ab565b6001600160a01b038216600090815260cb6020908152604091829020805483518184028101840190945280845290918301828280156109d957602002820191906000526020600020905b81546001600160a01b031681526001909101906020018083116109bb575b50505050509050919050565b6060600080836001600160a01b0316637c0f6b356040518163ffffffff1660e01b8152600401600060405180830381865afa158015610a28573d6000803e3d6000fd5b505050506040513d6000823e601f3d908101601f19168201604052610a509190810190613184565b9250600083516001600160401b03811115610a6d57610a6d612cbd565b604051908082528060200260200182016040528015610a96578160200160208202803683370190505b5090505b8351831015610b615760ca6000858581518110610ab957610ab961321d565b6020908102919091018101516001600160a01b0390811683528282019390935260409182016000908120938916815292905290206003015460ff1615610b4a57838381518110610b0b57610b0b61321d565b6020026020010151818481518110610b2557610b2561321d565b60200260200101906001600160a01b031690816001600160a01b031681525050610b56565b610b5382613249565b91505b826001019250610a9a565b60009250818451610b729190613262565b6001600160401b03811115610b8957610b89612cbd565b604051908082528060200260200182016040528015610bb2578160200160208202803683370190505b509350600091505b8051831015610c545760006001600160a01b0316818481518110610be057610be061321d565b60200260200101516001600160a01b031614610c4957808381518110610c0857610c0861321d565b6020026020010151848381518110610c2257610c2261321d565b60200260200101906001600160a01b031690816001600160a01b0316815250508160010191505b826001019250610bba565b505050919050565b61082f83838360405180602001604052806000815250611ab6565b6000610c8260c95490565b905090565b600060cd610c948361245d565b604051610ca19190613275565b908152604051908190036020019020546001600160a01b031692915050565b60ca6000610ccc61228c565b6001600160a01b039081168252602080830193909352604091820160009081209185168152925290206003015460ff16610d3e5760405162461bcd60e51b815260206004820152601360248201527220baba24a21d102737ba10309036b2b6b132b960691b604482015260640161077c565b600060ca6000610d4c61228c565b6001600160a01b03908116825260208083019390935260409182016000908120918616815292528120600301805460ff19169215159290921790915560ca81610d9361228c565b6001600160a01b03908116825260208083019390935260409182016000908120918616815292529020600201557fa1bb6a1161e67eed91355570b58f001eb7071b21d785264e36afcee01d92a8b081610dea61228c565b604080516001600160a01b0393841681529290911660208301520160405180910390a150565b6011855110610e6c5760405162461bcd60e51b815260206004820152602260248201527f557365726e616d65206d757374206265206d6178203136206368617261637465604482015261727360f01b606482015260840161077c565b600083118015610e7c5750600483105b610ec85760405162461bcd60e51b815260206004820152601c60248201527f526f6c65206d757374206265206265747765656e203120616e64203300000000604482015260640161077c565b600082118015610ed85750600b82105b610ef45760405162461bcd60e51b815260040161077c90613291565b6001600160a01b038116610f3f5760405162461bcd60e51b815260206004820152601260248201527141757449443a204d697373696e672044414f60701b604482015260640161077c565b610f4a6103af61228c565b15610fbd5760405162461bcd60e51b815260206004820152603a60248201527f41757449443a20546865726520697320417574494420616c726561647920726560448201527f676973746572656420666f72207468697320616464726573732e000000000000606482015260840161077c565b60006001600160a01b031660cd86604051610fd89190613275565b908152604051908190036020019020546001600160a01b03161461103e5760405162461bcd60e51b815260206004820152601e60248201527f41757449443a20557365726e616d6520616c72656164792074616b656e210000604482015260640161077c565b806001600160a01b03166303ffe33061105561228c565b6040516001600160e01b031960e084901b1681526001600160a01b03909116600482015260248101869052604401602060405180830381865afa1580156110a0573d6000803e3d6000fd5b505050506040513d601f19601f820116820180604052508101906110c491906132dd565b6111105760405162461bcd60e51b815260206004820181905260248201527f41757449443a204e6f742061206d656d626572206f6620746869732044414f21604482015260640161077c565b600061111b8661245d565b9050600061112860c95490565b905061113b61113561228c565b826124d0565b6111458187612304565b604080516080810182526001600160a01b0385168152602081018790529081018590526001606082015260ca600061117b61228c565b6001600160a01b0390811682526020808301939093526040918201600090812088831682528452828120855181546001600160a01b03191693169290921782559284015160018201559083015160028201556060909201516003909201805460ff19169215159290921790915560cb906111f361228c565b6001600160a01b03908116825260208083019390935260409091016000908120805460018101825590825292812090920180546001600160a01b031916918616919091179055819060cc9061124661228c565b6001600160a01b0316815260208101919091526040016000205561126861228c565b60cd836040516112789190613275565b90815260405190819003602001902080546001600160a01b03929092166001600160a01b03199092169190911790556112b560c980546001019055565b826001600160a01b0316633b4da69f6112cc61228c565b6040516001600160e01b031960e084901b1681526001600160a01b03909116600482015260248101889052604401600060405180830381600087803b15801561131457600080fd5b505af1158015611328573d6000803e3d6000fd5b505050507fd18d4718c9d3e995ccc3faf448a66e5aae275643957aecfff839ae445574e5d361135561228c565b604080516001600160a01b039092168252602082018490520160405180910390a17f19c2cee09470d9f5934cb6d3839371932a4999f4d3ab1423e43465bb26858634836113a061228c565b604080516001600160a01b0393841681529290911660208301520160405180910390a150505050505050565b6000818152606760205260408120546001600160a01b0316806106495760405162461bcd60e51b8152602060048201526018602482015277115490cdcc8c4e881a5b9d985b1a59081d1bdad95b88125160421b604482015260640161077c565b60006001600160a01b0382166114965760405162461bcd60e51b815260206004820152602960248201527f4552433732313a2061646472657373207a65726f206973206e6f7420612076616044820152683634b21037bbb732b960b91b606482015260840161077c565b506001600160a01b031660009081526068602052604090205490565b600060cc60006114c061228c565b6001600160a01b03168152602080820192909252604090810160009081205480825260ce909352209091506114f6838583613348565b506114ff61228c565b60cf8484604051611511929190613408565b90815260405190819003602001812080546001600160a01b03939093166001600160a01b0319909316929092179091557fd751b525f83cb4458bf789d0f717631f3a26d5c70a81ea922690f3cf09f3e6df90600090a1505050565b60606066805461065e90613071565b61158d61158661228c565b83836124ea565b5050565b6000831180156115a15750600483105b6115ed5760405162461bcd60e51b815260206004820152601c60248201527f526f6c65206d757374206265206265747765656e203120616e64203300000000604482015260640161077c565b6000821180156115fd5750600b82105b6116195760405162461bcd60e51b815260040161077c90613291565b6001600160a01b0381166116645760405162461bcd60e51b815260206004820152601260248201527141757449443a204d697373696e672044414f60701b604482015260640161077c565b61166f6103af61228c565b60011461168e5760405162461bcd60e51b815260040161077c906130ab565b600060cb600061169c61228c565b6001600160a01b03166001600160a01b0316815260200190815260200160002080548060200260200160405190810160405280929190818152602001828054801561171057602002820191906000526020600020905b81546001600160a01b031681526001909101906020018083116116f2575b5050505050905060005b81518110156117af57826001600160a01b031682828151811061173f5761173f61321d565b60200260200101516001600160a01b03160361179d5760405162461bcd60e51b815260206004820152601760248201527f41757449443a20416c72656164792061206d656d626572000000000000000000604482015260640161077c565b806117a781613249565b91505061171a565b50816001600160a01b0316632a79c6116040518163ffffffff1660e01b8152600401602060405180830381865afa1580156117ee573d6000803e3d6000fd5b505050506040513d601f19601f820116820180604052508101906118129190613418565b8310156118315760405162461bcd60e51b815260040161077c90613431565b816001600160a01b03166303ffe33061184861228c565b6040516001600160e01b031960e084901b1681526001600160a01b03909116600482015260248101879052604401602060405180830381865afa158015611893573d6000803e3d6000fd5b505050506040513d601f19601f820116820180604052508101906118b791906132dd565b6119035760405162461bcd60e51b815260206004820181905260248201527f41757449443a204e6f742061206d656d626572206f6620746869732044414f21604482015260640161077c565b604080516080810182526001600160a01b0384168152602081018690529081018490526001606082015260ca600061193961228c565b6001600160a01b0390811682526020808301939093526040918201600090812087831682528452828120855181546001600160a01b03191693169290921782559284015160018201559083015160028201556060909201516003909201805460ff19169215159290921790915560cb906119b161228c565b6001600160a01b03908116825260208083019390935260409091016000908120805460018101825590825292902090910180546001600160a01b0319169184169182179055633b4da69f611a0361228c565b6040516001600160e01b031960e084901b1681526001600160a01b03909116600482015260248101879052604401600060405180830381600087803b158015611a4b57600080fd5b505af1158015611a5f573d6000803e3d6000fd5b505050507f19c2cee09470d9f5934cb6d3839371932a4999f4d3ab1423e43465bb2685863482611a8d61228c565b604080516001600160a01b0393841681529290911660208301520160405180910390a150505050565b611ac7611ac161228c565b83612397565b611ae35760405162461bcd60e51b815260040161077c90613136565b611aef84848484612415565b50505050565b600054600160a81b900460ff1615808015611b1d57506000546001600160a01b90910460ff16105b80611b3e5750303b158015611b3e5750600054600160a01b900460ff166001145b611ba15760405162461bcd60e51b815260206004820152602e60248201527f496e697469616c697a61626c653a20636f6e747261637420697320616c72656160448201526d191e481a5b9a5d1a585b1a5e995960921b606482015260840161077c565b6000805460ff60a01b1916600160a01b1790558015611bce576000805460ff60a81b1916600160a81b1790555b611c1060405180604001604052806005815260200164105d5d125160da1b8152506040518060400160405280600381526020016210555560ea1b8152506125b8565b600080546001600160a01b0319166001600160a01b038416179055801561158d576000805460ff60a81b19169055604051600181527f7f26b83ff96e1f2b6a682f133852f6798a09c465da95921460cefb3847402498906020015b60405180910390a15050565b6060611c828261222a565b60008281526097602052604081208054611c9b90613071565b80601f0160208091040260200160405190810160405280929190818152602001828054611cc790613071565b8015611d145780601f10611ce957610100808354040283529160200191611d14565b820191906000526020600020905b815481529060010190602001808311611cf757829003601f168201915b505050505090506000611d3260408051602081019091526000815290565b90508051600003611d44575092915050565b815115611d76578082604051602001611d5e92919061347e565b60405160208183030381529060405292505050919050565b611d7f846125eb565b949350505050565b6001600160a01b038116600090815260cb6020908152604080832080548251818502810185019093528083528493830182828015611dee57602002820191906000526020600020905b81546001600160a01b03168152600190910190602001808311611dd0575b505050505090506000805b8251811015611e7c576001600160a01b038516600090815260ca602052604081208451909190859084908110611e3157611e3161321d565b60200260200101516001600160a01b03166001600160a01b031681526020019081526020016000206002015482611e6891906134ad565b915080611e7481613249565b915050611df9565b509392505050565b60ca6000611e9061228c565b6001600160a01b039081168252602080830193909352604091820160009081209186168152925290206003015460ff16611f025760405162461bcd60e51b815260206004820152601360248201527220baba24a21d102737ba10309036b2b6b132b960691b604482015260640161077c565b600081118015611f125750600b81105b611f2e5760405162461bcd60e51b815260040161077c90613291565b816001600160a01b0316632a79c6116040518163ffffffff1660e01b8152600401602060405180830381865afa158015611f6c573d6000803e3d6000fd5b505050506040513d601f19601f82011682018060405250810190611f909190613418565b811015611faf5760405162461bcd60e51b815260040161077c90613431565b8060ca6000611fbc61228c565b6001600160a01b03908116825260208083019390935260409182016000908120918716815292529020600201557fd79a2f47c1c734f8660476261fe14c54bb4b004e21643d70f34e76f590df70ba8261201361228c565b604080516001600160a01b0393841681529290911660208301528101839052606001611c6b565b60ce602052600090815260409020805461205390613071565b80601f016020809104026020016040519081016040528092919081815260200182805461207f90613071565b80156120cc5780601f106120a1576101008083540402835291602001916120cc565b820191906000526020600020905b8154815290600101906020018083116120af57829003601f168201915b505050505081565b60606000835160000361214a57826001600160a01b0316637c0f6b356040518163ffffffff1660e01b8152600401600060405180830381865afa15801561211f573d6000803e3d6000fd5b505050506040513d6000823e601f3d908101601f191682016040526121479190810190613184565b93505b83516001600160401b0381111561216357612163612cbd565b60405190808252806020026020018201604052801561218c578160200160208202803683370190505b5091505b83518110156122235760ca60008583815181106121af576121af61321d565b60200260200101516001600160a01b03166001600160a01b031681526020019081526020016000206000846001600160a01b03166001600160a01b03168152602001908152602001600020600201548282815181106122105761221061321d565b6020908102919091010152600101612190565b5092915050565b6000818152606760205260409020546001600160a01b03166122895760405162461bcd60e51b8152602060048201526018602482015277115490cdcc8c4e881a5b9d985b1a59081d1bdad95b88125160421b604482015260640161077c565b50565b6000610c8261265f565b600081815260696020526040902080546001600160a01b0319166001600160a01b03841690811790915581906122cb826113cc565b6001600160a01b03167f8c5be1e5ebec7d5bd14f71427d1e84f3dd0314c0f7b2291e5b200ac8c7c3b92560405160405180910390a45050565b6000828152606760205260409020546001600160a01b031661237f5760405162461bcd60e51b815260206004820152602e60248201527f45524337323155524953746f726167653a2055524920736574206f66206e6f6e60448201526d32bc34b9ba32b73a103a37b5b2b760911b606482015260840161077c565b600082815260976020526040902061082f82826134c0565b6000806123a3836113cc565b9050806001600160a01b0316846001600160a01b031614806123ea57506001600160a01b038082166000908152606a602090815260408083209388168352929052205460ff165b80611d7f5750836001600160a01b0316612403846106e1565b6001600160a01b031614949350505050565b60405162461bcd60e51b815260206004820152601e60248201527f41757449443a204175744944207472616e736665722064697361626c65640000604482015260640161077c565b60608160005b8151811015612223576124958282815181106124815761248161321d565b01602001516001600160f81b031916612693565b8282815181106124a7576124a761321d565b60200101906001600160f81b031916908160001a905350806124c881613249565b915050612463565b61158d8282604051806020016040528060008152506126e2565b816001600160a01b0316836001600160a01b03160361254b5760405162461bcd60e51b815260206004820152601960248201527f4552433732313a20617070726f766520746f2063616c6c657200000000000000604482015260640161077c565b6001600160a01b038381166000818152606a6020908152604080832094871680845294825291829020805460ff191686151590811790915591519182527f17307eab39ab6107e8899845ad3d59bd9653f200f220920489ca2b5937696c31910160405180910390a3505050565b600054600160a81b900460ff166125e15760405162461bcd60e51b815260040161077c9061357f565b61158d8282612715565b60606125f68261222a565b600061260d60408051602081019091526000815290565b9050600081511161262d5760405180602001604052806000815250612658565b8061263784612757565b60405160200161264892919061347e565b6040516020818303038152906040525b9392505050565b60006014361080159061267c57506000546001600160a01b031633145b1561268e575060131936013560601c90565b503390565b6000604160f81b6001600160f81b03198316108015906126c15750602d60f91b6001600160f81b0319831611155b156126de576126d560f883901c60206135ca565b60f81b92915050565b5090565b6126ec8383612857565b6126f96000848484612999565b61082f5760405162461bcd60e51b815260040161077c906135e3565b600054600160a81b900460ff1661273e5760405162461bcd60e51b815260040161077c9061357f565b606561274a83826134c0565b50606661082f82826134c0565b60608160000361277e5750506040805180820190915260018152600360fc1b602082015290565b8160005b81156127a8578061279281613249565b91506127a19050600a8361364b565b9150612782565b6000816001600160401b038111156127c2576127c2612cbd565b6040519080825280601f01601f1916602001820160405280156127ec576020820181803683370190505b5090505b8415611d7f57612801600183613262565b915061280e600a8661365f565b6128199060306134ad565b60f81b81838151811061282e5761282e61321d565b60200101906001600160f81b031916908160001a905350612850600a8661364b565b94506127f0565b6001600160a01b0382166128ad5760405162461bcd60e51b815260206004820181905260248201527f4552433732313a206d696e7420746f20746865207a65726f2061646472657373604482015260640161077c565b6000818152606760205260409020546001600160a01b0316156129125760405162461bcd60e51b815260206004820152601c60248201527f4552433732313a20746f6b656e20616c7265616479206d696e74656400000000604482015260640161077c565b6001600160a01b038216600090815260686020526040812080546001929061293b9084906134ad565b909155505060008181526067602052604080822080546001600160a01b0319166001600160a01b03861690811790915590518392907fddf252ad1be2c89b69c2b068fc378daa952ba7f163c4a11628f55a4df523b3ef908290a45050565b60006001600160a01b0384163b15612a9657836001600160a01b031663150b7a026129c261228c565b8786866040518563ffffffff1660e01b81526004016129e49493929190613673565b6020604051808303816000875af1925050508015612a1f575060408051601f3d908101601f19168201909252612a1c918101906136b0565b60015b612a7c573d808015612a4d576040519150601f19603f3d011682016040523d82523d6000602084013e612a52565b606091505b508051600003612a745760405162461bcd60e51b815260040161077c906135e3565b805181602001fd5b6001600160e01b031916630a85bd0160e11b149050611d7f565b506001949350505050565b6001600160e01b03198116811461228957600080fd5b600060208284031215612ac957600080fd5b813561265881612aa1565b60005b83811015612aef578181015183820152602001612ad7565b50506000910152565b60008151808452612b10816020860160208601612ad4565b601f01601f19169290920160200192915050565b6020815260006126586020830184612af8565b600060208284031215612b4957600080fd5b5035919050565b6001600160a01b038116811461228957600080fd5b8035612b7081612b50565b919050565b60008060408385031215612b8857600080fd5b8235612b9381612b50565b946020939093013593505050565b60008060208385031215612bb457600080fd5b82356001600160401b0380821115612bcb57600080fd5b818501915085601f830112612bdf57600080fd5b813581811115612bee57600080fd5b866020828501011115612c0057600080fd5b60209290920196919550909350505050565b600080600060608486031215612c2757600080fd5b8335612c3281612b50565b92506020840135612c4281612b50565b929592945050506040919091013590565b600060208284031215612c6557600080fd5b813561265881612b50565b6020808252825182820181905260009190848201906040850190845b81811015612cb15783516001600160a01b031683529284019291840191600101612c8c565b50909695505050505050565b634e487b7160e01b600052604160045260246000fd5b604051601f8201601f191681016001600160401b0381118282101715612cfb57612cfb612cbd565b604052919050565b60006001600160401b03831115612d1c57612d1c612cbd565b612d2f601f8401601f1916602001612cd3565b9050828152838383011115612d4357600080fd5b828260208301376000602084830101529392505050565b600082601f830112612d6b57600080fd5b61265883833560208501612d03565b600060208284031215612d8c57600080fd5b81356001600160401b03811115612da257600080fd5b611d7f84828501612d5a565b600080600080600060a08688031215612dc657600080fd5b85356001600160401b0380821115612ddd57600080fd5b612de989838a01612d5a565b96506020880135915080821115612dff57600080fd5b50612e0c88828901612d5a565b94505060408601359250606086013591506080860135612e2b81612b50565b809150509295509295909350565b60008060408385031215612e4c57600080fd5b8235612e5781612b50565b91506020830135612e6781612b50565b809150509250929050565b801515811461228957600080fd5b60008060408385031215612e9357600080fd5b8235612e9e81612b50565b91506020830135612e6781612e72565b600080600060608486031215612ec357600080fd5b83359250602084013591506040840135612edc81612b50565b809150509250925092565b60008060008060808587031215612efd57600080fd5b8435612f0881612b50565b93506020850135612f1881612b50565b92506040850135915060608501356001600160401b03811115612f3a57600080fd5b8501601f81018713612f4b57600080fd5b612f5a87823560208401612d03565b91505092959194509250565b60006001600160401b03821115612f7f57612f7f612cbd565b5060051b60200190565b60008060408385031215612f9c57600080fd5b82356001600160401b03811115612fb257600080fd5b8301601f81018513612fc357600080fd5b80356020612fd8612fd383612f66565b612cd3565b82815260059290921b83018101918181019088841115612ff757600080fd5b938201935b8385101561301e57843561300f81612b50565b82529382019390820190612ffc565b955061302d9050868201612b65565b93505050509250929050565b6020808252825182820181905260009190848201906040850190845b81811015612cb157835183529284019291840191600101613055565b600181811c9082168061308557607f821691505b6020821081036130a557634e487b7160e01b600052602260045260246000fd5b50919050565b60208082526035908201527f41757449443a205468657265206973206e6f20417574494420726567697374656040820152743932b2103337b9103a3434b99030b2323932b9b99760591b606082015260800190565b83815260406020820152816040820152818360608301376000818301606090810191909152601f909201601f1916010192915050565b6020808252602e908201527f4552433732313a2063616c6c6572206973206e6f7420746f6b656e206f776e6560408201526d1c881b9bdc88185c1c1c9bdd995960921b606082015260800190565b6000602080838503121561319757600080fd5b82516001600160401b038111156131ad57600080fd5b8301601f810185136131be57600080fd5b80516131cc612fd382612f66565b81815260059190911b820183019083810190878311156131eb57600080fd5b928401925b8284101561321257835161320381612b50565b825292840192908401906131f0565b979650505050505050565b634e487b7160e01b600052603260045260246000fd5b634e487b7160e01b600052601160045260246000fd5b60006001820161325b5761325b613233565b5060010190565b8181038181111561064957610649613233565b60008251613287818460208701612ad4565b9190910192915050565b6020808252602c908201527f41757449443a20436f6d6d69746d656e742073686f756c64206265206265747760408201526b065656e203120616e642031360a41b606082015260800190565b6000602082840312156132ef57600080fd5b815161265881612e72565b601f82111561082f57600081815260208120601f850160051c810160208610156133215750805b601f850160051c820191505b818110156133405782815560010161332d565b505050505050565b6001600160401b0383111561335f5761335f612cbd565b6133738361336d8354613071565b836132fa565b6000601f8411600181146133a7576000851561338f5750838201355b600019600387901b1c1916600186901b178355613401565b600083815260209020601f19861690835b828110156133d857868501358255602094850194600190920191016133b8565b50868210156133f55760001960f88860031b161c19848701351681555b505060018560011b0183555b5050505050565b8183823760009101908152919050565b60006020828403121561342a57600080fd5b5051919050565b6020808252602d908201527f436f6d6d69746d656e74206c6f776572207468616e207468652044414f73206d60408201526c1a5b8818dbdb5b5a5d1b595b9d609a1b606082015260800190565b60008351613490818460208801612ad4565b8351908301906134a4818360208801612ad4565b01949350505050565b8082018082111561064957610649613233565b81516001600160401b038111156134d9576134d9612cbd565b6134ed816134e78454613071565b846132fa565b602080601f831160018114613522576000841561350a5750858301515b600019600386901b1c1916600185901b178555613340565b600085815260208120601f198616915b8281101561355157888601518255948401946001909101908401613532565b508582101561356f5787850151600019600388901b60f8161c191681555b5050505050600190811b01905550565b6020808252602b908201527f496e697469616c697a61626c653a20636f6e7472616374206973206e6f74206960408201526a6e697469616c697a696e6760a81b606082015260800190565b60ff818116838216019081111561064957610649613233565b60208082526032908201527f4552433732313a207472616e7366657220746f206e6f6e20455243373231526560408201527131b2b4bb32b91034b6b83632b6b2b73a32b960711b606082015260800190565b634e487b7160e01b600052601260045260246000fd5b60008261365a5761365a613635565b500490565b60008261366e5761366e613635565b500690565b6001600160a01b03858116825284166020820152604081018390526080606082018190526000906136a690830184612af8565b9695505050505050565b6000602082840312156136c257600080fd5b815161265881612aa156fea264697066735822122099ab9f9b8cd0e3c73a944840c668a99eb0ad114da3fea65b06139716ed878cf664736f6c63430008130033",
    "linkReferences": {}
  },
  "methodIdentifiers": {
    "addDiscordIDToAutID(string)": "72e4c149",
    "approve(address,uint256)": "095ea7b3",
    "autIDToDiscordID(uint256)": "fa320285",
    "autIDUsername(string)": "f547773c",
    "balanceOf(address)": "70a08231",
    "discordIDToAddress(string)": "6dc5cc06",
    "editCommitment(address,uint256)": "f359d863",
    "getAllActiveMembers(address)": "2ca62cd5",
    "getApproved(uint256)": "081812fc",
    "getAutIDByOwner(address)": "79389510",
    "getAutIDHolderByUsername(string)": "4e51ea39",
    "getCommitmentsOfFor(address[],address)": "ff69a391",
    "getHolderDAOs(address)": "241cc208",
    "getMembershipData(address,address)": "96259c66",
    "getNextTokenID()": "4a198119",
    "getTotalCommitment(address)": "da24e8b8",
    "getTrustedForwarder()": "ce1b815f",
    "initialize(address)": "c4d66de8",
    "isApprovedForAll(address,address)": "e985e9c5",
    "isTrustedForwarder(address)": "572b6c05",
    "joinDAO(uint256,uint256,address)": "a5b58784",
    "mint(string,string,uint256,uint256,address)": "5bc4ffdf",
    "name()": "06fdde03",
    "ownerOf(uint256)": "6352211e",
    "safeTransferFrom(address,address,uint256)": "42842e0e",
    "safeTransferFrom(address,address,uint256,bytes)": "b88d4fde",
    "setApprovalForAll(address,bool)": "a22cb465",
    "setMetadataUri(string)": "1130630c",
    "supportsInterface(bytes4)": "01ffc9a7",
    "symbol()": "95d89b41",
    "tokenURI(uint256)": "c87b56dd",
    "transferFrom(address,address,uint256)": "23b872dd",
    "withdraw(address)": "51cff8d9"
  },
  "id": 0
}