{
  "abi": [
    {
      "anonymous": false,
      "inputs": [
        {
          "indexed": true,
          "internalType": "address",
          "name": "owner",
          "type": "address"
        },
        {
          "indexed": true,
          "internalType": "address",
          "name": "approved",
          "type": "address"
        },
        {
          "indexed": true,
          "internalType": "uint256",
          "name": "tokenId",
          "type": "uint256"
        }
      ],
      "name": "Approval",
      "type": "event"
    },
    {
      "anonymous": false,
      "inputs": [
        {
          "indexed": true,
          "internalType": "address",
          "name": "owner",
          "type": "address"
        },
        {
          "indexed": true,
          "internalType": "address",
          "name": "operator",
          "type": "address"
        },
        {
          "indexed": false,
          "internalType": "bool",
          "name": "approved",
          "type": "bool"
        }
      ],
      "name": "ApprovalForAll",
      "type": "event"
    },
    {
      "anonymous": false,
      "inputs": [
        {
          "indexed": false,
          "internalType": "address",
          "name": "owner",
          "type": "address"
        },
        {
          "indexed": false,
          "internalType": "uint256",
          "name": "tokenID",
          "type": "uint256"
        },
        {
          "indexed": false,
          "internalType": "string",
          "name": "username",
          "type": "string"
        }
      ],
      "name": "AutIDCreated",
      "type": "event"
    },
    {
      "anonymous": false,
      "inputs": [
        {
          "indexed": false,
          "internalType": "address",
          "name": "NovaExpanderAddress",
          "type": "address"
        },
        {
          "indexed": false,
          "internalType": "address",
          "name": "member",
          "type": "address"
        },
        {
          "indexed": false,
          "internalType": "uint256",
          "name": "newCommitment",
          "type": "uint256"
        }
      ],
      "name": "CommitmentUpdated",
      "type": "event"
    },
    {
      "anonymous": false,
      "inputs": [],
      "name": "DiscordIDConnectedToAutID",
      "type": "event"
    },
    {
      "anonymous": false,
      "inputs": [
        {
          "indexed": false,
          "internalType": "uint8",
          "name": "version",
          "type": "uint8"
        }
      ],
      "name": "Initialized",
      "type": "event"
    },
    {
      "anonymous": false,
      "inputs": [
        {
          "indexed": false,
          "internalType": "uint256",
          "name": "tokenId",
          "type": "uint256"
        },
        {
          "indexed": false,
          "internalType": "string",
          "name": "metadataUri",
          "type": "string"
        }
      ],
      "name": "MetadataUriSet",
      "type": "event"
    },
    {
      "anonymous": false,
      "inputs": [
        {
          "indexed": false,
          "internalType": "address",
          "name": "NovaExpanderAddress",
          "type": "address"
        },
        {
          "indexed": false,
          "internalType": "address",
          "name": "member",
          "type": "address"
        }
      ],
      "name": "NovaJoined",
      "type": "event"
    },
    {
      "anonymous": false,
      "inputs": [
        {
          "indexed": false,
          "internalType": "address",
          "name": "NovaExpanderAddress",
          "type": "address"
        },
        {
          "indexed": false,
          "internalType": "address",
          "name": "member",
          "type": "address"
        }
      ],
      "name": "NovaWithdrawn",
      "type": "event"
    },
    {
      "anonymous": false,
      "inputs": [
        {
          "indexed": true,
          "internalType": "address",
          "name": "from",
          "type": "address"
        },
        {
          "indexed": true,
          "internalType": "address",
          "name": "to",
          "type": "address"
        },
        {
          "indexed": true,
          "internalType": "uint256",
          "name": "tokenId",
          "type": "uint256"
        }
      ],
      "name": "Transfer",
      "type": "event"
    },
    {
      "inputs": [
        {
          "internalType": "string",
          "name": "discordID",
          "type": "string"
        }
      ],
      "name": "addDiscordIDToAutID",
      "outputs": [],
      "stateMutability": "nonpayable",
      "type": "function"
    },
    {
      "inputs": [
        {
          "internalType": "address",
          "name": "to",
          "type": "address"
        },
        {
          "internalType": "uint256",
          "name": "tokenId",
          "type": "uint256"
        }
      ],
      "name": "approve",
      "outputs": [],
      "stateMutability": "nonpayable",
      "type": "function"
    },
    {
      "inputs": [
        {
          "internalType": "uint256",
          "name": "",
          "type": "uint256"
        }
      ],
      "name": "autIDToDiscordID",
      "outputs": [
        {
          "internalType": "string",
          "name": "",
          "type": "string"
        }
      ],
      "stateMutability": "view",
      "type": "function"
    },
    {
      "inputs": [
        {
          "internalType": "string",
          "name": "",
          "type": "string"
        }
      ],
      "name": "autIDUsername",
      "outputs": [
        {
          "internalType": "address",
          "name": "",
          "type": "address"
        }
      ],
      "stateMutability": "view",
      "type": "function"
    },
    {
      "inputs": [
        {
          "internalType": "address",
          "name": "owner",
          "type": "address"
        }
      ],
      "name": "balanceOf",
      "outputs": [
        {
          "internalType": "uint256",
          "name": "",
          "type": "uint256"
        }
      ],
      "stateMutability": "view",
      "type": "function"
    },
    {
      "inputs": [
        {
          "internalType": "string",
          "name": "",
          "type": "string"
        }
      ],
      "name": "discordIDToAddress",
      "outputs": [
        {
          "internalType": "address",
          "name": "",
          "type": "address"
        }
      ],
      "stateMutability": "view",
      "type": "function"
    },
    {
      "inputs": [
        {
          "internalType": "address",
          "name": "Address",
          "type": "address"
        },
        {
          "internalType": "uint256",
          "name": "newCommitment",
          "type": "uint256"
        }
      ],
      "name": "editCommitment",
      "outputs": [],
      "stateMutability": "nonpayable",
      "type": "function"
    },
    {
      "inputs": [
        {
          "internalType": "address",
          "name": "nova_",
          "type": "address"
        }
      ],
      "name": "getAllActiveMembers",
      "outputs": [
        {
          "internalType": "address[]",
          "name": "members",
          "type": "address[]"
        }
      ],
      "stateMutability": "view",
      "type": "function"
    },
    {
      "inputs": [
        {
          "internalType": "uint256",
          "name": "tokenId",
          "type": "uint256"
        }
      ],
      "name": "getApproved",
      "outputs": [
        {
          "internalType": "address",
          "name": "",
          "type": "address"
        }
      ],
      "stateMutability": "view",
      "type": "function"
    },
    {
      "inputs": [
        {
          "internalType": "address",
          "name": "autIDOwner",
          "type": "address"
        }
      ],
      "name": "getAutIDByOwner",
      "outputs": [
        {
          "internalType": "uint256",
          "name": "",
          "type": "uint256"
        }
      ],
      "stateMutability": "view",
      "type": "function"
    },
    {
      "inputs": [
        {
          "internalType": "string",
          "name": "username",
          "type": "string"
        }
      ],
      "name": "getAutIDHolderByUsername",
      "outputs": [
        {
          "internalType": "address",
          "name": "",
          "type": "address"
        }
      ],
      "stateMutability": "view",
      "type": "function"
    },
    {
      "inputs": [
        {
          "internalType": "address[]",
          "name": "agents",
          "type": "address[]"
        },
        {
          "internalType": "address",
          "name": "_nova",
          "type": "address"
        }
      ],
      "name": "getCommitmentsOfFor",
      "outputs": [
        {
          "internalType": "uint256[]",
          "name": "commitments",
          "type": "uint256[]"
        }
      ],
      "stateMutability": "view",
      "type": "function"
    },
    {
      "inputs": [
        {
          "internalType": "address",
          "name": "autIDHolder",
          "type": "address"
        }
      ],
      "name": "getHolderNovae",
      "outputs": [
        {
          "internalType": "address[]",
          "name": "s",
          "type": "address[]"
        }
      ],
      "stateMutability": "view",
      "type": "function"
    },
    {
      "inputs": [
        {
          "internalType": "address",
          "name": "autIDHolder",
          "type": "address"
        },
        {
          "internalType": "address",
          "name": "Address",
          "type": "address"
        }
      ],
      "name": "getMembershipData",
      "outputs": [
        {
          "components": [
            {
              "internalType": "address",
              "name": "NovaExpanderAddress",
              "type": "address"
            },
            {
              "internalType": "uint256",
              "name": "role",
              "type": "uint256"
            },
            {
              "internalType": "uint256",
              "name": "commitment",
              "type": "uint256"
            },
            {
              "internalType": "bool",
              "name": "isActive",
              "type": "bool"
            }
          ],
          "internalType": "struct IAutID.NovaMember",
          "name": "",
          "type": "tuple"
        }
      ],
      "stateMutability": "view",
      "type": "function"
    },
    {
      "inputs": [],
      "name": "getNextTokenID",
      "outputs": [
        {
          "internalType": "uint256",
          "name": "",
          "type": "uint256"
        }
      ],
      "stateMutability": "view",
      "type": "function"
    },
    {
      "inputs": [
        {
          "internalType": "address",
          "name": "autIDHolder",
          "type": "address"
        }
      ],
      "name": "getTotalCommitment",
      "outputs": [
        {
          "internalType": "uint256",
          "name": "",
          "type": "uint256"
        }
      ],
      "stateMutability": "view",
      "type": "function"
    },
    {
      "inputs": [],
      "name": "getTrustedForwarder",
      "outputs": [
        {
          "internalType": "address",
          "name": "forwarder",
          "type": "address"
        }
      ],
      "stateMutability": "view",
      "type": "function"
    },
    {
      "inputs": [
        {
          "internalType": "address",
          "name": "trustedForwarder",
          "type": "address"
        }
      ],
      "name": "initialize",
      "outputs": [],
      "stateMutability": "nonpayable",
      "type": "function"
    },
    {
      "inputs": [
        {
          "internalType": "address",
          "name": "owner",
          "type": "address"
        },
        {
          "internalType": "address",
          "name": "operator",
          "type": "address"
        }
      ],
      "name": "isApprovedForAll",
      "outputs": [
        {
          "internalType": "bool",
          "name": "",
          "type": "bool"
        }
      ],
      "stateMutability": "view",
      "type": "function"
    },
    {
      "inputs": [
        {
          "internalType": "address",
          "name": "forwarder",
          "type": "address"
        }
      ],
      "name": "isTrustedForwarder",
      "outputs": [
        {
          "internalType": "bool",
          "name": "",
          "type": "bool"
        }
      ],
      "stateMutability": "view",
      "type": "function"
    },
    {
      "inputs": [
        {
          "internalType": "uint256",
          "name": "role",
          "type": "uint256"
        },
        {
          "internalType": "uint256",
          "name": "commitment",
          "type": "uint256"
        },
        {
          "internalType": "address",
          "name": "Address",
          "type": "address"
        }
      ],
      "name": "joinNova",
      "outputs": [],
      "stateMutability": "nonpayable",
      "type": "function"
    },
    {
      "inputs": [
        {
          "internalType": "string",
          "name": "username",
          "type": "string"
        },
        {
          "internalType": "string",
          "name": "url",
          "type": "string"
        },
        {
          "internalType": "uint256",
          "name": "role",
          "type": "uint256"
        },
        {
          "internalType": "uint256",
          "name": "commitment",
          "type": "uint256"
        },
        {
          "internalType": "address",
          "name": "Address",
          "type": "address"
        }
      ],
      "name": "mint",
      "outputs": [],
      "stateMutability": "nonpayable",
      "type": "function"
    },
    {
      "inputs": [],
      "name": "name",
      "outputs": [
        {
          "internalType": "string",
          "name": "",
          "type": "string"
        }
      ],
      "stateMutability": "view",
      "type": "function"
    },
    {
      "inputs": [
        {
          "internalType": "uint256",
          "name": "tokenId",
          "type": "uint256"
        }
      ],
      "name": "ownerOf",
      "outputs": [
        {
          "internalType": "address",
          "name": "",
          "type": "address"
        }
      ],
      "stateMutability": "view",
      "type": "function"
    },
    {
      "inputs": [
        {
          "internalType": "address",
          "name": "from",
          "type": "address"
        },
        {
          "internalType": "address",
          "name": "to",
          "type": "address"
        },
        {
          "internalType": "uint256",
          "name": "tokenId",
          "type": "uint256"
        }
      ],
      "name": "safeTransferFrom",
      "outputs": [],
      "stateMutability": "nonpayable",
      "type": "function"
    },
    {
      "inputs": [
        {
          "internalType": "address",
          "name": "from",
          "type": "address"
        },
        {
          "internalType": "address",
          "name": "to",
          "type": "address"
        },
        {
          "internalType": "uint256",
          "name": "tokenId",
          "type": "uint256"
        },
        {
          "internalType": "bytes",
          "name": "data",
          "type": "bytes"
        }
      ],
      "name": "safeTransferFrom",
      "outputs": [],
      "stateMutability": "nonpayable",
      "type": "function"
    },
    {
      "inputs": [
        {
          "internalType": "address",
          "name": "operator",
          "type": "address"
        },
        {
          "internalType": "bool",
          "name": "approved",
          "type": "bool"
        }
      ],
      "name": "setApprovalForAll",
      "outputs": [],
      "stateMutability": "nonpayable",
      "type": "function"
    },
    {
      "inputs": [
        {
          "internalType": "string",
          "name": "metadataUri",
          "type": "string"
        }
      ],
      "name": "setMetadataUri",
      "outputs": [],
      "stateMutability": "nonpayable",
      "type": "function"
    },
    {
      "inputs": [
        {
          "internalType": "bytes4",
          "name": "interfaceId",
          "type": "bytes4"
        }
      ],
      "name": "supportsInterface",
      "outputs": [
        {
          "internalType": "bool",
          "name": "",
          "type": "bool"
        }
      ],
      "stateMutability": "view",
      "type": "function"
    },
    {
      "inputs": [],
      "name": "symbol",
      "outputs": [
        {
          "internalType": "string",
          "name": "",
          "type": "string"
        }
      ],
      "stateMutability": "view",
      "type": "function"
    },
    {
      "inputs": [
        {
          "internalType": "uint256",
          "name": "tokenId",
          "type": "uint256"
        }
      ],
      "name": "tokenURI",
      "outputs": [
        {
          "internalType": "string",
          "name": "",
          "type": "string"
        }
      ],
      "stateMutability": "view",
      "type": "function"
    },
    {
      "inputs": [
        {
          "internalType": "address",
          "name": "from",
          "type": "address"
        },
        {
          "internalType": "address",
          "name": "to",
          "type": "address"
        },
        {
          "internalType": "uint256",
          "name": "tokenId",
          "type": "uint256"
        }
      ],
      "name": "transferFrom",
      "outputs": [],
      "stateMutability": "nonpayable",
      "type": "function"
    },
    {
      "inputs": [
        {
          "internalType": "address",
          "name": "Address",
          "type": "address"
        }
      ],
      "name": "withdraw",
      "outputs": [],
      "stateMutability": "nonpayable",
      "type": "function"
    }
  ],
  "bytecode": {
    "object": "0x608060405234801561001057600080fd5b50613722806100206000396000f3fe608060405234801561001057600080fd5b50600436106101fb5760003560e01c806372e4c1491161011a578063c87b56dd116100ad578063e985e9c51161007c578063e985e9c514610547578063f359d86314610583578063f547773c14610596578063fa320285146105ca578063ff69a391146105dd57600080fd5b8063c87b56dd146104fd578063ce1b815f14610510578063da24e8b814610521578063daedfed21461053457600080fd5b806396259c66116100e957806396259c66146103f8578063a22cb465146104c4578063b88d4fde146104d7578063c4d66de8146104ea57600080fd5b806372e4c149146103a157806379389510146103b457806389cbf104146103dd57806395d89b41146103f057600080fd5b80634a198119116101925780635bc4ffdf116101615780635bc4ffdf146103345780636352211e146103475780636dc5cc061461035a57806370a082311461038e57600080fd5b80634a198119146102d65780634e51ea39146102ec57806351cff8d9146102ff578063572b6c051461031257600080fd5b80631130630c116101ce5780631130630c1461027d57806323b872dd146102905780632ca62cd5146102a357806342842e0e146102c357600080fd5b806301ffc9a71461020057806306fdde0314610228578063081812fc1461023d578063095ea7b314610268575b600080fd5b61021361020e366004612aa9565b6105fd565b60405190151581526020015b60405180910390f35b61023061064f565b60405161021f9190612b16565b61025061024b366004612b29565b6106e1565b6040516001600160a01b03909116815260200161021f565b61027b610276366004612b67565b610708565b005b61027b61028b366004612b93565b610834565b61027b61029e366004612c04565b61090f565b6102b66102b1366004612c45565b610947565b60405161021f9190612c62565b61027b6102d1366004612c04565b610bbe565b6102de610bd9565b60405190815260200161021f565b6102506102fa366004612d6c565b610be9565b61027b61030d366004612c45565b610c22565b610213610320366004612c45565b6000546001600160a01b0391821691161490565b61027b610342366004612da0565b610d72565b610250610355366004612b29565b611323565b610250610368366004612d6c565b805160208183018101805160cf825292820191909301209152546001600160a01b031681565b6102de61039c366004612c45565b611383565b61027b6103af366004612b93565b611409565b6102de6103c2366004612c45565b6001600160a01b0316600090815260cc602052604090205490565b6102b66103eb366004612c45565b6114c3565b610230611561565b610486610406366004612e2b565b60408051608080820183526000808352602080840182905283850182905260609384018290526001600160a01b03968716825260ca81528482209587168252948552839020835191820184528054909516815260018501549381019390935260028401549183019190915260039092015460ff1615159181019190915290565b60405161021f919081516001600160a01b03168152602080830151908201526040808301519082015260609182015115159181019190915260800190565b61027b6104d2366004612e72565b611570565b61027b6104e5366004612ea0565b611586565b61027b6104f8366004612c45565b6115c5565b61023061050b366004612b29565b611747565b6000546001600160a01b0316610250565b6102de61052f366004612c45565b611857565b61027b610542366004612f1f565b611954565b610213610555366004612e2b565b6001600160a01b039182166000908152606a6020908152604080832093909416825291909152205460ff1690565b61027b610591366004612b67565b611e76565b6102506105a4366004612d6c565b805160208183018101805160cd825292820191909301209152546001600160a01b031681565b6102306105d8366004612b29565b61202c565b6105f06105eb366004612f7b565b6120c6565b60405161021f919061302b565b60006001600160e01b031982166380ac58cd60e01b148061062e57506001600160e01b03198216635b5e139f60e01b145b8061064957506301ffc9a760e01b6001600160e01b03198316145b92915050565b60606065805461065e90613063565b80601f016020809104026020016040519081016040528092919081815260200182805461068a90613063565b80156106d75780601f106106ac576101008083540402835291602001916106d7565b820191906000526020600020905b8154815290600101906020018083116106ba57829003601f168201915b5050505050905090565b60006106ec8261221c565b506000908152606960205260409020546001600160a01b031690565b600061071382611323565b9050806001600160a01b0316836001600160a01b0316036107855760405162461bcd60e51b815260206004820152602160248201527f4552433732313a20617070726f76616c20746f2063757272656e74206f776e656044820152603960f91b60648201526084015b60405180910390fd5b806001600160a01b031661079761227e565b6001600160a01b031614806107b357506107b38161055561227e565b6108255760405162461bcd60e51b815260206004820152603e60248201527f4552433732313a20617070726f76652063616c6c6572206973206e6f7420746f60448201527f6b656e206f776e6572206e6f7220617070726f76656420666f7220616c6c0000606482015260840161077c565b61082f8383612288565b505050565b61083f61039c61227e565b60011461085e5760405162461bcd60e51b815260040161077c9061309d565b600060cc600061086c61227e565b6001600160a01b03166001600160a01b031681526020019081526020016000205490506108cf8184848080601f0160208091040260200160405190810160405280939291908181526020018383808284376000920191909152506122f692505050565b7f8b20b7ba7012e3c6dd7eebc0edcd0b48b7b1baaefa3edd31c7c9fe4600378401818484604051610902939291906130f2565b60405180910390a1505050565b61092061091a61227e565b82612389565b61093c5760405162461bcd60e51b815260040161077c90613128565b61082f838383612407565b6060600080836001600160a01b0316637c0f6b356040518163ffffffff1660e01b8152600401600060405180830381865afa15801561098a573d6000803e3d6000fd5b505050506040513d6000823e601f3d908101601f191682016040526109b29190810190613176565b9250600083516001600160401b038111156109cf576109cf612caf565b6040519080825280602002602001820160405280156109f8578160200160208202803683370190505b5090505b8351831015610ac35760ca6000858581518110610a1b57610a1b61320f565b6020908102919091018101516001600160a01b0390811683528282019390935260409182016000908120938916815292905290206003015460ff1615610aac57838381518110610a6d57610a6d61320f565b6020026020010151818481518110610a8757610a8761320f565b60200260200101906001600160a01b031690816001600160a01b031681525050610ab8565b610ab58261323b565b91505b8260010192506109fc565b60009250818451610ad49190613254565b6001600160401b03811115610aeb57610aeb612caf565b604051908082528060200260200182016040528015610b14578160200160208202803683370190505b509350600091505b8051831015610bb65760006001600160a01b0316818481518110610b4257610b4261320f565b60200260200101516001600160a01b031614610bab57808381518110610b6a57610b6a61320f565b6020026020010151848381518110610b8457610b8461320f565b60200260200101906001600160a01b031690816001600160a01b0316815250508160010191505b826001019250610b1c565b505050919050565b61082f83838360405180602001604052806000815250611586565b6000610be460c95490565b905090565b600060cd610bf68361244f565b604051610c039190613267565b908152604051908190036020019020546001600160a01b031692915050565b60ca6000610c2e61227e565b6001600160a01b039081168252602080830193909352604091820160009081209185168152925290206003015460ff16610ca05760405162461bcd60e51b815260206004820152601360248201527220baba24a21d102737ba10309036b2b6b132b960691b604482015260640161077c565b600060ca6000610cae61227e565b6001600160a01b03908116825260208083019390935260409182016000908120918616815292528120600301805460ff19169215159290921790915560ca81610cf561227e565b6001600160a01b03908116825260208083019390935260409182016000908120918616815292529020600201557f746dfa771d4c23edf7e2589349c78f19155011a7154d365b9e49a691ab0458cf81610d4c61227e565b604080516001600160a01b0393841681529290911660208301520160405180910390a150565b6011855110610dce5760405162461bcd60e51b815260206004820152602260248201527f557365726e616d65206d757374206265206d6178203136206368617261637465604482015261727360f01b606482015260840161077c565b600083118015610dde5750600483105b610e2a5760405162461bcd60e51b815260206004820152601c60248201527f526f6c65206d757374206265206265747765656e203120616e64203300000000604482015260640161077c565b600082118015610e3a5750600b82105b610e565760405162461bcd60e51b815260040161077c90613283565b6001600160a01b038116610e9e5760405162461bcd60e51b815260206004820152600f60248201526e020baba24a21d1026b4b9b9b4b7339608d1b604482015260640161077c565b610ea961039c61227e565b15610f1c5760405162461bcd60e51b815260206004820152603a60248201527f41757449443a20546865726520697320417574494420616c726561647920726560448201527f676973746572656420666f72207468697320616464726573732e000000000000606482015260840161077c565b60006001600160a01b031660cd86604051610f379190613267565b908152604051908190036020019020546001600160a01b031614610f9d5760405162461bcd60e51b815260206004820152601e60248201527f41757449443a20557365726e616d6520616c72656164792074616b656e210000604482015260640161077c565b806001600160a01b03166303ffe330610fb461227e565b6040516001600160e01b031960e084901b1681526001600160a01b03909116600482015260248101869052604401602060405180830381865afa158015610fff573d6000803e3d6000fd5b505050506040513d601f19601f8201168201806040525081019061102391906132cf565b61106f5760405162461bcd60e51b815260206004820152601d60248201527f41757449443a204e6f742061206d656d626572206f6620746869732021000000604482015260640161077c565b600061107a8661244f565b9050600061108760c95490565b905061109a61109461227e565b826124c2565b6110a481876122f6565b604080516080810182526001600160a01b0385168152602081018790529081018590526001606082015260ca60006110da61227e565b6001600160a01b0390811682526020808301939093526040918201600090812088831682528452828120855181546001600160a01b03191693169290921782559284015160018201559083015160028201556060909201516003909201805460ff19169215159290921790915560cb9061115261227e565b6001600160a01b03908116825260208083019390935260409091016000908120805460018101825590825292812090920180546001600160a01b031916918616919091179055819060cc906111a561227e565b6001600160a01b031681526020810191909152604001600020556111c761227e565b60cd836040516111d79190613267565b90815260405190819003602001902080546001600160a01b03929092166001600160a01b031990921691909117905561121460c980546001019055565b826001600160a01b0316633b4da69f61122b61227e565b6040516001600160e01b031960e084901b1681526001600160a01b03909116600482015260248101889052604401600060405180830381600087803b15801561127357600080fd5b505af1158015611287573d6000803e3d6000fd5b505050507fe07408f29b7b833526e35614e2272e3b61a99fcfeaf1b67797a08ed60cc215106112b461227e565b82896040516112c5939291906132ec565b60405180910390a17f11f49dc9a23622fcefb8ce53014a211d0b8b75c15e386e4970915b72927cd57d836112f761227e565b604080516001600160a01b0393841681529290911660208301520160405180910390a150505050505050565b6000818152606760205260408120546001600160a01b0316806106495760405162461bcd60e51b8152602060048201526018602482015277115490cdcc8c4e881a5b9d985b1a59081d1bdad95b88125160421b604482015260640161077c565b60006001600160a01b0382166113ed5760405162461bcd60e51b815260206004820152602960248201527f4552433732313a2061646472657373207a65726f206973206e6f7420612076616044820152683634b21037bbb732b960b91b606482015260840161077c565b506001600160a01b031660009081526068602052604090205490565b600060cc600061141761227e565b6001600160a01b03168152602080820192909252604090810160009081205480825260ce9093522090915061144d83858361336a565b5061145661227e565b60cf848460405161146892919061342a565b90815260405190819003602001812080546001600160a01b03939093166001600160a01b0319909316929092179091557fd751b525f83cb4458bf789d0f717631f3a26d5c70a81ea922690f3cf09f3e6df90600090a1505050565b60606114ce82611383565b6001146114ed5760405162461bcd60e51b815260040161077c9061309d565b6001600160a01b038216600090815260cb60209081526040918290208054835181840281018401909452808452909183018282801561155557602002820191906000526020600020905b81546001600160a01b03168152600190910190602001808311611537575b50505050509050919050565b60606066805461065e90613063565b61158261157b61227e565b83836124dc565b5050565b61159761159161227e565b83612389565b6115b35760405162461bcd60e51b815260040161077c90613128565b6115bf84848484612407565b50505050565b600054600160a81b900460ff16158080156115ed57506000546001600160a01b90910460ff16105b8061160e5750303b15801561160e5750600054600160a01b900460ff166001145b6116715760405162461bcd60e51b815260206004820152602e60248201527f496e697469616c697a61626c653a20636f6e747261637420697320616c72656160448201526d191e481a5b9a5d1a585b1a5e995960921b606482015260840161077c565b6000805460ff60a01b1916600160a01b179055801561169e576000805460ff60a81b1916600160a81b1790555b6116e060405180604001604052806005815260200164105d5d125160da1b8152506040518060400160405280600381526020016210555560ea1b8152506125aa565b600080546001600160a01b0319166001600160a01b0384161790558015611582576000805460ff60a81b19169055604051600181527f7f26b83ff96e1f2b6a682f133852f6798a09c465da95921460cefb3847402498906020015b60405180910390a15050565b60606117528261221c565b6000828152609760205260408120805461176b90613063565b80601f016020809104026020016040519081016040528092919081815260200182805461179790613063565b80156117e45780601f106117b9576101008083540402835291602001916117e4565b820191906000526020600020905b8154815290600101906020018083116117c757829003601f168201915b50505050509050600061180260408051602081019091526000815290565b90508051600003611814575092915050565b81511561184657808260405160200161182e92919061343a565b60405160208183030381529060405292505050919050565b61184f846125dd565b949350505050565b6001600160a01b038116600090815260cb60209081526040808320805482518185028101850190935280835284938301828280156118be57602002820191906000526020600020905b81546001600160a01b031681526001909101906020018083116118a0575b505050505090506000805b825181101561194c576001600160a01b038516600090815260ca6020526040812084519091908590849081106119015761190161320f565b60200260200101516001600160a01b03166001600160a01b0316815260200190815260200160002060020154826119389190613469565b9150806119448161323b565b9150506118c9565b509392505050565b6000831180156119645750600483105b6119b05760405162461bcd60e51b815260206004820152601c60248201527f526f6c65206d757374206265206265747765656e203120616e64203300000000604482015260640161077c565b6000821180156119c05750600b82105b6119dc5760405162461bcd60e51b815260040161077c90613283565b6001600160a01b038116611a245760405162461bcd60e51b815260206004820152600f60248201526e020baba24a21d1026b4b9b9b4b7339608d1b604482015260640161077c565b611a2f61039c61227e565b600114611a4e5760405162461bcd60e51b815260040161077c9061309d565b600060cb6000611a5c61227e565b6001600160a01b03166001600160a01b03168152602001908152602001600020805480602002602001604051908101604052809291908181526020018280548015611ad057602002820191906000526020600020905b81546001600160a01b03168152600190910190602001808311611ab2575b5050505050905060005b8151811015611b6f57826001600160a01b0316828281518110611aff57611aff61320f565b60200260200101516001600160a01b031603611b5d5760405162461bcd60e51b815260206004820152601760248201527f41757449443a20416c72656164792061206d656d626572000000000000000000604482015260640161077c565b80611b678161323b565b915050611ada565b50816001600160a01b0316632a79c6116040518163ffffffff1660e01b8152600401602060405180830381865afa158015611bae573d6000803e3d6000fd5b505050506040513d601f19601f82011682018060405250810190611bd2919061347c565b831015611bf15760405162461bcd60e51b815260040161077c90613495565b816001600160a01b03166303ffe330611c0861227e565b6040516001600160e01b031960e084901b1681526001600160a01b03909116600482015260248101879052604401602060405180830381865afa158015611c53573d6000803e3d6000fd5b505050506040513d601f19601f82011682018060405250810190611c7791906132cf565b611cc35760405162461bcd60e51b815260206004820152601d60248201527f41757449443a204e6f742061206d656d626572206f6620746869732021000000604482015260640161077c565b604080516080810182526001600160a01b0384168152602081018690529081018490526001606082015260ca6000611cf961227e565b6001600160a01b0390811682526020808301939093526040918201600090812087831682528452828120855181546001600160a01b03191693169290921782559284015160018201559083015160028201556060909201516003909201805460ff19169215159290921790915560cb90611d7161227e565b6001600160a01b03908116825260208083019390935260409091016000908120805460018101825590825292902090910180546001600160a01b0319169184169182179055633b4da69f611dc361227e565b6040516001600160e01b031960e084901b1681526001600160a01b03909116600482015260248101879052604401600060405180830381600087803b158015611e0b57600080fd5b505af1158015611e1f573d6000803e3d6000fd5b505050507f11f49dc9a23622fcefb8ce53014a211d0b8b75c15e386e4970915b72927cd57d82611e4d61227e565b604080516001600160a01b0393841681529290911660208301520160405180910390a150505050565b60ca6000611e8261227e565b6001600160a01b039081168252602080830193909352604091820160009081209186168152925290206003015460ff16611ef45760405162461bcd60e51b815260206004820152601360248201527220baba24a21d102737ba10309036b2b6b132b960691b604482015260640161077c565b600081118015611f045750600b81105b611f205760405162461bcd60e51b815260040161077c90613283565b816001600160a01b0316632a79c6116040518163ffffffff1660e01b8152600401602060405180830381865afa158015611f5e573d6000803e3d6000fd5b505050506040513d601f19601f82011682018060405250810190611f82919061347c565b811015611fa15760405162461bcd60e51b815260040161077c90613495565b8060ca6000611fae61227e565b6001600160a01b03908116825260208083019390935260409182016000908120918716815292529020600201557fd79a2f47c1c734f8660476261fe14c54bb4b004e21643d70f34e76f590df70ba8261200561227e565b604080516001600160a01b039384168152929091166020830152810183905260600161173b565b60ce602052600090815260409020805461204590613063565b80601f016020809104026020016040519081016040528092919081815260200182805461207190613063565b80156120be5780601f10612093576101008083540402835291602001916120be565b820191906000526020600020905b8154815290600101906020018083116120a157829003601f168201915b505050505081565b60606000835160000361213c57826001600160a01b0316637c0f6b356040518163ffffffff1660e01b8152600401600060405180830381865afa158015612111573d6000803e3d6000fd5b505050506040513d6000823e601f3d908101601f191682016040526121399190810190613176565b93505b83516001600160401b0381111561215557612155612caf565b60405190808252806020026020018201604052801561217e578160200160208202803683370190505b5091505b83518110156122155760ca60008583815181106121a1576121a161320f565b60200260200101516001600160a01b03166001600160a01b031681526020019081526020016000206000846001600160a01b03166001600160a01b03168152602001908152602001600020600201548282815181106122025761220261320f565b6020908102919091010152600101612182565b5092915050565b6000818152606760205260409020546001600160a01b031661227b5760405162461bcd60e51b8152602060048201526018602482015277115490cdcc8c4e881a5b9d985b1a59081d1bdad95b88125160421b604482015260640161077c565b50565b6000610be4612651565b600081815260696020526040902080546001600160a01b0319166001600160a01b03841690811790915581906122bd82611323565b6001600160a01b03167f8c5be1e5ebec7d5bd14f71427d1e84f3dd0314c0f7b2291e5b200ac8c7c3b92560405160405180910390a45050565b6000828152606760205260409020546001600160a01b03166123715760405162461bcd60e51b815260206004820152602e60248201527f45524337323155524953746f726167653a2055524920736574206f66206e6f6e60448201526d32bc34b9ba32b73a103a37b5b2b760911b606482015260840161077c565b600082815260976020526040902061082f82826134df565b60008061239583611323565b9050806001600160a01b0316846001600160a01b031614806123dc57506001600160a01b038082166000908152606a602090815260408083209388168352929052205460ff165b8061184f5750836001600160a01b03166123f5846106e1565b6001600160a01b031614949350505050565b60405162461bcd60e51b815260206004820152601e60248201527f41757449443a204175744944207472616e736665722064697361626c65640000604482015260640161077c565b60608160005b8151811015612215576124878282815181106124735761247361320f565b01602001516001600160f81b031916612685565b8282815181106124995761249961320f565b60200101906001600160f81b031916908160001a905350806124ba8161323b565b915050612455565b6115828282604051806020016040528060008152506126d4565b816001600160a01b0316836001600160a01b03160361253d5760405162461bcd60e51b815260206004820152601960248201527f4552433732313a20617070726f766520746f2063616c6c657200000000000000604482015260640161077c565b6001600160a01b038381166000818152606a6020908152604080832094871680845294825291829020805460ff191686151590811790915591519182527f17307eab39ab6107e8899845ad3d59bd9653f200f220920489ca2b5937696c31910160405180910390a3505050565b600054600160a81b900460ff166125d35760405162461bcd60e51b815260040161077c9061359e565b6115828282612707565b60606125e88261221c565b60006125ff60408051602081019091526000815290565b9050600081511161261f576040518060200160405280600081525061264a565b8061262984612749565b60405160200161263a92919061343a565b6040516020818303038152906040525b9392505050565b60006014361080159061266e57506000546001600160a01b031633145b15612680575060131936013560601c90565b503390565b6000604160f81b6001600160f81b03198316108015906126b35750602d60f91b6001600160f81b0319831611155b156126d0576126c760f883901c60206135e9565b60f81b92915050565b5090565b6126de8383612849565b6126eb600084848461298b565b61082f5760405162461bcd60e51b815260040161077c90613602565b600054600160a81b900460ff166127305760405162461bcd60e51b815260040161077c9061359e565b606561273c83826134df565b50606661082f82826134df565b6060816000036127705750506040805180820190915260018152600360fc1b602082015290565b8160005b811561279a57806127848161323b565b91506127939050600a8361366a565b9150612774565b6000816001600160401b038111156127b4576127b4612caf565b6040519080825280601f01601f1916602001820160405280156127de576020820181803683370190505b5090505b841561184f576127f3600183613254565b9150612800600a8661367e565b61280b906030613469565b60f81b8183815181106128205761282061320f565b60200101906001600160f81b031916908160001a905350612842600a8661366a565b94506127e2565b6001600160a01b03821661289f5760405162461bcd60e51b815260206004820181905260248201527f4552433732313a206d696e7420746f20746865207a65726f2061646472657373604482015260640161077c565b6000818152606760205260409020546001600160a01b0316156129045760405162461bcd60e51b815260206004820152601c60248201527f4552433732313a20746f6b656e20616c7265616479206d696e74656400000000604482015260640161077c565b6001600160a01b038216600090815260686020526040812080546001929061292d908490613469565b909155505060008181526067602052604080822080546001600160a01b0319166001600160a01b03861690811790915590518392907fddf252ad1be2c89b69c2b068fc378daa952ba7f163c4a11628f55a4df523b3ef908290a45050565b60006001600160a01b0384163b15612a8857836001600160a01b031663150b7a026129b461227e565b8786866040518563ffffffff1660e01b81526004016129d69493929190613692565b6020604051808303816000875af1925050508015612a11575060408051601f3d908101601f19168201909252612a0e918101906136cf565b60015b612a6e573d808015612a3f576040519150601f19603f3d011682016040523d82523d6000602084013e612a44565b606091505b508051600003612a665760405162461bcd60e51b815260040161077c90613602565b805181602001fd5b6001600160e01b031916630a85bd0160e11b14905061184f565b506001949350505050565b6001600160e01b03198116811461227b57600080fd5b600060208284031215612abb57600080fd5b813561264a81612a93565b60005b83811015612ae1578181015183820152602001612ac9565b50506000910152565b60008151808452612b02816020860160208601612ac6565b601f01601f19169290920160200192915050565b60208152600061264a6020830184612aea565b600060208284031215612b3b57600080fd5b5035919050565b6001600160a01b038116811461227b57600080fd5b8035612b6281612b42565b919050565b60008060408385031215612b7a57600080fd5b8235612b8581612b42565b946020939093013593505050565b60008060208385031215612ba657600080fd5b82356001600160401b0380821115612bbd57600080fd5b818501915085601f830112612bd157600080fd5b813581811115612be057600080fd5b866020828501011115612bf257600080fd5b60209290920196919550909350505050565b600080600060608486031215612c1957600080fd5b8335612c2481612b42565b92506020840135612c3481612b42565b929592945050506040919091013590565b600060208284031215612c5757600080fd5b813561264a81612b42565b6020808252825182820181905260009190848201906040850190845b81811015612ca35783516001600160a01b031683529284019291840191600101612c7e565b50909695505050505050565b634e487b7160e01b600052604160045260246000fd5b604051601f8201601f191681016001600160401b0381118282101715612ced57612ced612caf565b604052919050565b60006001600160401b03831115612d0e57612d0e612caf565b612d21601f8401601f1916602001612cc5565b9050828152838383011115612d3557600080fd5b828260208301376000602084830101529392505050565b600082601f830112612d5d57600080fd5b61264a83833560208501612cf5565b600060208284031215612d7e57600080fd5b81356001600160401b03811115612d9457600080fd5b61184f84828501612d4c565b600080600080600060a08688031215612db857600080fd5b85356001600160401b0380821115612dcf57600080fd5b612ddb89838a01612d4c565b96506020880135915080821115612df157600080fd5b50612dfe88828901612d4c565b94505060408601359250606086013591506080860135612e1d81612b42565b809150509295509295909350565b60008060408385031215612e3e57600080fd5b8235612e4981612b42565b91506020830135612e5981612b42565b809150509250929050565b801515811461227b57600080fd5b60008060408385031215612e8557600080fd5b8235612e9081612b42565b91506020830135612e5981612e64565b60008060008060808587031215612eb657600080fd5b8435612ec181612b42565b93506020850135612ed181612b42565b92506040850135915060608501356001600160401b03811115612ef357600080fd5b8501601f81018713612f0457600080fd5b612f1387823560208401612cf5565b91505092959194509250565b600080600060608486031215612f3457600080fd5b83359250602084013591506040840135612f4d81612b42565b809150509250925092565b60006001600160401b03821115612f7157612f71612caf565b5060051b60200190565b60008060408385031215612f8e57600080fd5b82356001600160401b03811115612fa457600080fd5b8301601f81018513612fb557600080fd5b80356020612fca612fc583612f58565b612cc5565b82815260059290921b83018101918181019088841115612fe957600080fd5b938201935b8385101561301057843561300181612b42565b82529382019390820190612fee565b955061301f9050868201612b57565b93505050509250929050565b6020808252825182820181905260009190848201906040850190845b81811015612ca357835183529284019291840191600101613047565b600181811c9082168061307757607f821691505b60208210810361309757634e487b7160e01b600052602260045260246000fd5b50919050565b60208082526035908201527f41757449443a205468657265206973206e6f20417574494420726567697374656040820152743932b2103337b9103a3434b99030b2323932b9b99760591b606082015260800190565b83815260406020820152816040820152818360608301376000818301606090810191909152601f909201601f1916010192915050565b6020808252602e908201527f4552433732313a2063616c6c6572206973206e6f7420746f6b656e206f776e6560408201526d1c881b9bdc88185c1c1c9bdd995960921b606082015260800190565b6000602080838503121561318957600080fd5b82516001600160401b0381111561319f57600080fd5b8301601f810185136131b057600080fd5b80516131be612fc582612f58565b81815260059190911b820183019083810190878311156131dd57600080fd5b928401925b828410156132045783516131f581612b42565b825292840192908401906131e2565b979650505050505050565b634e487b7160e01b600052603260045260246000fd5b634e487b7160e01b600052601160045260246000fd5b60006001820161324d5761324d613225565b5060010190565b8181038181111561064957610649613225565b60008251613279818460208701612ac6565b9190910192915050565b6020808252602c908201527f41757449443a20436f6d6d69746d656e742073686f756c64206265206265747760408201526b065656e203120616e642031360a41b606082015260800190565b6000602082840312156132e157600080fd5b815161264a81612e64565b60018060a01b03841681528260208201526060604082015260006133136060830184612aea565b95945050505050565b601f82111561082f57600081815260208120601f850160051c810160208610156133435750805b601f850160051c820191505b818110156133625782815560010161334f565b505050505050565b6001600160401b0383111561338157613381612caf565b6133958361338f8354613063565b8361331c565b6000601f8411600181146133c957600085156133b15750838201355b600019600387901b1c1916600186901b178355613423565b600083815260209020601f19861690835b828110156133fa57868501358255602094850194600190920191016133da565b50868210156134175760001960f88860031b161c19848701351681555b505060018560011b0183555b5050505050565b8183823760009101908152919050565b6000835161344c818460208801612ac6565b835190830190613460818360208801612ac6565b01949350505050565b8082018082111561064957610649613225565b60006020828403121561348e57600080fd5b5051919050565b6020808252602a908201527f436f6d6d69746d656e74206c6f776572207468616e207468652073206d696e2060408201526918dbdb5b5a5d1b595b9d60b21b606082015260800190565b81516001600160401b038111156134f8576134f8612caf565b61350c816135068454613063565b8461331c565b602080601f83116001811461354157600084156135295750858301515b600019600386901b1c1916600185901b178555613362565b600085815260208120601f198616915b8281101561357057888601518255948401946001909101908401613551565b508582101561358e5787850151600019600388901b60f8161c191681555b5050505050600190811b01905550565b6020808252602b908201527f496e697469616c697a61626c653a20636f6e7472616374206973206e6f74206960408201526a6e697469616c697a696e6760a81b606082015260800190565b60ff818116838216019081111561064957610649613225565b60208082526032908201527f4552433732313a207472616e7366657220746f206e6f6e20455243373231526560408201527131b2b4bb32b91034b6b83632b6b2b73a32b960711b606082015260800190565b634e487b7160e01b600052601260045260246000fd5b60008261367957613679613654565b500490565b60008261368d5761368d613654565b500690565b6001600160a01b03858116825284166020820152604081018390526080606082018190526000906136c590830184612aea565b9695505050505050565b6000602082840312156136e157600080fd5b815161264a81612a9356fea26469706673582212209aae977ae6aa9679f966a3c2434a20f8bac15b9c0dfaf2ee0ac31263004a65f164736f6c63430008130033",
    "linkReferences": {}
  },
  "methodIdentifiers": {
    "addDiscordIDToAutID(string)": "72e4c149",
    "approve(address,uint256)": "095ea7b3",
    "autIDToDiscordID(uint256)": "fa320285",
    "autIDUsername(string)": "f547773c",
    "balanceOf(address)": "70a08231",
    "discordIDToAddress(string)": "6dc5cc06",
    "editCommitment(address,uint256)": "f359d863",
    "getAllActiveMembers(address)": "2ca62cd5",
    "getApproved(uint256)": "081812fc",
    "getAutIDByOwner(address)": "79389510",
    "getAutIDHolderByUsername(string)": "4e51ea39",
    "getCommitmentsOfFor(address[],address)": "ff69a391",
    "getHolderNovae(address)": "89cbf104",
    "getMembershipData(address,address)": "96259c66",
    "getNextTokenID()": "4a198119",
    "getTotalCommitment(address)": "da24e8b8",
    "getTrustedForwarder()": "ce1b815f",
    "initialize(address)": "c4d66de8",
    "isApprovedForAll(address,address)": "e985e9c5",
    "isTrustedForwarder(address)": "572b6c05",
    "joinNova(uint256,uint256,address)": "daedfed2",
    "mint(string,string,uint256,uint256,address)": "5bc4ffdf",
    "name()": "06fdde03",
    "ownerOf(uint256)": "6352211e",
    "safeTransferFrom(address,address,uint256)": "42842e0e",
    "safeTransferFrom(address,address,uint256,bytes)": "b88d4fde",
    "setApprovalForAll(address,bool)": "a22cb465",
    "setMetadataUri(string)": "1130630c",
    "supportsInterface(bytes4)": "01ffc9a7",
    "symbol()": "95d89b41",
    "tokenURI(uint256)": "c87b56dd",
    "transferFrom(address,address,uint256)": "23b872dd",
    "withdraw(address)": "51cff8d9"
  },
  "id": 0
}