{
  "abi": [
    {
      "inputs": [
        {
          "internalType": "address",
          "name": "nova_",
          "type": "address"
        }
      ],
      "stateMutability": "nonpayable",
      "type": "constructor"
    },
    {
      "inputs": [],
      "name": "AuthorityExpected",
      "type": "error"
    },
    {
      "inputs": [],
      "name": "FunctionInvalidAtThisStage",
      "type": "error"
    },
    {
      "inputs": [],
      "name": "FunctionNotImplemented",
      "type": "error"
    },
    {
      "anonymous": false,
      "inputs": [
        {
          "indexed": false,
          "internalType": "address",
          "name": "nova",
          "type": "address"
        },
        {
          "indexed": false,
          "internalType": "address",
          "name": "repAlgo",
          "type": "address"
        }
      ],
      "name": "LocalRepALogChangedFor",
      "type": "event"
    },
    {
      "anonymous": false,
      "inputs": [
        {
          "indexed": false,
          "internalType": "uint256",
          "name": "taskID",
          "type": "uint256"
        },
        {
          "indexed": false,
          "internalType": "string",
          "name": "uri",
          "type": "string"
        }
      ],
      "name": "TaskCreated",
      "type": "event"
    },
    {
      "anonymous": false,
      "inputs": [
        {
          "indexed": false,
          "internalType": "uint256",
          "name": "taskID",
          "type": "uint256"
        },
        {
          "indexed": false,
          "internalType": "string",
          "name": "uri",
          "type": "string"
        }
      ],
      "name": "TaskEdited",
      "type": "event"
    },
    {
      "anonymous": false,
      "inputs": [
        {
          "indexed": false,
          "internalType": "uint256",
          "name": "taskID",
          "type": "uint256"
        },
        {
          "indexed": false,
          "internalType": "address",
          "name": "taker",
          "type": "address"
        }
      ],
      "name": "TaskFinalized",
      "type": "event"
    },
    {
      "anonymous": false,
      "inputs": [
        {
          "indexed": false,
          "internalType": "uint256",
          "name": "taskID",
          "type": "uint256"
        },
        {
          "indexed": false,
          "internalType": "uint256",
          "name": "submissionId",
          "type": "uint256"
        }
      ],
      "name": "TaskSubmitted",
      "type": "event"
    },
    {
      "anonymous": false,
      "inputs": [
        {
          "indexed": false,
          "internalType": "uint256",
          "name": "taskID",
          "type": "uint256"
        },
        {
          "indexed": false,
          "internalType": "address",
          "name": "taker",
          "type": "address"
        }
      ],
      "name": "TaskTaken",
      "type": "event"
    },
    {
      "inputs": [
        {
          "internalType": "address",
          "name": "NewLocalRepAlgo_",
          "type": "address"
        }
      ],
      "name": "changeInUseLocalRep",
      "outputs": [],
      "stateMutability": "nonpayable",
      "type": "function"
    },
    {
      "inputs": [
        {
          "internalType": "uint256",
          "name": "role",
          "type": "uint256"
        },
        {
          "internalType": "string",
          "name": "uri",
          "type": "string"
        },
        {
          "internalType": "uint256",
          "name": "startDate",
          "type": "uint256"
        },
        {
          "internalType": "uint256",
          "name": "endDate",
          "type": "uint256"
        }
      ],
      "name": "create",
      "outputs": [
        {
          "internalType": "uint256",
          "name": "",
          "type": "uint256"
        }
      ],
      "stateMutability": "nonpayable",
      "type": "function"
    },
    {
      "inputs": [
        {
          "internalType": "address",
          "name": "creator",
          "type": "address"
        },
        {
          "internalType": "uint256",
          "name": "role",
          "type": "uint256"
        },
        {
          "internalType": "string",
          "name": "uri",
          "type": "string"
        },
        {
          "internalType": "uint256",
          "name": "startDate",
          "type": "uint256"
        },
        {
          "internalType": "uint256",
          "name": "endDate",
          "type": "uint256"
        }
      ],
      "name": "createBy",
      "outputs": [
        {
          "internalType": "uint256",
          "name": "",
          "type": "uint256"
        }
      ],
      "stateMutability": "nonpayable",
      "type": "function"
    },
    {
      "inputs": [],
      "name": "currentReputationAddr",
      "outputs": [
        {
          "internalType": "address",
          "name": "",
          "type": "address"
        }
      ],
      "stateMutability": "view",
      "type": "function"
    },
    {
      "inputs": [],
      "name": "daoMembersOnly",
      "outputs": [
        {
          "internalType": "bool",
          "name": "",
          "type": "bool"
        }
      ],
      "stateMutability": "view",
      "type": "function"
    },
    {
      "inputs": [],
      "name": "deployer",
      "outputs": [
        {
          "internalType": "address",
          "name": "",
          "type": "address"
        }
      ],
      "stateMutability": "view",
      "type": "function"
    },
    {
      "inputs": [
        {
          "internalType": "uint256",
          "name": "taskId",
          "type": "uint256"
        },
        {
          "internalType": "uint256",
          "name": "role",
          "type": "uint256"
        },
        {
          "internalType": "string",
          "name": "uri",
          "type": "string"
        },
        {
          "internalType": "uint256",
          "name": "startDate",
          "type": "uint256"
        },
        {
          "internalType": "uint256",
          "name": "endDate",
          "type": "uint256"
        }
      ],
      "name": "editTask",
      "outputs": [],
      "stateMutability": "nonpayable",
      "type": "function"
    },
    {
      "inputs": [
        {
          "internalType": "uint256",
          "name": "taskId",
          "type": "uint256"
        }
      ],
      "name": "finalize",
      "outputs": [],
      "stateMutability": "nonpayable",
      "type": "function"
    },
    {
      "inputs": [
        {
          "internalType": "uint256",
          "name": "taskId",
          "type": "uint256"
        },
        {
          "internalType": "address",
          "name": "submitter",
          "type": "address"
        }
      ],
      "name": "finalizeFor",
      "outputs": [],
      "stateMutability": "nonpayable",
      "type": "function"
    },
    {
      "inputs": [
        {
          "internalType": "uint256",
          "name": "taskId",
          "type": "uint256"
        }
      ],
      "name": "getById",
      "outputs": [
        {
          "components": [
            {
              "internalType": "uint256",
              "name": "createdOn",
              "type": "uint256"
            },
            {
              "internalType": "address",
              "name": "creator",
              "type": "address"
            },
            {
              "internalType": "uint256",
              "name": "role",
              "type": "uint256"
            },
            {
              "internalType": "string",
              "name": "metadata",
              "type": "string"
            },
            {
              "internalType": "uint256",
              "name": "startDate",
              "type": "uint256"
            },
            {
              "internalType": "uint256",
              "name": "endDate",
              "type": "uint256"
            }
          ],
          "internalType": "struct TasksModule.Task",
          "name": "",
          "type": "tuple"
        }
      ],
      "stateMutability": "view",
      "type": "function"
    },
    {
      "inputs": [
        {
          "internalType": "uint256",
          "name": "taskId",
          "type": "uint256"
        },
        {
          "internalType": "address",
          "name": "user",
          "type": "address"
        }
      ],
      "name": "getCompletionTime",
      "outputs": [
        {
          "internalType": "uint256",
          "name": "",
          "type": "uint256"
        }
      ],
      "stateMutability": "view",
      "type": "function"
    },
    {
      "inputs": [
        {
          "internalType": "uint256",
          "name": "taskId",
          "type": "uint256"
        },
        {
          "internalType": "address",
          "name": "submitter",
          "type": "address"
        }
      ],
      "name": "getStatusPerSubmitter",
      "outputs": [
        {
          "internalType": "enum TasksModule.TaskStatus",
          "name": "",
          "type": "uint8"
        }
      ],
      "stateMutability": "view",
      "type": "function"
    },
    {
      "inputs": [
        {
          "internalType": "uint256",
          "name": "taskId",
          "type": "uint256"
        },
        {
          "internalType": "address",
          "name": "submitter",
          "type": "address"
        }
      ],
      "name": "getSubmissionIdPerTaskAndUser",
      "outputs": [
        {
          "internalType": "uint256",
          "name": "",
          "type": "uint256"
        }
      ],
      "stateMutability": "view",
      "type": "function"
    },
    {
      "inputs": [
        {
          "internalType": "uint256",
          "name": "taskId",
          "type": "uint256"
        }
      ],
      "name": "getSubmissionIdsPerTask",
      "outputs": [
        {
          "internalType": "uint256[]",
          "name": "",
          "type": "uint256[]"
        }
      ],
      "stateMutability": "view",
      "type": "function"
    },
    {
      "inputs": [
        {
          "internalType": "address",
          "name": "user",
          "type": "address"
        },
        {
          "internalType": "uint256",
          "name": "taskId",
          "type": "uint256"
        }
      ],
      "name": "hasCompletedTheTask",
      "outputs": [
        {
          "internalType": "bool",
          "name": "",
          "type": "bool"
        }
      ],
      "stateMutability": "view",
      "type": "function"
    },
    {
      "inputs": [],
      "name": "idCounter",
      "outputs": [
        {
          "internalType": "uint256",
          "name": "_value",
          "type": "uint256"
        }
      ],
      "stateMutability": "view",
      "type": "function"
    },
    {
      "inputs": [],
      "name": "isActive",
      "outputs": [
        {
          "internalType": "bool",
          "name": "",
          "type": "bool"
        }
      ],
      "stateMutability": "view",
      "type": "function"
    },
    {
      "inputs": [],
      "name": "lastReputationAddr",
      "outputs": [
        {
          "internalType": "address",
          "name": "",
          "type": "address"
        }
      ],
      "stateMutability": "view",
      "type": "function"
    },
    {
      "inputs": [],
      "name": "moduleId",
      "outputs": [
        {
          "internalType": "uint256",
          "name": "",
          "type": "uint256"
        }
      ],
      "stateMutability": "view",
      "type": "function"
    },
    {
      "inputs": [],
      "name": "novaAddress",
      "outputs": [
        {
          "internalType": "address",
          "name": "",
          "type": "address"
        }
      ],
      "stateMutability": "view",
      "type": "function"
    },
    {
      "inputs": [],
      "name": "owner",
      "outputs": [
        {
          "internalType": "address",
          "name": "",
          "type": "address"
        }
      ],
      "stateMutability": "view",
      "type": "function"
    },
    {
      "inputs": [],
      "name": "pluginId",
      "outputs": [
        {
          "internalType": "uint256",
          "name": "",
          "type": "uint256"
        }
      ],
      "stateMutability": "view",
      "type": "function"
    },
    {
      "inputs": [],
      "name": "pluginRegistry",
      "outputs": [
        {
          "internalType": "address",
          "name": "",
          "type": "address"
        }
      ],
      "stateMutability": "view",
      "type": "function"
    },
    {
      "inputs": [
        {
          "internalType": "uint256",
          "name": "tokenId",
          "type": "uint256"
        }
      ],
      "name": "setPluginId",
      "outputs": [],
      "stateMutability": "nonpayable",
      "type": "function"
    },
    {
      "inputs": [
        {
          "internalType": "uint256",
          "name": "taskID",
          "type": "uint256"
        },
        {
          "internalType": "uint16",
          "name": "pointsWeight",
          "type": "uint16"
        }
      ],
      "name": "setWeightForTask",
      "outputs": [],
      "stateMutability": "nonpayable",
      "type": "function"
    },
    {
      "inputs": [],
      "name": "submissionIds",
      "outputs": [
        {
          "internalType": "uint256",
          "name": "_value",
          "type": "uint256"
        }
      ],
      "stateMutability": "view",
      "type": "function"
    },
    {
      "inputs": [
        {
          "internalType": "uint256",
          "name": "",
          "type": "uint256"
        }
      ],
      "name": "submissions",
      "outputs": [
        {
          "internalType": "address",
          "name": "submitter",
          "type": "address"
        },
        {
          "internalType": "string",
          "name": "submissionMetadata",
          "type": "string"
        },
        {
          "internalType": "uint256",
          "name": "completionTime",
          "type": "uint256"
        },
        {
          "internalType": "enum TasksModule.TaskStatus",
          "name": "status",
          "type": "uint8"
        }
      ],
      "stateMutability": "view",
      "type": "function"
    },
    {
      "inputs": [
        {
          "internalType": "uint256",
          "name": "taskId",
          "type": "uint256"
        },
        {
          "internalType": "string",
          "name": "submitionUrl",
          "type": "string"
        }
      ],
      "name": "submit",
      "outputs": [],
      "stateMutability": "nonpayable",
      "type": "function"
    },
    {
      "inputs": [
        {
          "internalType": "uint256",
          "name": "taskId",
          "type": "uint256"
        }
      ],
      "name": "take",
      "outputs": [],
      "stateMutability": "nonpayable",
      "type": "function"
    },
    {
      "inputs": [
        {
          "internalType": "uint256",
          "name": "",
          "type": "uint256"
        },
        {
          "internalType": "uint256",
          "name": "",
          "type": "uint256"
        }
      ],
      "name": "taskSubmissions",
      "outputs": [
        {
          "internalType": "uint256",
          "name": "",
          "type": "uint256"
        }
      ],
      "stateMutability": "view",
      "type": "function"
    },
    {
      "inputs": [
        {
          "internalType": "uint256",
          "name": "",
          "type": "uint256"
        }
      ],
      "name": "tasks",
      "outputs": [
        {
          "internalType": "uint256",
          "name": "createdOn",
          "type": "uint256"
        },
        {
          "internalType": "address",
          "name": "creator",
          "type": "address"
        },
        {
          "internalType": "uint256",
          "name": "role",
          "type": "uint256"
        },
        {
          "internalType": "string",
          "name": "metadata",
          "type": "string"
        },
        {
          "internalType": "uint256",
          "name": "startDate",
          "type": "uint256"
        },
        {
          "internalType": "uint256",
          "name": "endDate",
          "type": "uint256"
        }
      ],
      "stateMutability": "view",
      "type": "function"
    }
  ],
  "bytecode": {
    "object": "0x60806040523480156200001157600080fd5b5060405162002e5838038062002e588339810160408190526200003491620005a3565b8081600181600081600160006101000a8154816001600160a01b0302191690836001600160a01b03160217905550816001600160a01b03166341dcea916040518163ffffffff1660e01b8152600401602060405180830381865afa158015620000a1573d6000803e3d6000fd5b505050506040513d601f19601f82011682018060405250810190620000c79190620005a3565b600480546001600160a01b0392831661010002610100600160a81b0319909116179055600080546001600160a01b0319908116331782556003939093556040805160c08101825282815260208082018481528284018581528451928301909452848252606083019182526080830185905260a08301859052600780546001810182559552825160069095027fa66cc928b5edb82af9bd49922954155ab7b0942694bea4ce44661d9a8736c688810195865590517fa66cc928b5edb82af9bd49922954155ab7b0942694bea4ce44661d9a8736c689820180549190971697169690961790945590517fa66cc928b5edb82af9bd49922954155ab7b0942694bea4ce44661d9a8736c68a8501559151919350917fa66cc928b5edb82af9bd49922954155ab7b0942694bea4ce44661d9a8736c68b01906200020790826200067a565b50608082810151600483015560a0909201516005909101556040805191820181526000808352815160208181018452828252840152908201819052600b919060608201528154600180820184556000938452602093849020835160049093020180546001600160a01b0319166001600160a01b039093169290921782559282015191929091908201906200029c90826200067a565b506040820151816002015560608201518160030160006101000a81548160ff02191690836003811115620002d457620002d462000746565b02179055505050620002ed60056200059a60201b60201c565b620002fc600680546001019055565b80600860006101000a81548160ff0219169083151502179055505050806001600160a01b03166341dcea916040518163ffffffff1660e01b81526004016020604051808303816000875af115801562000359573d6000803e3d6000fd5b505050506040513d601f19601f820116820180604052508101906200037f9190620005a3565b6001600160a01b031663f0b7832a6040518163ffffffff1660e01b8152600401602060405180830381865afa158015620003bd573d6000803e3d6000fd5b505050506040513d601f19601f82011682018060405250810190620003e39190620005a3565b600c80546001600160a01b0319166001600160a01b0392831690811790915560405163189acdbd60e31b815291831660048301529063c4d66de890602401600060405180830381600087803b1580156200043c57600080fd5b505af115801562000451573d6000803e3d6000fd5b5050505050806001600160a01b03166341dcea916040518163ffffffff1660e01b81526004016020604051808303816000875af115801562000497573d6000803e3d6000fd5b505050506040513d601f19601f82011682018060405250810190620004bd9190620005a3565b6001600160a01b031663f0b7832a6040518163ffffffff1660e01b8152600401602060405180830381865afa158015620004fb573d6000803e3d6000fd5b505050506040513d601f19601f82011682018060405250810190620005219190620005a3565b600c80546001600160a01b0319166001600160a01b0392831690811790915560405163189acdbd60e31b815291831660048301529063c4d66de890602401600060405180830381600087803b1580156200057a57600080fd5b505af11580156200058f573d6000803e3d6000fd5b50505050506200075c565b80546001019055565b600060208284031215620005b657600080fd5b81516001600160a01b0381168114620005ce57600080fd5b9392505050565b634e487b7160e01b600052604160045260246000fd5b600181811c908216806200060057607f821691505b6020821081036200062157634e487b7160e01b600052602260045260246000fd5b50919050565b601f8211156200067557600081815260208120601f850160051c81016020861015620006505750805b601f850160051c820191505b8181101562000671578281556001016200065c565b5050505b505050565b81516001600160401b03811115620006965762000696620005d5565b620006ae81620006a78454620005eb565b8462000627565b602080601f831160018114620006e65760008415620006cd5750858301515b600019600386901b1c1916600185901b17855562000671565b600085815260208120601f198616915b828110156200071757888601518255948401946001909101908401620006f6565b5085821015620007365787850151600019600388901b60f8161c191681555b5050505050600190811b01905550565b634e487b7160e01b600052602160045260246000fd5b6126ec806200076c6000396000f3fe608060405234801561001057600080fd5b50600436106101e55760003560e01c806389f12ed91161010f578063b206b569116100a2578063e13de22b11610071578063e13de22b1461041a578063e31c007f14610450578063eb08ab2814610463578063f4f4d2371461046d57600080fd5b8063b206b569146103c3578063bd45a0a9146103e3578063d5f39488146103f6578063daf911371461040757600080fd5b8063a1308f27116100de578063a1308f2714610364578063a41e603f1461036d578063ab440d651461038d578063ad73349e146103a057600080fd5b806389f12ed9146103135780638d977672146103245780638da5cb5b14610349578063973cdc781461035157600080fd5b8063409621861161018757806353eea8751161015657806353eea875146102d2578063599081f9146102e55780635d63f6c6146102ef57806386d113c01461030257600080fd5b8063409621861461028457806341dcea91146102915780634b749e9b146102c15780634fd9efc4146101ff57600080fd5b80630bb75b45116101c35780630bb75b451461022557806322f3e2d41461024b5780632b086648146102685780632fe7e4411461027b57600080fd5b806302a4dca0146101ea57806305261aea146101ff5780630adc56f014610212575b600080fd5b6101fd6101f8366004611dfc565b61048d565b005b6101fd61020d366004611dfc565b6104ed565b6101fd610220366004611e15565b610506565b610238610233366004611f1b565b61069a565b6040519081526020015b60405180910390f35b6004546102589060ff1681565b6040519015158152602001610242565b6101fd610276366004611f86565b610b0e565b61023860025481565b6008546102589060ff1681565b6004546102a99061010090046001600160a01b031681565b6040516001600160a01b039091168152602001610242565b600c546001600160a01b03166102a9565b6102386102e0366004611fc3565b610d6c565b6006546102389081565b6101fd6102fd366004611fe5565b610d9d565b600e546001600160a01b03166102a9565b6001546001600160a01b03166102a9565b610337610332366004611dfc565b611128565b604051610242969594939291906120a7565b6102a9611206565b61025861035f3660046120e9565b611281565b61023860035481565b61038061037b366004611dfc565b6112ec565b6040516102429190612115565b6101fd61039b366004612159565b61134e565b6103b36103ae366004611dfc565b611445565b60405161024294939291906121b5565b6103d66103d13660046121f7565b611517565b604051610242919061221c565b6102386103f136600461222a565b61156d565b6000546001600160a01b03166102a9565b6101fd6104153660046121f7565b6117ca565b6102386104283660046121f7565b6000918252600a602090815260408084206001600160a01b0393909316845291905290205490565b61023861045e3660046121f7565b611980565b6005546102389081565b61048061047b366004611dfc565b6119d2565b6040516102429190612281565b60045461010090046001600160a01b031633146104e85760405162461bcd60e51b81526020600482015260146024820152734f6e6c7920706c7567696e20726567697374727960601b60448201526064015b60405180910390fd5b600255565b60405163ced4f63360e01b815260040160405180910390fd5b81336001600160a01b031660078281548110610524576105246122e3565b60009182526020909120600160069092020101546001600160a01b03161461055e5760405162461bcd60e51b81526004016104df906122f9565b6040805160248082018690528251808303909101815260449091018252602080820180516001600160e01b031663daf9113760e01b1790528251600180825281850190945291926000929182015b60608152602001906001900390816105ac575050604080516001808252818301909252919250600091906020808301908036833701905050905082826000815181106105fa576105fa6122e3565b60200260200101819052508481600081518110610619576106196122e3565b61ffff90921660209283029190910190910152600c54604051631b799aa760e11b81526001600160a01b03909116906336f3354e9061066090309086908690600401612320565b600060405180830381600087803b15801561067a57600080fd5b505af115801561068e573d6000803e3d6000fd5b50505050505050505050565b60048054600154604051632b948c3960e01b81526001600160a01b03918216938101939093526000928392610100900490911690632b948c3990602401600060405180830381865afa1580156106f4573d6000803e3d6000fd5b505050506040513d6000823e601f3d908101601f1916820160405261071c91908101906123cd565b90506000805b825181101561091457600254838281518110610740576107406122e3565b60200260200101510361075257600191505b4285116107715760405162461bcd60e51b81526004016104df90612473565b60008751116107925760405162461bcd60e51b81526004016104df9061249c565b600061079d60055490565b6040805160c0810182524281526001600160a01b038d8116602083019081529282018d8152606083018d8152608084018d905260a084018c90526007805460018101825560009190915284517fa66cc928b5edb82af9bd49922954155ab7b0942694bea4ce44661d9a8736c688600690920291820190815595517fa66cc928b5edb82af9bd49922954155ab7b0942694bea4ce44661d9a8736c689820180546001600160a01b031916919095161790935590517fa66cc928b5edb82af9bd49922954155ab7b0942694bea4ce44661d9a8736c68a8301555193945090927fa66cc928b5edb82af9bd49922954155ab7b0942694bea4ce44661d9a8736c68b909101906108a99082612545565b506080820151600482015560a090910151600591820155805460010190557fa5ed9e6226c584326505694539c95cb0e3238ae09bcda5a65c00bbfdab1c666281896040516108f8929190612605565b60405180910390a193508061090c81612626565b915050610722565b50806109545760405162461bcd60e51b815260206004820152600f60248201526e4f6e6c792044414f204d6f64756c6560881b60448201526064016104df565b4284116109735760405162461bcd60e51b81526004016104df90612473565b60008651116109945760405162461bcd60e51b81526004016104df9061249c565b600061099f60055490565b6040805160c0810182524281526001600160a01b038c8116602083019081529282018c8152606083018c8152608084018c905260a084018b90526007805460018101825560009190915284517fa66cc928b5edb82af9bd49922954155ab7b0942694bea4ce44661d9a8736c688600690920291820190815595517fa66cc928b5edb82af9bd49922954155ab7b0942694bea4ce44661d9a8736c689820180546001600160a01b031916919095161790935590517fa66cc928b5edb82af9bd49922954155ab7b0942694bea4ce44661d9a8736c68a8301555193945090927fa66cc928b5edb82af9bd49922954155ab7b0942694bea4ce44661d9a8736c68b90910190610aab9082612545565b506080820151600482015560a090910151600591820155805460010190557fa5ed9e6226c584326505694539c95cb0e3238ae09bcda5a65c00bbfdab1c66628188604051610afa929190612605565b60405180910390a198975050505050505050565b600154604051630935e01b60e21b81523360048201526001600160a01b03909116906324d7806c90602401602060405180830381865afa158015610b56573d6000803e3d6000fd5b505050506040513d601f19601f82011682018060405250810190610b7a919061264d565b610bb45760405162461bcd60e51b815260206004820152600b60248201526a27b7363c9030b236b4b71760a91b60448201526064016104df565b4260078681548110610bc857610bc86122e3565b90600052602060002090600602016004015411610c1e5760405162461bcd60e51b81526020600482015260146024820152731d185cdac8185b1c9958591e481cdd185c9d195960621b60448201526064016104df565b6000835111610c3f5760405162461bcd60e51b81526004016104df9061249c565b6005548510610c7f5760405162461bcd60e51b815260206004820152600c60248201526b696e76616c6964207461736b60a01b60448201526064016104df565b8360078681548110610c9357610c936122e3565b9060005260206000209060060201600201819055508260078681548110610cbc57610cbc6122e3565b90600052602060002090600602016003019081610cd99190612545565b508160078681548110610cee57610cee6122e3565b9060005260206000209060060201600401819055508060078681548110610d1757610d176122e3565b9060005260206000209060060201600501819055507f126a0ea5197c062eb92c789989294eb8d2aef31cf41fd012da26dfab98b29a168584604051610d5d929190612605565b60405180910390a15050505050565b60096020528160005260406000208181548110610d8857600080fd5b90600052602060002001600091509150505481565b60085460ff1615610e535760015460405163288c314960e21b81523360048201526001600160a01b039091169063a230c52490602401602060405180830381865afa158015610df0573d6000803e3d6000fd5b505050506040513d601f19601f82011682018060405250810190610e14919061264d565b610e535760405162461bcd60e51b815260206004820152601060248201526f4f6e6c792044414f206d656d6265727360801b60448201526064016104df565b6000838152600a60209081526040808320338085529252822054600b8054879492908110610e8357610e836122e3565b60009182526020909120600360049092020181015460ff1690811115610eab57610eab61217d565b816003811115610ebd57610ebd61217d565b14610edb576040516328992a5560e21b815260040160405180910390fd5b4260078781548110610eef57610eef6122e3565b90600052602060002090600602016004015410610f405760405162461bcd60e51b815260206004820152600f60248201526e139bdd081cdd185c9d1959081e595d608a1b60448201526064016104df565b4260078781548110610f5457610f546122e3565b90600052602060002090600602016005015411610fa85760405162461bcd60e51b8152602060048201526012602482015271151a19481d185cdac81a185cc8195b99195960721b60448201526064016104df565b6000610fb360065490565b9050600b6040518060800160405280336001600160a01b0316815260200188888080601f01602080910402602001604051908101604052809392919081815260200183838082843760009201829052509385525050506020820152604001600290528154600180820184556000938452602093849020835160049093020180546001600160a01b0319166001600160a01b039093169290921782559282015191929091908201906110649082612545565b506040820151816002015560608201518160030160006101000a81548160ff021916908360038111156110995761109961217d565b021790555050506000878152600960209081526040808320805460018101825590845282842001849055898352600a825280832033845290915290208190556110e6600680546001019055565b60408051888152602081018390527f732b29041dfc9fd7a86ce0ca090ecaabdc1a602620a65264047baf43d8ba31be910160405180910390a150505050505050565b6007818154811061113857600080fd5b600091825260209091206006909102018054600182015460028301546003840180549395506001600160a01b03909216939092909190611177906124bc565b80601f01602080910402602001604051908101604052809291908181526020018280546111a3906124bc565b80156111f05780601f106111c5576101008083540402835291602001916111f0565b820191906000526020600020905b8154815290600101906020018083116111d357829003601f168201915b5050505050908060040154908060050154905086565b6004805460405163235883e360e01b815230928101929092526000916101009091046001600160a01b03169063235883e390602401602060405180830381865afa158015611258573d6000803e3d6000fd5b505050506040513d601f19601f8201168201806040525081019061127c919061266f565b905090565b6000818152600a602090815260408083206001600160a01b0386168452909152812054600b80546003929081106112ba576112ba6122e3565b60009182526020909120600360049092020181015460ff16908111156112e2576112e261217d565b1490505b92915050565b60008181526009602090815260409182902080548351818402810184019094528084526060939283018282801561134257602002820191906000526020600020905b81548152602001906001019080831161132e575b50505050509050919050565b600d546001600160a01b0316336001600160a01b03161461138257604051630e8cc36b60e21b815260040160405180910390fd5b600c80546001600160a01b0319166001600160a01b038316179055604080516389f12ed960e01b815290517f3ef34c117b493311a9ea61dff2d101d6bdc33062c190cb30ffbb908b09a2b4949130916389f12ed9916004808201926020929091908290030181865afa1580156113fc573d6000803e3d6000fd5b505050506040513d601f19601f82011682018060405250810190611420919061266f565b604080516001600160a01b03928316815291841660208301520160405180910390a150565b600b818154811061145557600080fd5b6000918252602090912060049091020180546001820180546001600160a01b03909216935090611484906124bc565b80601f01602080910402602001604051908101604052809291908181526020018280546114b0906124bc565b80156114fd5780601f106114d2576101008083540402835291602001916114fd565b820191906000526020600020905b8154815290600101906020018083116114e057829003601f168201915b50505050600283015460039093015491929160ff16905084565b6000828152600a602090815260408083206001600160a01b0385168452909152812054600b8054909190811061154f5761154f6122e3565b600091825260209091206004909102016003015460ff169392505050565b600154604051630935e01b60e21b81523360048201526000916001600160a01b0316906324d7806c90602401602060405180830381865afa1580156115b6573d6000803e3d6000fd5b505050506040513d601f19601f820116820180604052508101906115da919061264d565b6116145760405162461bcd60e51b815260206004820152600b60248201526a27b7363c9030b236b4b71760a91b60448201526064016104df565b4282116116335760405162461bcd60e51b81526004016104df90612473565b60008451116116545760405162461bcd60e51b81526004016104df9061249c565b600061165f60055490565b6040805160c0810182524281523360208201908152918101898152606082018981526080830189905260a083018890526007805460018101825560009190915283517fa66cc928b5edb82af9bd49922954155ab7b0942694bea4ce44661d9a8736c688600690920291820190815594517fa66cc928b5edb82af9bd49922954155ab7b0942694bea4ce44661d9a8736c689820180546001600160a01b0319166001600160a01b0390921691909117905591517fa66cc928b5edb82af9bd49922954155ab7b0942694bea4ce44661d9a8736c68a8301555193945090927fa66cc928b5edb82af9bd49922954155ab7b0942694bea4ce44661d9a8736c68b9091019061176a9082612545565b506080820151600482015560a090910151600591820155805460010190557fa5ed9e6226c584326505694539c95cb0e3238ae09bcda5a65c00bbfdab1c666281866040516117b9929190612605565b60405180910390a195945050505050565b6000356001600160e01b031916826040516024016117ea91815260200190565b60408051601f19818403018152918152602080830180516001600160e01b03166001600160e01b0319909516949094179093526000858152600a84528181206001600160a01b038616825290935290912054600b8054849286928492600292908110611858576118586122e3565b60009182526020909120600360049092020181015460ff16908111156118805761188061217d565b8160038111156118925761189261217d565b146118b0576040516328992a5560e21b815260040160405180910390fd5b86336001600160a01b0316600782815481106118ce576118ce6122e3565b60009182526020909120600160069092020101546001600160a01b0316146119085760405162461bcd60e51b81526004016104df906122f9565b6119128888611b30565b5050600c54604051633ad3b04160e01b81526001600160a01b039091169250633ad3b0419150611948908590859060040161268c565b600060405180830381600087803b15801561196257600080fd5b505af1158015611976573d6000803e3d6000fd5b5050505050505050565b6000828152600a602090815260408083206001600160a01b0385168452909152812054600b805490919081106119b8576119b86122e3565b906000526020600020906004020160020154905092915050565b611a146040518060c001604052806000815260200160006001600160a01b03168152602001600081526020016060815260200160008152602001600081525090565b60078281548110611a2757611a276122e3565b90600052602060002090600602016040518060c0016040529081600082015481526020016001820160009054906101000a90046001600160a01b03166001600160a01b03166001600160a01b0316815260200160028201548152602001600382018054611a93906124bc565b80601f0160208091040260200160405190810160405280929190818152602001828054611abf906124bc565b8015611b0c5780601f10611ae157610100808354040283529160200191611b0c565b820191906000526020600020905b815481529060010190602001808311611aef57829003601f168201915b50505050508152602001600482015481526020016005820154815250509050919050565b6000828152600a602090815260408083206001600160a01b0385168452909152902054600b8054849284926002929091908110611b6f57611b6f6122e3565b60009182526020909120600360049092020181015460ff1690811115611b9757611b9761217d565b816003811115611ba957611ba961217d565b14611bc7576040516328992a5560e21b815260040160405180910390fd5b84336001600160a01b031660078281548110611be557611be56122e3565b60009182526020909120600160069092020101546001600160a01b031614611c1f5760405162461bcd60e51b81526004016104df906122f9565b4260078781548110611c3357611c336122e3565b90600052602060002090600602016004015410611c845760405162461bcd60e51b815260206004820152600f60248201526e139bdd081cdd185c9d1959081e595d608a1b60448201526064016104df565b4260078781548110611c9857611c986122e3565b90600052602060002090600602016005015411611cec5760405162461bcd60e51b8152602060048201526012602482015271151a19481d185cdac81a185cc8195b99195960721b60448201526064016104df565b6000868152600a602090815260408083206001600160a01b0389168452909152902054600b8054600392908110611d2557611d256122e3565b906000526020600020906004020160030160006101000a81548160ff02191690836003811115611d5757611d5761217d565b02179055506000868152600a602090815260408083206001600160a01b0389168452909152902054600b80544292908110611d9457611d946122e3565b9060005260206000209060040201600201819055507fc923846dc69de8ab93cf9ea85e31a6e1ba93bd70bf0cec92b2c98b8f4b4485da8686604051611dec9291909182526001600160a01b0316602082015260400190565b60405180910390a1505050505050565b600060208284031215611e0e57600080fd5b5035919050565b60008060408385031215611e2857600080fd5b82359150602083013561ffff81168114611e4157600080fd5b809150509250929050565b6001600160a01b0381168114611e6157600080fd5b50565b634e487b7160e01b600052604160045260246000fd5b604051601f8201601f1916810167ffffffffffffffff81118282101715611ea357611ea3611e64565b604052919050565b600082601f830112611ebc57600080fd5b813567ffffffffffffffff811115611ed657611ed6611e64565b611ee9601f8201601f1916602001611e7a565b818152846020838601011115611efe57600080fd5b816020850160208301376000918101602001919091529392505050565b600080600080600060a08688031215611f3357600080fd5b8535611f3e81611e4c565b945060208601359350604086013567ffffffffffffffff811115611f6157600080fd5b611f6d88828901611eab565b9598949750949560608101359550608001359392505050565b600080600080600060a08688031215611f9e57600080fd5b8535945060208601359350604086013567ffffffffffffffff811115611f6157600080fd5b60008060408385031215611fd657600080fd5b50508035926020909101359150565b600080600060408486031215611ffa57600080fd5b83359250602084013567ffffffffffffffff8082111561201957600080fd5b818601915086601f83011261202d57600080fd5b81358181111561203c57600080fd5b87602082850101111561204e57600080fd5b6020830194508093505050509250925092565b6000815180845260005b818110156120875760208185018101518683018201520161206b565b506000602082860101526020601f19601f83011685010191505092915050565b86815260018060a01b038616602082015284604082015260c0606082015260006120d460c0830186612061565b60808301949094525060a00152949350505050565b600080604083850312156120fc57600080fd5b823561210781611e4c565b946020939093013593505050565b6020808252825182820181905260009190848201906040850190845b8181101561214d57835183529284019291840191600101612131565b50909695505050505050565b60006020828403121561216b57600080fd5b813561217681611e4c565b9392505050565b634e487b7160e01b600052602160045260246000fd5b600481106121b157634e487b7160e01b600052602160045260246000fd5b9052565b6001600160a01b03851681526080602082018190526000906121d990830186612061565b90508360408301526121ee6060830184612193565b95945050505050565b6000806040838503121561220a57600080fd5b823591506020830135611e4181611e4c565b602081016112e68284612193565b6000806000806080858703121561224057600080fd5b84359350602085013567ffffffffffffffff81111561225e57600080fd5b61226a87828801611eab565b949794965050505060408301359260600135919050565b602081528151602082015260018060a01b036020830151166040820152604082015160608201526000606083015160c060808401526122c360e0840182612061565b9050608084015160a084015260a084015160c08401528091505092915050565b634e487b7160e01b600052603260045260246000fd5b6020808252600d908201526c27b7363c9031b932b0ba37b91760991b604082015260600190565b60006060820160018060a01b0386168352602060608185015281865180845260808601915060808160051b870101935082880160005b8281101561238457607f19888703018452612372868351612061565b95509284019290840190600101612356565b50505050838203604085015284518083528186019282019060005b818110156123bf57845161ffff168352938301939183019160010161239f565b509098975050505050505050565b600060208083850312156123e057600080fd5b825167ffffffffffffffff808211156123f857600080fd5b818501915085601f83011261240c57600080fd5b81518181111561241e5761241e611e64565b8060051b915061242f848301611e7a565b818152918301840191848101908884111561244957600080fd5b938501935b838510156124675784518252938501939085019061244e565b98975050505050505050565b6020808252600f908201526e496e76616c696420656e644461746560881b604082015260600190565b6020808252600690820152654e6f2055524960d01b604082015260600190565b600181811c908216806124d057607f821691505b6020821081036124f057634e487b7160e01b600052602260045260246000fd5b50919050565b601f82111561254057600081815260208120601f850160051c8101602086101561251d5750805b601f850160051c820191505b8181101561253c57828155600101612529565b5050505b505050565b815167ffffffffffffffff81111561255f5761255f611e64565b6125738161256d84546124bc565b846124f6565b602080601f8311600181146125a857600084156125905750858301515b600019600386901b1c1916600185901b17855561253c565b600085815260208120601f198616915b828110156125d7578886015182559484019460019091019084016125b8565b50858210156125f55787850151600019600388901b60f8161c191681555b5050505050600190811b01905550565b82815260406020820152600061261e6040830184612061565b949350505050565b60006001820161264657634e487b7160e01b600052601160045260246000fd5b5060010190565b60006020828403121561265f57600080fd5b8151801515811461217657600080fd5b60006020828403121561268157600080fd5b815161217681611e4c565b60408152600061269f6040830185612061565b905060018060a01b0383166020830152939250505056fea2646970667358221220568ee20ed6166b1fdf3961bee640d8973c33a90f740b9feba4ad5f5d2be8956264736f6c63430008130033",
    "linkReferences": {}
  },
  "methodIdentifiers": {
    "changeInUseLocalRep(address)": "ab440d65",
    "create(uint256,string,uint256,uint256)": "bd45a0a9",
    "createBy(address,uint256,string,uint256,uint256)": "0bb75b45",
    "currentReputationAddr()": "4b749e9b",
    "daoMembersOnly()": "40962186",
    "deployer()": "d5f39488",
    "editTask(uint256,uint256,string,uint256,uint256)": "2b086648",
    "finalize(uint256)": "05261aea",
    "finalizeFor(uint256,address)": "daf91137",
    "getById(uint256)": "f4f4d237",
    "getCompletionTime(uint256,address)": "e31c007f",
    "getStatusPerSubmitter(uint256,address)": "b206b569",
    "getSubmissionIdPerTaskAndUser(uint256,address)": "e13de22b",
    "getSubmissionIdsPerTask(uint256)": "a41e603f",
    "hasCompletedTheTask(address,uint256)": "973cdc78",
    "idCounter()": "eb08ab28",
    "isActive()": "22f3e2d4",
    "lastReputationAddr()": "86d113c0",
    "moduleId()": "a1308f27",
    "novaAddress()": "89f12ed9",
    "owner()": "8da5cb5b",
    "pluginId()": "2fe7e441",
    "pluginRegistry()": "41dcea91",
    "setPluginId(uint256)": "02a4dca0",
    "setWeightForTask(uint256,uint16)": "0adc56f0",
    "submissionIds()": "599081f9",
    "submissions(uint256)": "ad73349e",
    "submit(uint256,string)": "5d63f6c6",
    "take(uint256)": "4fd9efc4",
    "taskSubmissions(uint256,uint256)": "53eea875",
    "tasks(uint256)": "8d977672"
  },
  "id": 81
}