{
  "abi": [
    {
      "inputs": [
        {
          "internalType": "address",
          "name": "nova_",
          "type": "address"
        }
      ],
      "stateMutability": "nonpayable",
      "type": "constructor"
    },
    {
      "inputs": [],
      "name": "AuthorityExpected",
      "type": "error"
    },
    {
      "inputs": [],
      "name": "FunctionInvalidAtThisStage",
      "type": "error"
    },
    {
      "inputs": [],
      "name": "FunctionNotImplemented",
      "type": "error"
    },
    {
      "anonymous": false,
      "inputs": [
        {
          "indexed": false,
          "internalType": "address",
          "name": "nova",
          "type": "address"
        },
        {
          "indexed": false,
          "internalType": "address",
          "name": "repAlgo",
          "type": "address"
        }
      ],
      "name": "LocalRepALogChangedFor",
      "type": "event"
    },
    {
      "anonymous": false,
      "inputs": [
        {
          "indexed": false,
          "internalType": "uint256",
          "name": "taskID",
          "type": "uint256"
        },
        {
          "indexed": false,
          "internalType": "string",
          "name": "uri",
          "type": "string"
        }
      ],
      "name": "TaskCreated",
      "type": "event"
    },
    {
      "anonymous": false,
      "inputs": [
        {
          "indexed": false,
          "internalType": "uint256",
          "name": "taskID",
          "type": "uint256"
        },
        {
          "indexed": false,
          "internalType": "string",
          "name": "uri",
          "type": "string"
        }
      ],
      "name": "TaskEdited",
      "type": "event"
    },
    {
      "anonymous": false,
      "inputs": [
        {
          "indexed": false,
          "internalType": "uint256",
          "name": "taskID",
          "type": "uint256"
        },
        {
          "indexed": false,
          "internalType": "address",
          "name": "taker",
          "type": "address"
        }
      ],
      "name": "TaskFinalized",
      "type": "event"
    },
    {
      "anonymous": false,
      "inputs": [
        {
          "indexed": false,
          "internalType": "uint256",
          "name": "taskID",
          "type": "uint256"
        },
        {
          "indexed": false,
          "internalType": "uint256",
          "name": "submissionId",
          "type": "uint256"
        }
      ],
      "name": "TaskSubmitted",
      "type": "event"
    },
    {
      "anonymous": false,
      "inputs": [
        {
          "indexed": false,
          "internalType": "uint256",
          "name": "taskID",
          "type": "uint256"
        },
        {
          "indexed": false,
          "internalType": "address",
          "name": "taker",
          "type": "address"
        }
      ],
      "name": "TaskTaken",
      "type": "event"
    },
    {
      "inputs": [
        {
          "internalType": "address",
          "name": "NewLocalRepAlgo_",
          "type": "address"
        }
      ],
      "name": "changeInUseLocalRep",
      "outputs": [],
      "stateMutability": "nonpayable",
      "type": "function"
    },
    {
      "inputs": [
        {
          "internalType": "uint256",
          "name": "role",
          "type": "uint256"
        },
        {
          "internalType": "string",
          "name": "uri",
          "type": "string"
        },
        {
          "internalType": "uint256",
          "name": "startDate",
          "type": "uint256"
        },
        {
          "internalType": "uint256",
          "name": "endDate",
          "type": "uint256"
        }
      ],
      "name": "create",
      "outputs": [
        {
          "internalType": "uint256",
          "name": "",
          "type": "uint256"
        }
      ],
      "stateMutability": "nonpayable",
      "type": "function"
    },
    {
      "inputs": [
        {
          "internalType": "address",
          "name": "creator",
          "type": "address"
        },
        {
          "internalType": "uint256",
          "name": "role",
          "type": "uint256"
        },
        {
          "internalType": "string",
          "name": "uri",
          "type": "string"
        },
        {
          "internalType": "uint256",
          "name": "startDate",
          "type": "uint256"
        },
        {
          "internalType": "uint256",
          "name": "endDate",
          "type": "uint256"
        }
      ],
      "name": "createBy",
      "outputs": [
        {
          "internalType": "uint256",
          "name": "",
          "type": "uint256"
        }
      ],
      "stateMutability": "nonpayable",
      "type": "function"
    },
    {
      "inputs": [
        {
          "internalType": "uint256",
          "name": "role",
          "type": "uint256"
        },
        {
          "internalType": "string",
          "name": "uri",
          "type": "string"
        },
        {
          "internalType": "uint256",
          "name": "startDate",
          "type": "uint256"
        },
        {
          "internalType": "uint256",
          "name": "endDate",
          "type": "uint256"
        },
        {
          "internalType": "uint16",
          "name": "pointsWeight",
          "type": "uint16"
        }
      ],
      "name": "createOffChainTaskWithWeight",
      "outputs": [
        {
          "internalType": "uint256",
          "name": "taskID",
          "type": "uint256"
        }
      ],
      "stateMutability": "nonpayable",
      "type": "function"
    },
    {
      "inputs": [],
      "name": "currentReputationAddr",
      "outputs": [
        {
          "internalType": "address",
          "name": "",
          "type": "address"
        }
      ],
      "stateMutability": "view",
      "type": "function"
    },
    {
      "inputs": [],
      "name": "deployer",
      "outputs": [
        {
          "internalType": "address",
          "name": "",
          "type": "address"
        }
      ],
      "stateMutability": "view",
      "type": "function"
    },
    {
      "inputs": [
        {
          "internalType": "uint256",
          "name": "taskId",
          "type": "uint256"
        },
        {
          "internalType": "uint256",
          "name": "role",
          "type": "uint256"
        },
        {
          "internalType": "string",
          "name": "uri",
          "type": "string"
        },
        {
          "internalType": "uint256",
          "name": "startDate",
          "type": "uint256"
        },
        {
          "internalType": "uint256",
          "name": "endDate",
          "type": "uint256"
        }
      ],
      "name": "editTask",
      "outputs": [],
      "stateMutability": "nonpayable",
      "type": "function"
    },
    {
      "inputs": [
        {
          "internalType": "uint256",
          "name": "taskId",
          "type": "uint256"
        }
      ],
      "name": "finalize",
      "outputs": [],
      "stateMutability": "nonpayable",
      "type": "function"
    },
    {
      "inputs": [
        {
          "internalType": "uint256",
          "name": "taskId",
          "type": "uint256"
        },
        {
          "internalType": "address",
          "name": "submitter",
          "type": "address"
        }
      ],
      "name": "finalizeFor",
      "outputs": [],
      "stateMutability": "nonpayable",
      "type": "function"
    },
    {
      "inputs": [
        {
          "internalType": "uint256",
          "name": "taskId",
          "type": "uint256"
        }
      ],
      "name": "getById",
      "outputs": [
        {
          "components": [
            {
              "internalType": "uint256",
              "name": "createdOn",
              "type": "uint256"
            },
            {
              "internalType": "address",
              "name": "creator",
              "type": "address"
            },
            {
              "internalType": "uint256",
              "name": "role",
              "type": "uint256"
            },
            {
              "internalType": "string",
              "name": "metadata",
              "type": "string"
            },
            {
              "internalType": "uint256",
              "name": "startDate",
              "type": "uint256"
            },
            {
              "internalType": "uint256",
              "name": "endDate",
              "type": "uint256"
            }
          ],
          "internalType": "struct TasksModule.Task",
          "name": "",
          "type": "tuple"
        }
      ],
      "stateMutability": "view",
      "type": "function"
    },
    {
      "inputs": [
        {
          "internalType": "uint256",
          "name": "taskId",
          "type": "uint256"
        },
        {
          "internalType": "address",
          "name": "user",
          "type": "address"
        }
      ],
      "name": "getCompletionTime",
      "outputs": [
        {
          "internalType": "uint256",
          "name": "",
          "type": "uint256"
        }
      ],
      "stateMutability": "view",
      "type": "function"
    },
    {
      "inputs": [
        {
          "internalType": "uint256",
          "name": "taskID",
          "type": "uint256"
        }
      ],
      "name": "getRepPointsOfTask",
      "outputs": [
        {
          "internalType": "uint256",
          "name": "",
          "type": "uint256"
        }
      ],
      "stateMutability": "view",
      "type": "function"
    },
    {
      "inputs": [
        {
          "internalType": "uint256",
          "name": "taskId",
          "type": "uint256"
        },
        {
          "internalType": "address",
          "name": "submitter",
          "type": "address"
        }
      ],
      "name": "getStatusPerSubmitter",
      "outputs": [
        {
          "internalType": "enum TasksModule.TaskStatus",
          "name": "",
          "type": "uint8"
        }
      ],
      "stateMutability": "view",
      "type": "function"
    },
    {
      "inputs": [
        {
          "internalType": "uint256",
          "name": "taskId",
          "type": "uint256"
        },
        {
          "internalType": "address",
          "name": "submitter",
          "type": "address"
        }
      ],
      "name": "getSubmissionIdPerTaskAndUser",
      "outputs": [
        {
          "internalType": "uint256",
          "name": "",
          "type": "uint256"
        }
      ],
      "stateMutability": "view",
      "type": "function"
    },
    {
      "inputs": [
        {
          "internalType": "uint256",
          "name": "taskId",
          "type": "uint256"
        }
      ],
      "name": "getSubmissionIdsPerTask",
      "outputs": [
        {
          "internalType": "uint256[]",
          "name": "",
          "type": "uint256[]"
        }
      ],
      "stateMutability": "view",
      "type": "function"
    },
    {
      "inputs": [
        {
          "internalType": "address",
          "name": "user",
          "type": "address"
        },
        {
          "internalType": "uint256",
          "name": "taskId",
          "type": "uint256"
        }
      ],
      "name": "hasCompletedTheTask",
      "outputs": [
        {
          "internalType": "bool",
          "name": "",
          "type": "bool"
        }
      ],
      "stateMutability": "view",
      "type": "function"
    },
    {
      "inputs": [],
      "name": "idCounter",
      "outputs": [
        {
          "internalType": "uint256",
          "name": "_value",
          "type": "uint256"
        }
      ],
      "stateMutability": "view",
      "type": "function"
    },
    {
      "inputs": [],
      "name": "isActive",
      "outputs": [
        {
          "internalType": "bool",
          "name": "",
          "type": "bool"
        }
      ],
      "stateMutability": "view",
      "type": "function"
    },
    {
      "inputs": [],
      "name": "lastReputationAddr",
      "outputs": [
        {
          "internalType": "address",
          "name": "",
          "type": "address"
        }
      ],
      "stateMutability": "view",
      "type": "function"
    },
    {
      "inputs": [],
      "name": "moduleId",
      "outputs": [
        {
          "internalType": "uint256",
          "name": "",
          "type": "uint256"
        }
      ],
      "stateMutability": "view",
      "type": "function"
    },
    {
      "inputs": [],
      "name": "novaAddress",
      "outputs": [
        {
          "internalType": "address",
          "name": "",
          "type": "address"
        }
      ],
      "stateMutability": "view",
      "type": "function"
    },
    {
      "inputs": [],
      "name": "novaMembersOnly",
      "outputs": [
        {
          "internalType": "bool",
          "name": "",
          "type": "bool"
        }
      ],
      "stateMutability": "view",
      "type": "function"
    },
    {
      "inputs": [],
      "name": "owner",
      "outputs": [
        {
          "internalType": "address",
          "name": "",
          "type": "address"
        }
      ],
      "stateMutability": "view",
      "type": "function"
    },
    {
      "inputs": [],
      "name": "pluginId",
      "outputs": [
        {
          "internalType": "uint256",
          "name": "",
          "type": "uint256"
        }
      ],
      "stateMutability": "view",
      "type": "function"
    },
    {
      "inputs": [],
      "name": "pluginRegistry",
      "outputs": [
        {
          "internalType": "address",
          "name": "",
          "type": "address"
        }
      ],
      "stateMutability": "view",
      "type": "function"
    },
    {
      "inputs": [
        {
          "internalType": "uint256",
          "name": "tokenId",
          "type": "uint256"
        }
      ],
      "name": "setPluginId",
      "outputs": [],
      "stateMutability": "nonpayable",
      "type": "function"
    },
    {
      "inputs": [
        {
          "internalType": "uint256",
          "name": "taskID",
          "type": "uint256"
        },
        {
          "internalType": "uint16",
          "name": "pointsWeight",
          "type": "uint16"
        }
      ],
      "name": "setWeightForTask",
      "outputs": [],
      "stateMutability": "nonpayable",
      "type": "function"
    },
    {
      "inputs": [],
      "name": "submissionIds",
      "outputs": [
        {
          "internalType": "uint256",
          "name": "_value",
          "type": "uint256"
        }
      ],
      "stateMutability": "view",
      "type": "function"
    },
    {
      "inputs": [
        {
          "internalType": "uint256",
          "name": "",
          "type": "uint256"
        }
      ],
      "name": "submissions",
      "outputs": [
        {
          "internalType": "address",
          "name": "submitter",
          "type": "address"
        },
        {
          "internalType": "string",
          "name": "submissionMetadata",
          "type": "string"
        },
        {
          "internalType": "uint256",
          "name": "completionTime",
          "type": "uint256"
        },
        {
          "internalType": "enum TasksModule.TaskStatus",
          "name": "status",
          "type": "uint8"
        }
      ],
      "stateMutability": "view",
      "type": "function"
    },
    {
      "inputs": [
        {
          "internalType": "uint256",
          "name": "taskId",
          "type": "uint256"
        },
        {
          "internalType": "string",
          "name": "submitionUrl",
          "type": "string"
        }
      ],
      "name": "submit",
      "outputs": [],
      "stateMutability": "nonpayable",
      "type": "function"
    },
    {
      "inputs": [
        {
          "internalType": "uint256",
          "name": "taskId",
          "type": "uint256"
        }
      ],
      "name": "take",
      "outputs": [],
      "stateMutability": "nonpayable",
      "type": "function"
    },
    {
      "inputs": [
        {
          "internalType": "uint256",
          "name": "",
          "type": "uint256"
        },
        {
          "internalType": "uint256",
          "name": "",
          "type": "uint256"
        }
      ],
      "name": "taskSubmissions",
      "outputs": [
        {
          "internalType": "uint256",
          "name": "",
          "type": "uint256"
        }
      ],
      "stateMutability": "view",
      "type": "function"
    },
    {
      "inputs": [
        {
          "internalType": "uint256",
          "name": "",
          "type": "uint256"
        }
      ],
      "name": "tasks",
      "outputs": [
        {
          "internalType": "uint256",
          "name": "createdOn",
          "type": "uint256"
        },
        {
          "internalType": "address",
          "name": "creator",
          "type": "address"
        },
        {
          "internalType": "uint256",
          "name": "role",
          "type": "uint256"
        },
        {
          "internalType": "string",
          "name": "metadata",
          "type": "string"
        },
        {
          "internalType": "uint256",
          "name": "startDate",
          "type": "uint256"
        },
        {
          "internalType": "uint256",
          "name": "endDate",
          "type": "uint256"
        }
      ],
      "stateMutability": "view",
      "type": "function"
    }
  ],
  "bytecode": {
    "object": "0x60806040523480156200001157600080fd5b506040516200309a3803806200309a8339810160408190526200003491620005a3565b8081600181600081600160006101000a8154816001600160a01b0302191690836001600160a01b03160217905550816001600160a01b03166341dcea916040518163ffffffff1660e01b8152600401602060405180830381865afa158015620000a1573d6000803e3d6000fd5b505050506040513d601f19601f82011682018060405250810190620000c79190620005a3565b600480546001600160a01b0392831661010002610100600160a81b0319909116179055600080546001600160a01b0319908116331782556003939093556040805160c08101825282815260208082018481528284018581528451928301909452848252606083019182526080830185905260a08301859052600780546001810182559552825160069095027fa66cc928b5edb82af9bd49922954155ab7b0942694bea4ce44661d9a8736c688810195865590517fa66cc928b5edb82af9bd49922954155ab7b0942694bea4ce44661d9a8736c689820180549190971697169690961790945590517fa66cc928b5edb82af9bd49922954155ab7b0942694bea4ce44661d9a8736c68a8501559151919350917fa66cc928b5edb82af9bd49922954155ab7b0942694bea4ce44661d9a8736c68b01906200020790826200067a565b50608082810151600483015560a0909201516005909101556040805191820181526000808352815160208181018452828252840152908201819052600b919060608201528154600180820184556000938452602093849020835160049093020180546001600160a01b0319166001600160a01b039093169290921782559282015191929091908201906200029c90826200067a565b506040820151816002015560608201518160030160006101000a81548160ff02191690836003811115620002d457620002d462000746565b02179055505050620002ed60056200059a60201b60201c565b620002fc600680546001019055565b80600860006101000a81548160ff0219169083151502179055505050806001600160a01b03166341dcea916040518163ffffffff1660e01b81526004016020604051808303816000875af115801562000359573d6000803e3d6000fd5b505050506040513d601f19601f820116820180604052508101906200037f9190620005a3565b6001600160a01b031663f0b7832a6040518163ffffffff1660e01b8152600401602060405180830381865afa158015620003bd573d6000803e3d6000fd5b505050506040513d601f19601f82011682018060405250810190620003e39190620005a3565b600c80546001600160a01b0319166001600160a01b0392831690811790915560405163189acdbd60e31b815291831660048301529063c4d66de890602401600060405180830381600087803b1580156200043c57600080fd5b505af115801562000451573d6000803e3d6000fd5b5050505050806001600160a01b03166341dcea916040518163ffffffff1660e01b81526004016020604051808303816000875af115801562000497573d6000803e3d6000fd5b505050506040513d601f19601f82011682018060405250810190620004bd9190620005a3565b6001600160a01b031663f0b7832a6040518163ffffffff1660e01b8152600401602060405180830381865afa158015620004fb573d6000803e3d6000fd5b505050506040513d601f19601f82011682018060405250810190620005219190620005a3565b600c80546001600160a01b0319166001600160a01b0392831690811790915560405163189acdbd60e31b815291831660048301529063c4d66de890602401600060405180830381600087803b1580156200057a57600080fd5b505af11580156200058f573d6000803e3d6000fd5b50505050506200075c565b80546001019055565b600060208284031215620005b657600080fd5b81516001600160a01b0381168114620005ce57600080fd5b9392505050565b634e487b7160e01b600052604160045260246000fd5b600181811c908216806200060057607f821691505b6020821081036200062157634e487b7160e01b600052602260045260246000fd5b50919050565b601f8211156200067557600081815260208120601f850160051c81016020861015620006505750805b601f850160051c820191505b8181101562000671578281556001016200065c565b5050505b505050565b81516001600160401b03811115620006965762000696620005d5565b620006ae81620006a78454620005eb565b8462000627565b602080601f831160018114620006e65760008415620006cd5750858301515b600019600386901b1c1916600185901b17855562000671565b600085815260208120601f198616915b828110156200071757888601518255948401946001909101908401620006f6565b5085821015620007365787850151600019600388901b60f8161c191681555b5050505050600190811b01905550565b634e487b7160e01b600052602160045260246000fd5b61292e806200076c6000396000f3fe608060405234801561001057600080fd5b50600436106101fb5760003560e01c806389f12ed91161011a578063b206b569116100ad578063e13de22b1161007c578063e13de22b14610443578063e31c007f14610479578063e38c5e721461048c578063eb08ab281461049f578063f4f4d237146104a957600080fd5b8063b206b569146103ec578063bd45a0a91461040c578063d5f394881461041f578063daf911371461043057600080fd5b8063a1308f27116100e9578063a1308f271461038d578063a41e603f14610396578063ab440d65146103b6578063ad73349e146103c957600080fd5b806389f12ed91461033c5780638d9776721461034d5780638da5cb5b14610372578063973cdc781461037a57600080fd5b806341dcea9111610192578063599081f911610161578063599081f9146102fb5780635d63f6c61461030557806380fbd1b11461031857806386d113c01461032b57600080fd5b806341dcea91146102a75780634b749e9b146102d75780634fd9efc41461021557806353eea875146102e857600080fd5b806322f3e2d4116101ce57806322f3e2d4146102615780632b0866481461027e5780632cce7143146102915780632fe7e4411461029e57600080fd5b806302a4dca01461020057806305261aea146102155780630adc56f0146102285780630bb75b451461023b575b600080fd5b61021361020e366004611f75565b6104c9565b005b610213610223366004611f75565b610529565b610213610236366004611fa1565b610542565b61024e61024936600461209d565b6106d6565b6040519081526020015b60405180910390f35b60045461026e9060ff1681565b6040519015158152602001610258565b61021361028c366004612108565b610b4b565b60085461026e9060ff1681565b61024e60025481565b6004546102bf9061010090046001600160a01b031681565b6040516001600160a01b039091168152602001610258565b600c546001600160a01b03166102bf565b61024e6102f6366004612145565b610da9565b60065461024e9081565b610213610313366004612167565b610dda565b61024e6103263660046121e3565b611165565b600e546001600160a01b03166102bf565b6001546001600160a01b03166102bf565b61036061035b366004611f75565b611188565b60405161025896959493929190612298565b6102bf611266565b61026e6103883660046122da565b6112e1565b61024e60035481565b6103a96103a4366004611f75565b61134c565b6040516102589190612306565b6102136103c436600461234a565b6113ae565b6103dc6103d7366004611f75565b6114a5565b60405161025894939291906123a6565b6103ff6103fa3660046123df565b611577565b6040516102589190612404565b61024e61041a366004612412565b6115cd565b6000546001600160a01b03166102bf565b61021361043e3660046123df565b61182a565b61024e6104513660046123df565b6000918252600a602090815260408084206001600160a01b0393909316845291905290205490565b61024e6104873660046123df565b6119e0565b61024e61049a366004611f75565b611a32565b60055461024e9081565b6104bc6104b7366004611f75565b611b4b565b6040516102589190612469565b60045461010090046001600160a01b031633146105245760405162461bcd60e51b81526020600482015260146024820152734f6e6c7920706c7567696e20726567697374727960601b60448201526064015b60405180910390fd5b600255565b60405163ced4f63360e01b815260040160405180910390fd5b81336001600160a01b031660078281548110610560576105606124cb565b60009182526020909120600160069092020101546001600160a01b03161461059a5760405162461bcd60e51b815260040161051b906124e1565b6040805160248082018690528251808303909101815260449091018252602080820180516001600160e01b031663daf9113760e01b1790528251600180825281850190945291926000929182015b60608152602001906001900390816105e857505060408051600180825281830190925291925060009190602080830190803683370190505090508282600081518110610636576106366124cb565b60200260200101819052508481600081518110610655576106556124cb565b61ffff90921660209283029190910190910152600c54604051631b799aa760e11b81526001600160a01b03909116906336f3354e9061069c90309086908690600401612508565b600060405180830381600087803b1580156106b657600080fd5b505af11580156106ca573d6000803e3d6000fd5b50505050505050505050565b600480546001546040516318e96e9d60e11b81526001600160a01b039182169381019390935260009283926101009004909116906331d2dd3a90602401600060405180830381865afa158015610730573d6000803e3d6000fd5b505050506040513d6000823e601f3d908101601f1916820160405261075891908101906125b5565b90506000805b82518110156109505760025483828151811061077c5761077c6124cb565b60200260200101510361078e57600191505b4285116107ad5760405162461bcd60e51b815260040161051b9061265b565b60008751116107ce5760405162461bcd60e51b815260040161051b90612684565b60006107d960055490565b6040805160c0810182524281526001600160a01b038d8116602083019081529282018d8152606083018d8152608084018d905260a084018c90526007805460018101825560009190915284517fa66cc928b5edb82af9bd49922954155ab7b0942694bea4ce44661d9a8736c688600690920291820190815595517fa66cc928b5edb82af9bd49922954155ab7b0942694bea4ce44661d9a8736c689820180546001600160a01b031916919095161790935590517fa66cc928b5edb82af9bd49922954155ab7b0942694bea4ce44661d9a8736c68a8301555193945090927fa66cc928b5edb82af9bd49922954155ab7b0942694bea4ce44661d9a8736c68b909101906108e5908261272d565b506080820151600482015560a090910151600591820155805460010190557fa5ed9e6226c584326505694539c95cb0e3238ae09bcda5a65c00bbfdab1c666281896040516109349291906127ed565b60405180910390a19350806109488161280e565b91505061075e565b50806109915760405162461bcd60e51b815260206004820152601060248201526f4f6e6c79204e6f7661204d6f64756c6560801b604482015260640161051b565b4284116109b05760405162461bcd60e51b815260040161051b9061265b565b60008651116109d15760405162461bcd60e51b815260040161051b90612684565b60006109dc60055490565b6040805160c0810182524281526001600160a01b038c8116602083019081529282018c8152606083018c8152608084018c905260a084018b90526007805460018101825560009190915284517fa66cc928b5edb82af9bd49922954155ab7b0942694bea4ce44661d9a8736c688600690920291820190815595517fa66cc928b5edb82af9bd49922954155ab7b0942694bea4ce44661d9a8736c689820180546001600160a01b031916919095161790935590517fa66cc928b5edb82af9bd49922954155ab7b0942694bea4ce44661d9a8736c68a8301555193945090927fa66cc928b5edb82af9bd49922954155ab7b0942694bea4ce44661d9a8736c68b90910190610ae8908261272d565b506080820151600482015560a090910151600591820155805460010190557fa5ed9e6226c584326505694539c95cb0e3238ae09bcda5a65c00bbfdab1c66628188604051610b379291906127ed565b60405180910390a198975050505050505050565b600154604051630935e01b60e21b81523360048201526001600160a01b03909116906324d7806c90602401602060405180830381865afa158015610b93573d6000803e3d6000fd5b505050506040513d601f19601f82011682018060405250810190610bb79190612835565b610bf15760405162461bcd60e51b815260206004820152600b60248201526a27b7363c9030b236b4b71760a91b604482015260640161051b565b4260078681548110610c0557610c056124cb565b90600052602060002090600602016004015411610c5b5760405162461bcd60e51b81526020600482015260146024820152731d185cdac8185b1c9958591e481cdd185c9d195960621b604482015260640161051b565b6000835111610c7c5760405162461bcd60e51b815260040161051b90612684565b6005548510610cbc5760405162461bcd60e51b815260206004820152600c60248201526b696e76616c6964207461736b60a01b604482015260640161051b565b8360078681548110610cd057610cd06124cb565b9060005260206000209060060201600201819055508260078681548110610cf957610cf96124cb565b90600052602060002090600602016003019081610d16919061272d565b508160078681548110610d2b57610d2b6124cb565b9060005260206000209060060201600401819055508060078681548110610d5457610d546124cb565b9060005260206000209060060201600501819055507f126a0ea5197c062eb92c789989294eb8d2aef31cf41fd012da26dfab98b29a168584604051610d9a9291906127ed565b60405180910390a15050505050565b60096020528160005260406000208181548110610dc557600080fd5b90600052602060002001600091509150505481565b60085460ff1615610e905760015460405163288c314960e21b81523360048201526001600160a01b039091169063a230c52490602401602060405180830381865afa158015610e2d573d6000803e3d6000fd5b505050506040513d601f19601f82011682018060405250810190610e519190612835565b610e905760405162461bcd60e51b815260206004820152601060248201526f4f6e6c792044414f206d656d6265727360801b604482015260640161051b565b6000838152600a60209081526040808320338085529252822054600b8054879492908110610ec057610ec06124cb565b60009182526020909120600360049092020181015460ff1690811115610ee857610ee861236e565b816003811115610efa57610efa61236e565b14610f18576040516328992a5560e21b815260040160405180910390fd5b4260078781548110610f2c57610f2c6124cb565b90600052602060002090600602016004015410610f7d5760405162461bcd60e51b815260206004820152600f60248201526e139bdd081cdd185c9d1959081e595d608a1b604482015260640161051b565b4260078781548110610f9157610f916124cb565b90600052602060002090600602016005015411610fe55760405162461bcd60e51b8152602060048201526012602482015271151a19481d185cdac81a185cc8195b99195960721b604482015260640161051b565b6000610ff060065490565b9050600b6040518060800160405280336001600160a01b0316815260200188888080601f01602080910402602001604051908101604052809392919081815260200183838082843760009201829052509385525050506020820152604001600290528154600180820184556000938452602093849020835160049093020180546001600160a01b0319166001600160a01b039093169290921782559282015191929091908201906110a1908261272d565b506040820151816002015560608201518160030160006101000a81548160ff021916908360038111156110d6576110d661236e565b021790555050506000878152600960209081526040808320805460018101825590845282842001849055898352600a82528083203384529091529020819055611123600680546001019055565b60408051888152602081018390527f732b29041dfc9fd7a86ce0ca090ecaabdc1a602620a65264047baf43d8ba31be910160405180910390a150505050505050565b6000611173868686866115cd565b905061117f8183610542565b95945050505050565b6007818154811061119857600080fd5b600091825260209091206006909102018054600182015460028301546003840180549395506001600160a01b039092169390929091906111d7906126a4565b80601f0160208091040260200160405190810160405280929190818152602001828054611203906126a4565b80156112505780601f1061122557610100808354040283529160200191611250565b820191906000526020600020905b81548152906001019060200180831161123357829003601f168201915b5050505050908060040154908060050154905086565b6004805460405163235883e360e01b815230928101929092526000916101009091046001600160a01b03169063235883e390602401602060405180830381865afa1580156112b8573d6000803e3d6000fd5b505050506040513d601f19601f820116820180604052508101906112dc9190612857565b905090565b6000818152600a602090815260408083206001600160a01b0386168452909152812054600b805460039290811061131a5761131a6124cb565b60009182526020909120600360049092020181015460ff16908111156113425761134261236e565b1490505b92915050565b6000818152600960209081526040918290208054835181840281018401909452808452606093928301828280156113a257602002820191906000526020600020905b81548152602001906001019080831161138e575b50505050509050919050565b600d546001600160a01b0316336001600160a01b0316146113e257604051630e8cc36b60e21b815260040160405180910390fd5b600c80546001600160a01b0319166001600160a01b038316179055604080516389f12ed960e01b815290517f3ef34c117b493311a9ea61dff2d101d6bdc33062c190cb30ffbb908b09a2b4949130916389f12ed9916004808201926020929091908290030181865afa15801561145c573d6000803e3d6000fd5b505050506040513d601f19601f820116820180604052508101906114809190612857565b604080516001600160a01b03928316815291841660208301520160405180910390a150565b600b81815481106114b557600080fd5b6000918252602090912060049091020180546001820180546001600160a01b039092169350906114e4906126a4565b80601f0160208091040260200160405190810160405280929190818152602001828054611510906126a4565b801561155d5780601f106115325761010080835404028352916020019161155d565b820191906000526020600020905b81548152906001019060200180831161154057829003601f168201915b50505050600283015460039093015491929160ff16905084565b6000828152600a602090815260408083206001600160a01b0385168452909152812054600b805490919081106115af576115af6124cb565b600091825260209091206004909102016003015460ff169392505050565b600154604051630935e01b60e21b81523360048201526000916001600160a01b0316906324d7806c90602401602060405180830381865afa158015611616573d6000803e3d6000fd5b505050506040513d601f19601f8201168201806040525081019061163a9190612835565b6116745760405162461bcd60e51b815260206004820152600b60248201526a27b7363c9030b236b4b71760a91b604482015260640161051b565b4282116116935760405162461bcd60e51b815260040161051b9061265b565b60008451116116b45760405162461bcd60e51b815260040161051b90612684565b60006116bf60055490565b6040805160c0810182524281523360208201908152918101898152606082018981526080830189905260a083018890526007805460018101825560009190915283517fa66cc928b5edb82af9bd49922954155ab7b0942694bea4ce44661d9a8736c688600690920291820190815594517fa66cc928b5edb82af9bd49922954155ab7b0942694bea4ce44661d9a8736c689820180546001600160a01b0319166001600160a01b0390921691909117905591517fa66cc928b5edb82af9bd49922954155ab7b0942694bea4ce44661d9a8736c68a8301555193945090927fa66cc928b5edb82af9bd49922954155ab7b0942694bea4ce44661d9a8736c68b909101906117ca908261272d565b506080820151600482015560a090910151600591820155805460010190557fa5ed9e6226c584326505694539c95cb0e3238ae09bcda5a65c00bbfdab1c666281866040516118199291906127ed565b60405180910390a195945050505050565b6000356001600160e01b0319168260405160240161184a91815260200190565b60408051601f19818403018152918152602080830180516001600160e01b03166001600160e01b0319909516949094179093526000858152600a84528181206001600160a01b038616825290935290912054600b80548492869284926002929081106118b8576118b86124cb565b60009182526020909120600360049092020181015460ff16908111156118e0576118e061236e565b8160038111156118f2576118f261236e565b14611910576040516328992a5560e21b815260040160405180910390fd5b86336001600160a01b03166007828154811061192e5761192e6124cb565b60009182526020909120600160069092020101546001600160a01b0316146119685760405162461bcd60e51b815260040161051b906124e1565b6119728888611ca9565b5050600c54604051633ad3b04160e01b81526001600160a01b039091169250633ad3b04191506119a89085908590600401612874565b600060405180830381600087803b1580156119c257600080fd5b505af11580156119d6573d6000803e3d6000fd5b5050505050505050565b6000828152600a602090815260408083206001600160a01b0385168452909152812054600b80549091908110611a1857611a186124cb565b906000526020600020906004020160020154905092915050565b600c5460408051602480820185905282518083039091018152604490910182526020810180516001600160e01b031663daf9113760e01b1790529051630958ee3760e41b81526000926001600160a01b031691635a53f24a91839163958ee37091611aa191309160040161289e565b602060405180830381865afa158015611abe573d6000803e3d6000fd5b505050506040513d601f19601f82011682018060405250810190611ae291906128c2565b6040518263ffffffff1660e01b8152600401611b0091815260200190565b602060405180830381865afa158015611b1d573d6000803e3d6000fd5b505050506040513d601f19601f82011682018060405250810190611b4191906128db565b61ffff1692915050565b611b8d6040518060c001604052806000815260200160006001600160a01b03168152602001600081526020016060815260200160008152602001600081525090565b60078281548110611ba057611ba06124cb565b90600052602060002090600602016040518060c0016040529081600082015481526020016001820160009054906101000a90046001600160a01b03166001600160a01b03166001600160a01b0316815260200160028201548152602001600382018054611c0c906126a4565b80601f0160208091040260200160405190810160405280929190818152602001828054611c38906126a4565b8015611c855780601f10611c5a57610100808354040283529160200191611c85565b820191906000526020600020905b815481529060010190602001808311611c6857829003601f168201915b50505050508152602001600482015481526020016005820154815250509050919050565b6000828152600a602090815260408083206001600160a01b0385168452909152902054600b8054849284926002929091908110611ce857611ce86124cb565b60009182526020909120600360049092020181015460ff1690811115611d1057611d1061236e565b816003811115611d2257611d2261236e565b14611d40576040516328992a5560e21b815260040160405180910390fd5b84336001600160a01b031660078281548110611d5e57611d5e6124cb565b60009182526020909120600160069092020101546001600160a01b031614611d985760405162461bcd60e51b815260040161051b906124e1565b4260078781548110611dac57611dac6124cb565b90600052602060002090600602016004015410611dfd5760405162461bcd60e51b815260206004820152600f60248201526e139bdd081cdd185c9d1959081e595d608a1b604482015260640161051b565b4260078781548110611e1157611e116124cb565b90600052602060002090600602016005015411611e655760405162461bcd60e51b8152602060048201526012602482015271151a19481d185cdac81a185cc8195b99195960721b604482015260640161051b565b6000868152600a602090815260408083206001600160a01b0389168452909152902054600b8054600392908110611e9e57611e9e6124cb565b906000526020600020906004020160030160006101000a81548160ff02191690836003811115611ed057611ed061236e565b02179055506000868152600a602090815260408083206001600160a01b0389168452909152902054600b80544292908110611f0d57611f0d6124cb565b9060005260206000209060040201600201819055507fc923846dc69de8ab93cf9ea85e31a6e1ba93bd70bf0cec92b2c98b8f4b4485da8686604051611f659291909182526001600160a01b0316602082015260400190565b60405180910390a1505050505050565b600060208284031215611f8757600080fd5b5035919050565b61ffff81168114611f9e57600080fd5b50565b60008060408385031215611fb457600080fd5b823591506020830135611fc681611f8e565b809150509250929050565b6001600160a01b0381168114611f9e57600080fd5b634e487b7160e01b600052604160045260246000fd5b604051601f8201601f1916810167ffffffffffffffff8111828210171561202557612025611fe6565b604052919050565b600082601f83011261203e57600080fd5b813567ffffffffffffffff81111561205857612058611fe6565b61206b601f8201601f1916602001611ffc565b81815284602083860101111561208057600080fd5b816020850160208301376000918101602001919091529392505050565b600080600080600060a086880312156120b557600080fd5b85356120c081611fd1565b945060208601359350604086013567ffffffffffffffff8111156120e357600080fd5b6120ef8882890161202d565b9598949750949560608101359550608001359392505050565b600080600080600060a0868803121561212057600080fd5b8535945060208601359350604086013567ffffffffffffffff8111156120e357600080fd5b6000806040838503121561215857600080fd5b50508035926020909101359150565b60008060006040848603121561217c57600080fd5b83359250602084013567ffffffffffffffff8082111561219b57600080fd5b818601915086601f8301126121af57600080fd5b8135818111156121be57600080fd5b8760208285010111156121d057600080fd5b6020830194508093505050509250925092565b600080600080600060a086880312156121fb57600080fd5b85359450602086013567ffffffffffffffff81111561221957600080fd5b6122258882890161202d565b9450506040860135925060608601359150608086013561224481611f8e565b809150509295509295909350565b6000815180845260005b818110156122785760208185018101518683018201520161225c565b506000602082860101526020601f19601f83011685010191505092915050565b86815260018060a01b038616602082015284604082015260c0606082015260006122c560c0830186612252565b60808301949094525060a00152949350505050565b600080604083850312156122ed57600080fd5b82356122f881611fd1565b946020939093013593505050565b6020808252825182820181905260009190848201906040850190845b8181101561233e57835183529284019291840191600101612322565b50909695505050505050565b60006020828403121561235c57600080fd5b813561236781611fd1565b9392505050565b634e487b7160e01b600052602160045260246000fd5b600481106123a257634e487b7160e01b600052602160045260246000fd5b9052565b6001600160a01b03851681526080602082018190526000906123ca90830186612252565b905083604083015261117f6060830184612384565b600080604083850312156123f257600080fd5b823591506020830135611fc681611fd1565b602081016113468284612384565b6000806000806080858703121561242857600080fd5b84359350602085013567ffffffffffffffff81111561244657600080fd5b6124528782880161202d565b949794965050505060408301359260600135919050565b602081528151602082015260018060a01b036020830151166040820152604082015160608201526000606083015160c060808401526124ab60e0840182612252565b9050608084015160a084015260a084015160c08401528091505092915050565b634e487b7160e01b600052603260045260246000fd5b6020808252600d908201526c27b7363c9031b932b0ba37b91760991b604082015260600190565b60006060820160018060a01b0386168352602060608185015281865180845260808601915060808160051b870101935082880160005b8281101561256c57607f1988870301845261255a868351612252565b9550928401929084019060010161253e565b50505050838203604085015284518083528186019282019060005b818110156125a757845161ffff1683529383019391830191600101612587565b509098975050505050505050565b600060208083850312156125c857600080fd5b825167ffffffffffffffff808211156125e057600080fd5b818501915085601f8301126125f457600080fd5b81518181111561260657612606611fe6565b8060051b9150612617848301611ffc565b818152918301840191848101908884111561263157600080fd5b938501935b8385101561264f57845182529385019390850190612636565b98975050505050505050565b6020808252600f908201526e496e76616c696420656e644461746560881b604082015260600190565b6020808252600690820152654e6f2055524960d01b604082015260600190565b600181811c908216806126b857607f821691505b6020821081036126d857634e487b7160e01b600052602260045260246000fd5b50919050565b601f82111561272857600081815260208120601f850160051c810160208610156127055750805b601f850160051c820191505b8181101561272457828155600101612711565b5050505b505050565b815167ffffffffffffffff81111561274757612747611fe6565b61275b8161275584546126a4565b846126de565b602080601f83116001811461279057600084156127785750858301515b600019600386901b1c1916600185901b178555612724565b600085815260208120601f198616915b828110156127bf578886015182559484019460019091019084016127a0565b50858210156127dd5787850151600019600388901b60f8161c191681555b5050505050600190811b01905550565b8281526040602082015260006128066040830184612252565b949350505050565b60006001820161282e57634e487b7160e01b600052601160045260246000fd5b5060010190565b60006020828403121561284757600080fd5b8151801515811461236757600080fd5b60006020828403121561286957600080fd5b815161236781611fd1565b6040815260006128876040830185612252565b905060018060a01b03831660208301529392505050565b6001600160a01b038316815260406020820181905260009061280690830184612252565b6000602082840312156128d457600080fd5b5051919050565b6000602082840312156128ed57600080fd5b815161236781611f8e56fea2646970667358221220aa738ed9de5e41ab0faa04247780b3a66efb4ba922a6c596c4b8cf15d803404364736f6c63430008130033",
    "linkReferences": {}
  },
  "methodIdentifiers": {
    "changeInUseLocalRep(address)": "ab440d65",
    "create(uint256,string,uint256,uint256)": "bd45a0a9",
    "createBy(address,uint256,string,uint256,uint256)": "0bb75b45",
    "createOffChainTaskWithWeight(uint256,string,uint256,uint256,uint16)": "80fbd1b1",
    "currentReputationAddr()": "4b749e9b",
    "deployer()": "d5f39488",
    "editTask(uint256,uint256,string,uint256,uint256)": "2b086648",
    "finalize(uint256)": "05261aea",
    "finalizeFor(uint256,address)": "daf91137",
    "getById(uint256)": "f4f4d237",
    "getCompletionTime(uint256,address)": "e31c007f",
    "getRepPointsOfTask(uint256)": "e38c5e72",
    "getStatusPerSubmitter(uint256,address)": "b206b569",
    "getSubmissionIdPerTaskAndUser(uint256,address)": "e13de22b",
    "getSubmissionIdsPerTask(uint256)": "a41e603f",
    "hasCompletedTheTask(address,uint256)": "973cdc78",
    "idCounter()": "eb08ab28",
    "isActive()": "22f3e2d4",
    "lastReputationAddr()": "86d113c0",
    "moduleId()": "a1308f27",
    "novaAddress()": "89f12ed9",
    "novaMembersOnly()": "2cce7143",
    "owner()": "8da5cb5b",
    "pluginId()": "2fe7e441",
    "pluginRegistry()": "41dcea91",
    "setPluginId(uint256)": "02a4dca0",
    "setWeightForTask(uint256,uint16)": "0adc56f0",
    "submissionIds()": "599081f9",
    "submissions(uint256)": "ad73349e",
    "submit(uint256,string)": "5d63f6c6",
    "take(uint256)": "4fd9efc4",
    "taskSubmissions(uint256,uint256)": "53eea875",
    "tasks(uint256)": "8d977672"
  },
  "id": 74
}