{
  "abi": [
    {
      "inputs": [],
      "name": "ArgLenMismatch",
      "type": "error"
    },
    {
      "inputs": [],
      "name": "MaxK",
      "type": "error"
    },
    {
      "inputs": [],
      "name": "OnlyAdmin",
      "type": "error"
    },
    {
      "inputs": [],
      "name": "OnlyOnce",
      "type": "error"
    },
    {
      "inputs": [],
      "name": "Over100",
      "type": "error"
    },
    {
      "inputs": [],
      "name": "PeriodUnelapsed",
      "type": "error"
    },
    {
      "inputs": [],
      "name": "Unauthorised",
      "type": "error"
    },
    {
      "inputs": [],
      "name": "Uninitialized",
      "type": "error"
    },
    {
      "inputs": [],
      "name": "UninitializedPair",
      "type": "error"
    },
    {
      "inputs": [],
      "name": "ZeroUnallawed",
      "type": "error"
    },
    {
      "inputs": [],
      "name": "ZeroUnallowed",
      "type": "error"
    },
    {
      "inputs": [],
      "name": "k1MaxPointPerInteraction",
      "type": "error"
    },
    {
      "anonymous": false,
      "inputs": [],
      "name": "EndOfPeriod",
      "type": "event"
    },
    {
      "anonymous": false,
      "inputs": [
        {
          "indexed": false,
          "internalType": "uint256",
          "name": "InteractionID",
          "type": "uint256"
        },
        {
          "indexed": false,
          "internalType": "address",
          "name": "agent",
          "type": "address"
        }
      ],
      "name": "Interaction",
      "type": "event"
    },
    {
      "anonymous": false,
      "inputs": [
        {
          "indexed": false,
          "internalType": "address",
          "name": "Nova",
          "type": "address"
        },
        {
          "indexed": false,
          "internalType": "address",
          "name": "PluginAddr",
          "type": "address"
        }
      ],
      "name": "LocalRepInit",
      "type": "event"
    },
    {
      "anonymous": false,
      "inputs": [
        {
          "indexed": false,
          "internalType": "address",
          "name": "plugin",
          "type": "address"
        },
        {
          "indexed": false,
          "internalType": "uint256",
          "name": "interactionId",
          "type": "uint256"
        }
      ],
      "name": "SetWeightsFor",
      "type": "event"
    },
    {
      "anonymous": false,
      "inputs": [
        {
          "indexed": false,
          "internalType": "address",
          "name": "targetGroup",
          "type": "address"
        }
      ],
      "name": "UpdatedKP",
      "type": "event"
    },
    {
      "inputs": [],
      "name": "DEFAULT_CAP_GROWTH",
      "outputs": [
        {
          "internalType": "uint8",
          "name": "",
          "type": "uint8"
        }
      ],
      "stateMutability": "view",
      "type": "function"
    },
    {
      "inputs": [],
      "name": "DEFAULT_K",
      "outputs": [
        {
          "internalType": "uint16",
          "name": "",
          "type": "uint16"
        }
      ],
      "stateMutability": "view",
      "type": "function"
    },
    {
      "inputs": [],
      "name": "DEFAULT_PENALTY",
      "outputs": [
        {
          "internalType": "uint8",
          "name": "",
          "type": "uint8"
        }
      ],
      "stateMutability": "view",
      "type": "function"
    },
    {
      "inputs": [],
      "name": "DEFAULT_PERIOD",
      "outputs": [
        {
          "internalType": "uint32",
          "name": "",
          "type": "uint32"
        }
      ],
      "stateMutability": "view",
      "type": "function"
    },
    {
      "inputs": [
        {
          "internalType": "address",
          "name": "nova_",
          "type": "address"
        }
      ],
      "name": "bulkPeriodicUpdate",
      "outputs": [
        {
          "internalType": "uint256[]",
          "name": "localReputationScores",
          "type": "uint256[]"
        }
      ],
      "stateMutability": "nonpayable",
      "type": "function"
    },
    {
      "inputs": [
        {
          "internalType": "uint256",
          "name": "iGC",
          "type": "uint256"
        },
        {
          "internalType": "uint256",
          "name": "iCL",
          "type": "uint256"
        },
        {
          "internalType": "uint256",
          "name": "TCL",
          "type": "uint256"
        },
        {
          "internalType": "uint256",
          "name": "TCP",
          "type": "uint256"
        },
        {
          "internalType": "uint256",
          "name": "k",
          "type": "uint256"
        },
        {
          "internalType": "uint256",
          "name": "prevScore",
          "type": "uint256"
        },
        {
          "internalType": "uint256",
          "name": "penalty",
          "type": "uint256"
        }
      ],
      "name": "calculateLocalReputation",
      "outputs": [
        {
          "internalType": "uint256",
          "name": "score",
          "type": "uint256"
        }
      ],
      "stateMutability": "pure",
      "type": "function"
    },
    {
      "inputs": [
        {
          "internalType": "address",
          "name": "nova_",
          "type": "address"
        }
      ],
      "name": "getAvReputationAndCommitment",
      "outputs": [
        {
          "internalType": "uint256",
          "name": "sumCommit",
          "type": "uint256"
        },
        {
          "internalType": "uint256",
          "name": "sumRep",
          "type": "uint256"
        }
      ],
      "stateMutability": "view",
      "type": "function"
    },
    {
      "inputs": [
        {
          "internalType": "address",
          "name": "subject_",
          "type": "address"
        },
        {
          "internalType": "address",
          "name": "nova_",
          "type": "address"
        }
      ],
      "name": "getContextID",
      "outputs": [
        {
          "internalType": "uint256",
          "name": "",
          "type": "uint256"
        }
      ],
      "stateMutability": "pure",
      "type": "function"
    },
    {
      "inputs": [
        {
          "internalType": "address",
          "name": "nova_",
          "type": "address"
        }
      ],
      "name": "getGroupState",
      "outputs": [
        {
          "components": [
            {
              "internalType": "uint64",
              "name": "lastPeriod",
              "type": "uint64"
            },
            {
              "internalType": "uint64",
              "name": "TCL",
              "type": "uint64"
            },
            {
              "internalType": "uint64",
              "name": "TCP",
              "type": "uint64"
            },
            {
              "internalType": "uint16",
              "name": "k",
              "type": "uint16"
            },
            {
              "internalType": "uint8",
              "name": "penalty",
              "type": "uint8"
            },
            {
              "internalType": "uint8",
              "name": "c",
              "type": "uint8"
            },
            {
              "internalType": "uint32",
              "name": "p",
              "type": "uint32"
            },
            {
              "internalType": "bytes32",
              "name": "commitHash",
              "type": "bytes32"
            },
            {
              "internalType": "uint256",
              "name": "lrUpdatesPerPeriod",
              "type": "uint256"
            },
            {
              "components": [
                {
                  "internalType": "int32",
                  "name": "aDiffMembersLP",
                  "type": "int32"
                },
                {
                  "internalType": "int32",
                  "name": "bMembersLastLP",
                  "type": "int32"
                },
                {
                  "internalType": "uint64",
                  "name": "cAverageRepLP",
                  "type": "uint64"
                },
                {
                  "internalType": "uint64",
                  "name": "dAverageCommitmentLP",
                  "type": "uint64"
                },
                {
                  "internalType": "uint64",
                  "name": "ePerformanceLP",
                  "type": "uint64"
                }
              ],
              "internalType": "struct periodData",
              "name": "periodNovaParameters",
              "type": "tuple"
            }
          ],
          "internalType": "struct groupState",
          "name": "",
          "type": "tuple"
        }
      ],
      "stateMutability": "view",
      "type": "function"
    },
    {
      "inputs": [
        {
          "internalType": "address",
          "name": "agent_",
          "type": "address"
        },
        {
          "internalType": "address",
          "name": "nova_",
          "type": "address"
        }
      ],
      "name": "getIndividualState",
      "outputs": [
        {
          "components": [
            {
              "internalType": "uint64",
              "name": "iCL",
              "type": "uint64"
            },
            {
              "internalType": "uint64",
              "name": "GC",
              "type": "uint64"
            },
            {
              "internalType": "uint256",
              "name": "score",
              "type": "uint256"
            },
            {
              "internalType": "uint256",
              "name": "lastUpdatedAt",
              "type": "uint256"
            }
          ],
          "internalType": "struct individualState",
          "name": "",
          "type": "tuple"
        }
      ],
      "stateMutability": "view",
      "type": "function"
    },
    {
      "inputs": [
        {
          "internalType": "address",
          "name": "subject_",
          "type": "address"
        },
        {
          "internalType": "address",
          "name": "nova_",
          "type": "address"
        }
      ],
      "name": "getLRof",
      "outputs": [
        {
          "components": [
            {
              "internalType": "uint64",
              "name": "iCL",
              "type": "uint64"
            },
            {
              "internalType": "uint64",
              "name": "GC",
              "type": "uint64"
            },
            {
              "internalType": "uint256",
              "name": "score",
              "type": "uint256"
            },
            {
              "internalType": "uint256",
              "name": "lastUpdatedAt",
              "type": "uint256"
            }
          ],
          "internalType": "struct individualState",
          "name": "",
          "type": "tuple"
        }
      ],
      "stateMutability": "view",
      "type": "function"
    },
    {
      "inputs": [
        {
          "internalType": "address",
          "name": "subject_",
          "type": "address"
        },
        {
          "internalType": "address",
          "name": "nova_",
          "type": "address"
        }
      ],
      "name": "getLocalReputationScore",
      "outputs": [
        {
          "internalType": "uint256",
          "name": "score",
          "type": "uint256"
        }
      ],
      "stateMutability": "view",
      "type": "function"
    },
    {
      "inputs": [
        {
          "internalType": "address",
          "name": "nova_",
          "type": "address"
        }
      ],
      "name": "getPeriodNovaParameters",
      "outputs": [
        {
          "components": [
            {
              "internalType": "int32",
              "name": "aDiffMembersLP",
              "type": "int32"
            },
            {
              "internalType": "int32",
              "name": "bMembersLastLP",
              "type": "int32"
            },
            {
              "internalType": "uint64",
              "name": "cAverageRepLP",
              "type": "uint64"
            },
            {
              "internalType": "uint64",
              "name": "dAverageCommitmentLP",
              "type": "uint64"
            },
            {
              "internalType": "uint64",
              "name": "ePerformanceLP",
              "type": "uint64"
            }
          ],
          "internalType": "struct periodData",
          "name": "",
          "type": "tuple"
        }
      ],
      "stateMutability": "view",
      "type": "function"
    },
    {
      "inputs": [
        {
          "internalType": "address",
          "name": "nova_",
          "type": "address"
        }
      ],
      "name": "initialize",
      "outputs": [],
      "stateMutability": "nonpayable",
      "type": "function"
    },
    {
      "inputs": [
        {
          "internalType": "bytes",
          "name": "datas_",
          "type": "bytes"
        },
        {
          "internalType": "address",
          "name": "callerAgent_",
          "type": "address"
        }
      ],
      "name": "interaction",
      "outputs": [],
      "stateMutability": "nonpayable",
      "type": "function"
    },
    {
      "inputs": [
        {
          "internalType": "address",
          "name": "plugin_",
          "type": "address"
        },
        {
          "internalType": "bytes",
          "name": "data_",
          "type": "bytes"
        }
      ],
      "name": "interactionID",
      "outputs": [
        {
          "internalType": "uint256",
          "name": "id",
          "type": "uint256"
        }
      ],
      "stateMutability": "pure",
      "type": "function"
    },
    {
      "inputs": [
        {
          "internalType": "address",
          "name": "plugin",
          "type": "address"
        }
      ],
      "name": "novaOfPlugin",
      "outputs": [
        {
          "internalType": "address",
          "name": "nova",
          "type": "address"
        }
      ],
      "stateMutability": "view",
      "type": "function"
    },
    {
      "inputs": [
        {
          "internalType": "address",
          "name": "nova_",
          "type": "address"
        }
      ],
      "name": "periodicGroupStateUpdate",
      "outputs": [
        {
          "internalType": "uint256",
          "name": "nextUpdateAt",
          "type": "uint256"
        }
      ],
      "stateMutability": "nonpayable",
      "type": "function"
    },
    {
      "inputs": [
        {
          "internalType": "uint256",
          "name": "",
          "type": "uint256"
        }
      ],
      "name": "pointsPerInteraction",
      "outputs": [
        {
          "internalType": "uint16",
          "name": "points",
          "type": "uint16"
        }
      ],
      "stateMutability": "view",
      "type": "function"
    },
    {
      "inputs": [
        {
          "internalType": "address",
          "name": "plugin_",
          "type": "address"
        },
        {
          "internalType": "bytes[]",
          "name": "datas_",
          "type": "bytes[]"
        },
        {
          "internalType": "uint16[]",
          "name": "points_",
          "type": "uint16[]"
        }
      ],
      "name": "setInteractionWeights",
      "outputs": [],
      "stateMutability": "nonpayable",
      "type": "function"
    },
    {
      "inputs": [
        {
          "internalType": "uint16",
          "name": "k",
          "type": "uint16"
        },
        {
          "internalType": "uint32",
          "name": "p",
          "type": "uint32"
        },
        {
          "internalType": "uint8",
          "name": "penalty",
          "type": "uint8"
        },
        {
          "internalType": "address",
          "name": "target_",
          "type": "address"
        }
      ],
      "name": "setKP",
      "outputs": [],
      "stateMutability": "nonpayable",
      "type": "function"
    },
    {
      "inputs": [
        {
          "internalType": "address",
          "name": "nova_",
          "type": "address"
        }
      ],
      "name": "updateCommitmentLevels",
      "outputs": [
        {
          "internalType": "uint256[]",
          "name": "commitments",
          "type": "uint256[]"
        }
      ],
      "stateMutability": "nonpayable",
      "type": "function"
    },
    {
      "inputs": [
        {
          "internalType": "address",
          "name": "who_",
          "type": "address"
        },
        {
          "internalType": "address",
          "name": "nova_",
          "type": "address"
        }
      ],
      "name": "updateIndividualLR",
      "outputs": [
        {
          "internalType": "uint256",
          "name": "",
          "type": "uint256"
        }
      ],
      "stateMutability": "nonpayable",
      "type": "function"
    }
  ],
  "bytecode": {
    "object": "0x610100604052601e608052602860a081905260c05262278d0060e05234801561002757600080fd5b5060805160a05160c05160e05161375861007d600039600081816103280152612105015260008181610411015261216f0152600081816103b2015261213d01526000818161017d01526120d101526137586000f3fe608060405234801561001057600080fd5b506004361061014d5760003560e01c80635a53f24a116100c3578063958ee3701161007c578063958ee3701461039a578063bf15e017146103ad578063c4d66de8146103e6578063df3e30f0146103f9578063e5720d9a1461040c578063f1e0fa781461043357600080fd5b80635a53f24a146102ab57806361434c96146102cf5780636e09f59c14610310578063780e78931461032357806386d94e261461035f578063897bf2b61461038757600080fd5b8063318e3d8c11610115578063318e3d8c14610230578063343bce3b1461025057806336f3354e146102705780633ad3b0411461028557806349fc23c814610298578063584f01be146101d857600080fd5b8063083ad23b146101525780630b51806d146101785780630c4378e0146101b257806319d52ebe146101c55780632da9de59146101d8575b600080fd5b610165610160366004612d88565b610453565b6040519081526020015b60405180910390f35b61019f7f000000000000000000000000000000000000000000000000000000000000000081565b60405161ffff909116815260200161016f565b6101656101c0366004612dac565b61092d565b6101656101d3366004612dac565b61094e565b6101eb6101e6366004612dac565b610978565b60405161016f919060006080820190506001600160401b0380845116835280602085015116602084015250604083015160408301526060830151606083015292915050565b61024361023e366004612d88565b610a00565b60405161016f9190612e2c565b61026361025e366004612d88565b610aa9565b60405161016f9190612e3a565b61028361027e366004612fdf565b611138565b005b6102836102933660046130c6565b611451565b6101656102a6366004613148565b611637565b61019f6102b9366004613194565b60036020526000908152604090205461ffff1681565b6102f86102dd366004612d88565b6000602081905290815260409020546001600160a01b031681565b6040516001600160a01b03909116815260200161016f565b61026361031e366004612d88565b61181b565b61034a7f000000000000000000000000000000000000000000000000000000000000000081565b60405163ffffffff909116815260200161016f565b61037261036d366004612d88565b611b7c565b6040805192835260208301919091520161016f565b6102836103953660046131ad565b611dd5565b6101656103a8366004613216565b611f8e565b6103d47f000000000000000000000000000000000000000000000000000000000000000081565b60405160ff909116815260200161016f565b6102836103f4366004612d88565b611fab565b610165610407366004612dac565b612457565b6103d47f000000000000000000000000000000000000000000000000000000000000000081565b610446610441366004612d88565b612bea565b60405161016f9190613265565b600080610460838461092d565b9050600061046d84610aa9565b5160008381526001602081815260409283902083516101408101855281546001600160401b038082168352600160401b808304821684870152600160801b8084048316858a0152600160c01b80850461ffff16606080880191909152600160d01b860460ff9081166080808a0191909152600160d81b880490911660a0808a0191909152600160e01b90970463ffffffff90811660c08a019081529b8a015460e08a015260028a01546101008a01528c519788018d526003998a0154808b0b8952600160201b8104909a0b9a88019a909a5293880485169a86019a909a52908604831698840198909852969093049092169482019490945261012084015282519151939450919261057e921661334c565b6001600160401b03169350846001600160a01b03166311aee3806040518163ffffffff1660e01b8152600401602060405180830381865afa1580156105c7573d6000803e3d6000fd5b505050506040513d601f19601f820116820180604052508101906105eb9190613373565b81610100015110610925576001600160401b034281168252600061010083015260408201511661062357670de0b6b3a764000061067b565b80604001516001600160401b03168260036000610640898a61092d565b815260208101919091526040016000205461065f919061ffff1661338c565b61067190670de0b6b3a764000061338c565b61067b91906133b9565b816101200151608001906001600160401b031690816001600160401b031681525050600081604001906001600160401b031690816001600160401b031681525050806001600085815260200190815260200160002060008201518160000160006101000a8154816001600160401b0302191690836001600160401b0316021790555060208201518160000160086101000a8154816001600160401b0302191690836001600160401b0316021790555060408201518160000160106101000a8154816001600160401b0302191690836001600160401b0316021790555060608201518160000160186101000a81548161ffff021916908361ffff160217905550608082015181600001601a6101000a81548160ff021916908360ff16021790555060a082015181600001601b6101000a81548160ff021916908360ff16021790555060c082015181600001601c6101000a81548163ffffffff021916908363ffffffff16021790555060e0820151816001015561010082015181600201556101208201518160030160008201518160000160006101000a81548163ffffffff021916908360030b63ffffffff16021790555060208201518160000160046101000a81548163ffffffff021916908360030b63ffffffff16021790555060408201518160000160086101000a8154816001600160401b0302191690836001600160401b0316021790555060608201518160000160106101000a8154816001600160401b0302191690836001600160401b0316021790555060808201518160000160186101000a8154816001600160401b0302191690836001600160401b0316021790555050509050508060c0015163ffffffff16426108f891906133cd565b6040519094507f7e91044b9074cca2ad930e24b921d5dc8550dd767398a411c3245a813067396990600090a15b505050919050565b60006109456001600160a01b038084169085166133cd565b90505b92915050565b600061095a8383610978565b604001519050806000036109485750670de0b6b3a764000092915050565b604080516080810182526000808252602082018190529181018290526060810191909152600260006109aa858561092d565b81526020808201929092526040908101600020815160808101835281546001600160401b038082168352600160401b90910416938101939093526001810154918301919091526002015460608201529392505050565b6040805160a08101825260008082526020820181905291810182905260608101829052608081019190915260016000610a39848561092d565b81526020808201929092526040908101600020815160a08101835260039182015480830b8252600160201b810490920b938101939093526001600160401b03600160401b8204811692840192909252600160801b810482166060840152600160c01b900416608082015292915050565b606060008290506000816001600160a01b03166388098e3a6040518163ffffffff1660e01b8152600401602060405180830381865afa158015610af0573d6000803e3d6000fd5b505050506040513d601f19601f82011682018060405250810190610b1491906133e0565b90506000846001600160a01b03166388098e3a6040518163ffffffff1660e01b8152600401602060405180830381865afa158015610b56573d6000803e3d6000fd5b505050506040513d601f19601f82011682018060405250810190610b7a91906133e0565b604051632ca62cd560e01b81526001600160a01b0387811660048301529190911690632ca62cd590602401600060405180830381865afa158015610bc2573d6000803e3d6000fd5b505050506040513d6000823e601f3d908101601f19168201604052610bea91908101906133fd565b90508051600003610bfd57505050919050565b604051600162965c6f60e01b031981526001600160a01b0383169063ff69a39190610c2e908490899060040161348b565b600060405180830381865afa158015610c4b573d6000803e3d6000fd5b505050506040513d6000823e601f3d908101601f19168201604052610c7391908101906134e8565b9350600084604051602001610c88919061356d565b6040516020818303038152906040528051906020012090506000610cac878861092d565b600081815260016020819052604090912001549091508203610cd2575050505050919050565b600081815260016020818152604080842081516101408101835281546001600160401b038082168352600160401b808304821684880152600160801b808404831685880152600160c01b80850461ffff16606080880191909152600160d01b860460ff9081166080808a0191909152600160d81b880490911660a0808a0191909152600160e01b90970463ffffffff1660c08901529a88015460e08801908152600289015461010089015289519687018a52600398890154808a0b8852600160201b810490990b9a87019a909a529287048416978501979097528504821690830152939092049092169381019390935261012081019290925284905290805b8851811015610e8557888181518110610dec57610dec6135a3565b602002602001015163ffffffff1660026000610e21898581518110610e1357610e136135a3565b60200260200101518e61092d565b815260200190815260200160002060000160006101000a8154816001600160401b0302191690836001600160401b03160217905550888181518110610e6857610e686135a3565b602002602001015182610e7b91906133cd565b9150600101610dd1565b6001600160401b03821660208085019190915260008581526001909152604090206003908101548751610ec392600160201b90920490910b906135b9565b61012084015160039190910b90528551610edd90836133b9565b63ffffffff16836101200151606001906001600160401b031690816001600160401b031681525050826001600086815260200190815260200160002060008201518160000160006101000a8154816001600160401b0302191690836001600160401b0316021790555060208201518160000160086101000a8154816001600160401b0302191690836001600160401b0316021790555060408201518160000160106101000a8154816001600160401b0302191690836001600160401b0316021790555060608201518160000160186101000a81548161ffff021916908361ffff160217905550608082015181600001601a6101000a81548160ff021916908360ff16021790555060a082015181600001601b6101000a81548160ff021916908360ff16021790555060c082015181600001601c6101000a81548163ffffffff021916908363ffffffff16021790555060e0820151816001015561010082015181600201556101208201518160030160008201518160000160006101000a81548163ffffffff021916908360030b63ffffffff16021790555060208201518160000160046101000a81548163ffffffff021916908360030b63ffffffff16021790555060408201518160000160086101000a8154816001600160401b0302191690836001600160401b0316021790555060608201518160000160106101000a8154816001600160401b0302191690836001600160401b0316021790555060808201518160000160186101000a8154816001600160401b0302191690836001600160401b0316021790555050509050505050505050505050919050565b6001600160a01b038381166000908152602081905260409020541661116f5760405162ce6de560e51b815260040160405180910390fd5b6001600160a01b0383811660009081526020819052604090205416806324d7806c336040516001600160e01b031960e084901b1681526001600160a01b0390911660048201526024016020604051808303816000875af11580156111d7573d6000803e3d6000fd5b505050506040513d601f19601f820116820180604052508101906111fb91906135d9565b1580156112115750336001600160a01b03851614155b1561122f57604051634755657960e01b815260040160405180910390fd5b815183511461125157604051632d2dc95960e11b815260040160405180910390fd5b6000805b84518110156114065761128186868381518110611274576112746135a3565b6020026020010151611f8e565b91506103e8848281518110611298576112986135a3565b602002602001015161ffff1611156112c357604051632ebc594b60e21b815260040160405180910390fd5b8381815181106112d5576112d56135a3565b602090810291909101810151600084815260039092526040909120805461ffff191661ffff90921691821790551580159061132d575083818151811061131d5761131d6135a3565b602002602001015161ffff166000145b61139d57838181518110611343576113436135a3565b602002602001015160036000611359868761092d565b815260208101919091526040016000908120805490919061137f90849061ffff166135fb565b92506101000a81548161ffff021916908361ffff16021790556113fd565b600082815260036020819052604082205461ffff16916113bd868061092d565b81526020810191909152604001600090812080549091906113e390849061ffff16613616565b92506101000a81548161ffff021916908361ffff16021790555b50600101611255565b604080516001600160a01b0388168152602081018490527f49fdc5467ab6dc1a447e46542dd52bfb2c337f7cf111a0aa45f01e64802320bc91015b60405180910390a1505050505050565b336000908152602081905260409020546001600160a01b031661148757604051636bd1573560e11b815260040160405180910390fd5b60006114c93385858080601f016020809104026020016040519081016040528093929190818152602001838380828437600092019190915250611f8e92505050565b60008181526003602052604090205490915061ffff166002849003611505576114f6600260008688613631565b6114ff9161365b565b60f01c90505b80600003611514575050505050565b336000908152602081905260408120546001600160a01b031690829060029061153d878561092d565b81526020810191909152604001600020805460089061156d908490600160401b90046001600160401b031661334c565b92506101000a8154816001600160401b0302191690836001600160401b0316021790555081600160006115a0848561092d565b8152602081019190915260400160002080546010906115d0908490600160801b90046001600160401b031661334c565b92506101000a8154816001600160401b0302191690836001600160401b031602179055507fad3057a9cc4c01edafc716a0859a1eb89efe668102492ef7d75c1578f799739483856040516114419291909182526001600160a01b0316602082015260400190565b600061271084111561165c576040516367a546c560e01b815260040160405180910390fd5b8715801561166a5750600083115b1561169f57606461167b838561338c565b61168591906133b9565b61168f9084613689565b6001600160401b03169050611810565b6000866116b489670de0b6b3a764000061338c565b6116be91906133b9565b905060006116cc878361338c565b905080156116da57806116dd565b60015b905084156116eb57846116f5565b670de0b6b3a76400005b94508486611704816064613689565b836117178e670de0b6b3a764000061338c565b61172191906133b9565b61172b919061338c565b61173591906133cd565b61173f919061338c565b6001600160401b0316925061175c670de0b6b3a7640000846133b9565b156117715761176c6064846133b9565b611798565b61178383670de0b6b3a76400006133b9565b61178e90600a61338c565b611798908461338c565b9250678ac7230489e800008311156117b657678ac7230489e8000092505b826117c26064876133b9565b6117cd90602861338c565b6117d790876133cd565b1080156117e5575084600114155b1561180d576117f56064866133b9565b61180090602861338c565b61180a90866133cd565b92505b50505b979650505050505050565b60606000611829838461092d565b60008181526001602081815260409283902083516101408101855281546001600160401b038082168352600160401b808304821684870152600160801b8084048316858a0152600160c01b80850461ffff16606080880191909152600160d01b860460ff9081166080808a0191909152600160d81b880490911660a0808a0191909152600160e01b90970463ffffffff90811660c08a019081529b8a015460e08a015260028a01546101008a01528c519788018d526003998a0154808b0b8952600160201b8104909a0b9a88019a909a5293880485169a86019a909a529086048316988401989098529690930490921694820194909452610120840152905182519394509192429261193c92169061334c565b6001600160401b03161115611964576040516313a67ce960e31b815260040160405180910390fd5b61196d84610453565b506000846001600160a01b03166388098e3a6040518163ffffffff1660e01b8152600401602060405180830381865afa1580156119ae573d6000803e3d6000fd5b505050506040513d601f19601f820116820180604052508101906119d291906133e0565b604051632ca62cd560e01b81526001600160a01b0387811660048301529190911690632ca62cd590602401600060405180830381865afa158015611a1a573d6000803e3d6000fd5b505050506040513d6000823e601f3d908101601f19168201604052611a4291908101906133fd565b905080516001600160401b03811115611a5d57611a5d612e7e565b604051908082528060200260200182016040528015611a86578160200160208202803683370190505b5093506000805b8251811015611b0657611ab9838281518110611aab57611aab6135a3565b602002602001015188612457565b868281518110611acb57611acb6135a3565b602002602001018181525050858181518110611ae957611ae96135a3565b602002602001015182611afc91906133cd565b9150600101611a8d565b8251611b1290836133b9565b6000958652600160205260409095206003018054935163ffffffff16600160201b0267ffffffff00000000196001600160401b03909716600160401b02969096166fffffffffffffffffffffffff0000000019909416939093179490941790915550919392505050565b6000806000836001600160a01b03166388098e3a6040518163ffffffff1660e01b8152600401602060405180830381865afa158015611bbf573d6000803e3d6000fd5b505050506040513d601f19601f82011682018060405250810190611be391906133e0565b604051632ca62cd560e01b81526001600160a01b0386811660048301529190911690632ca62cd590602401600060405180830381865afa158015611c2b573d6000803e3d6000fd5b505050506040513d6000823e601f3d908101601f19168201604052611c5391908101906133fd565b9050600080856001600160a01b03166388098e3a6040518163ffffffff1660e01b8152600401602060405180830381865afa158015611c96573d6000803e3d6000fd5b505050506040513d601f19601f82011682018060405250810190611cba91906133e0565b6001600160a01b031663ff69a39184886040518363ffffffff1660e01b8152600401611ce792919061348b565b600060405180830381865afa158015611d04573d6000803e3d6000fd5b505050506040513d6000823e601f3d908101601f19168201604052611d2c91908101906134e8565b90505b8251821015611db05760026000611d5f858581518110611d5157611d516135a3565b60200260200101518961092d565b81526020019081526020016000206001015484611d7c91906133cd565b9350808281518110611d9057611d906135a3565b602002602001015185611da391906133cd565b9450816001019150611d2f565b8251611dbc90866133b9565b9450825184611dcb91906133b9565b9350505050915091565b6001600160a01b0381166324d7806c336040516001600160e01b031960e084901b1681526001600160a01b0390911660048201526024016020604051808303816000875af1158015611e2b573d6000803e3d6000fd5b505050506040513d601f19601f82011682018060405250810190611e4f91906135d9565b611e6c57604051634755657960e01b815260040160405180910390fd5b611e7a8361ffff861661369c565b63ffffffff16600003611ea05760405163d03c275960e01b815260040160405180910390fd5b6000611ead6064846136bc565b60ff16611ebb6064876136de565b611ec591906135fb565b61ffff161115611ee857604051636a5d5bd160e01b815260040160405180910390fd5b6000611ef4828361092d565b6000818152600160209081526040918290208054600163ffff000160c01b0316600160c01b61ffff8b16026001600160e01b031617600160e01b63ffffffff8a16021760ff60d01b1916600160d01b60ff89160217905590516001600160a01b03851681529192507f2757fd3a49f344ee8595ec8cab6ee31b3cb632af95399f8a5864af9cdce6ffe3910160405180910390a15050505050565b80516020820120600090610945906001600160a01b0385166133cd565b6000611fb7338361092d565b9050611fc3828361092d565b60008181526001602081815260409283902083516101408101855281546001600160401b038082168352600160401b808304821684870152600160801b8084048316858a0152600160c01b80850461ffff16606080880191909152600160d01b860460ff9081166080808a0191909152600160d81b880490911660a0808a0191909152600160e01b90970463ffffffff1660c08901529988015460e088015260028801546101008801528a519586018b5260039788015480890b8752600160201b810490980b988601989098529186048316988401989098529684048116948201949094529490910482169284019290925261012082019290925280519293509116156120cf57505050565b7f0000000000000000000000000000000000000000000000000000000000000000816060019061ffff16908161ffff16815250507f00000000000000000000000000000000000000000000000000000000000000008160c0019063ffffffff16908163ffffffff16815250507f0000000000000000000000000000000000000000000000000000000000000000816080019060ff16908160ff16815250507f00000000000000000000000000000000000000000000000000000000000000008160a0019060ff16908160ff16815250504281600001906001600160401b031690816001600160401b031681525050806001600084815260200190815260200160002060008201518160000160006101000a8154816001600160401b0302191690836001600160401b0316021790555060208201518160000160086101000a8154816001600160401b0302191690836001600160401b0316021790555060408201518160000160106101000a8154816001600160401b0302191690836001600160401b0316021790555060608201518160000160186101000a81548161ffff021916908361ffff160217905550608082015181600001601a6101000a81548160ff021916908360ff16021790555060a082015181600001601b6101000a81548160ff021916908360ff16021790555060c082015181600001601c6101000a81548163ffffffff021916908363ffffffff16021790555060e0820151816001015561010082015181600201556101208201518160030160008201518160000160006101000a81548163ffffffff021916908360030b63ffffffff16021790555060208201518160000160046101000a81548163ffffffff021916908360030b63ffffffff16021790555060408201518160000160086101000a8154816001600160401b0302191690836001600160401b0316021790555060608201518160000160106101000a8154816001600160401b0302191690836001600160401b0316021790555060808201518160000160186101000a8154816001600160401b0302191690836001600160401b0316021790555050509050506123ec83610aa9565b50336000818152602081815260409182902080546001600160a01b0319166001600160a01b03881690811790915582519081529081019290925280517f90c9297b9014ed03bb767606f04c4c65cd5d16b18731e60860d3e41c49af2e4a9281900390910190a1505050565b60006001600160a01b0382166324d7806c336040516001600160e01b031960e084901b1681526001600160a01b0390911660048201526024016020604051808303816000875af11580156124af573d6000803e3d6000fd5b505050506040513d601f19601f820116820180604052508101906124d391906135d9565b6124f057604051636bd1573560e11b815260040160405180910390fd5b60006124fc848461092d565b9050600061250a848561092d565b90506000600260008481526020019081526020016000206040518060800160405290816000820160009054906101000a90046001600160401b03166001600160401b03166001600160401b031681526020016000820160089054906101000a90046001600160401b03166001600160401b03166001600160401b03168152602001600182015481526020016002820154815250509050600060016000848152602001908152602001600020604051806101400160405290816000820160009054906101000a90046001600160401b03166001600160401b03166001600160401b031681526020016000820160089054906101000a90046001600160401b03166001600160401b03166001600160401b031681526020016000820160109054906101000a90046001600160401b03166001600160401b03166001600160401b031681526020016000820160189054906101000a900461ffff1661ffff1661ffff16815260200160008201601a9054906101000a900460ff1660ff1660ff16815260200160008201601b9054906101000a900460ff1660ff1660ff16815260200160008201601c9054906101000a900463ffffffff1663ffffffff1663ffffffff1681526020016001820154815260200160028201548152602001600382016040518060a00160405290816000820160009054906101000a900460030b60030b60030b81526020016000820160049054906101000a900460030b60030b60030b81526020016000820160089054906101000a90046001600160401b03166001600160401b03166001600160401b031681526020016000820160109054906101000a90046001600160401b03166001600160401b03166001600160401b031681526020016000820160189054906101000a90046001600160401b03166001600160401b03166001600160401b03168152505081525050905080600001516001600160401b0316826060015111156127e75750604001519250610948915050565b6001600160401b0342166060830152604082015160000361280a57600160408301525b8160400151816060015161ffff168260400151836020015161282c91906136ff565b61283691906136ff565b6001600160401b0316612849919061338c565b600003612869576040516318dc243b60e31b815260040160405180910390fd5b6001816101000181815161287d91906133cd565b91508181525050806001600085815260200190815260200160002060008201518160000160006101000a8154816001600160401b0302191690836001600160401b0316021790555060208201518160000160086101000a8154816001600160401b0302191690836001600160401b0316021790555060408201518160000160106101000a8154816001600160401b0302191690836001600160401b0316021790555060608201518160000160186101000a81548161ffff021916908361ffff160217905550608082015181600001601a6101000a81548160ff021916908360ff16021790555060a082015181600001601b6101000a81548160ff021916908360ff16021790555060c082015181600001601c6101000a81548163ffffffff021916908363ffffffff16021790555060e0820151816001015561010082015181600201556101208201518160030160008201518160000160006101000a81548163ffffffff021916908360030b63ffffffff16021790555060208201518160000160046101000a81548163ffffffff021916908360030b63ffffffff16021790555060408201518160000160086101000a8154816001600160401b0302191690836001600160401b0316021790555060608201518160000160106101000a8154816001600160401b0302191690836001600160401b0316021790555060808201518160000160186101000a8154816001600160401b0302191690836001600160401b031602179055505050905050856001600160a01b03166311aee3806040518163ffffffff1660e01b8152600401602060405180830381865afa158015612ae8573d6000803e3d6000fd5b505050506040513d601f19601f82011682018060405250810190612b0c9190613373565b81610100015110612b2257612b2086610453565b505b612b7882602001516001600160401b031683600001516001600160401b031683602001516001600160401b031684604001516001600160401b0316856060015161ffff168760400151876080015160ff16611637565b6040808401918252600060208086018281529782526002908190529190208451815497516001600160401b03908116600160401b026fffffffffffffffffffffffffffffffff199099169116179690961786559051600186018190556060909301519401939093559250505092915050565b612c626040805161014081018252600080825260208083018290528284018290526060808401839052608080850184905260a080860185905260c0860185905260e086018590526101008601859052865190810187528481529283018490529482018390528101829052928301529061012082015290565b60016000612c70848561092d565b8152602080820192909252604090810160002081516101408101835281546001600160401b038082168352600160401b808304821684880152600160801b808404831685880152600160c01b80850461ffff16606080880191909152600160d01b860460ff9081166080808a0191909152600160d81b880490911660a0808a0191909152600160e01b90970463ffffffff1660c0890152600189015460e0890152600289015461010089015289519687018a52600398890154808a0b8852600160201b810490990b9a87019a909a529287048416978501979097528504821690830152939092049092169281019290925261012081019190915292915050565b6001600160a01b0381168114612d8557600080fd5b50565b600060208284031215612d9a57600080fd5b8135612da581612d70565b9392505050565b60008060408385031215612dbf57600080fd5b8235612dca81612d70565b91506020830135612dda81612d70565b809150509250929050565b805160030b8252602081015160030b602083015260408101516001600160401b03808216604085015280606084015116606085015280608084015116608085015250505050565b60a081016109488284612de5565b6020808252825182820181905260009190848201906040850190845b81811015612e7257835183529284019291840191600101612e56565b50909695505050505050565b634e487b7160e01b600052604160045260246000fd5b604051601f8201601f191681016001600160401b0381118282101715612ebc57612ebc612e7e565b604052919050565b60006001600160401b03821115612edd57612edd612e7e565b5060051b60200190565b600082601f830112612ef857600080fd5b81356001600160401b03811115612f1157612f11612e7e565b612f24601f8201601f1916602001612e94565b818152846020838601011115612f3957600080fd5b816020850160208301376000918101602001919091529392505050565b803561ffff81168114612f6857600080fd5b919050565b600082601f830112612f7e57600080fd5b81356020612f93612f8e83612ec4565b612e94565b82815260059290921b84018101918181019086841115612fb257600080fd5b8286015b84811015612fd457612fc781612f56565b8352918301918301612fb6565b509695505050505050565b600080600060608486031215612ff457600080fd5b8335612fff81612d70565b92506020848101356001600160401b038082111561301c57600080fd5b818701915087601f83011261303057600080fd5b813561303e612f8e82612ec4565b81815260059190911b8301840190848101908a83111561305d57600080fd5b8585015b83811015613095578035858111156130795760008081fd5b6130878d89838a0101612ee7565b845250918601918601613061565b509650505060408701359250808311156130ae57600080fd5b50506130bc86828701612f6d565b9150509250925092565b6000806000604084860312156130db57600080fd5b83356001600160401b03808211156130f257600080fd5b818601915086601f83011261310657600080fd5b81358181111561311557600080fd5b87602082850101111561312757600080fd5b6020928301955093505084013561313d81612d70565b809150509250925092565b600080600080600080600060e0888a03121561316357600080fd5b505085359760208701359750604087013596606081013596506080810135955060a0810135945060c0013592509050565b6000602082840312156131a657600080fd5b5035919050565b600080600080608085870312156131c357600080fd5b6131cc85612f56565b9350602085013563ffffffff811681146131e557600080fd5b9250604085013560ff811681146131fb57600080fd5b9150606085013561320b81612d70565b939692955090935050565b6000806040838503121561322957600080fd5b823561323481612d70565b915060208301356001600160401b0381111561324f57600080fd5b61325b85828601612ee7565b9150509250929050565b81516001600160401b031681526101c08101602083015161329160208401826001600160401b03169052565b5060408301516132ac60408401826001600160401b03169052565b5060608301516132c2606084018261ffff169052565b5060808301516132d7608084018260ff169052565b5060a08301516132ec60a084018260ff169052565b5060c083015161330460c084018263ffffffff169052565b5060e083015160e08301526101008084015181840152506101208084015161332e82850182612de5565b505092915050565b634e487b7160e01b600052601160045260246000fd5b6001600160401b0381811683821601908082111561336c5761336c613336565b5092915050565b60006020828403121561338557600080fd5b5051919050565b808202811582820484141761094857610948613336565b634e487b7160e01b600052601260045260246000fd5b6000826133c8576133c86133a3565b500490565b8082018082111561094857610948613336565b6000602082840312156133f257600080fd5b8151612da581612d70565b6000602080838503121561341057600080fd5b82516001600160401b0381111561342657600080fd5b8301601f8101851361343757600080fd5b8051613445612f8e82612ec4565b81815260059190911b8201830190838101908783111561346457600080fd5b928401925b8284101561181057835161347c81612d70565b82529284019290840190613469565b604080825283519082018190526000906020906060840190828701845b828110156134cd5781516001600160a01b0316845292840192908401906001016134a8565b5050506001600160a01b039490941692019190915250919050565b600060208083850312156134fb57600080fd5b82516001600160401b0381111561351157600080fd5b8301601f8101851361352257600080fd5b8051613530612f8e82612ec4565b81815260059190911b8201830190838101908783111561354f57600080fd5b928401925b8284101561181057835182529284019290840190613554565b815160009082906020808601845b838110156135975781518552938201939082019060010161357b565b50929695505050505050565b634e487b7160e01b600052603260045260246000fd5b818103600083128015838313168383128216171561336c5761336c613336565b6000602082840312156135eb57600080fd5b81518015158114612da557600080fd5b61ffff81811683821601908082111561336c5761336c613336565b61ffff82811682821603908082111561336c5761336c613336565b6000808585111561364157600080fd5b8386111561364e57600080fd5b5050820193919092039150565b6001600160f01b0319813581811691600285101561332e5760029490940360031b84901b1690921692915050565b8181038181111561094857610948613336565b63ffffffff81811683821602808216919082811461332e5761332e613336565b600060ff8316806136cf576136cf6133a3565b8060ff84160491505092915050565b600061ffff808416806136f3576136f36133a3565b92169190910492915050565b6001600160401b0381811683821602808216919082811461332e5761332e61333656fea2646970667358221220b70229e55a83e32f8781e82715bf9cff63af982271d08328b7bf8f49f5e895a864736f6c63430008130033",
    "linkReferences": {}
  },
  "methodIdentifiers": {
    "DEFAULT_CAP_GROWTH()": "e5720d9a",
    "DEFAULT_K()": "0b51806d",
    "DEFAULT_PENALTY()": "bf15e017",
    "DEFAULT_PERIOD()": "780e7893",
    "bulkPeriodicUpdate(address)": "6e09f59c",
    "calculateLocalReputation(uint256,uint256,uint256,uint256,uint256,uint256,uint256)": "49fc23c8",
    "getAvReputationAndCommitment(address)": "86d94e26",
    "getContextID(address,address)": "0c4378e0",
    "getGroupState(address)": "f1e0fa78",
    "getIndividualState(address,address)": "584f01be",
    "getLRof(address,address)": "2da9de59",
    "getLocalReputationScore(address,address)": "19d52ebe",
    "getPeriodNovaParameters(address)": "318e3d8c",
    "initialize(address)": "c4d66de8",
    "interaction(bytes,address)": "3ad3b041",
    "interactionID(address,bytes)": "958ee370",
    "novaOfPlugin(address)": "61434c96",
    "periodicGroupStateUpdate(address)": "083ad23b",
    "pointsPerInteraction(uint256)": "5a53f24a",
    "setInteractionWeights(address,bytes[],uint16[])": "36f3354e",
    "setKP(uint16,uint32,uint8,address)": "897bf2b6",
    "updateCommitmentLevels(address)": "343bce3b",
    "updateIndividualLR(address,address)": "df3e30f0"
  },
  "id": 4
}