{
  "abi": [
    {
      "inputs": [],
      "name": "ArgLenMismatch",
      "type": "error"
    },
    {
      "inputs": [],
      "name": "MaxK",
      "type": "error"
    },
    {
      "inputs": [],
      "name": "OnlyAdmin",
      "type": "error"
    },
    {
      "inputs": [],
      "name": "OnlyOnce",
      "type": "error"
    },
    {
      "inputs": [],
      "name": "Over100",
      "type": "error"
    },
    {
      "inputs": [],
      "name": "PeriodUnelapsed",
      "type": "error"
    },
    {
      "inputs": [],
      "name": "Unauthorised",
      "type": "error"
    },
    {
      "inputs": [],
      "name": "Uninitialized",
      "type": "error"
    },
    {
      "inputs": [],
      "name": "UninitializedPair",
      "type": "error"
    },
    {
      "inputs": [],
      "name": "ZeroUnallawed",
      "type": "error"
    },
    {
      "inputs": [],
      "name": "ZeroUnallowed",
      "type": "error"
    },
    {
      "inputs": [],
      "name": "k1MaxPointPerInteraction",
      "type": "error"
    },
    {
      "anonymous": false,
      "inputs": [],
      "name": "EndOfPeriod",
      "type": "event"
    },
    {
      "anonymous": false,
      "inputs": [
        {
          "indexed": false,
          "internalType": "uint256",
          "name": "InteractionID",
          "type": "uint256"
        },
        {
          "indexed": false,
          "internalType": "address",
          "name": "agent",
          "type": "address"
        }
      ],
      "name": "Interaction",
      "type": "event"
    },
    {
      "anonymous": false,
      "inputs": [
        {
          "indexed": false,
          "internalType": "address",
          "name": "Nova",
          "type": "address"
        },
        {
          "indexed": false,
          "internalType": "address",
          "name": "PluginAddr",
          "type": "address"
        }
      ],
      "name": "LocalRepInit",
      "type": "event"
    },
    {
      "anonymous": false,
      "inputs": [
        {
          "indexed": false,
          "internalType": "address",
          "name": "plugin",
          "type": "address"
        },
        {
          "indexed": false,
          "internalType": "uint256",
          "name": "interactionId",
          "type": "uint256"
        }
      ],
      "name": "SetWeightsFor",
      "type": "event"
    },
    {
      "anonymous": false,
      "inputs": [
        {
          "indexed": false,
          "internalType": "address",
          "name": "targetGroup",
          "type": "address"
        }
      ],
      "name": "UpdatedKP",
      "type": "event"
    },
    {
      "inputs": [],
      "name": "DEFAULT_CAP_GROWTH",
      "outputs": [
        {
          "internalType": "uint8",
          "name": "",
          "type": "uint8"
        }
      ],
      "stateMutability": "view",
      "type": "function"
    },
    {
      "inputs": [],
      "name": "DEFAULT_K",
      "outputs": [
        {
          "internalType": "uint16",
          "name": "",
          "type": "uint16"
        }
      ],
      "stateMutability": "view",
      "type": "function"
    },
    {
      "inputs": [],
      "name": "DEFAULT_PENALTY",
      "outputs": [
        {
          "internalType": "uint8",
          "name": "",
          "type": "uint8"
        }
      ],
      "stateMutability": "view",
      "type": "function"
    },
    {
      "inputs": [],
      "name": "DEFAULT_PERIOD",
      "outputs": [
        {
          "internalType": "uint32",
          "name": "",
          "type": "uint32"
        }
      ],
      "stateMutability": "view",
      "type": "function"
    },
    {
      "inputs": [
        {
          "internalType": "address",
          "name": "group_",
          "type": "address"
        }
      ],
      "name": "bulkPeriodicUpdate",
      "outputs": [
        {
          "internalType": "uint256[]",
          "name": "localReputationScores",
          "type": "uint256[]"
        }
      ],
      "stateMutability": "nonpayable",
      "type": "function"
    },
    {
      "inputs": [
        {
          "internalType": "uint256",
          "name": "iGC",
          "type": "uint256"
        },
        {
          "internalType": "uint256",
          "name": "iCL",
          "type": "uint256"
        },
        {
          "internalType": "uint256",
          "name": "TCL",
          "type": "uint256"
        },
        {
          "internalType": "uint256",
          "name": "TCP",
          "type": "uint256"
        },
        {
          "internalType": "uint256",
          "name": "k",
          "type": "uint256"
        },
        {
          "internalType": "uint256",
          "name": "prevScore",
          "type": "uint256"
        },
        {
          "internalType": "uint256",
          "name": "penalty",
          "type": "uint256"
        }
      ],
      "name": "calculateLocalReputation",
      "outputs": [
        {
          "internalType": "uint256",
          "name": "score",
          "type": "uint256"
        }
      ],
      "stateMutability": "pure",
      "type": "function"
    },
    {
      "inputs": [
        {
          "internalType": "address",
          "name": "plugin",
          "type": "address"
        }
      ],
      "name": "daoOfPlugin",
      "outputs": [
        {
          "internalType": "address",
          "name": "dao",
          "type": "address"
        }
      ],
      "stateMutability": "view",
      "type": "function"
    },
    {
      "inputs": [
        {
          "internalType": "address",
          "name": "nova_",
          "type": "address"
        }
      ],
      "name": "getAvReputationAndCommitment",
      "outputs": [
        {
          "internalType": "uint256",
          "name": "sumCommit",
          "type": "uint256"
        },
        {
          "internalType": "uint256",
          "name": "sumRep",
          "type": "uint256"
        }
      ],
      "stateMutability": "view",
      "type": "function"
    },
    {
      "inputs": [
        {
          "internalType": "address",
          "name": "subject_",
          "type": "address"
        },
        {
          "internalType": "address",
          "name": "group_",
          "type": "address"
        }
      ],
      "name": "getContextID",
      "outputs": [
        {
          "internalType": "uint256",
          "name": "",
          "type": "uint256"
        }
      ],
      "stateMutability": "pure",
      "type": "function"
    },
    {
      "inputs": [
        {
          "internalType": "address",
          "name": "nova_",
          "type": "address"
        }
      ],
      "name": "getGroupState",
      "outputs": [
        {
          "components": [
            {
              "internalType": "uint64",
              "name": "lastPeriod",
              "type": "uint64"
            },
            {
              "internalType": "uint64",
              "name": "TCL",
              "type": "uint64"
            },
            {
              "internalType": "uint64",
              "name": "TCP",
              "type": "uint64"
            },
            {
              "internalType": "uint16",
              "name": "k",
              "type": "uint16"
            },
            {
              "internalType": "uint8",
              "name": "penalty",
              "type": "uint8"
            },
            {
              "internalType": "uint8",
              "name": "c",
              "type": "uint8"
            },
            {
              "internalType": "uint32",
              "name": "p",
              "type": "uint32"
            },
            {
              "internalType": "bytes32",
              "name": "commitHash",
              "type": "bytes32"
            },
            {
              "internalType": "uint256",
              "name": "lrUpdatesPerPeriod",
              "type": "uint256"
            },
            {
              "components": [
                {
                  "internalType": "int32",
                  "name": "aDiffMembersLP",
                  "type": "int32"
                },
                {
                  "internalType": "int32",
                  "name": "bMembersLastLP",
                  "type": "int32"
                },
                {
                  "internalType": "uint64",
                  "name": "cAverageRepLP",
                  "type": "uint64"
                },
                {
                  "internalType": "uint64",
                  "name": "dAverageCommitmentLP",
                  "type": "uint64"
                },
                {
                  "internalType": "uint64",
                  "name": "ePerformanceLP",
                  "type": "uint64"
                }
              ],
              "internalType": "struct periodData",
              "name": "periodNovaParameters",
              "type": "tuple"
            }
          ],
          "internalType": "struct groupState",
          "name": "",
          "type": "tuple"
        }
      ],
      "stateMutability": "view",
      "type": "function"
    },
    {
      "inputs": [
        {
          "internalType": "address",
          "name": "agent_",
          "type": "address"
        },
        {
          "internalType": "address",
          "name": "nova_",
          "type": "address"
        }
      ],
      "name": "getIndividualState",
      "outputs": [
        {
          "components": [
            {
              "internalType": "uint64",
              "name": "iCL",
              "type": "uint64"
            },
            {
              "internalType": "uint64",
              "name": "GC",
              "type": "uint64"
            },
            {
              "internalType": "uint256",
              "name": "score",
              "type": "uint256"
            },
            {
              "internalType": "uint256",
              "name": "lastUpdatedAt",
              "type": "uint256"
            }
          ],
          "internalType": "struct individualState",
          "name": "",
          "type": "tuple"
        }
      ],
      "stateMutability": "view",
      "type": "function"
    },
    {
      "inputs": [
        {
          "internalType": "address",
          "name": "subject_",
          "type": "address"
        },
        {
          "internalType": "address",
          "name": "group_",
          "type": "address"
        }
      ],
      "name": "getLRof",
      "outputs": [
        {
          "components": [
            {
              "internalType": "uint64",
              "name": "iCL",
              "type": "uint64"
            },
            {
              "internalType": "uint64",
              "name": "GC",
              "type": "uint64"
            },
            {
              "internalType": "uint256",
              "name": "score",
              "type": "uint256"
            },
            {
              "internalType": "uint256",
              "name": "lastUpdatedAt",
              "type": "uint256"
            }
          ],
          "internalType": "struct individualState",
          "name": "",
          "type": "tuple"
        }
      ],
      "stateMutability": "view",
      "type": "function"
    },
    {
      "inputs": [
        {
          "internalType": "address",
          "name": "subject_",
          "type": "address"
        },
        {
          "internalType": "address",
          "name": "group_",
          "type": "address"
        }
      ],
      "name": "getLocalReputationScore",
      "outputs": [
        {
          "internalType": "uint256",
          "name": "score",
          "type": "uint256"
        }
      ],
      "stateMutability": "view",
      "type": "function"
    },
    {
      "inputs": [
        {
          "internalType": "address",
          "name": "nova_",
          "type": "address"
        }
      ],
      "name": "getPeriodNovaParameters",
      "outputs": [
        {
          "components": [
            {
              "internalType": "int32",
              "name": "aDiffMembersLP",
              "type": "int32"
            },
            {
              "internalType": "int32",
              "name": "bMembersLastLP",
              "type": "int32"
            },
            {
              "internalType": "uint64",
              "name": "cAverageRepLP",
              "type": "uint64"
            },
            {
              "internalType": "uint64",
              "name": "dAverageCommitmentLP",
              "type": "uint64"
            },
            {
              "internalType": "uint64",
              "name": "ePerformanceLP",
              "type": "uint64"
            }
          ],
          "internalType": "struct periodData",
          "name": "",
          "type": "tuple"
        }
      ],
      "stateMutability": "view",
      "type": "function"
    },
    {
      "inputs": [
        {
          "internalType": "address",
          "name": "nova_",
          "type": "address"
        }
      ],
      "name": "initialize",
      "outputs": [],
      "stateMutability": "nonpayable",
      "type": "function"
    },
    {
      "inputs": [
        {
          "internalType": "bytes",
          "name": "datas_",
          "type": "bytes"
        },
        {
          "internalType": "address",
          "name": "callerAgent_",
          "type": "address"
        }
      ],
      "name": "interaction",
      "outputs": [],
      "stateMutability": "nonpayable",
      "type": "function"
    },
    {
      "inputs": [
        {
          "internalType": "address",
          "name": "plugin_",
          "type": "address"
        },
        {
          "internalType": "bytes",
          "name": "data_",
          "type": "bytes"
        }
      ],
      "name": "interactionID",
      "outputs": [
        {
          "internalType": "uint256",
          "name": "id",
          "type": "uint256"
        }
      ],
      "stateMutability": "pure",
      "type": "function"
    },
    {
      "inputs": [
        {
          "internalType": "address",
          "name": "group_",
          "type": "address"
        }
      ],
      "name": "periodicGroupStateUpdate",
      "outputs": [
        {
          "internalType": "uint256",
          "name": "nextUpdateAt",
          "type": "uint256"
        }
      ],
      "stateMutability": "nonpayable",
      "type": "function"
    },
    {
      "inputs": [
        {
          "internalType": "uint256",
          "name": "",
          "type": "uint256"
        }
      ],
      "name": "pointsPerInteraction",
      "outputs": [
        {
          "internalType": "uint16",
          "name": "points",
          "type": "uint16"
        }
      ],
      "stateMutability": "view",
      "type": "function"
    },
    {
      "inputs": [
        {
          "internalType": "address",
          "name": "plugin_",
          "type": "address"
        },
        {
          "internalType": "bytes[]",
          "name": "datas_",
          "type": "bytes[]"
        },
        {
          "internalType": "uint16[]",
          "name": "points_",
          "type": "uint16[]"
        }
      ],
      "name": "setInteractionWeights",
      "outputs": [],
      "stateMutability": "nonpayable",
      "type": "function"
    },
    {
      "inputs": [
        {
          "internalType": "uint16",
          "name": "k",
          "type": "uint16"
        },
        {
          "internalType": "uint32",
          "name": "p",
          "type": "uint32"
        },
        {
          "internalType": "uint8",
          "name": "penalty",
          "type": "uint8"
        },
        {
          "internalType": "address",
          "name": "target_",
          "type": "address"
        }
      ],
      "name": "setKP",
      "outputs": [],
      "stateMutability": "nonpayable",
      "type": "function"
    },
    {
      "inputs": [
        {
          "internalType": "address",
          "name": "nova_",
          "type": "address"
        }
      ],
      "name": "updateCommitmentLevels",
      "outputs": [
        {
          "internalType": "uint256[]",
          "name": "commitments",
          "type": "uint256[]"
        }
      ],
      "stateMutability": "nonpayable",
      "type": "function"
    },
    {
      "inputs": [
        {
          "internalType": "address",
          "name": "who_",
          "type": "address"
        },
        {
          "internalType": "address",
          "name": "group_",
          "type": "address"
        }
      ],
      "name": "updateIndividualLR",
      "outputs": [
        {
          "internalType": "uint256",
          "name": "",
          "type": "uint256"
        }
      ],
      "stateMutability": "nonpayable",
      "type": "function"
    }
  ],
  "bytecode": {
    "object": "0x610100604052601e608052602860a081905260c05262278d0060e05234801561002757600080fd5b5060805160a05160c05160e0516137a761007d600039600081816102e701526121200152600081816103d0015261218a015260008181610371015261215801526000818161017d01526120ec01526137a76000f3fe608060405234801561001057600080fd5b506004361061014d5760003560e01c80635a53f24a116100c3578063bf15e0171161007c578063bf15e0171461036c578063c4d66de8146103a5578063df3e30f0146103b8578063e5720d9a146103cb578063f1e0fa78146103f2578063fa31c78b1461041257600080fd5b80635a53f24a146102ab5780636e09f59c146102cf578063780e7893146102e257806386d94e261461031e578063897bf2b614610346578063958ee3701461035957600080fd5b8063318e3d8c11610115578063318e3d8c14610230578063343bce3b1461025057806336f3354e146102705780633ad3b0411461028557806349fc23c814610298578063584f01be146101d857600080fd5b8063083ad23b146101525780630b51806d146101785780630c4378e0146101b257806319d52ebe146101c55780632da9de59146101d8575b600080fd5b610165610160366004612da3565b610453565b6040519081526020015b60405180910390f35b61019f7f000000000000000000000000000000000000000000000000000000000000000081565b60405161ffff909116815260200161016f565b6101656101c0366004612dc7565b61092d565b6101656101d3366004612dc7565b61094e565b6101eb6101e6366004612dc7565b610978565b60405161016f919060006080820190506001600160401b0380845116835280602085015116602084015250604083015160408301526060830151606083015292915050565b61024361023e366004612da3565b610a00565b60405161016f9190612e47565b61026361025e366004612da3565b610aa9565b60405161016f9190612e55565b61028361027e366004612ffa565b611138565b005b6102836102933660046130e1565b611451565b6101656102a6366004613163565b611637565b61019f6102b93660046131af565b60036020526000908152604090205461ffff1681565b6102636102dd366004612da3565b61181b565b6103097f000000000000000000000000000000000000000000000000000000000000000081565b60405163ffffffff909116815260200161016f565b61033161032c366004612da3565b611b7c565b6040805192835260208301919091520161016f565b6102836103543660046131c8565b611dd5565b610165610367366004613231565b611fa9565b6103937f000000000000000000000000000000000000000000000000000000000000000081565b60405160ff909116815260200161016f565b6102836103b3366004612da3565b611fc6565b6101656103c6366004612dc7565b612472565b6103937f000000000000000000000000000000000000000000000000000000000000000081565b610405610400366004612da3565b612c05565b60405161016f9190613280565b61043b610420366004612da3565b6000602081905290815260409020546001600160a01b031681565b6040516001600160a01b03909116815260200161016f565b600080610460838461092d565b9050600061046d84610aa9565b5160008381526001602081815260409283902083516101408101855281546001600160401b038082168352600160401b808304821684870152600160801b8084048316858a0152600160c01b80850461ffff16606080880191909152600160d01b860460ff9081166080808a0191909152600160d81b880490911660a0808a0191909152600160e01b90970463ffffffff90811660c08a019081529b8a015460e08a015260028a01546101008a01528c519788018d526003998a0154808b0b8952600160201b8104909a0b9a88019a909a5293880485169a86019a909a52908604831698840198909852969093049092169482019490945261012084015282519151939450919261057e9216613367565b6001600160401b03169350846001600160a01b03166311aee3806040518163ffffffff1660e01b8152600401602060405180830381865afa1580156105c7573d6000803e3d6000fd5b505050506040513d601f19601f820116820180604052508101906105eb919061338e565b81610100015110610925576001600160401b034281168252600061010083015260408201511661062357670de0b6b3a764000061067b565b80604001516001600160401b03168260036000610640898a61092d565b815260208101919091526040016000205461065f919061ffff166133a7565b61067190670de0b6b3a76400006133a7565b61067b91906133d4565b816101200151608001906001600160401b031690816001600160401b031681525050600081604001906001600160401b031690816001600160401b031681525050806001600085815260200190815260200160002060008201518160000160006101000a8154816001600160401b0302191690836001600160401b0316021790555060208201518160000160086101000a8154816001600160401b0302191690836001600160401b0316021790555060408201518160000160106101000a8154816001600160401b0302191690836001600160401b0316021790555060608201518160000160186101000a81548161ffff021916908361ffff160217905550608082015181600001601a6101000a81548160ff021916908360ff16021790555060a082015181600001601b6101000a81548160ff021916908360ff16021790555060c082015181600001601c6101000a81548163ffffffff021916908363ffffffff16021790555060e0820151816001015561010082015181600201556101208201518160030160008201518160000160006101000a81548163ffffffff021916908360030b63ffffffff16021790555060208201518160000160046101000a81548163ffffffff021916908360030b63ffffffff16021790555060408201518160000160086101000a8154816001600160401b0302191690836001600160401b0316021790555060608201518160000160106101000a8154816001600160401b0302191690836001600160401b0316021790555060808201518160000160186101000a8154816001600160401b0302191690836001600160401b0316021790555050509050508060c0015163ffffffff16426108f891906133e8565b6040519094507f7e91044b9074cca2ad930e24b921d5dc8550dd767398a411c3245a813067396990600090a15b505050919050565b60006109456001600160a01b038084169085166133e8565b90505b92915050565b600061095a8383610978565b604001519050806000036109485750670de0b6b3a764000092915050565b604080516080810182526000808252602082018190529181018290526060810191909152600260006109aa858561092d565b81526020808201929092526040908101600020815160808101835281546001600160401b038082168352600160401b90910416938101939093526001810154918301919091526002015460608201529392505050565b6040805160a08101825260008082526020820181905291810182905260608101829052608081019190915260016000610a39848561092d565b81526020808201929092526040908101600020815160a08101835260039182015480830b8252600160201b810490920b938101939093526001600160401b03600160401b8204811692840192909252600160801b810482166060840152600160c01b900416608082015292915050565b606060008290506000816001600160a01b03166388098e3a6040518163ffffffff1660e01b8152600401602060405180830381865afa158015610af0573d6000803e3d6000fd5b505050506040513d601f19601f82011682018060405250810190610b1491906133fb565b90506000846001600160a01b03166388098e3a6040518163ffffffff1660e01b8152600401602060405180830381865afa158015610b56573d6000803e3d6000fd5b505050506040513d601f19601f82011682018060405250810190610b7a91906133fb565b604051632ca62cd560e01b81526001600160a01b0387811660048301529190911690632ca62cd590602401600060405180830381865afa158015610bc2573d6000803e3d6000fd5b505050506040513d6000823e601f3d908101601f19168201604052610bea9190810190613418565b90508051600003610bfd57505050919050565b604051600162965c6f60e01b031981526001600160a01b0383169063ff69a39190610c2e90849089906004016134a6565b600060405180830381865afa158015610c4b573d6000803e3d6000fd5b505050506040513d6000823e601f3d908101601f19168201604052610c739190810190613503565b9350600084604051602001610c889190613588565b6040516020818303038152906040528051906020012090506000610cac878861092d565b600081815260016020819052604090912001549091508203610cd2575050505050919050565b600081815260016020818152604080842081516101408101835281546001600160401b038082168352600160401b808304821684880152600160801b808404831685880152600160c01b80850461ffff16606080880191909152600160d01b860460ff9081166080808a0191909152600160d81b880490911660a0808a0191909152600160e01b90970463ffffffff1660c08901529a88015460e08801908152600289015461010089015289519687018a52600398890154808a0b8852600160201b810490990b9a87019a909a529287048416978501979097528504821690830152939092049092169381019390935261012081019290925284905290805b8851811015610e8557888181518110610dec57610dec6135be565b602002602001015163ffffffff1660026000610e21898581518110610e1357610e136135be565b60200260200101518e61092d565b815260200190815260200160002060000160006101000a8154816001600160401b0302191690836001600160401b03160217905550888181518110610e6857610e686135be565b602002602001015182610e7b91906133e8565b9150600101610dd1565b6001600160401b03821660208085019190915260008581526001909152604090206003908101548751610ec392600160201b90920490910b906135d4565b61012084015160039190910b90528551610edd90836133d4565b63ffffffff16836101200151606001906001600160401b031690816001600160401b031681525050826001600086815260200190815260200160002060008201518160000160006101000a8154816001600160401b0302191690836001600160401b0316021790555060208201518160000160086101000a8154816001600160401b0302191690836001600160401b0316021790555060408201518160000160106101000a8154816001600160401b0302191690836001600160401b0316021790555060608201518160000160186101000a81548161ffff021916908361ffff160217905550608082015181600001601a6101000a81548160ff021916908360ff16021790555060a082015181600001601b6101000a81548160ff021916908360ff16021790555060c082015181600001601c6101000a81548163ffffffff021916908363ffffffff16021790555060e0820151816001015561010082015181600201556101208201518160030160008201518160000160006101000a81548163ffffffff021916908360030b63ffffffff16021790555060208201518160000160046101000a81548163ffffffff021916908360030b63ffffffff16021790555060408201518160000160086101000a8154816001600160401b0302191690836001600160401b0316021790555060608201518160000160106101000a8154816001600160401b0302191690836001600160401b0316021790555060808201518160000160186101000a8154816001600160401b0302191690836001600160401b0316021790555050509050505050505050505050919050565b6001600160a01b038381166000908152602081905260409020541661116f5760405162ce6de560e51b815260040160405180910390fd5b6001600160a01b0383811660009081526020819052604090205416806324d7806c336040516001600160e01b031960e084901b1681526001600160a01b0390911660048201526024016020604051808303816000875af11580156111d7573d6000803e3d6000fd5b505050506040513d601f19601f820116820180604052508101906111fb91906135f4565b1580156112115750336001600160a01b03851614155b1561122f57604051634755657960e01b815260040160405180910390fd5b815183511461125157604051632d2dc95960e11b815260040160405180910390fd5b6000805b84518110156114065761128186868381518110611274576112746135be565b6020026020010151611fa9565b91506103e8848281518110611298576112986135be565b602002602001015161ffff1611156112c357604051632ebc594b60e21b815260040160405180910390fd5b8381815181106112d5576112d56135be565b602090810291909101810151600084815260039092526040909120805461ffff191661ffff90921691821790551580159061132d575083818151811061131d5761131d6135be565b602002602001015161ffff166000145b61139d57838181518110611343576113436135be565b602002602001015160036000611359868761092d565b815260208101919091526040016000908120805490919061137f90849061ffff16613616565b92506101000a81548161ffff021916908361ffff16021790556113fd565b600082815260036020819052604082205461ffff16916113bd868061092d565b81526020810191909152604001600090812080549091906113e390849061ffff16613631565b92506101000a81548161ffff021916908361ffff16021790555b50600101611255565b604080516001600160a01b0388168152602081018490527f49fdc5467ab6dc1a447e46542dd52bfb2c337f7cf111a0aa45f01e64802320bc91015b60405180910390a1505050505050565b336000908152602081905260409020546001600160a01b031661148757604051636bd1573560e11b815260040160405180910390fd5b60006114c93385858080601f016020809104026020016040519081016040528093929190818152602001838380828437600092019190915250611fa992505050565b60008181526003602052604090205490915061ffff166002849003611505576114f660026000868861364c565b6114ff91613676565b60f01c90505b80600003611514575050505050565b336000908152602081905260408120546001600160a01b031690829060029061153d878561092d565b81526020810191909152604001600020805460089061156d908490600160401b90046001600160401b0316613367565b92506101000a8154816001600160401b0302191690836001600160401b0316021790555081600160006115a0848561092d565b8152602081019190915260400160002080546010906115d0908490600160801b90046001600160401b0316613367565b92506101000a8154816001600160401b0302191690836001600160401b031602179055507fad3057a9cc4c01edafc716a0859a1eb89efe668102492ef7d75c1578f799739483856040516114419291909182526001600160a01b0316602082015260400190565b600061271084111561165c576040516367a546c560e01b815260040160405180910390fd5b8715801561166a5750600083115b1561169f57606461167b83856133a7565b61168591906133d4565b61168f90846136a4565b6001600160401b03169050611810565b6000866116b489670de0b6b3a76400006133a7565b6116be91906133d4565b905060006116cc87836133a7565b905080156116da57806116dd565b60015b905084156116eb57846116f5565b670de0b6b3a76400005b945084866117048160646136a4565b836117178e670de0b6b3a76400006133a7565b61172191906133d4565b61172b91906133a7565b61173591906133e8565b61173f91906133a7565b6001600160401b0316925061175c670de0b6b3a7640000846133d4565b156117715761176c6064846133d4565b611798565b61178383670de0b6b3a76400006133d4565b61178e90600a6133a7565b61179890846133a7565b9250678ac7230489e800008311156117b657678ac7230489e8000092505b826117c26064876133d4565b6117cd9060286133a7565b6117d790876133e8565b1080156117e5575084600114155b1561180d576117f56064866133d4565b6118009060286133a7565b61180a90866133e8565b92505b50505b979650505050505050565b60606000611829838461092d565b60008181526001602081815260409283902083516101408101855281546001600160401b038082168352600160401b808304821684870152600160801b8084048316858a0152600160c01b80850461ffff16606080880191909152600160d01b860460ff9081166080808a0191909152600160d81b880490911660a0808a0191909152600160e01b90970463ffffffff90811660c08a019081529b8a015460e08a015260028a01546101008a01528c519788018d526003998a0154808b0b8952600160201b8104909a0b9a88019a909a5293880485169a86019a909a529086048316988401989098529690930490921694820194909452610120840152905182519394509192429261193c921690613367565b6001600160401b03161115611964576040516313a67ce960e31b815260040160405180910390fd5b61196d84610453565b506000846001600160a01b03166388098e3a6040518163ffffffff1660e01b8152600401602060405180830381865afa1580156119ae573d6000803e3d6000fd5b505050506040513d601f19601f820116820180604052508101906119d291906133fb565b604051632ca62cd560e01b81526001600160a01b0387811660048301529190911690632ca62cd590602401600060405180830381865afa158015611a1a573d6000803e3d6000fd5b505050506040513d6000823e601f3d908101601f19168201604052611a429190810190613418565b905080516001600160401b03811115611a5d57611a5d612e99565b604051908082528060200260200182016040528015611a86578160200160208202803683370190505b5093506000805b8251811015611b0657611ab9838281518110611aab57611aab6135be565b602002602001015188612472565b868281518110611acb57611acb6135be565b602002602001018181525050858181518110611ae957611ae96135be565b602002602001015182611afc91906133e8565b9150600101611a8d565b8251611b1290836133d4565b6000958652600160205260409095206003018054935163ffffffff16600160201b0267ffffffff00000000196001600160401b03909716600160401b02969096166fffffffffffffffffffffffff0000000019909416939093179490941790915550919392505050565b6000806000836001600160a01b03166388098e3a6040518163ffffffff1660e01b8152600401602060405180830381865afa158015611bbf573d6000803e3d6000fd5b505050506040513d601f19601f82011682018060405250810190611be391906133fb565b604051632ca62cd560e01b81526001600160a01b0386811660048301529190911690632ca62cd590602401600060405180830381865afa158015611c2b573d6000803e3d6000fd5b505050506040513d6000823e601f3d908101601f19168201604052611c539190810190613418565b9050600080856001600160a01b03166388098e3a6040518163ffffffff1660e01b8152600401602060405180830381865afa158015611c96573d6000803e3d6000fd5b505050506040513d601f19601f82011682018060405250810190611cba91906133fb565b6001600160a01b031663ff69a39184886040518363ffffffff1660e01b8152600401611ce79291906134a6565b600060405180830381865afa158015611d04573d6000803e3d6000fd5b505050506040513d6000823e601f3d908101601f19168201604052611d2c9190810190613503565b90505b8251821015611db05760026000611d5f858581518110611d5157611d516135be565b60200260200101518961092d565b81526020019081526020016000206001015484611d7c91906133e8565b9350808281518110611d9057611d906135be565b602002602001015185611da391906133e8565b9450816001019150611d2f565b8251611dbc90866133d4565b9450825184611dcb91906133d4565b9350505050915091565b6001600160a01b0381166324d7806c336040516001600160e01b031960e084901b1681526001600160a01b0390911660048201526024016020604051808303816000875af1158015611e2b573d6000803e3d6000fd5b505050506040513d601f19601f82011682018060405250810190611e4f91906135f4565b611e6c57604051634755657960e01b815260040160405180910390fd5b611e7a8361ffff86166136b7565b63ffffffff16600003611ea05760405163d03c275960e01b815260040160405180910390fd5b6000611ead6064846136d7565b60ff16611ebb6064866136f9565b611ec660648861371c565b61ffff16611ed49190613731565b611ede9190613731565b63ffffffff161115611f0357604051636a5d5bd160e01b815260040160405180910390fd5b6000611f0f828361092d565b6000818152600160209081526040918290208054600163ffff000160c01b0316600160c01b61ffff8b16026001600160e01b031617600160e01b63ffffffff8a16021760ff60d01b1916600160d01b60ff89160217905590516001600160a01b03851681529192507f2757fd3a49f344ee8595ec8cab6ee31b3cb632af95399f8a5864af9cdce6ffe3910160405180910390a15050505050565b80516020820120600090610945906001600160a01b0385166133e8565b6000611fd2338361092d565b9050611fde828361092d565b60008181526001602081815260409283902083516101408101855281546001600160401b038082168352600160401b808304821684870152600160801b8084048316858a0152600160c01b80850461ffff16606080880191909152600160d01b860460ff9081166080808a0191909152600160d81b880490911660a0808a0191909152600160e01b90970463ffffffff1660c08901529988015460e088015260028801546101008801528a519586018b5260039788015480890b8752600160201b810490980b988601989098529186048316988401989098529684048116948201949094529490910482169284019290925261012082019290925280519293509116156120ea57505050565b7f0000000000000000000000000000000000000000000000000000000000000000816060019061ffff16908161ffff16815250507f00000000000000000000000000000000000000000000000000000000000000008160c0019063ffffffff16908163ffffffff16815250507f0000000000000000000000000000000000000000000000000000000000000000816080019060ff16908160ff16815250507f00000000000000000000000000000000000000000000000000000000000000008160a0019060ff16908160ff16815250504281600001906001600160401b031690816001600160401b031681525050806001600084815260200190815260200160002060008201518160000160006101000a8154816001600160401b0302191690836001600160401b0316021790555060208201518160000160086101000a8154816001600160401b0302191690836001600160401b0316021790555060408201518160000160106101000a8154816001600160401b0302191690836001600160401b0316021790555060608201518160000160186101000a81548161ffff021916908361ffff160217905550608082015181600001601a6101000a81548160ff021916908360ff16021790555060a082015181600001601b6101000a81548160ff021916908360ff16021790555060c082015181600001601c6101000a81548163ffffffff021916908363ffffffff16021790555060e0820151816001015561010082015181600201556101208201518160030160008201518160000160006101000a81548163ffffffff021916908360030b63ffffffff16021790555060208201518160000160046101000a81548163ffffffff021916908360030b63ffffffff16021790555060408201518160000160086101000a8154816001600160401b0302191690836001600160401b0316021790555060608201518160000160106101000a8154816001600160401b0302191690836001600160401b0316021790555060808201518160000160186101000a8154816001600160401b0302191690836001600160401b03160217905550505090505061240783610aa9565b50336000818152602081815260409182902080546001600160a01b0319166001600160a01b03881690811790915582519081529081019290925280517f90c9297b9014ed03bb767606f04c4c65cd5d16b18731e60860d3e41c49af2e4a9281900390910190a1505050565b60006001600160a01b0382166324d7806c336040516001600160e01b031960e084901b1681526001600160a01b0390911660048201526024016020604051808303816000875af11580156124ca573d6000803e3d6000fd5b505050506040513d601f19601f820116820180604052508101906124ee91906135f4565b61250b57604051636bd1573560e11b815260040160405180910390fd5b6000612517848461092d565b90506000612525848561092d565b90506000600260008481526020019081526020016000206040518060800160405290816000820160009054906101000a90046001600160401b03166001600160401b03166001600160401b031681526020016000820160089054906101000a90046001600160401b03166001600160401b03166001600160401b03168152602001600182015481526020016002820154815250509050600060016000848152602001908152602001600020604051806101400160405290816000820160009054906101000a90046001600160401b03166001600160401b03166001600160401b031681526020016000820160089054906101000a90046001600160401b03166001600160401b03166001600160401b031681526020016000820160109054906101000a90046001600160401b03166001600160401b03166001600160401b031681526020016000820160189054906101000a900461ffff1661ffff1661ffff16815260200160008201601a9054906101000a900460ff1660ff1660ff16815260200160008201601b9054906101000a900460ff1660ff1660ff16815260200160008201601c9054906101000a900463ffffffff1663ffffffff1663ffffffff1681526020016001820154815260200160028201548152602001600382016040518060a00160405290816000820160009054906101000a900460030b60030b60030b81526020016000820160049054906101000a900460030b60030b60030b81526020016000820160089054906101000a90046001600160401b03166001600160401b03166001600160401b031681526020016000820160109054906101000a90046001600160401b03166001600160401b03166001600160401b031681526020016000820160189054906101000a90046001600160401b03166001600160401b03166001600160401b03168152505081525050905080600001516001600160401b0316826060015111156128025750604001519250610948915050565b6001600160401b0342166060830152604082015160000361282557600160408301525b8160400151816060015161ffff1682604001518360200151612847919061374e565b612851919061374e565b6001600160401b031661286491906133a7565b600003612884576040516318dc243b60e31b815260040160405180910390fd5b6001816101000181815161289891906133e8565b91508181525050806001600085815260200190815260200160002060008201518160000160006101000a8154816001600160401b0302191690836001600160401b0316021790555060208201518160000160086101000a8154816001600160401b0302191690836001600160401b0316021790555060408201518160000160106101000a8154816001600160401b0302191690836001600160401b0316021790555060608201518160000160186101000a81548161ffff021916908361ffff160217905550608082015181600001601a6101000a81548160ff021916908360ff16021790555060a082015181600001601b6101000a81548160ff021916908360ff16021790555060c082015181600001601c6101000a81548163ffffffff021916908363ffffffff16021790555060e0820151816001015561010082015181600201556101208201518160030160008201518160000160006101000a81548163ffffffff021916908360030b63ffffffff16021790555060208201518160000160046101000a81548163ffffffff021916908360030b63ffffffff16021790555060408201518160000160086101000a8154816001600160401b0302191690836001600160401b0316021790555060608201518160000160106101000a8154816001600160401b0302191690836001600160401b0316021790555060808201518160000160186101000a8154816001600160401b0302191690836001600160401b031602179055505050905050856001600160a01b03166311aee3806040518163ffffffff1660e01b8152600401602060405180830381865afa158015612b03573d6000803e3d6000fd5b505050506040513d601f19601f82011682018060405250810190612b27919061338e565b81610100015110612b3d57612b3b86610453565b505b612b9382602001516001600160401b031683600001516001600160401b031683602001516001600160401b031684604001516001600160401b0316856060015161ffff168760400151876080015160ff16611637565b6040808401918252600060208086018281529782526002908190529190208451815497516001600160401b03908116600160401b026fffffffffffffffffffffffffffffffff199099169116179690961786559051600186018190556060909301519401939093559250505092915050565b612c7d6040805161014081018252600080825260208083018290528284018290526060808401839052608080850184905260a080860185905260c0860185905260e086018590526101008601859052865190810187528481529283018490529482018390528101829052928301529061012082015290565b60016000612c8b848561092d565b8152602080820192909252604090810160002081516101408101835281546001600160401b038082168352600160401b808304821684880152600160801b808404831685880152600160c01b80850461ffff16606080880191909152600160d01b860460ff9081166080808a0191909152600160d81b880490911660a0808a0191909152600160e01b90970463ffffffff1660c0890152600189015460e0890152600289015461010089015289519687018a52600398890154808a0b8852600160201b810490990b9a87019a909a529287048416978501979097528504821690830152939092049092169281019290925261012081019190915292915050565b6001600160a01b0381168114612da057600080fd5b50565b600060208284031215612db557600080fd5b8135612dc081612d8b565b9392505050565b60008060408385031215612dda57600080fd5b8235612de581612d8b565b91506020830135612df581612d8b565b809150509250929050565b805160030b8252602081015160030b602083015260408101516001600160401b03808216604085015280606084015116606085015280608084015116608085015250505050565b60a081016109488284612e00565b6020808252825182820181905260009190848201906040850190845b81811015612e8d57835183529284019291840191600101612e71565b50909695505050505050565b634e487b7160e01b600052604160045260246000fd5b604051601f8201601f191681016001600160401b0381118282101715612ed757612ed7612e99565b604052919050565b60006001600160401b03821115612ef857612ef8612e99565b5060051b60200190565b600082601f830112612f1357600080fd5b81356001600160401b03811115612f2c57612f2c612e99565b612f3f601f8201601f1916602001612eaf565b818152846020838601011115612f5457600080fd5b816020850160208301376000918101602001919091529392505050565b803561ffff81168114612f8357600080fd5b919050565b600082601f830112612f9957600080fd5b81356020612fae612fa983612edf565b612eaf565b82815260059290921b84018101918181019086841115612fcd57600080fd5b8286015b84811015612fef57612fe281612f71565b8352918301918301612fd1565b509695505050505050565b60008060006060848603121561300f57600080fd5b833561301a81612d8b565b92506020848101356001600160401b038082111561303757600080fd5b818701915087601f83011261304b57600080fd5b8135613059612fa982612edf565b81815260059190911b8301840190848101908a83111561307857600080fd5b8585015b838110156130b0578035858111156130945760008081fd5b6130a28d89838a0101612f02565b84525091860191860161307c565b509650505060408701359250808311156130c957600080fd5b50506130d786828701612f88565b9150509250925092565b6000806000604084860312156130f657600080fd5b83356001600160401b038082111561310d57600080fd5b818601915086601f83011261312157600080fd5b81358181111561313057600080fd5b87602082850101111561314257600080fd5b6020928301955093505084013561315881612d8b565b809150509250925092565b600080600080600080600060e0888a03121561317e57600080fd5b505085359760208701359750604087013596606081013596506080810135955060a0810135945060c0013592509050565b6000602082840312156131c157600080fd5b5035919050565b600080600080608085870312156131de57600080fd5b6131e785612f71565b9350602085013563ffffffff8116811461320057600080fd5b9250604085013560ff8116811461321657600080fd5b9150606085013561322681612d8b565b939692955090935050565b6000806040838503121561324457600080fd5b823561324f81612d8b565b915060208301356001600160401b0381111561326a57600080fd5b61327685828601612f02565b9150509250929050565b81516001600160401b031681526101c0810160208301516132ac60208401826001600160401b03169052565b5060408301516132c760408401826001600160401b03169052565b5060608301516132dd606084018261ffff169052565b5060808301516132f2608084018260ff169052565b5060a083015161330760a084018260ff169052565b5060c083015161331f60c084018263ffffffff169052565b5060e083015160e08301526101008084015181840152506101208084015161334982850182612e00565b505092915050565b634e487b7160e01b600052601160045260246000fd5b6001600160401b0381811683821601908082111561338757613387613351565b5092915050565b6000602082840312156133a057600080fd5b5051919050565b808202811582820484141761094857610948613351565b634e487b7160e01b600052601260045260246000fd5b6000826133e3576133e36133be565b500490565b8082018082111561094857610948613351565b60006020828403121561340d57600080fd5b8151612dc081612d8b565b6000602080838503121561342b57600080fd5b82516001600160401b0381111561344157600080fd5b8301601f8101851361345257600080fd5b8051613460612fa982612edf565b81815260059190911b8201830190838101908783111561347f57600080fd5b928401925b8284101561181057835161349781612d8b565b82529284019290840190613484565b604080825283519082018190526000906020906060840190828701845b828110156134e85781516001600160a01b0316845292840192908401906001016134c3565b5050506001600160a01b039490941692019190915250919050565b6000602080838503121561351657600080fd5b82516001600160401b0381111561352c57600080fd5b8301601f8101851361353d57600080fd5b805161354b612fa982612edf565b81815260059190911b8201830190838101908783111561356a57600080fd5b928401925b828410156118105783518252928401929084019061356f565b815160009082906020808601845b838110156135b257815185529382019390820190600101613596565b50929695505050505050565b634e487b7160e01b600052603260045260246000fd5b818103600083128015838313168383128216171561338757613387613351565b60006020828403121561360657600080fd5b81518015158114612dc057600080fd5b61ffff81811683821601908082111561338757613387613351565b61ffff82811682821603908082111561338757613387613351565b6000808585111561365c57600080fd5b8386111561366957600080fd5b5050820193919092039150565b6001600160f01b031981358181169160028510156133495760029490940360031b84901b1690921692915050565b8181038181111561094857610948613351565b63ffffffff81811683821602808216919082811461334957613349613351565b600060ff8316806136ea576136ea6133be565b8060ff84160491505092915050565b600063ffffffff80841680613710576137106133be565b92169190910492915050565b600061ffff80841680613710576137106133be565b63ffffffff81811683821601908082111561338757613387613351565b6001600160401b038181168382160280821691908281146133495761334961335156fea2646970667358221220311315722f17b51f2cdda5094a23537d21b2d3d34b349dd6320af23976d1f5ec64736f6c63430008130033",
    "linkReferences": {}
  },
  "methodIdentifiers": {
    "DEFAULT_CAP_GROWTH()": "e5720d9a",
    "DEFAULT_K()": "0b51806d",
    "DEFAULT_PENALTY()": "bf15e017",
    "DEFAULT_PERIOD()": "780e7893",
    "bulkPeriodicUpdate(address)": "6e09f59c",
    "calculateLocalReputation(uint256,uint256,uint256,uint256,uint256,uint256,uint256)": "49fc23c8",
    "daoOfPlugin(address)": "fa31c78b",
    "getAvReputationAndCommitment(address)": "86d94e26",
    "getContextID(address,address)": "0c4378e0",
    "getGroupState(address)": "f1e0fa78",
    "getIndividualState(address,address)": "584f01be",
    "getLRof(address,address)": "2da9de59",
    "getLocalReputationScore(address,address)": "19d52ebe",
    "getPeriodNovaParameters(address)": "318e3d8c",
    "initialize(address)": "c4d66de8",
    "interaction(bytes,address)": "3ad3b041",
    "interactionID(address,bytes)": "958ee370",
    "periodicGroupStateUpdate(address)": "083ad23b",
    "pointsPerInteraction(uint256)": "5a53f24a",
    "setInteractionWeights(address,bytes[],uint16[])": "36f3354e",
    "setKP(uint16,uint32,uint8,address)": "897bf2b6",
    "updateCommitmentLevels(address)": "343bce3b",
    "updateIndividualLR(address,address)": "df3e30f0"
  },
  "id": 6
}