{
  "abi": [
    {
      "inputs": [],
      "name": "ArgLenMismatch",
      "type": "error"
    },
    {
      "inputs": [],
      "name": "MaxK",
      "type": "error"
    },
    {
      "inputs": [],
      "name": "OnlyAdmin",
      "type": "error"
    },
    {
      "inputs": [],
      "name": "OnlyOnce",
      "type": "error"
    },
    {
      "inputs": [],
      "name": "Over100",
      "type": "error"
    },
    {
      "inputs": [],
      "name": "PeriodUnelapsed",
      "type": "error"
    },
    {
      "inputs": [],
      "name": "Unauthorised",
      "type": "error"
    },
    {
      "inputs": [],
      "name": "Uninitialized",
      "type": "error"
    },
    {
      "inputs": [],
      "name": "UninitializedPair",
      "type": "error"
    },
    {
      "inputs": [],
      "name": "ZeroUnallawed",
      "type": "error"
    },
    {
      "inputs": [],
      "name": "ZeroUnallowed",
      "type": "error"
    },
    {
      "anonymous": false,
      "inputs": [],
      "name": "EndOfPeriod",
      "type": "event"
    },
    {
      "anonymous": false,
      "inputs": [
        {
          "indexed": false,
          "internalType": "uint256",
          "name": "InteractionID",
          "type": "uint256"
        },
        {
          "indexed": false,
          "internalType": "address",
          "name": "agent",
          "type": "address"
        }
      ],
      "name": "Interaction",
      "type": "event"
    },
    {
      "anonymous": false,
      "inputs": [
        {
          "indexed": false,
          "internalType": "address",
          "name": "Nova",
          "type": "address"
        },
        {
          "indexed": false,
          "internalType": "address",
          "name": "PluginAddr",
          "type": "address"
        }
      ],
      "name": "LocalRepInit",
      "type": "event"
    },
    {
      "anonymous": false,
      "inputs": [
        {
          "indexed": false,
          "internalType": "address",
          "name": "plugin",
          "type": "address"
        },
        {
          "indexed": false,
          "internalType": "uint256",
          "name": "interactionId",
          "type": "uint256"
        }
      ],
      "name": "SetWeightsFor",
      "type": "event"
    },
    {
      "anonymous": false,
      "inputs": [
        {
          "indexed": false,
          "internalType": "address",
          "name": "targetGroup",
          "type": "address"
        }
      ],
      "name": "UpdatedKP",
      "type": "event"
    },
    {
      "inputs": [],
      "name": "DEFAULT_CAP_GROWTH",
      "outputs": [
        {
          "internalType": "uint8",
          "name": "",
          "type": "uint8"
        }
      ],
      "stateMutability": "view",
      "type": "function"
    },
    {
      "inputs": [],
      "name": "DEFAULT_K",
      "outputs": [
        {
          "internalType": "uint16",
          "name": "",
          "type": "uint16"
        }
      ],
      "stateMutability": "view",
      "type": "function"
    },
    {
      "inputs": [],
      "name": "DEFAULT_PENALTY",
      "outputs": [
        {
          "internalType": "uint8",
          "name": "",
          "type": "uint8"
        }
      ],
      "stateMutability": "view",
      "type": "function"
    },
    {
      "inputs": [],
      "name": "DEFAULT_PERIOD",
      "outputs": [
        {
          "internalType": "uint32",
          "name": "",
          "type": "uint32"
        }
      ],
      "stateMutability": "view",
      "type": "function"
    },
    {
      "inputs": [
        {
          "internalType": "address",
          "name": "group_",
          "type": "address"
        }
      ],
      "name": "bulkPeriodicUpdate",
      "outputs": [
        {
          "internalType": "uint256[]",
          "name": "localReputationScores",
          "type": "uint256[]"
        }
      ],
      "stateMutability": "nonpayable",
      "type": "function"
    },
    {
      "inputs": [
        {
          "internalType": "uint256",
          "name": "iGC",
          "type": "uint256"
        },
        {
          "internalType": "uint256",
          "name": "iCL",
          "type": "uint256"
        },
        {
          "internalType": "uint256",
          "name": "TCL",
          "type": "uint256"
        },
        {
          "internalType": "uint256",
          "name": "TCP",
          "type": "uint256"
        },
        {
          "internalType": "uint256",
          "name": "k",
          "type": "uint256"
        },
        {
          "internalType": "uint256",
          "name": "prevScore",
          "type": "uint256"
        },
        {
          "internalType": "uint256",
          "name": "penalty",
          "type": "uint256"
        }
      ],
      "name": "calculateLocalReputation",
      "outputs": [
        {
          "internalType": "uint256",
          "name": "score",
          "type": "uint256"
        }
      ],
      "stateMutability": "pure",
      "type": "function"
    },
    {
      "inputs": [
        {
          "internalType": "address",
          "name": "plugin",
          "type": "address"
        }
      ],
      "name": "daoOfPlugin",
      "outputs": [
        {
          "internalType": "address",
          "name": "dao",
          "type": "address"
        }
      ],
      "stateMutability": "view",
      "type": "function"
    },
    {
      "inputs": [
        {
          "internalType": "address",
          "name": "nova_",
          "type": "address"
        }
      ],
      "name": "getAvReputationAndCommitment",
      "outputs": [
        {
          "internalType": "uint256",
          "name": "sumCommit",
          "type": "uint256"
        },
        {
          "internalType": "uint256",
          "name": "sumRep",
          "type": "uint256"
        }
      ],
      "stateMutability": "view",
      "type": "function"
    },
    {
      "inputs": [
        {
          "internalType": "address",
          "name": "subject_",
          "type": "address"
        },
        {
          "internalType": "address",
          "name": "group_",
          "type": "address"
        }
      ],
      "name": "getContextID",
      "outputs": [
        {
          "internalType": "uint256",
          "name": "",
          "type": "uint256"
        }
      ],
      "stateMutability": "pure",
      "type": "function"
    },
    {
      "inputs": [
        {
          "internalType": "address",
          "name": "nova_",
          "type": "address"
        }
      ],
      "name": "getGroupState",
      "outputs": [
        {
          "components": [
            {
              "internalType": "uint64",
              "name": "lastPeriod",
              "type": "uint64"
            },
            {
              "internalType": "uint64",
              "name": "TCL",
              "type": "uint64"
            },
            {
              "internalType": "uint64",
              "name": "TCP",
              "type": "uint64"
            },
            {
              "internalType": "uint16",
              "name": "k",
              "type": "uint16"
            },
            {
              "internalType": "uint8",
              "name": "penalty",
              "type": "uint8"
            },
            {
              "internalType": "uint8",
              "name": "c",
              "type": "uint8"
            },
            {
              "internalType": "uint32",
              "name": "p",
              "type": "uint32"
            },
            {
              "internalType": "bytes32",
              "name": "commitHash",
              "type": "bytes32"
            },
            {
              "internalType": "uint256",
              "name": "lrUpdatesPerPeriod",
              "type": "uint256"
            },
            {
              "components": [
                {
                  "internalType": "int32",
                  "name": "aDiffMembersLP",
                  "type": "int32"
                },
                {
                  "internalType": "int32",
                  "name": "bMembersLastLP",
                  "type": "int32"
                },
                {
                  "internalType": "uint64",
                  "name": "cAverageRepLP",
                  "type": "uint64"
                },
                {
                  "internalType": "uint64",
                  "name": "dAverageCommitmentLP",
                  "type": "uint64"
                },
                {
                  "internalType": "uint64",
                  "name": "ePerformanceLP",
                  "type": "uint64"
                }
              ],
              "internalType": "struct periodData",
              "name": "periodNovaParameters",
              "type": "tuple"
            }
          ],
          "internalType": "struct groupState",
          "name": "",
          "type": "tuple"
        }
      ],
      "stateMutability": "view",
      "type": "function"
    },
    {
      "inputs": [
        {
          "internalType": "address",
          "name": "agent_",
          "type": "address"
        },
        {
          "internalType": "address",
          "name": "nova_",
          "type": "address"
        }
      ],
      "name": "getIndividualState",
      "outputs": [
        {
          "components": [
            {
              "internalType": "uint64",
              "name": "iCL",
              "type": "uint64"
            },
            {
              "internalType": "uint64",
              "name": "GC",
              "type": "uint64"
            },
            {
              "internalType": "uint256",
              "name": "score",
              "type": "uint256"
            },
            {
              "internalType": "uint256",
              "name": "lastUpdatedAt",
              "type": "uint256"
            }
          ],
          "internalType": "struct individualState",
          "name": "",
          "type": "tuple"
        }
      ],
      "stateMutability": "view",
      "type": "function"
    },
    {
      "inputs": [
        {
          "internalType": "address",
          "name": "subject_",
          "type": "address"
        },
        {
          "internalType": "address",
          "name": "group_",
          "type": "address"
        }
      ],
      "name": "getLRof",
      "outputs": [
        {
          "components": [
            {
              "internalType": "uint64",
              "name": "iCL",
              "type": "uint64"
            },
            {
              "internalType": "uint64",
              "name": "GC",
              "type": "uint64"
            },
            {
              "internalType": "uint256",
              "name": "score",
              "type": "uint256"
            },
            {
              "internalType": "uint256",
              "name": "lastUpdatedAt",
              "type": "uint256"
            }
          ],
          "internalType": "struct individualState",
          "name": "",
          "type": "tuple"
        }
      ],
      "stateMutability": "view",
      "type": "function"
    },
    {
      "inputs": [
        {
          "internalType": "address",
          "name": "subject_",
          "type": "address"
        },
        {
          "internalType": "address",
          "name": "group_",
          "type": "address"
        }
      ],
      "name": "getLocalReputationScore",
      "outputs": [
        {
          "internalType": "uint256",
          "name": "score",
          "type": "uint256"
        }
      ],
      "stateMutability": "view",
      "type": "function"
    },
    {
      "inputs": [
        {
          "internalType": "address",
          "name": "nova_",
          "type": "address"
        }
      ],
      "name": "getPeriodNovaParameters",
      "outputs": [
        {
          "components": [
            {
              "internalType": "int32",
              "name": "aDiffMembersLP",
              "type": "int32"
            },
            {
              "internalType": "int32",
              "name": "bMembersLastLP",
              "type": "int32"
            },
            {
              "internalType": "uint64",
              "name": "cAverageRepLP",
              "type": "uint64"
            },
            {
              "internalType": "uint64",
              "name": "dAverageCommitmentLP",
              "type": "uint64"
            },
            {
              "internalType": "uint64",
              "name": "ePerformanceLP",
              "type": "uint64"
            }
          ],
          "internalType": "struct periodData",
          "name": "",
          "type": "tuple"
        }
      ],
      "stateMutability": "view",
      "type": "function"
    },
    {
      "inputs": [
        {
          "internalType": "address",
          "name": "nova_",
          "type": "address"
        }
      ],
      "name": "initialize",
      "outputs": [],
      "stateMutability": "nonpayable",
      "type": "function"
    },
    {
      "inputs": [
        {
          "internalType": "bytes",
          "name": "datas_",
          "type": "bytes"
        },
        {
          "internalType": "address",
          "name": "callerAgent_",
          "type": "address"
        }
      ],
      "name": "interaction",
      "outputs": [],
      "stateMutability": "nonpayable",
      "type": "function"
    },
    {
      "inputs": [
        {
          "internalType": "address",
          "name": "plugin_",
          "type": "address"
        },
        {
          "internalType": "bytes",
          "name": "data_",
          "type": "bytes"
        }
      ],
      "name": "interactionID",
      "outputs": [
        {
          "internalType": "uint256",
          "name": "id",
          "type": "uint256"
        }
      ],
      "stateMutability": "pure",
      "type": "function"
    },
    {
      "inputs": [
        {
          "internalType": "address",
          "name": "group_",
          "type": "address"
        }
      ],
      "name": "periodicGroupStateUpdate",
      "outputs": [
        {
          "internalType": "uint256",
          "name": "nextUpdateAt",
          "type": "uint256"
        }
      ],
      "stateMutability": "nonpayable",
      "type": "function"
    },
    {
      "inputs": [
        {
          "internalType": "uint256",
          "name": "",
          "type": "uint256"
        }
      ],
      "name": "pointsPerInteraction",
      "outputs": [
        {
          "internalType": "uint16",
          "name": "points",
          "type": "uint16"
        }
      ],
      "stateMutability": "view",
      "type": "function"
    },
    {
      "inputs": [
        {
          "internalType": "address",
          "name": "plugin_",
          "type": "address"
        },
        {
          "internalType": "bytes[]",
          "name": "datas_",
          "type": "bytes[]"
        },
        {
          "internalType": "uint8[]",
          "name": "points_",
          "type": "uint8[]"
        }
      ],
      "name": "setInteractionWeights",
      "outputs": [],
      "stateMutability": "nonpayable",
      "type": "function"
    },
    {
      "inputs": [
        {
          "internalType": "uint16",
          "name": "k",
          "type": "uint16"
        },
        {
          "internalType": "uint32",
          "name": "p",
          "type": "uint32"
        },
        {
          "internalType": "uint8",
          "name": "penalty",
          "type": "uint8"
        },
        {
          "internalType": "address",
          "name": "target_",
          "type": "address"
        }
      ],
      "name": "setKP",
      "outputs": [],
      "stateMutability": "nonpayable",
      "type": "function"
    },
    {
      "inputs": [
        {
          "internalType": "address",
          "name": "nova_",
          "type": "address"
        }
      ],
      "name": "updateCommitmentLevels",
      "outputs": [
        {
          "internalType": "uint256[]",
          "name": "commitments",
          "type": "uint256[]"
        }
      ],
      "stateMutability": "nonpayable",
      "type": "function"
    },
    {
      "inputs": [
        {
          "internalType": "address",
          "name": "who_",
          "type": "address"
        },
        {
          "internalType": "address",
          "name": "group_",
          "type": "address"
        }
      ],
      "name": "updateIndividualLR",
      "outputs": [
        {
          "internalType": "uint256",
          "name": "",
          "type": "uint256"
        }
      ],
      "stateMutability": "nonpayable",
      "type": "function"
    }
  ],
  "bytecode": {
    "object": "0x610100604052601e608052602860a081905260c05262278d0060e05234801561002757600080fd5b5060805160a05160c05160e05161364461007d600039600081816102e701526120510152600081816103d001526120bb015260008181610371015261208901526000818161017d015261201d01526136446000f3fe608060405234801561001057600080fd5b506004361061014d5760003560e01c80636e09f59c116100c3578063bf15e0171161007c578063bf15e0171461036c578063c4d66de8146103a5578063df3e30f0146103b8578063e5720d9a146103cb578063f1e0fa78146103f2578063fa31c78b1461041257600080fd5b80636e09f59c146102bc578063773697be146102cf578063780e7893146102e257806386d94e261461031e578063897bf2b614610346578063958ee3701461035957600080fd5b8063318e3d8c11610115578063318e3d8c14610230578063343bce3b146102505780633ad3b0411461027057806349fc23c814610285578063584f01be146101d85780635a53f24a1461029857600080fd5b8063083ad23b146101525780630b51806d146101785780630c4378e0146101b257806319d52ebe146101c55780632da9de59146101d8575b600080fd5b610165610160366004612cd4565b610453565b6040519081526020015b60405180910390f35b61019f7f000000000000000000000000000000000000000000000000000000000000000081565b60405161ffff909116815260200161016f565b6101656101c0366004612cf8565b61092d565b6101656101d3366004612cf8565b61094e565b6101eb6101e6366004612cf8565b610978565b60405161016f919060006080820190506001600160401b0380845116835280602085015116602084015250604083015160408301526060830151606083015292915050565b61024361023e366004612cd4565b610a00565b60405161016f9190612d78565b61026361025e366004612cd4565b610aa9565b60405161016f9190612d86565b61028361027e366004612e7f565b611128565b005b610165610293366004612ec5565b6112b0565b61019f6102a6366004612f11565b60036020526000908152604090205461ffff1681565b6102636102ca366004612cd4565b611494565b6102836102dd366004612fd5565b6117f5565b6103097f000000000000000000000000000000000000000000000000000000000000000081565b60405163ffffffff909116815260200161016f565b61033161032c366004612cd4565b611ab7565b6040805192835260208301919091520161016f565b6102836103543660046130bc565b611d10565b610165610367366004613126565b611eda565b6103937f000000000000000000000000000000000000000000000000000000000000000081565b60405160ff909116815260200161016f565b6102836103b3366004612cd4565b611ef7565b6101656103c6366004612cf8565b6123a3565b6103937f000000000000000000000000000000000000000000000000000000000000000081565b610405610400366004612cd4565b612b36565b60405161016f9190613175565b61043b610420366004612cd4565b6000602081905290815260409020546001600160a01b031681565b6040516001600160a01b03909116815260200161016f565b600080610460838461092d565b9050600061046d84610aa9565b5160008381526001602081815260409283902083516101408101855281546001600160401b038082168352600160401b808304821684870152600160801b8084048316858a0152600160c01b80850461ffff16606080880191909152600160d01b860460ff9081166080808a0191909152600160d81b880490911660a0808a0191909152600160e01b90970463ffffffff90811660c08a019081529b8a015460e08a015260028a01546101008a01528c519788018d526003998a0154808b0b8952600160201b8104909a0b9a88019a909a5293880485169a86019a909a52908604831698840198909852969093049092169482019490945261012084015282519151939450919261057e921661325c565b6001600160401b03169350846001600160a01b03166311aee3806040518163ffffffff1660e01b8152600401602060405180830381865afa1580156105c7573d6000803e3d6000fd5b505050506040513d601f19601f820116820180604052508101906105eb9190613283565b81610100015110610925576001600160401b034281168252600061010083015260408201511661062357670de0b6b3a764000061067b565b80604001516001600160401b03168260036000610640898a61092d565b815260208101919091526040016000205461065f919061ffff1661329c565b61067190670de0b6b3a764000061329c565b61067b91906132c9565b816101200151608001906001600160401b031690816001600160401b031681525050600081604001906001600160401b031690816001600160401b031681525050806001600085815260200190815260200160002060008201518160000160006101000a8154816001600160401b0302191690836001600160401b0316021790555060208201518160000160086101000a8154816001600160401b0302191690836001600160401b0316021790555060408201518160000160106101000a8154816001600160401b0302191690836001600160401b0316021790555060608201518160000160186101000a81548161ffff021916908361ffff160217905550608082015181600001601a6101000a81548160ff021916908360ff16021790555060a082015181600001601b6101000a81548160ff021916908360ff16021790555060c082015181600001601c6101000a81548163ffffffff021916908363ffffffff16021790555060e0820151816001015561010082015181600201556101208201518160030160008201518160000160006101000a81548163ffffffff021916908360030b63ffffffff16021790555060208201518160000160046101000a81548163ffffffff021916908360030b63ffffffff16021790555060408201518160000160086101000a8154816001600160401b0302191690836001600160401b0316021790555060608201518160000160106101000a8154816001600160401b0302191690836001600160401b0316021790555060808201518160000160186101000a8154816001600160401b0302191690836001600160401b0316021790555050509050508060c0015163ffffffff16426108f891906132dd565b6040519094507f7e91044b9074cca2ad930e24b921d5dc8550dd767398a411c3245a813067396990600090a15b505050919050565b60006109456001600160a01b038084169085166132dd565b90505b92915050565b600061095a8383610978565b604001519050806000036109485750670de0b6b3a764000092915050565b604080516080810182526000808252602082018190529181018290526060810191909152600260006109aa858561092d565b81526020808201929092526040908101600020815160808101835281546001600160401b038082168352600160401b90910416938101939093526001810154918301919091526002015460608201529392505050565b6040805160a08101825260008082526020820181905291810182905260608101829052608081019190915260016000610a39848561092d565b81526020808201929092526040908101600020815160a08101835260039182015480830b8252600160201b810490920b938101939093526001600160401b03600160401b8204811692840192909252600160801b810482166060840152600160c01b900416608082015292915050565b606060008290506000816001600160a01b03166388098e3a6040518163ffffffff1660e01b8152600401602060405180830381865afa158015610af0573d6000803e3d6000fd5b505050506040513d601f19601f82011682018060405250810190610b1491906132f0565b90506000846001600160a01b03166388098e3a6040518163ffffffff1660e01b8152600401602060405180830381865afa158015610b56573d6000803e3d6000fd5b505050506040513d601f19601f82011682018060405250810190610b7a91906132f0565b604051632ca62cd560e01b81526001600160a01b0387811660048301529190911690632ca62cd590602401600060405180830381865afa158015610bc2573d6000803e3d6000fd5b505050506040513d6000823e601f3d908101601f19168201604052610bea919081019061330d565b604051600162965c6f60e01b031981529091506001600160a01b0383169063ff69a39190610c1e908490899060040161339b565b600060405180830381865afa158015610c3b573d6000803e3d6000fd5b505050506040513d6000823e601f3d908101601f19168201604052610c6391908101906133f8565b9350600084604051602001610c78919061347d565b6040516020818303038152906040528051906020012090506000610c9c878861092d565b600081815260016020819052604090912001549091508203610cc2575050505050919050565b600081815260016020818152604080842081516101408101835281546001600160401b038082168352600160401b808304821684880152600160801b808404831685880152600160c01b80850461ffff16606080880191909152600160d01b860460ff9081166080808a0191909152600160d81b880490911660a0808a0191909152600160e01b90970463ffffffff1660c08901529a88015460e08801908152600289015461010089015289519687018a52600398890154808a0b8852600160201b810490990b9a87019a909a529287048416978501979097528504821690830152939092049092169381019390935261012081019290925284905290805b8851811015610e7557888181518110610ddc57610ddc6134b3565b602002602001015163ffffffff1660026000610e11898581518110610e0357610e036134b3565b60200260200101518e61092d565b815260200190815260200160002060000160006101000a8154816001600160401b0302191690836001600160401b03160217905550888181518110610e5857610e586134b3565b602002602001015182610e6b91906132dd565b9150600101610dc1565b6001600160401b03821660208085019190915260008581526001909152604090206003908101548751610eb392600160201b90920490910b906134c9565b61012084015160039190910b90528551610ecd90836132c9565b63ffffffff16836101200151606001906001600160401b031690816001600160401b031681525050826001600086815260200190815260200160002060008201518160000160006101000a8154816001600160401b0302191690836001600160401b0316021790555060208201518160000160086101000a8154816001600160401b0302191690836001600160401b0316021790555060408201518160000160106101000a8154816001600160401b0302191690836001600160401b0316021790555060608201518160000160186101000a81548161ffff021916908361ffff160217905550608082015181600001601a6101000a81548160ff021916908360ff16021790555060a082015181600001601b6101000a81548160ff021916908360ff16021790555060c082015181600001601c6101000a81548163ffffffff021916908363ffffffff16021790555060e0820151816001015561010082015181600201556101208201518160030160008201518160000160006101000a81548163ffffffff021916908360030b63ffffffff16021790555060208201518160000160046101000a81548163ffffffff021916908360030b63ffffffff16021790555060408201518160000160086101000a8154816001600160401b0302191690836001600160401b0316021790555060608201518160000160106101000a8154816001600160401b0302191690836001600160401b0316021790555060808201518160000160186101000a8154816001600160401b0302191690836001600160401b0316021790555050509050505050505050505050919050565b336000908152602081905260409020546001600160a01b031661115e57604051636bd1573560e11b815260040160405180910390fd5b600061116a3384611eda565b6000818152600360209081526040808320543384529183905282205492935061ffff16916001600160a01b03169082906002906111a7878561092d565b8152602081019190915260400160002080546008906111d7908490600160401b90046001600160401b031661325c565b92506101000a8154816001600160401b0302191690836001600160401b03160217905550816001600061120a848561092d565b81526020810191909152604001600020805460109061123a908490600160801b90046001600160401b031661325c565b92506101000a8154816001600160401b0302191690836001600160401b031602179055507fad3057a9cc4c01edafc716a0859a1eb89efe668102492ef7d75c1578f799739483856040516112a19291909182526001600160a01b0316602082015260400190565b60405180910390a15050505050565b60006127108411156112d5576040516367a546c560e01b815260040160405180910390fd5b871580156112e35750600083115b156113185760646112f4838561329c565b6112fe91906132c9565b61130890846134e9565b6001600160401b03169050611489565b60008661132d89670de0b6b3a764000061329c565b61133791906132c9565b90506000611345878361329c565b905080156113535780611356565b60015b90508415611364578461136e565b670de0b6b3a76400005b9450848661137d8160646134e9565b836113908e670de0b6b3a764000061329c565b61139a91906132c9565b6113a4919061329c565b6113ae91906132dd565b6113b8919061329c565b6001600160401b031692506113d5670de0b6b3a7640000846132c9565b156113ea576113e56064846132c9565b611411565b6113fc83670de0b6b3a76400006132c9565b61140790600a61329c565b611411908461329c565b9250678ac7230489e8000083111561142f57678ac7230489e8000092505b8261143b6064876132c9565b61144690602861329c565b61145090876132dd565b10801561145e575084600114155b156114865761146e6064866132c9565b61147990602861329c565b61148390866132dd565b92505b50505b979650505050505050565b606060006114a2838461092d565b60008181526001602081815260409283902083516101408101855281546001600160401b038082168352600160401b808304821684870152600160801b8084048316858a0152600160c01b80850461ffff16606080880191909152600160d01b860460ff9081166080808a0191909152600160d81b880490911660a0808a0191909152600160e01b90970463ffffffff90811660c08a019081529b8a015460e08a015260028a01546101008a01528c519788018d526003998a0154808b0b8952600160201b8104909a0b9a88019a909a5293880485169a86019a909a52908604831698840198909852969093049092169482019490945261012084015290518251939450919242926115b592169061325c565b6001600160401b031611156115dd576040516313a67ce960e31b815260040160405180910390fd5b6115e684610453565b506000846001600160a01b03166388098e3a6040518163ffffffff1660e01b8152600401602060405180830381865afa158015611627573d6000803e3d6000fd5b505050506040513d601f19601f8201168201806040525081019061164b91906132f0565b604051632ca62cd560e01b81526001600160a01b0387811660048301529190911690632ca62cd590602401600060405180830381865afa158015611693573d6000803e3d6000fd5b505050506040513d6000823e601f3d908101601f191682016040526116bb919081019061330d565b905080516001600160401b038111156116d6576116d6612dca565b6040519080825280602002602001820160405280156116ff578160200160208202803683370190505b5093506000805b825181101561177f57611732838281518110611724576117246134b3565b6020026020010151886123a3565b868281518110611744576117446134b3565b602002602001018181525050858181518110611762576117626134b3565b60200260200101518261177591906132dd565b9150600101611706565b825161178b90836132c9565b6000958652600160205260409095206003018054935163ffffffff16600160201b0267ffffffff00000000196001600160401b03909716600160401b02969096166fffffffffffffffffffffffff0000000019909416939093179490941790915550919392505050565b6001600160a01b038381166000908152602081905260409020541661182c5760405162ce6de560e51b815260040160405180910390fd5b6001600160a01b0383811660009081526020819052604090205416806324d7806c336040516001600160e01b031960e084901b1681526001600160a01b0390911660048201526024016020604051808303816000875af1158015611894573d6000803e3d6000fd5b505050506040513d601f19601f820116820180604052508101906118b891906134fc565b6118d557604051634755657960e01b815260040160405180910390fd5b81518351146118f757604051632d2dc95960e11b815260040160405180910390fd5b6000805b8451811015611a6d576119278686838151811061191a5761191a6134b3565b6020026020010151611eda565b915083818151811061193b5761193b6134b3565b602090810291909101810151600084815260039092526040909120805461ffff191660ff9092169182179055158015906119915750838181518110611982576119826134b3565b602002602001015160ff166000145b611a04578381815181106119a7576119a76134b3565b602002602001015160ff16600360006119c0868761092d565b81526020810191909152604001600090812080549091906119e690849061ffff1661351e565b92506101000a81548161ffff021916908361ffff1602179055611a64565b600082815260036020819052604082205461ffff1691611a24868061092d565b8152602081019190915260400160009081208054909190611a4a90849061ffff16613539565b92506101000a81548161ffff021916908361ffff16021790555b506001016118fb565b604080516001600160a01b0388168152602081018490527f49fdc5467ab6dc1a447e46542dd52bfb2c337f7cf111a0aa45f01e64802320bc910160405180910390a1505050505050565b6000806000836001600160a01b03166388098e3a6040518163ffffffff1660e01b8152600401602060405180830381865afa158015611afa573d6000803e3d6000fd5b505050506040513d601f19601f82011682018060405250810190611b1e91906132f0565b604051632ca62cd560e01b81526001600160a01b0386811660048301529190911690632ca62cd590602401600060405180830381865afa158015611b66573d6000803e3d6000fd5b505050506040513d6000823e601f3d908101601f19168201604052611b8e919081019061330d565b9050600080856001600160a01b03166388098e3a6040518163ffffffff1660e01b8152600401602060405180830381865afa158015611bd1573d6000803e3d6000fd5b505050506040513d601f19601f82011682018060405250810190611bf591906132f0565b6001600160a01b031663ff69a39184886040518363ffffffff1660e01b8152600401611c2292919061339b565b600060405180830381865afa158015611c3f573d6000803e3d6000fd5b505050506040513d6000823e601f3d908101601f19168201604052611c6791908101906133f8565b90505b8251821015611ceb5760026000611c9a858581518110611c8c57611c8c6134b3565b60200260200101518961092d565b81526020019081526020016000206001015484611cb791906132dd565b9350808281518110611ccb57611ccb6134b3565b602002602001015185611cde91906132dd565b9450816001019150611c6a565b8251611cf790866132c9565b9450825184611d0691906132c9565b9350505050915091565b6001600160a01b0381166324d7806c336040516001600160e01b031960e084901b1681526001600160a01b0390911660048201526024016020604051808303816000875af1158015611d66573d6000803e3d6000fd5b505050506040513d601f19601f82011682018060405250810190611d8a91906134fc565b611da757604051634755657960e01b815260040160405180910390fd5b611db58361ffff8616613554565b63ffffffff16600003611ddb5760405163d03c275960e01b815260040160405180910390fd5b6000611de8606484613574565b60ff16611df6606486613596565b611e016064886135b9565b61ffff16611e0f91906135ce565b611e1991906135ce565b63ffffffff161115611e3e57604051636a5d5bd160e01b815260040160405180910390fd5b6000611e4a828361092d565b6000818152600160209081526040918290208054600163ffff000160c01b0316600160c01b61ffff8b16026001600160e01b031617600160e01b63ffffffff8a16021760ff60d01b1916600160d01b60ff89160217905590516001600160a01b03851681529192507f2757fd3a49f344ee8595ec8cab6ee31b3cb632af95399f8a5864af9cdce6ffe391016112a1565b80516020820120600090610945906001600160a01b0385166132dd565b6000611f03338361092d565b9050611f0f828361092d565b60008181526001602081815260409283902083516101408101855281546001600160401b038082168352600160401b808304821684870152600160801b8084048316858a0152600160c01b80850461ffff16606080880191909152600160d01b860460ff9081166080808a0191909152600160d81b880490911660a0808a0191909152600160e01b90970463ffffffff1660c08901529988015460e088015260028801546101008801528a519586018b5260039788015480890b8752600160201b810490980b9886019890985291860483169884019890985296840481169482019490945294909104821692840192909252610120820192909252805192935091161561201b57505050565b7f0000000000000000000000000000000000000000000000000000000000000000816060019061ffff16908161ffff16815250507f00000000000000000000000000000000000000000000000000000000000000008160c0019063ffffffff16908163ffffffff16815250507f0000000000000000000000000000000000000000000000000000000000000000816080019060ff16908160ff16815250507f00000000000000000000000000000000000000000000000000000000000000008160a0019060ff16908160ff16815250504281600001906001600160401b031690816001600160401b031681525050806001600084815260200190815260200160002060008201518160000160006101000a8154816001600160401b0302191690836001600160401b0316021790555060208201518160000160086101000a8154816001600160401b0302191690836001600160401b0316021790555060408201518160000160106101000a8154816001600160401b0302191690836001600160401b0316021790555060608201518160000160186101000a81548161ffff021916908361ffff160217905550608082015181600001601a6101000a81548160ff021916908360ff16021790555060a082015181600001601b6101000a81548160ff021916908360ff16021790555060c082015181600001601c6101000a81548163ffffffff021916908363ffffffff16021790555060e0820151816001015561010082015181600201556101208201518160030160008201518160000160006101000a81548163ffffffff021916908360030b63ffffffff16021790555060208201518160000160046101000a81548163ffffffff021916908360030b63ffffffff16021790555060408201518160000160086101000a8154816001600160401b0302191690836001600160401b0316021790555060608201518160000160106101000a8154816001600160401b0302191690836001600160401b0316021790555060808201518160000160186101000a8154816001600160401b0302191690836001600160401b03160217905550505090505061233883610aa9565b50336000818152602081815260409182902080546001600160a01b0319166001600160a01b03881690811790915582519081529081019290925280517f90c9297b9014ed03bb767606f04c4c65cd5d16b18731e60860d3e41c49af2e4a9281900390910190a1505050565b60006001600160a01b0382166324d7806c336040516001600160e01b031960e084901b1681526001600160a01b0390911660048201526024016020604051808303816000875af11580156123fb573d6000803e3d6000fd5b505050506040513d601f19601f8201168201806040525081019061241f91906134fc565b61243c57604051634755657960e01b815260040160405180910390fd5b6000612448848461092d565b90506000612456848561092d565b90506000600260008481526020019081526020016000206040518060800160405290816000820160009054906101000a90046001600160401b03166001600160401b03166001600160401b031681526020016000820160089054906101000a90046001600160401b03166001600160401b03166001600160401b03168152602001600182015481526020016002820154815250509050600060016000848152602001908152602001600020604051806101400160405290816000820160009054906101000a90046001600160401b03166001600160401b03166001600160401b031681526020016000820160089054906101000a90046001600160401b03166001600160401b03166001600160401b031681526020016000820160109054906101000a90046001600160401b03166001600160401b03166001600160401b031681526020016000820160189054906101000a900461ffff1661ffff1661ffff16815260200160008201601a9054906101000a900460ff1660ff1660ff16815260200160008201601b9054906101000a900460ff1660ff1660ff16815260200160008201601c9054906101000a900463ffffffff1663ffffffff1663ffffffff1681526020016001820154815260200160028201548152602001600382016040518060a00160405290816000820160009054906101000a900460030b60030b60030b81526020016000820160049054906101000a900460030b60030b60030b81526020016000820160089054906101000a90046001600160401b03166001600160401b03166001600160401b031681526020016000820160109054906101000a90046001600160401b03166001600160401b03166001600160401b031681526020016000820160189054906101000a90046001600160401b03166001600160401b03166001600160401b03168152505081525050905080600001516001600160401b0316826060015111156127335750604001519250610948915050565b6001600160401b0342166060830152604082015160000361275657600160408301525b8160400151816060015161ffff168260400151836020015161277891906135eb565b61278291906135eb565b6001600160401b0316612795919061329c565b6000036127b5576040516318dc243b60e31b815260040160405180910390fd5b600181610100018181516127c991906132dd565b91508181525050806001600085815260200190815260200160002060008201518160000160006101000a8154816001600160401b0302191690836001600160401b0316021790555060208201518160000160086101000a8154816001600160401b0302191690836001600160401b0316021790555060408201518160000160106101000a8154816001600160401b0302191690836001600160401b0316021790555060608201518160000160186101000a81548161ffff021916908361ffff160217905550608082015181600001601a6101000a81548160ff021916908360ff16021790555060a082015181600001601b6101000a81548160ff021916908360ff16021790555060c082015181600001601c6101000a81548163ffffffff021916908363ffffffff16021790555060e0820151816001015561010082015181600201556101208201518160030160008201518160000160006101000a81548163ffffffff021916908360030b63ffffffff16021790555060208201518160000160046101000a81548163ffffffff021916908360030b63ffffffff16021790555060408201518160000160086101000a8154816001600160401b0302191690836001600160401b0316021790555060608201518160000160106101000a8154816001600160401b0302191690836001600160401b0316021790555060808201518160000160186101000a8154816001600160401b0302191690836001600160401b031602179055505050905050856001600160a01b03166311aee3806040518163ffffffff1660e01b8152600401602060405180830381865afa158015612a34573d6000803e3d6000fd5b505050506040513d601f19601f82011682018060405250810190612a589190613283565b81610100015110612a6e57612a6c86610453565b505b612ac482602001516001600160401b031683600001516001600160401b031683602001516001600160401b031684604001516001600160401b0316856060015161ffff168760400151876080015160ff166112b0565b6040808401918252600060208086018281529782526002908190529190208451815497516001600160401b03908116600160401b026fffffffffffffffffffffffffffffffff199099169116179690961786559051600186018190556060909301519401939093559250505092915050565b612bae6040805161014081018252600080825260208083018290528284018290526060808401839052608080850184905260a080860185905260c0860185905260e086018590526101008601859052865190810187528481529283018490529482018390528101829052928301529061012082015290565b60016000612bbc848561092d565b8152602080820192909252604090810160002081516101408101835281546001600160401b038082168352600160401b808304821684880152600160801b808404831685880152600160c01b80850461ffff16606080880191909152600160d01b860460ff9081166080808a0191909152600160d81b880490911660a0808a0191909152600160e01b90970463ffffffff1660c0890152600189015460e0890152600289015461010089015289519687018a52600398890154808a0b8852600160201b810490990b9a87019a909a529287048416978501979097528504821690830152939092049092169281019290925261012081019190915292915050565b6001600160a01b0381168114612cd157600080fd5b50565b600060208284031215612ce657600080fd5b8135612cf181612cbc565b9392505050565b60008060408385031215612d0b57600080fd5b8235612d1681612cbc565b91506020830135612d2681612cbc565b809150509250929050565b805160030b8252602081015160030b602083015260408101516001600160401b03808216604085015280606084015116606085015280608084015116608085015250505050565b60a081016109488284612d31565b6020808252825182820181905260009190848201906040850190845b81811015612dbe57835183529284019291840191600101612da2565b50909695505050505050565b634e487b7160e01b600052604160045260246000fd5b604051601f8201601f191681016001600160401b0381118282101715612e0857612e08612dca565b604052919050565b600082601f830112612e2157600080fd5b81356001600160401b03811115612e3a57612e3a612dca565b612e4d601f8201601f1916602001612de0565b818152846020838601011115612e6257600080fd5b816020850160208301376000918101602001919091529392505050565b60008060408385031215612e9257600080fd5b82356001600160401b03811115612ea857600080fd5b612eb485828601612e10565b9250506020830135612d2681612cbc565b600080600080600080600060e0888a031215612ee057600080fd5b505085359760208701359750604087013596606081013596506080810135955060a0810135945060c0013592509050565b600060208284031215612f2357600080fd5b5035919050565b60006001600160401b03821115612f4357612f43612dca565b5060051b60200190565b803560ff81168114612f5e57600080fd5b919050565b600082601f830112612f7457600080fd5b81356020612f89612f8483612f2a565b612de0565b82815260059290921b84018101918181019086841115612fa857600080fd5b8286015b84811015612fca57612fbd81612f4d565b8352918301918301612fac565b509695505050505050565b600080600060608486031215612fea57600080fd5b8335612ff581612cbc565b92506020848101356001600160401b038082111561301257600080fd5b818701915087601f83011261302657600080fd5b8135613034612f8482612f2a565b81815260059190911b8301840190848101908a83111561305357600080fd5b8585015b8381101561308b5780358581111561306f5760008081fd5b61307d8d89838a0101612e10565b845250918601918601613057565b509650505060408701359250808311156130a457600080fd5b50506130b286828701612f63565b9150509250925092565b600080600080608085870312156130d257600080fd5b843561ffff811681146130e457600080fd5b9350602085013563ffffffff811681146130fd57600080fd5b925061310b60408601612f4d565b9150606085013561311b81612cbc565b939692955090935050565b6000806040838503121561313957600080fd5b823561314481612cbc565b915060208301356001600160401b0381111561315f57600080fd5b61316b85828601612e10565b9150509250929050565b81516001600160401b031681526101c0810160208301516131a160208401826001600160401b03169052565b5060408301516131bc60408401826001600160401b03169052565b5060608301516131d2606084018261ffff169052565b5060808301516131e7608084018260ff169052565b5060a08301516131fc60a084018260ff169052565b5060c083015161321460c084018263ffffffff169052565b5060e083015160e08301526101008084015181840152506101208084015161323e82850182612d31565b505092915050565b634e487b7160e01b600052601160045260246000fd5b6001600160401b0381811683821601908082111561327c5761327c613246565b5092915050565b60006020828403121561329557600080fd5b5051919050565b808202811582820484141761094857610948613246565b634e487b7160e01b600052601260045260246000fd5b6000826132d8576132d86132b3565b500490565b8082018082111561094857610948613246565b60006020828403121561330257600080fd5b8151612cf181612cbc565b6000602080838503121561332057600080fd5b82516001600160401b0381111561333657600080fd5b8301601f8101851361334757600080fd5b8051613355612f8482612f2a565b81815260059190911b8201830190838101908783111561337457600080fd5b928401925b8284101561148957835161338c81612cbc565b82529284019290840190613379565b604080825283519082018190526000906020906060840190828701845b828110156133dd5781516001600160a01b0316845292840192908401906001016133b8565b5050506001600160a01b039490941692019190915250919050565b6000602080838503121561340b57600080fd5b82516001600160401b0381111561342157600080fd5b8301601f8101851361343257600080fd5b8051613440612f8482612f2a565b81815260059190911b8201830190838101908783111561345f57600080fd5b928401925b8284101561148957835182529284019290840190613464565b815160009082906020808601845b838110156134a75781518552938201939082019060010161348b565b50929695505050505050565b634e487b7160e01b600052603260045260246000fd5b818103600083128015838313168383128216171561327c5761327c613246565b8181038181111561094857610948613246565b60006020828403121561350e57600080fd5b81518015158114612cf157600080fd5b61ffff81811683821601908082111561327c5761327c613246565b61ffff82811682821603908082111561327c5761327c613246565b63ffffffff81811683821602808216919082811461323e5761323e613246565b600060ff831680613587576135876132b3565b8060ff84160491505092915050565b600063ffffffff808416806135ad576135ad6132b3565b92169190910492915050565b600061ffff808416806135ad576135ad6132b3565b63ffffffff81811683821601908082111561327c5761327c613246565b6001600160401b0381811683821602808216919082811461323e5761323e61324656fea2646970667358221220ce1424ec959ec1518e2819366caa413fbb86ca6603876803fcc7fb1cace532ce64736f6c63430008130033",
    "linkReferences": {}
  },
  "methodIdentifiers": {
    "DEFAULT_CAP_GROWTH()": "e5720d9a",
    "DEFAULT_K()": "0b51806d",
    "DEFAULT_PENALTY()": "bf15e017",
    "DEFAULT_PERIOD()": "780e7893",
    "bulkPeriodicUpdate(address)": "6e09f59c",
    "calculateLocalReputation(uint256,uint256,uint256,uint256,uint256,uint256,uint256)": "49fc23c8",
    "daoOfPlugin(address)": "fa31c78b",
    "getAvReputationAndCommitment(address)": "86d94e26",
    "getContextID(address,address)": "0c4378e0",
    "getGroupState(address)": "f1e0fa78",
    "getIndividualState(address,address)": "584f01be",
    "getLRof(address,address)": "2da9de59",
    "getLocalReputationScore(address,address)": "19d52ebe",
    "getPeriodNovaParameters(address)": "318e3d8c",
    "initialize(address)": "c4d66de8",
    "interaction(bytes,address)": "3ad3b041",
    "interactionID(address,bytes)": "958ee370",
    "periodicGroupStateUpdate(address)": "083ad23b",
    "pointsPerInteraction(uint256)": "5a53f24a",
    "setInteractionWeights(address,bytes[],uint8[])": "773697be",
    "setKP(uint16,uint32,uint8,address)": "897bf2b6",
    "updateCommitmentLevels(address)": "343bce3b",
    "updateIndividualLR(address,address)": "df3e30f0"
  },
  "id": 84
}