{
  "abi": [
    {
      "inputs": [
        {
          "internalType": "uint256",
          "name": "chainID",
          "type": "uint256"
        }
      ],
      "name": "autIDAddr",
      "outputs": [
        {
          "internalType": "address",
          "name": "",
          "type": "address"
        }
      ],
      "stateMutability": "pure",
      "type": "function"
    },
    {
      "inputs": [
        {
          "internalType": "uint256",
          "name": "chainID",
          "type": "uint256"
        }
      ],
      "name": "interactionAddr",
      "outputs": [
        {
          "internalType": "address",
          "name": "",
          "type": "address"
        }
      ],
      "stateMutability": "pure",
      "type": "function"
    },
    {
      "inputs": [
        {
          "internalType": "uint256",
          "name": "chainID",
          "type": "uint256"
        }
      ],
      "name": "localReputationAddr",
      "outputs": [
        {
          "internalType": "address",
          "name": "",
          "type": "address"
        }
      ],
      "stateMutability": "pure",
      "type": "function"
    },
    {
      "inputs": [
        {
          "internalType": "uint256",
          "name": "chainID",
          "type": "uint256"
        }
      ],
      "name": "moduleRegistryAddr",
      "outputs": [
        {
          "internalType": "address",
          "name": "",
          "type": "address"
        }
      ],
      "stateMutability": "pure",
      "type": "function"
    },
    {
      "inputs": [
        {
          "internalType": "uint256",
          "name": "chainID",
          "type": "uint256"
        }
      ],
      "name": "novaFactoryAddr",
      "outputs": [
        {
          "internalType": "address",
          "name": "",
          "type": "address"
        }
      ],
      "stateMutability": "pure",
      "type": "function"
    },
    {
      "inputs": [
        {
          "internalType": "uint256",
          "name": "chainID",
          "type": "uint256"
        }
      ],
      "name": "novaRegistryAddr",
      "outputs": [
        {
          "internalType": "address",
          "name": "",
          "type": "address"
        }
      ],
      "stateMutability": "pure",
      "type": "function"
    },
    {
      "inputs": [
        {
          "internalType": "uint256",
          "name": "chainID",
          "type": "uint256"
        }
      ],
      "name": "pluginRegistryAddr",
      "outputs": [
        {
          "internalType": "address",
          "name": "",
          "type": "address"
        }
      ],
      "stateMutability": "pure",
      "type": "function"
    }
  ],
  "bytecode": {
    "object": "0x61038761003a600b82828239805160001a60731461002d57634e487b7160e01b600052600060045260246000fd5b30600052607381538281f3fe73000000000000000000000000000000000000000030146080604052600436106100875760003560e01c8063bf27191a11610065578063bf27191a146100e1578063c99e595c146100f4578063db898e9914610107578063e31ed1551461011a57600080fd5b8063177de7a71461008c57806339f8b1cd146100bb5780638be33f5b146100ce575b600080fd5b61009f61009a366004610338565b61012d565b6040516001600160a01b03909116815260200160405180910390f35b61009f6100c9366004610338565b61017c565b61009f6100dc366004610338565b6101c6565b61009f6100ef366004610338565b610210565b61009f610102366004610338565b61025a565b61009f610115366004610338565b6102a4565b61009f610128366004610338565b6102ee565b60008160050361015257507378b41e5ae04b633cc92d28c968a93d98f4f62b0b919050565b8162013881036101775750738ffd9e16576b631ae537aaaaa64d2255d0f90991919050565b919050565b6000816005036101a15750732fe82fa4b6b5dcaa19a8b8b36a6af0e2b0958a49919050565b8162013881036101775750734430012ccac4640845fe8818232c15bc8baeb08f919050565b6000816005036101eb57507399d553f8cb3f2d3c0cc5ccc7edb05e054b216663919050565b81620138810361017757507354d4cc964e8e6d865baabbd1586ee1a43465f696919050565b600081600503610235575073d52d1a77b4ff12d2f683db20aa9e437c5889e935919050565b8162013881036101775750735bb9686501bab529a8911d4b23768046b7218bec919050565b60008160050361027f575073f8f34cfbf160ef9aec1f92f521ffcc057bc9a5ed919050565b81620138810361017757507322f55a832aa88493abd6da5366eb609ff6483314919050565b6000816005036102c9575073d15d575021a1547183b865196f6d60bf6a909432919050565b81620138810361017757507339f88d86e608acf50fa268e5c487b1b0c9798351919050565b60008160050361031357507343103084d6d02b4f793a1ebe85854b4e0e8d18a2919050565b816201388103610177575073d74c7d03af2b04bab0b3cd6ce5339e126a44a4f5919050565b60006020828403121561034a57600080fd5b503591905056fea2646970667358221220eb9e3452ca3d56955e29bdd38064083e7ebc0a298aa8cc6d15c8ea95888f529b64736f6c63430008130033",
    "linkReferences": {}
  },
  "methodIdentifiers": {
    "autIDAddr(uint256)": "c99e595c",
    "interactionAddr(uint256)": "39f8b1cd",
    "localReputationAddr(uint256)": "8be33f5b",
    "moduleRegistryAddr(uint256)": "e31ed155",
    "novaFactoryAddr(uint256)": "177de7a7",
    "novaRegistryAddr(uint256)": "bf27191a",
    "pluginRegistryAddr(uint256)": "db898e99"
  },
  "id": 144
}