{
  "abi": [
    {
      "inputs": [
        {
          "internalType": "address",
          "name": "controller_",
          "type": "address"
        }
      ],
      "stateMutability": "nonpayable",
      "type": "constructor"
    },
    {
      "anonymous": false,
      "inputs": [
        {
          "indexed": false,
          "internalType": "address",
          "name": "to",
          "type": "address"
        },
        {
          "indexed": false,
          "internalType": "uint256",
          "name": "amount",
          "type": "uint256"
        }
      ],
      "name": "ClaimInvitationIssued",
      "type": "event"
    },
    {
      "anonymous": false,
      "inputs": [
        {
          "indexed": false,
          "internalType": "address",
          "name": "from",
          "type": "address"
        },
        {
          "indexed": false,
          "internalType": "address",
          "name": "to",
          "type": "address"
        }
      ],
      "name": "ClaimInvitationTransferred",
      "type": "event"
    },
    {
      "anonymous": false,
      "inputs": [
        {
          "indexed": false,
          "internalType": "address",
          "name": "who",
          "type": "address"
        }
      ],
      "name": "Claimed",
      "type": "event"
    },
    {
      "anonymous": false,
      "inputs": [
        {
          "indexed": true,
          "internalType": "address",
          "name": "previousOwner",
          "type": "address"
        },
        {
          "indexed": true,
          "internalType": "address",
          "name": "newOwner",
          "type": "address"
        }
      ],
      "name": "OwnershipTransferred",
      "type": "event"
    },
    {
      "inputs": [
        {
          "internalType": "address",
          "name": "",
          "type": "address"
        }
      ],
      "name": "claimCapacityOf",
      "outputs": [
        {
          "internalType": "uint256",
          "name": "",
          "type": "uint256"
        }
      ],
      "stateMutability": "view",
      "type": "function"
    },
    {
      "inputs": [],
      "name": "confirmClaim",
      "outputs": [],
      "stateMutability": "nonpayable",
      "type": "function"
    },
    {
      "inputs": [],
      "name": "controller",
      "outputs": [
        {
          "internalType": "address",
          "name": "",
          "type": "address"
        }
      ],
      "stateMutability": "view",
      "type": "function"
    },
    {
      "inputs": [
        {
          "internalType": "address",
          "name": "",
          "type": "address"
        }
      ],
      "name": "hasClaimed",
      "outputs": [
        {
          "internalType": "bool",
          "name": "",
          "type": "bool"
        }
      ],
      "stateMutability": "view",
      "type": "function"
    },
    {
      "inputs": [
        {
          "internalType": "address",
          "name": "to",
          "type": "address"
        },
        {
          "internalType": "uint256",
          "name": "amount",
          "type": "uint256"
        }
      ],
      "name": "issueClaimInvitations",
      "outputs": [],
      "stateMutability": "nonpayable",
      "type": "function"
    },
    {
      "inputs": [
        {
          "internalType": "address[]",
          "name": "recipients",
          "type": "address[]"
        },
        {
          "internalType": "uint256[]",
          "name": "amounts",
          "type": "uint256[]"
        }
      ],
      "name": "issueClaimInvitationsBulk",
      "outputs": [],
      "stateMutability": "nonpayable",
      "type": "function"
    },
    {
      "inputs": [],
      "name": "owner",
      "outputs": [
        {
          "internalType": "address",
          "name": "",
          "type": "address"
        }
      ],
      "stateMutability": "view",
      "type": "function"
    },
    {
      "inputs": [],
      "name": "renounceOwnership",
      "outputs": [],
      "stateMutability": "nonpayable",
      "type": "function"
    },
    {
      "inputs": [
        {
          "internalType": "address",
          "name": "to",
          "type": "address"
        }
      ],
      "name": "transferClaimInvitationTo",
      "outputs": [],
      "stateMutability": "nonpayable",
      "type": "function"
    },
    {
      "inputs": [
        {
          "internalType": "address",
          "name": "newOwner",
          "type": "address"
        }
      ],
      "name": "transferOwnership",
      "outputs": [],
      "stateMutability": "nonpayable",
      "type": "function"
    }
  ],
  "bytecode": {
    "object": "0x60a060405234801561001057600080fd5b506040516109fe3803806109fe83398101604081905261002f91610099565b61003833610049565b6001600160a01b03166080526100c9565b600080546001600160a01b038381166001600160a01b0319831681178455604051919092169283917f8be0079c531659141344cd1fd0a4f28419497f9722a3daafe3b4186f6b6457e09190a35050565b6000602082840312156100ab57600080fd5b81516001600160a01b03811681146100c257600080fd5b9392505050565b6080516109136100eb6000396000818161019101526101be01526109136000f3fe608060405234801561001057600080fd5b506004361061009e5760003560e01c8063b6aea7b411610066578063b6aea7b414610140578063ccba0a0614610153578063e99526eb14610166578063f2fde38b14610179578063f77c47911461018c57600080fd5b80631049fef8146100a3578063391b6727146100d6578063715018a6146100e057806373b2e80e146100e85780638da5cb5b1461011b575b600080fd5b6100c36100b1366004610764565b60026020526000908152604090205481565b6040519081526020015b60405180910390f35b6100de6101b3565b005b6100de610342565b61010b6100f6366004610764565b60016020526000908152604090205460ff1681565b60405190151581526020016100cd565b6000546001600160a01b03165b6040516001600160a01b0390911681526020016100cd565b6100de61014e366004610786565b610356565b6100de610161366004610764565b6103d1565b6100de6101743660046107fc565b610565565b6100de610187366004610764565b610625565b6101287f000000000000000000000000000000000000000000000000000000000000000081565b336001600160a01b037f000000000000000000000000000000000000000000000000000000000000000016146102415760405162461bcd60e51b815260206004820152602860248201527f416c6c6f776c6973743a206f6e6c7920617574686f72697a656420627920636f604482015267373a3937b63632b960c11b60648201526084015b60405180910390fd5b336000908152600260205260409020541580159061026f57503360009081526001602052604090205460ff16155b6102d15760405162461bcd60e51b815260206004820152602d60248201527f416c6c6f776c6973743a206e6f206361706163697479206f722068617320636c60448201526c61696d656420616c726561647960981b6064820152608401610238565b3360009081526002602052604081208054916102ec8361087e565b909155505033600081815260016020818152604092839020805460ff191690921790915590519182527fb449c24d261a59627b537c8c41c57ab559f4205c56bea745ff61c5521bece214910160405180910390a1565b61034a61069e565b61035460006106f8565b565b61035e61069e565b6001600160a01b03821660009081526002602052604081208054839290610386908490610895565b9091555050604080516001600160a01b0384168152602081018390527f7e3761f8f253cc9be095a955a9cc9973d66c5490d1f9d7f6d23e1c91777c3531910160405180910390a15050565b33600090815260026020526040812054900361042f5760405162461bcd60e51b815260206004820152601a60248201527f416c6c6f776c6973743a206e6f7468696e6720746f2073656e640000000000006044820152606401610238565b6001600160a01b03811660009081526002602052604090205415801561046e57506001600160a01b03811660009081526001602052604090205460ff16155b6104d85760405162461bcd60e51b815260206004820152603560248201527f416c6c6f776c6973743a20726563697069656e742073686f756c64206265636f6044820152741b5948195b1a59da589b19481a5b881c995cdd5b1d605a1b6064820152608401610238565b3360009081526002602052604081208054916104f38361087e565b90915550506001600160a01b038116600090815260026020526040812080549161051c836108ae565b9091555050604080513381526001600160a01b03831660208201527f52eaec956103e89f7bd585f220d4d73c47b9d42dd818d910d2f02acbd0f074dd910160405180910390a150565b61056d61069e565b8281146105bc5760405162461bcd60e51b815260206004820152601b60248201527f416c6c6f776c6973743a206c656e67746873206d69736d6174636800000000006044820152606401610238565b60005b80841461061e5761060e8585838181106105db576105db6108c7565b90506020020160208101906105f09190610764565b848484818110610602576106026108c7565b90506020020135610356565b610617816108ae565b90506105bf565b5050505050565b61062d61069e565b6001600160a01b0381166106925760405162461bcd60e51b815260206004820152602660248201527f4f776e61626c653a206e6577206f776e657220697320746865207a65726f206160448201526564647265737360d01b6064820152608401610238565b61069b816106f8565b50565b6000546001600160a01b031633146103545760405162461bcd60e51b815260206004820181905260248201527f4f776e61626c653a2063616c6c6572206973206e6f7420746865206f776e65726044820152606401610238565b600080546001600160a01b038381166001600160a01b0319831681178455604051919092169283917f8be0079c531659141344cd1fd0a4f28419497f9722a3daafe3b4186f6b6457e09190a35050565b80356001600160a01b038116811461075f57600080fd5b919050565b60006020828403121561077657600080fd5b61077f82610748565b9392505050565b6000806040838503121561079957600080fd5b6107a283610748565b946020939093013593505050565b60008083601f8401126107c257600080fd5b50813567ffffffffffffffff8111156107da57600080fd5b6020830191508360208260051b85010111156107f557600080fd5b9250929050565b6000806000806040858703121561081257600080fd5b843567ffffffffffffffff8082111561082a57600080fd5b610836888389016107b0565b9096509450602087013591508082111561084f57600080fd5b5061085c878288016107b0565b95989497509550505050565b634e487b7160e01b600052601160045260246000fd5b60008161088d5761088d610868565b506000190190565b808201808211156108a8576108a8610868565b92915050565b6000600182016108c0576108c0610868565b5060010190565b634e487b7160e01b600052603260045260246000fdfea2646970667358221220612b4ed87e63f2b9c12dceb4ba2138fb59d1b76d763f6391d1591fd38fcaf26764736f6c63430008130033",
    "linkReferences": {}
  },
  "methodIdentifiers": {
    "claimCapacityOf(address)": "1049fef8",
    "confirmClaim()": "391b6727",
    "controller()": "f77c4791",
    "hasClaimed(address)": "73b2e80e",
    "issueClaimInvitations(address,uint256)": "b6aea7b4",
    "issueClaimInvitationsBulk(address[],uint256[])": "e99526eb",
    "owner()": "8da5cb5b",
    "renounceOwnership()": "715018a6",
    "transferClaimInvitationTo(address)": "ccba0a06",
    "transferOwnership(address)": "f2fde38b"
  },
  "id": 93
}