{
  "abi": [
    {
      "inputs": [],
      "stateMutability": "nonpayable",
      "type": "constructor"
    },
    {
      "inputs": [],
      "name": "AlreadyDeployedANova",
      "type": "error"
    },
    {
      "inputs": [],
      "name": "AlreadyPlusOne",
      "type": "error"
    },
    {
      "inputs": [],
      "name": "Unallowed",
      "type": "error"
    },
    {
      "anonymous": false,
      "inputs": [
        {
          "indexed": false,
          "internalType": "address",
          "name": "who",
          "type": "address"
        }
      ],
      "name": "AddedToAllowList",
      "type": "event"
    },
    {
      "anonymous": false,
      "inputs": [
        {
          "indexed": false,
          "internalType": "address",
          "name": "who",
          "type": "address"
        }
      ],
      "name": "RemovedFromAllowList",
      "type": "event"
    },
    {
      "inputs": [
        {
          "internalType": "address[]",
          "name": "addrsToAdd_",
          "type": "address[]"
        }
      ],
      "name": "addBatchToAllowlist",
      "outputs": [],
      "stateMutability": "nonpayable",
      "type": "function"
    },
    {
      "inputs": [
        {
          "internalType": "address",
          "name": "owner_",
          "type": "address"
        }
      ],
      "name": "addOwner",
      "outputs": [],
      "stateMutability": "nonpayable",
      "type": "function"
    },
    {
      "inputs": [
        {
          "internalType": "address",
          "name": "addrToAdd_",
          "type": "address"
        }
      ],
      "name": "addToAllowlist",
      "outputs": [],
      "stateMutability": "nonpayable",
      "type": "function"
    },
    {
      "inputs": [
        {
          "internalType": "address",
          "name": "subject",
          "type": "address"
        }
      ],
      "name": "canAllowList",
      "outputs": [
        {
          "internalType": "bool",
          "name": "",
          "type": "bool"
        }
      ],
      "stateMutability": "view",
      "type": "function"
    },
    {
      "inputs": [
        {
          "internalType": "address",
          "name": "",
          "type": "address"
        }
      ],
      "name": "isAllowListed",
      "outputs": [
        {
          "internalType": "bool",
          "name": "",
          "type": "bool"
        }
      ],
      "stateMutability": "view",
      "type": "function"
    },
    {
      "inputs": [
        {
          "internalType": "address",
          "name": "_addr",
          "type": "address"
        }
      ],
      "name": "isAllowed",
      "outputs": [
        {
          "internalType": "bool",
          "name": "",
          "type": "bool"
        }
      ],
      "stateMutability": "view",
      "type": "function"
    },
    {
      "inputs": [
        {
          "internalType": "address",
          "name": "subject",
          "type": "address"
        }
      ],
      "name": "isAllowedOwner",
      "outputs": [
        {
          "internalType": "bool",
          "name": "",
          "type": "bool"
        }
      ],
      "stateMutability": "view",
      "type": "function"
    },
    {
      "inputs": [
        {
          "internalType": "address",
          "name": "",
          "type": "address"
        }
      ],
      "name": "isOwner",
      "outputs": [
        {
          "internalType": "bool",
          "name": "",
          "type": "bool"
        }
      ],
      "stateMutability": "view",
      "type": "function"
    },
    {
      "inputs": [
        {
          "internalType": "address",
          "name": "",
          "type": "address"
        }
      ],
      "name": "plusOne",
      "outputs": [
        {
          "internalType": "address",
          "name": "",
          "type": "address"
        }
      ],
      "stateMutability": "view",
      "type": "function"
    },
    {
      "inputs": [
        {
          "internalType": "address[]",
          "name": "addrs_",
          "type": "address[]"
        }
      ],
      "name": "removeBatchFromAllowlist",
      "outputs": [],
      "stateMutability": "nonpayable",
      "type": "function"
    },
    {
      "inputs": [
        {
          "internalType": "address",
          "name": "addrToAdd_",
          "type": "address"
        }
      ],
      "name": "removeFromAllowlist",
      "outputs": [],
      "stateMutability": "nonpayable",
      "type": "function"
    }
  ],
  "bytecode": {
    "object": "0x608060405234801561001057600080fd5b5033600090815260208181526040808320805460ff19908116600190811790925592819052922080549091169091179055610c4a806100506000396000f3fe608060405234801561001057600080fd5b50600436106100a95760003560e01c8063745d6bff11610071578063745d6bff14610144578063846be7ed14610157578063974b15211461016a578063babcc53914610196578063f31264bb146101c2578063f8e86ece1461020357600080fd5b80632f54bf6e146100ae578063519cecce146100e65780635da93d7e146100fb5780637065cb481461010e57806370dd8d2e14610121575b600080fd5b6100d16100bc366004610ae0565b60006020819052908152604090205460ff1681565b60405190151581526020015b60405180910390f35b6100f96100f4366004610b18565b610216565b005b6100f9610109366004610ae0565b6104ee565b6100f961011c366004610ae0565b6105e3565b6100d161012f366004610ae0565b60016020526000908152604090205460ff1681565b6100d1610152366004610ae0565b6106bb565b6100f9610165366004610b18565b610723565b6100d1610178366004610ae0565b6001600160a01b031660009081526020819052604090205460ff1690565b6100d16101a4366004610ae0565b6001600160a01b031660009081526001602052604090205460ff1690565b6101eb6101d0366004610ae0565b6002602052600090815260409020546001600160a01b031681565b6040516001600160a01b0390911681526020016100dd565b6100f9610211366004610ae0565b61095a565b6000356001600160e01b031916637c74376760e11b14801561024757503360009081526001602052604090205460ff165b156103a157336000908152600260205260409020546001600160a01b0316156102835760405163b1e153ab60e01b815260040160405180910390fd5b60005b815181101561039d576001908101906000836102a28385610bdd565b815181106102b2576102b2610bfe565b6020908102919091018101516001600160a01b031682528101919091526040016000205460ff16610286576001806000846102ed8386610bdd565b815181106102fd576102fd610bfe565b6020908102919091018101516001600160a01b03168252810191909152604001600020805460ff19169115159190911790557fa29fd8e8b328183429f81e3acc10dc14196777efa4ccd23165f71d4dd027ac1b8261035c600184610bdd565b8151811061036c5761036c610bfe565b602002602001015160405161039091906001600160a01b0391909116815260200190565b60405180910390a1610286565b5050565b3360009081526020819052604090205460ff166103d15760405163e087598d60e01b815260040160405180910390fd5b60005b815181101561039d576001908101906000836103f08385610bdd565b8151811061040057610400610bfe565b6020908102919091018101516001600160a01b031682528101919091526040016000205460ff166103d45760018060008461043b8386610bdd565b8151811061044b5761044b610bfe565b6020908102919091018101516001600160a01b03168252810191909152604001600020805460ff19169115159190911790557fa29fd8e8b328183429f81e3acc10dc14196777efa4ccd23165f71d4dd027ac1b826104aa600184610bdd565b815181106104ba576104ba610bfe565b60200260200101516040516104de91906001600160a01b0391909116815260200190565b60405180910390a16103d4565b50565b6000356001600160e01b031916637c74376760e11b14801561051f57503360009081526001602052604090205460ff165b156105b357336000908152600260205260409020546001600160a01b03161561055b5760405163b1e153ab60e01b815260040160405180910390fd5b6001600160a01b038116600081815260016020908152604091829020805460ff1916905590519182527f29beb8aae77ba82cbb9d5a13ac9153539286534ddea0dc0a0aa61c484585a61491015b60405180910390a150565b3360009081526020819052604090205460ff1661055b5760405163e087598d60e01b815260040160405180910390fd5b6000356001600160e01b031916637c74376760e11b14801561061457503360009081526001602052604090205460ff165b1561068b57336000908152600260205260409020546001600160a01b0316156106505760405163b1e153ab60e01b815260040160405180910390fd5b6001600160a01b0316600090815260208181526040808320805460ff81161560ff199182161790915560019283905292208054909216179055565b3360009081526020819052604090205460ff166106505760405163e087598d60e01b815260040160405180910390fd5b6001600160a01b03811660009081526020819052604081205460ff168061071d57506001600160a01b03821660009081526001602052604090205460ff16801561071d57506001600160a01b0382811660009081526002602052604090205416155b92915050565b6000356001600160e01b031916637c74376760e11b14801561075457503360009081526001602052604090205460ff165b1561085d57336000908152600260205260409020546001600160a01b0316156107905760405163b1e153ab60e01b815260040160405180910390fd5b60005b815181101561039d576000600160008484815181106107b4576107b4610bfe565b60200260200101516001600160a01b03166001600160a01b0316815260200190815260200160002060006101000a81548160ff0219169083151502179055508060010190507f29beb8aae77ba82cbb9d5a13ac9153539286534ddea0dc0a0aa61c484585a61482828151811061082c5761082c610bfe565b602002602001015160405161085091906001600160a01b0391909116815260200190565b60405180910390a1610793565b3360009081526020819052604090205460ff1661088d5760405163e087598d60e01b815260040160405180910390fd5b60005b815181101561039d576000600160008484815181106108b1576108b1610bfe565b60200260200101516001600160a01b03166001600160a01b0316815260200190815260200160002060006101000a81548160ff0219169083151502179055508060010190507f29beb8aae77ba82cbb9d5a13ac9153539286534ddea0dc0a0aa61c484585a61482828151811061092957610929610bfe565b602002602001015160405161094d91906001600160a01b0391909116815260200190565b60405180910390a1610890565b6000356001600160e01b031916637c74376760e11b14801561098b57503360009081526001602052604090205460ff165b15610a9457336000908152600260205260409020546001600160a01b0316156109c75760405163b1e153ab60e01b815260040160405180910390fd5b6001600160a01b03811660009081526001602052604090205460ff166104eb576001600160a01b0381166000908152600160208181526040808420805460ff191690931790925533835282905290205460ff16610a5b576001600160a01b0381166000818152600260205260408082208054336001600160a01b031991821681179092559083529120805490911690911790555b6040516001600160a01b03821681527fa29fd8e8b328183429f81e3acc10dc14196777efa4ccd23165f71d4dd027ac1b906020016105a8565b3360009081526020819052604090205460ff166109c75760405163e087598d60e01b815260040160405180910390fd5b80356001600160a01b0381168114610adb57600080fd5b919050565b600060208284031215610af257600080fd5b610afb82610ac4565b9392505050565b634e487b7160e01b600052604160045260246000fd5b60006020808385031215610b2b57600080fd5b823567ffffffffffffffff80821115610b4357600080fd5b818501915085601f830112610b5757600080fd5b813581811115610b6957610b69610b02565b8060051b604051601f19603f83011681018181108582111715610b8e57610b8e610b02565b604052918252848201925083810185019188831115610bac57600080fd5b938501935b82851015610bd157610bc285610ac4565b84529385019392850192610bb1565b98975050505050505050565b8181038181111561071d57634e487b7160e01b600052601160045260246000fd5b634e487b7160e01b600052603260045260246000fdfea2646970667358221220d31c16c741fcb9fadd8c036cc5f89b0a3e136c6390ee59b07a2ec22bb2881a2b64736f6c63430008130033",
    "linkReferences": {}
  },
  "methodIdentifiers": {
    "addBatchToAllowlist(address[])": "519cecce",
    "addOwner(address)": "7065cb48",
    "addToAllowlist(address)": "f8e86ece",
    "canAllowList(address)": "745d6bff",
    "isAllowListed(address)": "70dd8d2e",
    "isAllowed(address)": "babcc539",
    "isAllowedOwner(address)": "974b1521",
    "isOwner(address)": "2f54bf6e",
    "plusOne(address)": "f31264bb",
    "removeBatchFromAllowlist(address[])": "846be7ed",
    "removeFromAllowlist(address)": "5da93d7e"
  },
  "id": 92
}