{
  "abi": [
    {
      "inputs": [
        {
          "internalType": "address",
          "name": "daoAddress",
          "type": "address"
        },
        {
          "internalType": "address",
          "name": "member",
          "type": "address"
        }
      ],
      "name": "isMember",
      "outputs": [
        {
          "internalType": "bool",
          "name": "",
          "type": "bool"
        }
      ],
      "stateMutability": "view",
      "type": "function"
    }
  ],
  "bytecode": {
    "object": "0x608060405234801561001057600080fd5b5061022d806100206000396000f3fe608060405234801561001057600080fd5b506004361061002b5760003560e01c806339ac7a0814610030575b600080fd5b61004361003e36600461019a565b610057565b604051901515815260200160405180910390f35b60006001600160a01b0383166100b45760405162461bcd60e51b815260206004820152601760248201527f41757449443a2064616f4164647265737320656d70747900000000000000000060448201526064015b60405180910390fd5b6001600160a01b0382166101005760405162461bcd60e51b815260206004820152601360248201527241757449443a206d656d62657220656d70747960681b60448201526064016100ab565b60405163dce1544960e01b81526001600160a01b0383811660048301526000602483015284169063dce1544990604401602060405180830381865afa925050508015610169575060408051601f3d908101601f19168201909252610166918101906101d3565b60015b1561017857506001905061017c565b5060005b92915050565b6001600160a01b038116811461019757600080fd5b50565b600080604083850312156101ad57600080fd5b82356101b881610182565b915060208301356101c881610182565b809150509250929050565b6000602082840312156101e557600080fd5b81516101f081610182565b939250505056fea2646970667358221220416b3c5e4fbbae79c889b5d5f71a8dc2613015bf447aa9d024dede47ea050d7464736f6c63430008130033",
    "linkReferences": {}
  },
  "methodIdentifiers": {
    "isMember(address,address)": "39ac7a08"
  },
  "id": 39
}