{
  "abi": [
    {
      "inputs": [
        {
          "internalType": "address",
          "name": "dao_",
          "type": "address"
        }
      ],
      "stateMutability": "nonpayable",
      "type": "constructor"
    },
    {
      "inputs": [],
      "name": "AuthorityExpected",
      "type": "error"
    },
    {
      "inputs": [],
      "name": "FunctionNotImplemented",
      "type": "error"
    },
    {
      "anonymous": false,
      "inputs": [
        {
          "indexed": false,
          "internalType": "address",
          "name": "nova",
          "type": "address"
        },
        {
          "indexed": false,
          "internalType": "address",
          "name": "repAlgo",
          "type": "address"
        }
      ],
      "name": "LocalRepALogChangedFor",
      "type": "event"
    },
    {
      "inputs": [
        {
          "internalType": "address",
          "name": "NewLocalRepAlgo_",
          "type": "address"
        }
      ],
      "name": "changeInUseLocalRep",
      "outputs": [],
      "stateMutability": "nonpayable",
      "type": "function"
    },
    {
      "inputs": [],
      "name": "currentReputationAddr",
      "outputs": [
        {
          "internalType": "address",
          "name": "",
          "type": "address"
        }
      ],
      "stateMutability": "view",
      "type": "function"
    },
    {
      "inputs": [],
      "name": "daoAddress",
      "outputs": [
        {
          "internalType": "address",
          "name": "",
          "type": "address"
        }
      ],
      "stateMutability": "view",
      "type": "function"
    },
    {
      "inputs": [],
      "name": "deployer",
      "outputs": [
        {
          "internalType": "address",
          "name": "",
          "type": "address"
        }
      ],
      "stateMutability": "view",
      "type": "function"
    },
    {
      "inputs": [
        {
          "internalType": "string",
          "name": "x",
          "type": "string"
        }
      ],
      "name": "incrementNumber",
      "outputs": [
        {
          "internalType": "uint256",
          "name": "",
          "type": "uint256"
        }
      ],
      "stateMutability": "nonpayable",
      "type": "function"
    },
    {
      "inputs": [],
      "name": "incrementNumberPlusOne",
      "outputs": [
        {
          "internalType": "uint256",
          "name": "",
          "type": "uint256"
        }
      ],
      "stateMutability": "nonpayable",
      "type": "function"
    },
    {
      "inputs": [],
      "name": "isActive",
      "outputs": [
        {
          "internalType": "bool",
          "name": "",
          "type": "bool"
        }
      ],
      "stateMutability": "view",
      "type": "function"
    },
    {
      "inputs": [],
      "name": "lastReputationAddr",
      "outputs": [
        {
          "internalType": "address",
          "name": "",
          "type": "address"
        }
      ],
      "stateMutability": "view",
      "type": "function"
    },
    {
      "inputs": [],
      "name": "moduleId",
      "outputs": [
        {
          "internalType": "uint256",
          "name": "",
          "type": "uint256"
        }
      ],
      "stateMutability": "view",
      "type": "function"
    },
    {
      "inputs": [],
      "name": "number",
      "outputs": [
        {
          "internalType": "uint256",
          "name": "",
          "type": "uint256"
        }
      ],
      "stateMutability": "view",
      "type": "function"
    },
    {
      "inputs": [],
      "name": "owner",
      "outputs": [
        {
          "internalType": "address",
          "name": "",
          "type": "address"
        }
      ],
      "stateMutability": "view",
      "type": "function"
    },
    {
      "inputs": [],
      "name": "pluginId",
      "outputs": [
        {
          "internalType": "uint256",
          "name": "",
          "type": "uint256"
        }
      ],
      "stateMutability": "view",
      "type": "function"
    },
    {
      "inputs": [],
      "name": "pluginRegistry",
      "outputs": [
        {
          "internalType": "address",
          "name": "",
          "type": "address"
        }
      ],
      "stateMutability": "view",
      "type": "function"
    },
    {
      "inputs": [
        {
          "internalType": "uint256",
          "name": "tokenId",
          "type": "uint256"
        }
      ],
      "name": "setPluginId",
      "outputs": [],
      "stateMutability": "nonpayable",
      "type": "function"
    }
  ],
  "bytecode": {
    "object": "0x608060405234801561001057600080fd5b5060405161092238038061092283398101604081905261002f91610238565b8081600081600160006101000a8154816001600160a01b0302191690836001600160a01b03160217905550816001600160a01b03166341dcea916040518163ffffffff1660e01b8152600401602060405180830381865afa158015610098573d6000803e3d6000fd5b505050506040513d601f19601f820116820180604052508101906100bc9190610238565b600480546001600160a01b0392831661010002610100600160a81b0319909116178155600080546001600160a01b03191633178155600393909355604080516341dcea9160e01b8152905192861694506341dcea919381830193602093909283900301908290875af1158015610136573d6000803e3d6000fd5b505050506040513d601f19601f8201168201806040525081019061015a9190610238565b6001600160a01b031663f0b7832a6040518163ffffffff1660e01b8152600401602060405180830381865afa158015610197573d6000803e3d6000fd5b505050506040513d601f19601f820116820180604052508101906101bb9190610238565b600580546001600160a01b0319166001600160a01b0392831690811790915560405163189acdbd60e31b815291831660048301529063c4d66de890602401600060405180830381600087803b15801561021357600080fd5b505af1158015610227573d6000803e3d6000fd5b505060016008555061026892505050565b60006020828403121561024a57600080fd5b81516001600160a01b038116811461026157600080fd5b9392505050565b6106ab806102776000396000f3fe608060405234801561001057600080fd5b50600436106100ea5760003560e01c80638381f58a1161008c578063a1308f2711610066578063a1308f27146101b5578063a3c9eb43146101be578063ab440d65146101d1578063d5f39488146101e457600080fd5b80638381f58a1461019357806386d113c01461019c5780638da5cb5b146101ad57600080fd5b80632fe7e441116100c85780632fe7e4411461014b57806341dcea91146101625780634b749e9b1461017a57806366bea03e1461018b57600080fd5b806302a4dca0146100ef5780632131c68c1461010457806322f3e2d41461012e575b600080fd5b6101026100fd3660046104d4565b6101f5565b005b6001546001600160a01b03165b6040516001600160a01b0390911681526020015b60405180910390f35b60045461013b9060ff1681565b6040519015158152602001610125565b61015460025481565b604051908152602001610125565b6004546101119061010090046001600160a01b031681565b6005546001600160a01b0316610111565b610154610254565b61015460085481565b6007546001600160a01b0316610111565b6101116102da565b61015460035481565b6101546101cc366004610503565b610355565b6101026101df3660046105cc565b6103dd565b6000546001600160a01b0316610111565b60045461010090046001600160a01b0316331461024f5760405162461bcd60e51b81526020600482015260146024820152734f6e6c7920706c7567696e20726567697374727960601b604482015260640160405180910390fd5b600255565b6000600854600161026591906105f0565b600881905590506005546001600160a01b0316633ad3b0416000366102873390565b6040518463ffffffff1660e01b81526004016102a593929190610617565b600060405180830381600087803b1580156102bf57600080fd5b505af11580156102d3573d6000803e3d6000fd5b5050505090565b6004805460405163235883e360e01b815230928101929092526000916101009091046001600160a01b03169063235883e390602401602060405180830381865afa15801561032c573d6000803e3d6000fd5b505050506040513d601f19601f820116820180604052508101906103509190610658565b905090565b6000600854600161036691906105f0565b600881905590506005546001600160a01b0316633ad3b0416000366103883390565b6040518463ffffffff1660e01b81526004016103a693929190610617565b600060405180830381600087803b1580156103c057600080fd5b505af11580156103d4573d6000803e3d6000fd5b50505050919050565b6006546001600160a01b0316336001600160a01b03161461041157604051630e8cc36b60e21b815260040160405180910390fd5b600580546001600160a01b0319166001600160a01b0383161790556040805163084c71a360e21b815290517f3ef34c117b493311a9ea61dff2d101d6bdc33062c190cb30ffbb908b09a2b494913091632131c68c916004808201926020929091908290030181865afa15801561048b573d6000803e3d6000fd5b505050506040513d601f19601f820116820180604052508101906104af9190610658565b604080516001600160a01b03928316815291841660208301520160405180910390a150565b6000602082840312156104e657600080fd5b5035919050565b634e487b7160e01b600052604160045260246000fd5b60006020828403121561051557600080fd5b813567ffffffffffffffff8082111561052d57600080fd5b818401915084601f83011261054157600080fd5b813581811115610553576105536104ed565b604051601f8201601f19908116603f0116810190838211818310171561057b5761057b6104ed565b8160405282815287602084870101111561059457600080fd5b826020860160208301376000928101602001929092525095945050505050565b6001600160a01b03811681146105c957600080fd5b50565b6000602082840312156105de57600080fd5b81356105e9816105b4565b9392505050565b8082018082111561061157634e487b7160e01b600052601160045260246000fd5b92915050565b6040815282604082015282846060830137600060608483018101919091526001600160a01b03929092166020820152601f909201601f191690910101919050565b60006020828403121561066a57600080fd5b81516105e9816105b456fea2646970667358221220032abadfddeac48adea21a52959b87ddccc8f86391223fdb00649834f67429d064736f6c63430008130033",
    "linkReferences": {}
  },
  "methodIdentifiers": {
    "changeInUseLocalRep(address)": "ab440d65",
    "currentReputationAddr()": "4b749e9b",
    "daoAddress()": "2131c68c",
    "deployer()": "d5f39488",
    "incrementNumber(string)": "a3c9eb43",
    "incrementNumberPlusOne()": "66bea03e",
    "isActive()": "22f3e2d4",
    "lastReputationAddr()": "86d113c0",
    "moduleId()": "a1308f27",
    "number()": "8381f58a",
    "owner()": "8da5cb5b",
    "pluginId()": "2fe7e441",
    "pluginRegistry()": "41dcea91",
    "setPluginId(uint256)": "02a4dca0"
  },
  "id": 87
}