{
  "abi": [
    {
      "inputs": [
        {
          "internalType": "address",
          "name": "daoAddress",
          "type": "address"
        },
        {
          "internalType": "address",
          "name": "member",
          "type": "address"
        }
      ],
      "name": "isMember",
      "outputs": [
        {
          "internalType": "bool",
          "name": "",
          "type": "bool"
        }
      ],
      "stateMutability": "view",
      "type": "function"
    }
  ],
  "bytecode": {
    "object": "0x608060405234801561001057600080fd5b50610218806100206000396000f3fe608060405234801561001057600080fd5b506004361061002b5760003560e01c806339ac7a0814610030575b600080fd5b61004361003e36600461018d565b610057565b604051901515815260200160405180910390f35b60006001600160a01b0383166100b45760405162461bcd60e51b815260206004820152601760248201527f41757449443a2064616f4164647265737320656d70747900000000000000000060448201526064015b60405180910390fd5b6001600160a01b0382166101005760405162461bcd60e51b815260206004820152601360248201527241757449443a206d656d62657220656d70747960681b60448201526064016100ab565b60405163288c314960e21b81526001600160a01b03838116600483015284169063a230c52490602401602060405180830381865afa158015610146573d6000803e3d6000fd5b505050506040513d601f19601f8201168201806040525081019061016a91906101c0565b9392505050565b80356001600160a01b038116811461018857600080fd5b919050565b600080604083850312156101a057600080fd5b6101a983610171565b91506101b760208401610171565b90509250929050565b6000602082840312156101d257600080fd5b8151801515811461016a57600080fdfea26469706673582212208d1e50c2f2203b895f7f9aca8a501c4d9c28682c6ec854fa88921243f99319d564736f6c63430008130033",
    "linkReferences": {}
  },
  "methodIdentifiers": {
    "isMember(address,address)": "39ac7a08"
  },
  "id": 57
}