{
  "abi": [
    {
      "inputs": [
        {
          "internalType": "address",
          "name": "member",
          "type": "address"
        }
      ],
      "name": "addMember",
      "outputs": [],
      "stateMutability": "nonpayable",
      "type": "function"
    },
    {
      "inputs": [
        {
          "internalType": "address",
          "name": "",
          "type": "address"
        }
      ],
      "name": "isMember",
      "outputs": [
        {
          "internalType": "bool",
          "name": "",
          "type": "bool"
        }
      ],
      "stateMutability": "view",
      "type": "function"
    }
  ],
  "bytecode": {
    "object": "0x608060405234801561001057600080fd5b50610100806100206000396000f3fe6080604052348015600f57600080fd5b506004361060325760003560e01c8063a230c524146037578063ca6d56dc14606b575b600080fd5b60576042366004609c565b60006020819052908152604090205460ff1681565b604051901515815260200160405180910390f35b609a6076366004609c565b6001600160a01b03166000908152602081905260409020805460ff19166001179055565b005b60006020828403121560ad57600080fd5b81356001600160a01b038116811460c357600080fd5b939250505056fea2646970667358221220411bdeec0fc0fe3e8c821e69091c1a4037db7d2974b69872637eb4496c3df94d64736f6c63430008130033",
    "linkReferences": {}
  },
  "methodIdentifiers": {
    "addMember(address)": "ca6d56dc",
    "isMember(address)": "a230c524"
  },
  "id": 54
}