{
  "abi": [
    {
      "inputs": [],
      "name": "ArchetypeAlreadySet",
      "type": "error"
    },
    {
      "inputs": [],
      "name": "WrongParameter",
      "type": "error"
    },
    {
      "anonymous": false,
      "inputs": [
        {
          "indexed": false,
          "internalType": "address",
          "name": "member",
          "type": "address"
        }
      ],
      "name": "AdminMemberAdded",
      "type": "event"
    },
    {
      "anonymous": false,
      "inputs": [
        {
          "indexed": false,
          "internalType": "address",
          "name": "member",
          "type": "address"
        }
      ],
      "name": "AdminMemberRemoved",
      "type": "event"
    },
    {
      "anonymous": false,
      "inputs": [
        {
          "indexed": false,
          "internalType": "uint8",
          "name": "",
          "type": "uint8"
        },
        {
          "indexed": false,
          "internalType": "uint256",
          "name": "",
          "type": "uint256"
        }
      ],
      "name": "ArchetypeWeightSet",
      "type": "event"
    },
    {
      "anonymous": false,
      "inputs": [
        {
          "indexed": false,
          "internalType": "uint256",
          "name": "",
          "type": "uint256"
        }
      ],
      "name": "CommitmentSet",
      "type": "event"
    },
    {
      "anonymous": false,
      "inputs": [
        {
          "indexed": false,
          "internalType": "uint8",
          "name": "version",
          "type": "uint8"
        }
      ],
      "name": "Initialized",
      "type": "event"
    },
    {
      "anonymous": false,
      "inputs": [
        {
          "indexed": false,
          "internalType": "uint8",
          "name": "",
          "type": "uint8"
        }
      ],
      "name": "MainArchetypeSet",
      "type": "event"
    },
    {
      "anonymous": false,
      "inputs": [
        {
          "indexed": false,
          "internalType": "uint256",
          "name": "",
          "type": "uint256"
        }
      ],
      "name": "MarketSet",
      "type": "event"
    },
    {
      "anonymous": false,
      "inputs": [],
      "name": "MemberAdded",
      "type": "event"
    },
    {
      "anonymous": false,
      "inputs": [
        {
          "indexed": false,
          "internalType": "string",
          "name": "",
          "type": "string"
        }
      ],
      "name": "MetadataUriUpdated",
      "type": "event"
    },
    {
      "anonymous": false,
      "inputs": [
        {
          "indexed": false,
          "internalType": "uint256",
          "name": "moduleId",
          "type": "uint256"
        }
      ],
      "name": "ModuleActivated",
      "type": "event"
    },
    {
      "anonymous": false,
      "inputs": [
        {
          "indexed": false,
          "internalType": "string",
          "name": "url",
          "type": "string"
        }
      ],
      "name": "UrlAdded",
      "type": "event"
    },
    {
      "anonymous": false,
      "inputs": [
        {
          "indexed": false,
          "internalType": "string",
          "name": "url",
          "type": "string"
        }
      ],
      "name": "UrlRemoved",
      "type": "event"
    },
    {
      "inputs": [],
      "name": "CONVICTION",
      "outputs": [
        {
          "internalType": "uint8",
          "name": "",
          "type": "uint8"
        }
      ],
      "stateMutability": "view",
      "type": "function"
    },
    {
      "inputs": [],
      "name": "GROWTH",
      "outputs": [
        {
          "internalType": "uint8",
          "name": "",
          "type": "uint8"
        }
      ],
      "stateMutability": "view",
      "type": "function"
    },
    {
      "inputs": [],
      "name": "PERFORMANCE",
      "outputs": [
        {
          "internalType": "uint8",
          "name": "",
          "type": "uint8"
        }
      ],
      "stateMutability": "view",
      "type": "function"
    },
    {
      "inputs": [],
      "name": "REPUTATION",
      "outputs": [
        {
          "internalType": "uint8",
          "name": "",
          "type": "uint8"
        }
      ],
      "stateMutability": "view",
      "type": "function"
    },
    {
      "inputs": [],
      "name": "SIZE",
      "outputs": [
        {
          "internalType": "uint8",
          "name": "",
          "type": "uint8"
        }
      ],
      "stateMutability": "view",
      "type": "function"
    },
    {
      "inputs": [
        {
          "internalType": "uint256",
          "name": "moduleId",
          "type": "uint256"
        }
      ],
      "name": "activateModule",
      "outputs": [],
      "stateMutability": "nonpayable",
      "type": "function"
    },
    {
      "inputs": [
        {
          "internalType": "address",
          "name": "member",
          "type": "address"
        }
      ],
      "name": "addAdmin",
      "outputs": [],
      "stateMutability": "nonpayable",
      "type": "function"
    },
    {
      "inputs": [
        {
          "internalType": "address[]",
          "name": "adminAddr",
          "type": "address[]"
        }
      ],
      "name": "addAdmins",
      "outputs": [
        {
          "internalType": "address[]",
          "name": "",
          "type": "address[]"
        }
      ],
      "stateMutability": "nonpayable",
      "type": "function"
    },
    {
      "inputs": [
        {
          "internalType": "string",
          "name": "url",
          "type": "string"
        }
      ],
      "name": "addURL",
      "outputs": [],
      "stateMutability": "nonpayable",
      "type": "function"
    },
    {
      "inputs": [
        {
          "internalType": "uint256",
          "name": "",
          "type": "uint256"
        }
      ],
      "name": "admins",
      "outputs": [
        {
          "internalType": "address",
          "name": "",
          "type": "address"
        }
      ],
      "stateMutability": "view",
      "type": "function"
    },
    {
      "inputs": [],
      "name": "archetype",
      "outputs": [
        {
          "internalType": "uint8",
          "name": "",
          "type": "uint8"
        }
      ],
      "stateMutability": "view",
      "type": "function"
    },
    {
      "inputs": [],
      "name": "beacon",
      "outputs": [
        {
          "internalType": "address",
          "name": "",
          "type": "address"
        }
      ],
      "stateMutability": "view",
      "type": "function"
    },
    {
      "inputs": [
        {
          "internalType": "address",
          "name": "member",
          "type": "address"
        },
        {
          "internalType": "uint256",
          "name": "role",
          "type": "uint256"
        }
      ],
      "name": "canJoin",
      "outputs": [
        {
          "internalType": "bool",
          "name": "",
          "type": "bool"
        }
      ],
      "stateMutability": "view",
      "type": "function"
    },
    {
      "inputs": [],
      "name": "deployer",
      "outputs": [
        {
          "internalType": "address",
          "name": "",
          "type": "address"
        }
      ],
      "stateMutability": "view",
      "type": "function"
    },
    {
      "inputs": [],
      "name": "getAdmins",
      "outputs": [
        {
          "internalType": "address[]",
          "name": "",
          "type": "address[]"
        }
      ],
      "stateMutability": "view",
      "type": "function"
    },
    {
      "inputs": [],
      "name": "getAllMembers",
      "outputs": [
        {
          "internalType": "address[]",
          "name": "",
          "type": "address[]"
        }
      ],
      "stateMutability": "view",
      "type": "function"
    },
    {
      "inputs": [],
      "name": "getAutIDAddress",
      "outputs": [
        {
          "internalType": "address",
          "name": "",
          "type": "address"
        }
      ],
      "stateMutability": "view",
      "type": "function"
    },
    {
      "inputs": [],
      "name": "getCommitment",
      "outputs": [
        {
          "internalType": "uint256",
          "name": "",
          "type": "uint256"
        }
      ],
      "stateMutability": "view",
      "type": "function"
    },
    {
      "inputs": [],
      "name": "getURLs",
      "outputs": [
        {
          "internalType": "string[]",
          "name": "",
          "type": "string[]"
        }
      ],
      "stateMutability": "view",
      "type": "function"
    },
    {
      "inputs": [],
      "name": "implementation",
      "outputs": [
        {
          "internalType": "address",
          "name": "",
          "type": "address"
        }
      ],
      "stateMutability": "view",
      "type": "function"
    },
    {
      "inputs": [
        {
          "internalType": "address",
          "name": "_deployer",
          "type": "address"
        },
        {
          "internalType": "contract IAutID",
          "name": "_autAddr",
          "type": "address"
        },
        {
          "internalType": "uint256",
          "name": "_market",
          "type": "uint256"
        },
        {
          "internalType": "string",
          "name": "_metadata",
          "type": "string"
        },
        {
          "internalType": "uint256",
          "name": "_commitment",
          "type": "uint256"
        },
        {
          "internalType": "address",
          "name": "_pluginRegistry",
          "type": "address"
        }
      ],
      "name": "initialize",
      "outputs": [],
      "stateMutability": "nonpayable",
      "type": "function"
    },
    {
      "inputs": [
        {
          "internalType": "address",
          "name": "",
          "type": "address"
        }
      ],
      "name": "isAdmin",
      "outputs": [
        {
          "internalType": "bool",
          "name": "",
          "type": "bool"
        }
      ],
      "stateMutability": "view",
      "type": "function"
    },
    {
      "inputs": [
        {
          "internalType": "address",
          "name": "",
          "type": "address"
        }
      ],
      "name": "isMember",
      "outputs": [
        {
          "internalType": "bool",
          "name": "",
          "type": "bool"
        }
      ],
      "stateMutability": "view",
      "type": "function"
    },
    {
      "inputs": [
        {
          "internalType": "uint256",
          "name": "moduleId",
          "type": "uint256"
        }
      ],
      "name": "isModuleActivated",
      "outputs": [
        {
          "internalType": "bool",
          "name": "",
          "type": "bool"
        }
      ],
      "stateMutability": "view",
      "type": "function"
    },
    {
      "inputs": [
        {
          "internalType": "string",
          "name": "_url",
          "type": "string"
        }
      ],
      "name": "isURLListed",
      "outputs": [
        {
          "internalType": "bool",
          "name": "",
          "type": "bool"
        }
      ],
      "stateMutability": "view",
      "type": "function"
    },
    {
      "inputs": [
        {
          "internalType": "address",
          "name": "newMember",
          "type": "address"
        },
        {
          "internalType": "uint256",
          "name": "role",
          "type": "uint256"
        }
      ],
      "name": "join",
      "outputs": [],
      "stateMutability": "nonpayable",
      "type": "function"
    },
    {
      "inputs": [],
      "name": "market",
      "outputs": [
        {
          "internalType": "uint256",
          "name": "",
          "type": "uint256"
        }
      ],
      "stateMutability": "view",
      "type": "function"
    },
    {
      "inputs": [],
      "name": "memberCount",
      "outputs": [
        {
          "internalType": "uint256",
          "name": "",
          "type": "uint256"
        }
      ],
      "stateMutability": "view",
      "type": "function"
    },
    {
      "inputs": [
        {
          "internalType": "uint256",
          "name": "",
          "type": "uint256"
        }
      ],
      "name": "members",
      "outputs": [
        {
          "internalType": "address",
          "name": "",
          "type": "address"
        }
      ],
      "stateMutability": "view",
      "type": "function"
    },
    {
      "inputs": [],
      "name": "metadataUrl",
      "outputs": [
        {
          "internalType": "string",
          "name": "",
          "type": "string"
        }
      ],
      "stateMutability": "view",
      "type": "function"
    },
    {
      "inputs": [],
      "name": "onboardingAddr",
      "outputs": [
        {
          "internalType": "address",
          "name": "",
          "type": "address"
        }
      ],
      "stateMutability": "view",
      "type": "function"
    },
    {
      "inputs": [],
      "name": "pluginRegistry",
      "outputs": [
        {
          "internalType": "address",
          "name": "",
          "type": "address"
        }
      ],
      "stateMutability": "view",
      "type": "function"
    },
    {
      "inputs": [
        {
          "internalType": "address",
          "name": "member",
          "type": "address"
        }
      ],
      "name": "removeAdmin",
      "outputs": [],
      "stateMutability": "nonpayable",
      "type": "function"
    },
    {
      "inputs": [
        {
          "internalType": "string",
          "name": "url",
          "type": "string"
        }
      ],
      "name": "removeURL",
      "outputs": [],
      "stateMutability": "nonpayable",
      "type": "function"
    },
    {
      "inputs": [
        {
          "internalType": "uint8",
          "name": "parameter",
          "type": "uint8"
        }
      ],
      "name": "setArchetype",
      "outputs": [],
      "stateMutability": "nonpayable",
      "type": "function"
    },
    {
      "inputs": [
        {
          "internalType": "uint256",
          "name": "commitment",
          "type": "uint256"
        }
      ],
      "name": "setCommitment",
      "outputs": [],
      "stateMutability": "nonpayable",
      "type": "function"
    },
    {
      "inputs": [
        {
          "internalType": "string",
          "name": "metadata",
          "type": "string"
        }
      ],
      "name": "setMetadataUri",
      "outputs": [],
      "stateMutability": "nonpayable",
      "type": "function"
    },
    {
      "inputs": [
        {
          "internalType": "address",
          "name": "onboardingPlugin",
          "type": "address"
        }
      ],
      "name": "setOnboardingStrategy",
      "outputs": [],
      "stateMutability": "nonpayable",
      "type": "function"
    },
    {
      "inputs": [
        {
          "internalType": "uint8",
          "name": "parameter",
          "type": "uint8"
        },
        {
          "internalType": "uint256",
          "name": "value",
          "type": "uint256"
        }
      ],
      "name": "setWeightFor",
      "outputs": [],
      "stateMutability": "nonpayable",
      "type": "function"
    },
    {
      "inputs": [
        {
          "internalType": "uint8",
          "name": "",
          "type": "uint8"
        }
      ],
      "name": "weightFor",
      "outputs": [
        {
          "internalType": "uint256",
          "name": "",
          "type": "uint256"
        }
      ],
      "stateMutability": "view",
      "type": "function"
    }
  ],
  "bytecode": {
    "object": "0x608060405234801561001057600080fd5b50612583806100206000396000f3fe608060405234801561001057600080fd5b50600436106102485760003560e01c806372d4d23d1161013b578063a230c524116100b8578063cd29c71a1161007c578063cd29c71a146104d5578063d103449c146104ea578063d5f39488146104fd578063dbba0d5c14610510578063f619e1831461052357600080fd5b8063a230c5241461047c578063a2bb6f481461049f578063b5a8a3a1146104a7578063bdffd282146104ba578063be9cd052146104c257600080fd5b80638307bd24116100ff5780638307bd241461043557806384e4dbb91461044857806388098e3a146104505780639023ef95146104615780639c54df641461046957600080fd5b806372d4d23d146103eb5780637c0f6b35146103fe5780637fbaa03b1461040657806380f5560514610419578063810e8c041461042257600080fd5b806331ae450b116101c95780635daf08ca1161018d5780635daf08ca1461039757806367d48f66146103aa57806368839d28146103b257806369130c8d146103c557806370480275146103d857600080fd5b806331ae450b1461034c5780633b4da69f1461036157806341dcea911461037457806359659e90146103875780635c60da1b1461038f57600080fd5b806314bfd6d01161021057806314bfd6d0146102ce5780631785f53c146102f9578063206110db1461030c57806324d7806c146103215780632a79c6111461034457600080fd5b806303ffe3301461024d5780630e4b22851461027557806310972e90146102945780631130630c146102a757806311aee380146102bc575b600080fd5b61026061025b366004611dc8565b610543565b60405190151581526020015b60405180910390f35b604a546102829060ff1681565b60405160ff909116815260200161026c565b6102606102a2366004611df4565b610677565b6102ba6102b5366004611efb565b6106cd565b005b6014545b60405190815260200161026c565b6102e16102dc366004611df4565b610711565b6040516001600160a01b03909116815260200161026c565b6102ba610307366004611f38565b61073b565b61031461085d565b60405161026c9190611fac565b61026061032f366004611f38565b60176020526000908152604090205460ff1681565b6040546102c0565b610354610936565b60405161026c919061200e565b6102ba61036f366004611dc8565b610998565b603c546102e1906001600160a01b031681565b6102e1610a95565b6102e1610ac8565b6102e16103a5366004611df4565b610ad2565b610282600281565b6102606103c0366004611efb565b610ae2565b6102ba6103d3366004611df4565b610b61565b6102ba6103e6366004611f38565b610b99565b6102ba6103f936600461206c565b610d8e565b610354610d98565b6102ba610414366004612088565b610df8565b6102c060325481565b6102ba610430366004611efb565b610e01565b6087546102e1906001600160a01b031681565b610282600581565b600a546001600160a01b03166102e1565b610282600381565b6103546104773660046120a3565b610e39565b61026061048a366004611f38565b60156020526000908152604090205460ff1681565b610282600481565b6102ba6104b5366004611f38565b611039565b610282600181565b6102ba6104d0366004611df4565b611203565b6104dd61123b565b60405161026c9190612155565b6102ba6104f8366004611efb565b6112c9565b6086546102e1906001600160a01b031681565b6102ba61051e366004612168565b611301565b6102c0610531366004612088565b604b6020526000908152604090205481565b6087546000906001600160a01b031661055e57506001610671565b6087546001600160a01b0316158015906105ec5750608760009054906101000a90046001600160a01b03166001600160a01b03166322f3e2d46040518163ffffffff1660e01b8152600401602060405180830381865afa1580156105c6573d6000803e3d6000fd5b505050506040513d601f19601f820116820180604052508101906105ea91906121f1565b155b156105f957506000610671565b608754604051634f2b51c760e01b81526001600160a01b0385811660048301526024820185905290911690634f2b51c790604401602060405180830381865afa15801561064a573d6000803e3d6000fd5b505050506040513d601f19601f8201168201806040525081019061066e91906121f1565b90505b92915050565b6000805b603d548110156106c45782603d828154811061069957610699612213565b9060005260206000200154036106b25750600192915050565b806106bc8161223f565b91505061067b565b50600092915050565b3360009081526017602052604090205460ff166107055760405162461bcd60e51b81526004016106fc90612258565b60405180910390fd5b61070e816114c2565b50565b6016818154811061072157600080fd5b6000918252602090912001546001600160a01b0316905081565b3360009081526017602052604090205460ff1661076a5760405162461bcd60e51b81526004016106fc90612258565b60005b60165481101561080457816001600160a01b03166016828154811061079457610794612213565b6000918252602090912001546001600160a01b0316036107f2576000601682815481106107c3576107c3612213565b9060005260206000200160006101000a8154816001600160a01b0302191690836001600160a01b031602179055505b806107fc8161223f565b91505061076d565b506001600160a01b038116600081815260176020908152604091829020805460ff1916905590519182527ffa8ae95b9a4f666c3b5f27d11b5c2b9fe1045279f674e7a78ca8b087cba3802591015b60405180910390a150565b60606028805480602002602001604051908101604052809291908181526020016000905b8282101561092d5783829060005260206000200180546108a09061227f565b80601f01602080910402602001604051908101604052809291908181526020018280546108cc9061227f565b80156109195780601f106108ee57610100808354040283529160200191610919565b820191906000526020600020905b8154815290600101906020018083116108fc57829003601f168201915b505050505081526020019060010190610881565b50505050905090565b6060601680548060200260200160405190810160405280929190818152602001828054801561098e57602002820191906000526020600020905b81546001600160a01b03168152600190910190602001808311610970575b5050505050905090565b600a546001600160a01b031633146109df5760405162461bcd60e51b815260206004820152600a60248201526913db9b1e48105d5d125160b21b60448201526064016106fc565b604051623ffe3360e41b81526001600160a01b03831660048201526024810182905230906303ffe33090604401602060405180830381865afa158015610a29573d6000803e3d6000fd5b505050506040513d601f19601f82011682018060405250810190610a4d91906121f1565b610a875760405162461bcd60e51b815260206004820152600b60248201526a1b9bdd08185b1b1bddd95960aa1b60448201526064016106fc565b610a91828261153d565b5050565b60007fa3f0ad74e5423aebfd80d3ef4346578335a9a72aeaee59ff6cb3582b35133d515b546001600160a01b0316919050565b6000610ab9611675565b6014818154811061072157600080fd5b6028546000908103610af657506000919050565b81516020808401919091206000818152602990925260409091205415610b1f5750600192915050565b806028600081548110610b3457610b34612213565b90600052602060002001604051610b4b91906122b9565b6040518091039020036106c45750600192915050565b3360009081526017602052604090205460ff16610b905760405162461bcd60e51b81526004016106fc90612258565b61070e816116a8565b3360009081526017602052604090205460ff16610bc85760405162461bcd60e51b81526004016106fc90612258565b6001600160a01b03811660009081526015602052604090205460ff16158015610cbc5750306001600160a01b03166341dcea916040518163ffffffff1660e01b8152600401602060405180830381865afa158015610c2a573d6000803e3d6000fd5b505050506040513d601f19601f82011682018060405250810190610c4e919061232f565b6040516328e26caf60e11b81526001600160a01b03838116600483015291909116906351c4d95e90602401602060405180830381865afa158015610c96573d6000803e3d6000fd5b505050506040513d601f19601f82011682018060405250810190610cba919061234c565b155b15610cf85760405162461bcd60e51b815260206004820152600c60248201526b2737ba10309036b2b6b132b960a11b60448201526064016106fc565b6001600160a01b0381166000818152601760209081526040808320805460ff191660019081179091556016805491820181559093527fd833147d7dc355ba459fc788f669e58cfaf9dc25ddcd0702e87d69c7b512428990920180546001600160a01b0319168417905590519182527fa06b993f17e63959ef40ec8755fc98020c50e9d2794ce5fc0886a7792a9fbaec9101610852565b610a918282611835565b6060601480548060200260200160405190810160405280929190818152602001828054801561098e576020028201919060005260206000209081546001600160a01b03168152600190910190602001808311610970575050505050905090565b61070e81611854565b3360009081526017602052604090205460ff16610e305760405162461bcd60e51b81526004016106fc90612258565b61070e81611897565b3360009081526017602052604090205460609060ff16610e6b5760405162461bcd60e51b81526004016106fc90612258565b60005b825181101561102f5760156000848381518110610e8d57610e8d612213565b6020908102919091018101516001600160a01b031682528101919091526040016000205460ff16610edf57828181518110610eca57610eca612213565b60006020918202929092010152600101610e6e565b60176000848381518110610ef557610ef5612213565b6020908102919091018101516001600160a01b031682528101919091526040016000205460ff16611027576016838281518110610f3457610f34612213565b60209081029190910181015182546001808201855560009485529284200180546001600160a01b0319166001600160a01b0390921691909117905584519091601791869085908110610f8857610f88612213565b60200260200101516001600160a01b03166001600160a01b0316815260200190815260200160002060006101000a81548160ff0219169083151502179055507fa06b993f17e63959ef40ec8755fc98020c50e9d2794ce5fc0886a7792a9fbaec838281518110610ffa57610ffa612213565b602002602001015160405161101e91906001600160a01b0391909116815260200190565b60405180910390a15b600101610e6e565b829150505b919050565b806001600160a01b031663a1308f276040518163ffffffff1660e01b8152600401602060405180830381865afa158015611077573d6000803e3d6000fd5b505050506040513d601f19601f8201168201806040525081019061109b919061234c565b6001146110e35760405162461bcd60e51b815260206004820152601660248201527527b7363c9027b73137b0b93234b7339028363ab3b4b760511b60448201526064016106fc565b6087546001600160a01b031661114957603c546001600160a01b031633146111445760405162461bcd60e51b81526020600482015260146024820152734f6e6c7920506c7567696e20526567697374727960601b60448201526064016106fc565b6111e1565b604051630935e01b60e21b815233600482015230906324d7806c90602401602060405180830381865afa158015611184573d6000803e3d6000fd5b505050506040513d601f19601f820116820180604052508101906111a891906121f1565b6111e15760405162461bcd60e51b815260206004820152600a60248201526927b7363c9020b236b4b760b11b60448201526064016106fc565b608780546001600160a01b0319166001600160a01b0392909216919091179055565b3360009081526017602052604090205460ff166112325760405162461bcd60e51b81526004016106fc90612258565b61070e81611a97565b601e80546112489061227f565b80601f01602080910402602001604051908101604052809291908181526020018280546112749061227f565b80156112c15780601f10611296576101008083540402835291602001916112c1565b820191906000526020600020905b8154815290600101906020018083116112a457829003601f168201915b505050505081565b3360009081526017602052604090205460ff166112f85760405162461bcd60e51b81526004016106fc90612258565b61070e81611b1b565b600054610100900460ff16158080156113215750600054600160ff909116105b8061133b5750303b15801561133b575060005460ff166001145b61139e5760405162461bcd60e51b815260206004820152602e60248201527f496e697469616c697a61626c653a20636f6e747261637420697320616c72656160448201526d191e481a5b9a5d1a585b1a5e995960921b60648201526084016106fc565b6000805460ff1916600117905580156113c1576000805461ff0019166101001790555b608680546001600160a01b0389166001600160a01b031991821681179092556000828152601760205260408120805460ff191660019081179091556016805491820181559091527fd833147d7dc355ba459fc788f669e58cfaf9dc25ddcd0702e87d69c7b5124289018054909116909117905561143d85611c41565b600a80546001600160a01b0319166001600160a01b03881617905561146183611a97565b61146a846114c2565b61147382611cc3565b80156114b9576000805461ff0019169055604051600181527f7f26b83ff96e1f2b6a682f133852f6798a09c465da95921460cefb38474024989060200160405180910390a15b50505050505050565b60008151116115015760405162461bcd60e51b815260206004820152600b60248201526a1a5b9d985b1a59081d5c9b60aa1b60448201526064016106fc565b601e61150d82826123b4565b507f48674fffb03fee00a113cc146f3aa94a9720a4cb3839fbb855c436859d39a977816040516108529190612155565b600a546001600160a01b031633146115845760405162461bcd60e51b815260206004820152600a60248201526913db9b1e48105d5d125160b21b60448201526064016106fc565b6001600160a01b03821660009081526015602052604090205460ff16156115e05760405162461bcd60e51b815260206004820152601060248201526f20b63932b0b23c90309036b2b6b132b960811b60448201526064016106fc565b6001600160a01b038216600081815260156020526040808220805460ff1916600190811790915560148054918201815583527fce6d7b5282bd9a3661ae061feed1dbda4e52ab073b1f9285be6e155d9c38d4ec0180546001600160a01b03191690931790925590517f94d9b0a056867efca93631b338c7fde3befc3f54db36b90b8456b069385c30be9190a15050565b905090565b60006116706116a560017f9cd0ce681e2068367bc5a81f4d9ba398e81f54e5133fd5d82ceb0f48c38d7239612474565b90565b603c5460408051631055995d60e31b815290516000926001600160a01b0316916382accae89160048083019260209291908290030181865afa1580156116f2573d6000803e3d6000fd5b505050506040513d601f19601f82011682018060405250810190611716919061232f565b6040516339076b2160e11b8152600481018490529091506000906001600160a01b0383169063720ed64290602401600060405180830381865afa158015611761573d6000803e3d6000fd5b505050506040513d6000823e601f3d908101601f191682016040526117899190810190612487565b5151116117c95760405162461bcd60e51b815260206004820152600e60248201526d696e76616c6964206d6f64756c6560901b60448201526064016106fc565b603d80546001810182556000919091527fece66cfdbd22e3f37d348a3d8e19074452862cd65fd4b9a11f0336d1ac6d1dc3018290556040518281527fc1866ccaad33ac161f17d9db7a528f0c819a376e1cad17ba2d5c9b49a7eba2cd9060200160405180910390a15050565b61183e82611d34565b60ff9091166000908152604b6020526040902055565b604a5460ff161561187857604051632eb2d90160e11b815260040160405180910390fd5b61188181611d34565b604a805460ff191660ff92909216919091179055565b6118a081610ae2565b6118df5760405162461bcd60e51b815260206004820152601060248201526f1d5c9b08191bd95cdb9d08195e1a5cdd60821b60448201526064016106fc565b80516020808301919091206000818152602990925260409091205460285461190990600190612474565b8114611a1a57602880546000919061192390600190612474565b8154811061193357611933612213565b9060005260206000200180546119489061227f565b80601f01602080910402602001604051908101604052809291908181526020018280546119749061227f565b80156119c15780601f10611996576101008083540402835291602001916119c1565b820191906000526020600020905b8154815290600101906020018083116119a457829003601f168201915b505050505090506000818051906020012090508260296000838152602001908152602001600020819055508160288481548110611a0057611a00612213565b906000526020600020019081611a1691906123b4565b5050505b6028805480611a2b57611a2b612537565b600190038181906000526020600020016000611a479190611d65565b905560008281526029602052604080822091909155517f906b87aebf1e5cc40a1cebd6811c88addf04309f8c8ce71c7d6449d343e4ad0990611a8a908590612155565b60405180910390a1505050565b600081118015611aa75750600b81105b611ae85760405162461bcd60e51b81526020600482015260126024820152711a5b9d985b1a590818dbdb5b5a5d1b595b9d60721b60448201526064016106fc565b6040818155518181527fb65d029b8a6c07cb00888825aac545b9b5c5c022683357f9d1ea8abf06dfdb4690602001610852565b8051602082012060285460009015611b8357600082815260296020526040902054151580611b7a5750816028600081548110611b5957611b59612213565b90600052602060002001604051611b7091906122b9565b6040518091039020145b15611b83575060015b8015611bc65760405162461bcd60e51b815260206004820152601260248201527175726c20616c72656164792065786973747360701b60448201526064016106fc565b602880546000848152602960205260408120829055600182018355919091527fe16da923a2d88192e5070f37b4571d58682c0d66212ec634d495f33de3f77ab501611c1184826123b4565b507f21d5cca3f840791ade736f51501810c14b8b01791ac4357713ed763ccbbaf3a983604051611a8a9190612155565b600081118015611c515750600481105b611c8e5760405162461bcd60e51b815260206004820152600e60248201526d1a5b9d985b1a59081b585c9ad95d60921b60448201526064016106fc565b60328190556040518181527fed3f3ef79c893a1a183c59258a18224fe4f9dee870f486fce68ad3d3f26bff7090602001610852565b6001600160a01b038116611d125760405162461bcd60e51b8152602060048201526016602482015275696e76616c696420706c7567696e526567697374727960501b60448201526064016106fc565b603c80546001600160a01b0319166001600160a01b0392909216919091179055565b60058160ff161180611d47575060ff8116155b1561070e57604051630dc9539d60e31b815260040160405180910390fd5b508054611d719061227f565b6000825580601f10611d81575050565b601f01602090049060005260206000209081019061070e91905b80821115611daf5760008155600101611d9b565b5090565b6001600160a01b038116811461070e57600080fd5b60008060408385031215611ddb57600080fd5b8235611de681611db3565b946020939093013593505050565b600060208284031215611e0657600080fd5b5035919050565b634e487b7160e01b600052604160045260246000fd5b6040805190810167ffffffffffffffff81118282101715611e4657611e46611e0d565b60405290565b604051601f8201601f1916810167ffffffffffffffff81118282101715611e7557611e75611e0d565b604052919050565b600067ffffffffffffffff821115611e9757611e97611e0d565b50601f01601f191660200190565b600082601f830112611eb657600080fd5b8135611ec9611ec482611e7d565b611e4c565b818152846020838601011115611ede57600080fd5b816020850160208301376000918101602001919091529392505050565b600060208284031215611f0d57600080fd5b813567ffffffffffffffff811115611f2457600080fd5b611f3084828501611ea5565b949350505050565b600060208284031215611f4a57600080fd5b8135611f5581611db3565b9392505050565b60005b83811015611f77578181015183820152602001611f5f565b50506000910152565b60008151808452611f98816020860160208601611f5c565b601f01601f19169290920160200192915050565b6000602080830181845280855180835260408601915060408160051b870101925083870160005b8281101561200157603f19888603018452611fef858351611f80565b94509285019290850190600101611fd3565b5092979650505050505050565b6020808252825182820181905260009190848201906040850190845b8181101561204f5783516001600160a01b03168352928401929184019160010161202a565b50909695505050505050565b803560ff8116811461103457600080fd5b6000806040838503121561207f57600080fd5b611de68361205b565b60006020828403121561209a57600080fd5b611f558261205b565b600060208083850312156120b657600080fd5b823567ffffffffffffffff808211156120ce57600080fd5b818501915085601f8301126120e257600080fd5b8135818111156120f4576120f4611e0d565b8060051b9150612105848301611e4c565b818152918301840191848101908884111561211f57600080fd5b938501935b83851015612149578435925061213983611db3565b8282529385019390850190612124565b98975050505050505050565b602081526000611f556020830184611f80565b60008060008060008060c0878903121561218157600080fd5b863561218c81611db3565b9550602087013561219c81611db3565b945060408701359350606087013567ffffffffffffffff8111156121bf57600080fd5b6121cb89828a01611ea5565b9350506080870135915060a08701356121e381611db3565b809150509295509295509295565b60006020828403121561220357600080fd5b81518015158114611f5557600080fd5b634e487b7160e01b600052603260045260246000fd5b634e487b7160e01b600052601160045260246000fd5b60006001820161225157612251612229565b5060010190565b6020808252600d908201526c4e6f7420616e2061646d696e2160981b604082015260600190565b600181811c9082168061229357607f821691505b6020821081036122b357634e487b7160e01b600052602260045260246000fd5b50919050565b60008083546122c78161227f565b600182811680156122df57600181146122f457612323565b60ff1984168752821515830287019450612323565b8760005260208060002060005b8581101561231a5781548a820152908401908201612301565b50505082870194505b50929695505050505050565b60006020828403121561234157600080fd5b8151611f5581611db3565b60006020828403121561235e57600080fd5b5051919050565b601f8211156123af57600081815260208120601f850160051c8101602086101561238c5750805b601f850160051c820191505b818110156123ab57828155600101612398565b5050505b505050565b815167ffffffffffffffff8111156123ce576123ce611e0d565b6123e2816123dc845461227f565b84612365565b602080601f83116001811461241757600084156123ff5750858301515b600019600386901b1c1916600185901b1785556123ab565b600085815260208120601f198616915b8281101561244657888601518255948401946001909101908401612427565b50858210156124645787850151600019600388901b60f8161c191681555b5050505050600190811b01905550565b8181038181111561067157610671612229565b6000602080838503121561249a57600080fd5b825167ffffffffffffffff808211156124b257600080fd5b90840190604082870312156124c657600080fd5b6124ce611e23565b8251828111156124dd57600080fd5b83019150601f820187136124f057600080fd5b81516124fe611ec482611e7d565b818152888683860101111561251257600080fd5b61252182878301888701611f5c565b8252509183015192820192909252949350505050565b634e487b7160e01b600052603160045260246000fdfea26469706673582212205761d28ca7ca59023724783f1259ec37e0f345e50b518373804e382d75337dc564736f6c63430008130033",
    "linkReferences": {}
  },
  "methodIdentifiers": {
    "CONVICTION()": "9023ef95",
    "GROWTH()": "84e4dbb9",
    "PERFORMANCE()": "a2bb6f48",
    "REPUTATION()": "67d48f66",
    "SIZE()": "bdffd282",
    "activateModule(uint256)": "69130c8d",
    "addAdmin(address)": "70480275",
    "addAdmins(address[])": "9c54df64",
    "addURL(string)": "d103449c",
    "admins(uint256)": "14bfd6d0",
    "archetype()": "0e4b2285",
    "beacon()": "59659e90",
    "canJoin(address,uint256)": "03ffe330",
    "deployer()": "d5f39488",
    "getAdmins()": "31ae450b",
    "getAllMembers()": "7c0f6b35",
    "getAutIDAddress()": "88098e3a",
    "getCommitment()": "2a79c611",
    "getURLs()": "206110db",
    "implementation()": "5c60da1b",
    "initialize(address,address,uint256,string,uint256,address)": "dbba0d5c",
    "isAdmin(address)": "24d7806c",
    "isMember(address)": "a230c524",
    "isModuleActivated(uint256)": "10972e90",
    "isURLListed(string)": "68839d28",
    "join(address,uint256)": "3b4da69f",
    "market()": "80f55605",
    "memberCount()": "11aee380",
    "members(uint256)": "5daf08ca",
    "metadataUrl()": "cd29c71a",
    "onboardingAddr()": "8307bd24",
    "pluginRegistry()": "41dcea91",
    "removeAdmin(address)": "1785f53c",
    "removeURL(string)": "810e8c04",
    "setArchetype(uint8)": "7fbaa03b",
    "setCommitment(uint256)": "be9cd052",
    "setMetadataUri(string)": "1130630c",
    "setOnboardingStrategy(address)": "b5a8a3a1",
    "setWeightFor(uint8,uint256)": "72d4d23d",
    "weightFor(uint8)": "f619e183"
  },
  "id": 43
}