{
  "abi": [
    {
      "inputs": [],
      "name": "ArchetypeAlreadySet",
      "type": "error"
    },
    {
      "inputs": [],
      "name": "WrongParameter",
      "type": "error"
    },
    {
      "anonymous": false,
      "inputs": [
        {
          "indexed": false,
          "internalType": "address",
          "name": "member",
          "type": "address"
        }
      ],
      "name": "AdminMemberAdded",
      "type": "event"
    },
    {
      "anonymous": false,
      "inputs": [
        {
          "indexed": false,
          "internalType": "address",
          "name": "member",
          "type": "address"
        }
      ],
      "name": "AdminMemberRemoved",
      "type": "event"
    },
    {
      "anonymous": false,
      "inputs": [
        {
          "indexed": false,
          "internalType": "uint8",
          "name": "",
          "type": "uint8"
        },
        {
          "indexed": false,
          "internalType": "uint256",
          "name": "",
          "type": "uint256"
        }
      ],
      "name": "ArchetypeWeightSet",
      "type": "event"
    },
    {
      "anonymous": false,
      "inputs": [
        {
          "indexed": false,
          "internalType": "uint256",
          "name": "",
          "type": "uint256"
        }
      ],
      "name": "CommitmentSet",
      "type": "event"
    },
    {
      "anonymous": false,
      "inputs": [
        {
          "indexed": false,
          "internalType": "uint8",
          "name": "version",
          "type": "uint8"
        }
      ],
      "name": "Initialized",
      "type": "event"
    },
    {
      "anonymous": false,
      "inputs": [
        {
          "indexed": false,
          "internalType": "uint8",
          "name": "",
          "type": "uint8"
        }
      ],
      "name": "MainArchetypeSet",
      "type": "event"
    },
    {
      "anonymous": false,
      "inputs": [
        {
          "indexed": false,
          "internalType": "uint256",
          "name": "",
          "type": "uint256"
        }
      ],
      "name": "MarketSet",
      "type": "event"
    },
    {
      "anonymous": false,
      "inputs": [],
      "name": "MemberAdded",
      "type": "event"
    },
    {
      "anonymous": false,
      "inputs": [
        {
          "indexed": false,
          "internalType": "string",
          "name": "",
          "type": "string"
        }
      ],
      "name": "MetadataUriUpdated",
      "type": "event"
    },
    {
      "anonymous": false,
      "inputs": [
        {
          "indexed": false,
          "internalType": "uint256",
          "name": "moduleId",
          "type": "uint256"
        }
      ],
      "name": "ModuleActivated",
      "type": "event"
    },
    {
      "anonymous": false,
      "inputs": [
        {
          "indexed": false,
          "internalType": "string",
          "name": "url",
          "type": "string"
        }
      ],
      "name": "UrlAdded",
      "type": "event"
    },
    {
      "anonymous": false,
      "inputs": [
        {
          "indexed": false,
          "internalType": "string",
          "name": "url",
          "type": "string"
        }
      ],
      "name": "UrlRemoved",
      "type": "event"
    },
    {
      "inputs": [],
      "name": "CONVICTION",
      "outputs": [
        {
          "internalType": "uint8",
          "name": "",
          "type": "uint8"
        }
      ],
      "stateMutability": "view",
      "type": "function"
    },
    {
      "inputs": [],
      "name": "GROWTH",
      "outputs": [
        {
          "internalType": "uint8",
          "name": "",
          "type": "uint8"
        }
      ],
      "stateMutability": "view",
      "type": "function"
    },
    {
      "inputs": [],
      "name": "PERFORMANCE",
      "outputs": [
        {
          "internalType": "uint8",
          "name": "",
          "type": "uint8"
        }
      ],
      "stateMutability": "view",
      "type": "function"
    },
    {
      "inputs": [],
      "name": "REPUTATION",
      "outputs": [
        {
          "internalType": "uint8",
          "name": "",
          "type": "uint8"
        }
      ],
      "stateMutability": "view",
      "type": "function"
    },
    {
      "inputs": [],
      "name": "SIZE",
      "outputs": [
        {
          "internalType": "uint8",
          "name": "",
          "type": "uint8"
        }
      ],
      "stateMutability": "view",
      "type": "function"
    },
    {
      "inputs": [
        {
          "internalType": "uint256",
          "name": "moduleId",
          "type": "uint256"
        }
      ],
      "name": "activateModule",
      "outputs": [],
      "stateMutability": "nonpayable",
      "type": "function"
    },
    {
      "inputs": [
        {
          "internalType": "address",
          "name": "member",
          "type": "address"
        }
      ],
      "name": "addAdmin",
      "outputs": [],
      "stateMutability": "nonpayable",
      "type": "function"
    },
    {
      "inputs": [
        {
          "internalType": "address[]",
          "name": "adminAddr",
          "type": "address[]"
        }
      ],
      "name": "addAdmins",
      "outputs": [
        {
          "internalType": "address[]",
          "name": "",
          "type": "address[]"
        }
      ],
      "stateMutability": "nonpayable",
      "type": "function"
    },
    {
      "inputs": [
        {
          "internalType": "string",
          "name": "url",
          "type": "string"
        }
      ],
      "name": "addURL",
      "outputs": [],
      "stateMutability": "nonpayable",
      "type": "function"
    },
    {
      "inputs": [
        {
          "internalType": "uint256",
          "name": "",
          "type": "uint256"
        }
      ],
      "name": "admins",
      "outputs": [
        {
          "internalType": "address",
          "name": "",
          "type": "address"
        }
      ],
      "stateMutability": "view",
      "type": "function"
    },
    {
      "inputs": [],
      "name": "archetype",
      "outputs": [
        {
          "internalType": "uint8",
          "name": "",
          "type": "uint8"
        }
      ],
      "stateMutability": "view",
      "type": "function"
    },
    {
      "inputs": [],
      "name": "beacon",
      "outputs": [
        {
          "internalType": "address",
          "name": "",
          "type": "address"
        }
      ],
      "stateMutability": "view",
      "type": "function"
    },
    {
      "inputs": [
        {
          "internalType": "address",
          "name": "member",
          "type": "address"
        },
        {
          "internalType": "uint256",
          "name": "role",
          "type": "uint256"
        }
      ],
      "name": "canJoin",
      "outputs": [
        {
          "internalType": "bool",
          "name": "",
          "type": "bool"
        }
      ],
      "stateMutability": "view",
      "type": "function"
    },
    {
      "inputs": [],
      "name": "deployer",
      "outputs": [
        {
          "internalType": "address",
          "name": "",
          "type": "address"
        }
      ],
      "stateMutability": "view",
      "type": "function"
    },
    {
      "inputs": [],
      "name": "getAdmins",
      "outputs": [
        {
          "internalType": "address[]",
          "name": "",
          "type": "address[]"
        }
      ],
      "stateMutability": "view",
      "type": "function"
    },
    {
      "inputs": [],
      "name": "getAllMembers",
      "outputs": [
        {
          "internalType": "address[]",
          "name": "",
          "type": "address[]"
        }
      ],
      "stateMutability": "view",
      "type": "function"
    },
    {
      "inputs": [],
      "name": "getAutIDAddress",
      "outputs": [
        {
          "internalType": "address",
          "name": "",
          "type": "address"
        }
      ],
      "stateMutability": "view",
      "type": "function"
    },
    {
      "inputs": [],
      "name": "getCommitment",
      "outputs": [
        {
          "internalType": "uint256",
          "name": "",
          "type": "uint256"
        }
      ],
      "stateMutability": "view",
      "type": "function"
    },
    {
      "inputs": [],
      "name": "getURLs",
      "outputs": [
        {
          "internalType": "string[]",
          "name": "",
          "type": "string[]"
        }
      ],
      "stateMutability": "view",
      "type": "function"
    },
    {
      "inputs": [],
      "name": "implementation",
      "outputs": [
        {
          "internalType": "address",
          "name": "",
          "type": "address"
        }
      ],
      "stateMutability": "view",
      "type": "function"
    },
    {
      "inputs": [
        {
          "internalType": "address",
          "name": "_deployer",
          "type": "address"
        },
        {
          "internalType": "contract IAutID",
          "name": "_autAddr",
          "type": "address"
        },
        {
          "internalType": "uint256",
          "name": "_market",
          "type": "uint256"
        },
        {
          "internalType": "string",
          "name": "_metadata",
          "type": "string"
        },
        {
          "internalType": "uint256",
          "name": "_commitment",
          "type": "uint256"
        },
        {
          "internalType": "address",
          "name": "_pluginRegistry",
          "type": "address"
        }
      ],
      "name": "initialize",
      "outputs": [],
      "stateMutability": "nonpayable",
      "type": "function"
    },
    {
      "inputs": [
        {
          "internalType": "address",
          "name": "",
          "type": "address"
        }
      ],
      "name": "isAdmin",
      "outputs": [
        {
          "internalType": "bool",
          "name": "",
          "type": "bool"
        }
      ],
      "stateMutability": "view",
      "type": "function"
    },
    {
      "inputs": [
        {
          "internalType": "address",
          "name": "",
          "type": "address"
        }
      ],
      "name": "isMember",
      "outputs": [
        {
          "internalType": "bool",
          "name": "",
          "type": "bool"
        }
      ],
      "stateMutability": "view",
      "type": "function"
    },
    {
      "inputs": [
        {
          "internalType": "uint256",
          "name": "moduleId",
          "type": "uint256"
        }
      ],
      "name": "isModuleActivated",
      "outputs": [
        {
          "internalType": "bool",
          "name": "",
          "type": "bool"
        }
      ],
      "stateMutability": "view",
      "type": "function"
    },
    {
      "inputs": [
        {
          "internalType": "string",
          "name": "_url",
          "type": "string"
        }
      ],
      "name": "isURLListed",
      "outputs": [
        {
          "internalType": "bool",
          "name": "",
          "type": "bool"
        }
      ],
      "stateMutability": "view",
      "type": "function"
    },
    {
      "inputs": [
        {
          "internalType": "address",
          "name": "newMember",
          "type": "address"
        },
        {
          "internalType": "uint256",
          "name": "role",
          "type": "uint256"
        }
      ],
      "name": "join",
      "outputs": [],
      "stateMutability": "nonpayable",
      "type": "function"
    },
    {
      "inputs": [],
      "name": "market",
      "outputs": [
        {
          "internalType": "uint256",
          "name": "",
          "type": "uint256"
        }
      ],
      "stateMutability": "view",
      "type": "function"
    },
    {
      "inputs": [],
      "name": "memberCount",
      "outputs": [
        {
          "internalType": "uint256",
          "name": "",
          "type": "uint256"
        }
      ],
      "stateMutability": "view",
      "type": "function"
    },
    {
      "inputs": [
        {
          "internalType": "uint256",
          "name": "",
          "type": "uint256"
        }
      ],
      "name": "members",
      "outputs": [
        {
          "internalType": "address",
          "name": "",
          "type": "address"
        }
      ],
      "stateMutability": "view",
      "type": "function"
    },
    {
      "inputs": [],
      "name": "metadataUrl",
      "outputs": [
        {
          "internalType": "string",
          "name": "",
          "type": "string"
        }
      ],
      "stateMutability": "view",
      "type": "function"
    },
    {
      "inputs": [],
      "name": "onboardingAddr",
      "outputs": [
        {
          "internalType": "address",
          "name": "",
          "type": "address"
        }
      ],
      "stateMutability": "view",
      "type": "function"
    },
    {
      "inputs": [],
      "name": "pluginRegistry",
      "outputs": [
        {
          "internalType": "address",
          "name": "",
          "type": "address"
        }
      ],
      "stateMutability": "view",
      "type": "function"
    },
    {
      "inputs": [
        {
          "internalType": "address",
          "name": "member",
          "type": "address"
        }
      ],
      "name": "removeAdmin",
      "outputs": [],
      "stateMutability": "nonpayable",
      "type": "function"
    },
    {
      "inputs": [
        {
          "internalType": "string",
          "name": "url",
          "type": "string"
        }
      ],
      "name": "removeURL",
      "outputs": [],
      "stateMutability": "nonpayable",
      "type": "function"
    },
    {
      "inputs": [
        {
          "internalType": "uint8",
          "name": "parameter",
          "type": "uint8"
        }
      ],
      "name": "setArchetype",
      "outputs": [],
      "stateMutability": "nonpayable",
      "type": "function"
    },
    {
      "inputs": [
        {
          "internalType": "uint256",
          "name": "commitment",
          "type": "uint256"
        }
      ],
      "name": "setCommitment",
      "outputs": [],
      "stateMutability": "nonpayable",
      "type": "function"
    },
    {
      "inputs": [
        {
          "internalType": "string",
          "name": "metadata",
          "type": "string"
        }
      ],
      "name": "setMetadataUri",
      "outputs": [],
      "stateMutability": "nonpayable",
      "type": "function"
    },
    {
      "inputs": [
        {
          "internalType": "address",
          "name": "onboardingPlugin",
          "type": "address"
        }
      ],
      "name": "setOnboardingStrategy",
      "outputs": [],
      "stateMutability": "nonpayable",
      "type": "function"
    },
    {
      "inputs": [
        {
          "internalType": "uint8",
          "name": "parameter",
          "type": "uint8"
        },
        {
          "internalType": "uint256",
          "name": "value",
          "type": "uint256"
        }
      ],
      "name": "setWeightFor",
      "outputs": [],
      "stateMutability": "nonpayable",
      "type": "function"
    },
    {
      "inputs": [
        {
          "internalType": "uint8",
          "name": "",
          "type": "uint8"
        }
      ],
      "name": "weightFor",
      "outputs": [
        {
          "internalType": "uint256",
          "name": "",
          "type": "uint256"
        }
      ],
      "stateMutability": "view",
      "type": "function"
    }
  ],
  "bytecode": {
    "object": "0x608060405234801561001057600080fd5b506125e1806100206000396000f3fe608060405234801561001057600080fd5b50600436106102485760003560e01c806372d4d23d1161013b578063a230c524116100b8578063cd29c71a1161007c578063cd29c71a146104d5578063d103449c146104ea578063d5f39488146104fd578063dbba0d5c14610510578063f619e1831461052357600080fd5b8063a230c5241461047c578063a2bb6f481461049f578063b5a8a3a1146104a7578063bdffd282146104ba578063be9cd052146104c257600080fd5b80638307bd24116100ff5780638307bd241461043557806384e4dbb91461044857806388098e3a146104505780639023ef95146104615780639c54df641461046957600080fd5b806372d4d23d146103eb5780637c0f6b35146103fe5780637fbaa03b1461040657806380f5560514610419578063810e8c041461042257600080fd5b806331ae450b116101c95780635daf08ca1161018d5780635daf08ca1461039757806367d48f66146103aa57806368839d28146103b257806369130c8d146103c557806370480275146103d857600080fd5b806331ae450b1461034c5780633b4da69f1461036157806341dcea911461037457806359659e90146103875780635c60da1b1461038f57600080fd5b806314bfd6d01161021057806314bfd6d0146102ce5780631785f53c146102f9578063206110db1461030c57806324d7806c146103215780632a79c6111461034457600080fd5b806303ffe3301461024d5780630e4b22851461027557806310972e90146102945780631130630c146102a757806311aee380146102bc575b600080fd5b61026061025b366004611e26565b610543565b60405190151581526020015b60405180910390f35b604a546102829060ff1681565b60405160ff909116815260200161026c565b6102606102a2366004611e52565b610677565b6102ba6102b5366004611f59565b6106cd565b005b6014545b60405190815260200161026c565b6102e16102dc366004611e52565b610711565b6040516001600160a01b03909116815260200161026c565b6102ba610307366004611f96565b61073b565b61031461085d565b60405161026c919061200a565b61026061032f366004611f96565b60176020526000908152604090205460ff1681565b6040546102c0565b610354610936565b60405161026c919061206c565b6102ba61036f366004611e26565b610998565b603c546102e1906001600160a01b031681565b6102e1610a95565b6102e1610ac8565b6102e16103a5366004611e52565b610ad2565b610282600281565b6102606103c0366004611f59565b610ae2565b6102ba6103d3366004611e52565b610b61565b6102ba6103e6366004611f96565b610b99565b6102ba6103f93660046120ca565b610d8e565b610354610dc7565b6102ba6104143660046120e6565b610e27565b6102c060325481565b6102ba610430366004611f59565b610e5f565b6087546102e1906001600160a01b031681565b610282600581565b600a546001600160a01b03166102e1565b610282600381565b610354610477366004612101565b610e97565b61026061048a366004611f96565b60156020526000908152604090205460ff1681565b610282600481565b6102ba6104b5366004611f96565b611097565b610282600181565b6102ba6104d0366004611e52565b611261565b6104dd611299565b60405161026c91906121b3565b6102ba6104f8366004611f59565b611327565b6086546102e1906001600160a01b031681565b6102ba61051e3660046121c6565b61135f565b6102c06105313660046120e6565b604b6020526000908152604090205481565b6087546000906001600160a01b031661055e57506001610671565b6087546001600160a01b0316158015906105ec5750608760009054906101000a90046001600160a01b03166001600160a01b03166322f3e2d46040518163ffffffff1660e01b8152600401602060405180830381865afa1580156105c6573d6000803e3d6000fd5b505050506040513d601f19601f820116820180604052508101906105ea919061224f565b155b156105f957506000610671565b608754604051634f2b51c760e01b81526001600160a01b0385811660048301526024820185905290911690634f2b51c790604401602060405180830381865afa15801561064a573d6000803e3d6000fd5b505050506040513d601f19601f8201168201806040525081019061066e919061224f565b90505b92915050565b6000805b603d548110156106c45782603d828154811061069957610699612271565b9060005260206000200154036106b25750600192915050565b806106bc8161229d565b91505061067b565b50600092915050565b3360009081526017602052604090205460ff166107055760405162461bcd60e51b81526004016106fc906122b6565b60405180910390fd5b61070e81611520565b50565b6016818154811061072157600080fd5b6000918252602090912001546001600160a01b0316905081565b3360009081526017602052604090205460ff1661076a5760405162461bcd60e51b81526004016106fc906122b6565b60005b60165481101561080457816001600160a01b03166016828154811061079457610794612271565b6000918252602090912001546001600160a01b0316036107f2576000601682815481106107c3576107c3612271565b9060005260206000200160006101000a8154816001600160a01b0302191690836001600160a01b031602179055505b806107fc8161229d565b91505061076d565b506001600160a01b038116600081815260176020908152604091829020805460ff1916905590519182527ffa8ae95b9a4f666c3b5f27d11b5c2b9fe1045279f674e7a78ca8b087cba3802591015b60405180910390a150565b60606028805480602002602001604051908101604052809291908181526020016000905b8282101561092d5783829060005260206000200180546108a0906122dd565b80601f01602080910402602001604051908101604052809291908181526020018280546108cc906122dd565b80156109195780601f106108ee57610100808354040283529160200191610919565b820191906000526020600020905b8154815290600101906020018083116108fc57829003601f168201915b505050505081526020019060010190610881565b50505050905090565b6060601680548060200260200160405190810160405280929190818152602001828054801561098e57602002820191906000526020600020905b81546001600160a01b03168152600190910190602001808311610970575b5050505050905090565b600a546001600160a01b031633146109df5760405162461bcd60e51b815260206004820152600a60248201526913db9b1e48105d5d125160b21b60448201526064016106fc565b604051623ffe3360e41b81526001600160a01b03831660048201526024810182905230906303ffe33090604401602060405180830381865afa158015610a29573d6000803e3d6000fd5b505050506040513d601f19601f82011682018060405250810190610a4d919061224f565b610a875760405162461bcd60e51b815260206004820152600b60248201526a1b9bdd08185b1b1bddd95960aa1b60448201526064016106fc565b610a91828261159b565b5050565b60007fa3f0ad74e5423aebfd80d3ef4346578335a9a72aeaee59ff6cb3582b35133d515b546001600160a01b0316919050565b6000610ab96116d3565b6014818154811061072157600080fd5b6028546000908103610af657506000919050565b81516020808401919091206000818152602990925260409091205415610b1f5750600192915050565b806028600081548110610b3457610b34612271565b90600052602060002001604051610b4b9190612317565b6040518091039020036106c45750600192915050565b3360009081526017602052604090205460ff16610b905760405162461bcd60e51b81526004016106fc906122b6565b61070e81611706565b3360009081526017602052604090205460ff16610bc85760405162461bcd60e51b81526004016106fc906122b6565b6001600160a01b03811660009081526015602052604090205460ff16158015610cbc5750306001600160a01b03166341dcea916040518163ffffffff1660e01b8152600401602060405180830381865afa158015610c2a573d6000803e3d6000fd5b505050506040513d601f19601f82011682018060405250810190610c4e919061238d565b6040516328e26caf60e11b81526001600160a01b03838116600483015291909116906351c4d95e90602401602060405180830381865afa158015610c96573d6000803e3d6000fd5b505050506040513d601f19601f82011682018060405250810190610cba91906123aa565b155b15610cf85760405162461bcd60e51b815260206004820152600c60248201526b2737ba10309036b2b6b132b960a11b60448201526064016106fc565b6001600160a01b0381166000818152601760209081526040808320805460ff191660019081179091556016805491820181559093527fd833147d7dc355ba459fc788f669e58cfaf9dc25ddcd0702e87d69c7b512428990920180546001600160a01b0319168417905590519182527fa06b993f17e63959ef40ec8755fc98020c50e9d2794ce5fc0886a7792a9fbaec9101610852565b3360009081526017602052604090205460ff16610dbd5760405162461bcd60e51b81526004016106fc906122b6565b610a918282611893565b6060601480548060200260200160405190810160405280929190818152602001828054801561098e576020028201919060005260206000209081546001600160a01b03168152600190910190602001808311610970575050505050905090565b3360009081526017602052604090205460ff16610e565760405162461bcd60e51b81526004016106fc906122b6565b61070e816118b2565b3360009081526017602052604090205460ff16610e8e5760405162461bcd60e51b81526004016106fc906122b6565b61070e816118f5565b3360009081526017602052604090205460609060ff16610ec95760405162461bcd60e51b81526004016106fc906122b6565b60005b825181101561108d5760156000848381518110610eeb57610eeb612271565b6020908102919091018101516001600160a01b031682528101919091526040016000205460ff16610f3d57828181518110610f2857610f28612271565b60006020918202929092010152600101610ecc565b60176000848381518110610f5357610f53612271565b6020908102919091018101516001600160a01b031682528101919091526040016000205460ff16611085576016838281518110610f9257610f92612271565b60209081029190910181015182546001808201855560009485529284200180546001600160a01b0319166001600160a01b0390921691909117905584519091601791869085908110610fe657610fe6612271565b60200260200101516001600160a01b03166001600160a01b0316815260200190815260200160002060006101000a81548160ff0219169083151502179055507fa06b993f17e63959ef40ec8755fc98020c50e9d2794ce5fc0886a7792a9fbaec83828151811061105857611058612271565b602002602001015160405161107c91906001600160a01b0391909116815260200190565b60405180910390a15b600101610ecc565b829150505b919050565b806001600160a01b031663a1308f276040518163ffffffff1660e01b8152600401602060405180830381865afa1580156110d5573d6000803e3d6000fd5b505050506040513d601f19601f820116820180604052508101906110f991906123aa565b6001146111415760405162461bcd60e51b815260206004820152601660248201527527b7363c9027b73137b0b93234b7339028363ab3b4b760511b60448201526064016106fc565b6087546001600160a01b03166111a757603c546001600160a01b031633146111a25760405162461bcd60e51b81526020600482015260146024820152734f6e6c7920506c7567696e20526567697374727960601b60448201526064016106fc565b61123f565b604051630935e01b60e21b815233600482015230906324d7806c90602401602060405180830381865afa1580156111e2573d6000803e3d6000fd5b505050506040513d601f19601f82011682018060405250810190611206919061224f565b61123f5760405162461bcd60e51b815260206004820152600a60248201526927b7363c9020b236b4b760b11b60448201526064016106fc565b608780546001600160a01b0319166001600160a01b0392909216919091179055565b3360009081526017602052604090205460ff166112905760405162461bcd60e51b81526004016106fc906122b6565b61070e81611af5565b601e80546112a6906122dd565b80601f01602080910402602001604051908101604052809291908181526020018280546112d2906122dd565b801561131f5780601f106112f45761010080835404028352916020019161131f565b820191906000526020600020905b81548152906001019060200180831161130257829003601f168201915b505050505081565b3360009081526017602052604090205460ff166113565760405162461bcd60e51b81526004016106fc906122b6565b61070e81611b79565b600054610100900460ff161580801561137f5750600054600160ff909116105b806113995750303b158015611399575060005460ff166001145b6113fc5760405162461bcd60e51b815260206004820152602e60248201527f496e697469616c697a61626c653a20636f6e747261637420697320616c72656160448201526d191e481a5b9a5d1a585b1a5e995960921b60648201526084016106fc565b6000805460ff19166001179055801561141f576000805461ff0019166101001790555b608680546001600160a01b0389166001600160a01b031991821681179092556000828152601760205260408120805460ff191660019081179091556016805491820181559091527fd833147d7dc355ba459fc788f669e58cfaf9dc25ddcd0702e87d69c7b5124289018054909116909117905561149b85611c9f565b600a80546001600160a01b0319166001600160a01b0388161790556114bf83611af5565b6114c884611520565b6114d182611d21565b8015611517576000805461ff0019169055604051600181527f7f26b83ff96e1f2b6a682f133852f6798a09c465da95921460cefb38474024989060200160405180910390a15b50505050505050565b600081511161155f5760405162461bcd60e51b815260206004820152600b60248201526a1a5b9d985b1a59081d5c9b60aa1b60448201526064016106fc565b601e61156b8282612412565b507f48674fffb03fee00a113cc146f3aa94a9720a4cb3839fbb855c436859d39a9778160405161085291906121b3565b600a546001600160a01b031633146115e25760405162461bcd60e51b815260206004820152600a60248201526913db9b1e48105d5d125160b21b60448201526064016106fc565b6001600160a01b03821660009081526015602052604090205460ff161561163e5760405162461bcd60e51b815260206004820152601060248201526f20b63932b0b23c90309036b2b6b132b960811b60448201526064016106fc565b6001600160a01b038216600081815260156020526040808220805460ff1916600190811790915560148054918201815583527fce6d7b5282bd9a3661ae061feed1dbda4e52ab073b1f9285be6e155d9c38d4ec0180546001600160a01b03191690931790925590517f94d9b0a056867efca93631b338c7fde3befc3f54db36b90b8456b069385c30be9190a15050565b905090565b60006116ce61170360017f9cd0ce681e2068367bc5a81f4d9ba398e81f54e5133fd5d82ceb0f48c38d72396124d2565b90565b603c5460408051631055995d60e31b815290516000926001600160a01b0316916382accae89160048083019260209291908290030181865afa158015611750573d6000803e3d6000fd5b505050506040513d601f19601f82011682018060405250810190611774919061238d565b6040516339076b2160e11b8152600481018490529091506000906001600160a01b0383169063720ed64290602401600060405180830381865afa1580156117bf573d6000803e3d6000fd5b505050506040513d6000823e601f3d908101601f191682016040526117e791908101906124e5565b5151116118275760405162461bcd60e51b815260206004820152600e60248201526d696e76616c6964206d6f64756c6560901b60448201526064016106fc565b603d80546001810182556000919091527fece66cfdbd22e3f37d348a3d8e19074452862cd65fd4b9a11f0336d1ac6d1dc3018290556040518281527fc1866ccaad33ac161f17d9db7a528f0c819a376e1cad17ba2d5c9b49a7eba2cd9060200160405180910390a15050565b61189c82611d92565b60ff9091166000908152604b6020526040902055565b604a5460ff16156118d657604051632eb2d90160e11b815260040160405180910390fd5b6118df81611d92565b604a805460ff191660ff92909216919091179055565b6118fe81610ae2565b61193d5760405162461bcd60e51b815260206004820152601060248201526f1d5c9b08191bd95cdb9d08195e1a5cdd60821b60448201526064016106fc565b805160208083019190912060008181526029909252604090912054602854611967906001906124d2565b8114611a78576028805460009190611981906001906124d2565b8154811061199157611991612271565b9060005260206000200180546119a6906122dd565b80601f01602080910402602001604051908101604052809291908181526020018280546119d2906122dd565b8015611a1f5780601f106119f457610100808354040283529160200191611a1f565b820191906000526020600020905b815481529060010190602001808311611a0257829003601f168201915b505050505090506000818051906020012090508260296000838152602001908152602001600020819055508160288481548110611a5e57611a5e612271565b906000526020600020019081611a749190612412565b5050505b6028805480611a8957611a89612595565b600190038181906000526020600020016000611aa59190611dc3565b905560008281526029602052604080822091909155517f906b87aebf1e5cc40a1cebd6811c88addf04309f8c8ce71c7d6449d343e4ad0990611ae89085906121b3565b60405180910390a1505050565b600081118015611b055750600b81105b611b465760405162461bcd60e51b81526020600482015260126024820152711a5b9d985b1a590818dbdb5b5a5d1b595b9d60721b60448201526064016106fc565b6040818155518181527fb65d029b8a6c07cb00888825aac545b9b5c5c022683357f9d1ea8abf06dfdb4690602001610852565b8051602082012060285460009015611be157600082815260296020526040902054151580611bd85750816028600081548110611bb757611bb7612271565b90600052602060002001604051611bce9190612317565b6040518091039020145b15611be1575060015b8015611c245760405162461bcd60e51b815260206004820152601260248201527175726c20616c72656164792065786973747360701b60448201526064016106fc565b602880546000848152602960205260408120829055600182018355919091527fe16da923a2d88192e5070f37b4571d58682c0d66212ec634d495f33de3f77ab501611c6f8482612412565b507f21d5cca3f840791ade736f51501810c14b8b01791ac4357713ed763ccbbaf3a983604051611ae891906121b3565b600081118015611caf5750600481105b611cec5760405162461bcd60e51b815260206004820152600e60248201526d1a5b9d985b1a59081b585c9ad95d60921b60448201526064016106fc565b60328190556040518181527fed3f3ef79c893a1a183c59258a18224fe4f9dee870f486fce68ad3d3f26bff7090602001610852565b6001600160a01b038116611d705760405162461bcd60e51b8152602060048201526016602482015275696e76616c696420706c7567696e526567697374727960501b60448201526064016106fc565b603c80546001600160a01b0319166001600160a01b0392909216919091179055565b60058160ff161180611da5575060ff8116155b1561070e57604051630dc9539d60e31b815260040160405180910390fd5b508054611dcf906122dd565b6000825580601f10611ddf575050565b601f01602090049060005260206000209081019061070e91905b80821115611e0d5760008155600101611df9565b5090565b6001600160a01b038116811461070e57600080fd5b60008060408385031215611e3957600080fd5b8235611e4481611e11565b946020939093013593505050565b600060208284031215611e6457600080fd5b5035919050565b634e487b7160e01b600052604160045260246000fd5b6040805190810167ffffffffffffffff81118282101715611ea457611ea4611e6b565b60405290565b604051601f8201601f1916810167ffffffffffffffff81118282101715611ed357611ed3611e6b565b604052919050565b600067ffffffffffffffff821115611ef557611ef5611e6b565b50601f01601f191660200190565b600082601f830112611f1457600080fd5b8135611f27611f2282611edb565b611eaa565b818152846020838601011115611f3c57600080fd5b816020850160208301376000918101602001919091529392505050565b600060208284031215611f6b57600080fd5b813567ffffffffffffffff811115611f8257600080fd5b611f8e84828501611f03565b949350505050565b600060208284031215611fa857600080fd5b8135611fb381611e11565b9392505050565b60005b83811015611fd5578181015183820152602001611fbd565b50506000910152565b60008151808452611ff6816020860160208601611fba565b601f01601f19169290920160200192915050565b6000602080830181845280855180835260408601915060408160051b870101925083870160005b8281101561205f57603f1988860301845261204d858351611fde565b94509285019290850190600101612031565b5092979650505050505050565b6020808252825182820181905260009190848201906040850190845b818110156120ad5783516001600160a01b031683529284019291840191600101612088565b50909695505050505050565b803560ff8116811461109257600080fd5b600080604083850312156120dd57600080fd5b611e44836120b9565b6000602082840312156120f857600080fd5b611fb3826120b9565b6000602080838503121561211457600080fd5b823567ffffffffffffffff8082111561212c57600080fd5b818501915085601f83011261214057600080fd5b81358181111561215257612152611e6b565b8060051b9150612163848301611eaa565b818152918301840191848101908884111561217d57600080fd5b938501935b838510156121a7578435925061219783611e11565b8282529385019390850190612182565b98975050505050505050565b602081526000611fb36020830184611fde565b60008060008060008060c087890312156121df57600080fd5b86356121ea81611e11565b955060208701356121fa81611e11565b945060408701359350606087013567ffffffffffffffff81111561221d57600080fd5b61222989828a01611f03565b9350506080870135915060a087013561224181611e11565b809150509295509295509295565b60006020828403121561226157600080fd5b81518015158114611fb357600080fd5b634e487b7160e01b600052603260045260246000fd5b634e487b7160e01b600052601160045260246000fd5b6000600182016122af576122af612287565b5060010190565b6020808252600d908201526c4e6f7420616e2061646d696e2160981b604082015260600190565b600181811c908216806122f157607f821691505b60208210810361231157634e487b7160e01b600052602260045260246000fd5b50919050565b6000808354612325816122dd565b6001828116801561233d576001811461235257612381565b60ff1984168752821515830287019450612381565b8760005260208060002060005b858110156123785781548a82015290840190820161235f565b50505082870194505b50929695505050505050565b60006020828403121561239f57600080fd5b8151611fb381611e11565b6000602082840312156123bc57600080fd5b5051919050565b601f82111561240d57600081815260208120601f850160051c810160208610156123ea5750805b601f850160051c820191505b81811015612409578281556001016123f6565b5050505b505050565b815167ffffffffffffffff81111561242c5761242c611e6b565b6124408161243a84546122dd565b846123c3565b602080601f831160018114612475576000841561245d5750858301515b600019600386901b1c1916600185901b178555612409565b600085815260208120601f198616915b828110156124a457888601518255948401946001909101908401612485565b50858210156124c25787850151600019600388901b60f8161c191681555b5050505050600190811b01905550565b8181038181111561067157610671612287565b600060208083850312156124f857600080fd5b825167ffffffffffffffff8082111561251057600080fd5b908401906040828703121561252457600080fd5b61252c611e81565b82518281111561253b57600080fd5b83019150601f8201871361254e57600080fd5b815161255c611f2282611edb565b818152888683860101111561257057600080fd5b61257f82878301888701611fba565b8252509183015192820192909252949350505050565b634e487b7160e01b600052603160045260246000fdfea264697066735822122091f007c2cc0473dcd3d026c7382e52293b678ab3cf7bf7f8cbd0552837b0d61964736f6c63430008130033",
    "linkReferences": {}
  },
  "methodIdentifiers": {
    "CONVICTION()": "9023ef95",
    "GROWTH()": "84e4dbb9",
    "PERFORMANCE()": "a2bb6f48",
    "REPUTATION()": "67d48f66",
    "SIZE()": "bdffd282",
    "activateModule(uint256)": "69130c8d",
    "addAdmin(address)": "70480275",
    "addAdmins(address[])": "9c54df64",
    "addURL(string)": "d103449c",
    "admins(uint256)": "14bfd6d0",
    "archetype()": "0e4b2285",
    "beacon()": "59659e90",
    "canJoin(address,uint256)": "03ffe330",
    "deployer()": "d5f39488",
    "getAdmins()": "31ae450b",
    "getAllMembers()": "7c0f6b35",
    "getAutIDAddress()": "88098e3a",
    "getCommitment()": "2a79c611",
    "getURLs()": "206110db",
    "implementation()": "5c60da1b",
    "initialize(address,address,uint256,string,uint256,address)": "dbba0d5c",
    "isAdmin(address)": "24d7806c",
    "isMember(address)": "a230c524",
    "isModuleActivated(uint256)": "10972e90",
    "isURLListed(string)": "68839d28",
    "join(address,uint256)": "3b4da69f",
    "market()": "80f55605",
    "memberCount()": "11aee380",
    "members(uint256)": "5daf08ca",
    "metadataUrl()": "cd29c71a",
    "onboardingAddr()": "8307bd24",
    "pluginRegistry()": "41dcea91",
    "removeAdmin(address)": "1785f53c",
    "removeURL(string)": "810e8c04",
    "setArchetype(uint8)": "7fbaa03b",
    "setCommitment(uint256)": "be9cd052",
    "setMetadataUri(string)": "1130630c",
    "setOnboardingStrategy(address)": "b5a8a3a1",
    "setWeightFor(uint8,uint256)": "72d4d23d",
    "weightFor(uint8)": "f619e183"
  },
  "id": 65
}