{
  "abi": [
    {
      "inputs": [],
      "name": "ArchetypeAlreadySet",
      "type": "error"
    },
    {
      "inputs": [],
      "name": "WrongParameter",
      "type": "error"
    },
    {
      "anonymous": false,
      "inputs": [
        {
          "indexed": false,
          "internalType": "address",
          "name": "member",
          "type": "address"
        }
      ],
      "name": "AdminMemberAdded",
      "type": "event"
    },
    {
      "anonymous": false,
      "inputs": [
        {
          "indexed": false,
          "internalType": "address",
          "name": "member",
          "type": "address"
        }
      ],
      "name": "AdminMemberRemoved",
      "type": "event"
    },
    {
      "anonymous": false,
      "inputs": [
        {
          "indexed": false,
          "internalType": "uint8",
          "name": "",
          "type": "uint8"
        },
        {
          "indexed": false,
          "internalType": "uint256",
          "name": "",
          "type": "uint256"
        }
      ],
      "name": "ArchetypeWeightSet",
      "type": "event"
    },
    {
      "anonymous": false,
      "inputs": [
        {
          "indexed": false,
          "internalType": "uint256",
          "name": "",
          "type": "uint256"
        }
      ],
      "name": "CommitmentSet",
      "type": "event"
    },
    {
      "anonymous": false,
      "inputs": [
        {
          "indexed": false,
          "internalType": "uint8",
          "name": "version",
          "type": "uint8"
        }
      ],
      "name": "Initialized",
      "type": "event"
    },
    {
      "anonymous": false,
      "inputs": [
        {
          "indexed": false,
          "internalType": "uint8",
          "name": "",
          "type": "uint8"
        }
      ],
      "name": "MainArchetypeSet",
      "type": "event"
    },
    {
      "anonymous": false,
      "inputs": [
        {
          "indexed": false,
          "internalType": "uint256",
          "name": "",
          "type": "uint256"
        }
      ],
      "name": "MarketSet",
      "type": "event"
    },
    {
      "anonymous": false,
      "inputs": [],
      "name": "MemberAdded",
      "type": "event"
    },
    {
      "anonymous": false,
      "inputs": [
        {
          "indexed": false,
          "internalType": "string",
          "name": "",
          "type": "string"
        }
      ],
      "name": "MetadataUriUpdated",
      "type": "event"
    },
    {
      "anonymous": false,
      "inputs": [
        {
          "indexed": false,
          "internalType": "uint256",
          "name": "moduleId",
          "type": "uint256"
        }
      ],
      "name": "ModuleActivated",
      "type": "event"
    },
    {
      "anonymous": false,
      "inputs": [
        {
          "indexed": false,
          "internalType": "string",
          "name": "url",
          "type": "string"
        }
      ],
      "name": "UrlAdded",
      "type": "event"
    },
    {
      "anonymous": false,
      "inputs": [
        {
          "indexed": false,
          "internalType": "string",
          "name": "url",
          "type": "string"
        }
      ],
      "name": "UrlRemoved",
      "type": "event"
    },
    {
      "inputs": [],
      "name": "CONVICTION",
      "outputs": [
        {
          "internalType": "uint8",
          "name": "",
          "type": "uint8"
        }
      ],
      "stateMutability": "view",
      "type": "function"
    },
    {
      "inputs": [],
      "name": "GROWTH",
      "outputs": [
        {
          "internalType": "uint8",
          "name": "",
          "type": "uint8"
        }
      ],
      "stateMutability": "view",
      "type": "function"
    },
    {
      "inputs": [],
      "name": "PERFORMANCE",
      "outputs": [
        {
          "internalType": "uint8",
          "name": "",
          "type": "uint8"
        }
      ],
      "stateMutability": "view",
      "type": "function"
    },
    {
      "inputs": [],
      "name": "REPUTATION",
      "outputs": [
        {
          "internalType": "uint8",
          "name": "",
          "type": "uint8"
        }
      ],
      "stateMutability": "view",
      "type": "function"
    },
    {
      "inputs": [],
      "name": "SIZE",
      "outputs": [
        {
          "internalType": "uint8",
          "name": "",
          "type": "uint8"
        }
      ],
      "stateMutability": "view",
      "type": "function"
    },
    {
      "inputs": [
        {
          "internalType": "uint256",
          "name": "moduleId",
          "type": "uint256"
        }
      ],
      "name": "activateModule",
      "outputs": [],
      "stateMutability": "nonpayable",
      "type": "function"
    },
    {
      "inputs": [
        {
          "internalType": "address",
          "name": "member",
          "type": "address"
        }
      ],
      "name": "addAdmin",
      "outputs": [],
      "stateMutability": "nonpayable",
      "type": "function"
    },
    {
      "inputs": [
        {
          "internalType": "address[]",
          "name": "adminAddr",
          "type": "address[]"
        }
      ],
      "name": "addAdmins",
      "outputs": [
        {
          "internalType": "address[]",
          "name": "",
          "type": "address[]"
        }
      ],
      "stateMutability": "nonpayable",
      "type": "function"
    },
    {
      "inputs": [
        {
          "internalType": "string",
          "name": "url",
          "type": "string"
        }
      ],
      "name": "addURL",
      "outputs": [],
      "stateMutability": "nonpayable",
      "type": "function"
    },
    {
      "inputs": [
        {
          "internalType": "uint256",
          "name": "",
          "type": "uint256"
        }
      ],
      "name": "admins",
      "outputs": [
        {
          "internalType": "address",
          "name": "",
          "type": "address"
        }
      ],
      "stateMutability": "view",
      "type": "function"
    },
    {
      "inputs": [],
      "name": "archetype",
      "outputs": [
        {
          "internalType": "uint8",
          "name": "",
          "type": "uint8"
        }
      ],
      "stateMutability": "view",
      "type": "function"
    },
    {
      "inputs": [],
      "name": "beacon",
      "outputs": [
        {
          "internalType": "address",
          "name": "",
          "type": "address"
        }
      ],
      "stateMutability": "view",
      "type": "function"
    },
    {
      "inputs": [
        {
          "internalType": "address",
          "name": "member",
          "type": "address"
        },
        {
          "internalType": "uint256",
          "name": "role",
          "type": "uint256"
        }
      ],
      "name": "canJoin",
      "outputs": [
        {
          "internalType": "bool",
          "name": "",
          "type": "bool"
        }
      ],
      "stateMutability": "view",
      "type": "function"
    },
    {
      "inputs": [],
      "name": "deployer",
      "outputs": [
        {
          "internalType": "address",
          "name": "",
          "type": "address"
        }
      ],
      "stateMutability": "view",
      "type": "function"
    },
    {
      "inputs": [],
      "name": "getAdmins",
      "outputs": [
        {
          "internalType": "address[]",
          "name": "",
          "type": "address[]"
        }
      ],
      "stateMutability": "view",
      "type": "function"
    },
    {
      "inputs": [],
      "name": "getAllMembers",
      "outputs": [
        {
          "internalType": "address[]",
          "name": "",
          "type": "address[]"
        }
      ],
      "stateMutability": "view",
      "type": "function"
    },
    {
      "inputs": [],
      "name": "getAutIDAddress",
      "outputs": [
        {
          "internalType": "address",
          "name": "",
          "type": "address"
        }
      ],
      "stateMutability": "view",
      "type": "function"
    },
    {
      "inputs": [],
      "name": "getCommitment",
      "outputs": [
        {
          "internalType": "uint256",
          "name": "",
          "type": "uint256"
        }
      ],
      "stateMutability": "view",
      "type": "function"
    },
    {
      "inputs": [],
      "name": "getURLs",
      "outputs": [
        {
          "internalType": "string[]",
          "name": "",
          "type": "string[]"
        }
      ],
      "stateMutability": "view",
      "type": "function"
    },
    {
      "inputs": [],
      "name": "implementation",
      "outputs": [
        {
          "internalType": "address",
          "name": "",
          "type": "address"
        }
      ],
      "stateMutability": "view",
      "type": "function"
    },
    {
      "inputs": [
        {
          "internalType": "address",
          "name": "_deployer",
          "type": "address"
        },
        {
          "internalType": "contract IAutID",
          "name": "_autAddr",
          "type": "address"
        },
        {
          "internalType": "uint256",
          "name": "_market",
          "type": "uint256"
        },
        {
          "internalType": "string",
          "name": "_metadata",
          "type": "string"
        },
        {
          "internalType": "uint256",
          "name": "_commitment",
          "type": "uint256"
        },
        {
          "internalType": "address",
          "name": "_pluginRegistry",
          "type": "address"
        }
      ],
      "name": "initialize",
      "outputs": [],
      "stateMutability": "nonpayable",
      "type": "function"
    },
    {
      "inputs": [
        {
          "internalType": "address",
          "name": "",
          "type": "address"
        }
      ],
      "name": "isAdmin",
      "outputs": [
        {
          "internalType": "bool",
          "name": "",
          "type": "bool"
        }
      ],
      "stateMutability": "view",
      "type": "function"
    },
    {
      "inputs": [
        {
          "internalType": "address",
          "name": "",
          "type": "address"
        }
      ],
      "name": "isMember",
      "outputs": [
        {
          "internalType": "bool",
          "name": "",
          "type": "bool"
        }
      ],
      "stateMutability": "view",
      "type": "function"
    },
    {
      "inputs": [
        {
          "internalType": "uint256",
          "name": "moduleId",
          "type": "uint256"
        }
      ],
      "name": "isModuleActivated",
      "outputs": [
        {
          "internalType": "bool",
          "name": "",
          "type": "bool"
        }
      ],
      "stateMutability": "view",
      "type": "function"
    },
    {
      "inputs": [
        {
          "internalType": "string",
          "name": "_url",
          "type": "string"
        }
      ],
      "name": "isURLListed",
      "outputs": [
        {
          "internalType": "bool",
          "name": "",
          "type": "bool"
        }
      ],
      "stateMutability": "view",
      "type": "function"
    },
    {
      "inputs": [
        {
          "internalType": "address",
          "name": "newMember",
          "type": "address"
        },
        {
          "internalType": "uint256",
          "name": "role",
          "type": "uint256"
        }
      ],
      "name": "join",
      "outputs": [],
      "stateMutability": "nonpayable",
      "type": "function"
    },
    {
      "inputs": [],
      "name": "market",
      "outputs": [
        {
          "internalType": "uint256",
          "name": "",
          "type": "uint256"
        }
      ],
      "stateMutability": "view",
      "type": "function"
    },
    {
      "inputs": [],
      "name": "memberCount",
      "outputs": [
        {
          "internalType": "uint256",
          "name": "",
          "type": "uint256"
        }
      ],
      "stateMutability": "view",
      "type": "function"
    },
    {
      "inputs": [
        {
          "internalType": "uint256",
          "name": "",
          "type": "uint256"
        }
      ],
      "name": "members",
      "outputs": [
        {
          "internalType": "address",
          "name": "",
          "type": "address"
        }
      ],
      "stateMutability": "view",
      "type": "function"
    },
    {
      "inputs": [],
      "name": "metadataUrl",
      "outputs": [
        {
          "internalType": "string",
          "name": "",
          "type": "string"
        }
      ],
      "stateMutability": "view",
      "type": "function"
    },
    {
      "inputs": [],
      "name": "onboardingAddr",
      "outputs": [
        {
          "internalType": "address",
          "name": "",
          "type": "address"
        }
      ],
      "stateMutability": "view",
      "type": "function"
    },
    {
      "inputs": [],
      "name": "pluginRegistry",
      "outputs": [
        {
          "internalType": "address",
          "name": "",
          "type": "address"
        }
      ],
      "stateMutability": "view",
      "type": "function"
    },
    {
      "inputs": [
        {
          "internalType": "address",
          "name": "member",
          "type": "address"
        }
      ],
      "name": "removeAdmin",
      "outputs": [],
      "stateMutability": "nonpayable",
      "type": "function"
    },
    {
      "inputs": [
        {
          "internalType": "string",
          "name": "url",
          "type": "string"
        }
      ],
      "name": "removeURL",
      "outputs": [],
      "stateMutability": "nonpayable",
      "type": "function"
    },
    {
      "inputs": [
        {
          "internalType": "uint8",
          "name": "parameter",
          "type": "uint8"
        }
      ],
      "name": "setArchetype",
      "outputs": [],
      "stateMutability": "nonpayable",
      "type": "function"
    },
    {
      "inputs": [
        {
          "internalType": "uint8[]",
          "name": "input",
          "type": "uint8[]"
        }
      ],
      "name": "setArchetypeAndParameters",
      "outputs": [],
      "stateMutability": "nonpayable",
      "type": "function"
    },
    {
      "inputs": [
        {
          "internalType": "uint256",
          "name": "commitment",
          "type": "uint256"
        }
      ],
      "name": "setCommitment",
      "outputs": [],
      "stateMutability": "nonpayable",
      "type": "function"
    },
    {
      "inputs": [
        {
          "internalType": "string",
          "name": "metadata",
          "type": "string"
        }
      ],
      "name": "setMetadataUri",
      "outputs": [],
      "stateMutability": "nonpayable",
      "type": "function"
    },
    {
      "inputs": [
        {
          "internalType": "address",
          "name": "onboardingPlugin",
          "type": "address"
        }
      ],
      "name": "setOnboardingStrategy",
      "outputs": [],
      "stateMutability": "nonpayable",
      "type": "function"
    },
    {
      "inputs": [
        {
          "internalType": "uint8",
          "name": "parameter",
          "type": "uint8"
        },
        {
          "internalType": "uint256",
          "name": "value",
          "type": "uint256"
        }
      ],
      "name": "setWeightFor",
      "outputs": [],
      "stateMutability": "nonpayable",
      "type": "function"
    },
    {
      "inputs": [
        {
          "internalType": "uint8",
          "name": "",
          "type": "uint8"
        }
      ],
      "name": "weightFor",
      "outputs": [
        {
          "internalType": "uint256",
          "name": "",
          "type": "uint256"
        }
      ],
      "stateMutability": "view",
      "type": "function"
    }
  ],
  "bytecode": {
    "object": "0x608060405234801561001057600080fd5b5061277c806100206000396000f3fe608060405234801561001057600080fd5b50600436106102535760003560e01c806372d4d23d11610146578063a230c524116100c3578063be9cd05211610087578063be9cd052146104e0578063cd29c71a146104f3578063d103449c14610508578063d5f394881461051b578063dbba0d5c1461052e578063f619e1831461054157600080fd5b8063a230c52414610487578063a2bb6f48146104aa578063b5a8a3a1146104b2578063bbe9b1dc146104c5578063bdffd282146104d857600080fd5b80638307bd241161010a5780638307bd241461044057806384e4dbb91461045357806388098e3a1461045b5780639023ef951461046c5780639c54df641461047457600080fd5b806372d4d23d146103f65780637c0f6b35146104095780637fbaa03b1461041157806380f5560514610424578063810e8c041461042d57600080fd5b806331ae450b116101d45780635daf08ca116101985780635daf08ca146103a257806367d48f66146103b557806368839d28146103bd57806369130c8d146103d057806370480275146103e357600080fd5b806331ae450b146103575780633b4da69f1461036c57806341dcea911461037f57806359659e90146103925780635c60da1b1461039a57600080fd5b806314bfd6d01161021b57806314bfd6d0146102d95780631785f53c14610304578063206110db1461031757806324d7806c1461032c5780632a79c6111461034f57600080fd5b806303ffe330146102585780630e4b22851461028057806310972e901461029f5780631130630c146102b257806311aee380146102c7575b600080fd5b61026b610266366004611f28565b610561565b60405190151581526020015b60405180910390f35b604a5461028d9060ff1681565b60405160ff9091168152602001610277565b61026b6102ad366004611f54565b610695565b6102c56102c036600461205b565b6106eb565b005b6014545b604051908152602001610277565b6102ec6102e7366004611f54565b61072f565b6040516001600160a01b039091168152602001610277565b6102c5610312366004612098565b610759565b61031f61087b565b604051610277919061210c565b61026b61033a366004612098565b60176020526000908152604090205460ff1681565b6040546102cb565b61035f610954565b604051610277919061216e565b6102c561037a366004611f28565b6109b6565b603c546102ec906001600160a01b031681565b6102ec610ab3565b6102ec610ae6565b6102ec6103b0366004611f54565b610af0565b61028d600281565b61026b6103cb36600461205b565b610b00565b6102c56103de366004611f54565b610b7f565b6102c56103f1366004612098565b610bb7565b6102c56104043660046121cc565b610dac565b61035f610de5565b6102c561041f3660046121e8565b610e45565b6102cb60325481565b6102c561043b36600461205b565b610e7d565b6087546102ec906001600160a01b031681565b61028d600581565b600a546001600160a01b03166102ec565b61028d600381565b61035f610482366004612227565b610eb5565b61026b610495366004612098565b60156020526000908152604090205460ff1681565b61028d600481565b6102c56104c0366004612098565b6110b5565b6102c56104d33660046122c1565b61127f565b61028d600181565b6102c56104ee366004611f54565b611363565b6104fb61139b565b604051610277919061234e565b6102c561051636600461205b565b611429565b6086546102ec906001600160a01b031681565b6102c561053c366004612361565b611461565b6102cb61054f3660046121e8565b604b6020526000908152604090205481565b6087546000906001600160a01b031661057c5750600161068f565b6087546001600160a01b03161580159061060a5750608760009054906101000a90046001600160a01b03166001600160a01b03166322f3e2d46040518163ffffffff1660e01b8152600401602060405180830381865afa1580156105e4573d6000803e3d6000fd5b505050506040513d601f19601f8201168201806040525081019061060891906123ea565b155b156106175750600061068f565b608754604051634f2b51c760e01b81526001600160a01b0385811660048301526024820185905290911690634f2b51c790604401602060405180830381865afa158015610668573d6000803e3d6000fd5b505050506040513d601f19601f8201168201806040525081019061068c91906123ea565b90505b92915050565b6000805b603d548110156106e25782603d82815481106106b7576106b761240c565b9060005260206000200154036106d05750600192915050565b806106da81612438565b915050610699565b50600092915050565b3360009081526017602052604090205460ff166107235760405162461bcd60e51b815260040161071a90612451565b60405180910390fd5b61072c81611622565b50565b6016818154811061073f57600080fd5b6000918252602090912001546001600160a01b0316905081565b3360009081526017602052604090205460ff166107885760405162461bcd60e51b815260040161071a90612451565b60005b60165481101561082257816001600160a01b0316601682815481106107b2576107b261240c565b6000918252602090912001546001600160a01b031603610810576000601682815481106107e1576107e161240c565b9060005260206000200160006101000a8154816001600160a01b0302191690836001600160a01b031602179055505b8061081a81612438565b91505061078b565b506001600160a01b038116600081815260176020908152604091829020805460ff1916905590519182527ffa8ae95b9a4f666c3b5f27d11b5c2b9fe1045279f674e7a78ca8b087cba3802591015b60405180910390a150565b60606028805480602002602001604051908101604052809291908181526020016000905b8282101561094b5783829060005260206000200180546108be90612478565b80601f01602080910402602001604051908101604052809291908181526020018280546108ea90612478565b80156109375780601f1061090c57610100808354040283529160200191610937565b820191906000526020600020905b81548152906001019060200180831161091a57829003601f168201915b50505050508152602001906001019061089f565b50505050905090565b606060168054806020026020016040519081016040528092919081815260200182805480156109ac57602002820191906000526020600020905b81546001600160a01b0316815260019091019060200180831161098e575b5050505050905090565b600a546001600160a01b031633146109fd5760405162461bcd60e51b815260206004820152600a60248201526913db9b1e48105d5d125160b21b604482015260640161071a565b604051623ffe3360e41b81526001600160a01b03831660048201526024810182905230906303ffe33090604401602060405180830381865afa158015610a47573d6000803e3d6000fd5b505050506040513d601f19601f82011682018060405250810190610a6b91906123ea565b610aa55760405162461bcd60e51b815260206004820152600b60248201526a1b9bdd08185b1b1bddd95960aa1b604482015260640161071a565b610aaf828261169d565b5050565b60007fa3f0ad74e5423aebfd80d3ef4346578335a9a72aeaee59ff6cb3582b35133d515b546001600160a01b0316919050565b6000610ad76117d5565b6014818154811061073f57600080fd5b6028546000908103610b1457506000919050565b81516020808401919091206000818152602990925260409091205415610b3d5750600192915050565b806028600081548110610b5257610b5261240c565b90600052602060002001604051610b6991906124b2565b6040518091039020036106e25750600192915050565b3360009081526017602052604090205460ff16610bae5760405162461bcd60e51b815260040161071a90612451565b61072c81611808565b3360009081526017602052604090205460ff16610be65760405162461bcd60e51b815260040161071a90612451565b6001600160a01b03811660009081526015602052604090205460ff16158015610cda5750306001600160a01b03166341dcea916040518163ffffffff1660e01b8152600401602060405180830381865afa158015610c48573d6000803e3d6000fd5b505050506040513d601f19601f82011682018060405250810190610c6c9190612528565b6040516328e26caf60e11b81526001600160a01b03838116600483015291909116906351c4d95e90602401602060405180830381865afa158015610cb4573d6000803e3d6000fd5b505050506040513d601f19601f82011682018060405250810190610cd89190612545565b155b15610d165760405162461bcd60e51b815260206004820152600c60248201526b2737ba10309036b2b6b132b960a11b604482015260640161071a565b6001600160a01b0381166000818152601760209081526040808320805460ff191660019081179091556016805491820181559093527fd833147d7dc355ba459fc788f669e58cfaf9dc25ddcd0702e87d69c7b512428990920180546001600160a01b0319168417905590519182527fa06b993f17e63959ef40ec8755fc98020c50e9d2794ce5fc0886a7792a9fbaec9101610870565b3360009081526017602052604090205460ff16610ddb5760405162461bcd60e51b815260040161071a90612451565b610aaf8282611995565b606060148054806020026020016040519081016040528092919081815260200182805480156109ac576020028201919060005260206000209081546001600160a01b0316815260019091019060200180831161098e575050505050905090565b3360009081526017602052604090205460ff16610e745760405162461bcd60e51b815260040161071a90612451565b61072c816119b4565b3360009081526017602052604090205460ff16610eac5760405162461bcd60e51b815260040161071a90612451565b61072c816119f7565b3360009081526017602052604090205460609060ff16610ee75760405162461bcd60e51b815260040161071a90612451565b60005b82518110156110ab5760156000848381518110610f0957610f0961240c565b6020908102919091018101516001600160a01b031682528101919091526040016000205460ff16610f5b57828181518110610f4657610f4661240c565b60006020918202929092010152600101610eea565b60176000848381518110610f7157610f7161240c565b6020908102919091018101516001600160a01b031682528101919091526040016000205460ff166110a3576016838281518110610fb057610fb061240c565b60209081029190910181015182546001808201855560009485529284200180546001600160a01b0319166001600160a01b03909216919091179055845190916017918690859081106110045761100461240c565b60200260200101516001600160a01b03166001600160a01b0316815260200190815260200160002060006101000a81548160ff0219169083151502179055507fa06b993f17e63959ef40ec8755fc98020c50e9d2794ce5fc0886a7792a9fbaec8382815181106110765761107661240c565b602002602001015160405161109a91906001600160a01b0391909116815260200190565b60405180910390a15b600101610eea565b829150505b919050565b806001600160a01b031663a1308f276040518163ffffffff1660e01b8152600401602060405180830381865afa1580156110f3573d6000803e3d6000fd5b505050506040513d601f19601f820116820180604052508101906111179190612545565b60011461115f5760405162461bcd60e51b815260206004820152601660248201527527b7363c9027b73137b0b93234b7339028363ab3b4b760511b604482015260640161071a565b6087546001600160a01b03166111c557603c546001600160a01b031633146111c05760405162461bcd60e51b81526020600482015260146024820152734f6e6c7920506c7567696e20526567697374727960601b604482015260640161071a565b61125d565b604051630935e01b60e21b815233600482015230906324d7806c90602401602060405180830381865afa158015611200573d6000803e3d6000fd5b505050506040513d601f19601f8201168201806040525081019061122491906123ea565b61125d5760405162461bcd60e51b815260206004820152600a60248201526927b7363c9020b236b4b760b11b604482015260640161071a565b608780546001600160a01b0319166001600160a01b0392909216919091179055565b3360009081526017602052604090205460ff166112ae5760405162461bcd60e51b815260040161071a90612451565b80516006146112ff5760405162461bcd60e51b815260206004820152601c60248201527f4e6f76613a20696e636f727265637420696e707574206c656e67746800000000604482015260640161071a565b611322816000815181106113155761131561240c565b60200260200101516119b4565b60015b80600614610aaf57611353818383815181106113435761134361240c565b602002602001015160ff16611995565b61135c81612438565b9050611325565b3360009081526017602052604090205460ff166113925760405162461bcd60e51b815260040161071a90612451565b61072c81611bf7565b601e80546113a890612478565b80601f01602080910402602001604051908101604052809291908181526020018280546113d490612478565b80156114215780601f106113f657610100808354040283529160200191611421565b820191906000526020600020905b81548152906001019060200180831161140457829003601f168201915b505050505081565b3360009081526017602052604090205460ff166114585760405162461bcd60e51b815260040161071a90612451565b61072c81611c7b565b600054610100900460ff16158080156114815750600054600160ff909116105b8061149b5750303b15801561149b575060005460ff166001145b6114fe5760405162461bcd60e51b815260206004820152602e60248201527f496e697469616c697a61626c653a20636f6e747261637420697320616c72656160448201526d191e481a5b9a5d1a585b1a5e995960921b606482015260840161071a565b6000805460ff191660011790558015611521576000805461ff0019166101001790555b608680546001600160a01b0389166001600160a01b031991821681179092556000828152601760205260408120805460ff191660019081179091556016805491820181559091527fd833147d7dc355ba459fc788f669e58cfaf9dc25ddcd0702e87d69c7b5124289018054909116909117905561159d85611da1565b600a80546001600160a01b0319166001600160a01b0388161790556115c183611bf7565b6115ca84611622565b6115d382611e23565b8015611619576000805461ff0019169055604051600181527f7f26b83ff96e1f2b6a682f133852f6798a09c465da95921460cefb38474024989060200160405180910390a15b50505050505050565b60008151116116615760405162461bcd60e51b815260206004820152600b60248201526a1a5b9d985b1a59081d5c9b60aa1b604482015260640161071a565b601e61166d82826125ad565b507f48674fffb03fee00a113cc146f3aa94a9720a4cb3839fbb855c436859d39a97781604051610870919061234e565b600a546001600160a01b031633146116e45760405162461bcd60e51b815260206004820152600a60248201526913db9b1e48105d5d125160b21b604482015260640161071a565b6001600160a01b03821660009081526015602052604090205460ff16156117405760405162461bcd60e51b815260206004820152601060248201526f20b63932b0b23c90309036b2b6b132b960811b604482015260640161071a565b6001600160a01b038216600081815260156020526040808220805460ff1916600190811790915560148054918201815583527fce6d7b5282bd9a3661ae061feed1dbda4e52ab073b1f9285be6e155d9c38d4ec0180546001600160a01b03191690931790925590517f94d9b0a056867efca93631b338c7fde3befc3f54db36b90b8456b069385c30be9190a15050565b905090565b60006117d061180560017f9cd0ce681e2068367bc5a81f4d9ba398e81f54e5133fd5d82ceb0f48c38d723961266d565b90565b603c5460408051631055995d60e31b815290516000926001600160a01b0316916382accae89160048083019260209291908290030181865afa158015611852573d6000803e3d6000fd5b505050506040513d601f19601f820116820180604052508101906118769190612528565b6040516339076b2160e11b8152600481018490529091506000906001600160a01b0383169063720ed64290602401600060405180830381865afa1580156118c1573d6000803e3d6000fd5b505050506040513d6000823e601f3d908101601f191682016040526118e99190810190612680565b5151116119295760405162461bcd60e51b815260206004820152600e60248201526d696e76616c6964206d6f64756c6560901b604482015260640161071a565b603d80546001810182556000919091527fece66cfdbd22e3f37d348a3d8e19074452862cd65fd4b9a11f0336d1ac6d1dc3018290556040518281527fc1866ccaad33ac161f17d9db7a528f0c819a376e1cad17ba2d5c9b49a7eba2cd9060200160405180910390a15050565b61199e82611e94565b60ff9091166000908152604b6020526040902055565b604a5460ff16156119d857604051632eb2d90160e11b815260040160405180910390fd5b6119e181611e94565b604a805460ff191660ff92909216919091179055565b611a0081610b00565b611a3f5760405162461bcd60e51b815260206004820152601060248201526f1d5c9b08191bd95cdb9d08195e1a5cdd60821b604482015260640161071a565b805160208083019190912060008181526029909252604090912054602854611a699060019061266d565b8114611b7a576028805460009190611a839060019061266d565b81548110611a9357611a9361240c565b906000526020600020018054611aa890612478565b80601f0160208091040260200160405190810160405280929190818152602001828054611ad490612478565b8015611b215780601f10611af657610100808354040283529160200191611b21565b820191906000526020600020905b815481529060010190602001808311611b0457829003601f168201915b505050505090506000818051906020012090508260296000838152602001908152602001600020819055508160288481548110611b6057611b6061240c565b906000526020600020019081611b7691906125ad565b5050505b6028805480611b8b57611b8b612730565b600190038181906000526020600020016000611ba79190611ec5565b905560008281526029602052604080822091909155517f906b87aebf1e5cc40a1cebd6811c88addf04309f8c8ce71c7d6449d343e4ad0990611bea90859061234e565b60405180910390a1505050565b600081118015611c075750600b81105b611c485760405162461bcd60e51b81526020600482015260126024820152711a5b9d985b1a590818dbdb5b5a5d1b595b9d60721b604482015260640161071a565b6040818155518181527fb65d029b8a6c07cb00888825aac545b9b5c5c022683357f9d1ea8abf06dfdb4690602001610870565b8051602082012060285460009015611ce357600082815260296020526040902054151580611cda5750816028600081548110611cb957611cb961240c565b90600052602060002001604051611cd091906124b2565b6040518091039020145b15611ce3575060015b8015611d265760405162461bcd60e51b815260206004820152601260248201527175726c20616c72656164792065786973747360701b604482015260640161071a565b602880546000848152602960205260408120829055600182018355919091527fe16da923a2d88192e5070f37b4571d58682c0d66212ec634d495f33de3f77ab501611d7184826125ad565b507f21d5cca3f840791ade736f51501810c14b8b01791ac4357713ed763ccbbaf3a983604051611bea919061234e565b600081118015611db15750600481105b611dee5760405162461bcd60e51b815260206004820152600e60248201526d1a5b9d985b1a59081b585c9ad95d60921b604482015260640161071a565b60328190556040518181527fed3f3ef79c893a1a183c59258a18224fe4f9dee870f486fce68ad3d3f26bff7090602001610870565b6001600160a01b038116611e725760405162461bcd60e51b8152602060048201526016602482015275696e76616c696420706c7567696e526567697374727960501b604482015260640161071a565b603c80546001600160a01b0319166001600160a01b0392909216919091179055565b60058160ff161180611ea7575060ff8116155b1561072c57604051630dc9539d60e31b815260040160405180910390fd5b508054611ed190612478565b6000825580601f10611ee1575050565b601f01602090049060005260206000209081019061072c91905b80821115611f0f5760008155600101611efb565b5090565b6001600160a01b038116811461072c57600080fd5b60008060408385031215611f3b57600080fd5b8235611f4681611f13565b946020939093013593505050565b600060208284031215611f6657600080fd5b5035919050565b634e487b7160e01b600052604160045260246000fd5b6040805190810167ffffffffffffffff81118282101715611fa657611fa6611f6d565b60405290565b604051601f8201601f1916810167ffffffffffffffff81118282101715611fd557611fd5611f6d565b604052919050565b600067ffffffffffffffff821115611ff757611ff7611f6d565b50601f01601f191660200190565b600082601f83011261201657600080fd5b813561202961202482611fdd565b611fac565b81815284602083860101111561203e57600080fd5b816020850160208301376000918101602001919091529392505050565b60006020828403121561206d57600080fd5b813567ffffffffffffffff81111561208457600080fd5b61209084828501612005565b949350505050565b6000602082840312156120aa57600080fd5b81356120b581611f13565b9392505050565b60005b838110156120d75781810151838201526020016120bf565b50506000910152565b600081518084526120f88160208601602086016120bc565b601f01601f19169290920160200192915050565b6000602080830181845280855180835260408601915060408160051b870101925083870160005b8281101561216157603f1988860301845261214f8583516120e0565b94509285019290850190600101612133565b5092979650505050505050565b6020808252825182820181905260009190848201906040850190845b818110156121af5783516001600160a01b03168352928401929184019160010161218a565b50909695505050505050565b803560ff811681146110b057600080fd5b600080604083850312156121df57600080fd5b611f46836121bb565b6000602082840312156121fa57600080fd5b6120b5826121bb565b600067ffffffffffffffff82111561221d5761221d611f6d565b5060051b60200190565b6000602080838503121561223a57600080fd5b823567ffffffffffffffff81111561225157600080fd5b8301601f8101851361226257600080fd5b803561227061202482612203565b81815260059190911b8201830190838101908783111561228f57600080fd5b928401925b828410156122b65783356122a781611f13565b82529284019290840190612294565b979650505050505050565b600060208083850312156122d457600080fd5b823567ffffffffffffffff8111156122eb57600080fd5b8301601f810185136122fc57600080fd5b803561230a61202482612203565b81815260059190911b8201830190838101908783111561232957600080fd5b928401925b828410156122b65761233f846121bb565b8252928401929084019061232e565b6020815260006120b560208301846120e0565b60008060008060008060c0878903121561237a57600080fd5b863561238581611f13565b9550602087013561239581611f13565b945060408701359350606087013567ffffffffffffffff8111156123b857600080fd5b6123c489828a01612005565b9350506080870135915060a08701356123dc81611f13565b809150509295509295509295565b6000602082840312156123fc57600080fd5b815180151581146120b557600080fd5b634e487b7160e01b600052603260045260246000fd5b634e487b7160e01b600052601160045260246000fd5b60006001820161244a5761244a612422565b5060010190565b6020808252600d908201526c4e6f7420616e2061646d696e2160981b604082015260600190565b600181811c9082168061248c57607f821691505b6020821081036124ac57634e487b7160e01b600052602260045260246000fd5b50919050565b60008083546124c081612478565b600182811680156124d857600181146124ed5761251c565b60ff198416875282151583028701945061251c565b8760005260208060002060005b858110156125135781548a8201529084019082016124fa565b50505082870194505b50929695505050505050565b60006020828403121561253a57600080fd5b81516120b581611f13565b60006020828403121561255757600080fd5b5051919050565b601f8211156125a857600081815260208120601f850160051c810160208610156125855750805b601f850160051c820191505b818110156125a457828155600101612591565b5050505b505050565b815167ffffffffffffffff8111156125c7576125c7611f6d565b6125db816125d58454612478565b8461255e565b602080601f83116001811461261057600084156125f85750858301515b600019600386901b1c1916600185901b1785556125a4565b600085815260208120601f198616915b8281101561263f57888601518255948401946001909101908401612620565b508582101561265d5787850151600019600388901b60f8161c191681555b5050505050600190811b01905550565b8181038181111561068f5761068f612422565b6000602080838503121561269357600080fd5b825167ffffffffffffffff808211156126ab57600080fd5b90840190604082870312156126bf57600080fd5b6126c7611f83565b8251828111156126d657600080fd5b83019150601f820187136126e957600080fd5b81516126f761202482611fdd565b818152888683860101111561270b57600080fd5b61271a828783018887016120bc565b8252509183015192820192909252949350505050565b634e487b7160e01b600052603160045260246000fdfea2646970667358221220b300d8dec9fc9d8fb79128662d0b172f6a94de801cebf24f8a0b9850d1984e5c64736f6c63430008130033",
    "linkReferences": {}
  },
  "methodIdentifiers": {
    "CONVICTION()": "9023ef95",
    "GROWTH()": "84e4dbb9",
    "PERFORMANCE()": "a2bb6f48",
    "REPUTATION()": "67d48f66",
    "SIZE()": "bdffd282",
    "activateModule(uint256)": "69130c8d",
    "addAdmin(address)": "70480275",
    "addAdmins(address[])": "9c54df64",
    "addURL(string)": "d103449c",
    "admins(uint256)": "14bfd6d0",
    "archetype()": "0e4b2285",
    "beacon()": "59659e90",
    "canJoin(address,uint256)": "03ffe330",
    "deployer()": "d5f39488",
    "getAdmins()": "31ae450b",
    "getAllMembers()": "7c0f6b35",
    "getAutIDAddress()": "88098e3a",
    "getCommitment()": "2a79c611",
    "getURLs()": "206110db",
    "implementation()": "5c60da1b",
    "initialize(address,address,uint256,string,uint256,address)": "dbba0d5c",
    "isAdmin(address)": "24d7806c",
    "isMember(address)": "a230c524",
    "isModuleActivated(uint256)": "10972e90",
    "isURLListed(string)": "68839d28",
    "join(address,uint256)": "3b4da69f",
    "market()": "80f55605",
    "memberCount()": "11aee380",
    "members(uint256)": "5daf08ca",
    "metadataUrl()": "cd29c71a",
    "onboardingAddr()": "8307bd24",
    "pluginRegistry()": "41dcea91",
    "removeAdmin(address)": "1785f53c",
    "removeURL(string)": "810e8c04",
    "setArchetype(uint8)": "7fbaa03b",
    "setArchetypeAndParameters(uint8[])": "bbe9b1dc",
    "setCommitment(uint256)": "be9cd052",
    "setMetadataUri(string)": "1130630c",
    "setOnboardingStrategy(address)": "b5a8a3a1",
    "setWeightFor(uint8,uint256)": "72d4d23d",
    "weightFor(uint8)": "f619e183"
  },
  "id": 65
}