{
  "abi": [
    {
      "anonymous": false,
      "inputs": [
        {
          "indexed": false,
          "internalType": "address",
          "name": "member",
          "type": "address"
        }
      ],
      "name": "AdminMemberAdded",
      "type": "event"
    },
    {
      "anonymous": false,
      "inputs": [
        {
          "indexed": false,
          "internalType": "address",
          "name": "member",
          "type": "address"
        }
      ],
      "name": "AdminMemberRemoved",
      "type": "event"
    },
    {
      "anonymous": false,
      "inputs": [
        {
          "indexed": false,
          "internalType": "uint256",
          "name": "",
          "type": "uint256"
        }
      ],
      "name": "CommitmentSet",
      "type": "event"
    },
    {
      "anonymous": false,
      "inputs": [
        {
          "indexed": false,
          "internalType": "uint8",
          "name": "version",
          "type": "uint8"
        }
      ],
      "name": "Initialized",
      "type": "event"
    },
    {
      "anonymous": false,
      "inputs": [
        {
          "indexed": false,
          "internalType": "uint256",
          "name": "",
          "type": "uint256"
        }
      ],
      "name": "MarketSet",
      "type": "event"
    },
    {
      "anonymous": false,
      "inputs": [],
      "name": "MemberAdded",
      "type": "event"
    },
    {
      "anonymous": false,
      "inputs": [
        {
          "indexed": false,
          "internalType": "string",
          "name": "",
          "type": "string"
        }
      ],
      "name": "MetadataUriUpdated",
      "type": "event"
    },
    {
      "anonymous": false,
      "inputs": [
        {
          "indexed": false,
          "internalType": "uint256",
          "name": "moduleId",
          "type": "uint256"
        }
      ],
      "name": "ModuleActivated",
      "type": "event"
    },
    {
      "anonymous": false,
      "inputs": [
        {
          "indexed": false,
          "internalType": "string",
          "name": "url",
          "type": "string"
        }
      ],
      "name": "UrlAdded",
      "type": "event"
    },
    {
      "anonymous": false,
      "inputs": [
        {
          "indexed": false,
          "internalType": "string",
          "name": "url",
          "type": "string"
        }
      ],
      "name": "UrlRemoved",
      "type": "event"
    },
    {
      "inputs": [
        {
          "internalType": "uint256",
          "name": "moduleId",
          "type": "uint256"
        }
      ],
      "name": "activateModule",
      "outputs": [],
      "stateMutability": "nonpayable",
      "type": "function"
    },
    {
      "inputs": [
        {
          "internalType": "address",
          "name": "member",
          "type": "address"
        }
      ],
      "name": "addAdmin",
      "outputs": [],
      "stateMutability": "nonpayable",
      "type": "function"
    },
    {
      "inputs": [
        {
          "internalType": "address[]",
          "name": "adminAddr",
          "type": "address[]"
        }
      ],
      "name": "addAdmins",
      "outputs": [
        {
          "internalType": "address[]",
          "name": "",
          "type": "address[]"
        }
      ],
      "stateMutability": "nonpayable",
      "type": "function"
    },
    {
      "inputs": [
        {
          "internalType": "string",
          "name": "url",
          "type": "string"
        }
      ],
      "name": "addURL",
      "outputs": [],
      "stateMutability": "nonpayable",
      "type": "function"
    },
    {
      "inputs": [
        {
          "internalType": "uint256",
          "name": "",
          "type": "uint256"
        }
      ],
      "name": "admins",
      "outputs": [
        {
          "internalType": "address",
          "name": "",
          "type": "address"
        }
      ],
      "stateMutability": "view",
      "type": "function"
    },
    {
      "inputs": [],
      "name": "beacon",
      "outputs": [
        {
          "internalType": "address",
          "name": "",
          "type": "address"
        }
      ],
      "stateMutability": "view",
      "type": "function"
    },
    {
      "inputs": [
        {
          "internalType": "address",
          "name": "member",
          "type": "address"
        },
        {
          "internalType": "uint256",
          "name": "role",
          "type": "uint256"
        }
      ],
      "name": "canJoin",
      "outputs": [
        {
          "internalType": "bool",
          "name": "",
          "type": "bool"
        }
      ],
      "stateMutability": "view",
      "type": "function"
    },
    {
      "inputs": [],
      "name": "deployer",
      "outputs": [
        {
          "internalType": "address",
          "name": "",
          "type": "address"
        }
      ],
      "stateMutability": "view",
      "type": "function"
    },
    {
      "inputs": [],
      "name": "getAdmins",
      "outputs": [
        {
          "internalType": "address[]",
          "name": "",
          "type": "address[]"
        }
      ],
      "stateMutability": "view",
      "type": "function"
    },
    {
      "inputs": [],
      "name": "getAllMembers",
      "outputs": [
        {
          "internalType": "address[]",
          "name": "",
          "type": "address[]"
        }
      ],
      "stateMutability": "view",
      "type": "function"
    },
    {
      "inputs": [],
      "name": "getAutIDAddress",
      "outputs": [
        {
          "internalType": "address",
          "name": "",
          "type": "address"
        }
      ],
      "stateMutability": "view",
      "type": "function"
    },
    {
      "inputs": [],
      "name": "getCommitment",
      "outputs": [
        {
          "internalType": "uint256",
          "name": "",
          "type": "uint256"
        }
      ],
      "stateMutability": "view",
      "type": "function"
    },
    {
      "inputs": [],
      "name": "getURLs",
      "outputs": [
        {
          "internalType": "string[]",
          "name": "",
          "type": "string[]"
        }
      ],
      "stateMutability": "view",
      "type": "function"
    },
    {
      "inputs": [],
      "name": "implementation",
      "outputs": [
        {
          "internalType": "address",
          "name": "",
          "type": "address"
        }
      ],
      "stateMutability": "view",
      "type": "function"
    },
    {
      "inputs": [
        {
          "internalType": "address",
          "name": "_deployer",
          "type": "address"
        },
        {
          "internalType": "contract IAutID",
          "name": "_autAddr",
          "type": "address"
        },
        {
          "internalType": "uint256",
          "name": "_market",
          "type": "uint256"
        },
        {
          "internalType": "string",
          "name": "_metadata",
          "type": "string"
        },
        {
          "internalType": "uint256",
          "name": "_commitment",
          "type": "uint256"
        },
        {
          "internalType": "address",
          "name": "_pluginRegistry",
          "type": "address"
        }
      ],
      "name": "initialize",
      "outputs": [],
      "stateMutability": "nonpayable",
      "type": "function"
    },
    {
      "inputs": [
        {
          "internalType": "address",
          "name": "",
          "type": "address"
        }
      ],
      "name": "isAdmin",
      "outputs": [
        {
          "internalType": "bool",
          "name": "",
          "type": "bool"
        }
      ],
      "stateMutability": "view",
      "type": "function"
    },
    {
      "inputs": [
        {
          "internalType": "address",
          "name": "",
          "type": "address"
        }
      ],
      "name": "isMember",
      "outputs": [
        {
          "internalType": "bool",
          "name": "",
          "type": "bool"
        }
      ],
      "stateMutability": "view",
      "type": "function"
    },
    {
      "inputs": [
        {
          "internalType": "uint256",
          "name": "moduleId",
          "type": "uint256"
        }
      ],
      "name": "isModuleActivated",
      "outputs": [
        {
          "internalType": "bool",
          "name": "",
          "type": "bool"
        }
      ],
      "stateMutability": "view",
      "type": "function"
    },
    {
      "inputs": [
        {
          "internalType": "string",
          "name": "_url",
          "type": "string"
        }
      ],
      "name": "isURLListed",
      "outputs": [
        {
          "internalType": "bool",
          "name": "",
          "type": "bool"
        }
      ],
      "stateMutability": "view",
      "type": "function"
    },
    {
      "inputs": [
        {
          "internalType": "address",
          "name": "newMember",
          "type": "address"
        },
        {
          "internalType": "uint256",
          "name": "role",
          "type": "uint256"
        }
      ],
      "name": "join",
      "outputs": [],
      "stateMutability": "nonpayable",
      "type": "function"
    },
    {
      "inputs": [],
      "name": "market",
      "outputs": [
        {
          "internalType": "uint256",
          "name": "",
          "type": "uint256"
        }
      ],
      "stateMutability": "view",
      "type": "function"
    },
    {
      "inputs": [],
      "name": "memberCount",
      "outputs": [
        {
          "internalType": "uint256",
          "name": "",
          "type": "uint256"
        }
      ],
      "stateMutability": "view",
      "type": "function"
    },
    {
      "inputs": [
        {
          "internalType": "uint256",
          "name": "",
          "type": "uint256"
        }
      ],
      "name": "members",
      "outputs": [
        {
          "internalType": "address",
          "name": "",
          "type": "address"
        }
      ],
      "stateMutability": "view",
      "type": "function"
    },
    {
      "inputs": [],
      "name": "metadataUrl",
      "outputs": [
        {
          "internalType": "string",
          "name": "",
          "type": "string"
        }
      ],
      "stateMutability": "view",
      "type": "function"
    },
    {
      "inputs": [],
      "name": "onboardingAddr",
      "outputs": [
        {
          "internalType": "address",
          "name": "",
          "type": "address"
        }
      ],
      "stateMutability": "view",
      "type": "function"
    },
    {
      "inputs": [],
      "name": "pluginRegistry",
      "outputs": [
        {
          "internalType": "address",
          "name": "",
          "type": "address"
        }
      ],
      "stateMutability": "view",
      "type": "function"
    },
    {
      "inputs": [
        {
          "internalType": "address",
          "name": "member",
          "type": "address"
        }
      ],
      "name": "removeAdmin",
      "outputs": [],
      "stateMutability": "nonpayable",
      "type": "function"
    },
    {
      "inputs": [
        {
          "internalType": "string",
          "name": "url",
          "type": "string"
        }
      ],
      "name": "removeURL",
      "outputs": [],
      "stateMutability": "nonpayable",
      "type": "function"
    },
    {
      "inputs": [
        {
          "internalType": "uint256",
          "name": "commitment",
          "type": "uint256"
        }
      ],
      "name": "setCommitment",
      "outputs": [],
      "stateMutability": "nonpayable",
      "type": "function"
    },
    {
      "inputs": [
        {
          "internalType": "string",
          "name": "metadata",
          "type": "string"
        }
      ],
      "name": "setMetadataUri",
      "outputs": [],
      "stateMutability": "nonpayable",
      "type": "function"
    },
    {
      "inputs": [
        {
          "internalType": "address",
          "name": "onboardingPlugin",
          "type": "address"
        }
      ],
      "name": "setOnboardingStrategy",
      "outputs": [],
      "stateMutability": "nonpayable",
      "type": "function"
    }
  ],
  "bytecode": {
    "object": "0x608060405234801561001057600080fd5b506123a2806100206000396000f3fe608060405234801561001057600080fd5b50600436106101e55760003560e01c806368839d281161010f5780639c54df64116100a2578063cd29c71a11610071578063cd29c71a14610405578063d103449c1461041a578063d5f394881461042d578063dbba0d5c1461044057600080fd5b80639c54df64146103a9578063a230c524146103bc578063b5a8a3a1146103df578063be9cd052146103f257600080fd5b806380f55605116100de57806380f5560514610369578063810e8c04146103725780638307bd241461038557806388098e3a1461039857600080fd5b806368839d281461032857806369130c8d1461033b578063704802751461034e5780637c0f6b351461036157600080fd5b806324d7806c1161018757806341dcea911161015657806341dcea91146102f257806359659e90146103055780635c60da1b1461030d5780635daf08ca1461031557600080fd5b806324d7806c1461029f5780632a79c611146102c257806331ae450b146102ca5780633b4da69f146102df57600080fd5b806311aee380116101c357806311aee3801461023a57806314bfd6d01461024c5780631785f53c14610277578063206110db1461028a57600080fd5b806303ffe330146101ea57806310972e90146102125780631130630c14610225575b600080fd5b6101fd6101f8366004611c2f565b610453565b60405190151581526020015b60405180910390f35b6101fd610220366004611c5b565b610587565b610238610233366004611d62565b6105dd565b005b6014545b604051908152602001610209565b61025f61025a366004611c5b565b610621565b6040516001600160a01b039091168152602001610209565b610238610285366004611d9f565b61064b565b61029261076d565b6040516102099190611e13565b6101fd6102ad366004611d9f565b60176020526000908152604090205460ff1681565b60405461023e565b6102d2610846565b6040516102099190611e75565b6102386102ed366004611c2f565b6108a8565b603c5461025f906001600160a01b031681565b61025f6109a5565b61025f6109d8565b61025f610323366004611c5b565b6109e2565b6101fd610336366004611d62565b6109f2565b610238610349366004611c5b565b610a71565b61023861035c366004611d9f565b610aa9565b6102d2610c9e565b61023e60325481565b610238610380366004611d62565b610cfe565b604b5461025f906001600160a01b031681565b600a546001600160a01b031661025f565b6102d26103b7366004611ec2565b610d36565b6101fd6103ca366004611d9f565b60156020526000908152604090205460ff1681565b6102386103ed366004611d9f565b610f33565b610238610400366004611c5b565b6110fd565b61040d611135565b6040516102099190611f74565b610238610428366004611d62565b6111c3565b604a5461025f906001600160a01b031681565b61023861044e366004611f87565b6111fb565b604b546000906001600160a01b031661046e57506001610581565b604b546001600160a01b0316158015906104fc5750604b60009054906101000a90046001600160a01b03166001600160a01b03166322f3e2d46040518163ffffffff1660e01b8152600401602060405180830381865afa1580156104d6573d6000803e3d6000fd5b505050506040513d601f19601f820116820180604052508101906104fa9190612010565b155b1561050957506000610581565b604b54604051634f2b51c760e01b81526001600160a01b0385811660048301526024820185905290911690634f2b51c790604401602060405180830381865afa15801561055a573d6000803e3d6000fd5b505050506040513d601f19601f8201168201806040525081019061057e9190612010565b90505b92915050565b6000805b603d548110156105d45782603d82815481106105a9576105a9612032565b9060005260206000200154036105c25750600192915050565b806105cc8161205e565b91505061058b565b50600092915050565b3360009081526017602052604090205460ff166106155760405162461bcd60e51b815260040161060c90612077565b60405180910390fd5b61061e816113bc565b50565b6016818154811061063157600080fd5b6000918252602090912001546001600160a01b0316905081565b3360009081526017602052604090205460ff1661067a5760405162461bcd60e51b815260040161060c90612077565b60005b60165481101561071457816001600160a01b0316601682815481106106a4576106a4612032565b6000918252602090912001546001600160a01b031603610702576000601682815481106106d3576106d3612032565b9060005260206000200160006101000a8154816001600160a01b0302191690836001600160a01b031602179055505b8061070c8161205e565b91505061067d565b506001600160a01b038116600081815260176020908152604091829020805460ff1916905590519182527ffa8ae95b9a4f666c3b5f27d11b5c2b9fe1045279f674e7a78ca8b087cba3802591015b60405180910390a150565b60606028805480602002602001604051908101604052809291908181526020016000905b8282101561083d5783829060005260206000200180546107b09061209e565b80601f01602080910402602001604051908101604052809291908181526020018280546107dc9061209e565b80156108295780601f106107fe57610100808354040283529160200191610829565b820191906000526020600020905b81548152906001019060200180831161080c57829003601f168201915b505050505081526020019060010190610791565b50505050905090565b6060601680548060200260200160405190810160405280929190818152602001828054801561089e57602002820191906000526020600020905b81546001600160a01b03168152600190910190602001808311610880575b5050505050905090565b600a546001600160a01b031633146108ef5760405162461bcd60e51b815260206004820152600a60248201526913db9b1e48105d5d125160b21b604482015260640161060c565b604051623ffe3360e41b81526001600160a01b03831660048201526024810182905230906303ffe33090604401602060405180830381865afa158015610939573d6000803e3d6000fd5b505050506040513d601f19601f8201168201806040525081019061095d9190612010565b6109975760405162461bcd60e51b815260206004820152600b60248201526a1b9bdd08185b1b1bddd95960aa1b604482015260640161060c565b6109a18282611437565b5050565b60007fa3f0ad74e5423aebfd80d3ef4346578335a9a72aeaee59ff6cb3582b35133d515b546001600160a01b0316919050565b60006109c961156f565b6014818154811061063157600080fd5b6028546000908103610a0657506000919050565b81516020808401919091206000818152602990925260409091205415610a2f5750600192915050565b806028600081548110610a4457610a44612032565b90600052602060002001604051610a5b91906120d8565b6040518091039020036105d45750600192915050565b3360009081526017602052604090205460ff16610aa05760405162461bcd60e51b815260040161060c90612077565b61061e816115a2565b3360009081526017602052604090205460ff16610ad85760405162461bcd60e51b815260040161060c90612077565b6001600160a01b03811660009081526015602052604090205460ff16158015610bcc5750306001600160a01b03166341dcea916040518163ffffffff1660e01b8152600401602060405180830381865afa158015610b3a573d6000803e3d6000fd5b505050506040513d601f19601f82011682018060405250810190610b5e919061214e565b6040516328e26caf60e11b81526001600160a01b03838116600483015291909116906351c4d95e90602401602060405180830381865afa158015610ba6573d6000803e3d6000fd5b505050506040513d601f19601f82011682018060405250810190610bca919061216b565b155b15610c085760405162461bcd60e51b815260206004820152600c60248201526b2737ba10309036b2b6b132b960a11b604482015260640161060c565b6001600160a01b0381166000818152601760209081526040808320805460ff191660019081179091556016805491820181559093527fd833147d7dc355ba459fc788f669e58cfaf9dc25ddcd0702e87d69c7b512428990920180546001600160a01b0319168417905590519182527fa06b993f17e63959ef40ec8755fc98020c50e9d2794ce5fc0886a7792a9fbaec9101610762565b6060601480548060200260200160405190810160405280929190818152602001828054801561089e576020028201919060005260206000209081546001600160a01b03168152600190910190602001808311610880575050505050905090565b3360009081526017602052604090205460ff16610d2d5760405162461bcd60e51b815260040161060c90612077565b61061e8161172f565b3360009081526017602052604090205460609060ff16610d685760405162461bcd60e51b815260040161060c90612077565b60005b8251811015610f2c5760156000848381518110610d8a57610d8a612032565b6020908102919091018101516001600160a01b031682528101919091526040016000205460ff16610ddc57828181518110610dc757610dc7612032565b60006020918202929092010152600101610d6b565b60176000848381518110610df257610df2612032565b6020908102919091018101516001600160a01b031682528101919091526040016000205460ff16610f24576016838281518110610e3157610e31612032565b60209081029190910181015182546001808201855560009485529284200180546001600160a01b0319166001600160a01b0390921691909117905584519091601791869085908110610e8557610e85612032565b60200260200101516001600160a01b03166001600160a01b0316815260200190815260200160002060006101000a81548160ff0219169083151502179055507fa06b993f17e63959ef40ec8755fc98020c50e9d2794ce5fc0886a7792a9fbaec838281518110610ef757610ef7612032565b6020026020010151604051610f1b91906001600160a01b0391909116815260200190565b60405180910390a15b600101610d6b565b5090919050565b806001600160a01b031663a1308f276040518163ffffffff1660e01b8152600401602060405180830381865afa158015610f71573d6000803e3d6000fd5b505050506040513d601f19601f82011682018060405250810190610f95919061216b565b600114610fdd5760405162461bcd60e51b815260206004820152601660248201527527b7363c9027b73137b0b93234b7339028363ab3b4b760511b604482015260640161060c565b604b546001600160a01b031661104357603c546001600160a01b0316331461103e5760405162461bcd60e51b81526020600482015260146024820152734f6e6c7920506c7567696e20526567697374727960601b604482015260640161060c565b6110db565b604051630935e01b60e21b815233600482015230906324d7806c90602401602060405180830381865afa15801561107e573d6000803e3d6000fd5b505050506040513d601f19601f820116820180604052508101906110a29190612010565b6110db5760405162461bcd60e51b815260206004820152600a60248201526927b7363c9020b236b4b760b11b604482015260640161060c565b604b80546001600160a01b0319166001600160a01b0392909216919091179055565b3360009081526017602052604090205460ff1661112c5760405162461bcd60e51b815260040161060c90612077565b61061e8161192f565b601e80546111429061209e565b80601f016020809104026020016040519081016040528092919081815260200182805461116e9061209e565b80156111bb5780601f10611190576101008083540402835291602001916111bb565b820191906000526020600020905b81548152906001019060200180831161119e57829003601f168201915b505050505081565b3360009081526017602052604090205460ff166111f25760405162461bcd60e51b815260040161060c90612077565b61061e816119b3565b600054610100900460ff161580801561121b5750600054600160ff909116105b806112355750303b158015611235575060005460ff166001145b6112985760405162461bcd60e51b815260206004820152602e60248201527f496e697469616c697a61626c653a20636f6e747261637420697320616c72656160448201526d191e481a5b9a5d1a585b1a5e995960921b606482015260840161060c565b6000805460ff1916600117905580156112bb576000805461ff0019166101001790555b604a80546001600160a01b0389166001600160a01b031991821681179092556000828152601760205260408120805460ff191660019081179091556016805491820181559091527fd833147d7dc355ba459fc788f669e58cfaf9dc25ddcd0702e87d69c7b5124289018054909116909117905561133785611ad9565b600a80546001600160a01b0319166001600160a01b03881617905561135b8361192f565b611364846113bc565b61136d82611b5b565b80156113b3576000805461ff0019169055604051600181527f7f26b83ff96e1f2b6a682f133852f6798a09c465da95921460cefb38474024989060200160405180910390a15b50505050505050565b60008151116113fb5760405162461bcd60e51b815260206004820152600b60248201526a1a5b9d985b1a59081d5c9b60aa1b604482015260640161060c565b601e61140782826121d3565b507f48674fffb03fee00a113cc146f3aa94a9720a4cb3839fbb855c436859d39a977816040516107629190611f74565b600a546001600160a01b0316331461147e5760405162461bcd60e51b815260206004820152600a60248201526913db9b1e48105d5d125160b21b604482015260640161060c565b6001600160a01b03821660009081526015602052604090205460ff16156114da5760405162461bcd60e51b815260206004820152601060248201526f20b63932b0b23c90309036b2b6b132b960811b604482015260640161060c565b6001600160a01b038216600081815260156020526040808220805460ff1916600190811790915560148054918201815583527fce6d7b5282bd9a3661ae061feed1dbda4e52ab073b1f9285be6e155d9c38d4ec0180546001600160a01b03191690931790925590517f94d9b0a056867efca93631b338c7fde3befc3f54db36b90b8456b069385c30be9190a15050565b905090565b600061156a61159f60017f9cd0ce681e2068367bc5a81f4d9ba398e81f54e5133fd5d82ceb0f48c38d7239612293565b90565b603c5460408051631055995d60e31b815290516000926001600160a01b0316916382accae89160048083019260209291908290030181865afa1580156115ec573d6000803e3d6000fd5b505050506040513d601f19601f82011682018060405250810190611610919061214e565b6040516339076b2160e11b8152600481018490529091506000906001600160a01b0383169063720ed64290602401600060405180830381865afa15801561165b573d6000803e3d6000fd5b505050506040513d6000823e601f3d908101601f1916820160405261168391908101906122a6565b5151116116c35760405162461bcd60e51b815260206004820152600e60248201526d696e76616c6964206d6f64756c6560901b604482015260640161060c565b603d80546001810182556000919091527fece66cfdbd22e3f37d348a3d8e19074452862cd65fd4b9a11f0336d1ac6d1dc3018290556040518281527fc1866ccaad33ac161f17d9db7a528f0c819a376e1cad17ba2d5c9b49a7eba2cd9060200160405180910390a15050565b611738816109f2565b6117775760405162461bcd60e51b815260206004820152601060248201526f1d5c9b08191bd95cdb9d08195e1a5cdd60821b604482015260640161060c565b8051602080830191909120600081815260299092526040909120546028546117a190600190612293565b81146118b25760288054600091906117bb90600190612293565b815481106117cb576117cb612032565b9060005260206000200180546117e09061209e565b80601f016020809104026020016040519081016040528092919081815260200182805461180c9061209e565b80156118595780601f1061182e57610100808354040283529160200191611859565b820191906000526020600020905b81548152906001019060200180831161183c57829003601f168201915b50505050509050600081805190602001209050826029600083815260200190815260200160002081905550816028848154811061189857611898612032565b9060005260206000200190816118ae91906121d3565b5050505b60288054806118c3576118c3612356565b6001900381819060005260206000200160006118df9190611bcc565b905560008281526029602052604080822091909155517f906b87aebf1e5cc40a1cebd6811c88addf04309f8c8ce71c7d6449d343e4ad0990611922908590611f74565b60405180910390a1505050565b60008111801561193f5750600b81105b6119805760405162461bcd60e51b81526020600482015260126024820152711a5b9d985b1a590818dbdb5b5a5d1b595b9d60721b604482015260640161060c565b6040818155518181527fb65d029b8a6c07cb00888825aac545b9b5c5c022683357f9d1ea8abf06dfdb4690602001610762565b8051602082012060285460009015611a1b57600082815260296020526040902054151580611a1257508160286000815481106119f1576119f1612032565b90600052602060002001604051611a0891906120d8565b6040518091039020145b15611a1b575060015b8015611a5e5760405162461bcd60e51b815260206004820152601260248201527175726c20616c72656164792065786973747360701b604482015260640161060c565b602880546000848152602960205260408120829055600182018355919091527fe16da923a2d88192e5070f37b4571d58682c0d66212ec634d495f33de3f77ab501611aa984826121d3565b507f21d5cca3f840791ade736f51501810c14b8b01791ac4357713ed763ccbbaf3a9836040516119229190611f74565b600081118015611ae95750600481105b611b265760405162461bcd60e51b815260206004820152600e60248201526d1a5b9d985b1a59081b585c9ad95d60921b604482015260640161060c565b60328190556040518181527fed3f3ef79c893a1a183c59258a18224fe4f9dee870f486fce68ad3d3f26bff7090602001610762565b6001600160a01b038116611baa5760405162461bcd60e51b8152602060048201526016602482015275696e76616c696420706c7567696e526567697374727960501b604482015260640161060c565b603c80546001600160a01b0319166001600160a01b0392909216919091179055565b508054611bd89061209e565b6000825580601f10611be8575050565b601f01602090049060005260206000209081019061061e91905b80821115611c165760008155600101611c02565b5090565b6001600160a01b038116811461061e57600080fd5b60008060408385031215611c4257600080fd5b8235611c4d81611c1a565b946020939093013593505050565b600060208284031215611c6d57600080fd5b5035919050565b634e487b7160e01b600052604160045260246000fd5b6040805190810167ffffffffffffffff81118282101715611cad57611cad611c74565b60405290565b604051601f8201601f1916810167ffffffffffffffff81118282101715611cdc57611cdc611c74565b604052919050565b600067ffffffffffffffff821115611cfe57611cfe611c74565b50601f01601f191660200190565b600082601f830112611d1d57600080fd5b8135611d30611d2b82611ce4565b611cb3565b818152846020838601011115611d4557600080fd5b816020850160208301376000918101602001919091529392505050565b600060208284031215611d7457600080fd5b813567ffffffffffffffff811115611d8b57600080fd5b611d9784828501611d0c565b949350505050565b600060208284031215611db157600080fd5b8135611dbc81611c1a565b9392505050565b60005b83811015611dde578181015183820152602001611dc6565b50506000910152565b60008151808452611dff816020860160208601611dc3565b601f01601f19169290920160200192915050565b6000602080830181845280855180835260408601915060408160051b870101925083870160005b82811015611e6857603f19888603018452611e56858351611de7565b94509285019290850190600101611e3a565b5092979650505050505050565b6020808252825182820181905260009190848201906040850190845b81811015611eb65783516001600160a01b031683529284019291840191600101611e91565b50909695505050505050565b60006020808385031215611ed557600080fd5b823567ffffffffffffffff80821115611eed57600080fd5b818501915085601f830112611f0157600080fd5b813581811115611f1357611f13611c74565b8060051b9150611f24848301611cb3565b8181529183018401918481019088841115611f3e57600080fd5b938501935b83851015611f685784359250611f5883611c1a565b8282529385019390850190611f43565b98975050505050505050565b602081526000611dbc6020830184611de7565b60008060008060008060c08789031215611fa057600080fd5b8635611fab81611c1a565b95506020870135611fbb81611c1a565b945060408701359350606087013567ffffffffffffffff811115611fde57600080fd5b611fea89828a01611d0c565b9350506080870135915060a087013561200281611c1a565b809150509295509295509295565b60006020828403121561202257600080fd5b81518015158114611dbc57600080fd5b634e487b7160e01b600052603260045260246000fd5b634e487b7160e01b600052601160045260246000fd5b60006001820161207057612070612048565b5060010190565b6020808252600d908201526c4e6f7420616e2061646d696e2160981b604082015260600190565b600181811c908216806120b257607f821691505b6020821081036120d257634e487b7160e01b600052602260045260246000fd5b50919050565b60008083546120e68161209e565b600182811680156120fe576001811461211357612142565b60ff1984168752821515830287019450612142565b8760005260208060002060005b858110156121395781548a820152908401908201612120565b50505082870194505b50929695505050505050565b60006020828403121561216057600080fd5b8151611dbc81611c1a565b60006020828403121561217d57600080fd5b5051919050565b601f8211156121ce57600081815260208120601f850160051c810160208610156121ab5750805b601f850160051c820191505b818110156121ca578281556001016121b7565b5050505b505050565b815167ffffffffffffffff8111156121ed576121ed611c74565b612201816121fb845461209e565b84612184565b602080601f831160018114612236576000841561221e5750858301515b600019600386901b1c1916600185901b1785556121ca565b600085815260208120601f198616915b8281101561226557888601518255948401946001909101908401612246565b50858210156122835787850151600019600388901b60f8161c191681555b5050505050600190811b01905550565b8181038181111561058157610581612048565b600060208083850312156122b957600080fd5b825167ffffffffffffffff808211156122d157600080fd5b90840190604082870312156122e557600080fd5b6122ed611c8a565b8251828111156122fc57600080fd5b83019150601f8201871361230f57600080fd5b815161231d611d2b82611ce4565b818152888683860101111561233157600080fd5b61234082878301888701611dc3565b8252509183015192820192909252949350505050565b634e487b7160e01b600052603160045260246000fdfea2646970667358221220234480b395a5a1ac984f369df1ca6bed5506bb1a7f45caf77a9943a5cba2b97564736f6c63430008130033",
    "linkReferences": {}
  },
  "methodIdentifiers": {
    "activateModule(uint256)": "69130c8d",
    "addAdmin(address)": "70480275",
    "addAdmins(address[])": "9c54df64",
    "addURL(string)": "d103449c",
    "admins(uint256)": "14bfd6d0",
    "beacon()": "59659e90",
    "canJoin(address,uint256)": "03ffe330",
    "deployer()": "d5f39488",
    "getAdmins()": "31ae450b",
    "getAllMembers()": "7c0f6b35",
    "getAutIDAddress()": "88098e3a",
    "getCommitment()": "2a79c611",
    "getURLs()": "206110db",
    "implementation()": "5c60da1b",
    "initialize(address,address,uint256,string,uint256,address)": "dbba0d5c",
    "isAdmin(address)": "24d7806c",
    "isMember(address)": "a230c524",
    "isModuleActivated(uint256)": "10972e90",
    "isURLListed(string)": "68839d28",
    "join(address,uint256)": "3b4da69f",
    "market()": "80f55605",
    "memberCount()": "11aee380",
    "members(uint256)": "5daf08ca",
    "metadataUrl()": "cd29c71a",
    "onboardingAddr()": "8307bd24",
    "pluginRegistry()": "41dcea91",
    "removeAdmin(address)": "1785f53c",
    "removeURL(string)": "810e8c04",
    "setCommitment(uint256)": "be9cd052",
    "setMetadataUri(string)": "1130630c",
    "setOnboardingStrategy(address)": "b5a8a3a1"
  },
  "id": 64
}