{
  "abi": [
    {
      "inputs": [
        {
          "internalType": "address",
          "name": "member",
          "type": "address"
        }
      ],
      "name": "isMember",
      "outputs": [
        {
          "internalType": "bool",
          "name": "",
          "type": "bool"
        }
      ],
      "stateMutability": "view",
      "type": "function"
    }
  ],
  "bytecode": {
    "object": "0x608060405234801561001057600080fd5b50610117806100206000396000f3fe6080604052348015600f57600080fd5b506004361060285760003560e01c8063a230c52414602d575b600080fd5b603c603836600460b3565b6050565b604051901515815260200160405180910390f35b60006001600160a01b03821660ab5760405162461bcd60e51b815260206004820152601960248201527f5a65726f2061646472657373206e6f742061206d656d62657200000000000000604482015260640160405180910390fd5b506001919050565b60006020828403121560c457600080fd5b81356001600160a01b038116811460da57600080fd5b939250505056fea26469706673582212206dcd71f9661b3e86914b7fae1278a1c192e7127e96506529f7e94a007051c1c664736f6c63430008130033",
    "linkReferences": {}
  },
  "methodIdentifiers": {
    "isMember(address)": "a230c524"
  },
  "id": 56
}