{
  "abi": [
    {
      "inputs": [
        {
          "internalType": "address",
          "name": "dao",
          "type": "address"
        }
      ],
      "stateMutability": "nonpayable",
      "type": "constructor"
    },
    {
      "inputs": [],
      "name": "FunctionNotImplemented",
      "type": "error"
    },
    {
      "anonymous": false,
      "inputs": [
        {
          "indexed": false,
          "internalType": "uint256",
          "name": "questId",
          "type": "uint256"
        },
        {
          "indexed": false,
          "internalType": "address",
          "name": "user",
          "type": "address"
        }
      ],
      "name": "Applied",
      "type": "event"
    },
    {
      "anonymous": false,
      "inputs": [
        {
          "indexed": false,
          "internalType": "uint256",
          "name": "questId",
          "type": "uint256"
        },
        {
          "indexed": false,
          "internalType": "address",
          "name": "user",
          "type": "address"
        }
      ],
      "name": "QuestCompleted",
      "type": "event"
    },
    {
      "anonymous": false,
      "inputs": [
        {
          "indexed": false,
          "internalType": "uint256",
          "name": "questId",
          "type": "uint256"
        }
      ],
      "name": "QuestCreated",
      "type": "event"
    },
    {
      "anonymous": false,
      "inputs": [],
      "name": "QuestEdited",
      "type": "event"
    },
    {
      "anonymous": false,
      "inputs": [
        {
          "indexed": false,
          "internalType": "uint256",
          "name": "questId",
          "type": "uint256"
        },
        {
          "indexed": false,
          "internalType": "uint256",
          "name": "taskId",
          "type": "uint256"
        }
      ],
      "name": "TasksAddedToQuest",
      "type": "event"
    },
    {
      "anonymous": false,
      "inputs": [],
      "name": "TasksRemovedFromQuest",
      "type": "event"
    },
    {
      "anonymous": false,
      "inputs": [
        {
          "indexed": false,
          "internalType": "uint256",
          "name": "questId",
          "type": "uint256"
        },
        {
          "indexed": false,
          "internalType": "address",
          "name": "user",
          "type": "address"
        }
      ],
      "name": "Withdrawn",
      "type": "event"
    },
    {
      "inputs": [
        {
          "internalType": "uint256",
          "name": "",
          "type": "uint256"
        }
      ],
      "name": "activeQuestsPerRole",
      "outputs": [
        {
          "internalType": "uint256",
          "name": "",
          "type": "uint256"
        }
      ],
      "stateMutability": "view",
      "type": "function"
    },
    {
      "inputs": [
        {
          "internalType": "uint256",
          "name": "questId",
          "type": "uint256"
        }
      ],
      "name": "applyForAQuest",
      "outputs": [],
      "stateMutability": "nonpayable",
      "type": "function"
    },
    {
      "inputs": [
        {
          "internalType": "uint256",
          "name": "_role",
          "type": "uint256"
        },
        {
          "internalType": "string",
          "name": "_uri",
          "type": "string"
        },
        {
          "internalType": "uint256",
          "name": "_startDate",
          "type": "uint256"
        },
        {
          "internalType": "uint256",
          "name": "_durationInHours",
          "type": "uint256"
        }
      ],
      "name": "create",
      "outputs": [
        {
          "internalType": "uint256",
          "name": "",
          "type": "uint256"
        }
      ],
      "stateMutability": "nonpayable",
      "type": "function"
    },
    {
      "inputs": [
        {
          "internalType": "uint256",
          "name": "questId",
          "type": "uint256"
        },
        {
          "internalType": "uint256",
          "name": "tasksPluginId",
          "type": "uint256"
        },
        {
          "internalType": "string",
          "name": "uri",
          "type": "string"
        }
      ],
      "name": "createTask",
      "outputs": [],
      "stateMutability": "nonpayable",
      "type": "function"
    },
    {
      "inputs": [],
      "name": "daoAddress",
      "outputs": [
        {
          "internalType": "address",
          "name": "",
          "type": "address"
        }
      ],
      "stateMutability": "view",
      "type": "function"
    },
    {
      "inputs": [],
      "name": "deployer",
      "outputs": [
        {
          "internalType": "address",
          "name": "",
          "type": "address"
        }
      ],
      "stateMutability": "view",
      "type": "function"
    },
    {
      "inputs": [
        {
          "internalType": "uint256",
          "name": "questId",
          "type": "uint256"
        },
        {
          "internalType": "uint256",
          "name": "_role",
          "type": "uint256"
        },
        {
          "internalType": "string",
          "name": "_uri",
          "type": "string"
        },
        {
          "internalType": "uint256",
          "name": "_durationInHours",
          "type": "uint256"
        }
      ],
      "name": "editQuest",
      "outputs": [],
      "stateMutability": "nonpayable",
      "type": "function"
    },
    {
      "inputs": [
        {
          "internalType": "uint256",
          "name": "questId",
          "type": "uint256"
        }
      ],
      "name": "getById",
      "outputs": [
        {
          "components": [
            {
              "internalType": "uint256",
              "name": "role",
              "type": "uint256"
            },
            {
              "internalType": "bool",
              "name": "active",
              "type": "bool"
            },
            {
              "internalType": "string",
              "name": "metadataUri",
              "type": "string"
            },
            {
              "internalType": "uint256",
              "name": "durationInHours",
              "type": "uint256"
            },
            {
              "internalType": "uint256",
              "name": "startDate",
              "type": "uint256"
            },
            {
              "internalType": "uint256",
              "name": "tasksCount",
              "type": "uint256"
            }
          ],
          "internalType": "struct QuestsModule.QuestModel",
          "name": "",
          "type": "tuple"
        }
      ],
      "stateMutability": "view",
      "type": "function"
    },
    {
      "inputs": [
        {
          "internalType": "uint256",
          "name": "questId",
          "type": "uint256"
        }
      ],
      "name": "getTasksPerQuest",
      "outputs": [
        {
          "components": [
            {
              "internalType": "uint256",
              "name": "pluginId",
              "type": "uint256"
            },
            {
              "internalType": "uint256",
              "name": "taskId",
              "type": "uint256"
            }
          ],
          "internalType": "struct QuestsModule.PluginTasks[]",
          "name": "",
          "type": "tuple[]"
        }
      ],
      "stateMutability": "view",
      "type": "function"
    },
    {
      "inputs": [
        {
          "internalType": "address",
          "name": "user",
          "type": "address"
        },
        {
          "internalType": "uint256",
          "name": "questId",
          "type": "uint256"
        }
      ],
      "name": "getTimeOfCompletion",
      "outputs": [
        {
          "internalType": "uint256",
          "name": "",
          "type": "uint256"
        }
      ],
      "stateMutability": "view",
      "type": "function"
    },
    {
      "inputs": [],
      "name": "getTotalQuests",
      "outputs": [
        {
          "internalType": "uint256",
          "name": "",
          "type": "uint256"
        }
      ],
      "stateMutability": "view",
      "type": "function"
    },
    {
      "inputs": [
        {
          "internalType": "address",
          "name": "user",
          "type": "address"
        },
        {
          "internalType": "uint256",
          "name": "questId",
          "type": "uint256"
        }
      ],
      "name": "hasCompletedAQuest",
      "outputs": [
        {
          "internalType": "bool",
          "name": "",
          "type": "bool"
        }
      ],
      "stateMutability": "view",
      "type": "function"
    },
    {
      "inputs": [
        {
          "internalType": "address",
          "name": "user",
          "type": "address"
        },
        {
          "internalType": "uint256",
          "name": "role",
          "type": "uint256"
        }
      ],
      "name": "hasCompletedQuestForRole",
      "outputs": [
        {
          "internalType": "bool",
          "name": "",
          "type": "bool"
        }
      ],
      "stateMutability": "view",
      "type": "function"
    },
    {
      "inputs": [],
      "name": "isActive",
      "outputs": [
        {
          "internalType": "bool",
          "name": "",
          "type": "bool"
        }
      ],
      "stateMutability": "view",
      "type": "function"
    },
    {
      "inputs": [
        {
          "internalType": "uint256",
          "name": "questId",
          "type": "uint256"
        }
      ],
      "name": "isOngoing",
      "outputs": [
        {
          "internalType": "bool",
          "name": "",
          "type": "bool"
        }
      ],
      "stateMutability": "view",
      "type": "function"
    },
    {
      "inputs": [
        {
          "internalType": "uint256",
          "name": "questId",
          "type": "uint256"
        }
      ],
      "name": "isPending",
      "outputs": [
        {
          "internalType": "bool",
          "name": "",
          "type": "bool"
        }
      ],
      "stateMutability": "view",
      "type": "function"
    },
    {
      "inputs": [],
      "name": "moduleId",
      "outputs": [
        {
          "internalType": "uint256",
          "name": "",
          "type": "uint256"
        }
      ],
      "stateMutability": "view",
      "type": "function"
    },
    {
      "inputs": [],
      "name": "onboardingPlugin",
      "outputs": [
        {
          "internalType": "address",
          "name": "",
          "type": "address"
        }
      ],
      "stateMutability": "view",
      "type": "function"
    },
    {
      "inputs": [],
      "name": "owner",
      "outputs": [
        {
          "internalType": "address",
          "name": "",
          "type": "address"
        }
      ],
      "stateMutability": "view",
      "type": "function"
    },
    {
      "inputs": [],
      "name": "pluginId",
      "outputs": [
        {
          "internalType": "uint256",
          "name": "",
          "type": "uint256"
        }
      ],
      "stateMutability": "view",
      "type": "function"
    },
    {
      "inputs": [],
      "name": "pluginRegistry",
      "outputs": [
        {
          "internalType": "address",
          "name": "",
          "type": "address"
        }
      ],
      "stateMutability": "view",
      "type": "function"
    },
    {
      "inputs": [
        {
          "internalType": "uint256",
          "name": "questId",
          "type": "uint256"
        },
        {
          "components": [
            {
              "internalType": "uint256",
              "name": "pluginId",
              "type": "uint256"
            },
            {
              "internalType": "uint256",
              "name": "taskId",
              "type": "uint256"
            }
          ],
          "internalType": "struct QuestsModule.PluginTasks[]",
          "name": "tasksToRemove",
          "type": "tuple[]"
        }
      ],
      "name": "removeTasks",
      "outputs": [],
      "stateMutability": "nonpayable",
      "type": "function"
    },
    {
      "inputs": [
        {
          "internalType": "uint256",
          "name": "role",
          "type": "uint256"
        },
        {
          "internalType": "uint256",
          "name": "questId",
          "type": "uint256"
        }
      ],
      "name": "setActiveQuestPerRole",
      "outputs": [],
      "stateMutability": "nonpayable",
      "type": "function"
    },
    {
      "inputs": [
        {
          "internalType": "uint256",
          "name": "tokenId",
          "type": "uint256"
        }
      ],
      "name": "setPluginId",
      "outputs": [],
      "stateMutability": "nonpayable",
      "type": "function"
    },
    {
      "inputs": [
        {
          "internalType": "bool",
          "name": "state",
          "type": "bool"
        },
        {
          "internalType": "uint256",
          "name": "questId",
          "type": "uint256"
        }
      ],
      "name": "setQuestState",
      "outputs": [],
      "stateMutability": "nonpayable",
      "type": "function"
    },
    {
      "inputs": [
        {
          "internalType": "uint256",
          "name": "",
          "type": "uint256"
        },
        {
          "internalType": "uint256",
          "name": "",
          "type": "uint256"
        }
      ],
      "name": "taskToQuests",
      "outputs": [
        {
          "internalType": "uint256",
          "name": "",
          "type": "uint256"
        }
      ],
      "stateMutability": "view",
      "type": "function"
    },
    {
      "inputs": [
        {
          "internalType": "uint256",
          "name": "questId",
          "type": "uint256"
        }
      ],
      "name": "withdrawFromAQuest",
      "outputs": [],
      "stateMutability": "nonpayable",
      "type": "function"
    }
  ],
  "bytecode": {
    "object": "0x60806040523480156200001157600080fd5b50604051620028f5380380620028f5833981016040819052620000349162000228565b80600081600160006101000a8154816001600160a01b0302191690836001600160a01b03160217905550816001600160a01b03166341dcea916040518163ffffffff1660e01b8152600401602060405180830381865afa1580156200009d573d6000803e3d6000fd5b505050506040513d601f19601f82011682018060405250810190620000c3919062000228565b600480546001600160a01b039290921661010002610100600160a81b0319909216919091179055600080546001600160a01b03191633179055600355506200010f600580546001019055565b600780546001600160a01b031916331790556040805160c08101825260008082526020808301828152845191820185528282529383019081526060830182905242608084015260a083018290526006805460018101825592819052835192027ff652222313e28459528d920b65115c16c04f3efc82aaedc97be59f3f377c0d3f810192835593517ff652222313e28459528d920b65115c16c04f3efc82aaedc97be59f3f377c0d408501805491151560ff1990921691909117905551919290917ff652222313e28459528d920b65115c16c04f3efc82aaedc97be59f3f377c0d4190910190620002009082620002ff565b50606082015181600301556080820151816004015560a08201518160050155505050620003cb565b6000602082840312156200023b57600080fd5b81516001600160a01b03811681146200025357600080fd5b9392505050565b634e487b7160e01b600052604160045260246000fd5b600181811c908216806200028557607f821691505b602082108103620002a657634e487b7160e01b600052602260045260246000fd5b50919050565b601f821115620002fa57600081815260208120601f850160051c81016020861015620002d55750805b601f850160051c820191505b81811015620002f657828155600101620002e1565b5050505b505050565b81516001600160401b038111156200031b576200031b6200025a565b62000333816200032c845462000270565b84620002ac565b602080601f8311600181146200036b5760008415620003525750858301515b600019600386901b1c1916600185901b178555620002f6565b600085815260208120601f198616915b828110156200039c578886015182559484019460019091019084016200037b565b5085821015620003bb5787850151600019600388901b60f8161c191681555b5050505050600190811b01905550565b61251a80620003db6000396000f3fe608060405234801561001057600080fd5b50600436106101a95760003560e01c80638da5cb5b116100f9578063bd45a0a911610097578063d401036111610071578063d401036114610389578063d4a131751461039c578063d5f39488146103af578063f4f4d237146103c057600080fd5b8063bd45a0a914610350578063bda8768f14610363578063ca8836d21461037657600080fd5b8063a1308f27116100d3578063a1308f27146102f4578063a134eb60146102fd578063a4b986d81461031d578063b699520f1461033d57600080fd5b80638da5cb5b146102c65780639465120b146102ce57806395ecc642146102e157600080fd5b80632fe7e441116101665780635bf14f2d116101405780635bf14f2d1461028557806369748350146102985780637fc573d2146102ab57806382b35017146102b357600080fd5b80632fe7e4411461024357806339a5449b1461025a57806341dcea911461026d57600080fd5b806302a4dca0146101ae5780630b2c5834146101c35780630d39c1ec146101d65780632131c68c146101e957806322f3e2d4146102135780632b13d60114610230575b600080fd5b6101c16101bc366004611dab565b6103e0565b005b6101c16101d1366004611dc4565b610440565b6101c16101e4366004611e43565b61058e565b6001546001600160a01b03165b6040516001600160a01b0390911681526020015b60405180910390f35b6004546102209060ff1681565b604051901515815260200161020a565b61022061023e366004611e7d565b610659565b61024c60025481565b60405190815260200161020a565b6101c1610268366004611dab565b61069d565b6004546101f69061010090046001600160a01b031681565b6007546101f6906001600160a01b031681565b6101c16102a6366004611eb7565b6107ec565b61024c6109a8565b6101c16102c1366004611fa1565b6109c4565b6101f6610c77565b6101c16102dc366004611ff1565b610ced565b6102206102ef366004611dab565b610f4d565b61024c60035481565b61024c61030b366004611dab565b600a6020526000908152604090205481565b61033061032b366004611dab565b610fee565b60405161020a9190612049565b6101c161034b366004611dab565b611074565b61024c61035e366004612098565b611212565b61024c610371366004611e43565b61149f565b610220610384366004611dab565b6114d0565b61024c610397366004611e7d565b611500565b6102206103aa366004611e7d565b61178e565b6000546001600160a01b03166101f6565b6103d36103ce366004611dab565b6117c0565b60405161020a9190612135565b60045461010090046001600160a01b0316331461043b5760405162461bcd60e51b81526020600482015260146024820152734f6e6c7920706c7567696e20726567697374727960601b60448201526064015b60405180910390fd5b600255565b6001546001600160a01b0316604051630935e01b60e21b81523360048201526001600160a01b0391909116906324d7806c90602401602060405180830381865afa158015610492573d6000803e3d6000fd5b505050506040513d601f19601f820116820180604052508101906104b69190612191565b6104d25760405162461bcd60e51b8152600401610432906121ae565b826104dc816114d0565b6104f85760405162461bcd60e51b8152600401610432906121d5565b8361050260055490565b10156105205760405162461bcd60e51b8152600401610432906121fb565b60005b8281101561055e5761054c8585858481811061054157610541612225565b905060400201611903565b8061055681612251565b915050610523565b506040517f9d332a24eb432cdce98c51fd6189524fd2175f1ae19f450acad59e6b83dba95190600090a150505050565b6001546001600160a01b0316604051630935e01b60e21b81523360048201526001600160a01b0391909116906324d7806c90602401602060405180830381865afa1580156105e0573d6000803e3d6000fd5b505050506040513d601f19601f820116820180604052508101906106049190612191565b6106205760405162461bcd60e51b8152600401610432906121ae565b8061062a816114d0565b6106465760405162461bcd60e51b8152600401610432906121d5565b506000918252600a602052604090912055565b6000818152600b602090815260408083206001600160a01b038616845290915281205460ff168015610694575060006106928484611500565b115b90505b92915050565b600754604080516308bcf8b560e21b8152905183926001600160a01b0316916322f3e2d49160048083019260209291908290030181865afa1580156106e6573d6000803e3d6000fd5b505050506040513d601f19601f8201168201806040525081019061070a9190612191565b801561074c575080600a60006006848154811061072957610729612225565b906000526020600020906006020160000154815260200190815260200160002054145b61078c5760405162461bcd60e51b815260206004820152601160248201527013db9b1e481858dd1a5d99481c5d595cdd607a1b6044820152606401610432565b6000828152600b602090815260408083203380855290835292819020805460ff191690558051858152918201929092527f8c7cdad0d12a8db3e23561b42da6f10c8137914c97beff202213a410e1f520a391015b60405180910390a15050565b6001546001600160a01b0316604051630935e01b60e21b81523360048201526001600160a01b0391909116906324d7806c90602401602060405180830381865afa15801561083e573d6000803e3d6000fd5b505050506040513d601f19601f820116820180604052508101906108629190612191565b61087e5760405162461bcd60e51b8152600401610432906121ae565b6000610889826117c0565b90508060a001516000036108c95760405162461bcd60e51b81526020600482015260076024820152664e6f5461736b7360c81b6044820152606401610432565b428160600151610e106108dc919061226a565b82608001516108eb9190612281565b10156109215760405162461bcd60e51b8152602060048201526005602482015264115b99195960da1b6044820152606401610432565b8215156020820152600680548291908490811061094057610940612225565b60009182526020918290208351600692909202019081559082015160018201805460ff191691151591909117905560408201516002820190610982908261231d565b50606082015160038201556080820151600482015560a090910151600590910155505050565b600060016109b560055490565b6109bf91906123dd565b905090565b6001546001600160a01b0316604051630935e01b60e21b81523360048201526001600160a01b0391909116906324d7806c90602401602060405180830381865afa158015610a16573d6000803e3d6000fd5b505050506040513d601f19601f82011682018060405250810190610a3a9190612191565b610a565760405162461bcd60e51b8152600401610432906121ae565b82610a60816114d0565b610a7c5760405162461bcd60e51b8152600401610432906121d5565b6004805460405163e832df9160e01b81529182018590526000916101009091046001600160a01b03169063e832df91906024016040805180830381865afa158015610acb573d6000803e3d6000fd5b505050506040513d601f19601f82011682018060405250810190610aef91906123f0565b9050600081600001516001600160a01b0316630bb75b453360068981548110610b1a57610b1a612225565b9060005260206000209060060201600001548760068b81548110610b4057610b40612225565b906000526020600020906006020160040154610e1060068d81548110610b6857610b68612225565b906000526020600020906006020160030154610b84919061226a565b60068d81548110610b9757610b97612225565b906000526020600020906006020160040154610bb39190612281565b6040518663ffffffff1660e01b8152600401610bd395949392919061242a565b6020604051808303816000875af1158015610bf2573d6000803e3d6000fd5b505050506040513d601f19601f82011682018060405250810190610c169190612465565b9050610c3686604051806040016040528088815260200184815250611a04565b60408051878152602081018390527f88b449d18952f159480a65f18ec32649f7be2d827faa2bec8741d200230c3386910160405180910390a1505050505050565b6004805460405163235883e360e01b815230928101929092526000916101009091046001600160a01b03169063235883e390602401602060405180830381865afa158015610cc9573d6000803e3d6000fd5b505050506040513d601f19601f820116820180604052508101906109bf919061247e565b6001546001600160a01b0316604051630935e01b60e21b81523360048201526001600160a01b0391909116906324d7806c90602401602060405180830381865afa158015610d3f573d6000803e3d6000fd5b505050506040513d601f19601f82011682018060405250810190610d639190612191565b610d7f5760405162461bcd60e51b8152600401610432906121ae565b83610d89816114d0565b610da55760405162461bcd60e51b8152600401610432906121d5565b84610daf60055490565b1015610dcd5760405162461bcd60e51b8152600401610432906121fb565b60008411610e0d5760405162461bcd60e51b815260206004820152600d60248201526c696e76616c6964205f726f6c6560981b6044820152606401610432565b6000835111610e4d5760405162461bcd60e51b815260206004820152600c60248201526b696e76616c6964205f75726960a01b6044820152606401610432565b60008211610e9d5760405162461bcd60e51b815260206004820152601860248201527f696e76616c6964205f6475726174696f6e496e486f75727300000000000000006044820152606401610432565b8260068681548110610eb157610eb1612225565b90600052602060002090600602016002019081610ece919061231d565b508160068681548110610ee357610ee3612225565b9060005260206000209060060201600301819055508360068681548110610f0c57610f0c612225565b600091825260208220600690910201919091556040517f496fee2e9fe0bf40e689814f88d58305e2ed8e4650401d6bd0c4f7cfc53fae039190a15050505050565b600080610e1060068481548110610f6657610f66612225565b906000526020600020906006020160030154610f82919061226a565b60068481548110610f9557610f95612225565b906000526020600020906006020160040154610fb19190612281565b905060068381548110610fc657610fc6612225565b9060005260206000209060060201600401544210158015610fe75750804211155b9392505050565b606060086000838152602001908152602001600020805480602002602001604051908101604052809291908181526020016000905b8282101561106957838290600052602060002090600202016040518060400160405290816000820154815260200160018201548152505081526020019060010190611023565b505050509050919050565b600754604080516308bcf8b560e21b8152905183926001600160a01b0316916322f3e2d49160048083019260209291908290030181865afa1580156110bd573d6000803e3d6000fd5b505050506040513d601f19601f820116820180604052508101906110e19190612191565b8015611123575080600a60006006848154811061110057611100612225565b906000526020600020906006020160000154815260200190815260200160002054145b6111635760405162461bcd60e51b815260206004820152601160248201527013db9b1e481858dd1a5d99481c5d595cdd607a1b6044820152606401610432565b61116c82610f4d565b8061117b575061117b826114d0565b6111b75760405162461bcd60e51b815260206004820152600d60248201526c195e1c1a5c9959081c5d595cdd609a1b6044820152606401610432565b6000828152600b602090815260408083203380855290835292819020805460ff191660011790558051858152918201929092527f8e536842b0bedb99bbe3d9b2f4d7cd3c1d89955698940f266371b4d4f5caa25791016107e0565b60006112266001546001600160a01b031690565b604051630935e01b60e21b81523360048201526001600160a01b0391909116906324d7806c90602401602060405180830381865afa15801561126c573d6000803e3d6000fd5b505050506040513d601f19601f820116820180604052508101906112909190612191565b6112ac5760405162461bcd60e51b8152600401610432906121ae565b60008451116112eb5760405162461bcd60e51b815260206004820152600b60248201526a696e76616c69642075726960a81b6044820152606401610432565b42831161132e5760405162461bcd60e51b8152602060048201526011602482015270696e76616c69642073746172744461746560781b6044820152606401610432565b600061133960055490565b6040805160c081018252888152600060208201818152928201898152606083018890526080830189905260a083018290526006805460018101825592819052835192027ff652222313e28459528d920b65115c16c04f3efc82aaedc97be59f3f377c0d3f810192835593517ff652222313e28459528d920b65115c16c04f3efc82aaedc97be59f3f377c0d408501805491151560ff1990921691909117905551939450909290917ff652222313e28459528d920b65115c16c04f3efc82aaedc97be59f3f377c0d41019061140d908261231d565b50606082015160038201556080820151600482015560a0909101516005909101556000868152600a60205260408120549003611455576000868152600a602052604090208190555b611463600580546001019055565b6040518181527ff2376f43586d93a15b606c89747962a511dee47a8afacda035909ddd4460b1089060200160405180910390a195945050505050565b600960205281600052604060002081815481106114bb57600080fd5b90600052602060002001600091509150505481565b600042600683815481106114e6576114e6612225565b906000526020600020906006020160040154119050919050565b600081815260086020526040812054810361151d57506000610697565b6000805b6000848152600860205260409020548110156117865760045460008581526008602052604081208054919261010090046001600160a01b03169163e832df9191908590811061157257611572612225565b9060005260206000209060020201600001546040518263ffffffff1660e01b81526004016115a291815260200190565b6040805180830381865afa1580156115be573d6000803e3d6000fd5b505050506040513d601f19601f820116820180604052508101906115e291906123f0565b51600086815260086020526040902080549192506001600160a01b0383169163973cdc789189918690811061161957611619612225565b60009182526020909120600160029092020101546040516001600160e01b031960e085901b1681526001600160a01b0390921660048301526024820152604401602060405180830381865afa158015611676573d6000803e3d6000fd5b505050506040513d601f19601f8201168201806040525081019061169a9190612191565b1561176757600085815260086020526040812080546001600160a01b0384169163e31c007f91869081106116d0576116d0612225565b906000526020600020906002020160010154896040518363ffffffff1660e01b81526004016117129291909182526001600160a01b0316602082015260400190565b602060405180830381865afa15801561172f573d6000803e3d6000fd5b505050506040513d601f19601f820116820180604052508101906117539190612465565b905083811115611761578093505b50611773565b60009350505050610697565b508061177e81612251565b915050611521565b509392505050565b6000818152600a60205260408120548082036117ae576000915050610697565b6117b88482610659565b949350505050565b6117fb6040518060c0016040528060008152602001600015158152602001606081526020016000815260200160008152602001600081525090565b6006828154811061180e5761180e612225565b90600052602060002090600602016040518060c0016040529081600082015481526020016001820160009054906101000a900460ff1615151515815260200160028201805461185c90612294565b80601f016020809104026020016040519081016040528092919081815260200182805461188890612294565b80156118d55780601f106118aa576101008083540402835291602001916118d5565b820191906000526020600020905b8154815290600101906020018083116118b857829003601f168201915b5050505050815260200160038201548152602001600482015481526020016005820154815250509050919050565b600061191d836119183685900385018561249b565b611cef565b9050801961195c5760405162461bcd60e51b815260206004820152600c60248201526b696e76616c6964207461736b60a01b6044820152606401610432565b600083815260086020526040812080548390811061197c5761197c612225565b90600052602060002090600202016001018190555060006008600085815260200190815260200160002082815481106119b7576119b7612225565b600091825260209091206002909102015560068054849081106119dc576119dc612225565b6000918252602082206005600690920201018054916119fa836124cd565b9190505550505050565b81611a0e60055490565b1015611a2c5760405162461bcd60e51b8152600401610432906121fb565b60048054825160405163e832df9160e01b8152928301526000916101009091046001600160a01b03169063e832df91906024016040805180830381865afa158015611a7b573d6000803e3d6000fd5b505050506040513d601f19601f82011682018060405250810190611a9f91906123f0565b80519091506001600160a01b0316611aea5760405162461bcd60e51b815260206004820152600e60248201526d24b73b30b634b21038363ab3b4b760911b6044820152606401610432565b6004546000906001600160a01b03610100909104166328077c1a611b166001546001600160a01b031690565b60208501516040516001600160e01b031960e085901b1681526001600160a01b0390921660048301526024820152604401602060405180830381865afa158015611b64573d6000803e3d6000fd5b505050506040513d601f19601f82011682018060405250810190611b889190612191565b9050611b9c6001546001600160a01b031690565b6001600160a01b031682600001516001600160a01b0316632131c68c6040518163ffffffff1660e01b8152600401602060405180830381865afa158015611be7573d6000803e3d6000fd5b505050506040513d601f19601f82011682018060405250810190611c0b919061247e565b6001600160a01b0316148015611c1e5750805b15611ce9576000611c2f8585611cef565b90508019611ce75760008581526008602090815260408220805460018181018355918452928290208751600290940201928355908601519101556006805486908110611c7d57611c7d612225565b600091825260208220600560069092020101805491611c9b83612251565b91905055507f88b449d18952f159480a65f18ec32649f7be2d827faa2bec8741d200230c3386858560200151604051611cde929190918252602082015260400190565b60405180910390a15b505b50505050565b6000805b600084815260086020526040902054811015611da05782516000858152600860205260409020805483908110611d2b57611d2b612225565b906000526020600020906002020160000154148015611d8257508260200151600860008681526020019081526020016000208281548110611d6e57611d6e612225565b906000526020600020906002020160010154145b15611d8e579050610697565b80611d9881612251565b915050611cf3565b506000199392505050565b600060208284031215611dbd57600080fd5b5035919050565b600080600060408486031215611dd957600080fd5b83359250602084013567ffffffffffffffff80821115611df857600080fd5b818601915086601f830112611e0c57600080fd5b813581811115611e1b57600080fd5b8760208260061b8501011115611e3057600080fd5b6020830194508093505050509250925092565b60008060408385031215611e5657600080fd5b50508035926020909101359150565b6001600160a01b0381168114611e7a57600080fd5b50565b60008060408385031215611e9057600080fd5b8235611e9b81611e65565b946020939093013593505050565b8015158114611e7a57600080fd5b60008060408385031215611eca57600080fd5b8235611e9b81611ea9565b634e487b7160e01b600052604160045260246000fd5b6040805190810167ffffffffffffffff81118282101715611f0e57611f0e611ed5565b60405290565b600082601f830112611f2557600080fd5b813567ffffffffffffffff80821115611f4057611f40611ed5565b604051601f8301601f19908116603f01168101908282118183101715611f6857611f68611ed5565b81604052838152866020858801011115611f8157600080fd5b836020870160208301376000602085830101528094505050505092915050565b600080600060608486031215611fb657600080fd5b8335925060208401359150604084013567ffffffffffffffff811115611fdb57600080fd5b611fe786828701611f14565b9150509250925092565b6000806000806080858703121561200757600080fd5b8435935060208501359250604085013567ffffffffffffffff81111561202c57600080fd5b61203887828801611f14565b949793965093946060013593505050565b602080825282518282018190526000919060409081850190868401855b8281101561208b57815180518552860151868501529284019290850190600101612066565b5091979650505050505050565b600080600080608085870312156120ae57600080fd5b84359350602085013567ffffffffffffffff8111156120cc57600080fd5b6120d887828801611f14565b949794965050505060408301359260600135919050565b6000815180845260005b81811015612115576020818501810151868301820152016120f9565b506000602082860101526020601f19601f83011685010191505092915050565b60208152815160208201526020820151151560408201526000604083015160c0606084015261216760e08401826120ef565b905060608401516080840152608084015160a084015260a084015160c08401528091505092915050565b6000602082840312156121a357600080fd5b8151610fe781611ea9565b6020808252600d908201526c2737ba1030b71030b236b4b71760991b604082015260600190565b6020808252600c908201526b4f6e6c792070656e64696e6760a01b604082015260600190565b60208082526010908201526f1a5b9d985b1a59081c5d595cdd081a5960821b604082015260600190565b634e487b7160e01b600052603260045260246000fd5b634e487b7160e01b600052601160045260246000fd5b6000600182016122635761226361223b565b5060010190565b80820281158282048414176106975761069761223b565b808201808211156106975761069761223b565b600181811c908216806122a857607f821691505b6020821081036122c857634e487b7160e01b600052602260045260246000fd5b50919050565b601f82111561231857600081815260208120601f850160051c810160208610156122f55750805b601f850160051c820191505b8181101561231457828155600101612301565b5050505b505050565b815167ffffffffffffffff81111561233757612337611ed5565b61234b816123458454612294565b846122ce565b602080601f83116001811461238057600084156123685750858301515b600019600386901b1c1916600185901b178555612314565b600085815260208120601f198616915b828110156123af57888601518255948401946001909101908401612390565b50858210156123cd5787850151600019600388901b60f8161c191681555b5050505050600190811b01905550565b818103818111156106975761069761223b565b60006040828403121561240257600080fd5b61240a611eeb565b825161241581611e65565b81526020928301519281019290925250919050565b60018060a01b038616815284602082015260a06040820152600061245160a08301866120ef565b606083019490945250608001529392505050565b60006020828403121561247757600080fd5b5051919050565b60006020828403121561249057600080fd5b8151610fe781611e65565b6000604082840312156124ad57600080fd5b6124b5611eeb565b82358152602083013560208201528091505092915050565b6000816124dc576124dc61223b565b50600019019056fea264697066735822122008d33f4695f67d79f397e6be9dc09fb9e3704893a57d5998e5620ae3c6f8952b64736f6c63430008130033",
    "linkReferences": {}
  },
  "methodIdentifiers": {
    "activeQuestsPerRole(uint256)": "a134eb60",
    "applyForAQuest(uint256)": "b699520f",
    "create(uint256,string,uint256,uint256)": "bd45a0a9",
    "createTask(uint256,uint256,string)": "82b35017",
    "daoAddress()": "2131c68c",
    "deployer()": "d5f39488",
    "editQuest(uint256,uint256,string,uint256)": "9465120b",
    "getById(uint256)": "f4f4d237",
    "getTasksPerQuest(uint256)": "a4b986d8",
    "getTimeOfCompletion(address,uint256)": "d4010361",
    "getTotalQuests()": "7fc573d2",
    "hasCompletedAQuest(address,uint256)": "2b13d601",
    "hasCompletedQuestForRole(address,uint256)": "d4a13175",
    "isActive()": "22f3e2d4",
    "isOngoing(uint256)": "95ecc642",
    "isPending(uint256)": "ca8836d2",
    "moduleId()": "a1308f27",
    "onboardingPlugin()": "5bf14f2d",
    "owner()": "8da5cb5b",
    "pluginId()": "2fe7e441",
    "pluginRegistry()": "41dcea91",
    "removeTasks(uint256,(uint256,uint256)[])": "0b2c5834",
    "setActiveQuestPerRole(uint256,uint256)": "0d39c1ec",
    "setPluginId(uint256)": "02a4dca0",
    "setQuestState(bool,uint256)": "69748350",
    "taskToQuests(uint256,uint256)": "bda8768f",
    "withdrawFromAQuest(uint256)": "39a5449b"
  },
  "id": 89
}