{
  "abi": [
    {
      "inputs": [
        {
          "internalType": "address",
          "name": "dao",
          "type": "address"
        }
      ],
      "stateMutability": "nonpayable",
      "type": "constructor"
    },
    {
      "inputs": [],
      "name": "FunctionNotImplemented",
      "type": "error"
    },
    {
      "anonymous": false,
      "inputs": [
        {
          "indexed": false,
          "internalType": "uint256",
          "name": "questId",
          "type": "uint256"
        },
        {
          "indexed": false,
          "internalType": "address",
          "name": "user",
          "type": "address"
        }
      ],
      "name": "Applied",
      "type": "event"
    },
    {
      "anonymous": false,
      "inputs": [
        {
          "indexed": false,
          "internalType": "uint256",
          "name": "questId",
          "type": "uint256"
        },
        {
          "indexed": false,
          "internalType": "address",
          "name": "user",
          "type": "address"
        }
      ],
      "name": "QuestCompleted",
      "type": "event"
    },
    {
      "anonymous": false,
      "inputs": [
        {
          "indexed": false,
          "internalType": "uint256",
          "name": "questId",
          "type": "uint256"
        }
      ],
      "name": "QuestCreated",
      "type": "event"
    },
    {
      "anonymous": false,
      "inputs": [],
      "name": "QuestEdited",
      "type": "event"
    },
    {
      "anonymous": false,
      "inputs": [
        {
          "indexed": false,
          "internalType": "uint256",
          "name": "questId",
          "type": "uint256"
        },
        {
          "indexed": false,
          "internalType": "uint256",
          "name": "taskId",
          "type": "uint256"
        }
      ],
      "name": "TasksAddedToQuest",
      "type": "event"
    },
    {
      "anonymous": false,
      "inputs": [],
      "name": "TasksRemovedFromQuest",
      "type": "event"
    },
    {
      "anonymous": false,
      "inputs": [
        {
          "indexed": false,
          "internalType": "uint256",
          "name": "questId",
          "type": "uint256"
        },
        {
          "indexed": false,
          "internalType": "address",
          "name": "user",
          "type": "address"
        }
      ],
      "name": "Withdrawn",
      "type": "event"
    },
    {
      "inputs": [
        {
          "internalType": "uint256",
          "name": "",
          "type": "uint256"
        }
      ],
      "name": "activeQuestsPerRole",
      "outputs": [
        {
          "internalType": "uint256",
          "name": "",
          "type": "uint256"
        }
      ],
      "stateMutability": "view",
      "type": "function"
    },
    {
      "inputs": [
        {
          "internalType": "uint256",
          "name": "questId",
          "type": "uint256"
        }
      ],
      "name": "applyForAQuest",
      "outputs": [],
      "stateMutability": "nonpayable",
      "type": "function"
    },
    {
      "inputs": [
        {
          "internalType": "uint256",
          "name": "_role",
          "type": "uint256"
        },
        {
          "internalType": "string",
          "name": "_uri",
          "type": "string"
        },
        {
          "internalType": "uint256",
          "name": "_startDate",
          "type": "uint256"
        },
        {
          "internalType": "uint256",
          "name": "_durationInHours",
          "type": "uint256"
        }
      ],
      "name": "create",
      "outputs": [
        {
          "internalType": "uint256",
          "name": "",
          "type": "uint256"
        }
      ],
      "stateMutability": "nonpayable",
      "type": "function"
    },
    {
      "inputs": [
        {
          "internalType": "uint256",
          "name": "questId",
          "type": "uint256"
        },
        {
          "internalType": "uint256",
          "name": "tasksPluginId",
          "type": "uint256"
        },
        {
          "internalType": "string",
          "name": "uri",
          "type": "string"
        }
      ],
      "name": "createTask",
      "outputs": [],
      "stateMutability": "nonpayable",
      "type": "function"
    },
    {
      "inputs": [],
      "name": "deployer",
      "outputs": [
        {
          "internalType": "address",
          "name": "",
          "type": "address"
        }
      ],
      "stateMutability": "view",
      "type": "function"
    },
    {
      "inputs": [
        {
          "internalType": "uint256",
          "name": "questId",
          "type": "uint256"
        },
        {
          "internalType": "uint256",
          "name": "_role",
          "type": "uint256"
        },
        {
          "internalType": "string",
          "name": "_uri",
          "type": "string"
        },
        {
          "internalType": "uint256",
          "name": "_durationInHours",
          "type": "uint256"
        }
      ],
      "name": "editQuest",
      "outputs": [],
      "stateMutability": "nonpayable",
      "type": "function"
    },
    {
      "inputs": [
        {
          "internalType": "uint256",
          "name": "questId",
          "type": "uint256"
        }
      ],
      "name": "getById",
      "outputs": [
        {
          "components": [
            {
              "internalType": "uint256",
              "name": "role",
              "type": "uint256"
            },
            {
              "internalType": "bool",
              "name": "active",
              "type": "bool"
            },
            {
              "internalType": "string",
              "name": "metadataUri",
              "type": "string"
            },
            {
              "internalType": "uint256",
              "name": "durationInHours",
              "type": "uint256"
            },
            {
              "internalType": "uint256",
              "name": "startDate",
              "type": "uint256"
            },
            {
              "internalType": "uint256",
              "name": "tasksCount",
              "type": "uint256"
            }
          ],
          "internalType": "struct QuestsModule.QuestModel",
          "name": "",
          "type": "tuple"
        }
      ],
      "stateMutability": "view",
      "type": "function"
    },
    {
      "inputs": [
        {
          "internalType": "uint256",
          "name": "questId",
          "type": "uint256"
        }
      ],
      "name": "getTasksPerQuest",
      "outputs": [
        {
          "components": [
            {
              "internalType": "uint256",
              "name": "pluginId",
              "type": "uint256"
            },
            {
              "internalType": "uint256",
              "name": "taskId",
              "type": "uint256"
            }
          ],
          "internalType": "struct QuestsModule.PluginTasks[]",
          "name": "",
          "type": "tuple[]"
        }
      ],
      "stateMutability": "view",
      "type": "function"
    },
    {
      "inputs": [
        {
          "internalType": "address",
          "name": "user",
          "type": "address"
        },
        {
          "internalType": "uint256",
          "name": "questId",
          "type": "uint256"
        }
      ],
      "name": "getTimeOfCompletion",
      "outputs": [
        {
          "internalType": "uint256",
          "name": "",
          "type": "uint256"
        }
      ],
      "stateMutability": "view",
      "type": "function"
    },
    {
      "inputs": [],
      "name": "getTotalQuests",
      "outputs": [
        {
          "internalType": "uint256",
          "name": "",
          "type": "uint256"
        }
      ],
      "stateMutability": "view",
      "type": "function"
    },
    {
      "inputs": [
        {
          "internalType": "address",
          "name": "user",
          "type": "address"
        },
        {
          "internalType": "uint256",
          "name": "questId",
          "type": "uint256"
        }
      ],
      "name": "hasCompletedAQuest",
      "outputs": [
        {
          "internalType": "bool",
          "name": "",
          "type": "bool"
        }
      ],
      "stateMutability": "view",
      "type": "function"
    },
    {
      "inputs": [
        {
          "internalType": "address",
          "name": "user",
          "type": "address"
        },
        {
          "internalType": "uint256",
          "name": "role",
          "type": "uint256"
        }
      ],
      "name": "hasCompletedQuestForRole",
      "outputs": [
        {
          "internalType": "bool",
          "name": "",
          "type": "bool"
        }
      ],
      "stateMutability": "view",
      "type": "function"
    },
    {
      "inputs": [],
      "name": "isActive",
      "outputs": [
        {
          "internalType": "bool",
          "name": "",
          "type": "bool"
        }
      ],
      "stateMutability": "view",
      "type": "function"
    },
    {
      "inputs": [
        {
          "internalType": "uint256",
          "name": "questId",
          "type": "uint256"
        }
      ],
      "name": "isOngoing",
      "outputs": [
        {
          "internalType": "bool",
          "name": "",
          "type": "bool"
        }
      ],
      "stateMutability": "view",
      "type": "function"
    },
    {
      "inputs": [
        {
          "internalType": "uint256",
          "name": "questId",
          "type": "uint256"
        }
      ],
      "name": "isPending",
      "outputs": [
        {
          "internalType": "bool",
          "name": "",
          "type": "bool"
        }
      ],
      "stateMutability": "view",
      "type": "function"
    },
    {
      "inputs": [],
      "name": "moduleId",
      "outputs": [
        {
          "internalType": "uint256",
          "name": "",
          "type": "uint256"
        }
      ],
      "stateMutability": "view",
      "type": "function"
    },
    {
      "inputs": [],
      "name": "novaAddress",
      "outputs": [
        {
          "internalType": "address",
          "name": "",
          "type": "address"
        }
      ],
      "stateMutability": "view",
      "type": "function"
    },
    {
      "inputs": [],
      "name": "onboardingPlugin",
      "outputs": [
        {
          "internalType": "address",
          "name": "",
          "type": "address"
        }
      ],
      "stateMutability": "view",
      "type": "function"
    },
    {
      "inputs": [],
      "name": "owner",
      "outputs": [
        {
          "internalType": "address",
          "name": "",
          "type": "address"
        }
      ],
      "stateMutability": "view",
      "type": "function"
    },
    {
      "inputs": [],
      "name": "pluginId",
      "outputs": [
        {
          "internalType": "uint256",
          "name": "",
          "type": "uint256"
        }
      ],
      "stateMutability": "view",
      "type": "function"
    },
    {
      "inputs": [],
      "name": "pluginRegistry",
      "outputs": [
        {
          "internalType": "address",
          "name": "",
          "type": "address"
        }
      ],
      "stateMutability": "view",
      "type": "function"
    },
    {
      "inputs": [
        {
          "internalType": "uint256",
          "name": "questId",
          "type": "uint256"
        },
        {
          "components": [
            {
              "internalType": "uint256",
              "name": "pluginId",
              "type": "uint256"
            },
            {
              "internalType": "uint256",
              "name": "taskId",
              "type": "uint256"
            }
          ],
          "internalType": "struct QuestsModule.PluginTasks[]",
          "name": "tasksToRemove",
          "type": "tuple[]"
        }
      ],
      "name": "removeTasks",
      "outputs": [],
      "stateMutability": "nonpayable",
      "type": "function"
    },
    {
      "inputs": [
        {
          "internalType": "uint256",
          "name": "role",
          "type": "uint256"
        },
        {
          "internalType": "uint256",
          "name": "questId",
          "type": "uint256"
        }
      ],
      "name": "setActiveQuestPerRole",
      "outputs": [],
      "stateMutability": "nonpayable",
      "type": "function"
    },
    {
      "inputs": [
        {
          "internalType": "uint256",
          "name": "tokenId",
          "type": "uint256"
        }
      ],
      "name": "setPluginId",
      "outputs": [],
      "stateMutability": "nonpayable",
      "type": "function"
    },
    {
      "inputs": [
        {
          "internalType": "bool",
          "name": "state",
          "type": "bool"
        },
        {
          "internalType": "uint256",
          "name": "questId",
          "type": "uint256"
        }
      ],
      "name": "setQuestState",
      "outputs": [],
      "stateMutability": "nonpayable",
      "type": "function"
    },
    {
      "inputs": [
        {
          "internalType": "uint256",
          "name": "",
          "type": "uint256"
        },
        {
          "internalType": "uint256",
          "name": "",
          "type": "uint256"
        }
      ],
      "name": "taskToQuests",
      "outputs": [
        {
          "internalType": "uint256",
          "name": "",
          "type": "uint256"
        }
      ],
      "stateMutability": "view",
      "type": "function"
    },
    {
      "inputs": [
        {
          "internalType": "uint256",
          "name": "questId",
          "type": "uint256"
        }
      ],
      "name": "withdrawFromAQuest",
      "outputs": [],
      "stateMutability": "nonpayable",
      "type": "function"
    }
  ],
  "bytecode": {
    "object": "0x60806040523480156200001157600080fd5b50604051620028b6380380620028b6833981016040819052620000349162000228565b80600081600160006101000a8154816001600160a01b0302191690836001600160a01b03160217905550816001600160a01b03166341dcea916040518163ffffffff1660e01b8152600401602060405180830381865afa1580156200009d573d6000803e3d6000fd5b505050506040513d601f19601f82011682018060405250810190620000c3919062000228565b600480546001600160a01b039290921661010002610100600160a81b0319909216919091179055600080546001600160a01b03191633179055600355506200010f600580546001019055565b600780546001600160a01b031916331790556040805160c08101825260008082526020808301828152845191820185528282529383019081526060830182905242608084015260a083018290526006805460018101825592819052835192027ff652222313e28459528d920b65115c16c04f3efc82aaedc97be59f3f377c0d3f810192835593517ff652222313e28459528d920b65115c16c04f3efc82aaedc97be59f3f377c0d408501805491151560ff1990921691909117905551919290917ff652222313e28459528d920b65115c16c04f3efc82aaedc97be59f3f377c0d4190910190620002009082620002ff565b50606082015181600301556080820151816004015560a08201518160050155505050620003cb565b6000602082840312156200023b57600080fd5b81516001600160a01b03811681146200025357600080fd5b9392505050565b634e487b7160e01b600052604160045260246000fd5b600181811c908216806200028557607f821691505b602082108103620002a657634e487b7160e01b600052602260045260246000fd5b50919050565b601f821115620002fa57600081815260208120601f850160051c81016020861015620002d55750805b601f850160051c820191505b81811015620002f657828155600101620002e1565b5050505b505050565b81516001600160401b038111156200031b576200031b6200025a565b62000333816200032c845462000270565b84620002ac565b602080601f8311600181146200036b5760008415620003525750858301515b600019600386901b1c1916600185901b178555620002f6565b600085815260208120601f198616915b828110156200039c578886015182559484019460019091019084016200037b565b5085821015620003bb5787850151600019600388901b60f8161c191681555b5050505050600190811b01905550565b6124db80620003db6000396000f3fe608060405234801561001057600080fd5b50600436106101a95760003560e01c80638da5cb5b116100f9578063bd45a0a911610097578063d401036111610071578063d40103611461038d578063d4a13175146103a0578063d5f39488146103b3578063f4f4d237146103c457600080fd5b8063bd45a0a914610354578063bda8768f14610367578063ca8836d21461037a57600080fd5b8063a1308f27116100d3578063a1308f27146102f8578063a134eb6014610301578063a4b986d814610321578063b699520f1461034157600080fd5b80638da5cb5b146102ca5780639465120b146102d257806395ecc642146102e557600080fd5b806339a5449b116101665780636974835011610140578063697483501461028b5780637fc573d21461029e57806382b35017146102a657806389f12ed9146102b957600080fd5b806339a5449b1461023557806341dcea91146102485780635bf14f2d1461027857600080fd5b806302a4dca0146101ae5780630b2c5834146101c35780630d39c1ec146101d657806322f3e2d4146101e95780632b13d6011461020b5780632fe7e4411461021e575b600080fd5b6101c16101bc366004611d6c565b6103e4565b005b6101c16101d1366004611d85565b610444565b6101c16101e4366004611e04565b610588565b6004546101f69060ff1681565b60405190151581526020015b60405180910390f35b6101f6610219366004611e3e565b610649565b61022760025481565b604051908152602001610202565b6101c1610243366004611d6c565b61068d565b6004546102609061010090046001600160a01b031681565b6040516001600160a01b039091168152602001610202565b600754610260906001600160a01b031681565b6101c1610299366004611e78565b6107dc565b61022761098e565b6101c16102b4366004611f62565b6109aa565b6001546001600160a01b0316610260565b610260610c53565b6101c16102e0366004611fb2565b610cc9565b6101f66102f3366004611d6c565b610f1f565b61022760035481565b61022761030f366004611d6c565b600a6020526000908152604090205481565b61033461032f366004611d6c565b610fc0565b604051610202919061200a565b6101c161034f366004611d6c565b611046565b610227610362366004612059565b6111e4565b610227610375366004611e04565b611460565b6101f6610388366004611d6c565b611491565b61022761039b366004611e3e565b6114c1565b6101f66103ae366004611e3e565b61174f565b6000546001600160a01b0316610260565b6103d76103d2366004611d6c565b611781565b60405161020291906120f6565b60045461010090046001600160a01b0316331461043f5760405162461bcd60e51b81526020600482015260146024820152734f6e6c7920706c7567696e20726567697374727960601b60448201526064015b60405180910390fd5b600255565b600154604051630935e01b60e21b81523360048201526001600160a01b03909116906324d7806c90602401602060405180830381865afa15801561048c573d6000803e3d6000fd5b505050506040513d601f19601f820116820180604052508101906104b09190612152565b6104cc5760405162461bcd60e51b81526004016104369061216f565b826104d681611491565b6104f25760405162461bcd60e51b815260040161043690612196565b836104fc60055490565b101561051a5760405162461bcd60e51b8152600401610436906121bc565b60005b82811015610558576105468585858481811061053b5761053b6121e6565b9050604002016118c4565b8061055081612212565b91505061051d565b506040517f9d332a24eb432cdce98c51fd6189524fd2175f1ae19f450acad59e6b83dba95190600090a150505050565b600154604051630935e01b60e21b81523360048201526001600160a01b03909116906324d7806c90602401602060405180830381865afa1580156105d0573d6000803e3d6000fd5b505050506040513d601f19601f820116820180604052508101906105f49190612152565b6106105760405162461bcd60e51b81526004016104369061216f565b8061061a81611491565b6106365760405162461bcd60e51b815260040161043690612196565b506000918252600a602052604090912055565b6000818152600b602090815260408083206001600160a01b038616845290915281205460ff1680156106845750600061068284846114c1565b115b90505b92915050565b600754604080516308bcf8b560e21b8152905183926001600160a01b0316916322f3e2d49160048083019260209291908290030181865afa1580156106d6573d6000803e3d6000fd5b505050506040513d601f19601f820116820180604052508101906106fa9190612152565b801561073c575080600a600060068481548110610719576107196121e6565b906000526020600020906006020160000154815260200190815260200160002054145b61077c5760405162461bcd60e51b815260206004820152601160248201527013db9b1e481858dd1a5d99481c5d595cdd607a1b6044820152606401610436565b6000828152600b602090815260408083203380855290835292819020805460ff191690558051858152918201929092527f8c7cdad0d12a8db3e23561b42da6f10c8137914c97beff202213a410e1f520a391015b60405180910390a15050565b600154604051630935e01b60e21b81523360048201526001600160a01b03909116906324d7806c90602401602060405180830381865afa158015610824573d6000803e3d6000fd5b505050506040513d601f19601f820116820180604052508101906108489190612152565b6108645760405162461bcd60e51b81526004016104369061216f565b600061086f82611781565b90508060a001516000036108af5760405162461bcd60e51b81526020600482015260076024820152664e6f5461736b7360c81b6044820152606401610436565b428160600151610e106108c2919061222b565b82608001516108d19190612242565b10156109075760405162461bcd60e51b8152602060048201526005602482015264115b99195960da1b6044820152606401610436565b82151560208201526006805482919084908110610926576109266121e6565b60009182526020918290208351600692909202019081559082015160018201805460ff19169115159190911790556040820151600282019061096890826122de565b50606082015160038201556080820151600482015560a090910151600590910155505050565b6000600161099b60055490565b6109a5919061239e565b905090565b600154604051630935e01b60e21b81523360048201526001600160a01b03909116906324d7806c90602401602060405180830381865afa1580156109f2573d6000803e3d6000fd5b505050506040513d601f19601f82011682018060405250810190610a169190612152565b610a325760405162461bcd60e51b81526004016104369061216f565b82610a3c81611491565b610a585760405162461bcd60e51b815260040161043690612196565b6004805460405163e832df9160e01b81529182018590526000916101009091046001600160a01b03169063e832df91906024016040805180830381865afa158015610aa7573d6000803e3d6000fd5b505050506040513d601f19601f82011682018060405250810190610acb91906123b1565b9050600081600001516001600160a01b0316630bb75b453360068981548110610af657610af66121e6565b9060005260206000209060060201600001548760068b81548110610b1c57610b1c6121e6565b906000526020600020906006020160040154610e1060068d81548110610b4457610b446121e6565b906000526020600020906006020160030154610b60919061222b565b60068d81548110610b7357610b736121e6565b906000526020600020906006020160040154610b8f9190612242565b6040518663ffffffff1660e01b8152600401610baf9594939291906123eb565b6020604051808303816000875af1158015610bce573d6000803e3d6000fd5b505050506040513d601f19601f82011682018060405250810190610bf29190612426565b9050610c12866040518060400160405280888152602001848152506119c5565b60408051878152602081018390527f88b449d18952f159480a65f18ec32649f7be2d827faa2bec8741d200230c3386910160405180910390a1505050505050565b6004805460405163235883e360e01b815230928101929092526000916101009091046001600160a01b03169063235883e390602401602060405180830381865afa158015610ca5573d6000803e3d6000fd5b505050506040513d601f19601f820116820180604052508101906109a5919061243f565b600154604051630935e01b60e21b81523360048201526001600160a01b03909116906324d7806c90602401602060405180830381865afa158015610d11573d6000803e3d6000fd5b505050506040513d601f19601f82011682018060405250810190610d359190612152565b610d515760405162461bcd60e51b81526004016104369061216f565b83610d5b81611491565b610d775760405162461bcd60e51b815260040161043690612196565b84610d8160055490565b1015610d9f5760405162461bcd60e51b8152600401610436906121bc565b60008411610ddf5760405162461bcd60e51b815260206004820152600d60248201526c696e76616c6964205f726f6c6560981b6044820152606401610436565b6000835111610e1f5760405162461bcd60e51b815260206004820152600c60248201526b696e76616c6964205f75726960a01b6044820152606401610436565b60008211610e6f5760405162461bcd60e51b815260206004820152601860248201527f696e76616c6964205f6475726174696f6e496e486f75727300000000000000006044820152606401610436565b8260068681548110610e8357610e836121e6565b90600052602060002090600602016002019081610ea091906122de565b508160068681548110610eb557610eb56121e6565b9060005260206000209060060201600301819055508360068681548110610ede57610ede6121e6565b600091825260208220600690910201919091556040517f496fee2e9fe0bf40e689814f88d58305e2ed8e4650401d6bd0c4f7cfc53fae039190a15050505050565b600080610e1060068481548110610f3857610f386121e6565b906000526020600020906006020160030154610f54919061222b565b60068481548110610f6757610f676121e6565b906000526020600020906006020160040154610f839190612242565b905060068381548110610f9857610f986121e6565b9060005260206000209060060201600401544210158015610fb95750804211155b9392505050565b606060086000838152602001908152602001600020805480602002602001604051908101604052809291908181526020016000905b8282101561103b57838290600052602060002090600202016040518060400160405290816000820154815260200160018201548152505081526020019060010190610ff5565b505050509050919050565b600754604080516308bcf8b560e21b8152905183926001600160a01b0316916322f3e2d49160048083019260209291908290030181865afa15801561108f573d6000803e3d6000fd5b505050506040513d601f19601f820116820180604052508101906110b39190612152565b80156110f5575080600a6000600684815481106110d2576110d26121e6565b906000526020600020906006020160000154815260200190815260200160002054145b6111355760405162461bcd60e51b815260206004820152601160248201527013db9b1e481858dd1a5d99481c5d595cdd607a1b6044820152606401610436565b61113e82610f1f565b8061114d575061114d82611491565b6111895760405162461bcd60e51b815260206004820152600d60248201526c195e1c1a5c9959081c5d595cdd609a1b6044820152606401610436565b6000828152600b602090815260408083203380855290835292819020805460ff191660011790558051858152918201929092527f8e536842b0bedb99bbe3d9b2f4d7cd3c1d89955698940f266371b4d4f5caa25791016107d0565b600154604051630935e01b60e21b81523360048201526000916001600160a01b0316906324d7806c90602401602060405180830381865afa15801561122d573d6000803e3d6000fd5b505050506040513d601f19601f820116820180604052508101906112519190612152565b61126d5760405162461bcd60e51b81526004016104369061216f565b60008451116112ac5760405162461bcd60e51b815260206004820152600b60248201526a696e76616c69642075726960a81b6044820152606401610436565b4283116112ef5760405162461bcd60e51b8152602060048201526011602482015270696e76616c69642073746172744461746560781b6044820152606401610436565b60006112fa60055490565b6040805160c081018252888152600060208201818152928201898152606083018890526080830189905260a083018290526006805460018101825592819052835192027ff652222313e28459528d920b65115c16c04f3efc82aaedc97be59f3f377c0d3f810192835593517ff652222313e28459528d920b65115c16c04f3efc82aaedc97be59f3f377c0d408501805491151560ff1990921691909117905551939450909290917ff652222313e28459528d920b65115c16c04f3efc82aaedc97be59f3f377c0d4101906113ce90826122de565b50606082015160038201556080820151600482015560a0909101516005909101556000868152600a60205260408120549003611416576000868152600a602052604090208190555b611424600580546001019055565b6040518181527ff2376f43586d93a15b606c89747962a511dee47a8afacda035909ddd4460b1089060200160405180910390a195945050505050565b6009602052816000526040600020818154811061147c57600080fd5b90600052602060002001600091509150505481565b600042600683815481106114a7576114a76121e6565b906000526020600020906006020160040154119050919050565b60008181526008602052604081205481036114de57506000610687565b6000805b6000848152600860205260409020548110156117475760045460008581526008602052604081208054919261010090046001600160a01b03169163e832df91919085908110611533576115336121e6565b9060005260206000209060020201600001546040518263ffffffff1660e01b815260040161156391815260200190565b6040805180830381865afa15801561157f573d6000803e3d6000fd5b505050506040513d601f19601f820116820180604052508101906115a391906123b1565b51600086815260086020526040902080549192506001600160a01b0383169163973cdc78918991869081106115da576115da6121e6565b60009182526020909120600160029092020101546040516001600160e01b031960e085901b1681526001600160a01b0390921660048301526024820152604401602060405180830381865afa158015611637573d6000803e3d6000fd5b505050506040513d601f19601f8201168201806040525081019061165b9190612152565b1561172857600085815260086020526040812080546001600160a01b0384169163e31c007f9186908110611691576116916121e6565b906000526020600020906002020160010154896040518363ffffffff1660e01b81526004016116d39291909182526001600160a01b0316602082015260400190565b602060405180830381865afa1580156116f0573d6000803e3d6000fd5b505050506040513d601f19601f820116820180604052508101906117149190612426565b905083811115611722578093505b50611734565b60009350505050610687565b508061173f81612212565b9150506114e2565b509392505050565b6000818152600a602052604081205480820361176f576000915050610687565b6117798482610649565b949350505050565b6117bc6040518060c0016040528060008152602001600015158152602001606081526020016000815260200160008152602001600081525090565b600682815481106117cf576117cf6121e6565b90600052602060002090600602016040518060c0016040529081600082015481526020016001820160009054906101000a900460ff1615151515815260200160028201805461181d90612255565b80601f016020809104026020016040519081016040528092919081815260200182805461184990612255565b80156118965780601f1061186b57610100808354040283529160200191611896565b820191906000526020600020905b81548152906001019060200180831161187957829003601f168201915b5050505050815260200160038201548152602001600482015481526020016005820154815250509050919050565b60006118de836118d93685900385018561245c565b611cb0565b9050801961191d5760405162461bcd60e51b815260206004820152600c60248201526b696e76616c6964207461736b60a01b6044820152606401610436565b600083815260086020526040812080548390811061193d5761193d6121e6565b9060005260206000209060020201600101819055506000600860008581526020019081526020016000208281548110611978576119786121e6565b6000918252602090912060029091020155600680548490811061199d5761199d6121e6565b6000918252602082206005600690920201018054916119bb8361248e565b9190505550505050565b816119cf60055490565b10156119ed5760405162461bcd60e51b8152600401610436906121bc565b60048054825160405163e832df9160e01b8152928301526000916101009091046001600160a01b03169063e832df91906024016040805180830381865afa158015611a3c573d6000803e3d6000fd5b505050506040513d601f19601f82011682018060405250810190611a6091906123b1565b80519091506001600160a01b0316611aab5760405162461bcd60e51b815260206004820152600e60248201526d24b73b30b634b21038363ab3b4b760911b6044820152606401610436565b6004546000906001600160a01b03610100909104166328077c1a611ad76001546001600160a01b031690565b60208501516040516001600160e01b031960e085901b1681526001600160a01b0390921660048301526024820152604401602060405180830381865afa158015611b25573d6000803e3d6000fd5b505050506040513d601f19601f82011682018060405250810190611b499190612152565b9050611b5d6001546001600160a01b031690565b6001600160a01b031682600001516001600160a01b03166389f12ed96040518163ffffffff1660e01b8152600401602060405180830381865afa158015611ba8573d6000803e3d6000fd5b505050506040513d601f19601f82011682018060405250810190611bcc919061243f565b6001600160a01b0316148015611bdf5750805b15611caa576000611bf08585611cb0565b90508019611ca85760008581526008602090815260408220805460018181018355918452928290208751600290940201928355908601519101556006805486908110611c3e57611c3e6121e6565b600091825260208220600560069092020101805491611c5c83612212565b91905055507f88b449d18952f159480a65f18ec32649f7be2d827faa2bec8741d200230c3386858560200151604051611c9f929190918252602082015260400190565b60405180910390a15b505b50505050565b6000805b600084815260086020526040902054811015611d615782516000858152600860205260409020805483908110611cec57611cec6121e6565b906000526020600020906002020160000154148015611d4357508260200151600860008681526020019081526020016000208281548110611d2f57611d2f6121e6565b906000526020600020906002020160010154145b15611d4f579050610687565b80611d5981612212565b915050611cb4565b506000199392505050565b600060208284031215611d7e57600080fd5b5035919050565b600080600060408486031215611d9a57600080fd5b83359250602084013567ffffffffffffffff80821115611db957600080fd5b818601915086601f830112611dcd57600080fd5b813581811115611ddc57600080fd5b8760208260061b8501011115611df157600080fd5b6020830194508093505050509250925092565b60008060408385031215611e1757600080fd5b50508035926020909101359150565b6001600160a01b0381168114611e3b57600080fd5b50565b60008060408385031215611e5157600080fd5b8235611e5c81611e26565b946020939093013593505050565b8015158114611e3b57600080fd5b60008060408385031215611e8b57600080fd5b8235611e5c81611e6a565b634e487b7160e01b600052604160045260246000fd5b6040805190810167ffffffffffffffff81118282101715611ecf57611ecf611e96565b60405290565b600082601f830112611ee657600080fd5b813567ffffffffffffffff80821115611f0157611f01611e96565b604051601f8301601f19908116603f01168101908282118183101715611f2957611f29611e96565b81604052838152866020858801011115611f4257600080fd5b836020870160208301376000602085830101528094505050505092915050565b600080600060608486031215611f7757600080fd5b8335925060208401359150604084013567ffffffffffffffff811115611f9c57600080fd5b611fa886828701611ed5565b9150509250925092565b60008060008060808587031215611fc857600080fd5b8435935060208501359250604085013567ffffffffffffffff811115611fed57600080fd5b611ff987828801611ed5565b949793965093946060013593505050565b602080825282518282018190526000919060409081850190868401855b8281101561204c57815180518552860151868501529284019290850190600101612027565b5091979650505050505050565b6000806000806080858703121561206f57600080fd5b84359350602085013567ffffffffffffffff81111561208d57600080fd5b61209987828801611ed5565b949794965050505060408301359260600135919050565b6000815180845260005b818110156120d6576020818501810151868301820152016120ba565b506000602082860101526020601f19601f83011685010191505092915050565b60208152815160208201526020820151151560408201526000604083015160c0606084015261212860e08401826120b0565b905060608401516080840152608084015160a084015260a084015160c08401528091505092915050565b60006020828403121561216457600080fd5b8151610fb981611e6a565b6020808252600d908201526c2737ba1030b71030b236b4b71760991b604082015260600190565b6020808252600c908201526b4f6e6c792070656e64696e6760a01b604082015260600190565b60208082526010908201526f1a5b9d985b1a59081c5d595cdd081a5960821b604082015260600190565b634e487b7160e01b600052603260045260246000fd5b634e487b7160e01b600052601160045260246000fd5b600060018201612224576122246121fc565b5060010190565b8082028115828204841417610687576106876121fc565b80820180821115610687576106876121fc565b600181811c9082168061226957607f821691505b60208210810361228957634e487b7160e01b600052602260045260246000fd5b50919050565b601f8211156122d957600081815260208120601f850160051c810160208610156122b65750805b601f850160051c820191505b818110156122d5578281556001016122c2565b5050505b505050565b815167ffffffffffffffff8111156122f8576122f8611e96565b61230c816123068454612255565b8461228f565b602080601f83116001811461234157600084156123295750858301515b600019600386901b1c1916600185901b1785556122d5565b600085815260208120601f198616915b8281101561237057888601518255948401946001909101908401612351565b508582101561238e5787850151600019600388901b60f8161c191681555b5050505050600190811b01905550565b81810381811115610687576106876121fc565b6000604082840312156123c357600080fd5b6123cb611eac565b82516123d681611e26565b81526020928301519281019290925250919050565b60018060a01b038616815284602082015260a06040820152600061241260a08301866120b0565b606083019490945250608001529392505050565b60006020828403121561243857600080fd5b5051919050565b60006020828403121561245157600080fd5b8151610fb981611e26565b60006040828403121561246e57600080fd5b612476611eac565b82358152602083013560208201528091505092915050565b60008161249d5761249d6121fc565b50600019019056fea26469706673582212202b751ca4c9072a163bfca53f78bafa6a587585aeb3538c246ea351df375160ac64736f6c63430008130033",
    "linkReferences": {}
  },
  "methodIdentifiers": {
    "activeQuestsPerRole(uint256)": "a134eb60",
    "applyForAQuest(uint256)": "b699520f",
    "create(uint256,string,uint256,uint256)": "bd45a0a9",
    "createTask(uint256,uint256,string)": "82b35017",
    "deployer()": "d5f39488",
    "editQuest(uint256,uint256,string,uint256)": "9465120b",
    "getById(uint256)": "f4f4d237",
    "getTasksPerQuest(uint256)": "a4b986d8",
    "getTimeOfCompletion(address,uint256)": "d4010361",
    "getTotalQuests()": "7fc573d2",
    "hasCompletedAQuest(address,uint256)": "2b13d601",
    "hasCompletedQuestForRole(address,uint256)": "d4a13175",
    "isActive()": "22f3e2d4",
    "isOngoing(uint256)": "95ecc642",
    "isPending(uint256)": "ca8836d2",
    "moduleId()": "a1308f27",
    "novaAddress()": "89f12ed9",
    "onboardingPlugin()": "5bf14f2d",
    "owner()": "8da5cb5b",
    "pluginId()": "2fe7e441",
    "pluginRegistry()": "41dcea91",
    "removeTasks(uint256,(uint256,uint256)[])": "0b2c5834",
    "setActiveQuestPerRole(uint256,uint256)": "0d39c1ec",
    "setPluginId(uint256)": "02a4dca0",
    "setQuestState(bool,uint256)": "69748350",
    "taskToQuests(uint256,uint256)": "bda8768f",
    "withdrawFromAQuest(uint256)": "39a5449b"
  },
  "id": 78
}