{
  "abi": [
    {
      "inputs": [],
      "stateMutability": "nonpayable",
      "type": "constructor"
    },
    {
      "anonymous": false,
      "inputs": [
        {
          "indexed": false,
          "internalType": "address",
          "name": "addr",
          "type": "address"
        }
      ],
      "name": "AddressAllowed",
      "type": "event"
    },
    {
      "anonymous": false,
      "inputs": [
        {
          "indexed": false,
          "internalType": "address",
          "name": "member",
          "type": "address"
        },
        {
          "indexed": false,
          "internalType": "uint256",
          "name": "total",
          "type": "uint256"
        }
      ],
      "name": "InteractionIndexIncreased",
      "type": "event"
    },
    {
      "inputs": [
        {
          "internalType": "uint256",
          "name": "activityID",
          "type": "uint256"
        },
        {
          "internalType": "address",
          "name": "member",
          "type": "address"
        }
      ],
      "name": "addInteraction",
      "outputs": [],
      "stateMutability": "nonpayable",
      "type": "function"
    },
    {
      "inputs": [
        {
          "internalType": "address",
          "name": "addr",
          "type": "address"
        }
      ],
      "name": "allowAccess",
      "outputs": [],
      "stateMutability": "nonpayable",
      "type": "function"
    },
    {
      "inputs": [],
      "name": "dao",
      "outputs": [
        {
          "internalType": "contract IDAOAdmin",
          "name": "",
          "type": "address"
        }
      ],
      "stateMutability": "view",
      "type": "function"
    },
    {
      "inputs": [
        {
          "internalType": "uint256",
          "name": "interactionID",
          "type": "uint256"
        }
      ],
      "name": "getInteraction",
      "outputs": [
        {
          "components": [
            {
              "internalType": "address",
              "name": "member",
              "type": "address"
            },
            {
              "internalType": "uint256",
              "name": "taskID",
              "type": "uint256"
            },
            {
              "internalType": "address",
              "name": "contractAddress",
              "type": "address"
            }
          ],
          "internalType": "struct IInteraction.InteractionModel",
          "name": "",
          "type": "tuple"
        }
      ],
      "stateMutability": "view",
      "type": "function"
    },
    {
      "inputs": [
        {
          "internalType": "address",
          "name": "user",
          "type": "address"
        }
      ],
      "name": "getInteractionsIndexPerAddress",
      "outputs": [
        {
          "internalType": "uint256",
          "name": "",
          "type": "uint256"
        }
      ],
      "stateMutability": "view",
      "type": "function"
    }
  ],
  "bytecode": {
    "object": "0x608060405234801561001057600080fd5b50600480546001600160a01b0319163317905561059b806100326000396000f3fe608060405234801561001057600080fd5b50600436106100575760003560e01c80634162169f1461005c5780636f4885b51461008c578063a2501fe8146100c3578063b95adfce14610159578063c4a85bc11461016e575b600080fd5b60045461006f906001600160a01b031681565b6040516001600160a01b0390911681526020015b60405180910390f35b6100b561009a366004610492565b6001600160a01b031660009081526003602052604090205490565b604051908152602001610083565b6101296100d13660046104b6565b6040805160608082018352600080835260208084018290529284018190529384526002808352938390208351918201845280546001600160a01b03908116835260018201549383019390935290930154169082015290565b6040805182516001600160a01b039081168252602080850151908301529282015190921690820152606001610083565b61016c6101673660046104cf565b610181565b005b61016c61017c366004610492565b6102f9565b3360009081526001602052604090205460ff166101f15760405162461bcd60e51b8152602060048201526024808201527f4e6f7420616c6c6f77656420746f207472616e7366657220696e746572616374604482015263696f6e7360e01b60648201526084015b60405180910390fd5b604080516060810182526001600160a01b0383168152602081018490523391810191909152610224600080546001019055565b806002600061023260005490565b815260208082019290925260409081016000908120845181546001600160a01b03199081166001600160a01b0392831617835586860151600184015595840151600290920180549096169181169190911790945592851683526003909152812080549161029e836104ff565b90915550506001600160a01b038216600081815260036020908152604091829020548251938452908301527fc887608704f6b658625e6cdc3f620cd8d0729c8c4c9abd0171098159637bdf77910160405180910390a1505050565b60048054604051630935e01b60e21b815233928101929092526001600160a01b0316906324d7806c90602401602060405180830381865afa158015610342573d6000803e3d6000fd5b505050506040513d601f19601f820116820180604052508101906103669190610526565b806103e5575060048054604080516341dcea9160e01b8152905133936001600160a01b03909316926341dcea91928082019260209290918290030181865afa1580156103b6573d6000803e3d6000fd5b505050506040513d601f19601f820116820180604052508101906103da9190610548565b6001600160a01b0316145b61041f5760405162461bcd60e51b815260206004820152600b60248201526a139bdd08185b1b1bddd95960aa1b60448201526064016101e8565b6001600160a01b038116600081815260016020818152604092839020805460ff191690921790915590519182527f5d20d7597e8195aa92d4ad63482761cfbbe7c4afdef190f27182702924c9af77910160405180910390a150565b6001600160a01b038116811461048f57600080fd5b50565b6000602082840312156104a457600080fd5b81356104af8161047a565b9392505050565b6000602082840312156104c857600080fd5b5035919050565b600080604083850312156104e257600080fd5b8235915060208301356104f48161047a565b809150509250929050565b60006001820161051f57634e487b7160e01b600052601160045260246000fd5b5060010190565b60006020828403121561053857600080fd5b815180151581146104af57600080fd5b60006020828403121561055a57600080fd5b81516104af8161047a56fea26469706673582212200430b1faa79e72b87ff9274cfdc98631d659a6fca524a193e6e943aa4fc7442d64736f6c63430008130033",
    "linkReferences": {}
  },
  "methodIdentifiers": {
    "addInteraction(uint256,address)": "b95adfce",
    "allowAccess(address)": "c4a85bc1",
    "dao()": "4162169f",
    "getInteraction(uint256)": "a2501fe8",
    "getInteractionsIndexPerAddress(address)": "6f4885b5"
  },
  "id": 3
}