{
  "abi": [
    {
      "anonymous": false,
      "inputs": [
        {
          "indexed": false,
          "internalType": "address",
          "name": "member",
          "type": "address"
        }
      ],
      "name": "Joined",
      "type": "event"
    },
    {
      "inputs": [
        {
          "internalType": "address",
          "name": "",
          "type": "address"
        }
      ],
      "name": "isMember",
      "outputs": [
        {
          "internalType": "bool",
          "name": "",
          "type": "bool"
        }
      ],
      "stateMutability": "view",
      "type": "function"
    },
    {
      "inputs": [],
      "name": "join",
      "outputs": [],
      "stateMutability": "nonpayable",
      "type": "function"
    }
  ],
  "bytecode": {
    "object": "0x608060405234801561001057600080fd5b50610125806100206000396000f3fe6080604052348015600f57600080fd5b506004361060325760003560e01c8063a230c524146037578063b688a36314606b575b600080fd5b6057604236600460c1565b60006020819052908152604090205460ff1681565b604051901515815260200160405180910390f35b60716073565b005b3360008181526020818152604091829020805460ff1916600117905590519182527f7073afa60b48e833a1a66ebb442bc8e0d19e9f3cc05f34bdcd1da22c8d87f275910160405180910390a1565b60006020828403121560d257600080fd5b81356001600160a01b038116811460e857600080fd5b939250505056fea2646970667358221220389048654e93fc31102cc38f2487e06729f446943bfc6645da01d5ad4060bea464736f6c63430008130033",
    "linkReferences": {}
  },
  "methodIdentifiers": {
    "isMember(address)": "a230c524",
    "join()": "b688a363"
  },
  "id": 84
}