{
  "abi": [
    {
      "inputs": [
        {
          "internalType": "address",
          "name": "deployer",
          "type": "address"
        },
        {
          "internalType": "address",
          "name": "autIDAddr",
          "type": "address"
        },
        {
          "internalType": "address",
          "name": "daoTypesAddr",
          "type": "address"
        },
        {
          "internalType": "uint256",
          "name": "daoType",
          "type": "uint256"
        },
        {
          "internalType": "address",
          "name": "daoAddr",
          "type": "address"
        },
        {
          "internalType": "uint256",
          "name": "market",
          "type": "uint256"
        },
        {
          "internalType": "string",
          "name": "metadata",
          "type": "string"
        },
        {
          "internalType": "uint256",
          "name": "commitment",
          "type": "uint256"
        },
        {
          "internalType": "address",
          "name": "pluginRegistry",
          "type": "address"
        }
      ],
      "name": "deployDAOExpander",
      "outputs": [
        {
          "internalType": "address",
          "name": "_daoExpanderAddress",
          "type": "address"
        }
      ],
      "stateMutability": "nonpayable",
      "type": "function"
    }
  ],
  "bytecode": {
    "object": "0x608060405234801561001057600080fd5b50612bb5806100206000396000f3fe60806040523480156200001157600080fd5b50600436106200002e5760003560e01c80633270bdc21462000033575b600080fd5b6200004a62000044366004620000ef565b62000066565b6040516001600160a01b03909116815260200160405180910390f35b6000808b8b8b8b8b8b8b8b8b8b6040516200008190620000c4565b620000969a99989796959493929190620001e2565b604051809103906000f080158015620000b3573d6000803e3d6000fd5b509c9b505050505050505050505050565b612919806200026783390190565b80356001600160a01b0381168114620000ea57600080fd5b919050565b6000806000806000806000806000806101208b8d0312156200011057600080fd5b6200011b8b620000d2565b99506200012b60208c01620000d2565b98506200013b60408c01620000d2565b975060608b013596506200015260808c01620000d2565b955060a08b0135945060c08b013567ffffffffffffffff808211156200017757600080fd5b818d0191508d601f8301126200018c57600080fd5b8135818111156200019c57600080fd5b8e6020828501011115620001af57600080fd5b60208301965080955050505060e08b01359150620001d16101008c01620000d2565b90509295989b9194979a5092959850565b6001600160a01b038b811682528a81166020830152898116604083015260608201899052878116608083015260a0820187905261012060c08301819052820185905260009061014090868883860137600084880183015260e084019590955292909316610100820152601f909301601f19169092019091019897505050505050505056fe60806040523480156200001157600080fd5b50604051620029193803806200291983398101604081905262000034916200063f565b6001600160a01b038516620000905760405162461bcd60e51b815260206004820152601360248201527f4d697373696e672044414f20416464726573730000000000000000000000000060448201526064015b60405180910390fd5b6001600160a01b038716620000e85760405162461bcd60e51b815260206004820152601960248201527f4d697373696e672044414f205479706573206164647265737300000000000000604482015260640162000087565b604051634bcd303f60e11b8152600481018790526000906001600160a01b0389169063979a607e90602401602060405180830381865afa15801562000131573d6000803e3d6000fd5b505050506040513d601f19601f8201168201806040525081019062000157919062000775565b6001600160a01b031603620001af5760405162461bcd60e51b815260206004820152601760248201527f496e76616c6964206d656d626572736869702074797065000000000000000000604482015260640162000087565b604051634bcd303f60e11b8152600481018790526001600160a01b0388169063979a607e90602401602060405180830381865afa158015620001f5573d6000803e3d6000fd5b505050506040513d601f19601f820116820180604052508101906200021b919062000775565b6040516307358f4160e31b81526001600160a01b0387811660048301528b8116602483015291909116906339ac7a0890604401602060405180830381865afa1580156200026c573d6000803e3d6000fd5b505050506040513d601f19601f820116820180604052508101906200029291906200079a565b620002e05760405162461bcd60e51b815260206004820181905260248201527f41757449443a204e6f742061206d656d626572206f6620746869732044414f21604482015260640162000087565b6040805180820182528781526001600160a01b038781166020928301819052898455604180546001600160a01b031990811690921790558c82166000818152600d909452938320805460ff19166001908117909155600c805491820181559093527fdf6966c971051c3d54ec59162606531493a51404a002842f56009d7e5cf4a8c790920180548316909317909255604280549091169189169190911790556200038a84620003d5565b600080546001600160a01b0319166001600160a01b038a16179055620003b08262000461565b620003bb83620004eb565b620003c6816200056c565b5050505050505050506200094e565b600081118015620003e65750600481105b620004255760405162461bcd60e51b815260206004820152600e60248201526d1a5b9d985b1a59081b585c9ad95d60921b604482015260640162000087565b60328190556040518181527fed3f3ef79c893a1a183c59258a18224fe4f9dee870f486fce68ad3d3f26bff70906020015b60405180910390a150565b600081118015620004725750600b81105b620004b55760405162461bcd60e51b81526020600482015260126024820152711a5b9d985b1a590818dbdb5b5a5d1b595b9d60721b604482015260640162000087565b60288190556040518181527fb65d029b8a6c07cb00888825aac545b9b5c5c022683357f9d1ea8abf06dfdb469060200162000456565b60008151116200052c5760405162461bcd60e51b815260206004820152600b60248201526a1a5b9d985b1a59081d5c9b60aa1b604482015260640162000087565b601e6200053a82826200084d565b507f48674fffb03fee00a113cc146f3aa94a9720a4cb3839fbb855c436859d39a9778160405162000456919062000919565b6001600160a01b038116620005c45760405162461bcd60e51b815260206004820152601660248201527f696e76616c696420706c7567696e526567697374727900000000000000000000604482015260640162000087565b603c80546001600160a01b0319166001600160a01b0392909216919091179055565b80516001600160a01b0381168114620005fe57600080fd5b919050565b634e487b7160e01b600052604160045260246000fd5b60005b83811015620006365781810151838201526020016200061c565b50506000910152565b60008060008060008060008060006101208a8c0312156200065f57600080fd5b6200066a8a620005e6565b98506200067a60208b01620005e6565b97506200068a60408b01620005e6565b965060608a01519550620006a160808b01620005e6565b60a08b015160c08c015191965094506001600160401b0380821115620006c657600080fd5b818c0191508c601f830112620006db57600080fd5b815181811115620006f057620006f062000603565b604051601f8201601f19908116603f011681019083821181831017156200071b576200071b62000603565b816040528281528f60208487010111156200073557600080fd5b6200074883602083016020880162000619565b809750505050505060e08a01519150620007666101008b01620005e6565b90509295985092959850929598565b6000602082840312156200078857600080fd5b6200079382620005e6565b9392505050565b600060208284031215620007ad57600080fd5b815180151581146200079357600080fd5b600181811c90821680620007d357607f821691505b602082108103620007f457634e487b7160e01b600052602260045260246000fd5b50919050565b601f8211156200084857600081815260208120601f850160051c81016020861015620008235750805b601f850160051c820191505b8181101562000844578281556001016200082f565b5050505b505050565b81516001600160401b0381111562000869576200086962000603565b62000881816200087a8454620007be565b84620007fa565b602080601f831160018114620008b95760008415620008a05750858301515b600019600386901b1c1916600185901b17855562000844565b600085815260208120601f198616915b82811015620008ea57888601518255948401946001909101908401620008c9565b5085821015620009095787850151600019600388901b60f8161c191681555b5050505050600190811b01905550565b60208152600082518060208401526200093a81604085016020870162000619565b601f01601f19169190910160400192915050565b611fbb806200095e6000396000f3fe608060405234801561001057600080fd5b50600436106101c45760003560e01c806369130c8d116100f95780639c54df6411610097578063be9cd05211610071578063be9cd052146103c1578063cd29c71a146103d4578063d103449c146103e9578063db83814e146103fc57600080fd5b80639c54df6414610378578063a230c5241461038b578063b5a8a3a1146103ae57600080fd5b806380f55605116100d357806380f5560514610338578063810e8c041461034157806388098e3a146103545780638e99076a1461036557600080fd5b806369130c8d1461030a578063704802751461031d5780637c0f6b351461033057600080fd5b806324d7806c116101665780633b4da69f116101405780633b4da69f146102be57806341dcea91146102d15780635daf08ca146102e457806368839d28146102f757600080fd5b806324d7806c1461027e5780632a79c611146102a157806331ae450b146102a957600080fd5b806311aee380116101a257806311aee3801461021957806314bfd6d01461022b5780631785f53c14610256578063206110db1461026957600080fd5b806303ffe330146101c957806310972e90146101f15780631130630c14610204575b600080fd5b6101dc6101d73660046118e4565b61044f565b60405190151581526020015b60405180910390f35b6101dc6101ff366004611910565b610659565b6102176102123660046119c1565b6106af565b005b600a545b6040519081526020016101e8565b61023e610239366004611910565b6106f3565b6040516001600160a01b0390911681526020016101e8565b610217610264366004611a41565b61071d565b61027161083f565b6040516101e89190611ab5565b6101dc61028c366004611a41565b600d6020526000908152604090205460ff1681565b60285461021d565b6102b1610918565b6040516101e89190611b17565b6102176102cc3660046118e4565b61097a565b603c5461023e906001600160a01b031681565b61023e6102f2366004611910565b610a13565b6101dc6103053660046119c1565b610a23565b610217610318366004611910565b610aa2565b61021761032b366004611a41565b610ada565b6102b1610ccf565b61021d60325481565b61021761034f3660046119c1565b610d2f565b6000546001600160a01b031661023e565b6101dc610373366004611a41565b610d67565b6102b1610386366004611b64565b610e4e565b6101dc610399366004611a41565b600b6020526000908152604090205460ff1681565b6102176103bc366004611a41565b61104b565b6102176103cf366004611910565b61109c565b6103dc6110d4565b6040516101e89190611c16565b6102176103f73660046119c1565b611162565b604080518082018252600080825260209182015281518083018352915482526041546001600160a01b03169082015260408051825181526020928301516001600160a01b031692810192909252016101e8565b6043546000906001600160a01b03166105815761046b83610d67565b8061057a57506043546001600160a01b0316158015906104fd5750604360009054906101000a90046001600160a01b03166001600160a01b03166322f3e2d46040518163ffffffff1660e01b8152600401602060405180830381865afa1580156104d9573d6000803e3d6000fd5b505050506040513d601f19601f820116820180604052508101906104fd9190611c29565b801561057a5750604354604051634f2b51c760e01b81526001600160a01b0385811660048301526024820185905290911690634f2b51c7906044015b602060405180830381865afa158015610556573d6000803e3d6000fd5b505050506040513d601f19601f8201168201806040525081019061057a9190611c29565b9050610653565b6043546001600160a01b03161580159061060d5750604360009054906101000a90046001600160a01b03166001600160a01b03166322f3e2d46040518163ffffffff1660e01b8152600401602060405180830381865afa1580156105e9573d6000803e3d6000fd5b505050506040513d601f19601f8201168201806040525081019061060d9190611c29565b1561061a57506000610653565b604354604051634f2b51c760e01b81526001600160a01b0385811660048301526024820185905290911690634f2b51c790604401610539565b92915050565b6000805b603d548110156106a65782603d828154811061067b5761067b611c4b565b9060005260206000200154036106945750600192915050565b8061069e81611c77565b91505061065d565b50600092915050565b336000908152600d602052604090205460ff166106e75760405162461bcd60e51b81526004016106de90611c90565b60405180910390fd5b6106f08161119a565b50565b600c818154811061070357600080fd5b6000918252602090912001546001600160a01b0316905081565b336000908152600d602052604090205460ff1661074c5760405162461bcd60e51b81526004016106de90611c90565b60005b600c548110156107e657816001600160a01b0316600c828154811061077657610776611c4b565b6000918252602090912001546001600160a01b0316036107d4576000600c82815481106107a5576107a5611c4b565b9060005260206000200160006101000a8154816001600160a01b0302191690836001600160a01b031602179055505b806107de81611c77565b91505061074f565b506001600160a01b0381166000818152600d6020908152604091829020805460ff1916905590519182527ffa8ae95b9a4f666c3b5f27d11b5c2b9fe1045279f674e7a78ca8b087cba3802591015b60405180910390a150565b60606014805480602002602001604051908101604052809291908181526020016000905b8282101561090f57838290600052602060002001805461088290611cb7565b80601f01602080910402602001604051908101604052809291908181526020018280546108ae90611cb7565b80156108fb5780601f106108d0576101008083540402835291602001916108fb565b820191906000526020600020905b8154815290600101906020018083116108de57829003601f168201915b505050505081526020019060010190610863565b50505050905090565b6060600c80548060200260200160405190810160405280929190818152602001828054801561097057602002820191906000526020600020905b81546001600160a01b03168152600190910190602001808311610952575b5050505050905090565b6000546001600160a01b031633146109c15760405162461bcd60e51b815260206004820152600a60248201526913db9b1e48105d5d125160b21b60448201526064016106de565b6109cb828261044f565b610a055760405162461bcd60e51b815260206004820152600b60248201526a1b9bdd08185b1b1bddd95960aa1b60448201526064016106de565b610a0f8282611215565b5050565b600a818154811061070357600080fd5b6014546000908103610a3757506000919050565b81516020808401919091206000818152601590925260409091205415610a605750600192915050565b806014600081548110610a7557610a75611c4b565b90600052602060002001604051610a8c9190611cf1565b6040518091039020036106a65750600192915050565b336000908152600d602052604090205460ff16610ad15760405162461bcd60e51b81526004016106de90611c90565b6106f081611348565b336000908152600d602052604090205460ff16610b095760405162461bcd60e51b81526004016106de90611c90565b6001600160a01b0381166000908152600b602052604090205460ff16158015610bfd5750306001600160a01b03166341dcea916040518163ffffffff1660e01b8152600401602060405180830381865afa158015610b6b573d6000803e3d6000fd5b505050506040513d601f19601f82011682018060405250810190610b8f9190611d67565b6040516328e26caf60e11b81526001600160a01b03838116600483015291909116906351c4d95e90602401602060405180830381865afa158015610bd7573d6000803e3d6000fd5b505050506040513d601f19601f82011682018060405250810190610bfb9190611d84565b155b15610c395760405162461bcd60e51b815260206004820152600c60248201526b2737ba10309036b2b6b132b960a11b60448201526064016106de565b6001600160a01b0381166000818152600d60209081526040808320805460ff19166001908117909155600c805491820181559093527fdf6966c971051c3d54ec59162606531493a51404a002842f56009d7e5cf4a8c790920180546001600160a01b0319168417905590519182527fa06b993f17e63959ef40ec8755fc98020c50e9d2794ce5fc0886a7792a9fbaec9101610834565b6060600a805480602002602001604051908101604052809291908181526020018280548015610970576020028201919060005260206000209081546001600160a01b03168152600190910190602001808311610952575050505050905090565b336000908152600d602052604090205460ff16610d5e5760405162461bcd60e51b81526004016106de90611c90565b6106f0816114d5565b604254604080549051634bcd303f60e11b815260048101919091526000916001600160a01b03169063979a607e90602401602060405180830381865afa158015610db5573d6000803e3d6000fd5b505050506040513d601f19601f82011682018060405250810190610dd99190611d67565b6041546040516307358f4160e31b81526001600160a01b03918216600482015284821660248201529116906339ac7a0890604401602060405180830381865afa158015610e2a573d6000803e3d6000fd5b505050506040513d601f19601f820116820180604052508101906106539190611c29565b336000908152600d602052604090205460609060ff16610e805760405162461bcd60e51b81526004016106de90611c90565b60005b825181101561104457600b6000848381518110610ea257610ea2611c4b565b6020908102919091018101516001600160a01b031682528101919091526040016000205460ff16610ef457828181518110610edf57610edf611c4b565b60006020918202929092010152600101610e83565b600d6000848381518110610f0a57610f0a611c4b565b6020908102919091018101516001600160a01b031682528101919091526040016000205460ff1661103c57600c838281518110610f4957610f49611c4b565b60209081029190910181015182546001808201855560009485529284200180546001600160a01b0319166001600160a01b0390921691909117905584519091600d91869085908110610f9d57610f9d611c4b565b60200260200101516001600160a01b03166001600160a01b0316815260200190815260200160002060006101000a81548160ff0219169083151502179055507fa06b993f17e63959ef40ec8755fc98020c50e9d2794ce5fc0886a7792a9fbaec83828151811061100f5761100f611c4b565b602002602001015160405161103391906001600160a01b0391909116815260200190565b60405180910390a15b600101610e83565b5090919050565b336000908152600d602052604090205460ff1661107a5760405162461bcd60e51b81526004016106de90611c90565b604380546001600160a01b0319166001600160a01b0392909216919091179055565b336000908152600d602052604090205460ff166110cb5760405162461bcd60e51b81526004016106de90611c90565b6106f0816116d5565b601e80546110e190611cb7565b80601f016020809104026020016040519081016040528092919081815260200182805461110d90611cb7565b801561115a5780601f1061112f5761010080835404028352916020019161115a565b820191906000526020600020905b81548152906001019060200180831161113d57829003601f168201915b505050505081565b336000908152600d602052604090205460ff166111915760405162461bcd60e51b81526004016106de90611c90565b6106f08161175b565b60008151116111d95760405162461bcd60e51b815260206004820152600b60248201526a1a5b9d985b1a59081d5c9b60aa1b60448201526064016106de565b601e6111e58282611dec565b507f48674fffb03fee00a113cc146f3aa94a9720a4cb3839fbb855c436859d39a977816040516108349190611c16565b6000546001600160a01b0316331461125c5760405162461bcd60e51b815260206004820152600a60248201526913db9b1e48105d5d125160b21b60448201526064016106de565b6001600160a01b0382166000908152600b602052604090205460ff16156112b85760405162461bcd60e51b815260206004820152601060248201526f20b63932b0b23c90309036b2b6b132b960811b60448201526064016106de565b6001600160a01b0382166000818152600b6020526040808220805460ff19166001908117909155600a8054918201815583527fc65a7bb8d6351c1cf70c95a316cc6a92839c986682d98bc35f958f4883f9d2a80180546001600160a01b03191690931790925590517f94d9b0a056867efca93631b338c7fde3befc3f54db36b90b8456b069385c30be9190a15050565b603c5460408051631055995d60e31b815290516000926001600160a01b0316916382accae89160048083019260209291908290030181865afa158015611392573d6000803e3d6000fd5b505050506040513d601f19601f820116820180604052508101906113b69190611d67565b6040516339076b2160e11b8152600481018490529091506000906001600160a01b0383169063720ed64290602401600060405180830381865afa158015611401573d6000803e3d6000fd5b505050506040513d6000823e601f3d908101601f191682016040526114299190810190611eac565b5151116114695760405162461bcd60e51b815260206004820152600e60248201526d696e76616c6964206d6f64756c6560901b60448201526064016106de565b603d80546001810182556000919091527fece66cfdbd22e3f37d348a3d8e19074452862cd65fd4b9a11f0336d1ac6d1dc3018290556040518281527fc1866ccaad33ac161f17d9db7a528f0c819a376e1cad17ba2d5c9b49a7eba2cd9060200160405180910390a15050565b6114de81610a23565b61151d5760405162461bcd60e51b815260206004820152601060248201526f1d5c9b08191bd95cdb9d08195e1a5cdd60821b60448201526064016106de565b80516020808301919091206000818152601590925260409091205460145461154790600190611f5c565b811461165857601480546000919061156190600190611f5c565b8154811061157157611571611c4b565b90600052602060002001805461158690611cb7565b80601f01602080910402602001604051908101604052809291908181526020018280546115b290611cb7565b80156115ff5780601f106115d4576101008083540402835291602001916115ff565b820191906000526020600020905b8154815290600101906020018083116115e257829003601f168201915b50505050509050600081805190602001209050826015600083815260200190815260200160002081905550816014848154811061163e5761163e611c4b565b9060005260206000200190816116549190611dec565b5050505b601480548061166957611669611f6f565b6001900381819060005260206000200160006116859190611881565b905560008281526015602052604080822091909155517f906b87aebf1e5cc40a1cebd6811c88addf04309f8c8ce71c7d6449d343e4ad09906116c8908590611c16565b60405180910390a1505050565b6000811180156116e55750600b81105b6117265760405162461bcd60e51b81526020600482015260126024820152711a5b9d985b1a590818dbdb5b5a5d1b595b9d60721b60448201526064016106de565b60288190556040518181527fb65d029b8a6c07cb00888825aac545b9b5c5c022683357f9d1ea8abf06dfdb4690602001610834565b80516020820120601454600090156117c3576000828152601560205260409020541515806117ba575081601460008154811061179957611799611c4b565b906000526020600020016040516117b09190611cf1565b6040518091039020145b156117c3575060015b80156118065760405162461bcd60e51b815260206004820152601260248201527175726c20616c72656164792065786973747360701b60448201526064016106de565b601480546000848152601560205260408120829055600182018355919091527fce6d7b5282bd9a3661ae061feed1dbda4e52ab073b1f9285be6e155d9c38d4ec016118518482611dec565b507f21d5cca3f840791ade736f51501810c14b8b01791ac4357713ed763ccbbaf3a9836040516116c89190611c16565b50805461188d90611cb7565b6000825580601f1061189d575050565b601f0160209004906000526020600020908101906106f091905b808211156118cb57600081556001016118b7565b5090565b6001600160a01b03811681146106f057600080fd5b600080604083850312156118f757600080fd5b8235611902816118cf565b946020939093013593505050565b60006020828403121561192257600080fd5b5035919050565b634e487b7160e01b600052604160045260246000fd5b6040805190810167ffffffffffffffff8111828210171561196257611962611929565b60405290565b604051601f8201601f1916810167ffffffffffffffff8111828210171561199157611991611929565b604052919050565b600067ffffffffffffffff8211156119b3576119b3611929565b50601f01601f191660200190565b6000602082840312156119d357600080fd5b813567ffffffffffffffff8111156119ea57600080fd5b8201601f810184136119fb57600080fd5b8035611a0e611a0982611999565b611968565b818152856020838501011115611a2357600080fd5b81602084016020830137600091810160200191909152949350505050565b600060208284031215611a5357600080fd5b8135611a5e816118cf565b9392505050565b60005b83811015611a80578181015183820152602001611a68565b50506000910152565b60008151808452611aa1816020860160208601611a65565b601f01601f19169290920160200192915050565b6000602080830181845280855180835260408601915060408160051b870101925083870160005b82811015611b0a57603f19888603018452611af8858351611a89565b94509285019290850190600101611adc565b5092979650505050505050565b6020808252825182820181905260009190848201906040850190845b81811015611b585783516001600160a01b031683529284019291840191600101611b33565b50909695505050505050565b60006020808385031215611b7757600080fd5b823567ffffffffffffffff80821115611b8f57600080fd5b818501915085601f830112611ba357600080fd5b813581811115611bb557611bb5611929565b8060051b9150611bc6848301611968565b8181529183018401918481019088841115611be057600080fd5b938501935b83851015611c0a5784359250611bfa836118cf565b8282529385019390850190611be5565b98975050505050505050565b602081526000611a5e6020830184611a89565b600060208284031215611c3b57600080fd5b81518015158114611a5e57600080fd5b634e487b7160e01b600052603260045260246000fd5b634e487b7160e01b600052601160045260246000fd5b600060018201611c8957611c89611c61565b5060010190565b6020808252600d908201526c4e6f7420616e2061646d696e2160981b604082015260600190565b600181811c90821680611ccb57607f821691505b602082108103611ceb57634e487b7160e01b600052602260045260246000fd5b50919050565b6000808354611cff81611cb7565b60018281168015611d175760018114611d2c57611d5b565b60ff1984168752821515830287019450611d5b565b8760005260208060002060005b85811015611d525781548a820152908401908201611d39565b50505082870194505b50929695505050505050565b600060208284031215611d7957600080fd5b8151611a5e816118cf565b600060208284031215611d9657600080fd5b5051919050565b601f821115611de757600081815260208120601f850160051c81016020861015611dc45750805b601f850160051c820191505b81811015611de357828155600101611dd0565b5050505b505050565b815167ffffffffffffffff811115611e0657611e06611929565b611e1a81611e148454611cb7565b84611d9d565b602080601f831160018114611e4f5760008415611e375750858301515b600019600386901b1c1916600185901b178555611de3565b600085815260208120601f198616915b82811015611e7e57888601518255948401946001909101908401611e5f565b5085821015611e9c5787850151600019600388901b60f8161c191681555b5050505050600190811b01905550565b60006020808385031215611ebf57600080fd5b825167ffffffffffffffff80821115611ed757600080fd5b9084019060408287031215611eeb57600080fd5b611ef361193f565b825182811115611f0257600080fd5b83019150601f82018713611f1557600080fd5b8151611f23611a0982611999565b8181528886838601011115611f3757600080fd5b611f4682878301888701611a65565b8252509183015192820192909252949350505050565b8181038181111561065357610653611c61565b634e487b7160e01b600052603160045260246000fdfea2646970667358221220e130ee116820bf6e251e385c7b8e0f8fc8d1ed06304da4e75142e137c813f29264736f6c63430008130033a2646970667358221220e56034525c27b31ffb3dc4f7da864e8ccf25fa56ca5631af4b17983077873e8164736f6c63430008130033",
    "linkReferences": {}
  },
  "methodIdentifiers": {
    "deployDAOExpander(address,address,address,uint256,address,uint256,string,uint256,address)": "3270bdc2"
  },
  "id": 28
}