{
  "abi": [
    {
      "inputs": [
        {
          "internalType": "address",
          "name": "token_",
          "type": "address"
        }
      ],
      "stateMutability": "nonpayable",
      "type": "constructor"
    },
    {
      "inputs": [],
      "name": "token",
      "outputs": [
        {
          "internalType": "contract IMiniMeToken",
          "name": "",
          "type": "address"
        }
      ],
      "stateMutability": "view",
      "type": "function"
    }
  ],
  "bytecode": {
    "object": "0x608060405234801561001057600080fd5b5060405161012338038061012383398101604081905261002f91610054565b600080546001600160a01b0319166001600160a01b0392909216919091179055610084565b60006020828403121561006657600080fd5b81516001600160a01b038116811461007d57600080fd5b9392505050565b6091806100926000396000f3fe6080604052348015600f57600080fd5b506004361060285760003560e01c8063fc0c546a14602d575b600080fd5b600054603f906001600160a01b031681565b6040516001600160a01b03909116815260200160405180910390f3fea264697066735822122086aceddd08933968fafcf8b14bc924ae82cafba3fa077a338acf33356f934a7e64736f6c63430008130033",
    "linkReferences": {}
  },
  "methodIdentifiers": {
    "token()": "fc0c546a"
  },
  "id": 55
}