{
  "abi": [
    {
      "inputs": [
        {
          "internalType": "address",
          "name": "token_",
          "type": "address"
        }
      ],
      "stateMutability": "nonpayable",
      "type": "constructor"
    },
    {
      "inputs": [],
      "name": "mintRole",
      "outputs": [
        {
          "internalType": "bytes32",
          "name": "",
          "type": "bytes32"
        }
      ],
      "stateMutability": "pure",
      "type": "function"
    },
    {
      "inputs": [],
      "name": "token",
      "outputs": [
        {
          "internalType": "contract IMiniMeToken",
          "name": "",
          "type": "address"
        }
      ],
      "stateMutability": "view",
      "type": "function"
    }
  ],
  "bytecode": {
    "object": "0x608060405234801561001057600080fd5b5060405161015b38038061015b83398101604081905261002f91610054565b600080546001600160a01b0319166001600160a01b0392909216919091179055610084565b60006020828403121561006657600080fd5b81516001600160a01b038116811461007d57600080fd5b9392505050565b60c9806100926000396000f3fe6080604052348015600f57600080fd5b506004361060325760003560e01c806332241eeb146037578063fc0c546a14606a575b600080fd5b6040517f154c00819833dac601ee5ddded6fda79d9d8b506b911b3dbd54cdb95fe6c368681526020015b60405180910390f35b600054607c906001600160a01b031681565b6040516001600160a01b039091168152602001606156fea264697066735822122001e0178e3e40cbf5223dad4c2e72b16fb2ae8236e513aab66b22173ccc8f738964736f6c63430008130033",
    "linkReferences": {}
  },
  "methodIdentifiers": {
    "mintRole()": "32241eeb",
    "token()": "fc0c546a"
  },
  "id": 49
}