{
  "abi": [
    {
      "inputs": [
        {
          "internalType": "address",
          "name": "_modulesRegistry",
          "type": "address"
        }
      ],
      "stateMutability": "nonpayable",
      "type": "constructor"
    },
    {
      "anonymous": false,
      "inputs": [
        {
          "indexed": true,
          "internalType": "address",
          "name": "owner",
          "type": "address"
        },
        {
          "indexed": true,
          "internalType": "address",
          "name": "approved",
          "type": "address"
        },
        {
          "indexed": true,
          "internalType": "uint256",
          "name": "tokenId",
          "type": "uint256"
        }
      ],
      "name": "Approval",
      "type": "event"
    },
    {
      "anonymous": false,
      "inputs": [
        {
          "indexed": true,
          "internalType": "address",
          "name": "owner",
          "type": "address"
        },
        {
          "indexed": true,
          "internalType": "address",
          "name": "operator",
          "type": "address"
        },
        {
          "indexed": false,
          "internalType": "bool",
          "name": "approved",
          "type": "bool"
        }
      ],
      "name": "ApprovalForAll",
      "type": "event"
    },
    {
      "anonymous": false,
      "inputs": [
        {
          "indexed": false,
          "internalType": "address",
          "name": "newReputationAlgo",
          "type": "address"
        },
        {
          "indexed": false,
          "internalType": "address",
          "name": "previousAddress",
          "type": "address"
        }
      ],
      "name": "DefaultLRAlgoChanged",
      "type": "event"
    },
    {
      "anonymous": false,
      "inputs": [
        {
          "indexed": true,
          "internalType": "address",
          "name": "previousOwner",
          "type": "address"
        },
        {
          "indexed": true,
          "internalType": "address",
          "name": "newOwner",
          "type": "address"
        }
      ],
      "name": "OwnershipTransferred",
      "type": "event"
    },
    {
      "anonymous": false,
      "inputs": [
        {
          "indexed": true,
          "internalType": "uint256",
          "name": "tokenId",
          "type": "uint256"
        },
        {
          "indexed": true,
          "internalType": "uint256",
          "name": "pluginTypeId",
          "type": "uint256"
        },
        {
          "indexed": true,
          "internalType": "address",
          "name": "Nova",
          "type": "address"
        }
      ],
      "name": "PluginAddedToNova",
      "type": "event"
    },
    {
      "anonymous": false,
      "inputs": [
        {
          "indexed": true,
          "internalType": "uint256",
          "name": "pluginTypeId",
          "type": "uint256"
        }
      ],
      "name": "PluginDefinitionAdded",
      "type": "event"
    },
    {
      "anonymous": false,
      "inputs": [
        {
          "indexed": true,
          "internalType": "uint256",
          "name": "tokenId",
          "type": "uint256"
        },
        {
          "indexed": true,
          "internalType": "address",
          "name": "pluginAddress",
          "type": "address"
        }
      ],
      "name": "PluginRegistered",
      "type": "event"
    },
    {
      "anonymous": false,
      "inputs": [
        {
          "indexed": true,
          "internalType": "address",
          "name": "from",
          "type": "address"
        },
        {
          "indexed": true,
          "internalType": "address",
          "name": "to",
          "type": "address"
        },
        {
          "indexed": true,
          "internalType": "uint256",
          "name": "tokenId",
          "type": "uint256"
        }
      ],
      "name": "Transfer",
      "type": "event"
    },
    {
      "inputs": [],
      "name": "_numPluginDefinitions",
      "outputs": [
        {
          "internalType": "uint256",
          "name": "",
          "type": "uint256"
        }
      ],
      "stateMutability": "view",
      "type": "function"
    },
    {
      "inputs": [],
      "name": "_numPluginsMinted",
      "outputs": [
        {
          "internalType": "uint256",
          "name": "",
          "type": "uint256"
        }
      ],
      "stateMutability": "view",
      "type": "function"
    },
    {
      "inputs": [
        {
          "internalType": "address payable",
          "name": "creator",
          "type": "address"
        },
        {
          "internalType": "string",
          "name": "metadataURI",
          "type": "string"
        },
        {
          "internalType": "uint256",
          "name": "price",
          "type": "uint256"
        },
        {
          "internalType": "bool",
          "name": "canBeStandalone",
          "type": "bool"
        },
        {
          "internalType": "uint256[]",
          "name": "moduleDependencies",
          "type": "uint256[]"
        }
      ],
      "name": "addPluginDefinition",
      "outputs": [
        {
          "internalType": "uint256",
          "name": "pluginDefinitionId",
          "type": "uint256"
        }
      ],
      "stateMutability": "nonpayable",
      "type": "function"
    },
    {
      "inputs": [
        {
          "internalType": "address",
          "name": "pluginAddress",
          "type": "address"
        },
        {
          "internalType": "uint256",
          "name": "pluginDefinitionId",
          "type": "uint256"
        }
      ],
      "name": "addPluginToNova",
      "outputs": [],
      "stateMutability": "payable",
      "type": "function"
    },
    {
      "inputs": [
        {
          "internalType": "address",
          "name": "to",
          "type": "address"
        },
        {
          "internalType": "uint256",
          "name": "tokenId",
          "type": "uint256"
        }
      ],
      "name": "approve",
      "outputs": [],
      "stateMutability": "nonpayable",
      "type": "function"
    },
    {
      "inputs": [
        {
          "internalType": "address",
          "name": "owner",
          "type": "address"
        }
      ],
      "name": "balanceOf",
      "outputs": [
        {
          "internalType": "uint256",
          "name": "",
          "type": "uint256"
        }
      ],
      "stateMutability": "view",
      "type": "function"
    },
    {
      "inputs": [],
      "name": "defaultLRAddr",
      "outputs": [
        {
          "internalType": "address",
          "name": "",
          "type": "address"
        }
      ],
      "stateMutability": "view",
      "type": "function"
    },
    {
      "inputs": [
        {
          "internalType": "uint256",
          "name": "pluginDefinitionId",
          "type": "uint256"
        },
        {
          "internalType": "string",
          "name": "url",
          "type": "string"
        }
      ],
      "name": "editPluginDefinitionMetadata",
      "outputs": [],
      "stateMutability": "nonpayable",
      "type": "function"
    },
    {
      "inputs": [],
      "name": "feeBase1000",
      "outputs": [
        {
          "internalType": "uint256",
          "name": "",
          "type": "uint256"
        }
      ],
      "stateMutability": "view",
      "type": "function"
    },
    {
      "inputs": [],
      "name": "feeReciever",
      "outputs": [
        {
          "internalType": "address payable",
          "name": "",
          "type": "address"
        }
      ],
      "stateMutability": "view",
      "type": "function"
    },
    {
      "inputs": [
        {
          "internalType": "uint256",
          "name": "tokenId",
          "type": "uint256"
        }
      ],
      "name": "getApproved",
      "outputs": [
        {
          "internalType": "address",
          "name": "",
          "type": "address"
        }
      ],
      "stateMutability": "view",
      "type": "function"
    },
    {
      "inputs": [
        {
          "internalType": "uint256",
          "name": "pluginDefinitionId",
          "type": "uint256"
        }
      ],
      "name": "getDependencyModulesForPlugin",
      "outputs": [
        {
          "internalType": "uint256[]",
          "name": "",
          "type": "uint256[]"
        }
      ],
      "stateMutability": "view",
      "type": "function"
    },
    {
      "inputs": [
        {
          "internalType": "address",
          "name": "pluginAddress",
          "type": "address"
        }
      ],
      "name": "getOwnerOfPlugin",
      "outputs": [
        {
          "internalType": "address",
          "name": "",
          "type": "address"
        }
      ],
      "stateMutability": "view",
      "type": "function"
    },
    {
      "inputs": [
        {
          "internalType": "address",
          "name": "Nova",
          "type": "address"
        }
      ],
      "name": "getPluginIdsByNova",
      "outputs": [
        {
          "internalType": "uint256[]",
          "name": "",
          "type": "uint256[]"
        }
      ],
      "stateMutability": "view",
      "type": "function"
    },
    {
      "inputs": [
        {
          "internalType": "uint256",
          "name": "tokenId",
          "type": "uint256"
        }
      ],
      "name": "getPluginInstanceByTokenId",
      "outputs": [
        {
          "components": [
            {
              "internalType": "address",
              "name": "pluginAddress",
              "type": "address"
            },
            {
              "internalType": "uint256",
              "name": "pluginDefinitionId",
              "type": "uint256"
            }
          ],
          "internalType": "struct IPluginRegistry.PluginInstance",
          "name": "",
          "type": "tuple"
        }
      ],
      "stateMutability": "view",
      "type": "function"
    },
    {
      "inputs": [
        {
          "internalType": "address",
          "name": "owner",
          "type": "address"
        },
        {
          "internalType": "address",
          "name": "operator",
          "type": "address"
        }
      ],
      "name": "isApprovedForAll",
      "outputs": [
        {
          "internalType": "bool",
          "name": "",
          "type": "bool"
        }
      ],
      "stateMutability": "view",
      "type": "function"
    },
    {
      "inputs": [],
      "name": "modulesRegistry",
      "outputs": [
        {
          "internalType": "address",
          "name": "",
          "type": "address"
        }
      ],
      "stateMutability": "view",
      "type": "function"
    },
    {
      "inputs": [],
      "name": "name",
      "outputs": [
        {
          "internalType": "string",
          "name": "",
          "type": "string"
        }
      ],
      "stateMutability": "view",
      "type": "function"
    },
    {
      "inputs": [],
      "name": "oracleAddress",
      "outputs": [
        {
          "internalType": "address",
          "name": "",
          "type": "address"
        }
      ],
      "stateMutability": "view",
      "type": "function"
    },
    {
      "inputs": [],
      "name": "owner",
      "outputs": [
        {
          "internalType": "address",
          "name": "",
          "type": "address"
        }
      ],
      "stateMutability": "view",
      "type": "function"
    },
    {
      "inputs": [
        {
          "internalType": "uint256",
          "name": "tokenId",
          "type": "uint256"
        }
      ],
      "name": "ownerOf",
      "outputs": [
        {
          "internalType": "address",
          "name": "",
          "type": "address"
        }
      ],
      "stateMutability": "view",
      "type": "function"
    },
    {
      "inputs": [
        {
          "internalType": "uint256",
          "name": "",
          "type": "uint256"
        }
      ],
      "name": "pluginDefinitionsById",
      "outputs": [
        {
          "internalType": "string",
          "name": "metadataURI",
          "type": "string"
        },
        {
          "internalType": "uint256",
          "name": "price",
          "type": "uint256"
        },
        {
          "internalType": "address payable",
          "name": "creator",
          "type": "address"
        },
        {
          "internalType": "bool",
          "name": "active",
          "type": "bool"
        },
        {
          "internalType": "bool",
          "name": "canBeStandalone",
          "type": "bool"
        }
      ],
      "stateMutability": "view",
      "type": "function"
    },
    {
      "inputs": [
        {
          "internalType": "address",
          "name": "",
          "type": "address"
        },
        {
          "internalType": "uint256",
          "name": "",
          "type": "uint256"
        }
      ],
      "name": "pluginDefinitionsInstalledByNova",
      "outputs": [
        {
          "internalType": "bool",
          "name": "",
          "type": "bool"
        }
      ],
      "stateMutability": "view",
      "type": "function"
    },
    {
      "inputs": [
        {
          "internalType": "uint256",
          "name": "",
          "type": "uint256"
        }
      ],
      "name": "pluginInstanceByTokenId",
      "outputs": [
        {
          "internalType": "address",
          "name": "pluginAddress",
          "type": "address"
        },
        {
          "internalType": "uint256",
          "name": "pluginDefinitionId",
          "type": "uint256"
        }
      ],
      "stateMutability": "view",
      "type": "function"
    },
    {
      "inputs": [],
      "name": "renounceOwnership",
      "outputs": [],
      "stateMutability": "nonpayable",
      "type": "function"
    },
    {
      "inputs": [
        {
          "internalType": "address",
          "name": "from",
          "type": "address"
        },
        {
          "internalType": "address",
          "name": "to",
          "type": "address"
        },
        {
          "internalType": "uint256",
          "name": "tokenId",
          "type": "uint256"
        }
      ],
      "name": "safeTransferFrom",
      "outputs": [],
      "stateMutability": "nonpayable",
      "type": "function"
    },
    {
      "inputs": [
        {
          "internalType": "address",
          "name": "from",
          "type": "address"
        },
        {
          "internalType": "address",
          "name": "to",
          "type": "address"
        },
        {
          "internalType": "uint256",
          "name": "tokenId",
          "type": "uint256"
        },
        {
          "internalType": "bytes",
          "name": "data",
          "type": "bytes"
        }
      ],
      "name": "safeTransferFrom",
      "outputs": [],
      "stateMutability": "nonpayable",
      "type": "function"
    },
    {
      "inputs": [
        {
          "internalType": "uint256",
          "name": "pluginDefinitionId",
          "type": "uint256"
        },
        {
          "internalType": "bool",
          "name": "newActive",
          "type": "bool"
        }
      ],
      "name": "setActive",
      "outputs": [],
      "stateMutability": "nonpayable",
      "type": "function"
    },
    {
      "inputs": [
        {
          "internalType": "address",
          "name": "operator",
          "type": "address"
        },
        {
          "internalType": "bool",
          "name": "approved",
          "type": "bool"
        }
      ],
      "name": "setApprovalForAll",
      "outputs": [],
      "stateMutability": "nonpayable",
      "type": "function"
    },
    {
      "inputs": [
        {
          "internalType": "address",
          "name": "LR",
          "type": "address"
        }
      ],
      "name": "setDefaulLRAddress",
      "outputs": [],
      "stateMutability": "nonpayable",
      "type": "function"
    },
    {
      "inputs": [
        {
          "internalType": "uint256",
          "name": "newFeeBase1000",
          "type": "uint256"
        }
      ],
      "name": "setFeeBase1000",
      "outputs": [],
      "stateMutability": "nonpayable",
      "type": "function"
    },
    {
      "inputs": [
        {
          "internalType": "address payable",
          "name": "newFeeReciever",
          "type": "address"
        }
      ],
      "name": "setFeeReciever",
      "outputs": [],
      "stateMutability": "nonpayable",
      "type": "function"
    },
    {
      "inputs": [
        {
          "internalType": "address",
          "name": "newOracleAddress",
          "type": "address"
        }
      ],
      "name": "setOracleAddress",
      "outputs": [],
      "stateMutability": "nonpayable",
      "type": "function"
    },
    {
      "inputs": [
        {
          "internalType": "uint256",
          "name": "pluginDefinitionId",
          "type": "uint256"
        },
        {
          "internalType": "uint256",
          "name": "newPrice",
          "type": "uint256"
        }
      ],
      "name": "setPrice",
      "outputs": [],
      "stateMutability": "nonpayable",
      "type": "function"
    },
    {
      "inputs": [
        {
          "internalType": "bytes4",
          "name": "interfaceId",
          "type": "bytes4"
        }
      ],
      "name": "supportsInterface",
      "outputs": [
        {
          "internalType": "bool",
          "name": "",
          "type": "bool"
        }
      ],
      "stateMutability": "view",
      "type": "function"
    },
    {
      "inputs": [],
      "name": "symbol",
      "outputs": [
        {
          "internalType": "string",
          "name": "",
          "type": "string"
        }
      ],
      "stateMutability": "view",
      "type": "function"
    },
    {
      "inputs": [
        {
          "internalType": "address",
          "name": "",
          "type": "address"
        }
      ],
      "name": "tokenIdByPluginAddress",
      "outputs": [
        {
          "internalType": "uint256",
          "name": "",
          "type": "uint256"
        }
      ],
      "stateMutability": "view",
      "type": "function"
    },
    {
      "inputs": [
        {
          "internalType": "address",
          "name": "pluginAddress_",
          "type": "address"
        }
      ],
      "name": "tokenIdFromAddress",
      "outputs": [
        {
          "internalType": "uint256",
          "name": "",
          "type": "uint256"
        }
      ],
      "stateMutability": "view",
      "type": "function"
    },
    {
      "inputs": [
        {
          "internalType": "uint256",
          "name": "tokenId",
          "type": "uint256"
        }
      ],
      "name": "tokenURI",
      "outputs": [
        {
          "internalType": "string",
          "name": "",
          "type": "string"
        }
      ],
      "stateMutability": "view",
      "type": "function"
    },
    {
      "inputs": [
        {
          "internalType": "address",
          "name": "from",
          "type": "address"
        },
        {
          "internalType": "address",
          "name": "to",
          "type": "address"
        },
        {
          "internalType": "uint256",
          "name": "tokenId",
          "type": "uint256"
        }
      ],
      "name": "transferFrom",
      "outputs": [],
      "stateMutability": "nonpayable",
      "type": "function"
    },
    {
      "inputs": [
        {
          "internalType": "address",
          "name": "newOwner",
          "type": "address"
        }
      ],
      "name": "transferOwnership",
      "outputs": [],
      "stateMutability": "nonpayable",
      "type": "function"
    }
  ],
  "bytecode": {
    "object": "0x60806040526001600b553480156200001657600080fd5b506040516200304338038062003043833981016040819052620000399162000143565b604080518082018252600a8082526920baba1028363ab3b4b760b11b60208084018290528451808601909552918452908301529060006200007b83826200021a565b5060016200008a82826200021a565b505050620000a7620000a1620000ed60201b60201c565b620000f1565b6001600855600c8054336001600160a01b03199182168117909255600d80548216909217909155600e80549091166001600160a01b0392909216919091179055620002e6565b3390565b600780546001600160a01b038381166001600160a01b0319831681179093556040519116919082907f8be0079c531659141344cd1fd0a4f28419497f9722a3daafe3b4186f6b6457e090600090a35050565b6000602082840312156200015657600080fd5b81516001600160a01b03811681146200016e57600080fd5b9392505050565b634e487b7160e01b600052604160045260246000fd5b600181811c90821680620001a057607f821691505b602082108103620001c157634e487b7160e01b600052602260045260246000fd5b50919050565b601f8211156200021557600081815260208120601f850160051c81016020861015620001f05750805b601f850160051c820191505b818110156200021157828155600101620001fc565b5050505b505050565b81516001600160401b0381111562000236576200023662000175565b6200024e816200024784546200018b565b84620001c7565b602080601f8311600181146200028657600084156200026d5750858301515b600019600386901b1c1916600185901b17855562000211565b600085815260208120601f198616915b82811015620002b75788860151825594840194600190910190840162000296565b5085821015620002d65787850151600019600388901b60f8161c191681555b5050505050600190811b01905550565b612d4d80620002f66000396000f3fe6080604052600436106102465760003560e01c806382accae811610139578063d5aff65f116100b6578063e985e9c51161007a578063e985e9c51461078e578063f0b7832a146107ae578063f1418ee9146107ce578063f2fde38b146107ff578063f61db7401461081f578063f7d975771461083f57600080fd5b8063d5aff65f14610653578063d9973726146106b2578063e07208c4146106d2578063e60a955d146106e8578063e832df911461070857600080fd5b8063a9810f45116100fd578063a9810f45146105c0578063ac70c99b146105e0578063b88d4fde146105f3578063c87b56dd14610613578063d436d0ef1461063357600080fd5b806382accae8146105365780638da5cb5b1461055657806395d89b411461056b578063a22cb46514610580578063a89ae4ba146105a057600080fd5b806337ea532d116101c757806351c4d95e1161018b57806351c4d95e14610495578063587f6b35146104cb5780636352211e146104e157806370a0823114610501578063715018a61461052157600080fd5b806337ea532d146103e4578063422d96c4146103fa57806342842e0e1461041a5780634c69c00f1461043a5780634fc0a0ce1461045a57600080fd5b8063235883e31161020e578063235883e31461033757806323b872dd1461035757806326b6ee9e1461037757806331d2dd3a14610397578063342094ba146103c457600080fd5b806301ffc9a71461024b57806306fdde031461028057806307d29188146102a2578063081812fc146102dd578063095ea7b314610315575b600080fd5b34801561025757600080fd5b5061026b610266366004612495565b61085f565b60405190151581526020015b60405180910390f35b34801561028c57600080fd5b506102956108b1565b6040516102779190612502565b3480156102ae57600080fd5b506102cf6102bd36600461252a565b60126020526000908152604090205481565b604051908152602001610277565b3480156102e957600080fd5b506102fd6102f8366004612547565b610943565b6040516001600160a01b039091168152602001610277565b34801561032157600080fd5b50610335610330366004612560565b61096a565b005b34801561034357600080fd5b506102fd61035236600461252a565b610a84565b34801561036357600080fd5b5061033561037236600461258c565b610aa6565b34801561038357600080fd5b5061033561039236600461268c565b610ad7565b3480156103a357600080fd5b506103b76103b236600461252a565b610af7565b60405161027791906126d3565b3480156103d057600080fd5b506102cf6103df366004612725565b610b63565b3480156103f057600080fd5b506102cf600a5481565b34801561040657600080fd5b506103b7610415366004612547565b610d40565b34801561042657600080fd5b5061033561043536600461258c565b610da3565b34801561044657600080fd5b5061033561045536600461252a565b610dbe565b34801561046657600080fd5b5061026b610475366004612560565b601360209081526000928352604080842090915290825290205460ff1681565b3480156104a157600080fd5b506102cf6104b036600461252a565b6001600160a01b031660009081526012602052604090205490565b3480156104d757600080fd5b506102cf60095481565b3480156104ed57600080fd5b506102fd6104fc366004612547565b610de8565b34801561050d57600080fd5b506102cf61051c36600461252a565b610e48565b34801561052d57600080fd5b50610335610ece565b34801561054257600080fd5b50600e546102fd906001600160a01b031681565b34801561056257600080fd5b506102fd610ee2565b34801561057757600080fd5b50610295610efb565b34801561058c57600080fd5b5061033561059b366004612823565b610f0a565b3480156105ac57600080fd5b50600d546102fd906001600160a01b031681565b3480156105cc57600080fd5b506103356105db36600461252a565b610f19565b6103356105ee366004612560565b610f8a565b3480156105ff57600080fd5b5061033561060e36600461285c565b61168e565b34801561061f57600080fd5b5061029561062e366004612547565b6116c6565b34801561063f57600080fd5b5061033561064e36600461252a565b6117d6565b34801561065f57600080fd5b5061069361066e366004612547565b601160205260009081526040902080546001909101546001600160a01b039091169082565b604080516001600160a01b039093168352602083019190915201610277565b3480156106be57600080fd5b506103356106cd366004612547565b611800565b3480156106de57600080fd5b506102cf600b5481565b3480156106f457600080fd5b506103356107033660046128dc565b61180d565b34801561071457600080fd5b5061076a610723366004612547565b604080518082019091526000808252602082015250600090815260116020908152604091829020825180840190935280546001600160a01b03168352600101549082015290565b6040805182516001600160a01b031681526020928301519281019290925201610277565b34801561079a57600080fd5b5061026b6107a9366004612901565b611897565b3480156107ba57600080fd5b50600f546102fd906001600160a01b031681565b3480156107da57600080fd5b506107ee6107e9366004612547565b6118c5565b60405161027795949392919061292f565b34801561080b57600080fd5b5061033561081a36600461252a565b61198f565b34801561082b57600080fd5b50600c546102fd906001600160a01b031681565b34801561084b57600080fd5b5061033561085a366004612971565b611a08565b60006001600160e01b031982166380ac58cd60e01b148061089057506001600160e01b03198216635b5e139f60e01b145b806108ab57506301ffc9a760e01b6001600160e01b03198316145b92915050565b6060600080546108c090612993565b80601f01602080910402602001604051908101604052809291908181526020018280546108ec90612993565b80156109395780601f1061090e57610100808354040283529160200191610939565b820191906000526020600020905b81548152906001019060200180831161091c57829003601f168201915b5050505050905090565b600061094e82611a79565b506000908152600460205260409020546001600160a01b031690565b600061097582610de8565b9050806001600160a01b0316836001600160a01b0316036109e75760405162461bcd60e51b815260206004820152602160248201527f4552433732313a20617070726f76616c20746f2063757272656e74206f776e656044820152603960f91b60648201526084015b60405180910390fd5b336001600160a01b0382161480610a035750610a038133611897565b610a755760405162461bcd60e51b815260206004820152603e60248201527f4552433732313a20617070726f76652063616c6c6572206973206e6f7420746f60448201527f6b656e206f776e6572206e6f7220617070726f76656420666f7220616c6c000060648201526084016109de565b610a7f8383611ad8565b505050565b6001600160a01b0381166000908152601260205260408120546108ab90610de8565b610ab03382611b46565b610acc5760405162461bcd60e51b81526004016109de906129cd565b610a7f838383611ba4565b610adf611d40565b6000828152601060205260409020610a7f8282612a69565b6001600160a01b038116600090815260146020908152604091829020805483518184028101840190945280845260609392830182828015610b5757602002820191906000526020600020905b815481526020019060010190808311610b43575b50505050509050919050565b6000610b6d611d40565b6000855111610bbe5760405162461bcd60e51b815260206004820152601a60248201527f4155543a204d657461646174612055524920697320656d70747900000000000060448201526064016109de565b8280610bc8575083155b610c225760405162461bcd60e51b815260206004820152602560248201527f4155543a2053686f756c642062652066726565206966206e6f74207374616e64604482015264616c6f6e6560d81b60648201526084016109de565b60098054906000610c3283612b3f565b90915550506009546040805160c08101825287815260208082018890526001600160a01b038a168284015260016060830152861515608083015260a082018690526000848152601090915291909120815192935090918190610c949082612a69565b5060208281015160018301556040830151600283018054606086015160808701511515600160a81b0260ff60a81b19911515600160a01b026001600160a81b03199093166001600160a01b0390951694909417919091171691909117905560a08301518051610d09926003850192019061241f565b50506040518291507fcbbaf67d68fba51d618db755cf99150d3acd7bad449961ed3118fc81a21e23eb90600090a295945050505050565b600081815260106020908152604091829020600301805483518184028101840190945280845260609392830182828015610b575760200282019190600052602060002090815481526020019060010190808311610b435750505050509050919050565b610a7f8383836040518060200160405280600081525061168e565b610dc6611d40565b600d80546001600160a01b0319166001600160a01b0392909216919091179055565b6000818152600260205260408120546001600160a01b0316806108ab5760405162461bcd60e51b8152602060048201526018602482015277115490cdcc8c4e881a5b9d985b1a59081d1bdad95b88125160421b60448201526064016109de565b60006001600160a01b038216610eb25760405162461bcd60e51b815260206004820152602960248201527f4552433732313a2061646472657373207a65726f206973206e6f7420612076616044820152683634b21037bbb732b960b91b60648201526084016109de565b506001600160a01b031660009081526003602052604090205490565b610ed6611d40565b610ee06000611d9f565b565b6000610ef66007546001600160a01b031690565b905090565b6060600180546108c090612993565b610f15338383611df1565b5050565b610f21611d40565b600f54604080516001600160a01b03808516825290921660208301527f5306ce2f8e36872437fa0825af321e9ff5ac117d48c602f520dace01c1ac1324910160405180910390a1600f80546001600160a01b0319166001600160a01b0392909216919091179055565b600260085403610fdc5760405162461bcd60e51b815260206004820152601f60248201527f5265656e7472616e637947756172643a207265656e7472616e742063616c6c0060448201526064016109de565b60026008819055506000826001600160a01b03166389f12ed96040518163ffffffff1660e01b8152600401602060405180830381865afa158015611024573d6000803e3d6000fd5b505050506040513d601f19601f820116820180604052508101906110489190612b58565b604051630935e01b60e21b81523360048201529091506001600160a01b038216906324d7806c90602401602060405180830381865afa15801561108f573d6000803e3d6000fd5b505050506040513d601f19601f820116820180604052508101906110b39190612b75565b15156001146110f35760405162461bcd60e51b815260206004820152600c60248201526b2737ba1030b71030b236b4b760a11b60448201526064016109de565b600082815260106020526040808220815160c0810190925280548290829061111a90612993565b80601f016020809104026020016040519081016040528092919081815260200182805461114690612993565b80156111935780601f1061116857610100808354040283529160200191611193565b820191906000526020600020905b81548152906001019060200180831161117657829003601f168201915b5050509183525050600182015460208083019190915260028301546001600160a01b03811660408085019190915260ff600160a01b8304811615156060860152600160a81b9092049091161515608084015260038401805482518185028101850190935280835260a090940193919290919083018282801561123457602002820191906000526020600020905b815481526020019060010190808311611220575b505050505081525050905080608001516112865760405162461bcd60e51b815260206004820152601360248201527263616e2774206265207374616e64616c6f6e6560681b60448201526064016109de565b80602001513410156112da5760405162461bcd60e51b815260206004820152601c60248201527f4155543a20496e73756666696369656e7420707269636520706169640000000060448201526064016109de565b6001600160a01b038216600090815260136020908152604080832086845290915290205460ff161561135c5760405162461bcd60e51b815260206004820152602560248201527f4155543a20506c7567696e20616c726561647920696e7374616c6c6564206f6e604482015264206e6f766160d81b60648201526084016109de565b6001600160a01b03821660009081526013602090815260408083208684529091528120805460ff191660011790556113948433611ebf565b6001600160a01b03841660009081526014602090815260408220805460018101825590835281832001839055600b549085015192935090916103e8916113d991612b92565b6113e39190612bbf565b600c546040519192506001600160a01b03169082156108fc029083906000818181858888f1935050505015801561141e573d6000803e3d6000fd5b5060408301516000906001600160a01b031661143a8334612bd3565b604051600081818185875af1925050503d8060008114611476576040519150601f19603f3d011682016040523d82523d6000602084013e61147b565b606091505b50509050806114c45760405162461bcd60e51b815260206004820152601560248201527415985b1d59481d1c985b9cd9995c8819985a5b1959605a1b60448201526064016109de565b846001600160a01b031686847f88cc99a45fb9dd47f06183f6dc5736a1e16fd89647a9c48122aa2e8c40aab90e60405160405180910390a4600083815260116020908152604080832080546001600160a01b0319166001600160a01b038c169081179091558084526012909252918290208590559051621526e560e51b8152600481018590526302a4dca090602401600060405180830381600087803b15801561156d57600080fd5b505af1158015611581573d6000803e3d6000fd5b50505050866001600160a01b031663a1308f276040518163ffffffff1660e01b8152600401602060405180830381865afa1580156115c3573d6000803e3d6000fd5b505050506040513d601f19601f820116820180604052508101906115e79190612be6565b60010361164a5760405163b5a8a3a160e01b81526001600160a01b03888116600483015286169063b5a8a3a190602401600060405180830381600087803b15801561163157600080fd5b505af1158015611645573d6000803e3d6000fd5b505050505b6040516001600160a01b0388169084907f91a697a20a7603d919a673d889a6263bca15841c5b84791bea2091bcefff95a890600090a3505060016008555050505050565b6116983383611b46565b6116b45760405162461bcd60e51b81526004016109de906129cd565b6116c084848484611fa1565b50505050565b60606116d182611a79565b600082815260066020526040812080546116ea90612993565b80601f016020809104026020016040519081016040528092919081815260200182805461171690612993565b80156117635780601f1061173857610100808354040283529160200191611763565b820191906000526020600020905b81548152906001019060200180831161174657829003601f168201915b50505050509050600061178160408051602081019091526000815290565b90508051600003611793575092915050565b8151156117c55780826040516020016117ad929190612bff565b60405160208183030381529060405292505050919050565b6117ce84611fd4565b949350505050565b6117de611d40565b600c80546001600160a01b0319166001600160a01b0392909216919091179055565b611808611d40565b600b55565b600082815260106020526040902060028101546001600160a01b031633146118775760405162461bcd60e51b815260206004820181905260248201527f4155543a204f6e6c792063726561746f722063616e207365742061637469766560448201526064016109de565b6002018054911515600160a01b0260ff60a01b1990921691909117905550565b6001600160a01b03918216600090815260056020908152604080832093909416825291909152205460ff1690565b6010602052600090815260409020805481906118e090612993565b80601f016020809104026020016040519081016040528092919081815260200182805461190c90612993565b80156119595780601f1061192e57610100808354040283529160200191611959565b820191906000526020600020905b81548152906001019060200180831161193c57829003601f168201915b50505060018401546002909401549293926001600160a01b038116925060ff600160a01b820481169250600160a81b9091041685565b611997611d40565b6001600160a01b0381166119fc5760405162461bcd60e51b815260206004820152602660248201527f4f776e61626c653a206e6577206f776e657220697320746865207a65726f206160448201526564647265737360d01b60648201526084016109de565b611a0581611d9f565b50565b600082815260106020526040902060028101546001600160a01b03163314611a725760405162461bcd60e51b815260206004820152601f60248201527f4155543a204f6e6c792063726561746f722063616e207365742070726963650060448201526064016109de565b6001015550565b6000818152600260205260409020546001600160a01b0316611a055760405162461bcd60e51b8152602060048201526018602482015277115490cdcc8c4e881a5b9d985b1a59081d1bdad95b88125160421b60448201526064016109de565b600081815260046020526040902080546001600160a01b0319166001600160a01b0384169081179091558190611b0d82610de8565b6001600160a01b03167f8c5be1e5ebec7d5bd14f71427d1e84f3dd0314c0f7b2291e5b200ac8c7c3b92560405160405180910390a45050565b600080611b5283610de8565b9050806001600160a01b0316846001600160a01b03161480611b795750611b798185611897565b806117ce5750836001600160a01b0316611b9284610943565b6001600160a01b031614949350505050565b826001600160a01b0316611bb782610de8565b6001600160a01b031614611c1b5760405162461bcd60e51b815260206004820152602560248201527f4552433732313a207472616e736665722066726f6d20696e636f72726563742060448201526437bbb732b960d91b60648201526084016109de565b6001600160a01b038216611c7d5760405162461bcd60e51b8152602060048201526024808201527f4552433732313a207472616e7366657220746f20746865207a65726f206164646044820152637265737360e01b60648201526084016109de565b611c88600082611ad8565b6001600160a01b0383166000908152600360205260408120805460019290611cb1908490612bd3565b90915550506001600160a01b0382166000908152600360205260408120805460019290611cdf908490612c2e565b909155505060008181526002602052604080822080546001600160a01b0319166001600160a01b0386811691821790925591518493918716917fddf252ad1be2c89b69c2b068fc378daa952ba7f163c4a11628f55a4df523b3ef91a4505050565b33611d49610ee2565b6001600160a01b031614610ee05760405162461bcd60e51b815260206004820181905260248201527f4f776e61626c653a2063616c6c6572206973206e6f7420746865206f776e657260448201526064016109de565b600780546001600160a01b038381166001600160a01b0319831681179093556040519116919082907f8be0079c531659141344cd1fd0a4f28419497f9722a3daafe3b4186f6b6457e090600090a35050565b816001600160a01b0316836001600160a01b031603611e525760405162461bcd60e51b815260206004820152601960248201527f4552433732313a20617070726f766520746f2063616c6c65720000000000000060448201526064016109de565b6001600160a01b03838116600081815260056020908152604080832094871680845294825291829020805460ff191686151590811790915591519182527f17307eab39ab6107e8899845ad3d59bd9653f200f220920489ca2b5937696c31910160405180910390a3505050565b6000828152601060205260408120600a80549083611edc83612b3f565b9091555050600a5460008181526011602052604090206001018590559150611f048383612048565b611f9a82826000018054611f1790612993565b80601f0160208091040260200160405190810160405280929190818152602001828054611f4390612993565b8015611f905780601f10611f6557610100808354040283529160200191611f90565b820191906000526020600020905b815481529060010190602001808311611f7357829003601f168201915b505050505061218a565b5092915050565b611fac848484611ba4565b611fb88484848461221d565b6116c05760405162461bcd60e51b81526004016109de90612c41565b6060611fdf82611a79565b6000611ff660408051602081019091526000815290565b905060008151116120165760405180602001604052806000815250612041565b806120208461231e565b604051602001612031929190612bff565b6040516020818303038152906040525b9392505050565b6001600160a01b03821661209e5760405162461bcd60e51b815260206004820181905260248201527f4552433732313a206d696e7420746f20746865207a65726f206164647265737360448201526064016109de565b6000818152600260205260409020546001600160a01b0316156121035760405162461bcd60e51b815260206004820152601c60248201527f4552433732313a20746f6b656e20616c7265616479206d696e7465640000000060448201526064016109de565b6001600160a01b038216600090815260036020526040812080546001929061212c908490612c2e565b909155505060008181526002602052604080822080546001600160a01b0319166001600160a01b03861690811790915590518392907fddf252ad1be2c89b69c2b068fc378daa952ba7f163c4a11628f55a4df523b3ef908290a45050565b6000828152600260205260409020546001600160a01b03166122055760405162461bcd60e51b815260206004820152602e60248201527f45524337323155524953746f726167653a2055524920736574206f66206e6f6e60448201526d32bc34b9ba32b73a103a37b5b2b760911b60648201526084016109de565b6000828152600660205260409020610a7f8282612a69565b60006001600160a01b0384163b1561231357604051630a85bd0160e11b81526001600160a01b0385169063150b7a0290612261903390899088908890600401612c93565b6020604051808303816000875af192505050801561229c575060408051601f3d908101601f1916820190925261229991810190612cd0565b60015b6122f9573d8080156122ca576040519150601f19603f3d011682016040523d82523d6000602084013e6122cf565b606091505b5080516000036122f15760405162461bcd60e51b81526004016109de90612c41565b805181602001fd5b6001600160e01b031916630a85bd0160e11b1490506117ce565b506001949350505050565b6060816000036123455750506040805180820190915260018152600360fc1b602082015290565b8160005b811561236f578061235981612b3f565b91506123689050600a83612bbf565b9150612349565b60008167ffffffffffffffff81111561238a5761238a6125cd565b6040519080825280601f01601f1916602001820160405280156123b4576020820181803683370190505b5090505b84156117ce576123c9600183612bd3565b91506123d6600a86612ced565b6123e1906030612c2e565b60f81b8183815181106123f6576123f6612d01565b60200101906001600160f81b031916908160001a905350612418600a86612bbf565b94506123b8565b82805482825590600052602060002090810192821561245a579160200282015b8281111561245a57825182559160200191906001019061243f565b5061246692915061246a565b5090565b5b80821115612466576000815560010161246b565b6001600160e01b031981168114611a0557600080fd5b6000602082840312156124a757600080fd5b81356120418161247f565b60005b838110156124cd5781810151838201526020016124b5565b50506000910152565b600081518084526124ee8160208601602086016124b2565b601f01601f19169290920160200192915050565b60208152600061204160208301846124d6565b6001600160a01b0381168114611a0557600080fd5b60006020828403121561253c57600080fd5b813561204181612515565b60006020828403121561255957600080fd5b5035919050565b6000806040838503121561257357600080fd5b823561257e81612515565b946020939093013593505050565b6000806000606084860312156125a157600080fd5b83356125ac81612515565b925060208401356125bc81612515565b929592945050506040919091013590565b634e487b7160e01b600052604160045260246000fd5b604051601f8201601f1916810167ffffffffffffffff8111828210171561260c5761260c6125cd565b604052919050565b600067ffffffffffffffff83111561262e5761262e6125cd565b612641601f8401601f19166020016125e3565b905082815283838301111561265557600080fd5b828260208301376000602084830101529392505050565b600082601f83011261267d57600080fd5b61204183833560208501612614565b6000806040838503121561269f57600080fd5b82359150602083013567ffffffffffffffff8111156126bd57600080fd5b6126c98582860161266c565b9150509250929050565b6020808252825182820181905260009190848201906040850190845b8181101561270b578351835292840192918401916001016126ef565b50909695505050505050565b8015158114611a0557600080fd5b600080600080600060a0868803121561273d57600080fd5b853561274881612515565b945060208681013567ffffffffffffffff8082111561276657600080fd5b6127728a838b0161266c565b9650604089013595506060890135915061278b82612717565b909350608088013590808211156127a157600080fd5b818901915089601f8301126127b557600080fd5b8135818111156127c7576127c76125cd565b8060051b91506127d88483016125e3565b818152918301840191848101908c8411156127f257600080fd5b938501935b83851015612810578435825293850193908501906127f7565b8096505050505050509295509295909350565b6000806040838503121561283657600080fd5b823561284181612515565b9150602083013561285181612717565b809150509250929050565b6000806000806080858703121561287257600080fd5b843561287d81612515565b9350602085013561288d81612515565b925060408501359150606085013567ffffffffffffffff8111156128b057600080fd5b8501601f810187136128c157600080fd5b6128d087823560208401612614565b91505092959194509250565b600080604083850312156128ef57600080fd5b82359150602083013561285181612717565b6000806040838503121561291457600080fd5b823561291f81612515565b9150602083013561285181612515565b60a08152600061294260a08301886124d6565b6020830196909652506001600160a01b0393909316604084015290151560608301521515608090910152919050565b6000806040838503121561298457600080fd5b50508035926020909101359150565b600181811c908216806129a757607f821691505b6020821081036129c757634e487b7160e01b600052602260045260246000fd5b50919050565b6020808252602e908201527f4552433732313a2063616c6c6572206973206e6f7420746f6b656e206f776e6560408201526d1c881b9bdc88185c1c1c9bdd995960921b606082015260800190565b601f821115610a7f57600081815260208120601f850160051c81016020861015612a425750805b601f850160051c820191505b81811015612a6157828155600101612a4e565b505050505050565b815167ffffffffffffffff811115612a8357612a836125cd565b612a9781612a918454612993565b84612a1b565b602080601f831160018114612acc5760008415612ab45750858301515b600019600386901b1c1916600185901b178555612a61565b600085815260208120601f198616915b82811015612afb57888601518255948401946001909101908401612adc565b5085821015612b195787850151600019600388901b60f8161c191681555b5050505050600190811b01905550565b634e487b7160e01b600052601160045260246000fd5b600060018201612b5157612b51612b29565b5060010190565b600060208284031215612b6a57600080fd5b815161204181612515565b600060208284031215612b8757600080fd5b815161204181612717565b80820281158282048414176108ab576108ab612b29565b634e487b7160e01b600052601260045260246000fd5b600082612bce57612bce612ba9565b500490565b818103818111156108ab576108ab612b29565b600060208284031215612bf857600080fd5b5051919050565b60008351612c118184602088016124b2565b835190830190612c258183602088016124b2565b01949350505050565b808201808211156108ab576108ab612b29565b60208082526032908201527f4552433732313a207472616e7366657220746f206e6f6e20455243373231526560408201527131b2b4bb32b91034b6b83632b6b2b73a32b960711b606082015260800190565b6001600160a01b0385811682528416602082015260408101839052608060608201819052600090612cc6908301846124d6565b9695505050505050565b600060208284031215612ce257600080fd5b81516120418161247f565b600082612cfc57612cfc612ba9565b500690565b634e487b7160e01b600052603260045260246000fdfea2646970667358221220f9cb8995dd6e7fe400455a32803ae81e41776e02cdc5692ca528c017044e095664736f6c63430008130033",
    "linkReferences": {}
  },
  "methodIdentifiers": {
    "_numPluginDefinitions()": "587f6b35",
    "_numPluginsMinted()": "37ea532d",
    "addPluginDefinition(address,string,uint256,bool,uint256[])": "342094ba",
    "addPluginToNova(address,uint256)": "ac70c99b",
    "approve(address,uint256)": "095ea7b3",
    "balanceOf(address)": "70a08231",
    "defaultLRAddr()": "f0b7832a",
    "editPluginDefinitionMetadata(uint256,string)": "26b6ee9e",
    "feeBase1000()": "e07208c4",
    "feeReciever()": "f61db740",
    "getApproved(uint256)": "081812fc",
    "getDependencyModulesForPlugin(uint256)": "422d96c4",
    "getOwnerOfPlugin(address)": "235883e3",
    "getPluginIdsByNova(address)": "31d2dd3a",
    "getPluginInstanceByTokenId(uint256)": "e832df91",
    "isApprovedForAll(address,address)": "e985e9c5",
    "modulesRegistry()": "82accae8",
    "name()": "06fdde03",
    "oracleAddress()": "a89ae4ba",
    "owner()": "8da5cb5b",
    "ownerOf(uint256)": "6352211e",
    "pluginDefinitionsById(uint256)": "f1418ee9",
    "pluginDefinitionsInstalledByNova(address,uint256)": "4fc0a0ce",
    "pluginInstanceByTokenId(uint256)": "d5aff65f",
    "renounceOwnership()": "715018a6",
    "safeTransferFrom(address,address,uint256)": "42842e0e",
    "safeTransferFrom(address,address,uint256,bytes)": "b88d4fde",
    "setActive(uint256,bool)": "e60a955d",
    "setApprovalForAll(address,bool)": "a22cb465",
    "setDefaulLRAddress(address)": "a9810f45",
    "setFeeBase1000(uint256)": "d9973726",
    "setFeeReciever(address)": "d436d0ef",
    "setOracleAddress(address)": "4c69c00f",
    "setPrice(uint256,uint256)": "f7d97577",
    "supportsInterface(bytes4)": "01ffc9a7",
    "symbol()": "95d89b41",
    "tokenIdByPluginAddress(address)": "07d29188",
    "tokenIdFromAddress(address)": "51c4d95e",
    "tokenURI(uint256)": "c87b56dd",
    "transferFrom(address,address,uint256)": "23b872dd",
    "transferOwnership(address)": "f2fde38b"
  },
  "id": 71
}