{
  "abi": [
    {
      "inputs": [
        {
          "internalType": "address",
          "name": "_modulesRegistry",
          "type": "address"
        }
      ],
      "stateMutability": "nonpayable",
      "type": "constructor"
    },
    {
      "anonymous": false,
      "inputs": [
        {
          "indexed": true,
          "internalType": "address",
          "name": "owner",
          "type": "address"
        },
        {
          "indexed": true,
          "internalType": "address",
          "name": "approved",
          "type": "address"
        },
        {
          "indexed": true,
          "internalType": "uint256",
          "name": "tokenId",
          "type": "uint256"
        }
      ],
      "name": "Approval",
      "type": "event"
    },
    {
      "anonymous": false,
      "inputs": [
        {
          "indexed": true,
          "internalType": "address",
          "name": "owner",
          "type": "address"
        },
        {
          "indexed": true,
          "internalType": "address",
          "name": "operator",
          "type": "address"
        },
        {
          "indexed": false,
          "internalType": "bool",
          "name": "approved",
          "type": "bool"
        }
      ],
      "name": "ApprovalForAll",
      "type": "event"
    },
    {
      "anonymous": false,
      "inputs": [
        {
          "indexed": false,
          "internalType": "address",
          "name": "newReputationAlgo",
          "type": "address"
        },
        {
          "indexed": false,
          "internalType": "address",
          "name": "previousAddress",
          "type": "address"
        }
      ],
      "name": "DefaultLRAlgoChanged",
      "type": "event"
    },
    {
      "anonymous": false,
      "inputs": [
        {
          "indexed": true,
          "internalType": "address",
          "name": "previousOwner",
          "type": "address"
        },
        {
          "indexed": true,
          "internalType": "address",
          "name": "newOwner",
          "type": "address"
        }
      ],
      "name": "OwnershipTransferred",
      "type": "event"
    },
    {
      "anonymous": false,
      "inputs": [
        {
          "indexed": true,
          "internalType": "uint256",
          "name": "tokenId",
          "type": "uint256"
        },
        {
          "indexed": true,
          "internalType": "uint256",
          "name": "pluginTypeId",
          "type": "uint256"
        },
        {
          "indexed": true,
          "internalType": "address",
          "name": "dao",
          "type": "address"
        }
      ],
      "name": "PluginAddedToDAO",
      "type": "event"
    },
    {
      "anonymous": false,
      "inputs": [
        {
          "indexed": true,
          "internalType": "uint256",
          "name": "pluginTypeId",
          "type": "uint256"
        }
      ],
      "name": "PluginDefinitionAdded",
      "type": "event"
    },
    {
      "anonymous": false,
      "inputs": [
        {
          "indexed": true,
          "internalType": "uint256",
          "name": "tokenId",
          "type": "uint256"
        },
        {
          "indexed": true,
          "internalType": "address",
          "name": "pluginAddress",
          "type": "address"
        }
      ],
      "name": "PluginRegistered",
      "type": "event"
    },
    {
      "anonymous": false,
      "inputs": [
        {
          "indexed": true,
          "internalType": "address",
          "name": "from",
          "type": "address"
        },
        {
          "indexed": true,
          "internalType": "address",
          "name": "to",
          "type": "address"
        },
        {
          "indexed": true,
          "internalType": "uint256",
          "name": "tokenId",
          "type": "uint256"
        }
      ],
      "name": "Transfer",
      "type": "event"
    },
    {
      "inputs": [],
      "name": "_numPluginDefinitions",
      "outputs": [
        {
          "internalType": "uint256",
          "name": "",
          "type": "uint256"
        }
      ],
      "stateMutability": "view",
      "type": "function"
    },
    {
      "inputs": [],
      "name": "_numPluginsMinted",
      "outputs": [
        {
          "internalType": "uint256",
          "name": "",
          "type": "uint256"
        }
      ],
      "stateMutability": "view",
      "type": "function"
    },
    {
      "inputs": [
        {
          "internalType": "address payable",
          "name": "creator",
          "type": "address"
        },
        {
          "internalType": "string",
          "name": "metadataURI",
          "type": "string"
        },
        {
          "internalType": "uint256",
          "name": "price",
          "type": "uint256"
        },
        {
          "internalType": "bool",
          "name": "canBeStandalone",
          "type": "bool"
        },
        {
          "internalType": "uint256[]",
          "name": "moduleDependencies",
          "type": "uint256[]"
        }
      ],
      "name": "addPluginDefinition",
      "outputs": [
        {
          "internalType": "uint256",
          "name": "pluginDefinitionId",
          "type": "uint256"
        }
      ],
      "stateMutability": "nonpayable",
      "type": "function"
    },
    {
      "inputs": [
        {
          "internalType": "address",
          "name": "pluginAddress",
          "type": "address"
        },
        {
          "internalType": "uint256",
          "name": "pluginDefinitionId",
          "type": "uint256"
        }
      ],
      "name": "addPluginToDAO",
      "outputs": [],
      "stateMutability": "payable",
      "type": "function"
    },
    {
      "inputs": [
        {
          "internalType": "address",
          "name": "to",
          "type": "address"
        },
        {
          "internalType": "uint256",
          "name": "tokenId",
          "type": "uint256"
        }
      ],
      "name": "approve",
      "outputs": [],
      "stateMutability": "nonpayable",
      "type": "function"
    },
    {
      "inputs": [
        {
          "internalType": "address",
          "name": "owner",
          "type": "address"
        }
      ],
      "name": "balanceOf",
      "outputs": [
        {
          "internalType": "uint256",
          "name": "",
          "type": "uint256"
        }
      ],
      "stateMutability": "view",
      "type": "function"
    },
    {
      "inputs": [],
      "name": "defaultLRAddr",
      "outputs": [
        {
          "internalType": "address",
          "name": "",
          "type": "address"
        }
      ],
      "stateMutability": "view",
      "type": "function"
    },
    {
      "inputs": [
        {
          "internalType": "uint256",
          "name": "pluginDefinitionId",
          "type": "uint256"
        },
        {
          "internalType": "string",
          "name": "url",
          "type": "string"
        }
      ],
      "name": "editPluginDefinitionMetadata",
      "outputs": [],
      "stateMutability": "nonpayable",
      "type": "function"
    },
    {
      "inputs": [],
      "name": "feeBase1000",
      "outputs": [
        {
          "internalType": "uint256",
          "name": "",
          "type": "uint256"
        }
      ],
      "stateMutability": "view",
      "type": "function"
    },
    {
      "inputs": [],
      "name": "feeReciever",
      "outputs": [
        {
          "internalType": "address payable",
          "name": "",
          "type": "address"
        }
      ],
      "stateMutability": "view",
      "type": "function"
    },
    {
      "inputs": [
        {
          "internalType": "uint256",
          "name": "tokenId",
          "type": "uint256"
        }
      ],
      "name": "getApproved",
      "outputs": [
        {
          "internalType": "address",
          "name": "",
          "type": "address"
        }
      ],
      "stateMutability": "view",
      "type": "function"
    },
    {
      "inputs": [
        {
          "internalType": "uint256",
          "name": "pluginDefinitionId",
          "type": "uint256"
        }
      ],
      "name": "getDependencyModulesForPlugin",
      "outputs": [
        {
          "internalType": "uint256[]",
          "name": "",
          "type": "uint256[]"
        }
      ],
      "stateMutability": "view",
      "type": "function"
    },
    {
      "inputs": [
        {
          "internalType": "address",
          "name": "pluginAddress",
          "type": "address"
        }
      ],
      "name": "getOwnerOfPlugin",
      "outputs": [
        {
          "internalType": "address",
          "name": "",
          "type": "address"
        }
      ],
      "stateMutability": "view",
      "type": "function"
    },
    {
      "inputs": [
        {
          "internalType": "address",
          "name": "dao",
          "type": "address"
        }
      ],
      "name": "getPluginIdsByDAO",
      "outputs": [
        {
          "internalType": "uint256[]",
          "name": "",
          "type": "uint256[]"
        }
      ],
      "stateMutability": "view",
      "type": "function"
    },
    {
      "inputs": [
        {
          "internalType": "uint256",
          "name": "tokenId",
          "type": "uint256"
        }
      ],
      "name": "getPluginInstanceByTokenId",
      "outputs": [
        {
          "components": [
            {
              "internalType": "address",
              "name": "pluginAddress",
              "type": "address"
            },
            {
              "internalType": "uint256",
              "name": "pluginDefinitionId",
              "type": "uint256"
            }
          ],
          "internalType": "struct IPluginRegistry.PluginInstance",
          "name": "",
          "type": "tuple"
        }
      ],
      "stateMutability": "view",
      "type": "function"
    },
    {
      "inputs": [
        {
          "internalType": "address",
          "name": "owner",
          "type": "address"
        },
        {
          "internalType": "address",
          "name": "operator",
          "type": "address"
        }
      ],
      "name": "isApprovedForAll",
      "outputs": [
        {
          "internalType": "bool",
          "name": "",
          "type": "bool"
        }
      ],
      "stateMutability": "view",
      "type": "function"
    },
    {
      "inputs": [],
      "name": "modulesRegistry",
      "outputs": [
        {
          "internalType": "address",
          "name": "",
          "type": "address"
        }
      ],
      "stateMutability": "view",
      "type": "function"
    },
    {
      "inputs": [],
      "name": "name",
      "outputs": [
        {
          "internalType": "string",
          "name": "",
          "type": "string"
        }
      ],
      "stateMutability": "view",
      "type": "function"
    },
    {
      "inputs": [],
      "name": "oracleAddress",
      "outputs": [
        {
          "internalType": "address",
          "name": "",
          "type": "address"
        }
      ],
      "stateMutability": "view",
      "type": "function"
    },
    {
      "inputs": [],
      "name": "owner",
      "outputs": [
        {
          "internalType": "address",
          "name": "",
          "type": "address"
        }
      ],
      "stateMutability": "view",
      "type": "function"
    },
    {
      "inputs": [
        {
          "internalType": "uint256",
          "name": "tokenId",
          "type": "uint256"
        }
      ],
      "name": "ownerOf",
      "outputs": [
        {
          "internalType": "address",
          "name": "",
          "type": "address"
        }
      ],
      "stateMutability": "view",
      "type": "function"
    },
    {
      "inputs": [
        {
          "internalType": "uint256",
          "name": "",
          "type": "uint256"
        }
      ],
      "name": "pluginDefinitionsById",
      "outputs": [
        {
          "internalType": "string",
          "name": "metadataURI",
          "type": "string"
        },
        {
          "internalType": "uint256",
          "name": "price",
          "type": "uint256"
        },
        {
          "internalType": "address payable",
          "name": "creator",
          "type": "address"
        },
        {
          "internalType": "bool",
          "name": "active",
          "type": "bool"
        },
        {
          "internalType": "bool",
          "name": "canBeStandalone",
          "type": "bool"
        }
      ],
      "stateMutability": "view",
      "type": "function"
    },
    {
      "inputs": [
        {
          "internalType": "address",
          "name": "",
          "type": "address"
        },
        {
          "internalType": "uint256",
          "name": "",
          "type": "uint256"
        }
      ],
      "name": "pluginDefinitionsInstalledByDAO",
      "outputs": [
        {
          "internalType": "bool",
          "name": "",
          "type": "bool"
        }
      ],
      "stateMutability": "view",
      "type": "function"
    },
    {
      "inputs": [
        {
          "internalType": "uint256",
          "name": "",
          "type": "uint256"
        }
      ],
      "name": "pluginInstanceByTokenId",
      "outputs": [
        {
          "internalType": "address",
          "name": "pluginAddress",
          "type": "address"
        },
        {
          "internalType": "uint256",
          "name": "pluginDefinitionId",
          "type": "uint256"
        }
      ],
      "stateMutability": "view",
      "type": "function"
    },
    {
      "inputs": [],
      "name": "renounceOwnership",
      "outputs": [],
      "stateMutability": "nonpayable",
      "type": "function"
    },
    {
      "inputs": [
        {
          "internalType": "address",
          "name": "from",
          "type": "address"
        },
        {
          "internalType": "address",
          "name": "to",
          "type": "address"
        },
        {
          "internalType": "uint256",
          "name": "tokenId",
          "type": "uint256"
        }
      ],
      "name": "safeTransferFrom",
      "outputs": [],
      "stateMutability": "nonpayable",
      "type": "function"
    },
    {
      "inputs": [
        {
          "internalType": "address",
          "name": "from",
          "type": "address"
        },
        {
          "internalType": "address",
          "name": "to",
          "type": "address"
        },
        {
          "internalType": "uint256",
          "name": "tokenId",
          "type": "uint256"
        },
        {
          "internalType": "bytes",
          "name": "data",
          "type": "bytes"
        }
      ],
      "name": "safeTransferFrom",
      "outputs": [],
      "stateMutability": "nonpayable",
      "type": "function"
    },
    {
      "inputs": [
        {
          "internalType": "uint256",
          "name": "pluginDefinitionId",
          "type": "uint256"
        },
        {
          "internalType": "bool",
          "name": "newActive",
          "type": "bool"
        }
      ],
      "name": "setActive",
      "outputs": [],
      "stateMutability": "nonpayable",
      "type": "function"
    },
    {
      "inputs": [
        {
          "internalType": "address",
          "name": "operator",
          "type": "address"
        },
        {
          "internalType": "bool",
          "name": "approved",
          "type": "bool"
        }
      ],
      "name": "setApprovalForAll",
      "outputs": [],
      "stateMutability": "nonpayable",
      "type": "function"
    },
    {
      "inputs": [
        {
          "internalType": "address",
          "name": "LR",
          "type": "address"
        }
      ],
      "name": "setDefaulLRAddress",
      "outputs": [],
      "stateMutability": "nonpayable",
      "type": "function"
    },
    {
      "inputs": [
        {
          "internalType": "address",
          "name": "newRepAlgoAddr_",
          "type": "address"
        }
      ],
      "name": "setDefaultReputationAlgo",
      "outputs": [
        {
          "internalType": "address",
          "name": "",
          "type": "address"
        }
      ],
      "stateMutability": "nonpayable",
      "type": "function"
    },
    {
      "inputs": [
        {
          "internalType": "uint256",
          "name": "newFeeBase1000",
          "type": "uint256"
        }
      ],
      "name": "setFeeBase1000",
      "outputs": [],
      "stateMutability": "nonpayable",
      "type": "function"
    },
    {
      "inputs": [
        {
          "internalType": "address payable",
          "name": "newFeeReciever",
          "type": "address"
        }
      ],
      "name": "setFeeReciever",
      "outputs": [],
      "stateMutability": "nonpayable",
      "type": "function"
    },
    {
      "inputs": [
        {
          "internalType": "address",
          "name": "newOracleAddress",
          "type": "address"
        }
      ],
      "name": "setOracleAddress",
      "outputs": [],
      "stateMutability": "nonpayable",
      "type": "function"
    },
    {
      "inputs": [
        {
          "internalType": "uint256",
          "name": "pluginDefinitionId",
          "type": "uint256"
        },
        {
          "internalType": "uint256",
          "name": "newPrice",
          "type": "uint256"
        }
      ],
      "name": "setPrice",
      "outputs": [],
      "stateMutability": "nonpayable",
      "type": "function"
    },
    {
      "inputs": [
        {
          "internalType": "bytes4",
          "name": "interfaceId",
          "type": "bytes4"
        }
      ],
      "name": "supportsInterface",
      "outputs": [
        {
          "internalType": "bool",
          "name": "",
          "type": "bool"
        }
      ],
      "stateMutability": "view",
      "type": "function"
    },
    {
      "inputs": [],
      "name": "symbol",
      "outputs": [
        {
          "internalType": "string",
          "name": "",
          "type": "string"
        }
      ],
      "stateMutability": "view",
      "type": "function"
    },
    {
      "inputs": [
        {
          "internalType": "address",
          "name": "",
          "type": "address"
        }
      ],
      "name": "tokenIdByPluginAddress",
      "outputs": [
        {
          "internalType": "uint256",
          "name": "",
          "type": "uint256"
        }
      ],
      "stateMutability": "view",
      "type": "function"
    },
    {
      "inputs": [
        {
          "internalType": "address",
          "name": "pluginAddress_",
          "type": "address"
        }
      ],
      "name": "tokenIdFromAddress",
      "outputs": [
        {
          "internalType": "uint256",
          "name": "",
          "type": "uint256"
        }
      ],
      "stateMutability": "view",
      "type": "function"
    },
    {
      "inputs": [
        {
          "internalType": "uint256",
          "name": "tokenId",
          "type": "uint256"
        }
      ],
      "name": "tokenURI",
      "outputs": [
        {
          "internalType": "string",
          "name": "",
          "type": "string"
        }
      ],
      "stateMutability": "view",
      "type": "function"
    },
    {
      "inputs": [
        {
          "internalType": "address",
          "name": "from",
          "type": "address"
        },
        {
          "internalType": "address",
          "name": "to",
          "type": "address"
        },
        {
          "internalType": "uint256",
          "name": "tokenId",
          "type": "uint256"
        }
      ],
      "name": "transferFrom",
      "outputs": [],
      "stateMutability": "nonpayable",
      "type": "function"
    },
    {
      "inputs": [
        {
          "internalType": "address",
          "name": "newOwner",
          "type": "address"
        }
      ],
      "name": "transferOwnership",
      "outputs": [],
      "stateMutability": "nonpayable",
      "type": "function"
    }
  ],
  "bytecode": {
    "object": "0x60806040526001600b553480156200001657600080fd5b506040516200304238038062003042833981016040819052620000399162000143565b604080518082018252600a8082526920baba1028363ab3b4b760b11b60208084018290528451808601909552918452908301529060006200007b83826200021a565b5060016200008a82826200021a565b505050620000a7620000a1620000ed60201b60201c565b620000f1565b6001600855600c8054336001600160a01b03199182168117909255600d80548216909217909155600e80549091166001600160a01b0392909216919091179055620002e6565b3390565b600780546001600160a01b038381166001600160a01b0319831681179093556040519116919082907f8be0079c531659141344cd1fd0a4f28419497f9722a3daafe3b4186f6b6457e090600090a35050565b6000602082840312156200015657600080fd5b81516001600160a01b03811681146200016e57600080fd5b9392505050565b634e487b7160e01b600052604160045260246000fd5b600181811c90821680620001a057607f821691505b602082108103620001c157634e487b7160e01b600052602260045260246000fd5b50919050565b601f8211156200021557600081815260208120601f850160051c81016020861015620001f05750805b601f850160051c820191505b818110156200021157828155600101620001fc565b5050505b505050565b81516001600160401b0381111562000236576200023662000175565b6200024e816200024784546200018b565b84620001c7565b602080601f8311600181146200028657600084156200026d5750858301515b600019600386901b1c1916600185901b17855562000211565b600085815260208120601f198616915b82811015620002b75788860151825594840194600190910190840162000296565b5085821015620002d65787850151600019600388901b60f8161c191681555b5050505050600190811b01905550565b612d4c80620002f66000396000f3fe6080604052600436106102515760003560e01c806382accae811610139578063d5aff65f116100b6578063e985e9c51161007a578063e985e9c5146107b9578063f0b7832a146107d9578063f1418ee9146107f9578063f2fde38b1461082a578063f61db7401461084a578063f7d975771461086a57600080fd5b8063d5aff65f1461067e578063d9973726146106dd578063e07208c4146106fd578063e60a955d14610713578063e832df911461073357600080fd5b8063a9810f45116100fd578063a9810f45146105de578063b88d4fde146105fe578063c87b56dd1461061e578063d2cdf8f01461063e578063d436d0ef1461065e57600080fd5b806382accae8146105545780638da5cb5b1461057457806395d89b4114610589578063a22cb4651461059e578063a89ae4ba146105be57600080fd5b8063342094ba116101d25780634d4547c9116101965780634d4547c9146104a057806351c4d95e146104b3578063587f6b35146104e95780636352211e146104ff57806370a082311461051f578063715018a61461053f57600080fd5b8063342094ba1461040a57806337ea532d1461042a578063422d96c41461044057806342842e0e146104605780634c69c00f1461048057600080fd5b8063235883e311610219578063235883e31461034257806323b872dd1461036257806326b6ee9e1461038257806328077c1a146103a25780632b948c39146103dd57600080fd5b806301ffc9a71461025657806306fdde031461028b57806307d29188146102ad578063081812fc146102e8578063095ea7b314610320575b600080fd5b34801561026257600080fd5b50610276610271366004612494565b61088a565b60405190151581526020015b60405180910390f35b34801561029757600080fd5b506102a06108dc565b6040516102829190612501565b3480156102b957600080fd5b506102da6102c8366004612529565b60126020526000908152604090205481565b604051908152602001610282565b3480156102f457600080fd5b50610308610303366004612546565b61096e565b6040516001600160a01b039091168152602001610282565b34801561032c57600080fd5b5061034061033b36600461255f565b610995565b005b34801561034e57600080fd5b5061030861035d366004612529565b610aaf565b34801561036e57600080fd5b5061034061037d36600461258b565b610ad1565b34801561038e57600080fd5b5061034061039d36600461268b565b610b02565b3480156103ae57600080fd5b506102766103bd36600461255f565b601360209081526000928352604080842090915290825290205460ff1681565b3480156103e957600080fd5b506103fd6103f8366004612529565b610b22565b60405161028291906126d2565b34801561041657600080fd5b506102da610425366004612724565b610b8e565b34801561043657600080fd5b506102da600a5481565b34801561044c57600080fd5b506103fd61045b366004612546565b610d6b565b34801561046c57600080fd5b5061034061047b36600461258b565b610dce565b34801561048c57600080fd5b5061034061049b366004612529565b610de9565b6103406104ae36600461255f565b610e13565b3480156104bf57600080fd5b506102da6104ce366004612529565b6001600160a01b031660009081526012602052604090205490565b3480156104f557600080fd5b506102da60095481565b34801561050b57600080fd5b5061030861051a366004612546565b6114c2565b34801561052b57600080fd5b506102da61053a366004612529565b611522565b34801561054b57600080fd5b506103406115a8565b34801561056057600080fd5b50600e54610308906001600160a01b031681565b34801561058057600080fd5b506103086115bc565b34801561059557600080fd5b506102a06115d5565b3480156105aa57600080fd5b506103406105b9366004612822565b6115e4565b3480156105ca57600080fd5b50600d54610308906001600160a01b031681565b3480156105ea57600080fd5b506103406105f9366004612529565b6115f3565b34801561060a57600080fd5b5061034061061936600461285b565b611664565b34801561062a57600080fd5b506102a0610639366004612546565b61169c565b34801561064a57600080fd5b50610308610659366004612529565b6117ac565b34801561066a57600080fd5b50610340610679366004612529565b6117d5565b34801561068a57600080fd5b506106be610699366004612546565b601160205260009081526040902080546001909101546001600160a01b039091169082565b604080516001600160a01b039093168352602083019190915201610282565b3480156106e957600080fd5b506103406106f8366004612546565b6117ff565b34801561070957600080fd5b506102da600b5481565b34801561071f57600080fd5b5061034061072e3660046128db565b61180c565b34801561073f57600080fd5b5061079561074e366004612546565b604080518082019091526000808252602082015250600090815260116020908152604091829020825180840190935280546001600160a01b03168352600101549082015290565b6040805182516001600160a01b031681526020928301519281019290925201610282565b3480156107c557600080fd5b506102766107d4366004612900565b611896565b3480156107e557600080fd5b50600f54610308906001600160a01b031681565b34801561080557600080fd5b50610819610814366004612546565b6118c4565b60405161028295949392919061292e565b34801561083657600080fd5b50610340610845366004612529565b61198e565b34801561085657600080fd5b50600c54610308906001600160a01b031681565b34801561087657600080fd5b50610340610885366004612970565b611a07565b60006001600160e01b031982166380ac58cd60e01b14806108bb57506001600160e01b03198216635b5e139f60e01b145b806108d657506301ffc9a760e01b6001600160e01b03198316145b92915050565b6060600080546108eb90612992565b80601f016020809104026020016040519081016040528092919081815260200182805461091790612992565b80156109645780601f1061093957610100808354040283529160200191610964565b820191906000526020600020905b81548152906001019060200180831161094757829003601f168201915b5050505050905090565b600061097982611a78565b506000908152600460205260409020546001600160a01b031690565b60006109a0826114c2565b9050806001600160a01b0316836001600160a01b031603610a125760405162461bcd60e51b815260206004820152602160248201527f4552433732313a20617070726f76616c20746f2063757272656e74206f776e656044820152603960f91b60648201526084015b60405180910390fd5b336001600160a01b0382161480610a2e5750610a2e8133611896565b610aa05760405162461bcd60e51b815260206004820152603e60248201527f4552433732313a20617070726f76652063616c6c6572206973206e6f7420746f60448201527f6b656e206f776e6572206e6f7220617070726f76656420666f7220616c6c00006064820152608401610a09565b610aaa8383611ad7565b505050565b6001600160a01b0381166000908152601260205260408120546108d6906114c2565b610adb3382611b45565b610af75760405162461bcd60e51b8152600401610a09906129cc565b610aaa838383611ba3565b610b0a611d3f565b6000828152601060205260409020610aaa8282612a68565b6001600160a01b038116600090815260146020908152604091829020805483518184028101840190945280845260609392830182828015610b8257602002820191906000526020600020905b815481526020019060010190808311610b6e575b50505050509050919050565b6000610b98611d3f565b6000855111610be95760405162461bcd60e51b815260206004820152601a60248201527f4155543a204d657461646174612055524920697320656d7074790000000000006044820152606401610a09565b8280610bf3575083155b610c4d5760405162461bcd60e51b815260206004820152602560248201527f4155543a2053686f756c642062652066726565206966206e6f74207374616e64604482015264616c6f6e6560d81b6064820152608401610a09565b60098054906000610c5d83612b3e565b90915550506009546040805160c08101825287815260208082018890526001600160a01b038a168284015260016060830152861515608083015260a082018690526000848152601090915291909120815192935090918190610cbf9082612a68565b5060208281015160018301556040830151600283018054606086015160808701511515600160a81b0260ff60a81b19911515600160a01b026001600160a81b03199093166001600160a01b0390951694909417919091171691909117905560a08301518051610d34926003850192019061241e565b50506040518291507fcbbaf67d68fba51d618db755cf99150d3acd7bad449961ed3118fc81a21e23eb90600090a295945050505050565b600081815260106020908152604091829020600301805483518184028101840190945280845260609392830182828015610b825760200282019190600052602060002090815481526020019060010190808311610b6e5750505050509050919050565b610aaa83838360405180602001604052806000815250611664565b610df1611d3f565b600d80546001600160a01b0319166001600160a01b0392909216919091179055565b600260085403610e655760405162461bcd60e51b815260206004820152601f60248201527f5265656e7472616e637947756172643a207265656e7472616e742063616c6c006044820152606401610a09565b60026008819055506000826001600160a01b03166389f12ed96040518163ffffffff1660e01b8152600401602060405180830381865afa158015610ead573d6000803e3d6000fd5b505050506040513d601f19601f82011682018060405250810190610ed19190612b57565b604051630935e01b60e21b81523360048201529091506001600160a01b038216906324d7806c90602401602060405180830381865afa158015610f18573d6000803e3d6000fd5b505050506040513d601f19601f82011682018060405250810190610f3c9190612b74565b1515600114610f7c5760405162461bcd60e51b815260206004820152600c60248201526b2737ba1030b71030b236b4b760a11b6044820152606401610a09565b600082815260106020526040808220815160c08101909252805482908290610fa390612992565b80601f0160208091040260200160405190810160405280929190818152602001828054610fcf90612992565b801561101c5780601f10610ff15761010080835404028352916020019161101c565b820191906000526020600020905b815481529060010190602001808311610fff57829003601f168201915b5050509183525050600182015460208083019190915260028301546001600160a01b03811660408085019190915260ff600160a01b8304811615156060860152600160a81b9092049091161515608084015260038401805482518185028101850190935280835260a09094019391929091908301828280156110bd57602002820191906000526020600020905b8154815260200190600101908083116110a9575b5050505050815250509050806080015161110f5760405162461bcd60e51b815260206004820152601360248201527263616e2774206265207374616e64616c6f6e6560681b6044820152606401610a09565b80602001513410156111635760405162461bcd60e51b815260206004820152601c60248201527f4155543a20496e73756666696369656e742070726963652070616964000000006044820152606401610a09565b6001600160a01b038216600090815260136020908152604080832086845290915290205460ff16156111e55760405162461bcd60e51b815260206004820152602560248201527f4155543a20506c7567696e20616c726561647920696e7374616c6c6564206f6e604482015264206e6f766160d81b6064820152608401610a09565b6001600160a01b03821660009081526013602090815260408083208684529091528120805460ff1916600117905561121d8433611d9e565b6001600160a01b03841660009081526014602090815260408220805460018101825590835281832001839055600b549085015192935090916103e89161126291612b91565b61126c9190612bbe565b600c546040519192506001600160a01b03169082156108fc029083906000818181858888f193505050501580156112a7573d6000803e3d6000fd5b506000858152601060205260409020600201546001600160a01b03166108fc6112d08334612bd2565b6040518115909202916000818181858888f193505050501580156112f8573d6000803e3d6000fd5b50836001600160a01b031685837f561de58a0a6386fe4dc1556ab9cc4034ba90dfea72337f203d0f0a774aff142c60405160405180910390a4600082815260116020908152604080832080546001600160a01b0319166001600160a01b038b169081179091558084526012909252918290208490559051621526e560e51b8152600481018490526302a4dca090602401600060405180830381600087803b1580156113a257600080fd5b505af11580156113b6573d6000803e3d6000fd5b50505050856001600160a01b031663a1308f276040518163ffffffff1660e01b8152600401602060405180830381865afa1580156113f8573d6000803e3d6000fd5b505050506040513d601f19601f8201168201806040525081019061141c9190612be5565b60010361147f5760405163b5a8a3a160e01b81526001600160a01b03878116600483015285169063b5a8a3a190602401600060405180830381600087803b15801561146657600080fd5b505af115801561147a573d6000803e3d6000fd5b505050505b6040516001600160a01b0387169083907f91a697a20a7603d919a673d889a6263bca15841c5b84791bea2091bcefff95a890600090a35050600160085550505050565b6000818152600260205260408120546001600160a01b0316806108d65760405162461bcd60e51b8152602060048201526018602482015277115490cdcc8c4e881a5b9d985b1a59081d1bdad95b88125160421b6044820152606401610a09565b60006001600160a01b03821661158c5760405162461bcd60e51b815260206004820152602960248201527f4552433732313a2061646472657373207a65726f206973206e6f7420612076616044820152683634b21037bbb732b960b91b6064820152608401610a09565b506001600160a01b031660009081526003602052604090205490565b6115b0611d3f565b6115ba6000611e80565b565b60006115d06007546001600160a01b031690565b905090565b6060600180546108eb90612992565b6115ef338383611ed2565b5050565b6115fb611d3f565b600f54604080516001600160a01b03808516825290921660208301527f5306ce2f8e36872437fa0825af321e9ff5ac117d48c602f520dace01c1ac1324910160405180910390a1600f80546001600160a01b0319166001600160a01b0392909216919091179055565b61166e3383611b45565b61168a5760405162461bcd60e51b8152600401610a09906129cc565b61169684848484611fa0565b50505050565b60606116a782611a78565b600082815260066020526040812080546116c090612992565b80601f01602080910402602001604051908101604052809291908181526020018280546116ec90612992565b80156117395780601f1061170e57610100808354040283529160200191611739565b820191906000526020600020905b81548152906001019060200180831161171c57829003601f168201915b50505050509050600061175760408051602081019091526000815290565b90508051600003611769575092915050565b81511561179b578082604051602001611783929190612bfe565b60405160208183030381529060405292505050919050565b6117a484611fd3565b949350505050565b60006117b6611d3f565b50600f80546001600160a01b0319166001600160a01b03831617905590565b6117dd611d3f565b600c80546001600160a01b0319166001600160a01b0392909216919091179055565b611807611d3f565b600b55565b600082815260106020526040902060028101546001600160a01b031633146118765760405162461bcd60e51b815260206004820181905260248201527f4155543a204f6e6c792063726561746f722063616e20736574206163746976656044820152606401610a09565b6002018054911515600160a01b0260ff60a01b1990921691909117905550565b6001600160a01b03918216600090815260056020908152604080832093909416825291909152205460ff1690565b6010602052600090815260409020805481906118df90612992565b80601f016020809104026020016040519081016040528092919081815260200182805461190b90612992565b80156119585780601f1061192d57610100808354040283529160200191611958565b820191906000526020600020905b81548152906001019060200180831161193b57829003601f168201915b50505060018401546002909401549293926001600160a01b038116925060ff600160a01b820481169250600160a81b9091041685565b611996611d3f565b6001600160a01b0381166119fb5760405162461bcd60e51b815260206004820152602660248201527f4f776e61626c653a206e6577206f776e657220697320746865207a65726f206160448201526564647265737360d01b6064820152608401610a09565b611a0481611e80565b50565b600082815260106020526040902060028101546001600160a01b03163314611a715760405162461bcd60e51b815260206004820152601f60248201527f4155543a204f6e6c792063726561746f722063616e20736574207072696365006044820152606401610a09565b6001015550565b6000818152600260205260409020546001600160a01b0316611a045760405162461bcd60e51b8152602060048201526018602482015277115490cdcc8c4e881a5b9d985b1a59081d1bdad95b88125160421b6044820152606401610a09565b600081815260046020526040902080546001600160a01b0319166001600160a01b0384169081179091558190611b0c826114c2565b6001600160a01b03167f8c5be1e5ebec7d5bd14f71427d1e84f3dd0314c0f7b2291e5b200ac8c7c3b92560405160405180910390a45050565b600080611b51836114c2565b9050806001600160a01b0316846001600160a01b03161480611b785750611b788185611896565b806117a45750836001600160a01b0316611b918461096e565b6001600160a01b031614949350505050565b826001600160a01b0316611bb6826114c2565b6001600160a01b031614611c1a5760405162461bcd60e51b815260206004820152602560248201527f4552433732313a207472616e736665722066726f6d20696e636f72726563742060448201526437bbb732b960d91b6064820152608401610a09565b6001600160a01b038216611c7c5760405162461bcd60e51b8152602060048201526024808201527f4552433732313a207472616e7366657220746f20746865207a65726f206164646044820152637265737360e01b6064820152608401610a09565b611c87600082611ad7565b6001600160a01b0383166000908152600360205260408120805460019290611cb0908490612bd2565b90915550506001600160a01b0382166000908152600360205260408120805460019290611cde908490612c2d565b909155505060008181526002602052604080822080546001600160a01b0319166001600160a01b0386811691821790925591518493918716917fddf252ad1be2c89b69c2b068fc378daa952ba7f163c4a11628f55a4df523b3ef91a4505050565b33611d486115bc565b6001600160a01b0316146115ba5760405162461bcd60e51b815260206004820181905260248201527f4f776e61626c653a2063616c6c6572206973206e6f7420746865206f776e65726044820152606401610a09565b6000828152601060205260408120600a80549083611dbb83612b3e565b9091555050600a5460008181526011602052604090206001018590559150611de38383612047565b611e7982826000018054611df690612992565b80601f0160208091040260200160405190810160405280929190818152602001828054611e2290612992565b8015611e6f5780601f10611e4457610100808354040283529160200191611e6f565b820191906000526020600020905b815481529060010190602001808311611e5257829003601f168201915b5050505050612189565b5092915050565b600780546001600160a01b038381166001600160a01b0319831681179093556040519116919082907f8be0079c531659141344cd1fd0a4f28419497f9722a3daafe3b4186f6b6457e090600090a35050565b816001600160a01b0316836001600160a01b031603611f335760405162461bcd60e51b815260206004820152601960248201527f4552433732313a20617070726f766520746f2063616c6c6572000000000000006044820152606401610a09565b6001600160a01b03838116600081815260056020908152604080832094871680845294825291829020805460ff191686151590811790915591519182527f17307eab39ab6107e8899845ad3d59bd9653f200f220920489ca2b5937696c31910160405180910390a3505050565b611fab848484611ba3565b611fb78484848461221c565b6116965760405162461bcd60e51b8152600401610a0990612c40565b6060611fde82611a78565b6000611ff560408051602081019091526000815290565b905060008151116120155760405180602001604052806000815250612040565b8061201f8461231d565b604051602001612030929190612bfe565b6040516020818303038152906040525b9392505050565b6001600160a01b03821661209d5760405162461bcd60e51b815260206004820181905260248201527f4552433732313a206d696e7420746f20746865207a65726f20616464726573736044820152606401610a09565b6000818152600260205260409020546001600160a01b0316156121025760405162461bcd60e51b815260206004820152601c60248201527f4552433732313a20746f6b656e20616c7265616479206d696e746564000000006044820152606401610a09565b6001600160a01b038216600090815260036020526040812080546001929061212b908490612c2d565b909155505060008181526002602052604080822080546001600160a01b0319166001600160a01b03861690811790915590518392907fddf252ad1be2c89b69c2b068fc378daa952ba7f163c4a11628f55a4df523b3ef908290a45050565b6000828152600260205260409020546001600160a01b03166122045760405162461bcd60e51b815260206004820152602e60248201527f45524337323155524953746f726167653a2055524920736574206f66206e6f6e60448201526d32bc34b9ba32b73a103a37b5b2b760911b6064820152608401610a09565b6000828152600660205260409020610aaa8282612a68565b60006001600160a01b0384163b1561231257604051630a85bd0160e11b81526001600160a01b0385169063150b7a0290612260903390899088908890600401612c92565b6020604051808303816000875af192505050801561229b575060408051601f3d908101601f1916820190925261229891810190612ccf565b60015b6122f8573d8080156122c9576040519150601f19603f3d011682016040523d82523d6000602084013e6122ce565b606091505b5080516000036122f05760405162461bcd60e51b8152600401610a0990612c40565b805181602001fd5b6001600160e01b031916630a85bd0160e11b1490506117a4565b506001949350505050565b6060816000036123445750506040805180820190915260018152600360fc1b602082015290565b8160005b811561236e578061235881612b3e565b91506123679050600a83612bbe565b9150612348565b60008167ffffffffffffffff811115612389576123896125cc565b6040519080825280601f01601f1916602001820160405280156123b3576020820181803683370190505b5090505b84156117a4576123c8600183612bd2565b91506123d5600a86612cec565b6123e0906030612c2d565b60f81b8183815181106123f5576123f5612d00565b60200101906001600160f81b031916908160001a905350612417600a86612bbe565b94506123b7565b828054828255906000526020600020908101928215612459579160200282015b8281111561245957825182559160200191906001019061243e565b50612465929150612469565b5090565b5b80821115612465576000815560010161246a565b6001600160e01b031981168114611a0457600080fd5b6000602082840312156124a657600080fd5b81356120408161247e565b60005b838110156124cc5781810151838201526020016124b4565b50506000910152565b600081518084526124ed8160208601602086016124b1565b601f01601f19169290920160200192915050565b60208152600061204060208301846124d5565b6001600160a01b0381168114611a0457600080fd5b60006020828403121561253b57600080fd5b813561204081612514565b60006020828403121561255857600080fd5b5035919050565b6000806040838503121561257257600080fd5b823561257d81612514565b946020939093013593505050565b6000806000606084860312156125a057600080fd5b83356125ab81612514565b925060208401356125bb81612514565b929592945050506040919091013590565b634e487b7160e01b600052604160045260246000fd5b604051601f8201601f1916810167ffffffffffffffff8111828210171561260b5761260b6125cc565b604052919050565b600067ffffffffffffffff83111561262d5761262d6125cc565b612640601f8401601f19166020016125e2565b905082815283838301111561265457600080fd5b828260208301376000602084830101529392505050565b600082601f83011261267c57600080fd5b61204083833560208501612613565b6000806040838503121561269e57600080fd5b82359150602083013567ffffffffffffffff8111156126bc57600080fd5b6126c88582860161266b565b9150509250929050565b6020808252825182820181905260009190848201906040850190845b8181101561270a578351835292840192918401916001016126ee565b50909695505050505050565b8015158114611a0457600080fd5b600080600080600060a0868803121561273c57600080fd5b853561274781612514565b945060208681013567ffffffffffffffff8082111561276557600080fd5b6127718a838b0161266b565b9650604089013595506060890135915061278a82612716565b909350608088013590808211156127a057600080fd5b818901915089601f8301126127b457600080fd5b8135818111156127c6576127c66125cc565b8060051b91506127d78483016125e2565b818152918301840191848101908c8411156127f157600080fd5b938501935b8385101561280f578435825293850193908501906127f6565b8096505050505050509295509295909350565b6000806040838503121561283557600080fd5b823561284081612514565b9150602083013561285081612716565b809150509250929050565b6000806000806080858703121561287157600080fd5b843561287c81612514565b9350602085013561288c81612514565b925060408501359150606085013567ffffffffffffffff8111156128af57600080fd5b8501601f810187136128c057600080fd5b6128cf87823560208401612613565b91505092959194509250565b600080604083850312156128ee57600080fd5b82359150602083013561285081612716565b6000806040838503121561291357600080fd5b823561291e81612514565b9150602083013561285081612514565b60a08152600061294160a08301886124d5565b6020830196909652506001600160a01b0393909316604084015290151560608301521515608090910152919050565b6000806040838503121561298357600080fd5b50508035926020909101359150565b600181811c908216806129a657607f821691505b6020821081036129c657634e487b7160e01b600052602260045260246000fd5b50919050565b6020808252602e908201527f4552433732313a2063616c6c6572206973206e6f7420746f6b656e206f776e6560408201526d1c881b9bdc88185c1c1c9bdd995960921b606082015260800190565b601f821115610aaa57600081815260208120601f850160051c81016020861015612a415750805b601f850160051c820191505b81811015612a6057828155600101612a4d565b505050505050565b815167ffffffffffffffff811115612a8257612a826125cc565b612a9681612a908454612992565b84612a1a565b602080601f831160018114612acb5760008415612ab35750858301515b600019600386901b1c1916600185901b178555612a60565b600085815260208120601f198616915b82811015612afa57888601518255948401946001909101908401612adb565b5085821015612b185787850151600019600388901b60f8161c191681555b5050505050600190811b01905550565b634e487b7160e01b600052601160045260246000fd5b600060018201612b5057612b50612b28565b5060010190565b600060208284031215612b6957600080fd5b815161204081612514565b600060208284031215612b8657600080fd5b815161204081612716565b80820281158282048414176108d6576108d6612b28565b634e487b7160e01b600052601260045260246000fd5b600082612bcd57612bcd612ba8565b500490565b818103818111156108d6576108d6612b28565b600060208284031215612bf757600080fd5b5051919050565b60008351612c108184602088016124b1565b835190830190612c248183602088016124b1565b01949350505050565b808201808211156108d6576108d6612b28565b60208082526032908201527f4552433732313a207472616e7366657220746f206e6f6e20455243373231526560408201527131b2b4bb32b91034b6b83632b6b2b73a32b960711b606082015260800190565b6001600160a01b0385811682528416602082015260408101839052608060608201819052600090612cc5908301846124d5565b9695505050505050565b600060208284031215612ce157600080fd5b81516120408161247e565b600082612cfb57612cfb612ba8565b500690565b634e487b7160e01b600052603260045260246000fdfea2646970667358221220c0e6613ad5db6c156ea47ef4be636cb1fe7183449cc0473819f6302543ba009a64736f6c63430008130033",
    "linkReferences": {}
  },
  "methodIdentifiers": {
    "_numPluginDefinitions()": "587f6b35",
    "_numPluginsMinted()": "37ea532d",
    "addPluginDefinition(address,string,uint256,bool,uint256[])": "342094ba",
    "addPluginToDAO(address,uint256)": "4d4547c9",
    "approve(address,uint256)": "095ea7b3",
    "balanceOf(address)": "70a08231",
    "defaultLRAddr()": "f0b7832a",
    "editPluginDefinitionMetadata(uint256,string)": "26b6ee9e",
    "feeBase1000()": "e07208c4",
    "feeReciever()": "f61db740",
    "getApproved(uint256)": "081812fc",
    "getDependencyModulesForPlugin(uint256)": "422d96c4",
    "getOwnerOfPlugin(address)": "235883e3",
    "getPluginIdsByDAO(address)": "2b948c39",
    "getPluginInstanceByTokenId(uint256)": "e832df91",
    "isApprovedForAll(address,address)": "e985e9c5",
    "modulesRegistry()": "82accae8",
    "name()": "06fdde03",
    "oracleAddress()": "a89ae4ba",
    "owner()": "8da5cb5b",
    "ownerOf(uint256)": "6352211e",
    "pluginDefinitionsById(uint256)": "f1418ee9",
    "pluginDefinitionsInstalledByDAO(address,uint256)": "28077c1a",
    "pluginInstanceByTokenId(uint256)": "d5aff65f",
    "renounceOwnership()": "715018a6",
    "safeTransferFrom(address,address,uint256)": "42842e0e",
    "safeTransferFrom(address,address,uint256,bytes)": "b88d4fde",
    "setActive(uint256,bool)": "e60a955d",
    "setApprovalForAll(address,bool)": "a22cb465",
    "setDefaulLRAddress(address)": "a9810f45",
    "setDefaultReputationAlgo(address)": "d2cdf8f0",
    "setFeeBase1000(uint256)": "d9973726",
    "setFeeReciever(address)": "d436d0ef",
    "setOracleAddress(address)": "4c69c00f",
    "setPrice(uint256,uint256)": "f7d97577",
    "supportsInterface(bytes4)": "01ffc9a7",
    "symbol()": "95d89b41",
    "tokenIdByPluginAddress(address)": "07d29188",
    "tokenIdFromAddress(address)": "51c4d95e",
    "tokenURI(uint256)": "c87b56dd",
    "transferFrom(address,address,uint256)": "23b872dd",
    "transferOwnership(address)": "f2fde38b"
  },
  "id": 79
}