{
  "abi": [
    {
      "inputs": [
        {
          "internalType": "address",
          "name": "trustedForewarder",
          "type": "address"
        },
        {
          "internalType": "address",
          "name": "autIDAddr_",
          "type": "address"
        },
        {
          "internalType": "address",
          "name": "novaLogic",
          "type": "address"
        },
        {
          "internalType": "address",
          "name": "pluginRegistry_",
          "type": "address"
        }
      ],
      "stateMutability": "nonpayable",
      "type": "constructor"
    },
    {
      "inputs": [],
      "name": "AlreadyDeployedANova",
      "type": "error"
    },
    {
      "inputs": [],
      "name": "Unallowed",
      "type": "error"
    },
    {
      "anonymous": false,
      "inputs": [
        {
          "indexed": false,
          "internalType": "address",
          "name": "",
          "type": "address"
        }
      ],
      "name": "NovaDeployed",
      "type": "event"
    },
    {
      "anonymous": false,
      "inputs": [
        {
          "indexed": true,
          "internalType": "address",
          "name": "previousOwner",
          "type": "address"
        },
        {
          "indexed": true,
          "internalType": "address",
          "name": "newOwner",
          "type": "address"
        }
      ],
      "name": "OwnershipTransferred",
      "type": "event"
    },
    {
      "inputs": [],
      "name": "allowlist",
      "outputs": [
        {
          "internalType": "contract IAllowlist",
          "name": "",
          "type": "address"
        }
      ],
      "stateMutability": "view",
      "type": "function"
    },
    {
      "inputs": [],
      "name": "autIDAddr",
      "outputs": [
        {
          "internalType": "address",
          "name": "",
          "type": "address"
        }
      ],
      "stateMutability": "view",
      "type": "function"
    },
    {
      "inputs": [
        {
          "internalType": "uint256",
          "name": "market",
          "type": "uint256"
        },
        {
          "internalType": "string",
          "name": "metadata",
          "type": "string"
        },
        {
          "internalType": "uint256",
          "name": "commitment",
          "type": "uint256"
        }
      ],
      "name": "deployNova",
      "outputs": [
        {
          "internalType": "address",
          "name": "nova",
          "type": "address"
        }
      ],
      "stateMutability": "nonpayable",
      "type": "function"
    },
    {
      "inputs": [
        {
          "internalType": "address",
          "name": "deployer",
          "type": "address"
        }
      ],
      "name": "getNovaByDeployer",
      "outputs": [
        {
          "internalType": "address[]",
          "name": "",
          "type": "address[]"
        }
      ],
      "stateMutability": "view",
      "type": "function"
    },
    {
      "inputs": [],
      "name": "getNovas",
      "outputs": [
        {
          "internalType": "address[]",
          "name": "",
          "type": "address[]"
        }
      ],
      "stateMutability": "view",
      "type": "function"
    },
    {
      "inputs": [],
      "name": "getTrustedForwarder",
      "outputs": [
        {
          "internalType": "address",
          "name": "forwarder",
          "type": "address"
        }
      ],
      "stateMutability": "view",
      "type": "function"
    },
    {
      "inputs": [
        {
          "internalType": "address",
          "name": "forwarder",
          "type": "address"
        }
      ],
      "name": "isTrustedForwarder",
      "outputs": [
        {
          "internalType": "bool",
          "name": "",
          "type": "bool"
        }
      ],
      "stateMutability": "view",
      "type": "function"
    },
    {
      "inputs": [
        {
          "internalType": "uint256",
          "name": "",
          "type": "uint256"
        }
      ],
      "name": "novas",
      "outputs": [
        {
          "internalType": "address",
          "name": "",
          "type": "address"
        }
      ],
      "stateMutability": "view",
      "type": "function"
    },
    {
      "inputs": [],
      "name": "owner",
      "outputs": [
        {
          "internalType": "address",
          "name": "",
          "type": "address"
        }
      ],
      "stateMutability": "view",
      "type": "function"
    },
    {
      "inputs": [],
      "name": "pluginRegistry",
      "outputs": [
        {
          "internalType": "address",
          "name": "",
          "type": "address"
        }
      ],
      "stateMutability": "view",
      "type": "function"
    },
    {
      "inputs": [],
      "name": "renounceOwnership",
      "outputs": [],
      "stateMutability": "nonpayable",
      "type": "function"
    },
    {
      "inputs": [
        {
          "internalType": "address",
          "name": "newAllowlist",
          "type": "address"
        }
      ],
      "name": "setAllowlistAddress",
      "outputs": [],
      "stateMutability": "nonpayable",
      "type": "function"
    },
    {
      "inputs": [
        {
          "internalType": "address",
          "name": "newOwner",
          "type": "address"
        }
      ],
      "name": "tranferBeaconOwnership",
      "outputs": [],
      "stateMutability": "nonpayable",
      "type": "function"
    },
    {
      "inputs": [
        {
          "internalType": "address",
          "name": "newOwner",
          "type": "address"
        }
      ],
      "name": "transferOwnership",
      "outputs": [],
      "stateMutability": "nonpayable",
      "type": "function"
    },
    {
      "inputs": [
        {
          "internalType": "address",
          "name": "newLogic",
          "type": "address"
        }
      ],
      "name": "upgradeNova",
      "outputs": [],
      "stateMutability": "nonpayable",
      "type": "function"
    },
    {
      "inputs": [],
      "name": "upgradeableBeacon",
      "outputs": [
        {
          "internalType": "contract UpgradeableBeacon",
          "name": "",
          "type": "address"
        }
      ],
      "stateMutability": "view",
      "type": "function"
    }
  ],
  "bytecode": {
    "object": "0x60e06040523480156200001157600080fd5b5060405162001f9c38038062001f9c83398101604081905262000034916200042f565b62000048620000426200036b565b6200037c565b6001600160a01b038416620000b95760405162461bcd60e51b815260206004820152602c60248201527f4e6f766152656769737472793a2074727573746564466f72657761726465722060448201526b61646472657373207a65726f60a01b60648201526084015b60405180910390fd5b6001600160a01b038316620001115760405162461bcd60e51b815260206004820181905260248201527f4e6f766152656769737472793a2041757449442061646472657373207a65726f6044820152606401620000b0565b6001600160a01b038216620001775760405162461bcd60e51b815260206004820152602560248201527f4e6f766152656769737472793a204e6f7661206c6f6769632061646472657373604482015264207a65726f60d81b6064820152608401620000b0565b6001600160a01b038116620001e15760405162461bcd60e51b815260206004820152602960248201527f4e6f766152656769737472793a20506c7567696e52656769737472792061646460448201526872657373207a65726f60b81b6064820152608401620000b0565b6001600160a01b03808416608052811660a052600580546001600160a01b031916331790556040518290620002169062000404565b6001600160a01b039091168152602001604051809103906000f08015801562000243573d6000803e3d6000fd5b506001600160a01b031660c0526200027784600080546001600160a01b0319166001600160a01b0392909216919091179055565b806001600160a01b03166382accae86040518163ffffffff1660e01b8152600401602060405180830381865afa158015620002b6573d6000803e3d6000fd5b505050506040513d601f19601f82011682018060405250810190620002dc91906200048c565b6001600160a01b031663d36ac27c6040518163ffffffff1660e01b8152600401602060405180830381865afa1580156200031a573d6000803e3d6000fd5b505050506040513d601f19601f820116820180604052508101906200034091906200048c565b600480546001600160a01b0319166001600160a01b039290921691909117905550620004b192505050565b600062000377620003ce565b905090565b600180546001600160a01b038381166001600160a01b0319831681179093556040519116919082907f8be0079c531659141344cd1fd0a4f28419497f9722a3daafe3b4186f6b6457e090600090a35050565b600060143610801590620003ec57506000546001600160a01b031633145b15620003ff575060131936013560601c90565b503390565b6104be8062001ade83390190565b80516001600160a01b03811681146200042a57600080fd5b919050565b600080600080608085870312156200044657600080fd5b620004518562000412565b9350620004616020860162000412565b9250620004716040860162000412565b9150620004816060860162000412565b905092959194509250565b6000602082840312156200049f57600080fd5b620004aa8262000412565b9392505050565b60805160a05160c0516115d36200050b600039600081816102700152818161036d015281816104b4015281816105bc0152610a5201526000818161019f015261054f015260008181610298015261052b01526115d36000f3fe60806040523480156200001157600080fd5b5060043610620001155760003560e01c8063bcae17c211620000a3578063d2609520116200006e578063d2609520146200026a578063de90ccca1462000292578063e3d854a314620002ba578063f2fde38b14620002d157600080fd5b8063bcae17c21462000213578063ce1b815f146200022a578063cf349d89146200023c578063cf81e754146200025357600080fd5b806341dcea9111620000e457806341dcea911462000199578063572b6c0514620001c1578063715018a614620001f75780638da5cb5b146200020157600080fd5b806308023018146200011a57806328e6315314620001335780632b47da521462000155578063414af6561462000182575b600080fd5b620001316200012b36600462000c63565b620002e8565b005b6200013d620003cf565b6040516200014c919062000c8a565b60405180910390f35b60045462000169906001600160a01b031681565b6040516001600160a01b0390911681526020016200014c565b620001316200019336600462000c63565b62000433565b620001697f000000000000000000000000000000000000000000000000000000000000000081565b620001e6620001d236600462000c63565b6000546001600160a01b0391821691161490565b60405190151581526020016200014c565b62000131620004e4565b6001546001600160a01b031662000169565b620001696200022436600462000cef565b620004fc565b6000546001600160a01b031662000169565b6200013d6200024d36600462000c63565b620006db565b620001316200026436600462000c63565b62000753565b620001697f000000000000000000000000000000000000000000000000000000000000000081565b620001697f000000000000000000000000000000000000000000000000000000000000000081565b62000169620002cb36600462000dbd565b6200077f565b62000131620002e236600462000c63565b620007aa565b620002f262000829565b6001600160a01b0381166200034e5760405162461bcd60e51b815260206004820152601a60248201527f4e6f766152656769737472793a2061646472657373207a65726f00000000000060448201526064015b60405180910390fd5b604051631b2ce7f360e11b81526001600160a01b0382811660048301527f00000000000000000000000000000000000000000000000000000000000000001690633659cfe6906024015b600060405180830381600087803b158015620003b357600080fd5b505af1158015620003c8573d6000803e3d6000fd5b5050505050565b606060038054806020026020016040519081016040528092919081815260200182805480156200042957602002820191906000526020600020905b81546001600160a01b031681526001909101906020018083116200040a575b5050505050905090565b6200043d62000829565b6001600160a01b038116620004955760405162461bcd60e51b815260206004820152601a60248201527f4e6f766152656769737472793a2061646472657373207a65726f000000000000604482015260640162000345565b60405163f2fde38b60e01b81526001600160a01b0382811660048301527f0000000000000000000000000000000000000000000000000000000000000000169063f2fde38b9060240162000398565b620004ee62000829565b620004fa6000620008a7565b565b60006200050b848484620008f9565b6200051562000a29565b60006336ee835760e21b6200052962000bf8565b7f00000000000000000000000000000000000000000000000000000000000000008787877f0000000000000000000000000000000000000000000000000000000000000000604051602401620005859695949392919062000e1f565b604051602081830303815290604052906001600160e01b0319166020820180516001600160e01b03838183161783525050505090507f000000000000000000000000000000000000000000000000000000000000000081604051620005ea9062000c3f565b620005f792919062000e6c565b604051809103906000f08015801562000614573d6000803e3d6000fd5b509150600260006200062562000bf8565b6001600160a01b039081168252602080830193909352604091820160009081208054600180820183559183528583200180546001600160a01b03199081169489169485179091556003805492830181559092527fc2575a0e9e593c00f959f8c92f12db2869c3395a3b0502d05e2516446f71f85b0180549091168217905590519081527fafab1707766bafe96926219991cab2ba53caeb9318740895c42aff8b9e3ba22b910160405180910390a1509392505050565b6001600160a01b0381166000908152600260209081526040918290208054835181840281018401909452808452606093928301828280156200074757602002820191906000526020600020905b81546001600160a01b0316815260019091019060200180831162000728575b50505050509050919050565b6200075d62000829565b600480546001600160a01b0319166001600160a01b0392909216919091179055565b600381815481106200079057600080fd5b6000918252602090912001546001600160a01b0316905081565b620007b462000829565b6001600160a01b0381166200081b5760405162461bcd60e51b815260206004820152602660248201527f4f776e61626c653a206e6577206f776e657220697320746865207a65726f206160448201526564647265737360d01b606482015260840162000345565b6200082681620008a7565b50565b6200083362000bf8565b6001600160a01b03166200084f6001546001600160a01b031690565b6001600160a01b031614620004fa5760405162461bcd60e51b815260206004820181905260248201527f4f776e61626c653a2063616c6c6572206973206e6f7420746865206f776e6572604482015260640162000345565b600180546001600160a01b038381166001600160a01b0319831681179093556040519116919082907f8be0079c531659141344cd1fd0a4f28419497f9722a3daafe3b4186f6b6457e090600090a35050565b6000831180156200090a5750600483105b620009635760405162461bcd60e51b815260206004820152602260248201527f4e6f766152656769737472793a20696e76616c6964206d61726b65742076616c604482015261756560f01b606482015260840162000345565b8151600003620009b65760405162461bcd60e51b815260206004820152601c60248201527f4e6f766152656769737472793a206d6574616461746120656d70747900000000604482015260640162000345565b600081118015620009c75750600b81105b62000a245760405162461bcd60e51b815260206004820152602660248201527f4e6f766152656769737472793a20696e76616c696420636f6d6d69746d656e746044820152652076616c756560d01b606482015260840162000345565b505050565b6005546001600160a01b031662000a3f62000bf8565b6001600160a01b0316148062000af357507f00000000000000000000000000000000000000000000000000000000000000006001600160a01b0316638da5cb5b6040518163ffffffff1660e01b8152600401602060405180830381865afa15801562000aaf573d6000803e3d6000fd5b505050506040513d601f19601f8201168201806040525081019062000ad5919062000e9a565b6001600160a01b031662000ae862000bf8565b6001600160a01b0316145b1562000afb57565b6004546001600160a01b031615620004fa576004546001600160a01b031663babcc53962000b2862000bf8565b6040516001600160e01b031960e084901b1681526001600160a01b039091166004820152602401602060405180830381865afa15801562000b6d573d6000803e3d6000fd5b505050506040513d601f19601f8201168201806040525081019062000b93919062000eba565b62000bb15760405163e087598d60e01b815260040160405180910390fd5b6002600062000bbf62000bf8565b6001600160a01b0316815260208101919091526040016000205415620004fa57604051631834f49160e21b815260040160405180910390fd5b600062000c0462000c09565b905090565b60006014361080159062000c2757506000546001600160a01b031633145b1562000c3a575060131936013560601c90565b503390565b6106bf8062000edf83390190565b6001600160a01b03811681146200082657600080fd5b60006020828403121562000c7657600080fd5b813562000c838162000c4d565b9392505050565b6020808252825182820181905260009190848201906040850190845b8181101562000ccd5783516001600160a01b03168352928401929184019160010162000ca6565b50909695505050505050565b634e487b7160e01b600052604160045260246000fd5b60008060006060848603121562000d0557600080fd5b83359250602084013567ffffffffffffffff8082111562000d2557600080fd5b818601915086601f83011262000d3a57600080fd5b81358181111562000d4f5762000d4f62000cd9565b604051601f8201601f19908116603f0116810190838211818310171562000d7a5762000d7a62000cd9565b8160405282815289602084870101111562000d9457600080fd5b826020860160208301376000602084830101528096505050505050604084013590509250925092565b60006020828403121562000dd057600080fd5b5035919050565b6000815180845260005b8181101562000dff5760208185018101518683018201520162000de1565b506000602082860101526020601f19601f83011685010191505092915050565b600060018060a01b038089168352808816602084015286604084015260c0606084015262000e5160c084018762000dd7565b60808401959095529290921660a09091015250949350505050565b6001600160a01b038316815260406020820181905260009062000e929083018462000dd7565b949350505050565b60006020828403121562000ead57600080fd5b815162000c838162000c4d565b60006020828403121562000ecd57600080fd5b8151801515811462000c8357600080fdfe60806040526040516106bf3803806106bf83398101604081905261002291610413565b61002e82826000610035565b505061053d565b61003e836100f6565b6040516001600160a01b038416907f1cf3b03a6cf19fa2baba4df148e9dcabedea7f8a5c07840e207e5c089be95d3e90600090a260008251118061007f5750805b156100f1576100ef836001600160a01b0316635c60da1b6040518163ffffffff1660e01b8152600401602060405180830381865afa1580156100c5573d6000803e3d6000fd5b505050506040513d601f19601f820116820180604052508101906100e991906104d3565b8361027a565b505b505050565b6001600160a01b0381163b6101605760405162461bcd60e51b815260206004820152602560248201527f455243313936373a206e657720626561636f6e206973206e6f74206120636f6e6044820152641d1c9858dd60da1b60648201526084015b60405180910390fd5b6101d4816001600160a01b0316635c60da1b6040518163ffffffff1660e01b8152600401602060405180830381865afa1580156101a1573d6000803e3d6000fd5b505050506040513d601f19601f820116820180604052508101906101c591906104d3565b6001600160a01b03163b151590565b6102395760405162461bcd60e51b815260206004820152603060248201527f455243313936373a20626561636f6e20696d706c656d656e746174696f6e206960448201526f1cc81b9bdd08184818dbdb9d1c9858dd60821b6064820152608401610157565b7fa3f0ad74e5423aebfd80d3ef4346578335a9a72aeaee59ff6cb3582b35133d5080546001600160a01b0319166001600160a01b0392909216919091179055565b606061029f8383604051806060016040528060278152602001610698602791396102a6565b9392505050565b60606001600160a01b0384163b61030e5760405162461bcd60e51b815260206004820152602660248201527f416464726573733a2064656c65676174652063616c6c20746f206e6f6e2d636f6044820152651b9d1c9858dd60d21b6064820152608401610157565b600080856001600160a01b03168560405161032991906104ee565b600060405180830381855af49150503d8060008114610364576040519150601f19603f3d011682016040523d82523d6000602084013e610369565b606091505b50909250905061037a828286610384565b9695505050505050565b6060831561039357508161029f565b8251156103a35782518084602001fd5b8160405162461bcd60e51b8152600401610157919061050a565b80516001600160a01b03811681146103d457600080fd5b919050565b634e487b7160e01b600052604160045260246000fd5b60005b8381101561040a5781810151838201526020016103f2565b50506000910152565b6000806040838503121561042657600080fd5b61042f836103bd565b60208401519092506001600160401b038082111561044c57600080fd5b818501915085601f83011261046057600080fd5b815181811115610472576104726103d9565b604051601f8201601f19908116603f0116810190838211818310171561049a5761049a6103d9565b816040528281528860208487010111156104b357600080fd5b6104c48360208301602088016103ef565b80955050505050509250929050565b6000602082840312156104e557600080fd5b61029f826103bd565b600082516105008184602087016103ef565b9190910192915050565b60208152600082518060208401526105298160408501602087016103ef565b601f01601f19169190910160400192915050565b61014c8061054c6000396000f3fe60806040523661001357610011610017565b005b6100115b610027610022610029565b6100c2565b565b600061005c7fa3f0ad74e5423aebfd80d3ef4346578335a9a72aeaee59ff6cb3582b35133d50546001600160a01b031690565b6001600160a01b0316635c60da1b6040518163ffffffff1660e01b8152600401602060405180830381865afa158015610099573d6000803e3d6000fd5b505050506040513d601f19601f820116820180604052508101906100bd91906100e6565b905090565b3660008037600080366000845af43d6000803e8080156100e1573d6000f35b3d6000fd5b6000602082840312156100f857600080fd5b81516001600160a01b038116811461010f57600080fd5b939250505056fea2646970667358221220ef1b7802b21f3217943f6e3337ff4eb889601d02b0b8dcd50ce78288f5118aa664736f6c63430008130033416464726573733a206c6f772d6c6576656c2064656c65676174652063616c6c206661696c6564a2646970667358221220840f1e6fc55debd085185ee25fcc2c04e95ab1a23980e11984d8bb3658a5612164736f6c63430008130033608060405234801561001057600080fd5b506040516104be3803806104be83398101604081905261002f9161013a565b61003833610047565b61004181610097565b5061016a565b600080546001600160a01b038381166001600160a01b0319831681178455604051919092169283917f8be0079c531659141344cd1fd0a4f28419497f9722a3daafe3b4186f6b6457e09190a35050565b6001600160a01b0381163b6101185760405162461bcd60e51b815260206004820152603360248201527f5570677261646561626c65426561636f6e3a20696d706c656d656e746174696f60448201527f6e206973206e6f74206120636f6e747261637400000000000000000000000000606482015260840160405180910390fd5b600180546001600160a01b0319166001600160a01b0392909216919091179055565b60006020828403121561014c57600080fd5b81516001600160a01b038116811461016357600080fd5b9392505050565b610345806101796000396000f3fe608060405234801561001057600080fd5b50600436106100575760003560e01c80633659cfe61461005c5780635c60da1b14610071578063715018a61461009a5780638da5cb5b146100a2578063f2fde38b146100b3575b600080fd5b61006f61006a3660046102df565b6100c6565b005b6001546001600160a01b03165b6040516001600160a01b03909116815260200160405180910390f35b61006f61010e565b6000546001600160a01b031661007e565b61006f6100c13660046102df565b610122565b6100ce6101a0565b6100d7816101fa565b6040516001600160a01b038216907fbc7cd75a20ee27fd9adebab32041f755214dbc6bffa90cc0225b39da2e5c2d3b90600090a250565b6101166101a0565b610120600061028f565b565b61012a6101a0565b6001600160a01b0381166101945760405162461bcd60e51b815260206004820152602660248201527f4f776e61626c653a206e6577206f776e657220697320746865207a65726f206160448201526564647265737360d01b60648201526084015b60405180910390fd5b61019d8161028f565b50565b6000546001600160a01b031633146101205760405162461bcd60e51b815260206004820181905260248201527f4f776e61626c653a2063616c6c6572206973206e6f7420746865206f776e6572604482015260640161018b565b6001600160a01b0381163b61026d5760405162461bcd60e51b815260206004820152603360248201527f5570677261646561626c65426561636f6e3a20696d706c656d656e746174696f6044820152721b881a5cc81b9bdd08184818dbdb9d1c9858dd606a1b606482015260840161018b565b600180546001600160a01b0319166001600160a01b0392909216919091179055565b600080546001600160a01b038381166001600160a01b0319831681178455604051919092169283917f8be0079c531659141344cd1fd0a4f28419497f9722a3daafe3b4186f6b6457e09190a35050565b6000602082840312156102f157600080fd5b81356001600160a01b038116811461030857600080fd5b939250505056fea2646970667358221220ffa0dd9ce2fef20cb4144b753c6d9a311fbd687533b07a29d75a33e1e5f90cc264736f6c63430008130033",
    "linkReferences": {}
  },
  "methodIdentifiers": {
    "allowlist()": "2b47da52",
    "autIDAddr()": "de90ccca",
    "deployNova(uint256,string,uint256)": "bcae17c2",
    "getNovaByDeployer(address)": "cf349d89",
    "getNovas()": "28e63153",
    "getTrustedForwarder()": "ce1b815f",
    "isTrustedForwarder(address)": "572b6c05",
    "novas(uint256)": "e3d854a3",
    "owner()": "8da5cb5b",
    "pluginRegistry()": "41dcea91",
    "renounceOwnership()": "715018a6",
    "setAllowlistAddress(address)": "cf81e754",
    "tranferBeaconOwnership(address)": "414af656",
    "transferOwnership(address)": "f2fde38b",
    "upgradeNova(address)": "08023018",
    "upgradeableBeacon()": "d2609520"
  },
  "id": 33
}