{
  "abi": [
    {
      "inputs": [
        {
          "internalType": "address",
          "name": "trustedForwarder",
          "type": "address"
        },
        {
          "internalType": "address",
          "name": "_autIDAddr",
          "type": "address"
        },
        {
          "internalType": "address",
          "name": "_novaFactory",
          "type": "address"
        },
        {
          "internalType": "address",
          "name": "_pluginRegistry",
          "type": "address"
        }
      ],
      "stateMutability": "nonpayable",
      "type": "constructor"
    },
    {
      "inputs": [],
      "name": "OnlyDeployer",
      "type": "error"
    },
    {
      "inputs": [
        {
          "internalType": "string",
          "name": "",
          "type": "string"
        }
      ],
      "name": "Unallowed",
      "type": "error"
    },
    {
      "anonymous": false,
      "inputs": [
        {
          "indexed": false,
          "internalType": "address",
          "name": "nova",
          "type": "address"
        }
      ],
      "name": "NovaDeployed",
      "type": "event"
    },
    {
      "inputs": [],
      "name": "autIDAddr",
      "outputs": [
        {
          "internalType": "address",
          "name": "",
          "type": "address"
        }
      ],
      "stateMutability": "view",
      "type": "function"
    },
    {
      "inputs": [
        {
          "internalType": "uint256",
          "name": "market",
          "type": "uint256"
        },
        {
          "internalType": "string",
          "name": "metadata",
          "type": "string"
        },
        {
          "internalType": "uint256",
          "name": "commitment",
          "type": "uint256"
        }
      ],
      "name": "deployNova",
      "outputs": [
        {
          "internalType": "address",
          "name": "_nova",
          "type": "address"
        }
      ],
      "stateMutability": "nonpayable",
      "type": "function"
    },
    {
      "inputs": [
        {
          "internalType": "address",
          "name": "deployer",
          "type": "address"
        }
      ],
      "name": "getNovaByDeployer",
      "outputs": [
        {
          "internalType": "address[]",
          "name": "",
          "type": "address[]"
        }
      ],
      "stateMutability": "view",
      "type": "function"
    },
    {
      "inputs": [],
      "name": "getNovas",
      "outputs": [
        {
          "internalType": "address[]",
          "name": "",
          "type": "address[]"
        }
      ],
      "stateMutability": "view",
      "type": "function"
    },
    {
      "inputs": [],
      "name": "getTrustedForwarder",
      "outputs": [
        {
          "internalType": "address",
          "name": "forwarder",
          "type": "address"
        }
      ],
      "stateMutability": "view",
      "type": "function"
    },
    {
      "inputs": [
        {
          "internalType": "address",
          "name": "forwarder",
          "type": "address"
        }
      ],
      "name": "isTrustedForwarder",
      "outputs": [
        {
          "internalType": "bool",
          "name": "",
          "type": "bool"
        }
      ],
      "stateMutability": "view",
      "type": "function"
    },
    {
      "inputs": [
        {
          "internalType": "uint256",
          "name": "",
          "type": "uint256"
        }
      ],
      "name": "novas",
      "outputs": [
        {
          "internalType": "address",
          "name": "",
          "type": "address"
        }
      ],
      "stateMutability": "view",
      "type": "function"
    },
    {
      "inputs": [],
      "name": "pluginRegistry",
      "outputs": [
        {
          "internalType": "address",
          "name": "",
          "type": "address"
        }
      ],
      "stateMutability": "view",
      "type": "function"
    },
    {
      "inputs": [
        {
          "internalType": "address",
          "name": "allowListAddress_",
          "type": "address"
        }
      ],
      "name": "setAllowListAddress",
      "outputs": [],
      "stateMutability": "nonpayable",
      "type": "function"
    }
  ],
  "bytecode": {
    "object": "0x608060405234801561001057600080fd5b50604051610acd380380610acd83398101604081905261002f916101ca565b6001600160a01b03831661008a5760405162461bcd60e51b815260206004820152601860248201527f41757449442041646472657373206e6f7420706173736564000000000000000060448201526064015b60405180910390fd5b6001600160a01b0382166100e05760405162461bcd60e51b815260206004820152601e60248201527f4e6f7661466163746f72792061646472657373206e6f742070617373656400006044820152606401610081565b6001600160a01b0381166101405760405162461bcd60e51b815260206004820152602160248201527f506c7567696e52656769737472792061646472657373206e6f742070617373656044820152601960fa1b6064820152608401610081565b600380546001600160a01b038581166001600160a01b0319928316179092556006805485841690831617905560008054909116918616919091179055600480546001600160a01b039092166001600160a01b031992831617905560058054909116331790555061021e915050565b80516001600160a01b03811681146101c557600080fd5b919050565b600080600080608085870312156101e057600080fd5b6101e9856101ae565b93506101f7602086016101ae565b9250610205604086016101ae565b9150610213606086016101ae565b905092959194509250565b6108a08061022d6000396000f3fe608060405234801561001057600080fd5b50600436106100935760003560e01c8063bcae17c211610066578063bcae17c214610128578063ce1b815f1461013b578063cf349d891461014c578063de90ccca1461015f578063e3d854a31461017257600080fd5b806328e631531461009857806333171b93146100b657806341dcea91146100cb578063572b6c05146100f6575b600080fd5b6100a0610185565b6040516100ad91906106a4565b60405180910390f35b6100c96100c4366004610709565b6101e7565b005b6004546100de906001600160a01b031681565b6040516001600160a01b0390911681526020016100ad565b610118610104366004610709565b6000546001600160a01b0391821691161490565b60405190151581526020016100ad565b6100de61013636600461072d565b610234565b6000546001600160a01b03166100de565b6100a061015a366004610709565b6105d0565b6003546100de906001600160a01b031681565b6100de6101803660046107af565b610646565b606060028054806020026020016040519081016040528092919081815260200182805480156101dd57602002820191906000526020600020905b81546001600160a01b031681526001909101906020018083116101bf575b5050505050905090565b6005546001600160a01b031633146102125760405163618bbdd560e01b815260040160405180910390fd5b600780546001600160a01b0319166001600160a01b0392909216919091179055565b600080851180156102455750600485105b6102875760405162461bcd60e51b815260206004820152600e60248201526d13585c9ad95d081a5b9d985b1a5960921b60448201526064015b60405180910390fd5b826102cb5760405162461bcd60e51b8152602060048201526014602482015273135a5cdcda5b99c813595d1859185d184815549360621b604482015260640161027e565b6000821180156102db5750600b82105b61031c5760405162461bcd60e51b8152602060048201526012602482015271125b9d985b1a590818dbdb5b5a5d1b595b9d60721b604482015260640161027e565b6007546001600160a01b03161561045f576007546001600160a01b031663babcc539610346610670565b6040516001600160e01b031960e084901b1681526001600160a01b039091166004820152602401602060405180830381865afa15801561038a573d6000803e3d6000fd5b505050506040513d601f19601f820116820180604052508101906103ae91906107c8565b6103e95760405163b54ecb9b60e01b815260206004820152600b60248201526a139bdd081bdb881b1a5cdd60aa1b604482015260640161027e565b6000600160006103f7610670565b6001600160a01b031681526020810191909152604001600020541161045f5760405163b54ecb9b60e01b815260206004820152601760248201527f416c7265616479204465706c6f7965642061204e6f7661000000000000000000604482015260640161027e565b6006546000906001600160a01b031663b4aa79dc61047b610670565b600354600480546040516001600160e01b031960e087901b1681526104b894936001600160a01b03908116938e938e938e938e93921691016107ea565b6020604051808303816000875af11580156104d7573d6000803e3d6000fd5b505050506040513d601f19601f820116820180604052508101906104fb919061084d565b600280546001808201835560009283527f405787fa12a823e0f2b7631cc41b3ba8828b3321ca811111fa75cd3aa3bb5ace90910180546001600160a01b0319166001600160a01b038516179055919250610553610670565b6001600160a01b039081168252602080830193909352604091820160009081208054600181018255908252908490200180546001600160a01b031916918516918217905590519081527fafab1707766bafe96926219991cab2ba53caeb9318740895c42aff8b9e3ba22b910160405180910390a195945050505050565b6001600160a01b03811660009081526001602090815260409182902080548351818402810184019094528084526060939283018282801561063a57602002820191906000526020600020905b81546001600160a01b0316815260019091019060200180831161061c575b50505050509050919050565b6002818154811061065657600080fd5b6000918252602090912001546001600160a01b0316905081565b60006014361080159061068d57506000546001600160a01b031633145b1561069f575060131936013560601c90565b503390565b6020808252825182820181905260009190848201906040850190845b818110156106e55783516001600160a01b0316835292840192918401916001016106c0565b50909695505050505050565b6001600160a01b038116811461070657600080fd5b50565b60006020828403121561071b57600080fd5b8135610726816106f1565b9392505050565b6000806000806060858703121561074357600080fd5b84359350602085013567ffffffffffffffff8082111561076257600080fd5b818701915087601f83011261077657600080fd5b81358181111561078557600080fd5b88602082850101111561079757600080fd5b95986020929092019750949560400135945092505050565b6000602082840312156107c157600080fd5b5035919050565b6000602082840312156107da57600080fd5b8151801515811461072657600080fd5b600060018060a01b03808a168352808916602084015287604084015260c060608401528560c0840152858760e0850137600060e0878501015260e0601f19601f880116840101915084608084015280841660a08401525098975050505050505050565b60006020828403121561085f57600080fd5b8151610726816106f156fea264697066735822122094b2add9a87a0c4863b725953c7781e95ee7e8997bda317fed814cd1513815ad64736f6c63430008130033",
    "linkReferences": {}
  },
  "methodIdentifiers": {
    "autIDAddr()": "de90ccca",
    "deployNova(uint256,string,uint256)": "bcae17c2",
    "getNovaByDeployer(address)": "cf349d89",
    "getNovas()": "28e63153",
    "getTrustedForwarder()": "ce1b815f",
    "isTrustedForwarder(address)": "572b6c05",
    "novas(uint256)": "e3d854a3",
    "pluginRegistry()": "41dcea91",
    "setAllowListAddress(address)": "33171b93"
  },
  "id": 76
}