{
  "abi": [
    {
      "inputs": [
        {
          "internalType": "address",
          "name": "nova_",
          "type": "address"
        },
        {
          "internalType": "string",
          "name": "name_",
          "type": "string"
        },
        {
          "internalType": "string",
          "name": "symbol_",
          "type": "string"
        }
      ],
      "stateMutability": "nonpayable",
      "type": "constructor"
    },
    {
      "anonymous": false,
      "inputs": [
        {
          "indexed": true,
          "internalType": "address",
          "name": "owner",
          "type": "address"
        },
        {
          "indexed": true,
          "internalType": "address",
          "name": "approved",
          "type": "address"
        },
        {
          "indexed": true,
          "internalType": "uint256",
          "name": "tokenId",
          "type": "uint256"
        }
      ],
      "name": "Approval",
      "type": "event"
    },
    {
      "anonymous": false,
      "inputs": [
        {
          "indexed": true,
          "internalType": "address",
          "name": "owner",
          "type": "address"
        },
        {
          "indexed": true,
          "internalType": "address",
          "name": "operator",
          "type": "address"
        },
        {
          "indexed": false,
          "internalType": "bool",
          "name": "approved",
          "type": "bool"
        }
      ],
      "name": "ApprovalForAll",
      "type": "event"
    },
    {
      "anonymous": false,
      "inputs": [
        {
          "indexed": false,
          "internalType": "uint64",
          "name": "primaryKey",
          "type": "uint64"
        },
        {
          "indexed": false,
          "internalType": "uint64",
          "name": "uplink",
          "type": "uint64"
        },
        {
          "indexed": false,
          "internalType": "uint8",
          "name": "nodeType",
          "type": "uint8"
        },
        {
          "indexed": false,
          "internalType": "bytes32",
          "name": "symbol",
          "type": "bytes32"
        },
        {
          "indexed": false,
          "internalType": "address",
          "name": "operator",
          "type": "address"
        }
      ],
      "name": "NodeAdded",
      "type": "event"
    },
    {
      "anonymous": false,
      "inputs": [
        {
          "indexed": true,
          "internalType": "address",
          "name": "from",
          "type": "address"
        },
        {
          "indexed": true,
          "internalType": "address",
          "name": "to",
          "type": "address"
        },
        {
          "indexed": true,
          "internalType": "uint256",
          "name": "tokenId",
          "type": "uint256"
        }
      ],
      "name": "Transfer",
      "type": "event"
    },
    {
      "inputs": [
        {
          "internalType": "address",
          "name": "to",
          "type": "address"
        },
        {
          "internalType": "uint256",
          "name": "tokenId",
          "type": "uint256"
        }
      ],
      "name": "approve",
      "outputs": [],
      "stateMutability": "nonpayable",
      "type": "function"
    },
    {
      "inputs": [
        {
          "internalType": "address",
          "name": "owner",
          "type": "address"
        }
      ],
      "name": "balanceOf",
      "outputs": [
        {
          "internalType": "uint256",
          "name": "",
          "type": "uint256"
        }
      ],
      "stateMutability": "view",
      "type": "function"
    },
    {
      "inputs": [
        {
          "internalType": "uint256",
          "name": "tokenId",
          "type": "uint256"
        }
      ],
      "name": "getApproved",
      "outputs": [
        {
          "internalType": "address",
          "name": "",
          "type": "address"
        }
      ],
      "stateMutability": "view",
      "type": "function"
    },
    {
      "inputs": [
        {
          "internalType": "address",
          "name": "owner",
          "type": "address"
        },
        {
          "internalType": "address",
          "name": "operator",
          "type": "address"
        }
      ],
      "name": "isApprovedForAll",
      "outputs": [
        {
          "internalType": "bool",
          "name": "",
          "type": "bool"
        }
      ],
      "stateMutability": "view",
      "type": "function"
    },
    {
      "inputs": [],
      "name": "name",
      "outputs": [
        {
          "internalType": "string",
          "name": "",
          "type": "string"
        }
      ],
      "stateMutability": "view",
      "type": "function"
    },
    {
      "inputs": [],
      "name": "nova",
      "outputs": [
        {
          "internalType": "address",
          "name": "",
          "type": "address"
        }
      ],
      "stateMutability": "view",
      "type": "function"
    },
    {
      "inputs": [
        {
          "internalType": "uint256",
          "name": "tokenId",
          "type": "uint256"
        }
      ],
      "name": "ownerOf",
      "outputs": [
        {
          "internalType": "address",
          "name": "",
          "type": "address"
        }
      ],
      "stateMutability": "view",
      "type": "function"
    },
    {
      "inputs": [
        {
          "internalType": "address",
          "name": "from",
          "type": "address"
        },
        {
          "internalType": "address",
          "name": "to",
          "type": "address"
        },
        {
          "internalType": "uint256",
          "name": "tokenId",
          "type": "uint256"
        }
      ],
      "name": "safeTransferFrom",
      "outputs": [],
      "stateMutability": "nonpayable",
      "type": "function"
    },
    {
      "inputs": [
        {
          "internalType": "address",
          "name": "from",
          "type": "address"
        },
        {
          "internalType": "address",
          "name": "to",
          "type": "address"
        },
        {
          "internalType": "uint256",
          "name": "tokenId",
          "type": "uint256"
        },
        {
          "internalType": "bytes",
          "name": "data",
          "type": "bytes"
        }
      ],
      "name": "safeTransferFrom",
      "outputs": [],
      "stateMutability": "nonpayable",
      "type": "function"
    },
    {
      "inputs": [
        {
          "internalType": "address",
          "name": "operator",
          "type": "address"
        },
        {
          "internalType": "bool",
          "name": "approved",
          "type": "bool"
        }
      ],
      "name": "setApprovalForAll",
      "outputs": [],
      "stateMutability": "nonpayable",
      "type": "function"
    },
    {
      "inputs": [
        {
          "internalType": "bytes4",
          "name": "interfaceId",
          "type": "bytes4"
        }
      ],
      "name": "supportsInterface",
      "outputs": [
        {
          "internalType": "bool",
          "name": "",
          "type": "bool"
        }
      ],
      "stateMutability": "view",
      "type": "function"
    },
    {
      "inputs": [],
      "name": "symbol",
      "outputs": [
        {
          "internalType": "string",
          "name": "",
          "type": "string"
        }
      ],
      "stateMutability": "view",
      "type": "function"
    },
    {
      "inputs": [
        {
          "internalType": "uint256",
          "name": "tokenId",
          "type": "uint256"
        }
      ],
      "name": "tokenURI",
      "outputs": [
        {
          "internalType": "string",
          "name": "",
          "type": "string"
        }
      ],
      "stateMutability": "view",
      "type": "function"
    },
    {
      "inputs": [
        {
          "internalType": "address",
          "name": "from",
          "type": "address"
        },
        {
          "internalType": "address",
          "name": "to",
          "type": "address"
        },
        {
          "internalType": "uint256",
          "name": "tokenId",
          "type": "uint256"
        }
      ],
      "name": "transferFrom",
      "outputs": [],
      "stateMutability": "nonpayable",
      "type": "function"
    }
  ],
  "bytecode": {
    "object": "0x60a06040523480156200001157600080fd5b50604051620016d8380380620016d8833981016040819052620000349162000363565b818160006200004483826200047b565b5060016200005382826200047b565b5050604080516080808201835260008083526020830181815293830181815260608401828152600680546001810182559352845160029093027ff652222313e28459528d920b65115c16c04f3efc82aaedc97be59f3f377c0d3f810180549751935160ff16600160801b0260ff60801b196001600160401b0395861668010000000000000000026001600160801b0319909a16959096169490941797909717939093169190911790945592517ff652222313e28459528d920b65115c16c04f3efc82aaedc97be59f3f377c0d40909301929092556001600160a01b0386169091529050620001433360006200014d565b505050506200056f565b6001600160a01b038216620001a95760405162461bcd60e51b815260206004820181905260248201527f4552433732313a206d696e7420746f20746865207a65726f206164647265737360448201526064015b60405180910390fd5b6000818152600260205260409020546001600160a01b031615620002105760405162461bcd60e51b815260206004820152601c60248201527f4552433732313a20746f6b656e20616c7265616479206d696e746564000000006044820152606401620001a0565b6001600160a01b03821660009081526003602052604081208054600192906200023b90849062000547565b909155505060008181526002602052604080822080546001600160a01b0319166001600160a01b03861690811790915590518392907fddf252ad1be2c89b69c2b068fc378daa952ba7f163c4a11628f55a4df523b3ef908290a45050565b505050565b634e487b7160e01b600052604160045260246000fd5b600082601f830112620002c657600080fd5b81516001600160401b0380821115620002e357620002e36200029e565b604051601f8301601f19908116603f011681019082821181831017156200030e576200030e6200029e565b816040528381526020925086838588010111156200032b57600080fd5b600091505b838210156200034f578582018301518183018401529082019062000330565b600093810190920192909252949350505050565b6000806000606084860312156200037957600080fd5b83516001600160a01b03811681146200039157600080fd5b60208501519093506001600160401b0380821115620003af57600080fd5b620003bd87838801620002b4565b93506040860151915080821115620003d457600080fd5b50620003e386828701620002b4565b9150509250925092565b600181811c908216806200040257607f821691505b6020821081036200042357634e487b7160e01b600052602260045260246000fd5b50919050565b601f8211156200029957600081815260208120601f850160051c81016020861015620004525750805b601f850160051c820191505b8181101562000473578281556001016200045e565b505050505050565b81516001600160401b038111156200049757620004976200029e565b620004af81620004a88454620003ed565b8462000429565b602080601f831160018114620004e75760008415620004ce5750858301515b600019600386901b1c1916600185901b17855562000473565b600085815260208120601f198616915b828110156200051857888601518255948401946001909101908401620004f7565b5085821015620005375787850151600019600388901b60f8161c191681555b5050505050600190811b01905550565b808201808211156200056957634e487b7160e01b600052601160045260246000fd5b92915050565b60805161114d6200058b6000396000610171015261114d6000f3fe608060405234801561001057600080fd5b50600436106100ea5760003560e01c80636352211e1161008c578063a22cb46511610066578063a22cb465146101f5578063b88d4fde14610208578063c87b56dd1461021b578063e985e9c51461022e57600080fd5b80636352211e146101b957806370a08231146101cc57806395d89b41146101ed57600080fd5b8063095ea7b3116100c8578063095ea7b3146101575780631e5ba66c1461016c57806323b872dd1461019357806342842e0e146101a657600080fd5b806301ffc9a7146100ef57806306fdde0314610117578063081812fc1461012c575b600080fd5b6101026100fd366004610c74565b610241565b60405190151581526020015b60405180910390f35b61011f610293565b60405161010e9190610ce1565b61013f61013a366004610cf4565b610325565b6040516001600160a01b03909116815260200161010e565b61016a610165366004610d29565b61034c565b005b61013f7f000000000000000000000000000000000000000000000000000000000000000081565b61016a6101a1366004610d53565b610466565b61016a6101b4366004610d53565b610497565b61013f6101c7366004610cf4565b6104b2565b6101df6101da366004610d8f565b610512565b60405190815260200161010e565b61011f610598565b61016a610203366004610daa565b6105a7565b61016a610216366004610dfc565b6105b6565b61011f610229366004610cf4565b6105ee565b61010261023c366004610ed8565b610662565b60006001600160e01b031982166380ac58cd60e01b148061027257506001600160e01b03198216635b5e139f60e01b145b8061028d57506301ffc9a760e01b6001600160e01b03198316145b92915050565b6060600080546102a290610f0b565b80601f01602080910402602001604051908101604052809291908181526020018280546102ce90610f0b565b801561031b5780601f106102f05761010080835404028352916020019161031b565b820191906000526020600020905b8154815290600101906020018083116102fe57829003601f168201915b5050505050905090565b600061033082610690565b506000908152600460205260409020546001600160a01b031690565b6000610357826104b2565b9050806001600160a01b0316836001600160a01b0316036103c95760405162461bcd60e51b815260206004820152602160248201527f4552433732313a20617070726f76616c20746f2063757272656e74206f776e656044820152603960f91b60648201526084015b60405180910390fd5b336001600160a01b03821614806103e557506103e58133610662565b6104575760405162461bcd60e51b815260206004820152603e60248201527f4552433732313a20617070726f76652063616c6c6572206973206e6f7420746f60448201527f6b656e206f776e6572206e6f7220617070726f76656420666f7220616c6c000060648201526084016103c0565b61046183836106f2565b505050565b6104703382610760565b61048c5760405162461bcd60e51b81526004016103c090610f45565b6104618383836107bf565b610461838383604051806020016040528060008152506105b6565b6000818152600260205260408120546001600160a01b03168061028d5760405162461bcd60e51b8152602060048201526018602482015277115490cdcc8c4e881a5b9d985b1a59081d1bdad95b88125160421b60448201526064016103c0565b60006001600160a01b03821661057c5760405162461bcd60e51b815260206004820152602960248201527f4552433732313a2061646472657373207a65726f206973206e6f7420612076616044820152683634b21037bbb732b960b91b60648201526084016103c0565b506001600160a01b031660009081526003602052604090205490565b6060600180546102a290610f0b565b6105b233838361095b565b5050565b6105c03383610760565b6105dc5760405162461bcd60e51b81526004016103c090610f45565b6105e884848484610a29565b50505050565b60606105f982610690565b600061061060408051602081019091526000815290565b90506000815111610630576040518060200160405280600081525061065b565b8061063a84610a5c565b60405160200161064b929190610f93565b6040516020818303038152906040525b9392505050565b6001600160a01b03918216600090815260056020908152604080832093909416825291909152205460ff1690565b6000818152600260205260409020546001600160a01b03166106ef5760405162461bcd60e51b8152602060048201526018602482015277115490cdcc8c4e881a5b9d985b1a59081d1bdad95b88125160421b60448201526064016103c0565b50565b600081815260046020526040902080546001600160a01b0319166001600160a01b0384169081179091558190610727826104b2565b6001600160a01b03167f8c5be1e5ebec7d5bd14f71427d1e84f3dd0314c0f7b2291e5b200ac8c7c3b92560405160405180910390a45050565b60008061076c836104b2565b9050806001600160a01b0316846001600160a01b0316148061079357506107938185610662565b806107b75750836001600160a01b03166107ac84610325565b6001600160a01b0316145b949350505050565b826001600160a01b03166107d2826104b2565b6001600160a01b0316146108365760405162461bcd60e51b815260206004820152602560248201527f4552433732313a207472616e736665722066726f6d20696e636f72726563742060448201526437bbb732b960d91b60648201526084016103c0565b6001600160a01b0382166108985760405162461bcd60e51b8152602060048201526024808201527f4552433732313a207472616e7366657220746f20746865207a65726f206164646044820152637265737360e01b60648201526084016103c0565b6108a36000826106f2565b6001600160a01b03831660009081526003602052604081208054600192906108cc908490610fd8565b90915550506001600160a01b03821660009081526003602052604081208054600192906108fa908490610feb565b909155505060008181526002602052604080822080546001600160a01b0319166001600160a01b0386811691821790925591518493918716917fddf252ad1be2c89b69c2b068fc378daa952ba7f163c4a11628f55a4df523b3ef91a4505050565b816001600160a01b0316836001600160a01b0316036109bc5760405162461bcd60e51b815260206004820152601960248201527f4552433732313a20617070726f766520746f2063616c6c65720000000000000060448201526064016103c0565b6001600160a01b03838116600081815260056020908152604080832094871680845294825291829020805460ff191686151590811790915591519182527f17307eab39ab6107e8899845ad3d59bd9653f200f220920489ca2b5937696c31910160405180910390a3505050565b610a348484846107bf565b610a4084848484610b5d565b6105e85760405162461bcd60e51b81526004016103c090610ffe565b606081600003610a835750506040805180820190915260018152600360fc1b602082015290565b8160005b8115610aad5780610a9781611050565b9150610aa69050600a8361107f565b9150610a87565b60008167ffffffffffffffff811115610ac857610ac8610de6565b6040519080825280601f01601f191660200182016040528015610af2576020820181803683370190505b5090505b84156107b757610b07600183610fd8565b9150610b14600a86611093565b610b1f906030610feb565b60f81b818381518110610b3457610b346110a7565b60200101906001600160f81b031916908160001a905350610b56600a8661107f565b9450610af6565b60006001600160a01b0384163b15610c5357604051630a85bd0160e11b81526001600160a01b0385169063150b7a0290610ba19033908990889088906004016110bd565b6020604051808303816000875af1925050508015610bdc575060408051601f3d908101601f19168201909252610bd9918101906110fa565b60015b610c39573d808015610c0a576040519150601f19603f3d011682016040523d82523d6000602084013e610c0f565b606091505b508051600003610c315760405162461bcd60e51b81526004016103c090610ffe565b805181602001fd5b6001600160e01b031916630a85bd0160e11b1490506107b7565b506001949350505050565b6001600160e01b0319811681146106ef57600080fd5b600060208284031215610c8657600080fd5b813561065b81610c5e565b60005b83811015610cac578181015183820152602001610c94565b50506000910152565b60008151808452610ccd816020860160208601610c91565b601f01601f19169290920160200192915050565b60208152600061065b6020830184610cb5565b600060208284031215610d0657600080fd5b5035919050565b80356001600160a01b0381168114610d2457600080fd5b919050565b60008060408385031215610d3c57600080fd5b610d4583610d0d565b946020939093013593505050565b600080600060608486031215610d6857600080fd5b610d7184610d0d565b9250610d7f60208501610d0d565b9150604084013590509250925092565b600060208284031215610da157600080fd5b61065b82610d0d565b60008060408385031215610dbd57600080fd5b610dc683610d0d565b915060208301358015158114610ddb57600080fd5b809150509250929050565b634e487b7160e01b600052604160045260246000fd5b60008060008060808587031215610e1257600080fd5b610e1b85610d0d565b9350610e2960208601610d0d565b925060408501359150606085013567ffffffffffffffff80821115610e4d57600080fd5b818701915087601f830112610e6157600080fd5b813581811115610e7357610e73610de6565b604051601f8201601f19908116603f01168101908382118183101715610e9b57610e9b610de6565b816040528281528a6020848701011115610eb457600080fd5b82602086016020830137600060208483010152809550505050505092959194509250565b60008060408385031215610eeb57600080fd5b610ef483610d0d565b9150610f0260208401610d0d565b90509250929050565b600181811c90821680610f1f57607f821691505b602082108103610f3f57634e487b7160e01b600052602260045260246000fd5b50919050565b6020808252602e908201527f4552433732313a2063616c6c6572206973206e6f7420746f6b656e206f776e6560408201526d1c881b9bdc88185c1c1c9bdd995960921b606082015260800190565b60008351610fa5818460208801610c91565b835190830190610fb9818360208801610c91565b01949350505050565b634e487b7160e01b600052601160045260246000fd5b8181038181111561028d5761028d610fc2565b8082018082111561028d5761028d610fc2565b60208082526032908201527f4552433732313a207472616e7366657220746f206e6f6e20455243373231526560408201527131b2b4bb32b91034b6b83632b6b2b73a32b960711b606082015260800190565b60006001820161106257611062610fc2565b5060010190565b634e487b7160e01b600052601260045260246000fd5b60008261108e5761108e611069565b500490565b6000826110a2576110a2611069565b500690565b634e487b7160e01b600052603260045260246000fd5b6001600160a01b03858116825284166020820152604081018390526080606082018190526000906110f090830184610cb5565b9695505050505050565b60006020828403121561110c57600080fd5b815161065b81610c5e56fea2646970667358221220710183263e1de84dc327d80c768b467835f0f866af155fa1916d8b15f7fd5d4064736f6c63430008130033",
    "linkReferences": {}
  },
  "methodIdentifiers": {
    "approve(address,uint256)": "095ea7b3",
    "balanceOf(address)": "70a08231",
    "getApproved(uint256)": "081812fc",
    "isApprovedForAll(address,address)": "e985e9c5",
    "name()": "06fdde03",
    "nova()": "1e5ba66c",
    "ownerOf(uint256)": "6352211e",
    "safeTransferFrom(address,address,uint256)": "42842e0e",
    "safeTransferFrom(address,address,uint256,bytes)": "b88d4fde",
    "setApprovalForAll(address,bool)": "a22cb465",
    "supportsInterface(bytes4)": "01ffc9a7",
    "symbol()": "95d89b41",
    "tokenURI(uint256)": "c87b56dd",
    "transferFrom(address,address,uint256)": "23b872dd"
  },
  "id": 12
}